{
  "_format": "hh-sol-artifact-1",
  "contractName": "SocialRecoveryWallet",
  "sourceName": "src/contracts/SocialRecoveryWallet.sol",
  "abi": [
    {
      "inputs": [
        {
          "internalType": "address[]",
          "name": "_guardians",
          "type": "address[]"
        },
        {
          "internalType": "uint256",
          "name": "_requiredConfirmations",
          "type": "uint256"
        }
      ],
      "stateMutability": "nonpayable",
      "type": "constructor"
    },
    {
      "inputs": [
        {
          "internalType": "address",
          "name": "owner",
          "type": "address"
        }
      ],
      "name": "OwnableInvalidOwner",
      "type": "error"
    },
    {
      "inputs": [
        {
          "internalType": "address",
          "name": "account",
          "type": "address"
        }
      ],
      "name": "OwnableUnauthorizedAccount",
      "type": "error"
    },
    {
      "anonymous": false,
      "inputs": [
        {
          "indexed": true,
          "internalType": "address",
          "name": "previousOwner",
          "type": "address"
        },
        {
          "indexed": true,
          "internalType": "address",
          "name": "newOwner",
          "type": "address"
        }
      ],
      "name": "OwnershipTransferred",
      "type": "event"
    },
    {
      "anonymous": false,
      "inputs": [
        {
          "indexed": true,
          "internalType": "address",
          "name": "guardian",
          "type": "address"
        }
      ],
      "name": "RecoveryConfirmation",
      "type": "event"
    },
    {
      "anonymous": false,
      "inputs": [
        {
          "indexed": true,
          "internalType": "address",
          "name": "oldOwner",
          "type": "address"
        },
        {
          "indexed": true,
          "internalType": "address",
          "name": "newOwner",
          "type": "address"
        }
      ],
      "name": "RecoveryExecuted",
      "type": "event"
    },
    {
      "anonymous": false,
      "inputs": [
        {
          "indexed": true,
          "internalType": "address",
          "name": "candidate",
          "type": "address"
        }
      ],
      "name": "RecoveryNomination",
      "type": "event"
    },
    {
      "inputs": [
        {
          "internalType": "address",
          "name": "_candidate",
          "type": "address"
        }
      ],
      "name": "confirmRecovery",
      "outputs": [],
      "stateMutability": "nonpayable",
      "type": "function"
    },
    {
      "inputs": [],
      "name": "confirmationCount",
      "outputs": [
        {
          "internalType": "uint256",
          "name": "",
          "type": "uint256"
        }
      ],
      "stateMutability": "view",
      "type": "function"
    },
    {
      "inputs": [
        {
          "internalType": "address",
          "name": "",
          "type": "address"
        }
      ],
      "name": "confirmedGuardians",
      "outputs": [
        {
          "internalType": "bool",
          "name": "",
          "type": "bool"
        }
      ],
      "stateMutability": "view",
      "type": "function"
    },
    {
      "inputs": [
        {
          "internalType": "uint256",
          "name": "",
          "type": "uint256"
        }
      ],
      "name": "guardians",
      "outputs": [
        {
          "internalType": "address",
          "name": "",
          "type": "address"
        }
      ],
      "stateMutability": "view",
      "type": "function"
    },
    {
      "inputs": [],
      "name": "newOwnerCandidate",
      "outputs": [
        {
          "internalType": "address",
          "name": "",
          "type": "address"
        }
      ],
      "stateMutability": "view",
      "type": "function"
    },
    {
      "inputs": [
        {
          "internalType": "address",
          "name": "_newOwnerCandidate",
          "type": "address"
        }
      ],
      "name": "nominateNewOwner",
      "outputs": [],
      "stateMutability": "nonpayable",
      "type": "function"
    },
    {
      "inputs": [],
      "name": "owner",
      "outputs": [
        {
          "internalType": "address",
          "name": "",
          "type": "address"
        }
      ],
      "stateMutability": "view",
      "type": "function"
    },
    {
      "inputs": [],
      "name": "renounceOwnership",
      "outputs": [],
      "stateMutability": "nonpayable",
      "type": "function"
    },
    {
      "inputs": [
        {
          "internalType": "address",
          "name": "_oldGuardian",
          "type": "address"
        },
        {
          "internalType": "address",
          "name": "_newGuardian",
          "type": "address"
        }
      ],
      "name": "replaceGuardian",
      "outputs": [],
      "stateMutability": "nonpayable",
      "type": "function"
    },
    {
      "inputs": [],
      "name": "requiredConfirmations",
      "outputs": [
        {
          "internalType": "uint256",
          "name": "",
          "type": "uint256"
        }
      ],
      "stateMutability": "view",
      "type": "function"
    },
    {
      "inputs": [
        {
          "internalType": "address",
          "name": "newOwner",
          "type": "address"
        }
      ],
      "name": "transferOwnership",
      "outputs": [],
      "stateMutability": "nonpayable",
      "type": "function"
    }
  ],
  "bytecode": "0x6040608081523461025857610a4b8038038061001a81610273565b928339810182828203126102585781516001600160401b03908181116102585783019282601f850112156102585783519082821161025d578160051b9360209586610066818801610273565b8095815201908782978201019283116102585790878094939201905b82821061022e5750505001519333156102165760008054336001600160a01b031982168117835588516001600160a01b03959394939290919086167f8be0079c531659141344cd1fd0a4f28419497f9722a3daafe3b4186f6b6457e08680a38151156101df5750861515806101d4575b15610190575193841161017c5768010000000000000000841161017c576001948554858755808610610155575b5092858352818320925b858110610142578888600255516107b290816102998239f35b8451821684820155938201938601610129565b868452868684862092830192015b82811061017157505061011f565b858155018790610163565b634e487b7160e01b82526041600452602482fd5b875162461bcd60e51b815260048101839052601e60248201527f496e76616c696420726571756972656420636f6e6669726d6174696f6e7300006044820152606490fd5b5080518711156100f2565b62461bcd60e51b815260048101839052601260248201527111dd585c991a585b9cc81c995c5d5a5c995960721b6044820152606490fd5b8551631e4fbdf760e01b815260006004820152602490fd5b815193945091929091906001600160a01b0381168103610258578152879392918401908401610082565b600080fd5b634e487b7160e01b600052604160045260246000fd5b6040519190601f01601f191682016001600160401b0381118382101761025d5760405256fe6040608081526004908136101561001557600080fd5b600091823560e01c80631627540c146105b05780632b55fef2146105745780636fcd67e614610441578063715018a6146103e75780637ac3e4e6146103c857806382e717f7146103a95780638da5cb5b14610381578063bc1c280414610162578063d091b55014610135578063f2fde38b146100e05763f560c7341461009a57600080fd5b346100dc5760203660031901126100dc5735916001548310156100d957506100c3602092610685565b905491519160018060a01b039160031b1c168152f35b80fd5b8280fd5b50346100dc5760203660031901126100dc576100fa61066a565b916101036106d2565b6001600160a01b0383161561011f578361011c846106fe565b80f35b51631e4fbdf760e01b8152908101839052602490fd5b50503461015e578160031936011261015e5760035490516001600160a01b039091168152602090f35b5080fd5b5090346100dc576020908160031936011261037d5761017f61066a565b92849285936001948554905b818110610343575b505015610312576003546001600160a01b03959086169086168190036102dd57156102a65733865281815260ff8387205416610272573386525283209060ff198254161790556101e4600554610780565b80600555337f9cd440a2b391a1c54510c0d31e9137c4f02a60eac37159f94c1d1e4bda7b4b458480a2600254111561021a575080f35b808254169061022c81600354166106fe565b6bffffffffffffffffffffffff60a01b6003541660035582600555825416907f60f9f98be64687700419cfa6fdd7877bc88c6daeb10bc664a2be9fdd6b0c79218380a380f35b606492519162461bcd60e51b83528201526011602482015270105b1c9958591e4818dbdb999a5c9b5959607a1b6044820152fd5b606492519162461bcd60e51b8352820152601460248201527327379030b1ba34bb32903737b6b4b730ba34b7b760611b6044820152fd5b50606492519162461bcd60e51b83528201526011602482015270496e76616c69642063616e64696461746560781b6044820152fd5b606492519162461bcd60e51b8352820152600e60248201526d2737ba10309033bab0b93234b0b760911b6044820152fd5b61034c81610685565b905460039190911b1c6001600160a01b031633146103725761036d90610780565b61018b565b505050833880610193565b8380fd5b50503461015e578160031936011261015e57905490516001600160a01b039091168152602090f35b50503461015e578160031936011261015e576020906002549051908152f35b50503461015e578160031936011261015e576020906005549051908152f35b83346100d957806003193601126100d9576104006106d2565b80546001600160a01b03198116825581906001600160a01b03167f8be0079c531659141344cd1fd0a4f28419497f9722a3daafe3b4186f6b6457e08280a380f35b50346100dc57816003193601126100dc5761045a61066a565b6001600160a01b039290602435848116919082900361057057849061047d6106d2565b169381851461053e57610491821515610745565b8591865b600180548210156105315783886104ab84610685565b929054600393841b1c16146104ca5750506104c590610780565b610495565b92939450949596506104db90610685565b81949154921b92831b921b19161790555b156104f5578280f35b906020606492519162461bcd60e51b8352820152601660248201527513db190819dd585c991a585b881b9bdd08199bdd5b9960521b6044820152fd5b50505050909192506104ec565b825162461bcd60e51b8152602081860152600c60248201526b53616d65206164647265737360a01b6044820152606490fd5b8580fd5b50346100dc5760203660031901126100dc5760209260ff918391906001600160a01b0361059f61066a565b168252855220541690519015158152f35b5091903461015e57602091826003193601126100d9576105ce61066a565b936105d76106d2565b6001600160a01b03948516936105ee851515610745565b600380546001600160a01b03191686178155600584905595835b60015481101561064157808261062061063c93610685565b9054908b1b1c168652848452868620805460ff19169055610780565b610608565b84877fc11124a57af0947f3f7545b506c2d70401e9916fa7a1fa9da7d9d2b1fc1b78f18280a280f35b600435906001600160a01b038216820361068057565b600080fd5b6001548110156106bc5760016000527fb10e2d527612073b26eecdfd717e6a320cf44b4afac2b0732d9fcbe2b7fa0cf60190600090565b634e487b7160e01b600052603260045260246000fd5b6000546001600160a01b031633036106e657565b60405163118cdaa760e01b8152336004820152602490fd5b600080546001600160a01b039283166001600160a01b03198216811783559216907f8be0079c531659141344cd1fd0a4f28419497f9722a3daafe3b4186f6b6457e09080a3565b1561074c57565b60405162461bcd60e51b815260206004820152600c60248201526b5a65726f206164647265737360a01b6044820152606490fd5b600019811461078f5760010190565b634e487b7160e01b600052601160045260246000fdfea164736f6c6343000814000a",
  "linkReferences": {},
  "deployedLinkReferences": {}
}