{
  "_format": "hh-sol-artifact-1",
  "contractName": "TambrForwarder",
  "sourceName": "src/contracts/Forwarder.sol",
  "abi": [
    {
      "inputs": [],
      "stateMutability": "nonpayable",
      "type": "constructor"
    },
    {
      "inputs": [],
      "name": "ECDSAInvalidSignature",
      "type": "error"
    },
    {
      "inputs": [
        {
          "internalType": "uint256",
          "name": "length",
          "type": "uint256"
        }
      ],
      "name": "ECDSAInvalidSignatureLength",
      "type": "error"
    },
    {
      "inputs": [
        {
          "internalType": "bytes32",
          "name": "s",
          "type": "bytes32"
        }
      ],
      "name": "ECDSAInvalidSignatureS",
      "type": "error"
    },
    {
      "inputs": [],
      "name": "InvalidShortString",
      "type": "error"
    },
    {
      "inputs": [
        {
          "internalType": "string",
          "name": "str",
          "type": "string"
        }
      ],
      "name": "StringTooLong",
      "type": "error"
    },
    {
      "anonymous": false,
      "inputs": [],
      "name": "EIP712DomainChanged",
      "type": "event"
    },
    {
      "anonymous": false,
      "inputs": [
        {
          "indexed": true,
          "internalType": "address",
          "name": "from",
          "type": "address"
        },
        {
          "indexed": true,
          "internalType": "address",
          "name": "to",
          "type": "address"
        },
        {
          "indexed": false,
          "internalType": "bytes",
          "name": "returnData",
          "type": "bytes"
        }
      ],
      "name": "MetaTransactionExecuted",
      "type": "event"
    },
    {
      "inputs": [],
      "name": "eip712Domain",
      "outputs": [
        {
          "internalType": "bytes1",
          "name": "fields",
          "type": "bytes1"
        },
        {
          "internalType": "string",
          "name": "name",
          "type": "string"
        },
        {
          "internalType": "string",
          "name": "version",
          "type": "string"
        },
        {
          "internalType": "uint256",
          "name": "chainId",
          "type": "uint256"
        },
        {
          "internalType": "address",
          "name": "verifyingContract",
          "type": "address"
        },
        {
          "internalType": "bytes32",
          "name": "salt",
          "type": "bytes32"
        },
        {
          "internalType": "uint256[]",
          "name": "extensions",
          "type": "uint256[]"
        }
      ],
      "stateMutability": "view",
      "type": "function"
    },
    {
      "inputs": [
        {
          "components": [
            {
              "internalType": "address",
              "name": "from",
              "type": "address"
            },
            {
              "internalType": "address",
              "name": "to",
              "type": "address"
            },
            {
              "internalType": "uint256",
              "name": "value",
              "type": "uint256"
            },
            {
              "internalType": "uint256",
              "name": "gas",
              "type": "uint256"
            },
            {
              "internalType": "uint256",
              "name": "nonce",
              "type": "uint256"
            },
            {
              "internalType": "bytes",
              "name": "data",
              "type": "bytes"
            }
          ],
          "internalType": "struct TambrForwarder.ForwardRequest",
          "name": "req",
          "type": "tuple"
        },
        {
          "internalType": "bytes",
          "name": "signature",
          "type": "bytes"
        }
      ],
      "name": "execute",
      "outputs": [
        {
          "internalType": "bool",
          "name": "",
          "type": "bool"
        },
        {
          "internalType": "bytes",
          "name": "",
          "type": "bytes"
        }
      ],
      "stateMutability": "payable",
      "type": "function"
    },
    {
      "inputs": [
        {
          "internalType": "address",
          "name": "from",
          "type": "address"
        }
      ],
      "name": "getNonce",
      "outputs": [
        {
          "internalType": "uint256",
          "name": "",
          "type": "uint256"
        }
      ],
      "stateMutability": "view",
      "type": "function"
    },
    {
      "inputs": [
        {
          "components": [
            {
              "internalType": "address",
              "name": "from",
              "type": "address"
            },
            {
              "internalType": "address",
              "name": "to",
              "type": "address"
            },
            {
              "internalType": "uint256",
              "name": "value",
              "type": "uint256"
            },
            {
              "internalType": "uint256",
              "name": "gas",
              "type": "uint256"
            },
            {
              "internalType": "uint256",
              "name": "nonce",
              "type": "uint256"
            },
            {
              "internalType": "bytes",
              "name": "data",
              "type": "bytes"
            }
          ],
          "internalType": "struct TambrForwarder.ForwardRequest",
          "name": "req",
          "type": "tuple"
        },
        {
          "internalType": "bytes",
          "name": "signature",
          "type": "bytes"
        }
      ],
      "name": "verify",
      "outputs": [
        {
          "internalType": "bool",
          "name": "",
          "type": "bool"
        }
      ],
      "stateMutability": "view",
      "type": "function"
    }
  ],
  "bytecode": "0x61016080604052346200015157620000178162000156565b600e8152602081016d2a30b6b1392337b93bb0b93232b960911b815260405191620000428362000156565b6001835260208301603160f81b81526200005c8262000172565b926101209384526200006e8562000345565b92610140938452519020938460e05251902091610100938385524660a0526040519360208501917f8b73c3c69bb8fe3d512ecc4cf759cc79239f7b179b0ffacaa9a75d522b39400f8352604086015260608501524660808501523060a085015260a0845260c084019380851060018060401b038611176200013b57846040525190206080523060c052610ae59384620004f38539608051846109e6015260a05184610ab2015260c051846109b0015260e05184610a3501525183610a5b0152518260900152518160ba0152f35b634e487b7160e01b600052604160045260246000fd5b600080fd5b604081019081106001600160401b038211176200013b57604052565b8051602091908281101562000211575090601f825111620001b05780825192015190808310620001a157501790565b82600019910360031b1b161790565b90604051809263305a27a960e01b82528060048301528251908160248401526000935b828510620001f7575050604492506000838284010152601f80199101168101030190fd5b8481018201518686016044015293810193859350620001d3565b6001600160401b0381116200013b576000928354926001938481811c911680156200033a575b838210146200032657601f8111620002f0575b5081601f841160011462000289575092829391839286946200027d575b50501b916000199060031b1c191617905560ff90565b01519250388062000267565b919083601f1981168780528488209488905b88838310620002d55750505010620002bb575b505050811b01905560ff90565b015160001960f88460031b161c19169055388080620002ae565b8587015188559096019594850194879350908101906200029b565b85805284601f848820920160051c820191601f860160051c015b8281106200031a5750506200024a565b8781550185906200030a565b634e487b7160e01b86526022600452602486fd5b90607f169062000237565b805160209081811015620003d35750601f825111620003725780825192015190808310620001a157501790565b90604051809263305a27a960e01b82528060048301528251908160248401526000935b828510620003b9575050604492506000838284010152601f80199101168101030190fd5b848101820151868601604401529381019385935062000395565b9192916001600160401b0381116200013b5760019182548381811c91168015620004e7575b82821014620004d157601f811162000498575b5080601f83116001146200044b5750819293946000926200043f575b5050600019600383901b1c191690821b17905560ff90565b01519050388062000427565b90601f198316958460005282600020926000905b888210620004805750508385969710620002bb57505050811b01905560ff90565b8087859682949686015181550195019301906200045f565b8360005283601f83600020920160051c820191601f850160051c015b828110620004c45750506200040b565b60008155018490620004b4565b634e487b7160e01b600052602260045260246000fd5b90607f1690620003f856fe608060408181526004918236101561001657600080fd5b600092833560e01c9182632d0335ab146103785750816347153f821461019a57816384b0196e14610078575063bf5d3bdb1461005157600080fd5b346100745760209061006b610065366103b3565b91610746565b90519015158152f35b5080fd5b919050346101965782600319360112610196576100b47f00000000000000000000000000000000000000000000000000000000000000006104b3565b926100de7f00000000000000000000000000000000000000000000000000000000000000006105d9565b908251926020928385019585871067ffffffffffffffff8811176101835750928061013983889661012c998b9996528686528151998a99600f60f81b8b5260e0868c015260e08b019061041f565b91898303908a015261041f565b924660608801523060808801528460a088015286840360c088015251928381520193925b82811061016c57505050500390f35b83518552869550938101939281019260010161015d565b634e487b7160e01b845260419052602483fd5b8280fd5b6101b184846101a8366103b3565b90829592610746565b15610336576001600160a01b03806101c8856106c8565b168352602094600286528284208054906000198214610323576001820190556080860135036102ef5750906102ba9291858501908380610207846106c8565b61021460a08a018a6106dc565b90818851928392833781018481520391878b01359060608c0135f1953d156102be576102896102837f5845892132946850460bff5a0083f71031bc5bf9aadcd40f1de79423eac9b10b923d610268816106ac565b9061027589519283610491565b815280988c3d92013e6106c8565b936106c8565b91808551938a855216931691806102a28a82018861041f565b0390a38080519586951515865285015283019061041f565b0390f35b93507f5845892132946850460bff5a0083f71031bc5bf9aadcd40f1de79423eac9b10b6102896102836060966106c8565b825162461bcd60e51b8152908101869052600e60248201526d09cdedcc6ca40dad2e6dac2e8c6d60931b6044820152606490fd5b634e487b7160e01b865260118352602486fd5b5162461bcd60e51b8152602081850152601d60248201527f5369676e617475726520766572696669636174696f6e206661696c65640000006044820152606490fd5b929150346103af5760203660031901126103af57356001600160a01b038116908190036103af579260209381526002845220548152f35b8380fd5b906003199060408284011261041a5760043567ffffffffffffffff9283821161041a5760c090828603011261041a57600401926024359083821161041a578060238301121561041a57816004013593841161041a576024848301011161041a576024019190565b600080fd5b919082519283825260005b84811061044b575050826000602080949584010152601f8019910116010190565b60208183018101518483018201520161042a565b6040810190811067ffffffffffffffff82111761047b57604052565b634e487b7160e01b600052604160045260246000fd5b90601f8019910116810190811067ffffffffffffffff82111761047b57604052565b60ff81146104f15760ff811690601f82116104df57604051916104d58361045f565b8252602082015290565b604051632cd44ac360e21b8152600490fd5b506040516000805490600182811c908084169384156105cf575b60209485841081146105bb578387528694939291811561059b575060011461053f575b505061053c92500382610491565b90565b60008080527f290decd9548b62a8d60345a988386fc84ba6bc95484008f6362f93160ef3e56395935091905b81831061058357505061053c9350820101388061052e565b8554878401850152948501948694509183019161056b565b91505061053c94925060ff191682840152151560051b820101388061052e565b634e487b7160e01b85526022600452602485fd5b91607f169161050b565b60ff81146105fb5760ff811690601f82116104df57604051916104d58361045f565b50604051600060019081549182811c908084169384156106a2575b60209485841081146105bb578387528694939291811561059b575060011461064657505061053c92500382610491565b60008181527fb10e2d527612073b26eecdfd717e6a320cf44b4afac2b0732d9fcbe2b7fa0cf695935091905b81831061068a57505061053c9350820101388061052e565b85548784018501529485019486945091830191610672565b91607f1691610616565b67ffffffffffffffff811161047b57601f01601f191660200190565b356001600160a01b038116810361041a5790565b903590601e198136030182121561041a570180359067ffffffffffffffff821161041a5760200191813603831361041a57565b92919261071b826106ac565b916107296040519384610491565b82948184528183011161041a578281602093846000960137010152565b90610750826106c8565b9261075d602084016106c8565b9261077561076e60a08301836106dc565b369161070f565b60208151910120946040519560208701917fdd8f4b70b0f4393e889bd39128a30628a78b61816a9eb8199759e7a349657e48835260018060a01b03968780921660408a015216606088015260408301356080880152606083013560a0880152608083013560c088015260e087015260e0865261010086019286841067ffffffffffffffff85111761047b5761084186956042610847946108509a610855986040525190206108216109ad565b906040519161190160f01b8352600283015260228201522092369161070f565b9061085c565b90969196610928565b6106c8565b1691161490565b815191906041830361088d5761088692506020820151906060604084015193015160001a90610898565b9192909190565b505060009160029190565b91907f7fffffffffffffffffffffffffffffff5d576e7357a4501ddfe92f46681b20a0841161091c57926020929160ff608095604051948552168484015260408301526060820152600092839182805260015afa156109105780516001600160a01b0381161561090757918190565b50809160019190565b604051903d90823e3d90fd5b50505060009160039190565b6004811015610997578061093a575050565b600181036109545760405163f645eedf60e01b8152600490fd5b600281036109755760405163fce698f760e01b815260048101839052602490fd5b60031461097f5750565b602490604051906335e2f38360e21b82526004820152fd5b634e487b7160e01b600052602160045260246000fd5b307f00000000000000000000000000000000000000000000000000000000000000006001600160a01b03161480610aaf575b15610a08577f000000000000000000000000000000000000000000000000000000000000000090565b60405160208101907f8b73c3c69bb8fe3d512ecc4cf759cc79239f7b179b0ffacaa9a75d522b39400f82527f000000000000000000000000000000000000000000000000000000000000000060408201527f000000000000000000000000000000000000000000000000000000000000000060608201524660808201523060a082015260a0815260c0810181811067ffffffffffffffff82111761047b5760405251902090565b507f000000000000000000000000000000000000000000000000000000000000000046146109df56fea164736f6c6343000814000a",
  "linkReferences": {},
  "deployedLinkReferences": {}
}