{
  "_format": "hh-sol-artifact-1",
  "contractName": "UniswapV2Pair",
  "sourceName": "src/contracts/UniswapV2Pair.sol",
  "abi": [
    {
      "inputs": [
        {
          "internalType": "address",
          "name": "_token0",
          "type": "address"
        },
        {
          "internalType": "address",
          "name": "_token1",
          "type": "address"
        },
        {
          "internalType": "string",
          "name": "lpName",
          "type": "string"
        },
        {
          "internalType": "string",
          "name": "lpSymbol",
          "type": "string"
        },
        {
          "internalType": "address",
          "name": "initialOwner",
          "type": "address"
        }
      ],
      "stateMutability": "nonpayable",
      "type": "constructor"
    },
    {
      "inputs": [
        {
          "internalType": "address",
          "name": "spender",
          "type": "address"
        },
        {
          "internalType": "uint256",
          "name": "allowance",
          "type": "uint256"
        },
        {
          "internalType": "uint256",
          "name": "needed",
          "type": "uint256"
        }
      ],
      "name": "ERC20InsufficientAllowance",
      "type": "error"
    },
    {
      "inputs": [
        {
          "internalType": "address",
          "name": "sender",
          "type": "address"
        },
        {
          "internalType": "uint256",
          "name": "balance",
          "type": "uint256"
        },
        {
          "internalType": "uint256",
          "name": "needed",
          "type": "uint256"
        }
      ],
      "name": "ERC20InsufficientBalance",
      "type": "error"
    },
    {
      "inputs": [
        {
          "internalType": "address",
          "name": "approver",
          "type": "address"
        }
      ],
      "name": "ERC20InvalidApprover",
      "type": "error"
    },
    {
      "inputs": [
        {
          "internalType": "address",
          "name": "receiver",
          "type": "address"
        }
      ],
      "name": "ERC20InvalidReceiver",
      "type": "error"
    },
    {
      "inputs": [
        {
          "internalType": "address",
          "name": "sender",
          "type": "address"
        }
      ],
      "name": "ERC20InvalidSender",
      "type": "error"
    },
    {
      "inputs": [
        {
          "internalType": "address",
          "name": "spender",
          "type": "address"
        }
      ],
      "name": "ERC20InvalidSpender",
      "type": "error"
    },
    {
      "inputs": [
        {
          "internalType": "address",
          "name": "owner",
          "type": "address"
        }
      ],
      "name": "OwnableInvalidOwner",
      "type": "error"
    },
    {
      "inputs": [
        {
          "internalType": "address",
          "name": "account",
          "type": "address"
        }
      ],
      "name": "OwnableUnauthorizedAccount",
      "type": "error"
    },
    {
      "inputs": [],
      "name": "ReentrancyGuardReentrantCall",
      "type": "error"
    },
    {
      "anonymous": false,
      "inputs": [
        {
          "indexed": true,
          "internalType": "address",
          "name": "owner",
          "type": "address"
        },
        {
          "indexed": true,
          "internalType": "address",
          "name": "spender",
          "type": "address"
        },
        {
          "indexed": false,
          "internalType": "uint256",
          "name": "value",
          "type": "uint256"
        }
      ],
      "name": "Approval",
      "type": "event"
    },
    {
      "anonymous": false,
      "inputs": [
        {
          "indexed": true,
          "internalType": "address",
          "name": "sender",
          "type": "address"
        },
        {
          "indexed": false,
          "internalType": "uint256",
          "name": "amount0",
          "type": "uint256"
        },
        {
          "indexed": false,
          "internalType": "uint256",
          "name": "amount1",
          "type": "uint256"
        },
        {
          "indexed": true,
          "internalType": "address",
          "name": "to",
          "type": "address"
        }
      ],
      "name": "Burn",
      "type": "event"
    },
    {
      "anonymous": false,
      "inputs": [
        {
          "indexed": true,
          "internalType": "address",
          "name": "sender",
          "type": "address"
        },
        {
          "indexed": false,
          "internalType": "uint256",
          "name": "amount0",
          "type": "uint256"
        },
        {
          "indexed": false,
          "internalType": "uint256",
          "name": "amount1",
          "type": "uint256"
        }
      ],
      "name": "Mint",
      "type": "event"
    },
    {
      "anonymous": false,
      "inputs": [
        {
          "indexed": true,
          "internalType": "address",
          "name": "previousOwner",
          "type": "address"
        },
        {
          "indexed": true,
          "internalType": "address",
          "name": "newOwner",
          "type": "address"
        }
      ],
      "name": "OwnershipTransferred",
      "type": "event"
    },
    {
      "anonymous": false,
      "inputs": [
        {
          "indexed": true,
          "internalType": "address",
          "name": "sender",
          "type": "address"
        },
        {
          "indexed": false,
          "internalType": "uint256",
          "name": "amount0In",
          "type": "uint256"
        },
        {
          "indexed": false,
          "internalType": "uint256",
          "name": "amount1In",
          "type": "uint256"
        },
        {
          "indexed": false,
          "internalType": "uint256",
          "name": "amount0Out",
          "type": "uint256"
        },
        {
          "indexed": false,
          "internalType": "uint256",
          "name": "amount1Out",
          "type": "uint256"
        },
        {
          "indexed": true,
          "internalType": "address",
          "name": "to",
          "type": "address"
        }
      ],
      "name": "Swap",
      "type": "event"
    },
    {
      "anonymous": false,
      "inputs": [
        {
          "indexed": false,
          "internalType": "uint256",
          "name": "reserve0",
          "type": "uint256"
        },
        {
          "indexed": false,
          "internalType": "uint256",
          "name": "reserve1",
          "type": "uint256"
        }
      ],
      "name": "Sync",
      "type": "event"
    },
    {
      "anonymous": false,
      "inputs": [
        {
          "indexed": true,
          "internalType": "address",
          "name": "from",
          "type": "address"
        },
        {
          "indexed": true,
          "internalType": "address",
          "name": "to",
          "type": "address"
        },
        {
          "indexed": false,
          "internalType": "uint256",
          "name": "value",
          "type": "uint256"
        }
      ],
      "name": "Transfer",
      "type": "event"
    },
    {
      "inputs": [],
      "name": "BASIS_POINTS",
      "outputs": [
        {
          "internalType": "uint256",
          "name": "",
          "type": "uint256"
        }
      ],
      "stateMutability": "view",
      "type": "function"
    },
    {
      "inputs": [],
      "name": "FEE_PERCENTAGE",
      "outputs": [
        {
          "internalType": "uint256",
          "name": "",
          "type": "uint256"
        }
      ],
      "stateMutability": "view",
      "type": "function"
    },
    {
      "inputs": [
        {
          "internalType": "address",
          "name": "owner",
          "type": "address"
        },
        {
          "internalType": "address",
          "name": "spender",
          "type": "address"
        }
      ],
      "name": "allowance",
      "outputs": [
        {
          "internalType": "uint256",
          "name": "",
          "type": "uint256"
        }
      ],
      "stateMutability": "view",
      "type": "function"
    },
    {
      "inputs": [
        {
          "internalType": "address",
          "name": "spender",
          "type": "address"
        },
        {
          "internalType": "uint256",
          "name": "value",
          "type": "uint256"
        }
      ],
      "name": "approve",
      "outputs": [
        {
          "internalType": "bool",
          "name": "",
          "type": "bool"
        }
      ],
      "stateMutability": "nonpayable",
      "type": "function"
    },
    {
      "inputs": [
        {
          "internalType": "address",
          "name": "account",
          "type": "address"
        }
      ],
      "name": "balanceOf",
      "outputs": [
        {
          "internalType": "uint256",
          "name": "",
          "type": "uint256"
        }
      ],
      "stateMutability": "view",
      "type": "function"
    },
    {
      "inputs": [
        {
          "internalType": "address",
          "name": "to",
          "type": "address"
        }
      ],
      "name": "burn",
      "outputs": [
        {
          "internalType": "uint256",
          "name": "amount0",
          "type": "uint256"
        },
        {
          "internalType": "uint256",
          "name": "amount1",
          "type": "uint256"
        }
      ],
      "stateMutability": "nonpayable",
      "type": "function"
    },
    {
      "inputs": [],
      "name": "decimals",
      "outputs": [
        {
          "internalType": "uint8",
          "name": "",
          "type": "uint8"
        }
      ],
      "stateMutability": "view",
      "type": "function"
    },
    {
      "inputs": [
        {
          "internalType": "uint256",
          "name": "amountOut",
          "type": "uint256"
        },
        {
          "internalType": "uint256",
          "name": "reserveIn",
          "type": "uint256"
        },
        {
          "internalType": "uint256",
          "name": "reserveOut",
          "type": "uint256"
        }
      ],
      "name": "getAmountIn",
      "outputs": [
        {
          "internalType": "uint256",
          "name": "amountIn",
          "type": "uint256"
        }
      ],
      "stateMutability": "pure",
      "type": "function"
    },
    {
      "inputs": [
        {
          "internalType": "uint256",
          "name": "amountIn",
          "type": "uint256"
        },
        {
          "internalType": "uint256",
          "name": "reserveIn",
          "type": "uint256"
        },
        {
          "internalType": "uint256",
          "name": "reserveOut",
          "type": "uint256"
        }
      ],
      "name": "getAmountOut",
      "outputs": [
        {
          "internalType": "uint256",
          "name": "amountOut",
          "type": "uint256"
        }
      ],
      "stateMutability": "pure",
      "type": "function"
    },
    {
      "inputs": [],
      "name": "kLast",
      "outputs": [
        {
          "internalType": "uint256",
          "name": "",
          "type": "uint256"
        }
      ],
      "stateMutability": "view",
      "type": "function"
    },
    {
      "inputs": [
        {
          "internalType": "address",
          "name": "to",
          "type": "address"
        }
      ],
      "name": "mint",
      "outputs": [
        {
          "internalType": "uint256",
          "name": "liquidity",
          "type": "uint256"
        }
      ],
      "stateMutability": "nonpayable",
      "type": "function"
    },
    {
      "inputs": [],
      "name": "name",
      "outputs": [
        {
          "internalType": "string",
          "name": "",
          "type": "string"
        }
      ],
      "stateMutability": "view",
      "type": "function"
    },
    {
      "inputs": [],
      "name": "owner",
      "outputs": [
        {
          "internalType": "address",
          "name": "",
          "type": "address"
        }
      ],
      "stateMutability": "view",
      "type": "function"
    },
    {
      "inputs": [],
      "name": "renounceOwnership",
      "outputs": [],
      "stateMutability": "nonpayable",
      "type": "function"
    },
    {
      "inputs": [],
      "name": "reserve0",
      "outputs": [
        {
          "internalType": "uint256",
          "name": "",
          "type": "uint256"
        }
      ],
      "stateMutability": "view",
      "type": "function"
    },
    {
      "inputs": [],
      "name": "reserve1",
      "outputs": [
        {
          "internalType": "uint256",
          "name": "",
          "type": "uint256"
        }
      ],
      "stateMutability": "view",
      "type": "function"
    },
    {
      "inputs": [
        {
          "internalType": "uint256",
          "name": "amount0Out",
          "type": "uint256"
        },
        {
          "internalType": "uint256",
          "name": "amount1Out",
          "type": "uint256"
        },
        {
          "internalType": "address",
          "name": "to",
          "type": "address"
        },
        {
          "internalType": "bytes",
          "name": "data",
          "type": "bytes"
        }
      ],
      "name": "swap",
      "outputs": [],
      "stateMutability": "nonpayable",
      "type": "function"
    },
    {
      "inputs": [],
      "name": "symbol",
      "outputs": [
        {
          "internalType": "string",
          "name": "",
          "type": "string"
        }
      ],
      "stateMutability": "view",
      "type": "function"
    },
    {
      "inputs": [],
      "name": "token0",
      "outputs": [
        {
          "internalType": "contract IERC20",
          "name": "",
          "type": "address"
        }
      ],
      "stateMutability": "view",
      "type": "function"
    },
    {
      "inputs": [],
      "name": "token1",
      "outputs": [
        {
          "internalType": "contract IERC20",
          "name": "",
          "type": "address"
        }
      ],
      "stateMutability": "view",
      "type": "function"
    },
    {
      "inputs": [],
      "name": "totalSupply",
      "outputs": [
        {
          "internalType": "uint256",
          "name": "",
          "type": "uint256"
        }
      ],
      "stateMutability": "view",
      "type": "function"
    },
    {
      "inputs": [
        {
          "internalType": "address",
          "name": "to",
          "type": "address"
        },
        {
          "internalType": "uint256",
          "name": "value",
          "type": "uint256"
        }
      ],
      "name": "transfer",
      "outputs": [
        {
          "internalType": "bool",
          "name": "",
          "type": "bool"
        }
      ],
      "stateMutability": "nonpayable",
      "type": "function"
    },
    {
      "inputs": [
        {
          "internalType": "address",
          "name": "from",
          "type": "address"
        },
        {
          "internalType": "address",
          "name": "to",
          "type": "address"
        },
        {
          "internalType": "uint256",
          "name": "value",
          "type": "uint256"
        }
      ],
      "name": "transferFrom",
      "outputs": [
        {
          "internalType": "bool",
          "name": "",
          "type": "bool"
        }
      ],
      "stateMutability": "nonpayable",
      "type": "function"
    },
    {
      "inputs": [
        {
          "internalType": "address",
          "name": "newOwner",
          "type": "address"
        }
      ],
      "name": "transferOwnership",
      "outputs": [],
      "stateMutability": "nonpayable",
      "type": "function"
    }
  ],
  "bytecode": "0x608060405234620003e65762001c69803803806200001d81620003eb565b928339810160a082820312620003e657620000388262000411565b916020916200004983830162000411565b60408301519091906001600160401b0390818111620003e657826200007091860162000426565b91606085015190828211620003e657620000936080916200009b93880162000426565b950162000411565b938251828111620002e6576003918254916001958684811c94168015620003db575b8a851014620003c5578190601f948581116200036f575b508a908583116001146200030857600092620002fc575b505060001982861b1c191690861b1783555b8051938411620002e65760049788548681811c91168015620002db575b82821014620002c6579081848796959493116200026a575b5080928511600114620001fc5750600093620001f0575b505082841b92600019911b1c19161784555b6005556001600160a01b03918216928315620001d85750600680546001600160a01b0319808216861790925560405195919484929183167f8be0079c531659141344cd1fd0a4f28419497f9722a3daafe3b4186f6b6457e0600080a316836007541617600755169060085416176008556117d09081620004998239f35b602490600060405191631e4fbdf760e01b8352820152fd5b01519150388062000149565b929190869550601f1985168a60005284600020946000905b82821062000250575050851162000235575b50505050811b0184556200015b565b01519060f884600019921b161c191690553880808062000226565b848401518755899890960195938401939081019062000214565b90919293945089600052816000208480880160051c820192848910620002bc575b918991899897969594930160051c01915b828110620002ac57505062000132565b600081558897508991016200029c565b925081926200028b565b60228a634e487b7160e01b6000525260246000fd5b90607f16906200011a565b634e487b7160e01b600052604160045260246000fd5b015190503880620000eb565b60008781528c81208a9550929190601f198516908e5b8282106200035757505084116200033e575b505050811b018355620000fd565b015160001983881b60f8161c1916905538808062000330565b8385015186558c979095019493840193018e6200031e565b909150856000528a6000208580850160051c8201928d8610620003bb575b918a91869594930160051c01915b828110620003ab575050620000d4565b600081558594508a91016200039b565b925081926200038d565b634e487b7160e01b600052602260045260246000fd5b93607f1693620000bd565b600080fd5b6040519190601f01601f191682016001600160401b03811183821017620002e657604052565b51906001600160a01b0382168203620003e657565b919080601f84011215620003e65782516001600160401b038111620002e6576020906200045c601f8201601f19168301620003eb565b92818452828287010111620003e65760005b8181106200048457508260009394955001015290565b85810183015184820184015282016200046e56fe608080604052600436101561001357600080fd5b60003560e01c9081620b46f81461139657508063022c0d9f14610f51578063054d50d414610ee357806306fdde0314610e25578063095ea7b314610d9f5780630dfe168114610d7657806318160ddd14610d5857806323b872dd14610c66578063313ce56714610c4a578063443cb4bc14610c2c5780635a76f25e14610c0e5780636a6278421461091d57806370a08231146108e3578063715018a6146108865780637464fc3d1461086857806385f8c259146107cb57806389afcb44146103b05780638da5cb5b1461038757806395d89b4114610282578063a9059cbb14610251578063d21220a714610228578063dd62ed3e146101d7578063e1f1c4a7146101b95763f2fde38b1461012657600080fd5b346101b45760203660031901126101b45761013f6113b1565b610147611440565b6001600160a01b0390811690811561019b57600654826bffffffffffffffffffffffff60a01b821617600655167f8be0079c531659141344cd1fd0a4f28419497f9722a3daafe3b4186f6b6457e0600080a3005b604051631e4fbdf760e01b815260006004820152602490fd5b600080fd5b346101b45760003660031901126101b4576020604051620186a08152f35b346101b45760403660031901126101b4576101f06113b1565b6101f86113c7565b9060018060a01b038091166000526001602052604060002091166000526020526020604060002054604051908152f35b346101b45760003660031901126101b4576008546040516001600160a01b039091168152602090f35b346101b45760403660031901126101b45761027761026d6113b1565b60243590336114a4565b602060405160018152f35b346101b45760003660031901126101b457604051600090600454600181811c9080831692831561037d575b60209384841081146103675783865290811561034757506001146102ec575b6102e8846102dc8188038261146c565b604051918291826113f7565b0390f35b600460009081529294507f8a35acfbc15ff81a39ae7d344fd709f28e8600b4aa8c65c6b64bfe7fe36bd19b5b82841061033457505050816102e8936102dc92820101936102cc565b8054858501870152928501928101610318565b60ff1916858501525050151560051b82010191506102dc816102e86102cc565b634e487b7160e01b600052602260045260246000fd5b91607f16916102ad565b346101b45760003660031901126101b4576006546040516001600160a01b039091168152602090f35b346101b4576020806003193601126101b4576103ca6113b1565b906103d36115e7565b60018060a01b039081600754169060405193849382856370a0823160e01b9586825230600483015260249889915afa938415610658578695600095610799575b50838260085416604051978880928582523060048301525afa9586156106585760009661076a575b50306000526000845261046f610463610463610468604060002054986002549384918b6115b4565b6115c7565b98886115b4565b9486151580610761575b1561071d5730156107055730600052600085526040600020548181106106dd578188939260009230845283895203604083205580600254036002556040519081527fddf252ad1be2c89b69c2b068fc378daa952ba7f163c4a11628f55a4df523b3ef873092a360075460405163a9059cbb60e01b8082526001600160a01b038716600483015260248201949094529086908290604490829060009089165af1801561065857610530916000916106c0575b50611622565b6008546040519283526001600160a01b03851660048401526024830187905285908390604490829060009088165af191821561065857889261057a91600091610693575b50611667565b848360075416604051998a80928582523060048301525afa97881561065857600098610664575b5084908360085416926040518094819382523060048301525afa9081156106585760009161062a575b506105d790604097611789565b6105e6600954600a54906115b4565b600b55855191858352848484015216907fdccd412f0b1252819cb1fd330b93224ca42612892bb3f4f789976e6d81936496863392a360016005558351928352820152f35b90508381813d8311610651575b610641818361146c565b810103126101b4575160406105ca565b503d610637565b6040513d6000823e3d90fd5b9097508481813d831161068c575b61067c818361146c565b810103126101b4575196846105a1565b503d610672565b6106b39150873d89116106b9575b6106ab818361146c565b81019061160a565b8a610574565b503d6106a1565b6106d79150873d89116106b9576106ab818361146c565b8a61052a565b60405163391434e360e21b815230600482015260248101919091526044810191909152606490fd5b604051634b637e8f60e11b8152600060048201528890fd5b60405162461bcd60e51b815260048101869052601d818a01527f496e73756666696369656e74206c6971756964697479206275726e65640000006044820152606490fd5b50851515610479565b9095508381813d8311610792575b610782818361146c565b810103126101b45751948761043b565b503d610778565b955093508285813d81116107c4575b6107b2818361146c565b810103126101b4578594519387610413565b503d6107a8565b346101b4576108026107dc366113dd565b929082906107eb8215156116ac565b8015158061085f575b6107fd906116f8565b6115b4565b90620186a0918281029281840414901517156108495761082861082d916108339461158f565b61159c565b906115c7565b6001810180911161084957602090604051908152f35b634e487b7160e01b600052601160045260246000fd5b508415156107f4565b346101b45760003660031901126101b4576020600b54604051908152f35b346101b45760003660031901126101b45761089f611440565b600680546001600160a01b031981169091556000906001600160a01b03167f8be0079c531659141344cd1fd0a4f28419497f9722a3daafe3b4186f6b6457e08280a3005b346101b45760203660031901126101b4576001600160a01b036109046113b1565b1660005260006020526020604060002054604051908152f35b346101b4576020806003193601126101b4576109376113b1565b61093f6115e7565b6007546040516370a0823160e01b8082523060048301526024926001600160a01b039290869082908690829087165afa90811561065857600091610be1575b5085836008541692856040518095819382523060048301525afa91821561065857600092610bb2575b50600954936109b6858361158f565b94600a54946109c5868661158f565b95600254928315600014610b7f5750506109df86886115b4565b60006003821115610b7157508060019080821c828101809111610b5c5791905b838310610b3c575050505b6103e7198101908111610b2757975b8815610ae35716918215610acd575090610a3887610a7e959493611582565b6002558060005260008852604060002087815401905560007fddf252ad1be2c89b69c2b068fc378daa952ba7f163c4a11628f55a4df523b3ef896040518a8152a3611789565b610a8d600954600a54906115b4565b600b55604051918252838201527f4c209b5fc8ad50758f13e2e1088ba56a560dff690a1c6fef26394f4c03821c4f60403392a26001600555604051908152f35b60405163ec442f0560e01b815260006004820152fd5b60405162461bcd60e51b8152600481018b9052601d818601527f496e73756666696369656e74206c6971756964697479206d696e7465640000006044820152606490fd5b83634e487b7160e01b60005260116004526000fd5b90919250610b5383610b4e81846115c7565b611582565b821c91906109ff565b86634e487b7160e01b60005260116004526000fd5b9015610a0a57506001610a0a565b610b90610b9b91610463868c6115b4565b91610463858a6115b4565b80821015610bab57505b97610a19565b9050610ba5565b9091508581813d8311610bda575b610bca818361146c565b810103126101b4575190866109a7565b503d610bc0565b90508581813d8311610c07575b610bf8818361146c565b810103126101b457518661097e565b503d610bee565b346101b45760003660031901126101b4576020600a54604051908152f35b346101b45760003660031901126101b4576020600954604051908152f35b346101b45760003660031901126101b457602060405160128152f35b346101b45760603660031901126101b457610c7f6113b1565b610c876113c7565b6001600160a01b03821660008181526001602090815260408083203384529091529020549260443592916000198510610cc6575b5061027793506114a4565b838510610d32578015610d19573315610d005761027794849160005260016020526040600020336000526020520360406000205584610cbb565b604051634a1406b160e11b815260006004820152602490fd5b60405163e602df0560e01b815260006004820152602490fd5b604051637dc7a0d960e11b81523360048201526024810186905260448101859052606490fd5b346101b45760003660031901126101b4576020600254604051908152f35b346101b45760003660031901126101b4576007546040516001600160a01b039091168152602090f35b346101b45760403660031901126101b457610db86113b1565b602435903315610d19576001600160a01b0316908115610d0057336000526001602052604060002082600052602052806040600020556040519081527f8c5be1e5ebec7d5bd14f71427d1e84f3dd0314c0f7b2291e5b200ac8c7c3b92560203392a3602060405160018152f35b346101b45760003660031901126101b457604051600090600354600181811c90808316928315610ed9575b6020938484108114610367578386529081156103475750600114610e7e576102e8846102dc8188038261146c565b600360009081529294507fc2575a0e9e593c00f959f8c92f12db2869c3395a3b0502d05e2516446f71f85b5b828410610ec657505050816102e8936102dc92820101936102cc565b8054858501870152928501928101610eaa565b91607f1691610e50565b346101b457610ef1366113dd565b9091610efe81151561173d565b610f1f610f18841592831580610f48575b610828906116f8565b92836115b4565b90620186a08085029485041417156108495761082d610f4092602094611582565b604051908152f35b50841515610f0f565b346101b45760803660031901126101b4576044356001600160a01b0380821682036101b45760643567ffffffffffffffff8082116101b457366023830112156101b45781600401359081116101b457369101602401116101b457610fb36115e7565b600435158015809161138b575b610fc9906116ac565b600954600435108061137e575b610fdf906116f8565b611309575b602435611296575b8060075416916040516020816024816370a0823160e01b978882523060048301525afa90811561065857600091611264575b50602083600854169460246040518097819382523060048301525afa93841561065857600094611230575b506009549061105a6004358361158f565b811115611228576110766110706004358461158f565b8261158f565b945b600a54926110886024358561158f565b821115611220576110a461109e6024358661158f565b8361158f565b935b871590811582611217575b6110ba9061173d565b620186a08502858104620186a014861517156108495761012c92838b02908b820485141715610849576110ec9161158f565b620186a0850290858204620186a014861517156108495787848102048414881517156108495761112561112b92611131958a029061158f565b906115b4565b926115b4565b600190620186a060025b600181116111ee5750806000190483116108495761115a9202906115b4565b116111b25761116891611789565b60405193845260208401526004356040840152602435606084015216907fd78ad95fa46c994b6551d0da85fc275fe613ce37657fb8d5e3d130840159d82260803392a36001600555005b60405162461bcd60e51b815260206004820152601460248201527312c81a5b9d985c9a585b9d081d9a5bdb185d195960621b6044820152606490fd5b9080600019048111610849576001821661120e575b80029060011c61113b565b80930292611203565b508515156110b1565b6000936110a6565b600094611078565b9093506020813d60201161125c575b8161124c6020938361146c565b810103126101b457519284611049565b3d915061123f565b90506020813d60201161128e575b8161127f6020938361146c565b810103126101b457518461101e565b3d9150611272565b60085460405163a9059cbb60e01b81526001600160a01b03841660048201526024803590820152906020908290604490829060009087165af18015610658576112e6916000916112eb5750611667565b610fec565b611303915060203d81116106b9576106ab818361146c565b84610574565b60075460405163a9059cbb60e01b81526001600160a01b038416600480830191909152356024820152906020908290604490829060009087165af180156106585761135b916000916113605750611622565b610fe4565b611378915060203d81116106b9576106ab818361146c565b8461052a565b50600a5460243510610fd6565b506024351515610fc0565b346101b45760003660031901126101b4578061012c60209252f35b600435906001600160a01b03821682036101b457565b602435906001600160a01b03821682036101b457565b60609060031901126101b457600435906024359060443590565b6020808252825181830181905290939260005b82811061142c57505060409293506000838284010152601f8019910116010190565b81810186015184820160400152850161140a565b6006546001600160a01b0316330361145457565b60405163118cdaa760e01b8152336004820152602490fd5b90601f8019910116810190811067ffffffffffffffff82111761148e57604052565b634e487b7160e01b600052604160045260246000fd5b916001600160a01b038084169283156115695716928315611550576000908382528160205260408220549083821061151e575091604082827fddf252ad1be2c89b69c2b068fc378daa952ba7f163c4a11628f55a4df523b3ef958760209652828652038282205586815220818154019055604051908152a3565b60405163391434e360e21b81526001600160a01b03919091166004820152602481019190915260448101839052606490fd5b60405163ec442f0560e01b815260006004820152602490fd5b604051634b637e8f60e11b815260006004820152602490fd5b9190820180921161084957565b9190820391821161084957565b90620185749182810292818404149015171561084957565b8181029291811591840414171561084957565b81156115d1570490565b634e487b7160e01b600052601260045260246000fd5b6002600554146115f8576002600555565b604051633ee5aeb560e01b8152600490fd5b908160209103126101b4575180151581036101b45790565b1561162957565b60405162461bcd60e51b8152602060048201526016602482015275151bdad95b8c081d1c985b9cd9995c8819985a5b195960521b6044820152606490fd5b1561166e57565b60405162461bcd60e51b8152602060048201526016602482015275151bdad95b8c481d1c985b9cd9995c8819985a5b195960521b6044820152606490fd5b156116b357565b60405162461bcd60e51b815260206004820152601a60248201527f496e73756666696369656e74206f757470757420616d6f756e740000000000006044820152606490fd5b156116ff57565b60405162461bcd60e51b8152602060048201526016602482015275496e73756666696369656e74206c697175696469747960501b6044820152606490fd5b1561174457565b60405162461bcd60e51b815260206004820152601960248201527f496e73756666696369656e7420696e70757420616d6f756e74000000000000006044820152606490fd5b6040907fcf2aa50876cdfbb541206f89af0ee78d44a2abf8d328e37fa4917f982149848a928160095580600a5582519182526020820152a156fea164736f6c6343000814000a",
  "linkReferences": {},
  "deployedLinkReferences": {}
}