{"src/contracts/TambrDynamicBondingCurve.sol":{"TambrDynamicBondingCurve":{"abi":[{"inputs":[{"internalType":"address","name":"_stablecoin","type":"address"},{"internalType":"address","name":"_treasury","type":"address"},{"internalType":"uint256","name":"_founderFeeRate","type":"uint256"},{"internalType":"address","name":"_trustedForwarder","type":"address"}],"stateMutability":"nonpayable","type":"constructor"},{"inputs":[],"name":"EnforcedPause","type":"error"},{"inputs":[],"name":"ExpectedPause","type":"error"},{"inputs":[{"internalType":"address","name":"owner","type":"address"}],"name":"OwnableInvalidOwner","type":"error"},{"inputs":[{"internalType":"address","name":"account","type":"address"}],"name":"OwnableUnauthorizedAccount","type":"error"},{"anonymous":false,"inputs":[{"indexed":true,"internalType":"address","name":"buyer","type":"address"},{"indexed":false,"internalType":"uint256","name":"amountIn","type":"uint256"},{"indexed":false,"internalType":"uint256","name":"tokensOut","type":"uint256"},{"indexed":false,"internalType":"uint256","name":"founderFee","type":"uint256"}],"name":"Buy","type":"event"},{"anonymous":false,"inputs":[{"indexed":false,"internalType":"uint256","name":"newRate","type":"uint256"}],"name":"FounderFeeRateUpdated","type":"event"},{"anonymous":false,"inputs":[{"indexed":true,"internalType":"address","name":"previousOwner","type":"address"},{"indexed":true,"internalType":"address","name":"newOwner","type":"address"}],"name":"OwnershipTransferred","type":"event"},{"anonymous":false,"inputs":[{"indexed":false,"internalType":"address","name":"account","type":"address"}],"name":"Paused","type":"event"},{"anonymous":false,"inputs":[{"indexed":true,"internalType":"address","name":"seller","type":"address"},{"indexed":false,"internalType":"uint256","name":"tokensIn","type":"uint256"},{"indexed":false,"internalType":"uint256","name":"amountOut","type":"uint256"},{"indexed":false,"internalType":"uint256","name":"founderFee","type":"uint256"}],"name":"Sell","type":"event"},{"anonymous":false,"inputs":[{"indexed":false,"internalType":"address","name":"newTreasury","type":"address"}],"name":"TreasuryUpdated","type":"event"},{"anonymous":false,"inputs":[{"indexed":false,"internalType":"address","name":"account","type":"address"}],"name":"Unpaused","type":"event"},{"inputs":[],"name":"FEE_DENOMINATOR","outputs":[{"internalType":"uint256","name":"","type":"uint256"}],"stateMutability":"view","type":"function"},{"inputs":[{"internalType":"uint256","name":"_amountIn","type":"uint256"},{"internalType":"uint256","name":"_minTokensOut","type":"uint256"}],"name":"buy","outputs":[],"stateMutability":"nonpayable","type":"function"},{"inputs":[{"internalType":"uint256","name":"_amountIn","type":"uint256"}],"name":"calculateBuyReturn","outputs":[{"internalType":"uint256","name":"tokensOut","type":"uint256"},{"internalType":"uint256","name":"feeAmount","type":"uint256"}],"stateMutability":"view","type":"function"},{"inputs":[{"internalType":"uint256","name":"_tokensIn","type":"uint256"}],"name":"calculateSellReturn","outputs":[{"internalType":"uint256","name":"amountOut","type":"uint256"},{"internalType":"uint256","name":"feeAmount","type":"uint256"}],"stateMutability":"view","type":"function"},{"inputs":[],"name":"founderFeeRate","outputs":[{"internalType":"uint256","name":"","type":"uint256"}],"stateMutability":"view","type":"function"},{"inputs":[],"name":"owner","outputs":[{"internalType":"address","name":"","type":"address"}],"stateMutability":"view","type":"function"},{"inputs":[],"name":"pause","outputs":[],"stateMutability":"nonpayable","type":"function"},{"inputs":[],"name":"paused","outputs":[{"internalType":"bool","name":"","type":"bool"}],"stateMutability":"view","type":"function"},{"inputs":[],"name":"renounceOwnership","outputs":[],"stateMutability":"nonpayable","type":"function"},{"inputs":[],"name":"reserveBalance","outputs":[{"internalType":"uint256","name":"","type":"uint256"}],"stateMutability":"view","type":"function"},{"inputs":[{"internalType":"uint256","name":"_tokensIn","type":"uint256"},{"internalType":"uint256","name":"_minAmountOut","type":"uint256"}],"name":"sell","outputs":[],"stateMutability":"nonpayable","type":"function"},{"inputs":[{"internalType":"uint256","name":"_newRate","type":"uint256"}],"name":"setFounderFeeRate","outputs":[],"stateMutability":"nonpayable","type":"function"},{"inputs":[{"internalType":"address","name":"_newTreasury","type":"address"}],"name":"setTreasury","outputs":[],"stateMutability":"nonpayable","type":"function"},{"inputs":[],"name":"stablecoin","outputs":[{"internalType":"contract IERC20","name":"","type":"address"}],"stateMutability":"view","type":"function"},{"inputs":[{"internalType":"address","name":"newOwner","type":"address"}],"name":"transferOwnership","outputs":[],"stateMutability":"nonpayable","type":"function"},{"inputs":[],"name":"treasury","outputs":[{"internalType":"address","name":"","type":"address"}],"stateMutability":"view","type":"function"},{"inputs":[],"name":"unpause","outputs":[],"stateMutability":"nonpayable","type":"function"}],"evm":{"bytecode":{"linkReferences":{},"object":"60a03461010a57601f610c4f38819003918201601f19168301916001600160401b0383118484101761010f5780849260809460405283398101031261010a5761004781610125565b9061005460208201610125565b610065606060408401519301610125565b5033156100f15760008054336001600160a01b0319808316821784556040519690946001600160a01b03949093859391908416907f8be0079c531659141344cd1fd0a4f28419497f9722a3daafe3b4186f6b6457e09080a31660805216906001541617600155600255610b15908161013a823960805181818161022a015281816102c001526104840152f35b604051631e4fbdf760e01b815260006004820152602490fd5b600080fd5b634e487b7160e01b600052604160045260246000fd5b51906001600160a01b038216820361010a5756fe60406080815260048036101561001457600080fd5b600091823560e01c80631e0981831461080057806336a70065146107e15780633f4ba83a146107735780635c975abb1461074e57806361d027b314610725578063715018a6146106cb578063828f3a9c146106ad5780638456cb591461064e5780638da5cb5b14610626578063a10954fe14610607578063bc3c39cb146105da578063d6febde814610427578063d73792a91461040a578063d79875eb1461025d578063e9cbd82214610215578063f0f442601461016b5763f2fde38b146100db57600080fd5b34610167576020366003190112610167576001600160a01b038235818116939192908490036101635761010c6108a6565b831561014d57505082546001600160a01b0319811683178455167f8be0079c531659141344cd1fd0a4f28419497f9722a3daafe3b4186f6b6457e08380a380f35b51631e4fbdf760e01b8152908101849052602490fd5b8480fd5b8280fd5b50346101675760203660031901126101675781356001600160a01b03811692908390036102115761019a6108a6565b82156101e05750600180546001600160a01b03191683179055519081527f7dae230f18360d76a040c81f050aa14eb9d6dc7901b20fc5d855e2a20fe814d190602090a180f35b6020606492519162461bcd60e51b8352820152600c60248201526b5a65726f206164647265737360a01b6044820152fd5b8380fd5b838234610259578160031936011261025957517f00000000000000000000000000000000000000000000000000000000000000006001600160a01b03168152602090f35b5080fd5b509034610167576102906102703661088b565b909261027a6108d2565b61028384610abf565b93819385939210156109a1565b600154865163a9059cbb60e01b8082526001600160a01b03928316828501908152602081810196909652909391927f0000000000000000000000000000000000000000000000000000000000000000169085908490819060400103818d855af1918a83156103ff57610334956103108995899784916103e2575b50610a7d565b8b519081523392810192835260208301949094529294859384929091839160400190565b03925af19182156103d8576103a5927f846c37eef631e0943682d87352ec117c20008eb7f425c9b85ac011a6d4774cc0969792610379928a926103ab575b5050610a31565b6103858360035461091c565b600355519283923396846040919493926060820195825260208201520152565b0390a280f35b6103ca9250803d106103d1575b6103c281836109e1565b810190610a19565b3880610372565b503d6103b8565b86513d89823e3d90fd5b6103f99150883d8a116103d1576103c281836109e1565b3861030a565b8a51903d90823e3d90fd5b838234610259578160031936011261025957602090516127108152f35b508290346102595761045961043b3661088b565b90926104456108d2565b61044e84610929565b9390928310156109a1565b80516323b872dd60e01b81523387820152306024820152604481018590526020906001600160a01b037f000000000000000000000000000000000000000000000000000000000000000081169183816064818c875af19081156105d0579284926104cf8993610504968d916105b3575b50610a31565b600154168a8c88519687958694859363a9059cbb60e01b8552840160209093929193604081019460018060a01b031681520152565b03925af19182156105a957906105239291889261058c575b5050610a7d565b61052d838561091c565b60035490810180911161057957600355519283526020830152604082015233907fbeae048c6d270d9469f86cf6e8fedda3c60ad770f16c24c9fc131c8e9a09101d9080606081016103a5565b634e487b7160e01b865260118752602486fd5b6105a29250803d106103d1576103c281836109e1565b888061051c565b83513d89823e3d90fd5b6105ca9150863d88116103d1576103c281836109e1565b8e6104c9565b85513d8b823e3d90fd5b50913461060457602036600319011261060457506105f89035610abf565b82519182526020820152f35b80fd5b8382346102595781600319360112610259576020906003549051908152f35b838234610259578160031936011261025957905490516001600160a01b039091168152602090f35b83823461025957816003193601126102595760207f62e78cea01bee320cd4e420270b5ea74000d11b0c9f74754ebdbfc544b05a2589161068c6108a6565b6106946108d2565b835460ff60a01b1916600160a01b17845551338152a180f35b50913461060457602036600319011261060457506105f89035610929565b83346106045780600319360112610604576106e46108a6565b80546001600160a01b03198116825581906001600160a01b03167f8be0079c531659141344cd1fd0a4f28419497f9722a3daafe3b4186f6b6457e08280a380f35b83823461025957816003193601126102595760015490516001600160a01b039091168152602090f35b83823461025957816003193601126102595760ff6020925460a01c1690519015158152f35b50903461016757826003193601126101675761078d6108a6565b82549060ff8260a01c16156107d3575060ff60a01b19168255513381527f5db9ee0a495bf2e6ff9c91a7834c1ba4fdd244a5e8aa4e537bd38aeae4b073aa90602090a180f35b8251638dfc202b60e01b8152fd5b8382346102595781600319360112610259576020906002549051908152f35b50346101675760203660031901126101675781359161081d6108a6565b6127108310156108595750816020917fdcd396927df583044701e45157583beba125fcfbc90fac4a48302645a843ccfa9360025551908152a180f35b6020606492519162461bcd60e51b8352820152600d60248201526c0a4c2e8ca40e8dede40d0d2ced609b1b6044820152fd5b60409060031901126108a1576004359060243590565b600080fd5b6000546001600160a01b031633036108ba57565b60405163118cdaa760e01b8152336004820152602490fd5b60ff60005460a01c166108e157565b60405163d93c066560e01b8152600490fd5b8181029291811591840414171561090657565b634e487b7160e01b600052601160045260246000fd5b9190820391821161090657565b670de0b6b3a7640000806003540491606483029280840460641490151715610906578183018093116109065781810291818304149015171561090657811561098b57049061098761271061097f600254856108f3565b04809361091c565b9190565b634e487b7160e01b600052601260045260246000fd5b156109a857565b60405162461bcd60e51b81526020600482015260116024820152700a6d8d2e0e0c2ceca40e8dede40d0d2ced607b1b6044820152606490fd5b90601f8019910116810190811067ffffffffffffffff821117610a0357604052565b634e487b7160e01b600052604160045260246000fd5b908160209103126108a1575180151581036108a15790565b15610a3857565b60405162461bcd60e51b815260206004820152601a60248201527f436f6c6c61746572616c207472616e73666572206661696c65640000000000006044820152606490fd5b15610a8457565b60405162461bcd60e51b8152602060048201526013602482015272119959481d1c985b9cd9995c8819985a5b1959606a1b6044820152606490fd5b670de0b6b3a76400009081600354046064810290808204606414901517156109065782810180911161090657610af4916108f3565b049061098761271061097f600254856108f356fea164736f6c6343000814000a","opcodes":"PUSH1 0xA0 CALLVALUE PUSH2 0x10A JUMPI PUSH1 0x1F PUSH2 0xC4F CODESIZE DUP2 SWAP1 SUB SWAP2 DUP3 ADD PUSH1 0x1F NOT AND DUP4 ADD SWAP2 PUSH1 0x1 PUSH1 0x1 PUSH1 0x40 SHL SUB DUP4 GT DUP5 DUP5 LT OR PUSH2 0x10F JUMPI DUP1 DUP5 SWAP3 PUSH1 0x80 SWAP5 PUSH1 0x40 MSTORE DUP4 CODECOPY DUP2 ADD SUB SLT PUSH2 0x10A JUMPI PUSH2 0x47 DUP2 PUSH2 0x125 JUMP JUMPDEST SWAP1 PUSH2 0x54 PUSH1 0x20 DUP3 ADD PUSH2 0x125 JUMP JUMPDEST PUSH2 0x65 PUSH1 0x60 PUSH1 0x40 DUP5 ADD MLOAD SWAP4 ADD PUSH2 0x125 JUMP JUMPDEST POP CALLER ISZERO PUSH2 0xF1 JUMPI PUSH1 0x0 DUP1 SLOAD CALLER PUSH1 0x1 PUSH1 0x1 PUSH1 0xA0 SHL SUB NOT DUP1 DUP4 AND DUP3 OR DUP5 SSTORE PUSH1 0x40 MLOAD SWAP7 SWAP1 SWAP5 PUSH1 0x1 PUSH1 0x1 PUSH1 0xA0 SHL SUB SWAP5 SWAP1 SWAP4 DUP6 SWAP4 SWAP2 SWAP1 DUP5 AND SWAP1 PUSH32 0x8BE0079C531659141344CD1FD0A4F28419497F9722A3DAAFE3B4186F6B6457E0 SWAP1 DUP1 LOG3 AND PUSH1 0x80 MSTORE AND SWAP1 PUSH1 0x1 SLOAD AND OR PUSH1 0x1 SSTORE PUSH1 0x2 SSTORE PUSH2 0xB15 SWAP1 DUP2 PUSH2 0x13A DUP3 CODECOPY PUSH1 0x80 MLOAD DUP2 DUP2 DUP2 PUSH2 0x22A ADD MSTORE DUP2 DUP2 PUSH2 0x2C0 ADD MSTORE PUSH2 0x484 ADD MSTORE RETURN JUMPDEST PUSH1 0x40 MLOAD PUSH4 0x1E4FBDF7 PUSH1 0xE0 SHL DUP2 MSTORE PUSH1 0x0 PUSH1 0x4 DUP3 ADD MSTORE PUSH1 0x24 SWAP1 REVERT JUMPDEST PUSH1 0x0 DUP1 REVERT JUMPDEST PUSH4 0x4E487B71 PUSH1 0xE0 SHL PUSH1 0x0 MSTORE PUSH1 0x41 PUSH1 0x4 MSTORE PUSH1 0x24 PUSH1 0x0 REVERT JUMPDEST MLOAD SWAP1 PUSH1 0x1 PUSH1 0x1 PUSH1 0xA0 SHL SUB DUP3 AND DUP3 SUB PUSH2 0x10A JUMPI JUMP INVALID PUSH1 0x40 PUSH1 0x80 DUP2 MSTORE PUSH1 0x4 DUP1 CALLDATASIZE LT ISZERO PUSH2 0x14 JUMPI PUSH1 0x0 DUP1 REVERT JUMPDEST PUSH1 0x0 SWAP2 DUP3 CALLDATALOAD PUSH1 0xE0 SHR DUP1 PUSH4 0x1E098183 EQ PUSH2 0x800 JUMPI DUP1 PUSH4 0x36A70065 EQ PUSH2 0x7E1 JUMPI DUP1 PUSH4 0x3F4BA83A EQ PUSH2 0x773 JUMPI DUP1 PUSH4 0x5C975ABB EQ PUSH2 0x74E JUMPI DUP1 PUSH4 0x61D027B3 EQ PUSH2 0x725 JUMPI DUP1 PUSH4 0x715018A6 EQ PUSH2 0x6CB JUMPI DUP1 PUSH4 0x828F3A9C EQ PUSH2 0x6AD JUMPI DUP1 PUSH4 0x8456CB59 EQ PUSH2 0x64E JUMPI DUP1 PUSH4 0x8DA5CB5B EQ PUSH2 0x626 JUMPI DUP1 PUSH4 0xA10954FE EQ PUSH2 0x607 JUMPI DUP1 PUSH4 0xBC3C39CB EQ PUSH2 0x5DA JUMPI DUP1 PUSH4 0xD6FEBDE8 EQ PUSH2 0x427 JUMPI DUP1 PUSH4 0xD73792A9 EQ PUSH2 0x40A JUMPI DUP1 PUSH4 0xD79875EB EQ PUSH2 0x25D JUMPI DUP1 PUSH4 0xE9CBD822 EQ PUSH2 0x215 JUMPI DUP1 PUSH4 0xF0F44260 EQ PUSH2 0x16B JUMPI PUSH4 0xF2FDE38B EQ PUSH2 0xDB JUMPI PUSH1 0x0 DUP1 REVERT JUMPDEST CALLVALUE PUSH2 0x167 JUMPI PUSH1 0x20 CALLDATASIZE PUSH1 0x3 NOT ADD SLT PUSH2 0x167 JUMPI PUSH1 0x1 PUSH1 0x1 PUSH1 0xA0 SHL SUB DUP3 CALLDATALOAD DUP2 DUP2 AND SWAP4 SWAP2 SWAP3 SWAP1 DUP5 SWAP1 SUB PUSH2 0x163 JUMPI PUSH2 0x10C PUSH2 0x8A6 JUMP JUMPDEST DUP4 ISZERO PUSH2 0x14D JUMPI POP POP DUP3 SLOAD PUSH1 0x1 PUSH1 0x1 PUSH1 0xA0 SHL SUB NOT DUP2 AND DUP4 OR DUP5 SSTORE AND PUSH32 0x8BE0079C531659141344CD1FD0A4F28419497F9722A3DAAFE3B4186F6B6457E0 DUP4 DUP1 LOG3 DUP1 RETURN JUMPDEST MLOAD PUSH4 0x1E4FBDF7 PUSH1 0xE0 SHL DUP2 MSTORE SWAP1 DUP2 ADD DUP5 SWAP1 MSTORE PUSH1 0x24 SWAP1 REVERT JUMPDEST DUP5 DUP1 REVERT JUMPDEST DUP3 DUP1 REVERT JUMPDEST POP CALLVALUE PUSH2 0x167 JUMPI PUSH1 0x20 CALLDATASIZE PUSH1 0x3 NOT ADD SLT PUSH2 0x167 JUMPI DUP2 CALLDATALOAD PUSH1 0x1 PUSH1 0x1 PUSH1 0xA0 SHL SUB DUP2 AND SWAP3 SWAP1 DUP4 SWAP1 SUB PUSH2 0x211 JUMPI PUSH2 0x19A PUSH2 0x8A6 JUMP JUMPDEST DUP3 ISZERO PUSH2 0x1E0 JUMPI POP PUSH1 0x1 DUP1 SLOAD PUSH1 0x1 PUSH1 0x1 PUSH1 0xA0 SHL SUB NOT AND DUP4 OR SWAP1 SSTORE MLOAD SWAP1 DUP2 MSTORE PUSH32 0x7DAE230F18360D76A040C81F050AA14EB9D6DC7901B20FC5D855E2A20FE814D1 SWAP1 PUSH1 0x20 SWAP1 LOG1 DUP1 RETURN JUMPDEST PUSH1 0x20 PUSH1 0x64 SWAP3 MLOAD SWAP2 PUSH3 0x461BCD PUSH1 0xE5 SHL DUP4 MSTORE DUP3 ADD MSTORE PUSH1 0xC PUSH1 0x24 DUP3 ADD MSTORE PUSH12 0x5A65726F2061646472657373 PUSH1 0xA0 SHL PUSH1 0x44 DUP3 ADD MSTORE REVERT JUMPDEST DUP4 DUP1 REVERT JUMPDEST DUP4 DUP3 CALLVALUE PUSH2 0x259 JUMPI DUP2 PUSH1 0x3 NOT CALLDATASIZE ADD SLT PUSH2 0x259 JUMPI MLOAD PUSH32 0x0 PUSH1 0x1 PUSH1 0x1 PUSH1 0xA0 SHL SUB AND DUP2 MSTORE PUSH1 0x20 SWAP1 RETURN JUMPDEST POP DUP1 REVERT JUMPDEST POP SWAP1 CALLVALUE PUSH2 0x167 JUMPI PUSH2 0x290 PUSH2 0x270 CALLDATASIZE PUSH2 0x88B JUMP JUMPDEST SWAP1 SWAP3 PUSH2 0x27A PUSH2 0x8D2 JUMP JUMPDEST PUSH2 0x283 DUP5 PUSH2 0xABF JUMP JUMPDEST SWAP4 DUP2 SWAP4 DUP6 SWAP4 SWAP3 LT ISZERO PUSH2 0x9A1 JUMP JUMPDEST PUSH1 0x1 SLOAD DUP7 MLOAD PUSH4 0xA9059CBB PUSH1 0xE0 SHL DUP1 DUP3 MSTORE PUSH1 0x1 PUSH1 0x1 PUSH1 0xA0 SHL SUB SWAP3 DUP4 AND DUP3 DUP6 ADD SWAP1 DUP2 MSTORE PUSH1 0x20 DUP2 DUP2 ADD SWAP7 SWAP1 SWAP7 MSTORE SWAP1 SWAP4 SWAP2 SWAP3 PUSH32 0x0 AND SWAP1 DUP6 SWAP1 DUP5 SWAP1 DUP2 SWAP1 PUSH1 0x40 ADD SUB DUP2 DUP14 DUP6 GAS CALL SWAP2 DUP11 DUP4 ISZERO PUSH2 0x3FF JUMPI PUSH2 0x334 SWAP6 PUSH2 0x310 DUP10 SWAP6 DUP10 SWAP8 DUP5 SWAP2 PUSH2 0x3E2 JUMPI JUMPDEST POP PUSH2 0xA7D JUMP JUMPDEST DUP12 MLOAD SWAP1 DUP2 MSTORE CALLER SWAP3 DUP2 ADD SWAP3 DUP4 MSTORE PUSH1 0x20 DUP4 ADD SWAP5 SWAP1 SWAP5 MSTORE SWAP3 SWAP5 DUP6 SWAP4 DUP5 SWAP3 SWAP1 SWAP2 DUP4 SWAP2 PUSH1 0x40 ADD SWAP1 JUMP JUMPDEST SUB SWAP3 GAS CALL SWAP2 DUP3 ISZERO PUSH2 0x3D8 JUMPI PUSH2 0x3A5 SWAP3 PUSH32 0x846C37EEF631E0943682D87352EC117C20008EB7F425C9B85AC011A6D4774CC0 SWAP7 SWAP8 SWAP3 PUSH2 0x379 SWAP3 DUP11 SWAP3 PUSH2 0x3AB JUMPI JUMPDEST POP POP PUSH2 0xA31 JUMP JUMPDEST PUSH2 0x385 DUP4 PUSH1 0x3 SLOAD PUSH2 0x91C JUMP JUMPDEST PUSH1 0x3 SSTORE MLOAD SWAP3 DUP4 SWAP3 CALLER SWAP7 DUP5 PUSH1 0x40 SWAP2 SWAP5 SWAP4 SWAP3 PUSH1 0x60 DUP3 ADD SWAP6 DUP3 MSTORE PUSH1 0x20 DUP3 ADD MSTORE ADD MSTORE JUMP JUMPDEST SUB SWAP1 LOG2 DUP1 RETURN JUMPDEST PUSH2 0x3CA SWAP3 POP DUP1 RETURNDATASIZE LT PUSH2 0x3D1 JUMPI JUMPDEST PUSH2 0x3C2 DUP2 DUP4 PUSH2 0x9E1 JUMP JUMPDEST DUP2 ADD SWAP1 PUSH2 0xA19 JUMP JUMPDEST CODESIZE DUP1 PUSH2 0x372 JUMP JUMPDEST POP RETURNDATASIZE PUSH2 0x3B8 JUMP JUMPDEST DUP7 MLOAD RETURNDATASIZE DUP10 DUP3 RETURNDATACOPY RETURNDATASIZE SWAP1 REVERT JUMPDEST PUSH2 0x3F9 SWAP2 POP DUP9 RETURNDATASIZE DUP11 GT PUSH2 0x3D1 JUMPI PUSH2 0x3C2 DUP2 DUP4 PUSH2 0x9E1 JUMP JUMPDEST CODESIZE PUSH2 0x30A JUMP JUMPDEST DUP11 MLOAD SWAP1 RETURNDATASIZE SWAP1 DUP3 RETURNDATACOPY RETURNDATASIZE SWAP1 REVERT JUMPDEST DUP4 DUP3 CALLVALUE PUSH2 0x259 JUMPI DUP2 PUSH1 0x3 NOT CALLDATASIZE ADD SLT PUSH2 0x259 JUMPI PUSH1 0x20 SWAP1 MLOAD PUSH2 0x2710 DUP2 MSTORE RETURN JUMPDEST POP DUP3 SWAP1 CALLVALUE PUSH2 0x259 JUMPI PUSH2 0x459 PUSH2 0x43B CALLDATASIZE PUSH2 0x88B JUMP JUMPDEST SWAP1 SWAP3 PUSH2 0x445 PUSH2 0x8D2 JUMP JUMPDEST PUSH2 0x44E DUP5 PUSH2 0x929 JUMP JUMPDEST SWAP4 SWAP1 SWAP3 DUP4 LT ISZERO PUSH2 0x9A1 JUMP JUMPDEST DUP1 MLOAD PUSH4 0x23B872DD PUSH1 0xE0 SHL DUP2 MSTORE CALLER DUP8 DUP3 ADD MSTORE ADDRESS PUSH1 0x24 DUP3 ADD MSTORE PUSH1 0x44 DUP2 ADD DUP6 SWAP1 MSTORE PUSH1 0x20 SWAP1 PUSH1 0x1 PUSH1 0x1 PUSH1 0xA0 SHL SUB PUSH32 0x0 DUP2 AND SWAP2 DUP4 DUP2 PUSH1 0x64 DUP2 DUP13 DUP8 GAS CALL SWAP1 DUP2 ISZERO PUSH2 0x5D0 JUMPI SWAP3 DUP5 SWAP3 PUSH2 0x4CF DUP10 SWAP4 PUSH2 0x504 SWAP7 DUP14 SWAP2 PUSH2 0x5B3 JUMPI JUMPDEST POP PUSH2 0xA31 JUMP JUMPDEST PUSH1 0x1 SLOAD AND DUP11 DUP13 DUP9 MLOAD SWAP7 DUP8 SWAP6 DUP7 SWAP5 DUP6 SWAP4 PUSH4 0xA9059CBB PUSH1 0xE0 SHL DUP6 MSTORE DUP5 ADD PUSH1 0x20 SWAP1 SWAP4 SWAP3 SWAP2 SWAP4 PUSH1 0x40 DUP2 ADD SWAP5 PUSH1 0x1 DUP1 PUSH1 0xA0 SHL SUB AND DUP2 MSTORE ADD MSTORE JUMP JUMPDEST SUB SWAP3 GAS CALL SWAP2 DUP3 ISZERO PUSH2 0x5A9 JUMPI SWAP1 PUSH2 0x523 SWAP3 SWAP2 DUP9 SWAP3 PUSH2 0x58C JUMPI JUMPDEST POP POP PUSH2 0xA7D JUMP JUMPDEST PUSH2 0x52D DUP4 DUP6 PUSH2 0x91C JUMP JUMPDEST PUSH1 0x3 SLOAD SWAP1 DUP2 ADD DUP1 SWAP2 GT PUSH2 0x579 JUMPI PUSH1 0x3 SSTORE MLOAD SWAP3 DUP4 MSTORE PUSH1 0x20 DUP4 ADD MSTORE PUSH1 0x40 DUP3 ADD MSTORE CALLER SWAP1 PUSH32 0xBEAE048C6D270D9469F86CF6E8FEDDA3C60AD770F16C24C9FC131C8E9A09101D SWAP1 DUP1 PUSH1 0x60 DUP2 ADD PUSH2 0x3A5 JUMP JUMPDEST PUSH4 0x4E487B71 PUSH1 0xE0 SHL DUP7 MSTORE PUSH1 0x11 DUP8 MSTORE PUSH1 0x24 DUP7 REVERT JUMPDEST PUSH2 0x5A2 SWAP3 POP DUP1 RETURNDATASIZE LT PUSH2 0x3D1 JUMPI PUSH2 0x3C2 DUP2 DUP4 PUSH2 0x9E1 JUMP JUMPDEST DUP9 DUP1 PUSH2 0x51C JUMP JUMPDEST DUP4 MLOAD RETURNDATASIZE DUP10 DUP3 RETURNDATACOPY RETURNDATASIZE SWAP1 REVERT JUMPDEST PUSH2 0x5CA SWAP2 POP DUP7 RETURNDATASIZE DUP9 GT PUSH2 0x3D1 JUMPI PUSH2 0x3C2 DUP2 DUP4 PUSH2 0x9E1 JUMP JUMPDEST DUP15 PUSH2 0x4C9 JUMP JUMPDEST DUP6 MLOAD RETURNDATASIZE DUP12 DUP3 RETURNDATACOPY RETURNDATASIZE SWAP1 REVERT JUMPDEST POP SWAP2 CALLVALUE PUSH2 0x604 JUMPI PUSH1 0x20 CALLDATASIZE PUSH1 0x3 NOT ADD SLT PUSH2 0x604 JUMPI POP PUSH2 0x5F8 SWAP1 CALLDATALOAD PUSH2 0xABF JUMP JUMPDEST DUP3 MLOAD SWAP2 DUP3 MSTORE PUSH1 0x20 DUP3 ADD MSTORE RETURN JUMPDEST DUP1 REVERT JUMPDEST DUP4 DUP3 CALLVALUE PUSH2 0x259 JUMPI DUP2 PUSH1 0x3 NOT CALLDATASIZE ADD SLT PUSH2 0x259 JUMPI PUSH1 0x20 SWAP1 PUSH1 0x3 SLOAD SWAP1 MLOAD SWAP1 DUP2 MSTORE RETURN JUMPDEST DUP4 DUP3 CALLVALUE PUSH2 0x259 JUMPI DUP2 PUSH1 0x3 NOT CALLDATASIZE ADD SLT PUSH2 0x259 JUMPI SWAP1 SLOAD SWAP1 MLOAD PUSH1 0x1 PUSH1 0x1 PUSH1 0xA0 SHL SUB SWAP1 SWAP2 AND DUP2 MSTORE PUSH1 0x20 SWAP1 RETURN JUMPDEST DUP4 DUP3 CALLVALUE PUSH2 0x259 JUMPI DUP2 PUSH1 0x3 NOT CALLDATASIZE ADD SLT PUSH2 0x259 JUMPI PUSH1 0x20 PUSH32 0x62E78CEA01BEE320CD4E420270B5EA74000D11B0C9F74754EBDBFC544B05A258 SWAP2 PUSH2 0x68C PUSH2 0x8A6 JUMP JUMPDEST PUSH2 0x694 PUSH2 0x8D2 JUMP JUMPDEST DUP4 SLOAD PUSH1 0xFF PUSH1 0xA0 SHL NOT AND PUSH1 0x1 PUSH1 0xA0 SHL OR DUP5 SSTORE MLOAD CALLER DUP2 MSTORE LOG1 DUP1 RETURN JUMPDEST POP SWAP2 CALLVALUE PUSH2 0x604 JUMPI PUSH1 0x20 CALLDATASIZE PUSH1 0x3 NOT ADD SLT PUSH2 0x604 JUMPI POP PUSH2 0x5F8 SWAP1 CALLDATALOAD PUSH2 0x929 JUMP JUMPDEST DUP4 CALLVALUE PUSH2 0x604 JUMPI DUP1 PUSH1 0x3 NOT CALLDATASIZE ADD SLT PUSH2 0x604 JUMPI PUSH2 0x6E4 PUSH2 0x8A6 JUMP JUMPDEST DUP1 SLOAD PUSH1 0x1 PUSH1 0x1 PUSH1 0xA0 SHL SUB NOT DUP2 AND DUP3 SSTORE DUP2 SWAP1 PUSH1 0x1 PUSH1 0x1 PUSH1 0xA0 SHL SUB AND PUSH32 0x8BE0079C531659141344CD1FD0A4F28419497F9722A3DAAFE3B4186F6B6457E0 DUP3 DUP1 LOG3 DUP1 RETURN JUMPDEST DUP4 DUP3 CALLVALUE PUSH2 0x259 JUMPI DUP2 PUSH1 0x3 NOT CALLDATASIZE ADD SLT PUSH2 0x259 JUMPI PUSH1 0x1 SLOAD SWAP1 MLOAD PUSH1 0x1 PUSH1 0x1 PUSH1 0xA0 SHL SUB SWAP1 SWAP2 AND DUP2 MSTORE PUSH1 0x20 SWAP1 RETURN JUMPDEST DUP4 DUP3 CALLVALUE PUSH2 0x259 JUMPI DUP2 PUSH1 0x3 NOT CALLDATASIZE ADD SLT PUSH2 0x259 JUMPI PUSH1 0xFF PUSH1 0x20 SWAP3 SLOAD PUSH1 0xA0 SHR AND SWAP1 MLOAD SWAP1 ISZERO ISZERO DUP2 MSTORE RETURN JUMPDEST POP SWAP1 CALLVALUE PUSH2 0x167 JUMPI DUP3 PUSH1 0x3 NOT CALLDATASIZE ADD SLT PUSH2 0x167 JUMPI PUSH2 0x78D PUSH2 0x8A6 JUMP JUMPDEST DUP3 SLOAD SWAP1 PUSH1 0xFF DUP3 PUSH1 0xA0 SHR AND ISZERO PUSH2 0x7D3 JUMPI POP PUSH1 0xFF PUSH1 0xA0 SHL NOT AND DUP3 SSTORE MLOAD CALLER DUP2 MSTORE PUSH32 0x5DB9EE0A495BF2E6FF9C91A7834C1BA4FDD244A5E8AA4E537BD38AEAE4B073AA SWAP1 PUSH1 0x20 SWAP1 LOG1 DUP1 RETURN JUMPDEST DUP3 MLOAD PUSH4 0x8DFC202B PUSH1 0xE0 SHL DUP2 MSTORE REVERT JUMPDEST DUP4 DUP3 CALLVALUE PUSH2 0x259 JUMPI DUP2 PUSH1 0x3 NOT CALLDATASIZE ADD SLT PUSH2 0x259 JUMPI PUSH1 0x20 SWAP1 PUSH1 0x2 SLOAD SWAP1 MLOAD SWAP1 DUP2 MSTORE RETURN JUMPDEST POP CALLVALUE PUSH2 0x167 JUMPI PUSH1 0x20 CALLDATASIZE PUSH1 0x3 NOT ADD SLT PUSH2 0x167 JUMPI DUP2 CALLDATALOAD SWAP2 PUSH2 0x81D PUSH2 0x8A6 JUMP JUMPDEST PUSH2 0x2710 DUP4 LT ISZERO PUSH2 0x859 JUMPI POP DUP2 PUSH1 0x20 SWAP2 PUSH32 0xDCD396927DF583044701E45157583BEBA125FCFBC90FAC4A48302645A843CCFA SWAP4 PUSH1 0x2 SSTORE MLOAD SWAP1 DUP2 MSTORE LOG1 DUP1 RETURN JUMPDEST PUSH1 0x20 PUSH1 0x64 SWAP3 MLOAD SWAP2 PUSH3 0x461BCD PUSH1 0xE5 SHL DUP4 MSTORE DUP3 ADD MSTORE PUSH1 0xD PUSH1 0x24 DUP3 ADD MSTORE PUSH13 0xA4C2E8CA40E8DEDE40D0D2CED PUSH1 0x9B SHL PUSH1 0x44 DUP3 ADD MSTORE REVERT JUMPDEST PUSH1 0x40 SWAP1 PUSH1 0x3 NOT ADD SLT PUSH2 0x8A1 JUMPI PUSH1 0x4 CALLDATALOAD SWAP1 PUSH1 0x24 CALLDATALOAD SWAP1 JUMP JUMPDEST PUSH1 0x0 DUP1 REVERT JUMPDEST PUSH1 0x0 SLOAD PUSH1 0x1 PUSH1 0x1 PUSH1 0xA0 SHL SUB AND CALLER SUB PUSH2 0x8BA JUMPI JUMP JUMPDEST PUSH1 0x40 MLOAD PUSH4 0x118CDAA7 PUSH1 0xE0 SHL DUP2 MSTORE CALLER PUSH1 0x4 DUP3 ADD MSTORE PUSH1 0x24 SWAP1 REVERT JUMPDEST PUSH1 0xFF PUSH1 0x0 SLOAD PUSH1 0xA0 SHR AND PUSH2 0x8E1 JUMPI JUMP JUMPDEST PUSH1 0x40 MLOAD PUSH4 0xD93C0665 PUSH1 0xE0 SHL DUP2 MSTORE PUSH1 0x4 SWAP1 REVERT JUMPDEST DUP2 DUP2 MUL SWAP3 SWAP2 DUP2 ISZERO SWAP2 DUP5 DIV EQ OR ISZERO PUSH2 0x906 JUMPI JUMP JUMPDEST PUSH4 0x4E487B71 PUSH1 0xE0 SHL PUSH1 0x0 MSTORE PUSH1 0x11 PUSH1 0x4 MSTORE PUSH1 0x24 PUSH1 0x0 REVERT JUMPDEST SWAP2 SWAP1 DUP3 SUB SWAP2 DUP3 GT PUSH2 0x906 JUMPI JUMP JUMPDEST PUSH8 0xDE0B6B3A7640000 DUP1 PUSH1 0x3 SLOAD DIV SWAP2 PUSH1 0x64 DUP4 MUL SWAP3 DUP1 DUP5 DIV PUSH1 0x64 EQ SWAP1 ISZERO OR ISZERO PUSH2 0x906 JUMPI DUP2 DUP4 ADD DUP1 SWAP4 GT PUSH2 0x906 JUMPI DUP2 DUP2 MUL SWAP2 DUP2 DUP4 DIV EQ SWAP1 ISZERO OR ISZERO PUSH2 0x906 JUMPI DUP2 ISZERO PUSH2 0x98B JUMPI DIV SWAP1 PUSH2 0x987 PUSH2 0x2710 PUSH2 0x97F PUSH1 0x2 SLOAD DUP6 PUSH2 0x8F3 JUMP JUMPDEST DIV DUP1 SWAP4 PUSH2 0x91C JUMP JUMPDEST SWAP2 SWAP1 JUMP JUMPDEST PUSH4 0x4E487B71 PUSH1 0xE0 SHL PUSH1 0x0 MSTORE PUSH1 0x12 PUSH1 0x4 MSTORE PUSH1 0x24 PUSH1 0x0 REVERT JUMPDEST ISZERO PUSH2 0x9A8 JUMPI JUMP JUMPDEST PUSH1 0x40 MLOAD PUSH3 0x461BCD PUSH1 0xE5 SHL DUP2 MSTORE PUSH1 0x20 PUSH1 0x4 DUP3 ADD MSTORE PUSH1 0x11 PUSH1 0x24 DUP3 ADD MSTORE PUSH17 0xA6D8D2E0E0C2CECA40E8DEDE40D0D2CED PUSH1 0x7B SHL PUSH1 0x44 DUP3 ADD MSTORE PUSH1 0x64 SWAP1 REVERT JUMPDEST SWAP1 PUSH1 0x1F DUP1 NOT SWAP2 ADD AND DUP2 ADD SWAP1 DUP2 LT PUSH8 0xFFFFFFFFFFFFFFFF DUP3 GT OR PUSH2 0xA03 JUMPI PUSH1 0x40 MSTORE JUMP JUMPDEST PUSH4 0x4E487B71 PUSH1 0xE0 SHL PUSH1 0x0 MSTORE PUSH1 0x41 PUSH1 0x4 MSTORE PUSH1 0x24 PUSH1 0x0 REVERT JUMPDEST SWAP1 DUP2 PUSH1 0x20 SWAP2 SUB SLT PUSH2 0x8A1 JUMPI MLOAD DUP1 ISZERO ISZERO DUP2 SUB PUSH2 0x8A1 JUMPI SWAP1 JUMP JUMPDEST ISZERO PUSH2 0xA38 JUMPI JUMP JUMPDEST PUSH1 0x40 MLOAD PUSH3 0x461BCD PUSH1 0xE5 SHL DUP2 MSTORE PUSH1 0x20 PUSH1 0x4 DUP3 ADD MSTORE PUSH1 0x1A PUSH1 0x24 DUP3 ADD MSTORE PUSH32 0x436F6C6C61746572616C207472616E73666572206661696C6564000000000000 PUSH1 0x44 DUP3 ADD MSTORE PUSH1 0x64 SWAP1 REVERT JUMPDEST ISZERO PUSH2 0xA84 JUMPI JUMP JUMPDEST PUSH1 0x40 MLOAD PUSH3 0x461BCD PUSH1 0xE5 SHL DUP2 MSTORE PUSH1 0x20 PUSH1 0x4 DUP3 ADD MSTORE PUSH1 0x13 PUSH1 0x24 DUP3 ADD MSTORE PUSH19 0x119959481D1C985B9CD9995C8819985A5B1959 PUSH1 0x6A SHL PUSH1 0x44 DUP3 ADD MSTORE PUSH1 0x64 SWAP1 REVERT JUMPDEST PUSH8 0xDE0B6B3A7640000 SWAP1 DUP2 PUSH1 0x3 SLOAD DIV PUSH1 0x64 DUP2 MUL SWAP1 DUP1 DUP3 DIV PUSH1 0x64 EQ SWAP1 ISZERO OR ISZERO PUSH2 0x906 JUMPI DUP3 DUP2 ADD DUP1 SWAP2 GT PUSH2 0x906 JUMPI PUSH2 0xAF4 SWAP2 PUSH2 0x8F3 JUMP JUMPDEST DIV SWAP1 PUSH2 0x987 PUSH2 0x2710 PUSH2 0x97F PUSH1 0x2 SLOAD DUP6 PUSH2 0x8F3 JUMP INVALID LOG1 PUSH5 0x736F6C6343 STOP ADDMOD EQ STOP EXP "},"methodIdentifiers":{"FEE_DENOMINATOR()":"d73792a9","buy(uint256,uint256)":"d6febde8","calculateBuyReturn(uint256)":"828f3a9c","calculateSellReturn(uint256)":"bc3c39cb","founderFeeRate()":"36a70065","owner()":"8da5cb5b","pause()":"8456cb59","paused()":"5c975abb","renounceOwnership()":"715018a6","reserveBalance()":"a10954fe","sell(uint256,uint256)":"d79875eb","setFounderFeeRate(uint256)":"1e098183","setTreasury(address)":"f0f44260","stablecoin()":"e9cbd822","transferOwnership(address)":"f2fde38b","treasury()":"61d027b3","unpause()":"3f4ba83a"}}}}}