{"src/contracts/TambrDynamicBondingCurve.sol":{"TambrDynamicBondingCurve":{"abi":[{"inputs":[{"internalType":"string","name":"name","type":"string"},{"internalType":"string","name":"symbol","type":"string"},{"internalType":"string","name":"description","type":"string"},{"internalType":"string","name":"imageUrl","type":"string"},{"internalType":"address","name":"_baseToken","type":"address"},{"internalType":"address","name":"_founderAddress","type":"address"},{"internalType":"uint256","name":"_migrationThreshold","type":"uint256"},{"internalType":"address","name":"_oracleAddress","type":"address"}],"stateMutability":"nonpayable","type":"constructor"},{"inputs":[{"internalType":"address","name":"spender","type":"address"},{"internalType":"uint256","name":"allowance","type":"uint256"},{"internalType":"uint256","name":"needed","type":"uint256"}],"name":"ERC20InsufficientAllowance","type":"error"},{"inputs":[{"internalType":"address","name":"sender","type":"address"},{"internalType":"uint256","name":"balance","type":"uint256"},{"internalType":"uint256","name":"needed","type":"uint256"}],"name":"ERC20InsufficientBalance","type":"error"},{"inputs":[{"internalType":"address","name":"approver","type":"address"}],"name":"ERC20InvalidApprover","type":"error"},{"inputs":[{"internalType":"address","name":"receiver","type":"address"}],"name":"ERC20InvalidReceiver","type":"error"},{"inputs":[{"internalType":"address","name":"sender","type":"address"}],"name":"ERC20InvalidSender","type":"error"},{"inputs":[{"internalType":"address","name":"spender","type":"address"}],"name":"ERC20InvalidSpender","type":"error"},{"inputs":[{"internalType":"address","name":"owner","type":"address"}],"name":"OwnableInvalidOwner","type":"error"},{"inputs":[{"internalType":"address","name":"account","type":"address"}],"name":"OwnableUnauthorizedAccount","type":"error"},{"inputs":[],"name":"ReentrancyGuardReentrantCall","type":"error"},{"anonymous":false,"inputs":[{"indexed":true,"internalType":"address","name":"owner","type":"address"},{"indexed":true,"internalType":"address","name":"spender","type":"address"},{"indexed":false,"internalType":"uint256","name":"value","type":"uint256"}],"name":"Approval","type":"event"},{"anonymous":false,"inputs":[{"indexed":true,"internalType":"address","name":"buyer","type":"address"},{"indexed":false,"internalType":"uint256","name":"baseTokenAmount","type":"uint256"},{"indexed":false,"internalType":"uint256","name":"tokenAmount","type":"uint256"},{"indexed":false,"internalType":"uint256","name":"newPrice","type":"uint256"},{"indexed":false,"internalType":"uint256","name":"founderFee","type":"uint256"}],"name":"Buy","type":"event"},{"anonymous":false,"inputs":[{"indexed":true,"internalType":"address","name":"ammAddress","type":"address"},{"indexed":false,"internalType":"uint256","name":"baseTokenAmount","type":"uint256"},{"indexed":false,"internalType":"uint256","name":"tokenAmount","type":"uint256"},{"indexed":false,"internalType":"uint256","name":"timestamp","type":"uint256"}],"name":"MigratedToAMM","type":"event"},{"anonymous":false,"inputs":[{"indexed":true,"internalType":"address","name":"previousOwner","type":"address"},{"indexed":true,"internalType":"address","name":"newOwner","type":"address"}],"name":"OwnershipTransferred","type":"event"},{"anonymous":false,"inputs":[{"indexed":true,"internalType":"address","name":"seller","type":"address"},{"indexed":false,"internalType":"uint256","name":"tokenAmount","type":"uint256"},{"indexed":false,"internalType":"uint256","name":"baseTokenAmount","type":"uint256"},{"indexed":false,"internalType":"uint256","name":"newPrice","type":"uint256"},{"indexed":false,"internalType":"uint256","name":"founderFee","type":"uint256"}],"name":"Sell","type":"event"},{"anonymous":false,"inputs":[{"indexed":true,"internalType":"address","name":"creator","type":"address"},{"indexed":false,"internalType":"string","name":"name","type":"string"},{"indexed":false,"internalType":"string","name":"symbol","type":"string"},{"indexed":false,"internalType":"uint256","name":"initialVirtualBaseReserve","type":"uint256"},{"indexed":false,"internalType":"uint256","name":"initialVirtualTokenReserve","type":"uint256"}],"name":"TokenCreated","type":"event"},{"anonymous":false,"inputs":[{"indexed":true,"internalType":"address","name":"from","type":"address"},{"indexed":true,"internalType":"address","name":"to","type":"address"},{"indexed":false,"internalType":"uint256","name":"value","type":"uint256"}],"name":"Transfer","type":"event"},{"inputs":[],"name":"BASIS_POINTS","outputs":[{"internalType":"uint256","name":"","type":"uint256"}],"stateMutability":"view","type":"function"},{"inputs":[],"name":"FEE_PERCENTAGE","outputs":[{"internalType":"uint256","name":"","type":"uint256"}],"stateMutability":"view","type":"function"},{"inputs":[],"name":"FOUNDER_FEE_PERCENTAGE","outputs":[{"internalType":"uint256","name":"","type":"uint256"}],"stateMutability":"view","type":"function"},{"inputs":[{"internalType":"address","name":"owner","type":"address"},{"internalType":"address","name":"spender","type":"address"}],"name":"allowance","outputs":[{"internalType":"uint256","name":"","type":"uint256"}],"stateMutability":"view","type":"function"},{"inputs":[],"name":"ammAddress","outputs":[{"internalType":"address","name":"","type":"address"}],"stateMutability":"view","type":"function"},{"inputs":[{"internalType":"address","name":"spender","type":"address"},{"internalType":"uint256","name":"value","type":"uint256"}],"name":"approve","outputs":[{"internalType":"bool","name":"","type":"bool"}],"stateMutability":"nonpayable","type":"function"},{"inputs":[{"internalType":"address","name":"account","type":"address"}],"name":"balanceOf","outputs":[{"internalType":"uint256","name":"","type":"uint256"}],"stateMutability":"view","type":"function"},{"inputs":[],"name":"baseToken","outputs":[{"internalType":"contract IERC20","name":"","type":"address"}],"stateMutability":"view","type":"function"},{"inputs":[{"internalType":"uint256","name":"baseTokenAmount","type":"uint256"},{"internalType":"uint256","name":"minTokenAmount","type":"uint256"}],"name":"buy","outputs":[{"internalType":"uint256","name":"tokenAmount","type":"uint256"}],"stateMutability":"nonpayable","type":"function"},{"inputs":[],"name":"createdAt","outputs":[{"internalType":"uint256","name":"","type":"uint256"}],"stateMutability":"view","type":"function"},{"inputs":[],"name":"decimals","outputs":[{"internalType":"uint8","name":"","type":"uint8"}],"stateMutability":"view","type":"function"},{"inputs":[],"name":"dynamicFactor","outputs":[{"internalType":"uint256","name":"","type":"uint256"}],"stateMutability":"view","type":"function"},{"inputs":[],"name":"founderAddress","outputs":[{"internalType":"address","name":"","type":"address"}],"stateMutability":"view","type":"function"},{"inputs":[{"internalType":"uint256","name":"tokenAmount","type":"uint256"}],"name":"getBaseAmountForTokenAmount","outputs":[{"internalType":"uint256","name":"","type":"uint256"}],"stateMutability":"view","type":"function"},{"inputs":[],"name":"getBondingCurveProgress","outputs":[{"internalType":"uint256","name":"","type":"uint256"}],"stateMutability":"view","type":"function"},{"inputs":[],"name":"getCurrentPrice","outputs":[{"internalType":"uint256","name":"","type":"uint256"}],"stateMutability":"view","type":"function"},{"inputs":[],"name":"getMarketCap","outputs":[{"internalType":"uint256","name":"","type":"uint256"}],"stateMutability":"view","type":"function"},{"inputs":[{"internalType":"uint256","name":"baseTokenAmount","type":"uint256"}],"name":"getTokenAmountForBaseAmount","outputs":[{"internalType":"uint256","name":"","type":"uint256"}],"stateMutability":"view","type":"function"},{"inputs":[],"name":"isMigrated","outputs":[{"internalType":"bool","name":"","type":"bool"}],"stateMutability":"view","type":"function"},{"inputs":[],"name":"migrationThreshold","outputs":[{"internalType":"uint256","name":"","type":"uint256"}],"stateMutability":"view","type":"function"},{"inputs":[],"name":"name","outputs":[{"internalType":"string","name":"","type":"string"}],"stateMutability":"view","type":"function"},{"inputs":[],"name":"oracleAddress","outputs":[{"internalType":"address","name":"","type":"address"}],"stateMutability":"view","type":"function"},{"inputs":[],"name":"owner","outputs":[{"internalType":"address","name":"","type":"address"}],"stateMutability":"view","type":"function"},{"inputs":[],"name":"realBaseReserve","outputs":[{"internalType":"uint256","name":"","type":"uint256"}],"stateMutability":"view","type":"function"},{"inputs":[],"name":"realTokenReserve","outputs":[{"internalType":"uint256","name":"","type":"uint256"}],"stateMutability":"view","type":"function"},{"inputs":[],"name":"renounceOwnership","outputs":[],"stateMutability":"nonpayable","type":"function"},{"inputs":[{"internalType":"uint256","name":"tokenAmount","type":"uint256"},{"internalType":"uint256","name":"minBaseAmount","type":"uint256"}],"name":"sell","outputs":[{"internalType":"uint256","name":"baseTokenAmount","type":"uint256"}],"stateMutability":"nonpayable","type":"function"},{"inputs":[{"internalType":"uint256","name":"_dynamicFactor","type":"uint256"}],"name":"setDynamicFactor","outputs":[],"stateMutability":"nonpayable","type":"function"},{"inputs":[],"name":"symbol","outputs":[{"internalType":"string","name":"","type":"string"}],"stateMutability":"view","type":"function"},{"inputs":[],"name":"tokenCreator","outputs":[{"internalType":"address","name":"","type":"address"}],"stateMutability":"view","type":"function"},{"inputs":[],"name":"tokenDescription","outputs":[{"internalType":"string","name":"","type":"string"}],"stateMutability":"view","type":"function"},{"inputs":[],"name":"tokenImageUrl","outputs":[{"internalType":"string","name":"","type":"string"}],"stateMutability":"view","type":"function"},{"inputs":[],"name":"tokenSymbol","outputs":[{"internalType":"string","name":"","type":"string"}],"stateMutability":"view","type":"function"},{"inputs":[],"name":"totalSupply","outputs":[{"internalType":"uint256","name":"","type":"uint256"}],"stateMutability":"view","type":"function"},{"inputs":[{"internalType":"address","name":"to","type":"address"},{"internalType":"uint256","name":"value","type":"uint256"}],"name":"transfer","outputs":[{"internalType":"bool","name":"","type":"bool"}],"stateMutability":"nonpayable","type":"function"},{"inputs":[{"internalType":"address","name":"from","type":"address"},{"internalType":"address","name":"to","type":"address"},{"internalType":"uint256","name":"value","type":"uint256"}],"name":"transferFrom","outputs":[{"internalType":"bool","name":"","type":"bool"}],"stateMutability":"nonpayable","type":"function"},{"inputs":[{"internalType":"address","name":"newOwner","type":"address"}],"name":"transferOwnership","outputs":[],"stateMutability":"nonpayable","type":"function"},{"inputs":[{"internalType":"address","name":"_ammAddress","type":"address"}],"name":"triggerMigrationManual","outputs":[],"stateMutability":"nonpayable","type":"function"},{"inputs":[],"name":"virtualBaseReserve","outputs":[{"internalType":"uint256","name":"","type":"uint256"}],"stateMutability":"view","type":"function"},{"inputs":[],"name":"virtualTokenReserve","outputs":[{"internalType":"uint256","name":"","type":"uint256"}],"stateMutability":"view","type":"function"},{"inputs":[],"name":"withdrawAfterMigration","outputs":[],"stateMutability":"nonpayable","type":"function"}],"evm":{"bytecode":{"linkReferences":{},"object":"60806040523462000a0357620026da803803806200001d8162000a08565b92833981016101008282031262000a035781516001600160401b03811162000a0357816200004d91840162000a53565b60208301519091906001600160401b03811162000a0357816200007291850162000a53565b60408401519093906001600160401b03811162000a0357826200009791830162000a53565b606082015190926001600160401b03821162000a0357620000ba91830162000a53565b620000c86080830162000aaa565b92620000d760a0840162000aaa565b620000ea60e060c0860151950162000aaa565b86519095906001600160401b038111620005e557600354600181811c91168015620009f8575b6020821014620005c457601f81116200098e575b50806020601f82116001146200090357600091620008f7575b508160011b916000199060031b1c1916176003555b87516001600160401b038111620005e557600454600181811c91168015620008ec575b6020821014620005c457601f811162000886575b50806020601f8211600114620007fb57600091620007ef575b508160011b916000199060031b1c1916176004555b3315620007d65760058054336001600160a01b0319821681179092556001600160a01b03167f8be0079c531659141344cd1fd0a4f28419497f9722a3daafe3b4186f6b6457e0600080a36001600655600780546001600160a01b039283166001600160a01b0319918216179091556008805493909216921691909117905585516001600160401b038111620005e557601154600181811c91168015620007cb575b6020821014620005c457601f811162000776575b50806020601f8211600114620006fd57600091620006f1575b508160011b916000199060031b1c1916176011555b8051906001600160401b038211620005e55760125490600182811c92168015620006e6575b6020831014620005c45781601f84931162000685575b50602090601f83116001146200060757600092620005fb575b50508160011b916000199060031b1c1916176012555b8051906001600160401b038211620005e55760135490600182811c92168015620005da575b6020831014620005c45781601f84931162000560575b50602090601f8311600114620004e657600092620004da575b50508160011b916000199060031b1c1916176013555b3360018060a01b0319601454161760145542601555600f5560018060a01b031660018060a01b0319600d541617600d55612710600e556801a055690d9db800006009556b037790968dc8efffd1000000600a556000600b556000600c553015620004c157600254906b0295be96e640669720000000808301809311620004ab577f67cc2637dc8147ee999178ad9002b9fcccdde83ae7a8664c59f49ed2cceb2e6292600255306000526000602052604060002081815401905560405181815260007fddf252ad1be2c89b69c2b068fc378daa952ba7f163c4a11628f55a4df523b3ef60203093a3600c55600954926200048a600a54916200047b6040519460808652608086019062000abf565b90848203602086015262000abf565b93604083015260608201528033930390a2604051611b93908162000ae78239f35b634e487b7160e01b600052601160045260246000fd5b60405163ec442f0560e01b815260006004820152602490fd5b01519050388062000358565b60136000908152600080516020620026ba8339815191529350601f198516905b8181106200054757509084600195949392106200052d575b505050811b016013556200036e565b015160001960f88460031b161c191690553880806200051e565b9293602060018192878601518155019501930162000506565b6013600052909150600080516020620026ba833981519152601f840160051c81019160208510620005b9575b90601f859493920160051c01905b818110620005a957506200033f565b600081558493506001016200059a565b90915081906200058c565b634e487b7160e01b600052602260045260246000fd5b91607f169162000329565b634e487b7160e01b600052604160045260246000fd5b015190503880620002ee565b6012600090815293506000805160206200267a83398151915291905b601f198416851062000669576001945083601f198116106200064f575b505050811b0160125562000304565b015160001960f88460031b161c1916905538808062000640565b8181015183556020948501946001909301929091019062000623565b60126000529091506000805160206200267a833981519152601f840160051c810160208510620006de575b90849392915b601f830160051c82018110620006ce575050620002d5565b60008155859450600101620006b6565b5080620006b0565b91607f1691620002bf565b90508701513862000285565b6011600090815292506000805160206200269a833981519152905b601f19831684106200075d576001935082601f1981161062000743575b5050811b016011556200029a565b89015160001960f88460031b161c19169055388062000735565b8981015182556020938401936001909201910162000718565b60116000526000805160206200269a833981519152601f830160051c810160208410620007c3575b601f830160051c82018110620007b65750506200026c565b600081556001016200079e565b50806200079e565b90607f169062000258565b604051631e4fbdf760e01b815260006004820152602490fd5b905089015138620001a2565b6004600090815292507f8a35acfbc15ff81a39ae7d344fd709f28e8600b4aa8c65c6b64bfe7fe36bd19b905b8b601f19841685106200086e57506001935082601f1981161062000854575b5050811b01600455620001b7565b8b015160001960f88460031b161c19169055388062000846565b81015182556020938401936001909201910162000827565b60046000527f8a35acfbc15ff81a39ae7d344fd709f28e8600b4aa8c65c6b64bfe7fe36bd19b601f830160051c810160208410620008e4575b601f830160051c82018110620008d757505062000189565b60008155600101620008bf565b5080620008bf565b90607f169062000175565b9050880151386200013d565b6003600090815292507fc2575a0e9e593c00f959f8c92f12db2869c3395a3b0502d05e2516446f71f85b905b8a601f19841685106200097657506001935082601f198116106200095c575b5050811b0160035562000152565b8a015160001960f88460031b161c1916905538806200094e565b8101518255602093840193600190920191016200092f565b60036000527fc2575a0e9e593c00f959f8c92f12db2869c3395a3b0502d05e2516446f71f85b601f830160051c81019160208410620009ed575b601f0160051c01905b818110620009e0575062000124565b60008155600101620009d1565b9091508190620009c8565b90607f169062000110565b600080fd5b6040519190601f01601f191682016001600160401b03811183821017620005e557604052565b60005b83811062000a425750506000910152565b818101518382015260200162000a31565b81601f8201121562000a035780516001600160401b038111620005e55762000a85601f8201601f191660200162000a08565b928184526020828401011162000a035762000aa7916020808501910162000a2e565b90565b51906001600160a01b038216820362000a0357565b9060209162000ada8151809281855285808601910162000a2e565b601f01601f191601019056fe608060408181526004908136101561001657600080fd5b600092833560e01c9081620b46f81461165a5750806306fdde031461159d578063095ea7b3146114f35780630b1bba24146114d457806318160ddd146114b557806323b872dd146113c257806325e6f51614611305578063313ce567146112e9578063343ee3b7146112ca57806346bb2833146112a15780634837e204146112745780634aeb5c09146111b757806367558d46146111435780636c569f21146111245780636cebb0d81461110457806370a08231146110cd578063715018a614611070578063718cb46a14610fb35780637b61c32014610ec05780638da5cb5b14610e9757806390825c2814610e4457806390bc1e8514610e2557806395d89b4114610d21578063a89ae4ba14610cf8578063a9059cbb14610cc7578063aff93df814610ca4578063b06faf6214610c80578063b7cb1b1314610c61578063c55dae6314610c38578063cf09e0d014610c19578063d1ca142814610bfd578063d6fdd92014610b69578063d6febde814610847578063d79875eb146104e8578063db84252c146104bf578063dcc75682146104a0578063dd62ed3e14610457578063e1f1c4a714610439578063eb91d37e14610411578063f2fde38b146103815763ffa685cf146101e657600080fd5b3461037d578260031936011261037d576101fe61173e565b60ff60105416156103475760075481516370a0823160e01b81523084820152602092916001600160a01b0390811691908482602481865afa91821561033d57908592918892610306575b50600554855163a9059cbb60e01b815291166001600160a01b031687820190815260208101929092529283918290899082906040015b03925af19081156102fc5785916102cf575b501561029a578380f35b5162461bcd60e51b815291820152601160248201527015da5d1a191c985dd85b0819985a5b1959607a1b604482015260649150fd5b6102ef9150833d85116102f5575b6102e781836116f0565b810190611903565b38610290565b503d6102dd565b82513d87823e3d90fd5b8381949293503d8311610336575b61031e81836116f0565b81010312610332579051849161027e610248565b8680fd5b503d610314565b84513d89823e3d90fd5b906020606492519162461bcd60e51b8352820152601060248201526f139bdd081b5a59dc985d1959081e595d60821b6044820152fd5b8280fd5b50903461037d57602036600319011261037d5761039c6116bf565b906103a561173e565b6001600160a01b039182169283156103fb575050600554826bffffffffffffffffffffffff60a01b821617600555167f8be0079c531659141344cd1fd0a4f28419497f9722a3daafe3b4186f6b6457e08380a380f35b51631e4fbdf760e01b8152908101849052602490fd5b83823461043557816003193601126104355760209061042e611a4e565b9051908152f35b5080fd5b83823461043557816003193601126104355760209051620186a08152f35b838234610435578060031936011261043557806020926104756116bf565b61047d6116da565b6001600160a01b0391821683526001865283832091168252845220549051908152f35b838234610435578160031936011261043557602090600e549051908152f35b83823461043557816003193601126104355760145490516001600160a01b039091168152602090f35b503461037d576104f736611728565b92610500611a2b565b61050f60ff601054161561186b565b61051a8215156118b7565b33855260209480865282848220541061080d5783516323b872dd60e01b81523383820190815230602082015260408101859052879082908190606001038185305af190811561080357906105759183916107e6575b5061199b565b61058a61058184611ae5565b9586101561191b565b610320918286029286840414861517156107d357620186a08093049260648402848104606414851517156107c05704926105c4908761198e565b906105d18760095461198e565b6009556105e085600a54611848565b600a556105ef82600b5461198e565b600b556105fe85600c54611848565b600c55600754865163a9059cbb60e01b808252338285019081526020810195909552936001600160a01b0393928b91839186169082908990829060400103925af19081156107b6578591610799575b50156107565790889291856106b3575b50505050507f483f8aec0fd892ac72ad1ba8d0e9c9e73db59c12d263fd71de480b5b3deeae3c9061068c611a4e565b845193845260208401869052604084015260608301523391608090a2600160065551908152f35b600754600854895194855283166001600160a01b0316918401918252602082018790529293928492169082908690829060400103925af191821561074b577f483f8aec0fd892ac72ad1ba8d0e9c9e73db59c12d263fd71de480b5b3deeae3c9392610724929061072e575b506119df565b908538808061065d565b6107459150883d8a116102f5576102e781836116f0565b3861071e565b8551903d90823e3d90fd5b865162461bcd60e51b8152908101899052601a60248201527f4261736520746f6b656e207472616e73666572206661696c65640000000000006044820152606490fd5b6107b091508a3d8c116102f5576102e781836116f0565b3861064d565b88513d87823e3d90fd5b634e487b7160e01b845260118352602484fd5b634e487b7160e01b825260119052602490fd5b6107fd9150883d8a116102f5576102e781836116f0565b3861056f565b85513d84823e3d90fd5b835162461bcd60e51b81528083018790526014602482015273496e73756666696369656e742062616c616e636560601b6044820152606490fd5b508290346104355761085836611728565b92610861611a2b565b61087060ff601054161561186b565b81159061087d82156118b7565b60075484516323b872dd60e01b815233888201908152306020808301919091526040820187905298926001600160a01b0392918a918391829003606001908290889087165af1908115610b5f578491610b42575b5015610b0d576108ec6108e386611a87565b9788101561191b565b6103209384860294868604141715610afa57620186a0809404936064850285810460641486151715610ae75761094e916109289104958761198e565b61093487600954611848565b60095561094389600a5461198e565b600a55600b54611848565b600b5561095d87600c5461198e565b600c55855163a9059cbb60e01b80825233848301908152602081018a9052909391908a9082908190604001038188305af19081156107b6578a949392916109aa918791610aca575061199b565b85610a33575b50505050507f064fb1933e186be0b289a87e98518dc18cc9856ecbc9f1353d1a138ddf733ec5906109df611a4e565b845193845260208401869052604084015260608301523391608090a2600b54600f54111580610a26575b610a19575b600160065551908152f35b610a21611b3a565b610a0e565b5060ff6010541615610a09565b600754600854895194855283166001600160a01b0316918401918252602082018790529293928492169082908690829060400103925af191821561074b577f064fb1933e186be0b289a87e98518dc18cc9856ecbc9f1353d1a138ddf733ec59392610aa39290610aad57506119df565b90858780806109b0565b610ac49150883d8a116102f5576102e781836116f0565b8861071e565b610ae19150863d88116102f5576102e781836116f0565b8c61056f565b634e487b7160e01b855260118452602485fd5b634e487b7160e01b835260118252602483fd5b855162461bcd60e51b8152808301899052600f60248201526e151c985b9cd9995c8819985a5b1959608a1b6044820152606490fd5b610b599150893d8b116102f5576102e781836116f0565b896108d1565b87513d86823e3d90fd5b50903461037d57602036600319011261037d57610b846116bf565b90610b8d61173e565b6010549260ff8416610bc7575050610100600160a81b031990911660089190911b610100600160a81b031617601055610bc4611b3a565b80f35b906020606492519162461bcd60e51b8352820152601060248201526f105b1c9958591e481b5a59dc985d195960821b6044820152fd5b8382346104355781600319360112610435576020905160648152f35b8382346104355781600319360112610435576020906015549051908152f35b83823461043557816003193601126104355760075490516001600160a01b039091168152602090f35b838234610435578160031936011261043557602090600c549051908152f35b83823461043557816003193601126104355760209060ff6010541690519015158152f35b508234610cc4576020366003190112610cc4575061042e60209235611a87565b80fd5b838234610435578060031936011261043557602090610cf1610ce76116bf565b602435903361176a565b5160018152f35b838234610435578160031936011261043557600d5490516001600160a01b039091168152602090f35b50829034610435578160031936011261043557805191809380549160019083821c92828516948515610e1b575b6020958686108114610e0857858952908115610de45750600114610d8c575b610d888787610d7e828c03836116f0565b5191829182611676565b0390f35b81529295507f8a35acfbc15ff81a39ae7d344fd709f28e8600b4aa8c65c6b64bfe7fe36bd19b5b828410610dd15750505082610d8894610d7e92820101948680610d6d565b8054868501880152928601928101610db3565b60ff19168887015250505050151560051b8301019250610d7e82610d888680610d6d565b634e487b7160e01b845260228352602484fd5b93607f1693610d4e565b838234610435578160031936011261043557602090600f549051908152f35b508234610cc45780600319360112610cc457600c54926b033b2e3c9fd0803ce80000009384039384116107d357602083670de0b6b3a7640000610e8f87610e89611a4e565b9061195b565b049051908152f35b83823461043557816003193601126104355760055490516001600160a01b039091168152602090f35b503461037d578260031936011261037d57805191836011549060019082821c928281168015610fa9575b6020958686108214610f965750848852908115610f745750600114610f1b575b610d888686610d7e828b03836116f0565b929550601183527f31ecc21a745e3968a04e9570e4425bc18fa8019c68028196b546d1669c200c685b828410610f615750505082610d8894610d7e928201019438610f0a565b8054868501880152928601928101610f44565b60ff191687860152505050151560051b8301019250610d7e82610d8838610f0a565b634e487b7160e01b845260229052602483fd5b93607f1693610eea565b50903461037d57602036600319011261037d57600d54813592906001600160a01b0316330361102d578215610fea575050600e5580f35b906020606492519162461bcd60e51b8352820152601760248201527f466163746f72206d75737420626520706f7369746976650000000000000000006044820152fd5b906020606492519162461bcd60e51b8352820152601a60248201527f4f6e6c79206f7261636c652063616e2073657420666163746f720000000000006044820152fd5b8334610cc45780600319360112610cc45761108961173e565b600580546001600160a01b0319811690915581906001600160a01b03167f8be0079c531659141344cd1fd0a4f28419497f9722a3daafe3b4186f6b6457e08280a380f35b8382346104355760203660031901126104355760209181906001600160a01b036110f56116bf565b16815280845220549051908152f35b508234610cc4576020366003190112610cc4575061042e60209235611ae5565b8382346104355781600319360112610435576020906009549051908152f35b508234610cc45780600319360112610cc457600c54916b0295be96e64066972000000091838303938385116111a4576064850294850460641490841417156111915750602093505191048152f35b634e487b7160e01b815260118552602490fd5b634e487b7160e01b825260118652602482fd5b503461037d578260031936011261037d57805191836013549060019082821c92828116801561126a575b6020958686108214610f965750848852908115610f74575060011461121157610d888686610d7e828b03836116f0565b929550601383527f66de8ffda797e3de9c05e8fc57b3bf0ec28a930d40b0d285d93c06501cf6a0905b8284106112575750505082610d8894610d7e928201019438610f0a565b805486850188015292860192810161123a565b93607f16936111e1565b838234610435578160031936011261043557601054905160089190911c6001600160a01b03168152602090f35b83823461043557816003193601126104355760085490516001600160a01b039091168152602090f35b838234610435578160031936011261043557602090600a549051908152f35b8382346104355781600319360112610435576020905160128152f35b503461037d578260031936011261037d57805191836012549060019082821c9282811680156113b8575b6020958686108214610f965750848852908115610f74575060011461135f57610d888686610d7e828b03836116f0565b929550601283527fbb8a6a4669ba250d26cd7a459eca9d215f8307e33aebe50379bc5a3617ec34445b8284106113a55750505082610d8894610d7e928201019438610f0a565b8054868501880152928601928101611388565b93607f169361132f565b509134610cc4576060366003190112610cc4576113dd6116bf565b6113e56116da565b916044359360018060a01b038316808352600160205286832033845260205286832054916000198310611421575b602088610cf189898961176a565b86831061148957811561147257331561145b57508252600160209081528683203384528152918690209085900390558290610cf138611413565b8751634a1406b160e11b8152908101849052602490fd5b875163e602df0560e01b8152908101849052602490fd5b8751637dc7a0d960e11b8152339181019182526020820193909352604081018790528291506060010390fd5b8382346104355781600319360112610435576020906002549051908152f35b838234610435578160031936011261043557602090600b549051908152f35b50903461037d578160031936011261037d5761150d6116bf565b602435903315611586576001600160a01b031691821561156f57508083602095338152600187528181208582528752205582519081527f8c5be1e5ebec7d5bd14f71427d1e84f3dd0314c0f7b2291e5b200ac8c7c3b925843392a35160018152f35b8351634a1406b160e11b8152908101859052602490fd5b835163e602df0560e01b8152808401869052602490fd5b503461037d578260031936011261037d57805191836003549060019082821c928281168015611650575b6020958686108214610f965750848852908115610f7457506001146115f757610d888686610d7e828b03836116f0565b929550600383527fc2575a0e9e593c00f959f8c92f12db2869c3395a3b0502d05e2516446f71f85b5b82841061163d5750505082610d8894610d7e928201019438610f0a565b8054868501880152928601928101611620565b93607f16936115c7565b8490346104355781600319360112610435578061032060209252f35b6020808252825181830181905290939260005b8281106116ab57505060409293506000838284010152601f8019910116010190565b818101860151848201604001528501611689565b600435906001600160a01b03821682036116d557565b600080fd5b602435906001600160a01b03821682036116d557565b90601f8019910116810190811067ffffffffffffffff82111761171257604052565b634e487b7160e01b600052604160045260246000fd5b60409060031901126116d5576004359060243590565b6005546001600160a01b0316330361175257565b60405163118cdaa760e01b8152336004820152602490fd5b916001600160a01b0380841692831561182f571692831561181657600090838252816020526040822054908382106117e4575091604082827fddf252ad1be2c89b69c2b068fc378daa952ba7f163c4a11628f55a4df523b3ef958760209652828652038282205586815220818154019055604051908152a3565b60405163391434e360e21b81526001600160a01b03919091166004820152602481019190915260448101839052606490fd5b60405163ec442f0560e01b815260006004820152602490fd5b604051634b637e8f60e11b815260006004820152602490fd5b9190820180921161185557565b634e487b7160e01b600052601160045260246000fd5b1561187257565b60405162461bcd60e51b815260206004820152601960248201527f546f6b656e20686173206d6967726174656420746f20414d4d000000000000006044820152606490fd5b156118be57565b60405162461bcd60e51b815260206004820152601d60248201527f416d6f756e74206d7573742062652067726561746572207468616e20300000006044820152606490fd5b908160209103126116d5575180151581036116d55790565b1561192257565b60405162461bcd60e51b815260206004820152601160248201527014db1a5c1c1859d948195e18d959591959607a1b6044820152606490fd5b8181029291811591840414171561185557565b8115611978570490565b634e487b7160e01b600052601260045260246000fd5b9190820391821161185557565b156119a257565b60405162461bcd60e51b8152602060048201526015602482015274151bdad95b881d1c985b9cd9995c8819985a5b1959605a1b6044820152606490fd5b156119e657565b60405162461bcd60e51b815260206004820152601b60248201527f466f756e64657220666565207472616e73666572206661696c656400000000006044820152606490fd5b600260065414611a3c576002600655565b604051633ee5aeb560e01b8152600490fd5b600a548015611a815760095490670de0b6b3a76400009182810292818404149015171561185557611a7e9161196e565b90565b50600090565b61032080820290828204148215171561185557611adf611ab1611a7e93620186a08094049061198e565b91611ac1600954600e549061195b565b04611ad9600a5493611ad3858461195b565b92611848565b9061196e565b9061198e565b611b1b611b0291611adf600954620186a0948591600e549061195b565b0491611ad9600a5491611b15838661195b565b9261198e565b6103209182820292828404148215171561185557611a7e92049061198e565b600160ff19601054161760105560007ff6fdf93b05193f30e8b24877e5c9f6ff7c3548e03f1174d73ae6fe90b67db0036060600b54600c546040519182526020820152426040820152a256fea164736f6c6343000814000abb8a6a4669ba250d26cd7a459eca9d215f8307e33aebe50379bc5a3617ec344431ecc21a745e3968a04e9570e4425bc18fa8019c68028196b546d1669c200c6866de8ffda797e3de9c05e8fc57b3bf0ec28a930d40b0d285d93c06501cf6a090","opcodes":"PUSH1 0x80 PUSH1 0x40 MSTORE CALLVALUE PUSH3 0xA03 JUMPI PUSH3 0x26DA DUP1 CODESIZE SUB DUP1 PUSH3 0x1D DUP2 PUSH3 0xA08 JUMP JUMPDEST SWAP3 DUP4 CODECOPY DUP2 ADD PUSH2 0x100 DUP3 DUP3 SUB SLT PUSH3 0xA03 JUMPI DUP2 MLOAD PUSH1 0x1 PUSH1 0x1 PUSH1 0x40 SHL SUB DUP2 GT PUSH3 0xA03 JUMPI DUP2 PUSH3 0x4D SWAP2 DUP5 ADD PUSH3 0xA53 JUMP JUMPDEST PUSH1 0x20 DUP4 ADD MLOAD SWAP1 SWAP2 SWAP1 PUSH1 0x1 PUSH1 0x1 PUSH1 0x40 SHL SUB DUP2 GT PUSH3 0xA03 JUMPI DUP2 PUSH3 0x72 SWAP2 DUP6 ADD PUSH3 0xA53 JUMP JUMPDEST PUSH1 0x40 DUP5 ADD MLOAD SWAP1 SWAP4 SWAP1 PUSH1 0x1 PUSH1 0x1 PUSH1 0x40 SHL SUB DUP2 GT PUSH3 0xA03 JUMPI DUP3 PUSH3 0x97 SWAP2 DUP4 ADD PUSH3 0xA53 JUMP JUMPDEST PUSH1 0x60 DUP3 ADD MLOAD SWAP1 SWAP3 PUSH1 0x1 PUSH1 0x1 PUSH1 0x40 SHL SUB DUP3 GT PUSH3 0xA03 JUMPI PUSH3 0xBA SWAP2 DUP4 ADD PUSH3 0xA53 JUMP JUMPDEST PUSH3 0xC8 PUSH1 0x80 DUP4 ADD PUSH3 0xAAA JUMP JUMPDEST SWAP3 PUSH3 0xD7 PUSH1 0xA0 DUP5 ADD PUSH3 0xAAA JUMP JUMPDEST PUSH3 0xEA PUSH1 0xE0 PUSH1 0xC0 DUP7 ADD MLOAD SWAP6 ADD PUSH3 0xAAA JUMP JUMPDEST DUP7 MLOAD SWAP1 SWAP6 SWAP1 PUSH1 0x1 PUSH1 0x1 PUSH1 0x40 SHL SUB DUP2 GT PUSH3 0x5E5 JUMPI PUSH1 0x3 SLOAD PUSH1 0x1 DUP2 DUP2 SHR SWAP2 AND DUP1 ISZERO PUSH3 0x9F8 JUMPI JUMPDEST PUSH1 0x20 DUP3 LT EQ PUSH3 0x5C4 JUMPI PUSH1 0x1F DUP2 GT PUSH3 0x98E JUMPI JUMPDEST POP DUP1 PUSH1 0x20 PUSH1 0x1F DUP3 GT PUSH1 0x1 EQ PUSH3 0x903 JUMPI PUSH1 0x0 SWAP2 PUSH3 0x8F7 JUMPI JUMPDEST POP DUP2 PUSH1 0x1 SHL SWAP2 PUSH1 0x0 NOT SWAP1 PUSH1 0x3 SHL SHR NOT AND OR PUSH1 0x3 SSTORE JUMPDEST DUP8 MLOAD PUSH1 0x1 PUSH1 0x1 PUSH1 0x40 SHL SUB DUP2 GT PUSH3 0x5E5 JUMPI PUSH1 0x4 SLOAD PUSH1 0x1 DUP2 DUP2 SHR SWAP2 AND DUP1 ISZERO PUSH3 0x8EC JUMPI JUMPDEST PUSH1 0x20 DUP3 LT EQ PUSH3 0x5C4 JUMPI PUSH1 0x1F DUP2 GT PUSH3 0x886 JUMPI JUMPDEST POP DUP1 PUSH1 0x20 PUSH1 0x1F DUP3 GT PUSH1 0x1 EQ PUSH3 0x7FB JUMPI PUSH1 0x0 SWAP2 PUSH3 0x7EF JUMPI JUMPDEST POP DUP2 PUSH1 0x1 SHL SWAP2 PUSH1 0x0 NOT SWAP1 PUSH1 0x3 SHL SHR NOT AND OR PUSH1 0x4 SSTORE JUMPDEST CALLER ISZERO PUSH3 0x7D6 JUMPI PUSH1 0x5 DUP1 SLOAD CALLER PUSH1 0x1 PUSH1 0x1 PUSH1 0xA0 SHL SUB NOT DUP3 AND DUP2 OR SWAP1 SWAP3 SSTORE PUSH1 0x1 PUSH1 0x1 PUSH1 0xA0 SHL SUB AND PUSH32 0x8BE0079C531659141344CD1FD0A4F28419497F9722A3DAAFE3B4186F6B6457E0 PUSH1 0x0 DUP1 LOG3 PUSH1 0x1 PUSH1 0x6 SSTORE PUSH1 0x7 DUP1 SLOAD PUSH1 0x1 PUSH1 0x1 PUSH1 0xA0 SHL SUB SWAP3 DUP4 AND PUSH1 0x1 PUSH1 0x1 PUSH1 0xA0 SHL SUB NOT SWAP2 DUP3 AND OR SWAP1 SWAP2 SSTORE PUSH1 0x8 DUP1 SLOAD SWAP4 SWAP1 SWAP3 AND SWAP3 AND SWAP2 SWAP1 SWAP2 OR SWAP1 SSTORE DUP6 MLOAD PUSH1 0x1 PUSH1 0x1 PUSH1 0x40 SHL SUB DUP2 GT PUSH3 0x5E5 JUMPI PUSH1 0x11 SLOAD PUSH1 0x1 DUP2 DUP2 SHR SWAP2 AND DUP1 ISZERO PUSH3 0x7CB JUMPI JUMPDEST PUSH1 0x20 DUP3 LT EQ PUSH3 0x5C4 JUMPI PUSH1 0x1F DUP2 GT PUSH3 0x776 JUMPI JUMPDEST POP DUP1 PUSH1 0x20 PUSH1 0x1F DUP3 GT PUSH1 0x1 EQ PUSH3 0x6FD JUMPI PUSH1 0x0 SWAP2 PUSH3 0x6F1 JUMPI JUMPDEST POP DUP2 PUSH1 0x1 SHL SWAP2 PUSH1 0x0 NOT SWAP1 PUSH1 0x3 SHL SHR NOT AND OR PUSH1 0x11 SSTORE JUMPDEST DUP1 MLOAD SWAP1 PUSH1 0x1 PUSH1 0x1 PUSH1 0x40 SHL SUB DUP3 GT PUSH3 0x5E5 JUMPI PUSH1 0x12 SLOAD SWAP1 PUSH1 0x1 DUP3 DUP2 SHR SWAP3 AND DUP1 ISZERO PUSH3 0x6E6 JUMPI JUMPDEST PUSH1 0x20 DUP4 LT EQ PUSH3 0x5C4 JUMPI DUP2 PUSH1 0x1F DUP5 SWAP4 GT PUSH3 0x685 JUMPI JUMPDEST POP PUSH1 0x20 SWAP1 PUSH1 0x1F DUP4 GT PUSH1 0x1 EQ PUSH3 0x607 JUMPI PUSH1 0x0 SWAP3 PUSH3 0x5FB JUMPI JUMPDEST POP POP DUP2 PUSH1 0x1 SHL SWAP2 PUSH1 0x0 NOT SWAP1 PUSH1 0x3 SHL SHR NOT AND OR PUSH1 0x12 SSTORE JUMPDEST DUP1 MLOAD SWAP1 PUSH1 0x1 PUSH1 0x1 PUSH1 0x40 SHL SUB DUP3 GT PUSH3 0x5E5 JUMPI PUSH1 0x13 SLOAD SWAP1 PUSH1 0x1 DUP3 DUP2 SHR SWAP3 AND DUP1 ISZERO PUSH3 0x5DA JUMPI JUMPDEST PUSH1 0x20 DUP4 LT EQ PUSH3 0x5C4 JUMPI DUP2 PUSH1 0x1F DUP5 SWAP4 GT PUSH3 0x560 JUMPI JUMPDEST POP PUSH1 0x20 SWAP1 PUSH1 0x1F DUP4 GT PUSH1 0x1 EQ PUSH3 0x4E6 JUMPI PUSH1 0x0 SWAP3 PUSH3 0x4DA JUMPI JUMPDEST POP POP DUP2 PUSH1 0x1 SHL SWAP2 PUSH1 0x0 NOT SWAP1 PUSH1 0x3 SHL SHR NOT AND OR PUSH1 0x13 SSTORE JUMPDEST CALLER PUSH1 0x1 DUP1 PUSH1 0xA0 SHL SUB NOT PUSH1 0x14 SLOAD AND OR PUSH1 0x14 SSTORE TIMESTAMP PUSH1 0x15 SSTORE PUSH1 0xF SSTORE PUSH1 0x1 DUP1 PUSH1 0xA0 SHL SUB AND PUSH1 0x1 DUP1 PUSH1 0xA0 SHL SUB NOT PUSH1 0xD SLOAD AND OR PUSH1 0xD SSTORE PUSH2 0x2710 PUSH1 0xE SSTORE PUSH9 0x1A055690D9DB80000 PUSH1 0x9 SSTORE PUSH12 0x37790968DC8EFFFD1000000 PUSH1 0xA SSTORE PUSH1 0x0 PUSH1 0xB SSTORE PUSH1 0x0 PUSH1 0xC SSTORE ADDRESS ISZERO PUSH3 0x4C1 JUMPI PUSH1 0x2 SLOAD SWAP1 PUSH12 0x295BE96E640669720000000 DUP1 DUP4 ADD DUP1 SWAP4 GT PUSH3 0x4AB JUMPI PUSH32 0x67CC2637DC8147EE999178AD9002B9FCCCDDE83AE7A8664C59F49ED2CCEB2E62 SWAP3 PUSH1 0x2 SSTORE ADDRESS PUSH1 0x0 MSTORE PUSH1 0x0 PUSH1 0x20 MSTORE PUSH1 0x40 PUSH1 0x0 KECCAK256 DUP2 DUP2 SLOAD ADD SWAP1 SSTORE PUSH1 0x40 MLOAD DUP2 DUP2 MSTORE PUSH1 0x0 PUSH32 0xDDF252AD1BE2C89B69C2B068FC378DAA952BA7F163C4A11628F55A4DF523B3EF PUSH1 0x20 ADDRESS SWAP4 LOG3 PUSH1 0xC SSTORE PUSH1 0x9 SLOAD SWAP3 PUSH3 0x48A PUSH1 0xA SLOAD SWAP2 PUSH3 0x47B PUSH1 0x40 MLOAD SWAP5 PUSH1 0x80 DUP7 MSTORE PUSH1 0x80 DUP7 ADD SWAP1 PUSH3 0xABF JUMP JUMPDEST SWAP1 DUP5 DUP3 SUB PUSH1 0x20 DUP7 ADD MSTORE PUSH3 0xABF JUMP JUMPDEST SWAP4 PUSH1 0x40 DUP4 ADD MSTORE PUSH1 0x60 DUP3 ADD MSTORE DUP1 CALLER SWAP4 SUB SWAP1 LOG2 PUSH1 0x40 MLOAD PUSH2 0x1B93 SWAP1 DUP2 PUSH3 0xAE7 DUP3 CODECOPY RETURN JUMPDEST PUSH4 0x4E487B71 PUSH1 0xE0 SHL PUSH1 0x0 MSTORE PUSH1 0x11 PUSH1 0x4 MSTORE PUSH1 0x24 PUSH1 0x0 REVERT JUMPDEST PUSH1 0x40 MLOAD PUSH4 0xEC442F05 PUSH1 0xE0 SHL DUP2 MSTORE PUSH1 0x0 PUSH1 0x4 DUP3 ADD MSTORE PUSH1 0x24 SWAP1 REVERT JUMPDEST ADD MLOAD SWAP1 POP CODESIZE DUP1 PUSH3 0x358 JUMP JUMPDEST PUSH1 0x13 PUSH1 0x0 SWAP1 DUP2 MSTORE PUSH1 0x0 DUP1 MLOAD PUSH1 0x20 PUSH3 0x26BA DUP4 CODECOPY DUP2 MLOAD SWAP2 MSTORE SWAP4 POP PUSH1 0x1F NOT DUP6 AND SWAP1 JUMPDEST DUP2 DUP2 LT PUSH3 0x547 JUMPI POP SWAP1 DUP5 PUSH1 0x1 SWAP6 SWAP5 SWAP4 SWAP3 LT PUSH3 0x52D JUMPI JUMPDEST POP POP POP DUP2 SHL ADD PUSH1 0x13 SSTORE PUSH3 0x36E JUMP JUMPDEST ADD MLOAD PUSH1 0x0 NOT PUSH1 0xF8 DUP5 PUSH1 0x3 SHL AND SHR NOT AND SWAP1 SSTORE CODESIZE DUP1 DUP1 PUSH3 0x51E JUMP JUMPDEST SWAP3 SWAP4 PUSH1 0x20 PUSH1 0x1 DUP2 SWAP3 DUP8 DUP7 ADD MLOAD DUP2 SSTORE ADD SWAP6 ADD SWAP4 ADD PUSH3 0x506 JUMP JUMPDEST PUSH1 0x13 PUSH1 0x0 MSTORE SWAP1 SWAP2 POP PUSH1 0x0 DUP1 MLOAD PUSH1 0x20 PUSH3 0x26BA DUP4 CODECOPY DUP2 MLOAD SWAP2 MSTORE PUSH1 0x1F DUP5 ADD PUSH1 0x5 SHR DUP2 ADD SWAP2 PUSH1 0x20 DUP6 LT PUSH3 0x5B9 JUMPI JUMPDEST SWAP1 PUSH1 0x1F DUP6 SWAP5 SWAP4 SWAP3 ADD PUSH1 0x5 SHR ADD SWAP1 JUMPDEST DUP2 DUP2 LT PUSH3 0x5A9 JUMPI POP PUSH3 0x33F JUMP JUMPDEST PUSH1 0x0 DUP2 SSTORE DUP5 SWAP4 POP PUSH1 0x1 ADD PUSH3 0x59A JUMP JUMPDEST SWAP1 SWAP2 POP DUP2 SWAP1 PUSH3 0x58C JUMP JUMPDEST PUSH4 0x4E487B71 PUSH1 0xE0 SHL PUSH1 0x0 MSTORE PUSH1 0x22 PUSH1 0x4 MSTORE PUSH1 0x24 PUSH1 0x0 REVERT JUMPDEST SWAP2 PUSH1 0x7F AND SWAP2 PUSH3 0x329 JUMP JUMPDEST PUSH4 0x4E487B71 PUSH1 0xE0 SHL PUSH1 0x0 MSTORE PUSH1 0x41 PUSH1 0x4 MSTORE PUSH1 0x24 PUSH1 0x0 REVERT JUMPDEST ADD MLOAD SWAP1 POP CODESIZE DUP1 PUSH3 0x2EE JUMP JUMPDEST PUSH1 0x12 PUSH1 0x0 SWAP1 DUP2 MSTORE SWAP4 POP PUSH1 0x0 DUP1 MLOAD PUSH1 0x20 PUSH3 0x267A DUP4 CODECOPY DUP2 MLOAD SWAP2 MSTORE SWAP2 SWAP1 JUMPDEST PUSH1 0x1F NOT DUP5 AND DUP6 LT PUSH3 0x669 JUMPI PUSH1 0x1 SWAP5 POP DUP4 PUSH1 0x1F NOT DUP2 AND LT PUSH3 0x64F JUMPI JUMPDEST POP POP POP DUP2 SHL ADD PUSH1 0x12 SSTORE PUSH3 0x304 JUMP JUMPDEST ADD MLOAD PUSH1 0x0 NOT PUSH1 0xF8 DUP5 PUSH1 0x3 SHL AND SHR NOT AND SWAP1 SSTORE CODESIZE DUP1 DUP1 PUSH3 0x640 JUMP JUMPDEST DUP2 DUP2 ADD MLOAD DUP4 SSTORE PUSH1 0x20 SWAP5 DUP6 ADD SWAP5 PUSH1 0x1 SWAP1 SWAP4 ADD SWAP3 SWAP1 SWAP2 ADD SWAP1 PUSH3 0x623 JUMP JUMPDEST PUSH1 0x12 PUSH1 0x0 MSTORE SWAP1 SWAP2 POP PUSH1 0x0 DUP1 MLOAD PUSH1 0x20 PUSH3 0x267A DUP4 CODECOPY DUP2 MLOAD SWAP2 MSTORE PUSH1 0x1F DUP5 ADD PUSH1 0x5 SHR DUP2 ADD PUSH1 0x20 DUP6 LT PUSH3 0x6DE JUMPI JUMPDEST SWAP1 DUP5 SWAP4 SWAP3 SWAP2 JUMPDEST PUSH1 0x1F DUP4 ADD PUSH1 0x5 SHR DUP3 ADD DUP2 LT PUSH3 0x6CE JUMPI POP POP PUSH3 0x2D5 JUMP JUMPDEST PUSH1 0x0 DUP2 SSTORE DUP6 SWAP5 POP PUSH1 0x1 ADD PUSH3 0x6B6 JUMP JUMPDEST POP DUP1 PUSH3 0x6B0 JUMP JUMPDEST SWAP2 PUSH1 0x7F AND SWAP2 PUSH3 0x2BF JUMP JUMPDEST SWAP1 POP DUP8 ADD MLOAD CODESIZE PUSH3 0x285 JUMP JUMPDEST PUSH1 0x11 PUSH1 0x0 SWAP1 DUP2 MSTORE SWAP3 POP PUSH1 0x0 DUP1 MLOAD PUSH1 0x20 PUSH3 0x269A DUP4 CODECOPY DUP2 MLOAD SWAP2 MSTORE SWAP1 JUMPDEST PUSH1 0x1F NOT DUP4 AND DUP5 LT PUSH3 0x75D JUMPI PUSH1 0x1 SWAP4 POP DUP3 PUSH1 0x1F NOT DUP2 AND LT PUSH3 0x743 JUMPI JUMPDEST POP POP DUP2 SHL ADD PUSH1 0x11 SSTORE PUSH3 0x29A JUMP JUMPDEST DUP10 ADD MLOAD PUSH1 0x0 NOT PUSH1 0xF8 DUP5 PUSH1 0x3 SHL AND SHR NOT AND SWAP1 SSTORE CODESIZE DUP1 PUSH3 0x735 JUMP JUMPDEST DUP10 DUP2 ADD MLOAD DUP3 SSTORE PUSH1 0x20 SWAP4 DUP5 ADD SWAP4 PUSH1 0x1 SWAP1 SWAP3 ADD SWAP2 ADD PUSH3 0x718 JUMP JUMPDEST PUSH1 0x11 PUSH1 0x0 MSTORE PUSH1 0x0 DUP1 MLOAD PUSH1 0x20 PUSH3 0x269A DUP4 CODECOPY DUP2 MLOAD SWAP2 MSTORE PUSH1 0x1F DUP4 ADD PUSH1 0x5 SHR DUP2 ADD PUSH1 0x20 DUP5 LT PUSH3 0x7C3 JUMPI JUMPDEST PUSH1 0x1F DUP4 ADD PUSH1 0x5 SHR DUP3 ADD DUP2 LT PUSH3 0x7B6 JUMPI POP POP PUSH3 0x26C JUMP JUMPDEST PUSH1 0x0 DUP2 SSTORE PUSH1 0x1 ADD PUSH3 0x79E JUMP JUMPDEST POP DUP1 PUSH3 0x79E JUMP JUMPDEST SWAP1 PUSH1 0x7F AND SWAP1 PUSH3 0x258 JUMP JUMPDEST PUSH1 0x40 MLOAD PUSH4 0x1E4FBDF7 PUSH1 0xE0 SHL DUP2 MSTORE PUSH1 0x0 PUSH1 0x4 DUP3 ADD MSTORE PUSH1 0x24 SWAP1 REVERT JUMPDEST SWAP1 POP DUP10 ADD MLOAD CODESIZE PUSH3 0x1A2 JUMP JUMPDEST PUSH1 0x4 PUSH1 0x0 SWAP1 DUP2 MSTORE SWAP3 POP PUSH32 0x8A35ACFBC15FF81A39AE7D344FD709F28E8600B4AA8C65C6B64BFE7FE36BD19B SWAP1 JUMPDEST DUP12 PUSH1 0x1F NOT DUP5 AND DUP6 LT PUSH3 0x86E JUMPI POP PUSH1 0x1 SWAP4 POP DUP3 PUSH1 0x1F NOT DUP2 AND LT PUSH3 0x854 JUMPI JUMPDEST POP POP DUP2 SHL ADD PUSH1 0x4 SSTORE PUSH3 0x1B7 JUMP JUMPDEST DUP12 ADD MLOAD PUSH1 0x0 NOT PUSH1 0xF8 DUP5 PUSH1 0x3 SHL AND SHR NOT AND SWAP1 SSTORE CODESIZE DUP1 PUSH3 0x846 JUMP JUMPDEST DUP2 ADD MLOAD DUP3 SSTORE PUSH1 0x20 SWAP4 DUP5 ADD SWAP4 PUSH1 0x1 SWAP1 SWAP3 ADD SWAP2 ADD PUSH3 0x827 JUMP JUMPDEST PUSH1 0x4 PUSH1 0x0 MSTORE PUSH32 0x8A35ACFBC15FF81A39AE7D344FD709F28E8600B4AA8C65C6B64BFE7FE36BD19B PUSH1 0x1F DUP4 ADD PUSH1 0x5 SHR DUP2 ADD PUSH1 0x20 DUP5 LT PUSH3 0x8E4 JUMPI JUMPDEST PUSH1 0x1F DUP4 ADD PUSH1 0x5 SHR DUP3 ADD DUP2 LT PUSH3 0x8D7 JUMPI POP POP PUSH3 0x189 JUMP JUMPDEST PUSH1 0x0 DUP2 SSTORE PUSH1 0x1 ADD PUSH3 0x8BF JUMP JUMPDEST POP DUP1 PUSH3 0x8BF JUMP JUMPDEST SWAP1 PUSH1 0x7F AND SWAP1 PUSH3 0x175 JUMP JUMPDEST SWAP1 POP DUP9 ADD MLOAD CODESIZE PUSH3 0x13D JUMP JUMPDEST PUSH1 0x3 PUSH1 0x0 SWAP1 DUP2 MSTORE SWAP3 POP PUSH32 0xC2575A0E9E593C00F959F8C92F12DB2869C3395A3B0502D05E2516446F71F85B SWAP1 JUMPDEST DUP11 PUSH1 0x1F NOT DUP5 AND DUP6 LT PUSH3 0x976 JUMPI POP PUSH1 0x1 SWAP4 POP DUP3 PUSH1 0x1F NOT DUP2 AND LT PUSH3 0x95C JUMPI JUMPDEST POP POP DUP2 SHL ADD PUSH1 0x3 SSTORE PUSH3 0x152 JUMP JUMPDEST DUP11 ADD MLOAD PUSH1 0x0 NOT PUSH1 0xF8 DUP5 PUSH1 0x3 SHL AND SHR NOT AND SWAP1 SSTORE CODESIZE DUP1 PUSH3 0x94E JUMP JUMPDEST DUP2 ADD MLOAD DUP3 SSTORE PUSH1 0x20 SWAP4 DUP5 ADD SWAP4 PUSH1 0x1 SWAP1 SWAP3 ADD SWAP2 ADD PUSH3 0x92F JUMP JUMPDEST PUSH1 0x3 PUSH1 0x0 MSTORE PUSH32 0xC2575A0E9E593C00F959F8C92F12DB2869C3395A3B0502D05E2516446F71F85B PUSH1 0x1F DUP4 ADD PUSH1 0x5 SHR DUP2 ADD SWAP2 PUSH1 0x20 DUP5 LT PUSH3 0x9ED JUMPI JUMPDEST PUSH1 0x1F ADD PUSH1 0x5 SHR ADD SWAP1 JUMPDEST DUP2 DUP2 LT PUSH3 0x9E0 JUMPI POP PUSH3 0x124 JUMP JUMPDEST PUSH1 0x0 DUP2 SSTORE PUSH1 0x1 ADD PUSH3 0x9D1 JUMP JUMPDEST SWAP1 SWAP2 POP DUP2 SWAP1 PUSH3 0x9C8 JUMP JUMPDEST SWAP1 PUSH1 0x7F AND SWAP1 PUSH3 0x110 JUMP JUMPDEST PUSH1 0x0 DUP1 REVERT JUMPDEST PUSH1 0x40 MLOAD SWAP2 SWAP1 PUSH1 0x1F ADD PUSH1 0x1F NOT AND DUP3 ADD PUSH1 0x1 PUSH1 0x1 PUSH1 0x40 SHL SUB DUP2 GT DUP4 DUP3 LT OR PUSH3 0x5E5 JUMPI PUSH1 0x40 MSTORE JUMP JUMPDEST PUSH1 0x0 JUMPDEST DUP4 DUP2 LT PUSH3 0xA42 JUMPI POP POP PUSH1 0x0 SWAP2 ADD MSTORE JUMP JUMPDEST DUP2 DUP2 ADD MLOAD DUP4 DUP3 ADD MSTORE PUSH1 0x20 ADD PUSH3 0xA31 JUMP JUMPDEST DUP2 PUSH1 0x1F DUP3 ADD SLT ISZERO PUSH3 0xA03 JUMPI DUP1 MLOAD PUSH1 0x1 PUSH1 0x1 PUSH1 0x40 SHL SUB DUP2 GT PUSH3 0x5E5 JUMPI PUSH3 0xA85 PUSH1 0x1F DUP3 ADD PUSH1 0x1F NOT AND PUSH1 0x20 ADD PUSH3 0xA08 JUMP JUMPDEST SWAP3 DUP2 DUP5 MSTORE PUSH1 0x20 DUP3 DUP5 ADD ADD GT PUSH3 0xA03 JUMPI PUSH3 0xAA7 SWAP2 PUSH1 0x20 DUP1 DUP6 ADD SWAP2 ADD PUSH3 0xA2E JUMP JUMPDEST SWAP1 JUMP JUMPDEST MLOAD SWAP1 PUSH1 0x1 PUSH1 0x1 PUSH1 0xA0 SHL SUB DUP3 AND DUP3 SUB PUSH3 0xA03 JUMPI JUMP JUMPDEST SWAP1 PUSH1 0x20 SWAP2 PUSH3 0xADA DUP2 MLOAD DUP1 SWAP3 DUP2 DUP6 MSTORE DUP6 DUP1 DUP7 ADD SWAP2 ADD PUSH3 0xA2E JUMP JUMPDEST PUSH1 0x1F ADD PUSH1 0x1F NOT AND ADD ADD SWAP1 JUMP INVALID PUSH1 0x80 PUSH1 0x40 DUP2 DUP2 MSTORE PUSH1 0x4 SWAP1 DUP2 CALLDATASIZE LT ISZERO PUSH2 0x16 JUMPI PUSH1 0x0 DUP1 REVERT JUMPDEST PUSH1 0x0 SWAP3 DUP4 CALLDATALOAD PUSH1 0xE0 SHR SWAP1 DUP2 PUSH3 0xB46F8 EQ PUSH2 0x165A JUMPI POP DUP1 PUSH4 0x6FDDE03 EQ PUSH2 0x159D JUMPI DUP1 PUSH4 0x95EA7B3 EQ PUSH2 0x14F3 JUMPI DUP1 PUSH4 0xB1BBA24 EQ PUSH2 0x14D4 JUMPI DUP1 PUSH4 0x18160DDD EQ PUSH2 0x14B5 JUMPI DUP1 PUSH4 0x23B872DD EQ PUSH2 0x13C2 JUMPI DUP1 PUSH4 0x25E6F516 EQ PUSH2 0x1305 JUMPI DUP1 PUSH4 0x313CE567 EQ PUSH2 0x12E9 JUMPI DUP1 PUSH4 0x343EE3B7 EQ PUSH2 0x12CA JUMPI DUP1 PUSH4 0x46BB2833 EQ PUSH2 0x12A1 JUMPI DUP1 PUSH4 0x4837E204 EQ PUSH2 0x1274 JUMPI DUP1 PUSH4 0x4AEB5C09 EQ PUSH2 0x11B7 JUMPI DUP1 PUSH4 0x67558D46 EQ PUSH2 0x1143 JUMPI DUP1 PUSH4 0x6C569F21 EQ PUSH2 0x1124 JUMPI DUP1 PUSH4 0x6CEBB0D8 EQ PUSH2 0x1104 JUMPI DUP1 PUSH4 0x70A08231 EQ PUSH2 0x10CD JUMPI DUP1 PUSH4 0x715018A6 EQ PUSH2 0x1070 JUMPI DUP1 PUSH4 0x718CB46A EQ PUSH2 0xFB3 JUMPI DUP1 PUSH4 0x7B61C320 EQ PUSH2 0xEC0 JUMPI DUP1 PUSH4 0x8DA5CB5B EQ PUSH2 0xE97 JUMPI DUP1 PUSH4 0x90825C28 EQ PUSH2 0xE44 JUMPI DUP1 PUSH4 0x90BC1E85 EQ PUSH2 0xE25 JUMPI DUP1 PUSH4 0x95D89B41 EQ PUSH2 0xD21 JUMPI DUP1 PUSH4 0xA89AE4BA EQ PUSH2 0xCF8 JUMPI DUP1 PUSH4 0xA9059CBB EQ PUSH2 0xCC7 JUMPI DUP1 PUSH4 0xAFF93DF8 EQ PUSH2 0xCA4 JUMPI DUP1 PUSH4 0xB06FAF62 EQ PUSH2 0xC80 JUMPI DUP1 PUSH4 0xB7CB1B13 EQ PUSH2 0xC61 JUMPI DUP1 PUSH4 0xC55DAE63 EQ PUSH2 0xC38 JUMPI DUP1 PUSH4 0xCF09E0D0 EQ PUSH2 0xC19 JUMPI DUP1 PUSH4 0xD1CA1428 EQ PUSH2 0xBFD JUMPI DUP1 PUSH4 0xD6FDD920 EQ PUSH2 0xB69 JUMPI DUP1 PUSH4 0xD6FEBDE8 EQ PUSH2 0x847 JUMPI DUP1 PUSH4 0xD79875EB EQ PUSH2 0x4E8 JUMPI DUP1 PUSH4 0xDB84252C EQ PUSH2 0x4BF JUMPI DUP1 PUSH4 0xDCC75682 EQ PUSH2 0x4A0 JUMPI DUP1 PUSH4 0xDD62ED3E EQ PUSH2 0x457 JUMPI DUP1 PUSH4 0xE1F1C4A7 EQ PUSH2 0x439 JUMPI DUP1 PUSH4 0xEB91D37E EQ PUSH2 0x411 JUMPI DUP1 PUSH4 0xF2FDE38B EQ PUSH2 0x381 JUMPI PUSH4 0xFFA685CF EQ PUSH2 0x1E6 JUMPI PUSH1 0x0 DUP1 REVERT JUMPDEST CALLVALUE PUSH2 0x37D JUMPI DUP3 PUSH1 0x3 NOT CALLDATASIZE ADD SLT PUSH2 0x37D JUMPI PUSH2 0x1FE PUSH2 0x173E JUMP JUMPDEST PUSH1 0xFF PUSH1 0x10 SLOAD AND ISZERO PUSH2 0x347 JUMPI PUSH1 0x7 SLOAD DUP2 MLOAD PUSH4 0x70A08231 PUSH1 0xE0 SHL DUP2 MSTORE ADDRESS DUP5 DUP3 ADD MSTORE PUSH1 0x20 SWAP3 SWAP2 PUSH1 0x1 PUSH1 0x1 PUSH1 0xA0 SHL SUB SWAP1 DUP2 AND SWAP2 SWAP1 DUP5 DUP3 PUSH1 0x24 DUP2 DUP7 GAS STATICCALL SWAP2 DUP3 ISZERO PUSH2 0x33D JUMPI SWAP1 DUP6 SWAP3 SWAP2 DUP9 SWAP3 PUSH2 0x306 JUMPI JUMPDEST POP PUSH1 0x5 SLOAD DUP6 MLOAD PUSH4 0xA9059CBB PUSH1 0xE0 SHL DUP2 MSTORE SWAP2 AND PUSH1 0x1 PUSH1 0x1 PUSH1 0xA0 SHL SUB AND DUP8 DUP3 ADD SWAP1 DUP2 MSTORE PUSH1 0x20 DUP2 ADD SWAP3 SWAP1 SWAP3 MSTORE SWAP3 DUP4 SWAP2 DUP3 SWAP1 DUP10 SWAP1 DUP3 SWAP1 PUSH1 0x40 ADD JUMPDEST SUB SWAP3 GAS CALL SWAP1 DUP2 ISZERO PUSH2 0x2FC JUMPI DUP6 SWAP2 PUSH2 0x2CF JUMPI JUMPDEST POP ISZERO PUSH2 0x29A JUMPI DUP4 DUP1 RETURN JUMPDEST MLOAD PUSH3 0x461BCD PUSH1 0xE5 SHL DUP2 MSTORE SWAP2 DUP3 ADD MSTORE PUSH1 0x11 PUSH1 0x24 DUP3 ADD MSTORE PUSH17 0x15DA5D1A191C985DD85B0819985A5B1959 PUSH1 0x7A SHL PUSH1 0x44 DUP3 ADD MSTORE PUSH1 0x64 SWAP2 POP REVERT JUMPDEST PUSH2 0x2EF SWAP2 POP DUP4 RETURNDATASIZE DUP6 GT PUSH2 0x2F5 JUMPI JUMPDEST PUSH2 0x2E7 DUP2 DUP4 PUSH2 0x16F0 JUMP JUMPDEST DUP2 ADD SWAP1 PUSH2 0x1903 JUMP JUMPDEST CODESIZE PUSH2 0x290 JUMP JUMPDEST POP RETURNDATASIZE PUSH2 0x2DD JUMP JUMPDEST DUP3 MLOAD RETURNDATASIZE DUP8 DUP3 RETURNDATACOPY RETURNDATASIZE SWAP1 REVERT JUMPDEST DUP4 DUP2 SWAP5 SWAP3 SWAP4 POP RETURNDATASIZE DUP4 GT PUSH2 0x336 JUMPI JUMPDEST PUSH2 0x31E DUP2 DUP4 PUSH2 0x16F0 JUMP JUMPDEST DUP2 ADD SUB SLT PUSH2 0x332 JUMPI SWAP1 MLOAD DUP5 SWAP2 PUSH2 0x27E PUSH2 0x248 JUMP JUMPDEST DUP7 DUP1 REVERT JUMPDEST POP RETURNDATASIZE PUSH2 0x314 JUMP JUMPDEST DUP5 MLOAD RETURNDATASIZE DUP10 DUP3 RETURNDATACOPY RETURNDATASIZE SWAP1 REVERT JUMPDEST SWAP1 PUSH1 0x20 PUSH1 0x64 SWAP3 MLOAD SWAP2 PUSH3 0x461BCD PUSH1 0xE5 SHL DUP4 MSTORE DUP3 ADD MSTORE PUSH1 0x10 PUSH1 0x24 DUP3 ADD MSTORE PUSH16 0x139BDD081B5A59DC985D1959081E595D PUSH1 0x82 SHL PUSH1 0x44 DUP3 ADD MSTORE REVERT JUMPDEST DUP3 DUP1 REVERT JUMPDEST POP SWAP1 CALLVALUE PUSH2 0x37D JUMPI PUSH1 0x20 CALLDATASIZE PUSH1 0x3 NOT ADD SLT PUSH2 0x37D JUMPI PUSH2 0x39C PUSH2 0x16BF JUMP JUMPDEST SWAP1 PUSH2 0x3A5 PUSH2 0x173E JUMP JUMPDEST PUSH1 0x1 PUSH1 0x1 PUSH1 0xA0 SHL SUB SWAP2 DUP3 AND SWAP3 DUP4 ISZERO PUSH2 0x3FB JUMPI POP POP PUSH1 0x5 SLOAD DUP3 PUSH12 0xFFFFFFFFFFFFFFFFFFFFFFFF PUSH1 0xA0 SHL DUP3 AND OR PUSH1 0x5 SSTORE AND PUSH32 0x8BE0079C531659141344CD1FD0A4F28419497F9722A3DAAFE3B4186F6B6457E0 DUP4 DUP1 LOG3 DUP1 RETURN JUMPDEST MLOAD PUSH4 0x1E4FBDF7 PUSH1 0xE0 SHL DUP2 MSTORE SWAP1 DUP2 ADD DUP5 SWAP1 MSTORE PUSH1 0x24 SWAP1 REVERT JUMPDEST DUP4 DUP3 CALLVALUE PUSH2 0x435 JUMPI DUP2 PUSH1 0x3 NOT CALLDATASIZE ADD SLT PUSH2 0x435 JUMPI PUSH1 0x20 SWAP1 PUSH2 0x42E PUSH2 0x1A4E JUMP JUMPDEST SWAP1 MLOAD SWAP1 DUP2 MSTORE RETURN JUMPDEST POP DUP1 REVERT JUMPDEST DUP4 DUP3 CALLVALUE PUSH2 0x435 JUMPI DUP2 PUSH1 0x3 NOT CALLDATASIZE ADD SLT PUSH2 0x435 JUMPI PUSH1 0x20 SWAP1 MLOAD PUSH3 0x186A0 DUP2 MSTORE RETURN JUMPDEST DUP4 DUP3 CALLVALUE PUSH2 0x435 JUMPI DUP1 PUSH1 0x3 NOT CALLDATASIZE ADD SLT PUSH2 0x435 JUMPI DUP1 PUSH1 0x20 SWAP3 PUSH2 0x475 PUSH2 0x16BF JUMP JUMPDEST PUSH2 0x47D PUSH2 0x16DA JUMP JUMPDEST PUSH1 0x1 PUSH1 0x1 PUSH1 0xA0 SHL SUB SWAP2 DUP3 AND DUP4 MSTORE PUSH1 0x1 DUP7 MSTORE DUP4 DUP4 KECCAK256 SWAP2 AND DUP3 MSTORE DUP5 MSTORE KECCAK256 SLOAD SWAP1 MLOAD SWAP1 DUP2 MSTORE RETURN JUMPDEST DUP4 DUP3 CALLVALUE PUSH2 0x435 JUMPI DUP2 PUSH1 0x3 NOT CALLDATASIZE ADD SLT PUSH2 0x435 JUMPI PUSH1 0x20 SWAP1 PUSH1 0xE SLOAD SWAP1 MLOAD SWAP1 DUP2 MSTORE RETURN JUMPDEST DUP4 DUP3 CALLVALUE PUSH2 0x435 JUMPI DUP2 PUSH1 0x3 NOT CALLDATASIZE ADD SLT PUSH2 0x435 JUMPI PUSH1 0x14 SLOAD SWAP1 MLOAD PUSH1 0x1 PUSH1 0x1 PUSH1 0xA0 SHL SUB SWAP1 SWAP2 AND DUP2 MSTORE PUSH1 0x20 SWAP1 RETURN JUMPDEST POP CALLVALUE PUSH2 0x37D JUMPI PUSH2 0x4F7 CALLDATASIZE PUSH2 0x1728 JUMP JUMPDEST SWAP3 PUSH2 0x500 PUSH2 0x1A2B JUMP JUMPDEST PUSH2 0x50F PUSH1 0xFF PUSH1 0x10 SLOAD AND ISZERO PUSH2 0x186B JUMP JUMPDEST PUSH2 0x51A DUP3 ISZERO ISZERO PUSH2 0x18B7 JUMP JUMPDEST CALLER DUP6 MSTORE PUSH1 0x20 SWAP5 DUP1 DUP7 MSTORE DUP3 DUP5 DUP3 KECCAK256 SLOAD LT PUSH2 0x80D JUMPI DUP4 MLOAD PUSH4 0x23B872DD PUSH1 0xE0 SHL DUP2 MSTORE CALLER DUP4 DUP3 ADD SWAP1 DUP2 MSTORE ADDRESS PUSH1 0x20 DUP3 ADD MSTORE PUSH1 0x40 DUP2 ADD DUP6 SWAP1 MSTORE DUP8 SWAP1 DUP3 SWAP1 DUP2 SWAP1 PUSH1 0x60 ADD SUB DUP2 DUP6 ADDRESS GAS CALL SWAP1 DUP2 ISZERO PUSH2 0x803 JUMPI SWAP1 PUSH2 0x575 SWAP2 DUP4 SWAP2 PUSH2 0x7E6 JUMPI JUMPDEST POP PUSH2 0x199B JUMP JUMPDEST PUSH2 0x58A PUSH2 0x581 DUP5 PUSH2 0x1AE5 JUMP JUMPDEST SWAP6 DUP7 LT ISZERO PUSH2 0x191B JUMP JUMPDEST PUSH2 0x320 SWAP2 DUP3 DUP7 MUL SWAP3 DUP7 DUP5 DIV EQ DUP7 ISZERO OR ISZERO PUSH2 0x7D3 JUMPI PUSH3 0x186A0 DUP1 SWAP4 DIV SWAP3 PUSH1 0x64 DUP5 MUL DUP5 DUP2 DIV PUSH1 0x64 EQ DUP6 ISZERO OR ISZERO PUSH2 0x7C0 JUMPI DIV SWAP3 PUSH2 0x5C4 SWAP1 DUP8 PUSH2 0x198E JUMP JUMPDEST SWAP1 PUSH2 0x5D1 DUP8 PUSH1 0x9 SLOAD PUSH2 0x198E JUMP JUMPDEST PUSH1 0x9 SSTORE PUSH2 0x5E0 DUP6 PUSH1 0xA SLOAD PUSH2 0x1848 JUMP JUMPDEST PUSH1 0xA SSTORE PUSH2 0x5EF DUP3 PUSH1 0xB SLOAD PUSH2 0x198E JUMP JUMPDEST PUSH1 0xB SSTORE PUSH2 0x5FE DUP6 PUSH1 0xC SLOAD PUSH2 0x1848 JUMP JUMPDEST PUSH1 0xC SSTORE PUSH1 0x7 SLOAD DUP7 MLOAD PUSH4 0xA9059CBB PUSH1 0xE0 SHL DUP1 DUP3 MSTORE CALLER DUP3 DUP6 ADD SWAP1 DUP2 MSTORE PUSH1 0x20 DUP2 ADD SWAP6 SWAP1 SWAP6 MSTORE SWAP4 PUSH1 0x1 PUSH1 0x1 PUSH1 0xA0 SHL SUB SWAP4 SWAP3 DUP12 SWAP2 DUP4 SWAP2 DUP7 AND SWAP1 DUP3 SWAP1 DUP10 SWAP1 DUP3 SWAP1 PUSH1 0x40 ADD SUB SWAP3 GAS CALL SWAP1 DUP2 ISZERO PUSH2 0x7B6 JUMPI DUP6 SWAP2 PUSH2 0x799 JUMPI JUMPDEST POP ISZERO PUSH2 0x756 JUMPI SWAP1 DUP9 SWAP3 SWAP2 DUP6 PUSH2 0x6B3 JUMPI JUMPDEST POP POP POP POP POP PUSH32 0x483F8AEC0FD892AC72AD1BA8D0E9C9E73DB59C12D263FD71DE480B5B3DEEAE3C SWAP1 PUSH2 0x68C PUSH2 0x1A4E JUMP JUMPDEST DUP5 MLOAD SWAP4 DUP5 MSTORE PUSH1 0x20 DUP5 ADD DUP7 SWAP1 MSTORE PUSH1 0x40 DUP5 ADD MSTORE PUSH1 0x60 DUP4 ADD MSTORE CALLER SWAP2 PUSH1 0x80 SWAP1 LOG2 PUSH1 0x1 PUSH1 0x6 SSTORE MLOAD SWAP1 DUP2 MSTORE RETURN JUMPDEST PUSH1 0x7 SLOAD PUSH1 0x8 SLOAD DUP10 MLOAD SWAP5 DUP6 MSTORE DUP4 AND PUSH1 0x1 PUSH1 0x1 PUSH1 0xA0 SHL SUB AND SWAP2 DUP5 ADD SWAP2 DUP3 MSTORE PUSH1 0x20 DUP3 ADD DUP8 SWAP1 MSTORE SWAP3 SWAP4 SWAP3 DUP5 SWAP3 AND SWAP1 DUP3 SWAP1 DUP7 SWAP1 DUP3 SWAP1 PUSH1 0x40 ADD SUB SWAP3 GAS CALL SWAP2 DUP3 ISZERO PUSH2 0x74B JUMPI PUSH32 0x483F8AEC0FD892AC72AD1BA8D0E9C9E73DB59C12D263FD71DE480B5B3DEEAE3C SWAP4 SWAP3 PUSH2 0x724 SWAP3 SWAP1 PUSH2 0x72E JUMPI JUMPDEST POP PUSH2 0x19DF JUMP JUMPDEST SWAP1 DUP6 CODESIZE DUP1 DUP1 PUSH2 0x65D JUMP JUMPDEST PUSH2 0x745 SWAP2 POP DUP9 RETURNDATASIZE DUP11 GT PUSH2 0x2F5 JUMPI PUSH2 0x2E7 DUP2 DUP4 PUSH2 0x16F0 JUMP JUMPDEST CODESIZE PUSH2 0x71E JUMP JUMPDEST DUP6 MLOAD SWAP1 RETURNDATASIZE SWAP1 DUP3 RETURNDATACOPY RETURNDATASIZE SWAP1 REVERT JUMPDEST DUP7 MLOAD PUSH3 0x461BCD PUSH1 0xE5 SHL DUP2 MSTORE SWAP1 DUP2 ADD DUP10 SWAP1 MSTORE PUSH1 0x1A PUSH1 0x24 DUP3 ADD MSTORE PUSH32 0x4261736520746F6B656E207472616E73666572206661696C6564000000000000 PUSH1 0x44 DUP3 ADD MSTORE PUSH1 0x64 SWAP1 REVERT JUMPDEST PUSH2 0x7B0 SWAP2 POP DUP11 RETURNDATASIZE DUP13 GT PUSH2 0x2F5 JUMPI PUSH2 0x2E7 DUP2 DUP4 PUSH2 0x16F0 JUMP JUMPDEST CODESIZE PUSH2 0x64D JUMP JUMPDEST DUP9 MLOAD RETURNDATASIZE DUP8 DUP3 RETURNDATACOPY RETURNDATASIZE SWAP1 REVERT JUMPDEST PUSH4 0x4E487B71 PUSH1 0xE0 SHL DUP5 MSTORE PUSH1 0x11 DUP4 MSTORE PUSH1 0x24 DUP5 REVERT JUMPDEST PUSH4 0x4E487B71 PUSH1 0xE0 SHL DUP3 MSTORE PUSH1 0x11 SWAP1 MSTORE PUSH1 0x24 SWAP1 REVERT JUMPDEST PUSH2 0x7FD SWAP2 POP DUP9 RETURNDATASIZE DUP11 GT PUSH2 0x2F5 JUMPI PUSH2 0x2E7 DUP2 DUP4 PUSH2 0x16F0 JUMP JUMPDEST CODESIZE PUSH2 0x56F JUMP JUMPDEST DUP6 MLOAD RETURNDATASIZE DUP5 DUP3 RETURNDATACOPY RETURNDATASIZE SWAP1 REVERT JUMPDEST DUP4 MLOAD PUSH3 0x461BCD PUSH1 0xE5 SHL DUP2 MSTORE DUP1 DUP4 ADD DUP8 SWAP1 MSTORE PUSH1 0x14 PUSH1 0x24 DUP3 ADD MSTORE PUSH20 0x496E73756666696369656E742062616C616E6365 PUSH1 0x60 SHL PUSH1 0x44 DUP3 ADD MSTORE PUSH1 0x64 SWAP1 REVERT JUMPDEST POP DUP3 SWAP1 CALLVALUE PUSH2 0x435 JUMPI PUSH2 0x858 CALLDATASIZE PUSH2 0x1728 JUMP JUMPDEST SWAP3 PUSH2 0x861 PUSH2 0x1A2B JUMP JUMPDEST PUSH2 0x870 PUSH1 0xFF PUSH1 0x10 SLOAD AND ISZERO PUSH2 0x186B JUMP JUMPDEST DUP2 ISZERO SWAP1 PUSH2 0x87D DUP3 ISZERO PUSH2 0x18B7 JUMP JUMPDEST PUSH1 0x7 SLOAD DUP5 MLOAD PUSH4 0x23B872DD PUSH1 0xE0 SHL DUP2 MSTORE CALLER DUP9 DUP3 ADD SWAP1 DUP2 MSTORE ADDRESS PUSH1 0x20 DUP1 DUP4 ADD SWAP2 SWAP1 SWAP2 MSTORE PUSH1 0x40 DUP3 ADD DUP8 SWAP1 MSTORE SWAP9 SWAP3 PUSH1 0x1 PUSH1 0x1 PUSH1 0xA0 SHL SUB SWAP3 SWAP2 DUP11 SWAP2 DUP4 SWAP2 DUP3 SWAP1 SUB PUSH1 0x60 ADD SWAP1 DUP3 SWAP1 DUP9 SWAP1 DUP8 AND GAS CALL SWAP1 DUP2 ISZERO PUSH2 0xB5F JUMPI DUP5 SWAP2 PUSH2 0xB42 JUMPI JUMPDEST POP ISZERO PUSH2 0xB0D JUMPI PUSH2 0x8EC PUSH2 0x8E3 DUP7 PUSH2 0x1A87 JUMP JUMPDEST SWAP8 DUP9 LT ISZERO PUSH2 0x191B JUMP JUMPDEST PUSH2 0x320 SWAP4 DUP5 DUP7 MUL SWAP5 DUP7 DUP7 DIV EQ OR ISZERO PUSH2 0xAFA JUMPI PUSH3 0x186A0 DUP1 SWAP5 DIV SWAP4 PUSH1 0x64 DUP6 MUL DUP6 DUP2 DIV PUSH1 0x64 EQ DUP7 ISZERO OR ISZERO PUSH2 0xAE7 JUMPI PUSH2 0x94E SWAP2 PUSH2 0x928 SWAP2 DIV SWAP6 DUP8 PUSH2 0x198E JUMP JUMPDEST PUSH2 0x934 DUP8 PUSH1 0x9 SLOAD PUSH2 0x1848 JUMP JUMPDEST PUSH1 0x9 SSTORE PUSH2 0x943 DUP10 PUSH1 0xA SLOAD PUSH2 0x198E JUMP JUMPDEST PUSH1 0xA SSTORE PUSH1 0xB SLOAD PUSH2 0x1848 JUMP JUMPDEST PUSH1 0xB SSTORE PUSH2 0x95D DUP8 PUSH1 0xC SLOAD PUSH2 0x198E JUMP JUMPDEST PUSH1 0xC SSTORE DUP6 MLOAD PUSH4 0xA9059CBB PUSH1 0xE0 SHL DUP1 DUP3 MSTORE CALLER DUP5 DUP4 ADD SWAP1 DUP2 MSTORE PUSH1 0x20 DUP2 ADD DUP11 SWAP1 MSTORE SWAP1 SWAP4 SWAP2 SWAP1 DUP11 SWAP1 DUP3 SWAP1 DUP2 SWAP1 PUSH1 0x40 ADD SUB DUP2 DUP9 ADDRESS GAS CALL SWAP1 DUP2 ISZERO PUSH2 0x7B6 JUMPI DUP11 SWAP5 SWAP4 SWAP3 SWAP2 PUSH2 0x9AA SWAP2 DUP8 SWAP2 PUSH2 0xACA JUMPI POP PUSH2 0x199B JUMP JUMPDEST DUP6 PUSH2 0xA33 JUMPI JUMPDEST POP POP POP POP POP PUSH32 0x64FB1933E186BE0B289A87E98518DC18CC9856ECBC9F1353D1A138DDF733EC5 SWAP1 PUSH2 0x9DF PUSH2 0x1A4E JUMP JUMPDEST DUP5 MLOAD SWAP4 DUP5 MSTORE PUSH1 0x20 DUP5 ADD DUP7 SWAP1 MSTORE PUSH1 0x40 DUP5 ADD MSTORE PUSH1 0x60 DUP4 ADD MSTORE CALLER SWAP2 PUSH1 0x80 SWAP1 LOG2 PUSH1 0xB SLOAD PUSH1 0xF SLOAD GT ISZERO DUP1 PUSH2 0xA26 JUMPI JUMPDEST PUSH2 0xA19 JUMPI JUMPDEST PUSH1 0x1 PUSH1 0x6 SSTORE MLOAD SWAP1 DUP2 MSTORE RETURN JUMPDEST PUSH2 0xA21 PUSH2 0x1B3A JUMP JUMPDEST PUSH2 0xA0E JUMP JUMPDEST POP PUSH1 0xFF PUSH1 0x10 SLOAD AND ISZERO PUSH2 0xA09 JUMP JUMPDEST PUSH1 0x7 SLOAD PUSH1 0x8 SLOAD DUP10 MLOAD SWAP5 DUP6 MSTORE DUP4 AND PUSH1 0x1 PUSH1 0x1 PUSH1 0xA0 SHL SUB AND SWAP2 DUP5 ADD SWAP2 DUP3 MSTORE PUSH1 0x20 DUP3 ADD DUP8 SWAP1 MSTORE SWAP3 SWAP4 SWAP3 DUP5 SWAP3 AND SWAP1 DUP3 SWAP1 DUP7 SWAP1 DUP3 SWAP1 PUSH1 0x40 ADD SUB SWAP3 GAS CALL SWAP2 DUP3 ISZERO PUSH2 0x74B JUMPI PUSH32 0x64FB1933E186BE0B289A87E98518DC18CC9856ECBC9F1353D1A138DDF733EC5 SWAP4 SWAP3 PUSH2 0xAA3 SWAP3 SWAP1 PUSH2 0xAAD JUMPI POP PUSH2 0x19DF JUMP JUMPDEST SWAP1 DUP6 DUP8 DUP1 DUP1 PUSH2 0x9B0 JUMP JUMPDEST PUSH2 0xAC4 SWAP2 POP DUP9 RETURNDATASIZE DUP11 GT PUSH2 0x2F5 JUMPI PUSH2 0x2E7 DUP2 DUP4 PUSH2 0x16F0 JUMP JUMPDEST DUP9 PUSH2 0x71E JUMP JUMPDEST PUSH2 0xAE1 SWAP2 POP DUP7 RETURNDATASIZE DUP9 GT PUSH2 0x2F5 JUMPI PUSH2 0x2E7 DUP2 DUP4 PUSH2 0x16F0 JUMP JUMPDEST DUP13 PUSH2 0x56F JUMP JUMPDEST PUSH4 0x4E487B71 PUSH1 0xE0 SHL DUP6 MSTORE PUSH1 0x11 DUP5 MSTORE PUSH1 0x24 DUP6 REVERT JUMPDEST PUSH4 0x4E487B71 PUSH1 0xE0 SHL DUP4 MSTORE PUSH1 0x11 DUP3 MSTORE PUSH1 0x24 DUP4 REVERT JUMPDEST DUP6 MLOAD PUSH3 0x461BCD PUSH1 0xE5 SHL DUP2 MSTORE DUP1 DUP4 ADD DUP10 SWAP1 MSTORE PUSH1 0xF PUSH1 0x24 DUP3 ADD MSTORE PUSH15 0x151C985B9CD9995C8819985A5B1959 PUSH1 0x8A SHL PUSH1 0x44 DUP3 ADD MSTORE PUSH1 0x64 SWAP1 REVERT JUMPDEST PUSH2 0xB59 SWAP2 POP DUP10 RETURNDATASIZE DUP12 GT PUSH2 0x2F5 JUMPI PUSH2 0x2E7 DUP2 DUP4 PUSH2 0x16F0 JUMP JUMPDEST DUP10 PUSH2 0x8D1 JUMP JUMPDEST DUP8 MLOAD RETURNDATASIZE DUP7 DUP3 RETURNDATACOPY RETURNDATASIZE SWAP1 REVERT JUMPDEST POP SWAP1 CALLVALUE PUSH2 0x37D JUMPI PUSH1 0x20 CALLDATASIZE PUSH1 0x3 NOT ADD SLT PUSH2 0x37D JUMPI PUSH2 0xB84 PUSH2 0x16BF JUMP JUMPDEST SWAP1 PUSH2 0xB8D PUSH2 0x173E JUMP JUMPDEST PUSH1 0x10 SLOAD SWAP3 PUSH1 0xFF DUP5 AND PUSH2 0xBC7 JUMPI POP POP PUSH2 0x100 PUSH1 0x1 PUSH1 0xA8 SHL SUB NOT SWAP1 SWAP2 AND PUSH1 0x8 SWAP2 SWAP1 SWAP2 SHL PUSH2 0x100 PUSH1 0x1 PUSH1 0xA8 SHL SUB AND OR PUSH1 0x10 SSTORE PUSH2 0xBC4 PUSH2 0x1B3A JUMP JUMPDEST DUP1 RETURN JUMPDEST SWAP1 PUSH1 0x20 PUSH1 0x64 SWAP3 MLOAD SWAP2 PUSH3 0x461BCD PUSH1 0xE5 SHL DUP4 MSTORE DUP3 ADD MSTORE PUSH1 0x10 PUSH1 0x24 DUP3 ADD MSTORE PUSH16 0x105B1C9958591E481B5A59DC985D1959 PUSH1 0x82 SHL PUSH1 0x44 DUP3 ADD MSTORE REVERT JUMPDEST DUP4 DUP3 CALLVALUE PUSH2 0x435 JUMPI DUP2 PUSH1 0x3 NOT CALLDATASIZE ADD SLT PUSH2 0x435 JUMPI PUSH1 0x20 SWAP1 MLOAD PUSH1 0x64 DUP2 MSTORE RETURN JUMPDEST DUP4 DUP3 CALLVALUE PUSH2 0x435 JUMPI DUP2 PUSH1 0x3 NOT CALLDATASIZE ADD SLT PUSH2 0x435 JUMPI PUSH1 0x20 SWAP1 PUSH1 0x15 SLOAD SWAP1 MLOAD SWAP1 DUP2 MSTORE RETURN JUMPDEST DUP4 DUP3 CALLVALUE PUSH2 0x435 JUMPI DUP2 PUSH1 0x3 NOT CALLDATASIZE ADD SLT PUSH2 0x435 JUMPI PUSH1 0x7 SLOAD SWAP1 MLOAD PUSH1 0x1 PUSH1 0x1 PUSH1 0xA0 SHL SUB SWAP1 SWAP2 AND DUP2 MSTORE PUSH1 0x20 SWAP1 RETURN JUMPDEST DUP4 DUP3 CALLVALUE PUSH2 0x435 JUMPI DUP2 PUSH1 0x3 NOT CALLDATASIZE ADD SLT PUSH2 0x435 JUMPI PUSH1 0x20 SWAP1 PUSH1 0xC SLOAD SWAP1 MLOAD SWAP1 DUP2 MSTORE RETURN JUMPDEST DUP4 DUP3 CALLVALUE PUSH2 0x435 JUMPI DUP2 PUSH1 0x3 NOT CALLDATASIZE ADD SLT PUSH2 0x435 JUMPI PUSH1 0x20 SWAP1 PUSH1 0xFF PUSH1 0x10 SLOAD AND SWAP1 MLOAD SWAP1 ISZERO ISZERO DUP2 MSTORE RETURN JUMPDEST POP DUP3 CALLVALUE PUSH2 0xCC4 JUMPI PUSH1 0x20 CALLDATASIZE PUSH1 0x3 NOT ADD SLT PUSH2 0xCC4 JUMPI POP PUSH2 0x42E PUSH1 0x20 SWAP3 CALLDATALOAD PUSH2 0x1A87 JUMP JUMPDEST DUP1 REVERT JUMPDEST DUP4 DUP3 CALLVALUE PUSH2 0x435 JUMPI DUP1 PUSH1 0x3 NOT CALLDATASIZE ADD SLT PUSH2 0x435 JUMPI PUSH1 0x20 SWAP1 PUSH2 0xCF1 PUSH2 0xCE7 PUSH2 0x16BF JUMP JUMPDEST PUSH1 0x24 CALLDATALOAD SWAP1 CALLER PUSH2 0x176A JUMP JUMPDEST MLOAD PUSH1 0x1 DUP2 MSTORE RETURN JUMPDEST DUP4 DUP3 CALLVALUE PUSH2 0x435 JUMPI DUP2 PUSH1 0x3 NOT CALLDATASIZE ADD SLT PUSH2 0x435 JUMPI PUSH1 0xD SLOAD SWAP1 MLOAD PUSH1 0x1 PUSH1 0x1 PUSH1 0xA0 SHL SUB SWAP1 SWAP2 AND DUP2 MSTORE PUSH1 0x20 SWAP1 RETURN JUMPDEST POP DUP3 SWAP1 CALLVALUE PUSH2 0x435 JUMPI DUP2 PUSH1 0x3 NOT CALLDATASIZE ADD SLT PUSH2 0x435 JUMPI DUP1 MLOAD SWAP2 DUP1 SWAP4 DUP1 SLOAD SWAP2 PUSH1 0x1 SWAP1 DUP4 DUP3 SHR SWAP3 DUP3 DUP6 AND SWAP5 DUP6 ISZERO PUSH2 0xE1B JUMPI JUMPDEST PUSH1 0x20 SWAP6 DUP7 DUP7 LT DUP2 EQ PUSH2 0xE08 JUMPI DUP6 DUP10 MSTORE SWAP1 DUP2 ISZERO PUSH2 0xDE4 JUMPI POP PUSH1 0x1 EQ PUSH2 0xD8C JUMPI JUMPDEST PUSH2 0xD88 DUP8 DUP8 PUSH2 0xD7E DUP3 DUP13 SUB DUP4 PUSH2 0x16F0 JUMP JUMPDEST MLOAD SWAP2 DUP3 SWAP2 DUP3 PUSH2 0x1676 JUMP JUMPDEST SUB SWAP1 RETURN JUMPDEST DUP2 MSTORE SWAP3 SWAP6 POP PUSH32 0x8A35ACFBC15FF81A39AE7D344FD709F28E8600B4AA8C65C6B64BFE7FE36BD19B JUMPDEST DUP3 DUP5 LT PUSH2 0xDD1 JUMPI POP POP POP DUP3 PUSH2 0xD88 SWAP5 PUSH2 0xD7E SWAP3 DUP3 ADD ADD SWAP5 DUP7 DUP1 PUSH2 0xD6D JUMP JUMPDEST DUP1 SLOAD DUP7 DUP6 ADD DUP9 ADD MSTORE SWAP3 DUP7 ADD SWAP3 DUP2 ADD PUSH2 0xDB3 JUMP JUMPDEST PUSH1 0xFF NOT AND DUP9 DUP8 ADD MSTORE POP POP POP POP ISZERO ISZERO PUSH1 0x5 SHL DUP4 ADD ADD SWAP3 POP PUSH2 0xD7E DUP3 PUSH2 0xD88 DUP7 DUP1 PUSH2 0xD6D JUMP JUMPDEST PUSH4 0x4E487B71 PUSH1 0xE0 SHL DUP5 MSTORE PUSH1 0x22 DUP4 MSTORE PUSH1 0x24 DUP5 REVERT JUMPDEST SWAP4 PUSH1 0x7F AND SWAP4 PUSH2 0xD4E JUMP JUMPDEST DUP4 DUP3 CALLVALUE PUSH2 0x435 JUMPI DUP2 PUSH1 0x3 NOT CALLDATASIZE ADD SLT PUSH2 0x435 JUMPI PUSH1 0x20 SWAP1 PUSH1 0xF SLOAD SWAP1 MLOAD SWAP1 DUP2 MSTORE RETURN JUMPDEST POP DUP3 CALLVALUE PUSH2 0xCC4 JUMPI DUP1 PUSH1 0x3 NOT CALLDATASIZE ADD SLT PUSH2 0xCC4 JUMPI PUSH1 0xC SLOAD SWAP3 PUSH12 0x33B2E3C9FD0803CE8000000 SWAP4 DUP5 SUB SWAP4 DUP5 GT PUSH2 0x7D3 JUMPI PUSH1 0x20 DUP4 PUSH8 0xDE0B6B3A7640000 PUSH2 0xE8F DUP8 PUSH2 0xE89 PUSH2 0x1A4E JUMP JUMPDEST SWAP1 PUSH2 0x195B JUMP JUMPDEST DIV SWAP1 MLOAD SWAP1 DUP2 MSTORE RETURN JUMPDEST DUP4 DUP3 CALLVALUE PUSH2 0x435 JUMPI DUP2 PUSH1 0x3 NOT CALLDATASIZE ADD SLT PUSH2 0x435 JUMPI PUSH1 0x5 SLOAD SWAP1 MLOAD PUSH1 0x1 PUSH1 0x1 PUSH1 0xA0 SHL SUB SWAP1 SWAP2 AND DUP2 MSTORE PUSH1 0x20 SWAP1 RETURN JUMPDEST POP CALLVALUE PUSH2 0x37D JUMPI DUP3 PUSH1 0x3 NOT CALLDATASIZE ADD SLT PUSH2 0x37D JUMPI DUP1 MLOAD SWAP2 DUP4 PUSH1 0x11 SLOAD SWAP1 PUSH1 0x1 SWAP1 DUP3 DUP3 SHR SWAP3 DUP3 DUP2 AND DUP1 ISZERO PUSH2 0xFA9 JUMPI JUMPDEST PUSH1 0x20 SWAP6 DUP7 DUP7 LT DUP3 EQ PUSH2 0xF96 JUMPI POP DUP5 DUP9 MSTORE SWAP1 DUP2 ISZERO PUSH2 0xF74 JUMPI POP PUSH1 0x1 EQ PUSH2 0xF1B JUMPI JUMPDEST PUSH2 0xD88 DUP7 DUP7 PUSH2 0xD7E DUP3 DUP12 SUB DUP4 PUSH2 0x16F0 JUMP JUMPDEST SWAP3 SWAP6 POP PUSH1 0x11 DUP4 MSTORE PUSH32 0x31ECC21A745E3968A04E9570E4425BC18FA8019C68028196B546D1669C200C68 JUMPDEST DUP3 DUP5 LT PUSH2 0xF61 JUMPI POP POP POP DUP3 PUSH2 0xD88 SWAP5 PUSH2 0xD7E SWAP3 DUP3 ADD ADD SWAP5 CODESIZE PUSH2 0xF0A JUMP JUMPDEST DUP1 SLOAD DUP7 DUP6 ADD DUP9 ADD MSTORE SWAP3 DUP7 ADD SWAP3 DUP2 ADD PUSH2 0xF44 JUMP JUMPDEST PUSH1 0xFF NOT AND DUP8 DUP7 ADD MSTORE POP POP POP ISZERO ISZERO PUSH1 0x5 SHL DUP4 ADD ADD SWAP3 POP PUSH2 0xD7E DUP3 PUSH2 0xD88 CODESIZE PUSH2 0xF0A JUMP JUMPDEST PUSH4 0x4E487B71 PUSH1 0xE0 SHL DUP5 MSTORE PUSH1 0x22 SWAP1 MSTORE PUSH1 0x24 DUP4 REVERT JUMPDEST SWAP4 PUSH1 0x7F AND SWAP4 PUSH2 0xEEA JUMP JUMPDEST POP SWAP1 CALLVALUE PUSH2 0x37D JUMPI PUSH1 0x20 CALLDATASIZE PUSH1 0x3 NOT ADD SLT PUSH2 0x37D JUMPI PUSH1 0xD SLOAD DUP2 CALLDATALOAD SWAP3 SWAP1 PUSH1 0x1 PUSH1 0x1 PUSH1 0xA0 SHL SUB AND CALLER SUB PUSH2 0x102D JUMPI DUP3 ISZERO PUSH2 0xFEA JUMPI POP POP PUSH1 0xE SSTORE DUP1 RETURN JUMPDEST SWAP1 PUSH1 0x20 PUSH1 0x64 SWAP3 MLOAD SWAP2 PUSH3 0x461BCD PUSH1 0xE5 SHL DUP4 MSTORE DUP3 ADD MSTORE PUSH1 0x17 PUSH1 0x24 DUP3 ADD MSTORE PUSH32 0x466163746F72206D75737420626520706F736974697665000000000000000000 PUSH1 0x44 DUP3 ADD MSTORE REVERT JUMPDEST SWAP1 PUSH1 0x20 PUSH1 0x64 SWAP3 MLOAD SWAP2 PUSH3 0x461BCD PUSH1 0xE5 SHL DUP4 MSTORE DUP3 ADD MSTORE PUSH1 0x1A PUSH1 0x24 DUP3 ADD MSTORE PUSH32 0x4F6E6C79206F7261636C652063616E2073657420666163746F72000000000000 PUSH1 0x44 DUP3 ADD MSTORE REVERT JUMPDEST DUP4 CALLVALUE PUSH2 0xCC4 JUMPI DUP1 PUSH1 0x3 NOT CALLDATASIZE ADD SLT PUSH2 0xCC4 JUMPI PUSH2 0x1089 PUSH2 0x173E JUMP JUMPDEST PUSH1 0x5 DUP1 SLOAD PUSH1 0x1 PUSH1 0x1 PUSH1 0xA0 SHL SUB NOT DUP2 AND SWAP1 SWAP2 SSTORE DUP2 SWAP1 PUSH1 0x1 PUSH1 0x1 PUSH1 0xA0 SHL SUB AND PUSH32 0x8BE0079C531659141344CD1FD0A4F28419497F9722A3DAAFE3B4186F6B6457E0 DUP3 DUP1 LOG3 DUP1 RETURN JUMPDEST DUP4 DUP3 CALLVALUE PUSH2 0x435 JUMPI PUSH1 0x20 CALLDATASIZE PUSH1 0x3 NOT ADD SLT PUSH2 0x435 JUMPI PUSH1 0x20 SWAP2 DUP2 SWAP1 PUSH1 0x1 PUSH1 0x1 PUSH1 0xA0 SHL SUB PUSH2 0x10F5 PUSH2 0x16BF JUMP JUMPDEST AND DUP2 MSTORE DUP1 DUP5 MSTORE KECCAK256 SLOAD SWAP1 MLOAD SWAP1 DUP2 MSTORE RETURN JUMPDEST POP DUP3 CALLVALUE PUSH2 0xCC4 JUMPI PUSH1 0x20 CALLDATASIZE PUSH1 0x3 NOT ADD SLT PUSH2 0xCC4 JUMPI POP PUSH2 0x42E PUSH1 0x20 SWAP3 CALLDATALOAD PUSH2 0x1AE5 JUMP JUMPDEST DUP4 DUP3 CALLVALUE PUSH2 0x435 JUMPI DUP2 PUSH1 0x3 NOT CALLDATASIZE ADD SLT PUSH2 0x435 JUMPI PUSH1 0x20 SWAP1 PUSH1 0x9 SLOAD SWAP1 MLOAD SWAP1 DUP2 MSTORE RETURN JUMPDEST POP DUP3 CALLVALUE PUSH2 0xCC4 JUMPI DUP1 PUSH1 0x3 NOT CALLDATASIZE ADD SLT PUSH2 0xCC4 JUMPI PUSH1 0xC SLOAD SWAP2 PUSH12 0x295BE96E640669720000000 SWAP2 DUP4 DUP4 SUB SWAP4 DUP4 DUP6 GT PUSH2 0x11A4 JUMPI PUSH1 0x64 DUP6 MUL SWAP5 DUP6 DIV PUSH1 0x64 EQ SWAP1 DUP5 EQ OR ISZERO PUSH2 0x1191 JUMPI POP PUSH1 0x20 SWAP4 POP MLOAD SWAP2 DIV DUP2 MSTORE RETURN JUMPDEST PUSH4 0x4E487B71 PUSH1 0xE0 SHL DUP2 MSTORE PUSH1 0x11 DUP6 MSTORE PUSH1 0x24 SWAP1 REVERT JUMPDEST PUSH4 0x4E487B71 PUSH1 0xE0 SHL DUP3 MSTORE PUSH1 0x11 DUP7 MSTORE PUSH1 0x24 DUP3 REVERT JUMPDEST POP CALLVALUE PUSH2 0x37D JUMPI DUP3 PUSH1 0x3 NOT CALLDATASIZE ADD SLT PUSH2 0x37D JUMPI DUP1 MLOAD SWAP2 DUP4 PUSH1 0x13 SLOAD SWAP1 PUSH1 0x1 SWAP1 DUP3 DUP3 SHR SWAP3 DUP3 DUP2 AND DUP1 ISZERO PUSH2 0x126A JUMPI JUMPDEST PUSH1 0x20 SWAP6 DUP7 DUP7 LT DUP3 EQ PUSH2 0xF96 JUMPI POP DUP5 DUP9 MSTORE SWAP1 DUP2 ISZERO PUSH2 0xF74 JUMPI POP PUSH1 0x1 EQ PUSH2 0x1211 JUMPI PUSH2 0xD88 DUP7 DUP7 PUSH2 0xD7E DUP3 DUP12 SUB DUP4 PUSH2 0x16F0 JUMP JUMPDEST SWAP3 SWAP6 POP PUSH1 0x13 DUP4 MSTORE PUSH32 0x66DE8FFDA797E3DE9C05E8FC57B3BF0EC28A930D40B0D285D93C06501CF6A090 JUMPDEST DUP3 DUP5 LT PUSH2 0x1257 JUMPI POP POP POP DUP3 PUSH2 0xD88 SWAP5 PUSH2 0xD7E SWAP3 DUP3 ADD ADD SWAP5 CODESIZE PUSH2 0xF0A JUMP JUMPDEST DUP1 SLOAD DUP7 DUP6 ADD DUP9 ADD MSTORE SWAP3 DUP7 ADD SWAP3 DUP2 ADD PUSH2 0x123A JUMP JUMPDEST SWAP4 PUSH1 0x7F AND SWAP4 PUSH2 0x11E1 JUMP JUMPDEST DUP4 DUP3 CALLVALUE PUSH2 0x435 JUMPI DUP2 PUSH1 0x3 NOT CALLDATASIZE ADD SLT PUSH2 0x435 JUMPI PUSH1 0x10 SLOAD SWAP1 MLOAD PUSH1 0x8 SWAP2 SWAP1 SWAP2 SHR PUSH1 0x1 PUSH1 0x1 PUSH1 0xA0 SHL SUB AND DUP2 MSTORE PUSH1 0x20 SWAP1 RETURN JUMPDEST DUP4 DUP3 CALLVALUE PUSH2 0x435 JUMPI DUP2 PUSH1 0x3 NOT CALLDATASIZE ADD SLT PUSH2 0x435 JUMPI PUSH1 0x8 SLOAD SWAP1 MLOAD PUSH1 0x1 PUSH1 0x1 PUSH1 0xA0 SHL SUB SWAP1 SWAP2 AND DUP2 MSTORE PUSH1 0x20 SWAP1 RETURN JUMPDEST DUP4 DUP3 CALLVALUE PUSH2 0x435 JUMPI DUP2 PUSH1 0x3 NOT CALLDATASIZE ADD SLT PUSH2 0x435 JUMPI PUSH1 0x20 SWAP1 PUSH1 0xA SLOAD SWAP1 MLOAD SWAP1 DUP2 MSTORE RETURN JUMPDEST DUP4 DUP3 CALLVALUE PUSH2 0x435 JUMPI DUP2 PUSH1 0x3 NOT CALLDATASIZE ADD SLT PUSH2 0x435 JUMPI PUSH1 0x20 SWAP1 MLOAD PUSH1 0x12 DUP2 MSTORE RETURN JUMPDEST POP CALLVALUE PUSH2 0x37D JUMPI DUP3 PUSH1 0x3 NOT CALLDATASIZE ADD SLT PUSH2 0x37D JUMPI DUP1 MLOAD SWAP2 DUP4 PUSH1 0x12 SLOAD SWAP1 PUSH1 0x1 SWAP1 DUP3 DUP3 SHR SWAP3 DUP3 DUP2 AND DUP1 ISZERO PUSH2 0x13B8 JUMPI JUMPDEST PUSH1 0x20 SWAP6 DUP7 DUP7 LT DUP3 EQ PUSH2 0xF96 JUMPI POP DUP5 DUP9 MSTORE SWAP1 DUP2 ISZERO PUSH2 0xF74 JUMPI POP PUSH1 0x1 EQ PUSH2 0x135F JUMPI PUSH2 0xD88 DUP7 DUP7 PUSH2 0xD7E DUP3 DUP12 SUB DUP4 PUSH2 0x16F0 JUMP JUMPDEST SWAP3 SWAP6 POP PUSH1 0x12 DUP4 MSTORE PUSH32 0xBB8A6A4669BA250D26CD7A459ECA9D215F8307E33AEBE50379BC5A3617EC3444 JUMPDEST DUP3 DUP5 LT PUSH2 0x13A5 JUMPI POP POP POP DUP3 PUSH2 0xD88 SWAP5 PUSH2 0xD7E SWAP3 DUP3 ADD ADD SWAP5 CODESIZE PUSH2 0xF0A JUMP JUMPDEST DUP1 SLOAD DUP7 DUP6 ADD DUP9 ADD MSTORE SWAP3 DUP7 ADD SWAP3 DUP2 ADD PUSH2 0x1388 JUMP JUMPDEST SWAP4 PUSH1 0x7F AND SWAP4 PUSH2 0x132F JUMP JUMPDEST POP SWAP2 CALLVALUE PUSH2 0xCC4 JUMPI PUSH1 0x60 CALLDATASIZE PUSH1 0x3 NOT ADD SLT PUSH2 0xCC4 JUMPI PUSH2 0x13DD PUSH2 0x16BF JUMP JUMPDEST PUSH2 0x13E5 PUSH2 0x16DA JUMP JUMPDEST SWAP2 PUSH1 0x44 CALLDATALOAD SWAP4 PUSH1 0x1 DUP1 PUSH1 0xA0 SHL SUB DUP4 AND DUP1 DUP4 MSTORE PUSH1 0x1 PUSH1 0x20 MSTORE DUP7 DUP4 KECCAK256 CALLER DUP5 MSTORE PUSH1 0x20 MSTORE DUP7 DUP4 KECCAK256 SLOAD SWAP2 PUSH1 0x0 NOT DUP4 LT PUSH2 0x1421 JUMPI JUMPDEST PUSH1 0x20 DUP9 PUSH2 0xCF1 DUP10 DUP10 DUP10 PUSH2 0x176A JUMP JUMPDEST DUP7 DUP4 LT PUSH2 0x1489 JUMPI DUP2 ISZERO PUSH2 0x1472 JUMPI CALLER ISZERO PUSH2 0x145B JUMPI POP DUP3 MSTORE PUSH1 0x1 PUSH1 0x20 SWAP1 DUP2 MSTORE DUP7 DUP4 KECCAK256 CALLER DUP5 MSTORE DUP2 MSTORE SWAP2 DUP7 SWAP1 KECCAK256 SWAP1 DUP6 SWAP1 SUB SWAP1 SSTORE DUP3 SWAP1 PUSH2 0xCF1 CODESIZE PUSH2 0x1413 JUMP JUMPDEST DUP8 MLOAD PUSH4 0x4A1406B1 PUSH1 0xE1 SHL DUP2 MSTORE SWAP1 DUP2 ADD DUP5 SWAP1 MSTORE PUSH1 0x24 SWAP1 REVERT JUMPDEST DUP8 MLOAD PUSH4 0xE602DF05 PUSH1 0xE0 SHL DUP2 MSTORE SWAP1 DUP2 ADD DUP5 SWAP1 MSTORE PUSH1 0x24 SWAP1 REVERT JUMPDEST DUP8 MLOAD PUSH4 0x7DC7A0D9 PUSH1 0xE1 SHL DUP2 MSTORE CALLER SWAP2 DUP2 ADD SWAP2 DUP3 MSTORE PUSH1 0x20 DUP3 ADD SWAP4 SWAP1 SWAP4 MSTORE PUSH1 0x40 DUP2 ADD DUP8 SWAP1 MSTORE DUP3 SWAP2 POP PUSH1 0x60 ADD SUB SWAP1 REVERT JUMPDEST DUP4 DUP3 CALLVALUE PUSH2 0x435 JUMPI DUP2 PUSH1 0x3 NOT CALLDATASIZE ADD SLT PUSH2 0x435 JUMPI PUSH1 0x20 SWAP1 PUSH1 0x2 SLOAD SWAP1 MLOAD SWAP1 DUP2 MSTORE RETURN JUMPDEST DUP4 DUP3 CALLVALUE PUSH2 0x435 JUMPI DUP2 PUSH1 0x3 NOT CALLDATASIZE ADD SLT PUSH2 0x435 JUMPI PUSH1 0x20 SWAP1 PUSH1 0xB SLOAD SWAP1 MLOAD SWAP1 DUP2 MSTORE RETURN JUMPDEST POP SWAP1 CALLVALUE PUSH2 0x37D JUMPI DUP2 PUSH1 0x3 NOT CALLDATASIZE ADD SLT PUSH2 0x37D JUMPI PUSH2 0x150D PUSH2 0x16BF JUMP JUMPDEST PUSH1 0x24 CALLDATALOAD SWAP1 CALLER ISZERO PUSH2 0x1586 JUMPI PUSH1 0x1 PUSH1 0x1 PUSH1 0xA0 SHL SUB AND SWAP2 DUP3 ISZERO PUSH2 0x156F JUMPI POP DUP1 DUP4 PUSH1 0x20 SWAP6 CALLER DUP2 MSTORE PUSH1 0x1 DUP8 MSTORE DUP2 DUP2 KECCAK256 DUP6 DUP3 MSTORE DUP8 MSTORE KECCAK256 SSTORE DUP3 MLOAD SWAP1 DUP2 MSTORE PUSH32 0x8C5BE1E5EBEC7D5BD14F71427D1E84F3DD0314C0F7B2291E5B200AC8C7C3B925 DUP5 CALLER SWAP3 LOG3 MLOAD PUSH1 0x1 DUP2 MSTORE RETURN JUMPDEST DUP4 MLOAD PUSH4 0x4A1406B1 PUSH1 0xE1 SHL DUP2 MSTORE SWAP1 DUP2 ADD DUP6 SWAP1 MSTORE PUSH1 0x24 SWAP1 REVERT JUMPDEST DUP4 MLOAD PUSH4 0xE602DF05 PUSH1 0xE0 SHL DUP2 MSTORE DUP1 DUP5 ADD DUP7 SWAP1 MSTORE PUSH1 0x24 SWAP1 REVERT JUMPDEST POP CALLVALUE PUSH2 0x37D JUMPI DUP3 PUSH1 0x3 NOT CALLDATASIZE ADD SLT PUSH2 0x37D JUMPI DUP1 MLOAD SWAP2 DUP4 PUSH1 0x3 SLOAD SWAP1 PUSH1 0x1 SWAP1 DUP3 DUP3 SHR SWAP3 DUP3 DUP2 AND DUP1 ISZERO PUSH2 0x1650 JUMPI JUMPDEST PUSH1 0x20 SWAP6 DUP7 DUP7 LT DUP3 EQ PUSH2 0xF96 JUMPI POP DUP5 DUP9 MSTORE SWAP1 DUP2 ISZERO PUSH2 0xF74 JUMPI POP PUSH1 0x1 EQ PUSH2 0x15F7 JUMPI PUSH2 0xD88 DUP7 DUP7 PUSH2 0xD7E DUP3 DUP12 SUB DUP4 PUSH2 0x16F0 JUMP JUMPDEST SWAP3 SWAP6 POP PUSH1 0x3 DUP4 MSTORE PUSH32 0xC2575A0E9E593C00F959F8C92F12DB2869C3395A3B0502D05E2516446F71F85B JUMPDEST DUP3 DUP5 LT PUSH2 0x163D JUMPI POP POP POP DUP3 PUSH2 0xD88 SWAP5 PUSH2 0xD7E SWAP3 DUP3 ADD ADD SWAP5 CODESIZE PUSH2 0xF0A JUMP JUMPDEST DUP1 SLOAD DUP7 DUP6 ADD DUP9 ADD MSTORE SWAP3 DUP7 ADD SWAP3 DUP2 ADD PUSH2 0x1620 JUMP JUMPDEST SWAP4 PUSH1 0x7F AND SWAP4 PUSH2 0x15C7 JUMP JUMPDEST DUP5 SWAP1 CALLVALUE PUSH2 0x435 JUMPI DUP2 PUSH1 0x3 NOT CALLDATASIZE ADD SLT PUSH2 0x435 JUMPI DUP1 PUSH2 0x320 PUSH1 0x20 SWAP3 MSTORE RETURN JUMPDEST PUSH1 0x20 DUP1 DUP3 MSTORE DUP3 MLOAD DUP2 DUP4 ADD DUP2 SWAP1 MSTORE SWAP1 SWAP4 SWAP3 PUSH1 0x0 JUMPDEST DUP3 DUP2 LT PUSH2 0x16AB JUMPI POP POP PUSH1 0x40 SWAP3 SWAP4 POP PUSH1 0x0 DUP4 DUP3 DUP5 ADD ADD MSTORE PUSH1 0x1F DUP1 NOT SWAP2 ADD AND ADD ADD SWAP1 JUMP JUMPDEST DUP2 DUP2 ADD DUP7 ADD MLOAD DUP5 DUP3 ADD PUSH1 0x40 ADD MSTORE DUP6 ADD PUSH2 0x1689 JUMP JUMPDEST PUSH1 0x4 CALLDATALOAD SWAP1 PUSH1 0x1 PUSH1 0x1 PUSH1 0xA0 SHL SUB DUP3 AND DUP3 SUB PUSH2 0x16D5 JUMPI JUMP JUMPDEST PUSH1 0x0 DUP1 REVERT JUMPDEST PUSH1 0x24 CALLDATALOAD SWAP1 PUSH1 0x1 PUSH1 0x1 PUSH1 0xA0 SHL SUB DUP3 AND DUP3 SUB PUSH2 0x16D5 JUMPI JUMP JUMPDEST SWAP1 PUSH1 0x1F DUP1 NOT SWAP2 ADD AND DUP2 ADD SWAP1 DUP2 LT PUSH8 0xFFFFFFFFFFFFFFFF DUP3 GT OR PUSH2 0x1712 JUMPI PUSH1 0x40 MSTORE JUMP JUMPDEST PUSH4 0x4E487B71 PUSH1 0xE0 SHL PUSH1 0x0 MSTORE PUSH1 0x41 PUSH1 0x4 MSTORE PUSH1 0x24 PUSH1 0x0 REVERT JUMPDEST PUSH1 0x40 SWAP1 PUSH1 0x3 NOT ADD SLT PUSH2 0x16D5 JUMPI PUSH1 0x4 CALLDATALOAD SWAP1 PUSH1 0x24 CALLDATALOAD SWAP1 JUMP JUMPDEST PUSH1 0x5 SLOAD PUSH1 0x1 PUSH1 0x1 PUSH1 0xA0 SHL SUB AND CALLER SUB PUSH2 0x1752 JUMPI JUMP JUMPDEST PUSH1 0x40 MLOAD PUSH4 0x118CDAA7 PUSH1 0xE0 SHL DUP2 MSTORE CALLER PUSH1 0x4 DUP3 ADD MSTORE PUSH1 0x24 SWAP1 REVERT JUMPDEST SWAP2 PUSH1 0x1 PUSH1 0x1 PUSH1 0xA0 SHL SUB DUP1 DUP5 AND SWAP3 DUP4 ISZERO PUSH2 0x182F JUMPI AND SWAP3 DUP4 ISZERO PUSH2 0x1816 JUMPI PUSH1 0x0 SWAP1 DUP4 DUP3 MSTORE DUP2 PUSH1 0x20 MSTORE PUSH1 0x40 DUP3 KECCAK256 SLOAD SWAP1 DUP4 DUP3 LT PUSH2 0x17E4 JUMPI POP SWAP2 PUSH1 0x40 DUP3 DUP3 PUSH32 0xDDF252AD1BE2C89B69C2B068FC378DAA952BA7F163C4A11628F55A4DF523B3EF SWAP6 DUP8 PUSH1 0x20 SWAP7 MSTORE DUP3 DUP7 MSTORE SUB DUP3 DUP3 KECCAK256 SSTORE DUP7 DUP2 MSTORE KECCAK256 DUP2 DUP2 SLOAD ADD SWAP1 SSTORE PUSH1 0x40 MLOAD SWAP1 DUP2 MSTORE LOG3 JUMP JUMPDEST PUSH1 0x40 MLOAD PUSH4 0x391434E3 PUSH1 0xE2 SHL DUP2 MSTORE PUSH1 0x1 PUSH1 0x1 PUSH1 0xA0 SHL SUB SWAP2 SWAP1 SWAP2 AND PUSH1 0x4 DUP3 ADD MSTORE PUSH1 0x24 DUP2 ADD SWAP2 SWAP1 SWAP2 MSTORE PUSH1 0x44 DUP2 ADD DUP4 SWAP1 MSTORE PUSH1 0x64 SWAP1 REVERT JUMPDEST PUSH1 0x40 MLOAD PUSH4 0xEC442F05 PUSH1 0xE0 SHL DUP2 MSTORE PUSH1 0x0 PUSH1 0x4 DUP3 ADD MSTORE PUSH1 0x24 SWAP1 REVERT JUMPDEST PUSH1 0x40 MLOAD PUSH4 0x4B637E8F PUSH1 0xE1 SHL DUP2 MSTORE PUSH1 0x0 PUSH1 0x4 DUP3 ADD MSTORE PUSH1 0x24 SWAP1 REVERT JUMPDEST SWAP2 SWAP1 DUP3 ADD DUP1 SWAP3 GT PUSH2 0x1855 JUMPI JUMP JUMPDEST PUSH4 0x4E487B71 PUSH1 0xE0 SHL PUSH1 0x0 MSTORE PUSH1 0x11 PUSH1 0x4 MSTORE PUSH1 0x24 PUSH1 0x0 REVERT JUMPDEST ISZERO PUSH2 0x1872 JUMPI JUMP JUMPDEST PUSH1 0x40 MLOAD PUSH3 0x461BCD PUSH1 0xE5 SHL DUP2 MSTORE PUSH1 0x20 PUSH1 0x4 DUP3 ADD MSTORE PUSH1 0x19 PUSH1 0x24 DUP3 ADD MSTORE PUSH32 0x546F6B656E20686173206D6967726174656420746F20414D4D00000000000000 PUSH1 0x44 DUP3 ADD MSTORE PUSH1 0x64 SWAP1 REVERT JUMPDEST ISZERO PUSH2 0x18BE JUMPI JUMP JUMPDEST PUSH1 0x40 MLOAD PUSH3 0x461BCD PUSH1 0xE5 SHL DUP2 MSTORE PUSH1 0x20 PUSH1 0x4 DUP3 ADD MSTORE PUSH1 0x1D PUSH1 0x24 DUP3 ADD MSTORE PUSH32 0x416D6F756E74206D7573742062652067726561746572207468616E2030000000 PUSH1 0x44 DUP3 ADD MSTORE PUSH1 0x64 SWAP1 REVERT JUMPDEST SWAP1 DUP2 PUSH1 0x20 SWAP2 SUB SLT PUSH2 0x16D5 JUMPI MLOAD DUP1 ISZERO ISZERO DUP2 SUB PUSH2 0x16D5 JUMPI SWAP1 JUMP JUMPDEST ISZERO PUSH2 0x1922 JUMPI JUMP JUMPDEST PUSH1 0x40 MLOAD PUSH3 0x461BCD PUSH1 0xE5 SHL DUP2 MSTORE PUSH1 0x20 PUSH1 0x4 DUP3 ADD MSTORE PUSH1 0x11 PUSH1 0x24 DUP3 ADD MSTORE PUSH17 0x14DB1A5C1C1859D948195E18D959591959 PUSH1 0x7A SHL PUSH1 0x44 DUP3 ADD MSTORE PUSH1 0x64 SWAP1 REVERT JUMPDEST DUP2 DUP2 MUL SWAP3 SWAP2 DUP2 ISZERO SWAP2 DUP5 DIV EQ OR ISZERO PUSH2 0x1855 JUMPI JUMP JUMPDEST DUP2 ISZERO PUSH2 0x1978 JUMPI DIV SWAP1 JUMP JUMPDEST PUSH4 0x4E487B71 PUSH1 0xE0 SHL PUSH1 0x0 MSTORE PUSH1 0x12 PUSH1 0x4 MSTORE PUSH1 0x24 PUSH1 0x0 REVERT JUMPDEST SWAP2 SWAP1 DUP3 SUB SWAP2 DUP3 GT PUSH2 0x1855 JUMPI JUMP JUMPDEST ISZERO PUSH2 0x19A2 JUMPI JUMP JUMPDEST PUSH1 0x40 MLOAD PUSH3 0x461BCD PUSH1 0xE5 SHL DUP2 MSTORE PUSH1 0x20 PUSH1 0x4 DUP3 ADD MSTORE PUSH1 0x15 PUSH1 0x24 DUP3 ADD MSTORE PUSH21 0x151BDAD95B881D1C985B9CD9995C8819985A5B1959 PUSH1 0x5A SHL PUSH1 0x44 DUP3 ADD MSTORE PUSH1 0x64 SWAP1 REVERT JUMPDEST ISZERO PUSH2 0x19E6 JUMPI JUMP JUMPDEST PUSH1 0x40 MLOAD PUSH3 0x461BCD PUSH1 0xE5 SHL DUP2 MSTORE PUSH1 0x20 PUSH1 0x4 DUP3 ADD MSTORE PUSH1 0x1B PUSH1 0x24 DUP3 ADD MSTORE PUSH32 0x466F756E64657220666565207472616E73666572206661696C65640000000000 PUSH1 0x44 DUP3 ADD MSTORE PUSH1 0x64 SWAP1 REVERT JUMPDEST PUSH1 0x2 PUSH1 0x6 SLOAD EQ PUSH2 0x1A3C JUMPI PUSH1 0x2 PUSH1 0x6 SSTORE JUMP JUMPDEST PUSH1 0x40 MLOAD PUSH4 0x3EE5AEB5 PUSH1 0xE0 SHL DUP2 MSTORE PUSH1 0x4 SWAP1 REVERT JUMPDEST PUSH1 0xA SLOAD DUP1 ISZERO PUSH2 0x1A81 JUMPI PUSH1 0x9 SLOAD SWAP1 PUSH8 0xDE0B6B3A7640000 SWAP2 DUP3 DUP2 MUL SWAP3 DUP2 DUP5 DIV EQ SWAP1 ISZERO OR ISZERO PUSH2 0x1855 JUMPI PUSH2 0x1A7E SWAP2 PUSH2 0x196E JUMP JUMPDEST SWAP1 JUMP JUMPDEST POP PUSH1 0x0 SWAP1 JUMP JUMPDEST PUSH2 0x320 DUP1 DUP3 MUL SWAP1 DUP3 DUP3 DIV EQ DUP3 ISZERO OR ISZERO PUSH2 0x1855 JUMPI PUSH2 0x1ADF PUSH2 0x1AB1 PUSH2 0x1A7E SWAP4 PUSH3 0x186A0 DUP1 SWAP5 DIV SWAP1 PUSH2 0x198E JUMP JUMPDEST SWAP2 PUSH2 0x1AC1 PUSH1 0x9 SLOAD PUSH1 0xE SLOAD SWAP1 PUSH2 0x195B JUMP JUMPDEST DIV PUSH2 0x1AD9 PUSH1 0xA SLOAD SWAP4 PUSH2 0x1AD3 DUP6 DUP5 PUSH2 0x195B JUMP JUMPDEST SWAP3 PUSH2 0x1848 JUMP JUMPDEST SWAP1 PUSH2 0x196E JUMP JUMPDEST SWAP1 PUSH2 0x198E JUMP JUMPDEST PUSH2 0x1B1B PUSH2 0x1B02 SWAP2 PUSH2 0x1ADF PUSH1 0x9 SLOAD PUSH3 0x186A0 SWAP5 DUP6 SWAP2 PUSH1 0xE SLOAD SWAP1 PUSH2 0x195B JUMP JUMPDEST DIV SWAP2 PUSH2 0x1AD9 PUSH1 0xA SLOAD SWAP2 PUSH2 0x1B15 DUP4 DUP7 PUSH2 0x195B JUMP JUMPDEST SWAP3 PUSH2 0x198E JUMP JUMPDEST PUSH2 0x320 SWAP2 DUP3 DUP3 MUL SWAP3 DUP3 DUP5 DIV EQ DUP3 ISZERO OR ISZERO PUSH2 0x1855 JUMPI PUSH2 0x1A7E SWAP3 DIV SWAP1 PUSH2 0x198E JUMP JUMPDEST PUSH1 0x1 PUSH1 0xFF NOT PUSH1 0x10 SLOAD AND OR PUSH1 0x10 SSTORE PUSH1 0x0 PUSH32 0xF6FDF93B05193F30E8B24877E5C9F6FF7C3548E03F1174D73AE6FE90B67DB003 PUSH1 0x60 PUSH1 0xB SLOAD PUSH1 0xC SLOAD PUSH1 0x40 MLOAD SWAP2 DUP3 MSTORE PUSH1 0x20 DUP3 ADD MSTORE TIMESTAMP PUSH1 0x40 DUP3 ADD MSTORE LOG2 JUMP INVALID LOG1 PUSH5 0x736F6C6343 STOP ADDMOD EQ STOP EXP 0xBB DUP11 PUSH11 0x4669BA250D26CD7A459ECA SWAP14 0x21 PUSH0 DUP4 SMOD 0xE3 GASPRICE 0xEB 0xE5 SUB PUSH26 0xBC5A3617EC344431ECC21A745E3968A04E9570E4425BC18FA801 SWAP13 PUSH9 0x28196B546D1669C20 0xC PUSH9 0x66DE8FFDA797E3DE9C SDIV 0xE8 0xFC JUMPI 0xB3 0xBF 0xE 0xC2 DUP11 SWAP4 0xD BLOCKHASH 0xB0 0xD2 DUP6 0xD9 EXTCODECOPY MOD POP SHR 0xF6 LOG0 SWAP1 "},"methodIdentifiers":{"BASIS_POINTS()":"e1f1c4a7","FEE_PERCENTAGE()":"000b46f8","FOUNDER_FEE_PERCENTAGE()":"d1ca1428","allowance(address,address)":"dd62ed3e","ammAddress()":"4837e204","approve(address,uint256)":"095ea7b3","balanceOf(address)":"70a08231","baseToken()":"c55dae63","buy(uint256,uint256)":"d6febde8","createdAt()":"cf09e0d0","decimals()":"313ce567","dynamicFactor()":"dcc75682","founderAddress()":"46bb2833","getBaseAmountForTokenAmount(uint256)":"6cebb0d8","getBondingCurveProgress()":"67558d46","getCurrentPrice()":"eb91d37e","getMarketCap()":"90825c28","getTokenAmountForBaseAmount(uint256)":"aff93df8","isMigrated()":"b06faf62","migrationThreshold()":"90bc1e85","name()":"06fdde03","oracleAddress()":"a89ae4ba","owner()":"8da5cb5b","realBaseReserve()":"0b1bba24","realTokenReserve()":"b7cb1b13","renounceOwnership()":"715018a6","sell(uint256,uint256)":"d79875eb","setDynamicFactor(uint256)":"718cb46a","symbol()":"95d89b41","tokenCreator()":"db84252c","tokenDescription()":"25e6f516","tokenImageUrl()":"4aeb5c09","tokenSymbol()":"7b61c320","totalSupply()":"18160ddd","transfer(address,uint256)":"a9059cbb","transferFrom(address,address,uint256)":"23b872dd","transferOwnership(address)":"f2fde38b","triggerMigrationManual(address)":"d6fdd920","virtualBaseReserve()":"6c569f21","virtualTokenReserve()":"343ee3b7","withdrawAfterMigration()":"ffa685cf"}}}}}