{"src/contracts/SmartTicket.sol":{"SmartTicket":{"abi":[{"inputs":[{"internalType":"string","name":"name","type":"string"},{"internalType":"string","name":"symbol","type":"string"},{"internalType":"string","name":"_baseURI","type":"string"},{"internalType":"address","name":"_royaltyReceiver","type":"address"},{"internalType":"uint96","name":"_royaltyPercentage","type":"uint96"}],"stateMutability":"nonpayable","type":"constructor"},{"inputs":[{"internalType":"uint256","name":"numerator","type":"uint256"},{"internalType":"uint256","name":"denominator","type":"uint256"}],"name":"ERC2981InvalidDefaultRoyalty","type":"error"},{"inputs":[{"internalType":"address","name":"receiver","type":"address"}],"name":"ERC2981InvalidDefaultRoyaltyReceiver","type":"error"},{"inputs":[{"internalType":"uint256","name":"tokenId","type":"uint256"},{"internalType":"uint256","name":"numerator","type":"uint256"},{"internalType":"uint256","name":"denominator","type":"uint256"}],"name":"ERC2981InvalidTokenRoyalty","type":"error"},{"inputs":[{"internalType":"uint256","name":"tokenId","type":"uint256"},{"internalType":"address","name":"receiver","type":"address"}],"name":"ERC2981InvalidTokenRoyaltyReceiver","type":"error"},{"inputs":[],"name":"ERC721EnumerableForbiddenBatchMint","type":"error"},{"inputs":[{"internalType":"address","name":"sender","type":"address"},{"internalType":"uint256","name":"tokenId","type":"uint256"},{"internalType":"address","name":"owner","type":"address"}],"name":"ERC721IncorrectOwner","type":"error"},{"inputs":[{"internalType":"address","name":"operator","type":"address"},{"internalType":"uint256","name":"tokenId","type":"uint256"}],"name":"ERC721InsufficientApproval","type":"error"},{"inputs":[{"internalType":"address","name":"approver","type":"address"}],"name":"ERC721InvalidApprover","type":"error"},{"inputs":[{"internalType":"address","name":"operator","type":"address"}],"name":"ERC721InvalidOperator","type":"error"},{"inputs":[{"internalType":"address","name":"owner","type":"address"}],"name":"ERC721InvalidOwner","type":"error"},{"inputs":[{"internalType":"address","name":"receiver","type":"address"}],"name":"ERC721InvalidReceiver","type":"error"},{"inputs":[{"internalType":"address","name":"sender","type":"address"}],"name":"ERC721InvalidSender","type":"error"},{"inputs":[{"internalType":"uint256","name":"tokenId","type":"uint256"}],"name":"ERC721NonexistentToken","type":"error"},{"inputs":[{"internalType":"address","name":"owner","type":"address"},{"internalType":"uint256","name":"index","type":"uint256"}],"name":"ERC721OutOfBoundsIndex","type":"error"},{"inputs":[{"internalType":"address","name":"owner","type":"address"}],"name":"OwnableInvalidOwner","type":"error"},{"inputs":[{"internalType":"address","name":"account","type":"address"}],"name":"OwnableUnauthorizedAccount","type":"error"},{"anonymous":false,"inputs":[{"indexed":true,"internalType":"address","name":"owner","type":"address"},{"indexed":true,"internalType":"address","name":"approved","type":"address"},{"indexed":true,"internalType":"uint256","name":"tokenId","type":"uint256"}],"name":"Approval","type":"event"},{"anonymous":false,"inputs":[{"indexed":true,"internalType":"address","name":"owner","type":"address"},{"indexed":true,"internalType":"address","name":"operator","type":"address"},{"indexed":false,"internalType":"bool","name":"approved","type":"bool"}],"name":"ApprovalForAll","type":"event"},{"anonymous":false,"inputs":[{"indexed":true,"internalType":"address","name":"previousOwner","type":"address"},{"indexed":true,"internalType":"address","name":"newOwner","type":"address"}],"name":"OwnershipTransferred","type":"event"},{"anonymous":false,"inputs":[{"indexed":true,"internalType":"address","name":"receiver","type":"address"},{"indexed":false,"internalType":"uint96","name":"percentage","type":"uint96"}],"name":"RoyaltyUpdated","type":"event"},{"anonymous":false,"inputs":[{"indexed":true,"internalType":"uint256","name":"tokenId","type":"uint256"},{"indexed":true,"internalType":"address","name":"to","type":"address"},{"indexed":false,"internalType":"string","name":"uri","type":"string"}],"name":"TicketMinted","type":"event"},{"anonymous":false,"inputs":[{"indexed":true,"internalType":"address","name":"from","type":"address"},{"indexed":true,"internalType":"address","name":"to","type":"address"},{"indexed":true,"internalType":"uint256","name":"tokenId","type":"uint256"}],"name":"Transfer","type":"event"},{"inputs":[{"internalType":"address","name":"to","type":"address"},{"internalType":"uint256","name":"tokenId","type":"uint256"}],"name":"approve","outputs":[],"stateMutability":"nonpayable","type":"function"},{"inputs":[{"internalType":"address","name":"owner","type":"address"}],"name":"balanceOf","outputs":[{"internalType":"uint256","name":"","type":"uint256"}],"stateMutability":"view","type":"function"},{"inputs":[],"name":"baseURI","outputs":[{"internalType":"string","name":"","type":"string"}],"stateMutability":"view","type":"function"},{"inputs":[{"internalType":"uint256","name":"tokenId","type":"uint256"}],"name":"getApproved","outputs":[{"internalType":"address","name":"","type":"address"}],"stateMutability":"view","type":"function"},{"inputs":[],"name":"getNextTokenId","outputs":[{"internalType":"uint256","name":"","type":"uint256"}],"stateMutability":"view","type":"function"},{"inputs":[{"internalType":"address","name":"owner","type":"address"},{"internalType":"address","name":"operator","type":"address"}],"name":"isApprovedForAll","outputs":[{"internalType":"bool","name":"","type":"bool"}],"stateMutability":"view","type":"function"},{"inputs":[{"internalType":"address","name":"to","type":"address"}],"name":"mint","outputs":[{"internalType":"uint256","name":"","type":"uint256"}],"stateMutability":"nonpayable","type":"function"},{"inputs":[{"internalType":"address","name":"to","type":"address"},{"internalType":"uint256","name":"quantity","type":"uint256"}],"name":"mintBatch","outputs":[{"internalType":"uint256[]","name":"","type":"uint256[]"}],"stateMutability":"nonpayable","type":"function"},{"inputs":[],"name":"name","outputs":[{"internalType":"string","name":"","type":"string"}],"stateMutability":"view","type":"function"},{"inputs":[],"name":"owner","outputs":[{"internalType":"address","name":"","type":"address"}],"stateMutability":"view","type":"function"},{"inputs":[{"internalType":"uint256","name":"tokenId","type":"uint256"}],"name":"ownerOf","outputs":[{"internalType":"address","name":"","type":"address"}],"stateMutability":"view","type":"function"},{"inputs":[],"name":"renounceOwnership","outputs":[],"stateMutability":"nonpayable","type":"function"},{"inputs":[{"internalType":"uint256","name":"tokenId","type":"uint256"},{"internalType":"uint256","name":"salePrice","type":"uint256"}],"name":"royaltyInfo","outputs":[{"internalType":"address","name":"receiver","type":"address"},{"internalType":"uint256","name":"amount","type":"uint256"}],"stateMutability":"view","type":"function"},{"inputs":[],"name":"royaltyPercentage","outputs":[{"internalType":"uint96","name":"","type":"uint96"}],"stateMutability":"view","type":"function"},{"inputs":[],"name":"royaltyReceiver","outputs":[{"internalType":"address","name":"","type":"address"}],"stateMutability":"view","type":"function"},{"inputs":[{"internalType":"address","name":"from","type":"address"},{"internalType":"address","name":"to","type":"address"},{"internalType":"uint256","name":"tokenId","type":"uint256"}],"name":"safeTransferFrom","outputs":[],"stateMutability":"nonpayable","type":"function"},{"inputs":[{"internalType":"address","name":"from","type":"address"},{"internalType":"address","name":"to","type":"address"},{"internalType":"uint256","name":"tokenId","type":"uint256"},{"internalType":"bytes","name":"data","type":"bytes"}],"name":"safeTransferFrom","outputs":[],"stateMutability":"nonpayable","type":"function"},{"inputs":[{"internalType":"address","name":"operator","type":"address"},{"internalType":"bool","name":"approved","type":"bool"}],"name":"setApprovalForAll","outputs":[],"stateMutability":"nonpayable","type":"function"},{"inputs":[{"internalType":"string","name":"_baseURI","type":"string"}],"name":"setBaseURI","outputs":[],"stateMutability":"nonpayable","type":"function"},{"inputs":[{"internalType":"address","name":"receiver","type":"address"},{"internalType":"uint96","name":"percentage","type":"uint96"}],"name":"setRoyalty","outputs":[],"stateMutability":"nonpayable","type":"function"},{"inputs":[{"internalType":"bytes4","name":"interfaceId","type":"bytes4"}],"name":"supportsInterface","outputs":[{"internalType":"bool","name":"","type":"bool"}],"stateMutability":"view","type":"function"},{"inputs":[],"name":"symbol","outputs":[{"internalType":"string","name":"","type":"string"}],"stateMutability":"view","type":"function"},{"inputs":[{"internalType":"uint256","name":"index","type":"uint256"}],"name":"tokenByIndex","outputs":[{"internalType":"uint256","name":"","type":"uint256"}],"stateMutability":"view","type":"function"},{"inputs":[{"internalType":"address","name":"owner","type":"address"},{"internalType":"uint256","name":"index","type":"uint256"}],"name":"tokenOfOwnerByIndex","outputs":[{"internalType":"uint256","name":"","type":"uint256"}],"stateMutability":"view","type":"function"},{"inputs":[{"internalType":"uint256","name":"tokenId","type":"uint256"}],"name":"tokenURI","outputs":[{"internalType":"string","name":"","type":"string"}],"stateMutability":"view","type":"function"},{"inputs":[],"name":"totalSupply","outputs":[{"internalType":"uint256","name":"","type":"uint256"}],"stateMutability":"view","type":"function"},{"inputs":[{"internalType":"address","name":"from","type":"address"},{"internalType":"address","name":"to","type":"address"},{"internalType":"uint256","name":"tokenId","type":"uint256"}],"name":"transferFrom","outputs":[],"stateMutability":"nonpayable","type":"function"},{"inputs":[{"internalType":"address","name":"newOwner","type":"address"}],"name":"transferOwnership","outputs":[],"stateMutability":"nonpayable","type":"function"}],"evm":{"bytecode":{"linkReferences":{},"object":"604060808152346200055f576200212d803803806200001e8162000564565b928339810160a0828203126200055f5781516001600160401b0392908381116200055f5782620000509183016200058a565b92602091828101518281116200055f57846200006e9183016200058a565b9386820151908382116200055f57620000899183016200058a565b60608201516001600160a01b0380821697909390918890036200055f57608001516001600160601b038116969092908784036200055f5782518681116200026857600254906001948583811c9316801562000554575b8a84101462000378578190601f93848111620004fd575b508a90848311600114620004915760009262000485575b5050600019600383901b1c191690851b176002555b815187811162000268576003928354908682811c921680156200047a575b8b8310146200037857818484931162000424575b508a90848311600114620003bd57600092620003b1575b505060001982851b1c191690851b1782555b33156200039957600c80546001600160a01b03198082163390811790935597167f8be0079c531659141344cd1fd0a4f28419497f9722a3daafe3b4186f6b6457e0600080a383600d558251928784116200026857600e548581811c911680156200038e575b8a82101462000378578281116200032c575b5088918411600114620002bf57938394918492600095620002b3575b50501b92600019911b1c191617600e555b60a01b1684179384600f5561271080851162000296575080156200027e5785519182870190811183821017620002685786528152015260005551611b309081620005fd8239f35b634e487b7160e01b600052604160045260246000fd5b8551635b6cc80560e11b815260006004820152602490fd5b84604491885191636f483d0960e01b835260048301526024820152fd5b01519350388062000210565b9190601f19841692600e600052848a6000209460005b8c89838310620003145750505010620002f9575b50505050811b01600e5562000221565b01519060f884600019921b161c1916905538808080620002e9565b868601518955909701969485019488935001620002d5565b600e600052896000208380870160051c8201928c88106200036e575b0160051c019086905b82811062000361575050620001f4565b6000815501869062000351565b9250819262000348565b634e487b7160e01b600052602260045260246000fd5b90607f1690620001e2565b8a51631e4fbdf760e01b815260006004820152602490fd5b0151905038806200016b565b60008681528c8120899550929190601f198516908e5b8282106200040c5750508411620003f3575b505050811b0182556200017d565b015160001983871b60f8161c19169055388080620003e5565b8385015186558b979095019493840193018e620003d3565b909150846000528a6000208480850160051c8201928d861062000470575b918991869594930160051c01915b8281106200046057505062000154565b6000815585945089910162000450565b9250819262000442565b91607f169162000140565b0151905038806200010d565b90879350601f1983169160026000528c600020928d6000905b828210620004e55750508411620004cb575b505050811b0160025562000122565b015160001960f88460031b161c19169055388080620004bc565b8385015186558b979095019493840193018e620004aa565b90915060026000528a6000208480850160051c8201928d86106200054a575b918991869594930160051c01915b8281106200053a575050620000f6565b600081558594508991016200052a565b925081926200051c565b92607f1692620000df565b600080fd5b6040519190601f01601f191682016001600160401b038111838210176200026857604052565b919080601f840112156200055f5782516001600160401b0381116200026857602090620005c0601f8201601f1916830162000564565b928184528282870101116200055f5760005b818110620005e857508260009394955001015290565b8581018301518482018401528201620005d256fe6080604081815260048036101561001557600080fd5b600092833560e01c90816301ffc9a714610e6d5750806306fdde0314610dc3578063081812fc14610d87578063095ea7b314610ca557806318160ddd14610c8657806323b872dd14610c6e578063248b71fc14610b345780632a55205a14610a945780632f745c5914610a1057806342842e0e146109e15780634f6ccce71461098d57806355f804b3146108105780636352211e146107df5780636a6278421461075e5780636c0360eb146106c657806370a0823114610699578063715018a61461063c5780638a71bb2d1461061a5780638da5cb5b146105f15780638f2fc60b146104b257806395d89b41146103cd5780639fbc8713146103a4578063a22cb46514610303578063b88d4fde14610290578063c87b56dd14610255578063caa0f92a14610236578063e985e9c5146101e45763f2fde38b1461015757600080fd5b346101e05760203660031901126101e057610170610f55565b9061017961109c565b6001600160a01b039182169283156101ca575050600c54826001600160601b0360a01b821617600c55167f8be0079c531659141344cd1fd0a4f28419497f9722a3daafe3b4186f6b6457e08380a380f35b51631e4fbdf760e01b8152908101849052602490fd5b8280fd5b50503461023257806003193601126102325760ff81602093610204610f55565b61020c610f70565b6001600160a01b0391821683526007875283832091168252855220549151911615158152f35b5080fd5b505034610232578160031936011261023257602090600d549051908152f35b50913461028d57602036600319011261028d5750610276610289923561191e565b9051918291602083526020830190610f30565b0390f35b80fd5b838234610232576080366003190112610232576102ab610f55565b6102b3610f70565b6044359060643567ffffffffffffffff81116102ff57366023820112156102ff576102fc948160246102ea9336930135910161102b565b926102f6838383611101565b33611450565b80f35b8580fd5b5090346101e057806003193601126101e05761031d610f55565b90602435918215158093036103a0576001600160a01b031692831561038b5750338452600760205280842083855260205280842060ff1981541660ff8416179055519081527f17307eab39ab6107e8899845ad3d59bd9653f200f220920489ca2b5937696c3160203392a380f35b836024925191630b61174360e31b8352820152fd5b8480fd5b505034610232578160031936011261023257600f5490516001600160a01b039091168152602090f35b505034610232578160031936011261023257805190826003546103ef81611062565b8085529160019180831690811561048a575060011461042d575b50505061041b82610289940383610fed565b51918291602083526020830190610f30565b9450600385527fc2575a0e9e593c00f959f8c92f12db2869c3395a3b0502d05e2516446f71f85b5b8286106104725750505061041b8260206102899582010194610409565b80546020878701810191909152909501948101610455565b61028997508693506020925061041b94915060ff191682840152151560051b82010194610409565b5090346101e057806003193601126101e0576104cc610f55565b90602435926001600160601b038416928385036102ff576104eb61109c565b6001600160a01b03169384156105bb5761271084116105825760a01b6001600160a01b0319168417600f819055825190918184019067ffffffffffffffff82118383101761056f57509184602085937f8039bd6e4e7dba001c8840eb2e118d9d131246faa7d0d04335f7305127ec0b1097958297528881520152865551908152a280f35b634e487b7160e01b885260419052602487fd5b506020606492519162461bcd60e51b835282015260136024820152720a0cae4c6cadce8c2ceca40e8dede40d0d2ced606b1b6044820152fd5b506020606492519162461bcd60e51b8352820152601060248201526f24b73b30b634b2103932b1b2b4bb32b960811b6044820152fd5b505034610232578160031936011261023257600c5490516001600160a01b039091168152602090f35b505034610232578160031936011261023257602090600f5460a01c9051908152f35b833461028d578060031936011261028d5761065561109c565b600c80546001600160a01b0319811690915581906001600160a01b03167f8be0079c531659141344cd1fd0a4f28419497f9722a3daafe3b4186f6b6457e08280a380f35b505034610232576020366003190112610232576020906106bf6106ba610f55565b6110c8565b9051908152f35b50503461023257816003193601126102325780519082600e546106e881611062565b8085529160019180831690811561048a57506001146107135750505061041b82610289940383610fed565b9450600e8552600080516020611b048339815191525b8286106107465750505061041b8260206102899582010194610409565b80546020878701810191909152909501948101610729565b505034610232576020366003190112610232578060209261077d610f55565b61078561109c565b7f01fe50c1ea65ec45d727411cce4e6ac546a4cc83120dc5d887b7949347bfe728600d549485926107b58461159e565b600d556107c284826115c3565b8151888152888101959095526001600160a01b031693a351908152f35b50913461028d57602036600319011261028d57506107ff602092356113c8565b90516001600160a01b039091168152f35b50823461028d576020806003193601126102325767ffffffffffffffff908335828111610989573660238201121561098957610855903690602481880135910161102b565b9361085e61109c565b84519283116109765750610873600e54611062565b601f8111610926575b5080601f83116001146108b7575082938293926108ac575b50508160011b916000199060031b1c191617600e5580f35b015190508380610894565b600e8452601f19831694600080516020611b04833981519152929185905b87821061090e5750508360019596106108f5575b505050811b01600e5580f35b015160001960f88460031b161c191690558380806108e9565b806001859682949686015181550195019301906108d5565b600e8452600080516020611b04833981519152601f840160051c81019183851061096c575b601f0160051c01905b818110610961575061087c565b848155600101610954565b909150819061094b565b634e487b7160e01b845260419052602483fd5b8380fd5b50346101e05760203660031901126101e057803592600a548410156109c6576020836109b886611403565b91905490519160031b1c8152f35b6044939192519263295f44f760e21b84528301526024820152fd5b505034610232576102fc906109f536610f86565b91925192610a0284610fbb565b8584526102f6838383611101565b50913461028d578160031936011261028d57610a2a610f55565b9260243590610a38856110c8565b821015610a6857506001600160a01b03909316815260086020908152828220938252928352819020549051908152f35b925163295f44f760e21b81526001600160a01b0390941692840192835260208301525081906040010390fd5b50913461028d578160031936011261028d5782358152600160205281812054602435926001600160a01b0380831693919260a01c908415610b1b575b506001600160601b031693848102948186041490151715610b085781516001600160a01b038416815261271085046020820152604090f35b634e487b7160e01b815260118552602490fd5b8254908116945060a01c90506001600160601b03610ad0565b508290346102325782600319360112610232579190610b51610f55565b906024938435610b5f61109c565b610b6881611906565b91610b7586519384610fed565b818352610b8182611906565b6020978489019691601f19013688376001600160a01b03821692865b858110610be55750505050505083519485948186019282875251809352850193925b828110610bce57505050500390f35b835185528695509381019392810192600101610bbf565b600d9a979698999a805490610bf98261159e565b9055610c0581866115c3565b8951821015610c5c579085827f01fe50c1ea65ec45d727411cce4e6ac546a4cc83120dc5d887b7949347bfe7288e610c51958d8f8760051b0101528c8c825191808352820152a361159e565b999897959699610b9d565b634e487b7160e01b8852603283528388fd5b833461028d576102fc610c8036610f86565b91611101565b505034610232578160031936011261023257602090600a549051908152f35b5090346101e057806003193601126101e057610cbf610f55565b9160243590610ccd826113c8565b9033151580610d74575b80610d4b575b610d3457506001600160a01b039384169382918591167f8c5be1e5ebec7d5bd14f71427d1e84f3dd0314c0f7b2291e5b200ac8c7c3b9258780a483526006602052822080546001600160a01b031916909117905580f35b60249084519063a9fbf51f60e01b82523390820152fd5b506001600160a01b03821686526007602090815284872033885290528386205460ff1615610cdd565b506001600160a01b038216331415610cd7565b50346101e05760203660031901126101e0579160209235610da7816113c8565b508152600683528190205490516001600160a01b039091168152f35b50503461023257816003193601126102325780519082600254610de581611062565b8085529160019180831690811561048a5750600114610e105750505061041b82610289940383610fed565b9450600285527f405787fa12a823e0f2b7631cc41b3ba8828b3321ca811111fa75cd3aa3bb5ace5b828610610e555750505061041b8260206102899582010194610409565b80546020878701810191909152909501948101610e38565b925050346101e05760203660031901126101e0573563ffffffff60e01b81168091036101e0576020925063780e9d6360e01b8114908115610eb0575b5015158152f35b6380ac58cd60e01b811491508115610efc575b8115610ed1575b5038610ea9565b63152a902d60e11b811491508115610eeb575b5038610eca565b6301ffc9a760e01b14905038610ee4565b635b5e139f60e01b81149150610ec3565b60005b838110610f205750506000910152565b8181015183820152602001610f10565b90602091610f4981518092818552858086019101610f0d565b601f01601f1916010190565b600435906001600160a01b0382168203610f6b57565b600080fd5b602435906001600160a01b0382168203610f6b57565b6060906003190112610f6b576001600160a01b03906004358281168103610f6b57916024359081168103610f6b579060443590565b6020810190811067ffffffffffffffff821117610fd757604052565b634e487b7160e01b600052604160045260246000fd5b90601f8019910116810190811067ffffffffffffffff821117610fd757604052565b67ffffffffffffffff8111610fd757601f01601f191660200190565b9291926110378261100f565b916110456040519384610fed565b829481845281830111610f6b578281602093846000960137010152565b90600182811c92168015611092575b602083101461107c57565b634e487b7160e01b600052602260045260246000fd5b91607f1691611071565b600c546001600160a01b031633036110b057565b60405163118cdaa760e01b8152336004820152602490fd5b6001600160a01b031680156110e857600052600560205260406000205490565b6040516322718ad960e21b815260006004820152602490fd5b6001600160a01b0382811693919084156113af57600091838352600495602093878552604094848683205416973315158061131d575b50881580156112ea575b84845260058352878420805460010190558884528a835287842080546001600160a01b0319168617905588858b7fddf252ad1be2c89b69c2b068fc378daa952ba7f163c4a11628f55a4df523b3ef8780a41561127e57600a54888452600b83528088852055600160401b81101561126b57886111c68260016111df9401600a55611403565b90919082549060031b91821b91600019901b1916179055565b83890361121a575b5050505016908184036111fb575050505050565b516364283d7b60e01b8152938401526024830152604482015260649150fd5b611223906110c8565b6000198101939084116112585782916009918894526008815283832085845281528884842055888352522055388080806111e7565b634e487b7160e01b835260118a52602483fd5b634e487b7160e01b845260418b52602484fd5b8884146111df5761128e896110c8565b8884526009835287842054908a855260088452888520918181036112c8575b508985526009845284898120558452825282878120556111df565b81865282855289862054818752808b88205586526009855289862055386112ad565b600089815260066020526040902080546001600160a01b0319169055898452600583528784208054600019019055611141565b8061136e575b1561132e5738611137565b878a888b61134b57916024925191637e27328960e01b8352820152fd5b5163177e802f60e01b815233918101918252602082019290925281906040010390fd5b503389148015611393575b806113235750878352600682523386888520541614611323565b5088835260078252868320338452825260ff8784205416611379565b604051633250574960e11b815260006004820152602490fd5b6000818152600460205260409020546001600160a01b03169081156113eb575090565b60249060405190637e27328960e01b82526004820152fd5b600a5481101561143a57600a6000527fc65a7bb8d6351c1cf70c95a316cc6a92839c986682d98bc35f958f4883f9d2a80190600090565b634e487b7160e01b600052603260045260246000fd5b90939192833b611462575b5050505050565b604051630a85bd0160e11b8082526001600160a01b0393841660048301529583166024820152604481019190915260806064820152949216926020929185906114af906084830190610f30565b039483816000978189895af186918161155a575b50611524575050503d60001461151b573d6114dd8161100f565b906114eb6040519283610fed565b81528093823d92013e5b8251928361151657604051633250574960e11b815260048101849052602490fd5b019050fd5b606092506114f5565b919450915063ffffffff60e01b16036115425750388080808061145b565b60249060405190633250574960e11b82526004820152fd5b9091508481813d8311611597575b6115728183610fed565b8101031261159357516001600160e01b0319811681036115935790386114c3565b8680fd5b503d611568565b60001981146115ad5760010190565b634e487b7160e01b600052601160045260246000fd5b6040908151916115d283610fbb565b6000808452936001600160a01b03938385169384156118ee579082917fddf252ad1be2c89b69c2b068fc378daa952ba7f163c4a11628f55a4df523b3ef93885260049688878786828c60209a8b978289528588205416968792831596600588159b8c6118bc575b878552528220805460010190558582528d528d812080546001600160a01b0319168517905580a41561184c5750600a54858b52600b875280888c2055600160401b8110156118395790611697866111c68460018d9601600a55611403565b036117ed575b6117d6573b6116b0575b50505050505050565b826116ee91859697989994955180938192630a85bd0160e11b96878452338d8501528d60248501526044840152608060648401526084830190610f30565b03818b8a5af1889181611792575b5061175b575050503d600014611752573d6117168161100f565b9061172384519283610fed565b81528095823d92013e5b8451948561174c57505051633250574960e11b81529182015260249150fd5b85925001fd5b6060945061172d565b919650915063ffffffff60e01b160361177d57505050388080808080806116a7565b51633250574960e11b81529182015260249150fd5b9091508481813d83116117cf575b6117aa8183610fed565b810103126117cb57516001600160e01b0319811681036117cb5790386116fc565b8880fd5b503d6117a0565b84516339e3563760e11b8152808801899052602490fd5b6117f6826110c8565b600019810190811161182657878a5260088652868a20818b52865284878b2055848a5260098652868a205561169d565b634e487b7160e01b8a526011895260248afd5b634e487b7160e01b8b5260418a5260248bfd5b90808214611697578a61185e826110c8565b878252600989528982205483835260088a528a8084209383830361189a575b905089915052600989528c8a8120558c5287528a88812055611697565b838152848c52818120548382528083832055815260098c522055388a8e61187d565b600089815260066020526040902080546001600160a01b03191690558685528181528285208054600019019055611639565b8351633250574960e11b815260048101889052602490fd5b67ffffffffffffffff8111610fd75760051b60200190565b611927816113c8565b50600e549061193582611062565b15611a185761194390611a2d565b604051809260009061195481611062565b906001908181169081156119f357506001146119a4575b505090602082611986856005956119a1975194859201610f0d565b0164173539b7b760d91b815203601a19810184520182610fed565b90565b600e6000908152919250600080516020611b048339815191525b8383106119d85750505081016020908101906119a161196b565b805460208489018101919091528795509092019181016119be565b60ff19166020808701919091528315159093028501830193506119a1915061196b9050565b5050604051611a2681610fbb565b6000815290565b8015611ad457600081805b611ac05750611a468161100f565b90611a546040519283610fed565b808252601f19611a638261100f565b013660208401375b80928015611ab95760001982019182116115ad578193600a9260309084840682018092116115ad578551111561143a5760f81b6001600160f81b03191660001a908401601f01530491611a6b565b5050905090565b90611acc600a9161159e565b910480611a38565b506040516040810181811067ffffffffffffffff821117610fd75760405260018152600360fc1b60208201529056febb7b4a454dc3493923482f07822329ed19e8244eff582cc204f8554c3620c3fda164736f6c6343000814000a","opcodes":"PUSH1 0x40 PUSH1 0x80 DUP2 MSTORE CALLVALUE PUSH3 0x55F JUMPI PUSH3 0x212D DUP1 CODESIZE SUB DUP1 PUSH3 0x1E DUP2 PUSH3 0x564 JUMP JUMPDEST SWAP3 DUP4 CODECOPY DUP2 ADD PUSH1 0xA0 DUP3 DUP3 SUB SLT PUSH3 0x55F JUMPI DUP2 MLOAD PUSH1 0x1 PUSH1 0x1 PUSH1 0x40 SHL SUB SWAP3 SWAP1 DUP4 DUP2 GT PUSH3 0x55F JUMPI DUP3 PUSH3 0x50 SWAP2 DUP4 ADD PUSH3 0x58A JUMP JUMPDEST SWAP3 PUSH1 0x20 SWAP2 DUP3 DUP2 ADD MLOAD DUP3 DUP2 GT PUSH3 0x55F JUMPI DUP5 PUSH3 0x6E SWAP2 DUP4 ADD PUSH3 0x58A JUMP JUMPDEST SWAP4 DUP7 DUP3 ADD MLOAD SWAP1 DUP4 DUP3 GT PUSH3 0x55F JUMPI PUSH3 0x89 SWAP2 DUP4 ADD PUSH3 0x58A JUMP JUMPDEST PUSH1 0x60 DUP3 ADD MLOAD PUSH1 0x1 PUSH1 0x1 PUSH1 0xA0 SHL SUB DUP1 DUP3 AND SWAP8 SWAP1 SWAP4 SWAP1 SWAP2 DUP9 SWAP1 SUB PUSH3 0x55F JUMPI PUSH1 0x80 ADD MLOAD PUSH1 0x1 PUSH1 0x1 PUSH1 0x60 SHL SUB DUP2 AND SWAP7 SWAP1 SWAP3 SWAP1 DUP8 DUP5 SUB PUSH3 0x55F JUMPI DUP3 MLOAD DUP7 DUP2 GT PUSH3 0x268 JUMPI PUSH1 0x2 SLOAD SWAP1 PUSH1 0x1 SWAP5 DUP6 DUP4 DUP2 SHR SWAP4 AND DUP1 ISZERO PUSH3 0x554 JUMPI JUMPDEST DUP11 DUP5 LT EQ PUSH3 0x378 JUMPI DUP2 SWAP1 PUSH1 0x1F SWAP4 DUP5 DUP2 GT PUSH3 0x4FD JUMPI JUMPDEST POP DUP11 SWAP1 DUP5 DUP4 GT PUSH1 0x1 EQ PUSH3 0x491 JUMPI PUSH1 0x0 SWAP3 PUSH3 0x485 JUMPI JUMPDEST POP POP PUSH1 0x0 NOT PUSH1 0x3 DUP4 SWAP1 SHL SHR NOT AND SWAP1 DUP6 SHL OR PUSH1 0x2 SSTORE JUMPDEST DUP2 MLOAD DUP8 DUP2 GT PUSH3 0x268 JUMPI PUSH1 0x3 SWAP3 DUP4 SLOAD SWAP1 DUP7 DUP3 DUP2 SHR SWAP3 AND DUP1 ISZERO PUSH3 0x47A JUMPI JUMPDEST DUP12 DUP4 LT EQ PUSH3 0x378 JUMPI DUP2 DUP5 DUP5 SWAP4 GT PUSH3 0x424 JUMPI JUMPDEST POP DUP11 SWAP1 DUP5 DUP4 GT PUSH1 0x1 EQ PUSH3 0x3BD JUMPI PUSH1 0x0 SWAP3 PUSH3 0x3B1 JUMPI JUMPDEST POP POP PUSH1 0x0 NOT DUP3 DUP6 SHL SHR NOT AND SWAP1 DUP6 SHL OR DUP3 SSTORE JUMPDEST CALLER ISZERO PUSH3 0x399 JUMPI PUSH1 0xC DUP1 SLOAD PUSH1 0x1 PUSH1 0x1 PUSH1 0xA0 SHL SUB NOT DUP1 DUP3 AND CALLER SWAP1 DUP2 OR SWAP1 SWAP4 SSTORE SWAP8 AND PUSH32 0x8BE0079C531659141344CD1FD0A4F28419497F9722A3DAAFE3B4186F6B6457E0 PUSH1 0x0 DUP1 LOG3 DUP4 PUSH1 0xD SSTORE DUP3 MLOAD SWAP3 DUP8 DUP5 GT PUSH3 0x268 JUMPI PUSH1 0xE SLOAD DUP6 DUP2 DUP2 SHR SWAP2 AND DUP1 ISZERO PUSH3 0x38E JUMPI JUMPDEST DUP11 DUP3 LT EQ PUSH3 0x378 JUMPI DUP3 DUP2 GT PUSH3 0x32C JUMPI JUMPDEST POP DUP9 SWAP2 DUP5 GT PUSH1 0x1 EQ PUSH3 0x2BF JUMPI SWAP4 DUP4 SWAP5 SWAP2 DUP5 SWAP3 PUSH1 0x0 SWAP6 PUSH3 0x2B3 JUMPI JUMPDEST POP POP SHL SWAP3 PUSH1 0x0 NOT SWAP2 SHL SHR NOT AND OR PUSH1 0xE SSTORE JUMPDEST PUSH1 0xA0 SHL AND DUP5 OR SWAP4 DUP5 PUSH1 0xF SSTORE PUSH2 0x2710 DUP1 DUP6 GT PUSH3 0x296 JUMPI POP DUP1 ISZERO PUSH3 0x27E JUMPI DUP6 MLOAD SWAP2 DUP3 DUP8 ADD SWAP1 DUP2 GT DUP4 DUP3 LT OR PUSH3 0x268 JUMPI DUP7 MSTORE DUP2 MSTORE ADD MSTORE PUSH1 0x0 SSTORE MLOAD PUSH2 0x1B30 SWAP1 DUP2 PUSH3 0x5FD DUP3 CODECOPY RETURN JUMPDEST PUSH4 0x4E487B71 PUSH1 0xE0 SHL PUSH1 0x0 MSTORE PUSH1 0x41 PUSH1 0x4 MSTORE PUSH1 0x24 PUSH1 0x0 REVERT JUMPDEST DUP6 MLOAD PUSH4 0x5B6CC805 PUSH1 0xE1 SHL DUP2 MSTORE PUSH1 0x0 PUSH1 0x4 DUP3 ADD MSTORE PUSH1 0x24 SWAP1 REVERT JUMPDEST DUP5 PUSH1 0x44 SWAP2 DUP9 MLOAD SWAP2 PUSH4 0x6F483D09 PUSH1 0xE0 SHL DUP4 MSTORE PUSH1 0x4 DUP4 ADD MSTORE PUSH1 0x24 DUP3 ADD MSTORE REVERT JUMPDEST ADD MLOAD SWAP4 POP CODESIZE DUP1 PUSH3 0x210 JUMP JUMPDEST SWAP2 SWAP1 PUSH1 0x1F NOT DUP5 AND SWAP3 PUSH1 0xE PUSH1 0x0 MSTORE DUP5 DUP11 PUSH1 0x0 KECCAK256 SWAP5 PUSH1 0x0 JUMPDEST DUP13 DUP10 DUP4 DUP4 LT PUSH3 0x314 JUMPI POP POP POP LT PUSH3 0x2F9 JUMPI JUMPDEST POP POP POP POP DUP2 SHL ADD PUSH1 0xE SSTORE PUSH3 0x221 JUMP JUMPDEST ADD MLOAD SWAP1 PUSH1 0xF8 DUP5 PUSH1 0x0 NOT SWAP3 SHL AND SHR NOT AND SWAP1 SSTORE CODESIZE DUP1 DUP1 DUP1 PUSH3 0x2E9 JUMP JUMPDEST DUP7 DUP7 ADD MLOAD DUP10 SSTORE SWAP1 SWAP8 ADD SWAP7 SWAP5 DUP6 ADD SWAP5 DUP9 SWAP4 POP ADD PUSH3 0x2D5 JUMP JUMPDEST PUSH1 0xE PUSH1 0x0 MSTORE DUP10 PUSH1 0x0 KECCAK256 DUP4 DUP1 DUP8 ADD PUSH1 0x5 SHR DUP3 ADD SWAP3 DUP13 DUP9 LT PUSH3 0x36E JUMPI JUMPDEST ADD PUSH1 0x5 SHR ADD SWAP1 DUP7 SWAP1 JUMPDEST DUP3 DUP2 LT PUSH3 0x361 JUMPI POP POP PUSH3 0x1F4 JUMP JUMPDEST PUSH1 0x0 DUP2 SSTORE ADD DUP7 SWAP1 PUSH3 0x351 JUMP JUMPDEST SWAP3 POP DUP2 SWAP3 PUSH3 0x348 JUMP JUMPDEST PUSH4 0x4E487B71 PUSH1 0xE0 SHL PUSH1 0x0 MSTORE PUSH1 0x22 PUSH1 0x4 MSTORE PUSH1 0x24 PUSH1 0x0 REVERT JUMPDEST SWAP1 PUSH1 0x7F AND SWAP1 PUSH3 0x1E2 JUMP JUMPDEST DUP11 MLOAD PUSH4 0x1E4FBDF7 PUSH1 0xE0 SHL DUP2 MSTORE PUSH1 0x0 PUSH1 0x4 DUP3 ADD MSTORE PUSH1 0x24 SWAP1 REVERT JUMPDEST ADD MLOAD SWAP1 POP CODESIZE DUP1 PUSH3 0x16B JUMP JUMPDEST PUSH1 0x0 DUP7 DUP2 MSTORE DUP13 DUP2 KECCAK256 DUP10 SWAP6 POP SWAP3 SWAP2 SWAP1 PUSH1 0x1F NOT DUP6 AND SWAP1 DUP15 JUMPDEST DUP3 DUP3 LT PUSH3 0x40C JUMPI POP POP DUP5 GT PUSH3 0x3F3 JUMPI JUMPDEST POP POP POP DUP2 SHL ADD DUP3 SSTORE PUSH3 0x17D JUMP JUMPDEST ADD MLOAD PUSH1 0x0 NOT DUP4 DUP8 SHL PUSH1 0xF8 AND SHR NOT AND SWAP1 SSTORE CODESIZE DUP1 DUP1 PUSH3 0x3E5 JUMP JUMPDEST DUP4 DUP6 ADD MLOAD DUP7 SSTORE DUP12 SWAP8 SWAP1 SWAP6 ADD SWAP5 SWAP4 DUP5 ADD SWAP4 ADD DUP15 PUSH3 0x3D3 JUMP JUMPDEST SWAP1 SWAP2 POP DUP5 PUSH1 0x0 MSTORE DUP11 PUSH1 0x0 KECCAK256 DUP5 DUP1 DUP6 ADD PUSH1 0x5 SHR DUP3 ADD SWAP3 DUP14 DUP7 LT PUSH3 0x470 JUMPI JUMPDEST SWAP2 DUP10 SWAP2 DUP7 SWAP6 SWAP5 SWAP4 ADD PUSH1 0x5 SHR ADD SWAP2 JUMPDEST DUP3 DUP2 LT PUSH3 0x460 JUMPI POP POP PUSH3 0x154 JUMP JUMPDEST PUSH1 0x0 DUP2 SSTORE DUP6 SWAP5 POP DUP10 SWAP2 ADD PUSH3 0x450 JUMP JUMPDEST SWAP3 POP DUP2 SWAP3 PUSH3 0x442 JUMP JUMPDEST SWAP2 PUSH1 0x7F AND SWAP2 PUSH3 0x140 JUMP JUMPDEST ADD MLOAD SWAP1 POP CODESIZE DUP1 PUSH3 0x10D JUMP JUMPDEST SWAP1 DUP8 SWAP4 POP PUSH1 0x1F NOT DUP4 AND SWAP2 PUSH1 0x2 PUSH1 0x0 MSTORE DUP13 PUSH1 0x0 KECCAK256 SWAP3 DUP14 PUSH1 0x0 SWAP1 JUMPDEST DUP3 DUP3 LT PUSH3 0x4E5 JUMPI POP POP DUP5 GT PUSH3 0x4CB JUMPI JUMPDEST POP POP POP DUP2 SHL ADD PUSH1 0x2 SSTORE PUSH3 0x122 JUMP JUMPDEST ADD MLOAD PUSH1 0x0 NOT PUSH1 0xF8 DUP5 PUSH1 0x3 SHL AND SHR NOT AND SWAP1 SSTORE CODESIZE DUP1 DUP1 PUSH3 0x4BC JUMP JUMPDEST DUP4 DUP6 ADD MLOAD DUP7 SSTORE DUP12 SWAP8 SWAP1 SWAP6 ADD SWAP5 SWAP4 DUP5 ADD SWAP4 ADD DUP15 PUSH3 0x4AA JUMP JUMPDEST SWAP1 SWAP2 POP PUSH1 0x2 PUSH1 0x0 MSTORE DUP11 PUSH1 0x0 KECCAK256 DUP5 DUP1 DUP6 ADD PUSH1 0x5 SHR DUP3 ADD SWAP3 DUP14 DUP7 LT PUSH3 0x54A JUMPI JUMPDEST SWAP2 DUP10 SWAP2 DUP7 SWAP6 SWAP5 SWAP4 ADD PUSH1 0x5 SHR ADD SWAP2 JUMPDEST DUP3 DUP2 LT PUSH3 0x53A JUMPI POP POP PUSH3 0xF6 JUMP JUMPDEST PUSH1 0x0 DUP2 SSTORE DUP6 SWAP5 POP DUP10 SWAP2 ADD PUSH3 0x52A JUMP JUMPDEST SWAP3 POP DUP2 SWAP3 PUSH3 0x51C JUMP JUMPDEST SWAP3 PUSH1 0x7F AND SWAP3 PUSH3 0xDF JUMP JUMPDEST PUSH1 0x0 DUP1 REVERT JUMPDEST PUSH1 0x40 MLOAD SWAP2 SWAP1 PUSH1 0x1F ADD PUSH1 0x1F NOT AND DUP3 ADD PUSH1 0x1 PUSH1 0x1 PUSH1 0x40 SHL SUB DUP2 GT DUP4 DUP3 LT OR PUSH3 0x268 JUMPI PUSH1 0x40 MSTORE JUMP JUMPDEST SWAP2 SWAP1 DUP1 PUSH1 0x1F DUP5 ADD SLT ISZERO PUSH3 0x55F JUMPI DUP3 MLOAD PUSH1 0x1 PUSH1 0x1 PUSH1 0x40 SHL SUB DUP2 GT PUSH3 0x268 JUMPI PUSH1 0x20 SWAP1 PUSH3 0x5C0 PUSH1 0x1F DUP3 ADD PUSH1 0x1F NOT AND DUP4 ADD PUSH3 0x564 JUMP JUMPDEST SWAP3 DUP2 DUP5 MSTORE DUP3 DUP3 DUP8 ADD ADD GT PUSH3 0x55F JUMPI PUSH1 0x0 JUMPDEST DUP2 DUP2 LT PUSH3 0x5E8 JUMPI POP DUP3 PUSH1 0x0 SWAP4 SWAP5 SWAP6 POP ADD ADD MSTORE SWAP1 JUMP JUMPDEST DUP6 DUP2 ADD DUP4 ADD MLOAD DUP5 DUP3 ADD DUP5 ADD MSTORE DUP3 ADD PUSH3 0x5D2 JUMP INVALID PUSH1 0x80 PUSH1 0x40 DUP2 DUP2 MSTORE PUSH1 0x4 DUP1 CALLDATASIZE LT ISZERO PUSH2 0x15 JUMPI PUSH1 0x0 DUP1 REVERT JUMPDEST PUSH1 0x0 SWAP3 DUP4 CALLDATALOAD PUSH1 0xE0 SHR SWAP1 DUP2 PUSH4 0x1FFC9A7 EQ PUSH2 0xE6D JUMPI POP DUP1 PUSH4 0x6FDDE03 EQ PUSH2 0xDC3 JUMPI DUP1 PUSH4 0x81812FC EQ PUSH2 0xD87 JUMPI DUP1 PUSH4 0x95EA7B3 EQ PUSH2 0xCA5 JUMPI DUP1 PUSH4 0x18160DDD EQ PUSH2 0xC86 JUMPI DUP1 PUSH4 0x23B872DD EQ PUSH2 0xC6E JUMPI DUP1 PUSH4 0x248B71FC EQ PUSH2 0xB34 JUMPI DUP1 PUSH4 0x2A55205A EQ PUSH2 0xA94 JUMPI DUP1 PUSH4 0x2F745C59 EQ PUSH2 0xA10 JUMPI DUP1 PUSH4 0x42842E0E EQ PUSH2 0x9E1 JUMPI DUP1 PUSH4 0x4F6CCCE7 EQ PUSH2 0x98D JUMPI DUP1 PUSH4 0x55F804B3 EQ PUSH2 0x810 JUMPI DUP1 PUSH4 0x6352211E EQ PUSH2 0x7DF JUMPI DUP1 PUSH4 0x6A627842 EQ PUSH2 0x75E JUMPI DUP1 PUSH4 0x6C0360EB EQ PUSH2 0x6C6 JUMPI DUP1 PUSH4 0x70A08231 EQ PUSH2 0x699 JUMPI DUP1 PUSH4 0x715018A6 EQ PUSH2 0x63C JUMPI DUP1 PUSH4 0x8A71BB2D EQ PUSH2 0x61A JUMPI DUP1 PUSH4 0x8DA5CB5B EQ PUSH2 0x5F1 JUMPI DUP1 PUSH4 0x8F2FC60B EQ PUSH2 0x4B2 JUMPI DUP1 PUSH4 0x95D89B41 EQ PUSH2 0x3CD JUMPI DUP1 PUSH4 0x9FBC8713 EQ PUSH2 0x3A4 JUMPI DUP1 PUSH4 0xA22CB465 EQ PUSH2 0x303 JUMPI DUP1 PUSH4 0xB88D4FDE EQ PUSH2 0x290 JUMPI DUP1 PUSH4 0xC87B56DD EQ PUSH2 0x255 JUMPI DUP1 PUSH4 0xCAA0F92A EQ PUSH2 0x236 JUMPI DUP1 PUSH4 0xE985E9C5 EQ PUSH2 0x1E4 JUMPI PUSH4 0xF2FDE38B EQ PUSH2 0x157 JUMPI PUSH1 0x0 DUP1 REVERT JUMPDEST CALLVALUE PUSH2 0x1E0 JUMPI PUSH1 0x20 CALLDATASIZE PUSH1 0x3 NOT ADD SLT PUSH2 0x1E0 JUMPI PUSH2 0x170 PUSH2 0xF55 JUMP JUMPDEST SWAP1 PUSH2 0x179 PUSH2 0x109C JUMP JUMPDEST PUSH1 0x1 PUSH1 0x1 PUSH1 0xA0 SHL SUB SWAP2 DUP3 AND SWAP3 DUP4 ISZERO PUSH2 0x1CA JUMPI POP POP PUSH1 0xC SLOAD DUP3 PUSH1 0x1 PUSH1 0x1 PUSH1 0x60 SHL SUB PUSH1 0xA0 SHL DUP3 AND OR PUSH1 0xC SSTORE AND PUSH32 0x8BE0079C531659141344CD1FD0A4F28419497F9722A3DAAFE3B4186F6B6457E0 DUP4 DUP1 LOG3 DUP1 RETURN JUMPDEST MLOAD PUSH4 0x1E4FBDF7 PUSH1 0xE0 SHL DUP2 MSTORE SWAP1 DUP2 ADD DUP5 SWAP1 MSTORE PUSH1 0x24 SWAP1 REVERT JUMPDEST DUP3 DUP1 REVERT JUMPDEST POP POP CALLVALUE PUSH2 0x232 JUMPI DUP1 PUSH1 0x3 NOT CALLDATASIZE ADD SLT PUSH2 0x232 JUMPI PUSH1 0xFF DUP2 PUSH1 0x20 SWAP4 PUSH2 0x204 PUSH2 0xF55 JUMP JUMPDEST PUSH2 0x20C PUSH2 0xF70 JUMP JUMPDEST PUSH1 0x1 PUSH1 0x1 PUSH1 0xA0 SHL SUB SWAP2 DUP3 AND DUP4 MSTORE PUSH1 0x7 DUP8 MSTORE DUP4 DUP4 KECCAK256 SWAP2 AND DUP3 MSTORE DUP6 MSTORE KECCAK256 SLOAD SWAP2 MLOAD SWAP2 AND ISZERO ISZERO DUP2 MSTORE RETURN JUMPDEST POP DUP1 REVERT JUMPDEST POP POP CALLVALUE PUSH2 0x232 JUMPI DUP2 PUSH1 0x3 NOT CALLDATASIZE ADD SLT PUSH2 0x232 JUMPI PUSH1 0x20 SWAP1 PUSH1 0xD SLOAD SWAP1 MLOAD SWAP1 DUP2 MSTORE RETURN JUMPDEST POP SWAP2 CALLVALUE PUSH2 0x28D JUMPI PUSH1 0x20 CALLDATASIZE PUSH1 0x3 NOT ADD SLT PUSH2 0x28D JUMPI POP PUSH2 0x276 PUSH2 0x289 SWAP3 CALLDATALOAD PUSH2 0x191E JUMP JUMPDEST SWAP1 MLOAD SWAP2 DUP3 SWAP2 PUSH1 0x20 DUP4 MSTORE PUSH1 0x20 DUP4 ADD SWAP1 PUSH2 0xF30 JUMP JUMPDEST SUB SWAP1 RETURN JUMPDEST DUP1 REVERT JUMPDEST DUP4 DUP3 CALLVALUE PUSH2 0x232 JUMPI PUSH1 0x80 CALLDATASIZE PUSH1 0x3 NOT ADD SLT PUSH2 0x232 JUMPI PUSH2 0x2AB PUSH2 0xF55 JUMP JUMPDEST PUSH2 0x2B3 PUSH2 0xF70 JUMP JUMPDEST PUSH1 0x44 CALLDATALOAD SWAP1 PUSH1 0x64 CALLDATALOAD PUSH8 0xFFFFFFFFFFFFFFFF DUP2 GT PUSH2 0x2FF JUMPI CALLDATASIZE PUSH1 0x23 DUP3 ADD SLT ISZERO PUSH2 0x2FF JUMPI PUSH2 0x2FC SWAP5 DUP2 PUSH1 0x24 PUSH2 0x2EA SWAP4 CALLDATASIZE SWAP4 ADD CALLDATALOAD SWAP2 ADD PUSH2 0x102B JUMP JUMPDEST SWAP3 PUSH2 0x2F6 DUP4 DUP4 DUP4 PUSH2 0x1101 JUMP JUMPDEST CALLER PUSH2 0x1450 JUMP JUMPDEST DUP1 RETURN JUMPDEST DUP6 DUP1 REVERT JUMPDEST POP SWAP1 CALLVALUE PUSH2 0x1E0 JUMPI DUP1 PUSH1 0x3 NOT CALLDATASIZE ADD SLT PUSH2 0x1E0 JUMPI PUSH2 0x31D PUSH2 0xF55 JUMP JUMPDEST SWAP1 PUSH1 0x24 CALLDATALOAD SWAP2 DUP3 ISZERO ISZERO DUP1 SWAP4 SUB PUSH2 0x3A0 JUMPI PUSH1 0x1 PUSH1 0x1 PUSH1 0xA0 SHL SUB AND SWAP3 DUP4 ISZERO PUSH2 0x38B JUMPI POP CALLER DUP5 MSTORE PUSH1 0x7 PUSH1 0x20 MSTORE DUP1 DUP5 KECCAK256 DUP4 DUP6 MSTORE PUSH1 0x20 MSTORE DUP1 DUP5 KECCAK256 PUSH1 0xFF NOT DUP2 SLOAD AND PUSH1 0xFF DUP5 AND OR SWAP1 SSTORE MLOAD SWAP1 DUP2 MSTORE PUSH32 0x17307EAB39AB6107E8899845AD3D59BD9653F200F220920489CA2B5937696C31 PUSH1 0x20 CALLER SWAP3 LOG3 DUP1 RETURN JUMPDEST DUP4 PUSH1 0x24 SWAP3 MLOAD SWAP2 PUSH4 0xB611743 PUSH1 0xE3 SHL DUP4 MSTORE DUP3 ADD MSTORE REVERT JUMPDEST DUP5 DUP1 REVERT JUMPDEST POP POP CALLVALUE PUSH2 0x232 JUMPI DUP2 PUSH1 0x3 NOT CALLDATASIZE ADD SLT PUSH2 0x232 JUMPI PUSH1 0xF SLOAD SWAP1 MLOAD PUSH1 0x1 PUSH1 0x1 PUSH1 0xA0 SHL SUB SWAP1 SWAP2 AND DUP2 MSTORE PUSH1 0x20 SWAP1 RETURN JUMPDEST POP POP CALLVALUE PUSH2 0x232 JUMPI DUP2 PUSH1 0x3 NOT CALLDATASIZE ADD SLT PUSH2 0x232 JUMPI DUP1 MLOAD SWAP1 DUP3 PUSH1 0x3 SLOAD PUSH2 0x3EF DUP2 PUSH2 0x1062 JUMP JUMPDEST DUP1 DUP6 MSTORE SWAP2 PUSH1 0x1 SWAP2 DUP1 DUP4 AND SWAP1 DUP2 ISZERO PUSH2 0x48A JUMPI POP PUSH1 0x1 EQ PUSH2 0x42D JUMPI JUMPDEST POP POP POP PUSH2 0x41B DUP3 PUSH2 0x289 SWAP5 SUB DUP4 PUSH2 0xFED JUMP JUMPDEST MLOAD SWAP2 DUP3 SWAP2 PUSH1 0x20 DUP4 MSTORE PUSH1 0x20 DUP4 ADD SWAP1 PUSH2 0xF30 JUMP JUMPDEST SWAP5 POP PUSH1 0x3 DUP6 MSTORE PUSH32 0xC2575A0E9E593C00F959F8C92F12DB2869C3395A3B0502D05E2516446F71F85B JUMPDEST DUP3 DUP7 LT PUSH2 0x472 JUMPI POP POP POP PUSH2 0x41B DUP3 PUSH1 0x20 PUSH2 0x289 SWAP6 DUP3 ADD ADD SWAP5 PUSH2 0x409 JUMP JUMPDEST DUP1 SLOAD PUSH1 0x20 DUP8 DUP8 ADD DUP2 ADD SWAP2 SWAP1 SWAP2 MSTORE SWAP1 SWAP6 ADD SWAP5 DUP2 ADD PUSH2 0x455 JUMP JUMPDEST PUSH2 0x289 SWAP8 POP DUP7 SWAP4 POP PUSH1 0x20 SWAP3 POP PUSH2 0x41B SWAP5 SWAP2 POP PUSH1 0xFF NOT AND DUP3 DUP5 ADD MSTORE ISZERO ISZERO PUSH1 0x5 SHL DUP3 ADD ADD SWAP5 PUSH2 0x409 JUMP JUMPDEST POP SWAP1 CALLVALUE PUSH2 0x1E0 JUMPI DUP1 PUSH1 0x3 NOT CALLDATASIZE ADD SLT PUSH2 0x1E0 JUMPI PUSH2 0x4CC PUSH2 0xF55 JUMP JUMPDEST SWAP1 PUSH1 0x24 CALLDATALOAD SWAP3 PUSH1 0x1 PUSH1 0x1 PUSH1 0x60 SHL SUB DUP5 AND SWAP3 DUP4 DUP6 SUB PUSH2 0x2FF JUMPI PUSH2 0x4EB PUSH2 0x109C JUMP JUMPDEST PUSH1 0x1 PUSH1 0x1 PUSH1 0xA0 SHL SUB AND SWAP4 DUP5 ISZERO PUSH2 0x5BB JUMPI PUSH2 0x2710 DUP5 GT PUSH2 0x582 JUMPI PUSH1 0xA0 SHL PUSH1 0x1 PUSH1 0x1 PUSH1 0xA0 SHL SUB NOT AND DUP5 OR PUSH1 0xF DUP2 SWAP1 SSTORE DUP3 MLOAD SWAP1 SWAP2 DUP2 DUP5 ADD SWAP1 PUSH8 0xFFFFFFFFFFFFFFFF DUP3 GT DUP4 DUP4 LT OR PUSH2 0x56F JUMPI POP SWAP2 DUP5 PUSH1 0x20 DUP6 SWAP4 PUSH32 0x8039BD6E4E7DBA001C8840EB2E118D9D131246FAA7D0D04335F7305127EC0B10 SWAP8 SWAP6 DUP3 SWAP8 MSTORE DUP9 DUP2 MSTORE ADD MSTORE DUP7 SSTORE MLOAD SWAP1 DUP2 MSTORE LOG2 DUP1 RETURN JUMPDEST PUSH4 0x4E487B71 PUSH1 0xE0 SHL DUP9 MSTORE PUSH1 0x41 SWAP1 MSTORE PUSH1 0x24 DUP8 REVERT JUMPDEST POP PUSH1 0x20 PUSH1 0x64 SWAP3 MLOAD SWAP2 PUSH3 0x461BCD PUSH1 0xE5 SHL DUP4 MSTORE DUP3 ADD MSTORE PUSH1 0x13 PUSH1 0x24 DUP3 ADD MSTORE PUSH19 0xA0CAE4C6CADCE8C2CECA40E8DEDE40D0D2CED PUSH1 0x6B SHL PUSH1 0x44 DUP3 ADD MSTORE REVERT JUMPDEST POP PUSH1 0x20 PUSH1 0x64 SWAP3 MLOAD SWAP2 PUSH3 0x461BCD PUSH1 0xE5 SHL DUP4 MSTORE DUP3 ADD MSTORE PUSH1 0x10 PUSH1 0x24 DUP3 ADD MSTORE PUSH16 0x24B73B30B634B2103932B1B2B4BB32B9 PUSH1 0x81 SHL PUSH1 0x44 DUP3 ADD MSTORE REVERT JUMPDEST POP POP CALLVALUE PUSH2 0x232 JUMPI DUP2 PUSH1 0x3 NOT CALLDATASIZE ADD SLT PUSH2 0x232 JUMPI PUSH1 0xC SLOAD SWAP1 MLOAD PUSH1 0x1 PUSH1 0x1 PUSH1 0xA0 SHL SUB SWAP1 SWAP2 AND DUP2 MSTORE PUSH1 0x20 SWAP1 RETURN JUMPDEST POP POP CALLVALUE PUSH2 0x232 JUMPI DUP2 PUSH1 0x3 NOT CALLDATASIZE ADD SLT PUSH2 0x232 JUMPI PUSH1 0x20 SWAP1 PUSH1 0xF SLOAD PUSH1 0xA0 SHR SWAP1 MLOAD SWAP1 DUP2 MSTORE RETURN JUMPDEST DUP4 CALLVALUE PUSH2 0x28D JUMPI DUP1 PUSH1 0x3 NOT CALLDATASIZE ADD SLT PUSH2 0x28D JUMPI PUSH2 0x655 PUSH2 0x109C JUMP JUMPDEST PUSH1 0xC DUP1 SLOAD PUSH1 0x1 PUSH1 0x1 PUSH1 0xA0 SHL SUB NOT DUP2 AND SWAP1 SWAP2 SSTORE DUP2 SWAP1 PUSH1 0x1 PUSH1 0x1 PUSH1 0xA0 SHL SUB AND PUSH32 0x8BE0079C531659141344CD1FD0A4F28419497F9722A3DAAFE3B4186F6B6457E0 DUP3 DUP1 LOG3 DUP1 RETURN JUMPDEST POP POP CALLVALUE PUSH2 0x232 JUMPI PUSH1 0x20 CALLDATASIZE PUSH1 0x3 NOT ADD SLT PUSH2 0x232 JUMPI PUSH1 0x20 SWAP1 PUSH2 0x6BF PUSH2 0x6BA PUSH2 0xF55 JUMP JUMPDEST PUSH2 0x10C8 JUMP JUMPDEST SWAP1 MLOAD SWAP1 DUP2 MSTORE RETURN JUMPDEST POP POP CALLVALUE PUSH2 0x232 JUMPI DUP2 PUSH1 0x3 NOT CALLDATASIZE ADD SLT PUSH2 0x232 JUMPI DUP1 MLOAD SWAP1 DUP3 PUSH1 0xE SLOAD PUSH2 0x6E8 DUP2 PUSH2 0x1062 JUMP JUMPDEST DUP1 DUP6 MSTORE SWAP2 PUSH1 0x1 SWAP2 DUP1 DUP4 AND SWAP1 DUP2 ISZERO PUSH2 0x48A JUMPI POP PUSH1 0x1 EQ PUSH2 0x713 JUMPI POP POP POP PUSH2 0x41B DUP3 PUSH2 0x289 SWAP5 SUB DUP4 PUSH2 0xFED JUMP JUMPDEST SWAP5 POP PUSH1 0xE DUP6 MSTORE PUSH1 0x0 DUP1 MLOAD PUSH1 0x20 PUSH2 0x1B04 DUP4 CODECOPY DUP2 MLOAD SWAP2 MSTORE JUMPDEST DUP3 DUP7 LT PUSH2 0x746 JUMPI POP POP POP PUSH2 0x41B DUP3 PUSH1 0x20 PUSH2 0x289 SWAP6 DUP3 ADD ADD SWAP5 PUSH2 0x409 JUMP JUMPDEST DUP1 SLOAD PUSH1 0x20 DUP8 DUP8 ADD DUP2 ADD SWAP2 SWAP1 SWAP2 MSTORE SWAP1 SWAP6 ADD SWAP5 DUP2 ADD PUSH2 0x729 JUMP JUMPDEST POP POP CALLVALUE PUSH2 0x232 JUMPI PUSH1 0x20 CALLDATASIZE PUSH1 0x3 NOT ADD SLT PUSH2 0x232 JUMPI DUP1 PUSH1 0x20 SWAP3 PUSH2 0x77D PUSH2 0xF55 JUMP JUMPDEST PUSH2 0x785 PUSH2 0x109C JUMP JUMPDEST PUSH32 0x1FE50C1EA65EC45D727411CCE4E6AC546A4CC83120DC5D887B7949347BFE728 PUSH1 0xD SLOAD SWAP5 DUP6 SWAP3 PUSH2 0x7B5 DUP5 PUSH2 0x159E JUMP JUMPDEST PUSH1 0xD SSTORE PUSH2 0x7C2 DUP5 DUP3 PUSH2 0x15C3 JUMP JUMPDEST DUP2 MLOAD DUP9 DUP2 MSTORE DUP9 DUP2 ADD SWAP6 SWAP1 SWAP6 MSTORE PUSH1 0x1 PUSH1 0x1 PUSH1 0xA0 SHL SUB AND SWAP4 LOG3 MLOAD SWAP1 DUP2 MSTORE RETURN JUMPDEST POP SWAP2 CALLVALUE PUSH2 0x28D JUMPI PUSH1 0x20 CALLDATASIZE PUSH1 0x3 NOT ADD SLT PUSH2 0x28D JUMPI POP PUSH2 0x7FF PUSH1 0x20 SWAP3 CALLDATALOAD PUSH2 0x13C8 JUMP JUMPDEST SWAP1 MLOAD PUSH1 0x1 PUSH1 0x1 PUSH1 0xA0 SHL SUB SWAP1 SWAP2 AND DUP2 MSTORE RETURN JUMPDEST POP DUP3 CALLVALUE PUSH2 0x28D JUMPI PUSH1 0x20 DUP1 PUSH1 0x3 NOT CALLDATASIZE ADD SLT PUSH2 0x232 JUMPI PUSH8 0xFFFFFFFFFFFFFFFF SWAP1 DUP4 CALLDATALOAD DUP3 DUP2 GT PUSH2 0x989 JUMPI CALLDATASIZE PUSH1 0x23 DUP3 ADD SLT ISZERO PUSH2 0x989 JUMPI PUSH2 0x855 SWAP1 CALLDATASIZE SWAP1 PUSH1 0x24 DUP2 DUP9 ADD CALLDATALOAD SWAP2 ADD PUSH2 0x102B JUMP JUMPDEST SWAP4 PUSH2 0x85E PUSH2 0x109C JUMP JUMPDEST DUP5 MLOAD SWAP3 DUP4 GT PUSH2 0x976 JUMPI POP PUSH2 0x873 PUSH1 0xE SLOAD PUSH2 0x1062 JUMP JUMPDEST PUSH1 0x1F DUP2 GT PUSH2 0x926 JUMPI JUMPDEST POP DUP1 PUSH1 0x1F DUP4 GT PUSH1 0x1 EQ PUSH2 0x8B7 JUMPI POP DUP3 SWAP4 DUP3 SWAP4 SWAP3 PUSH2 0x8AC JUMPI JUMPDEST POP POP DUP2 PUSH1 0x1 SHL SWAP2 PUSH1 0x0 NOT SWAP1 PUSH1 0x3 SHL SHR NOT AND OR PUSH1 0xE SSTORE DUP1 RETURN JUMPDEST ADD MLOAD SWAP1 POP DUP4 DUP1 PUSH2 0x894 JUMP JUMPDEST PUSH1 0xE DUP5 MSTORE PUSH1 0x1F NOT DUP4 AND SWAP5 PUSH1 0x0 DUP1 MLOAD PUSH1 0x20 PUSH2 0x1B04 DUP4 CODECOPY DUP2 MLOAD SWAP2 MSTORE SWAP3 SWAP2 DUP6 SWAP1 JUMPDEST DUP8 DUP3 LT PUSH2 0x90E JUMPI POP POP DUP4 PUSH1 0x1 SWAP6 SWAP7 LT PUSH2 0x8F5 JUMPI JUMPDEST POP POP POP DUP2 SHL ADD PUSH1 0xE SSTORE DUP1 RETURN JUMPDEST ADD MLOAD PUSH1 0x0 NOT PUSH1 0xF8 DUP5 PUSH1 0x3 SHL AND SHR NOT AND SWAP1 SSTORE DUP4 DUP1 DUP1 PUSH2 0x8E9 JUMP JUMPDEST DUP1 PUSH1 0x1 DUP6 SWAP7 DUP3 SWAP5 SWAP7 DUP7 ADD MLOAD DUP2 SSTORE ADD SWAP6 ADD SWAP4 ADD SWAP1 PUSH2 0x8D5 JUMP JUMPDEST PUSH1 0xE DUP5 MSTORE PUSH1 0x0 DUP1 MLOAD PUSH1 0x20 PUSH2 0x1B04 DUP4 CODECOPY DUP2 MLOAD SWAP2 MSTORE PUSH1 0x1F DUP5 ADD PUSH1 0x5 SHR DUP2 ADD SWAP2 DUP4 DUP6 LT PUSH2 0x96C JUMPI JUMPDEST PUSH1 0x1F ADD PUSH1 0x5 SHR ADD SWAP1 JUMPDEST DUP2 DUP2 LT PUSH2 0x961 JUMPI POP PUSH2 0x87C JUMP JUMPDEST DUP5 DUP2 SSTORE PUSH1 0x1 ADD PUSH2 0x954 JUMP JUMPDEST SWAP1 SWAP2 POP DUP2 SWAP1 PUSH2 0x94B JUMP JUMPDEST PUSH4 0x4E487B71 PUSH1 0xE0 SHL DUP5 MSTORE PUSH1 0x41 SWAP1 MSTORE PUSH1 0x24 DUP4 REVERT JUMPDEST DUP4 DUP1 REVERT JUMPDEST POP CALLVALUE PUSH2 0x1E0 JUMPI PUSH1 0x20 CALLDATASIZE PUSH1 0x3 NOT ADD SLT PUSH2 0x1E0 JUMPI DUP1 CALLDATALOAD SWAP3 PUSH1 0xA SLOAD DUP5 LT ISZERO PUSH2 0x9C6 JUMPI PUSH1 0x20 DUP4 PUSH2 0x9B8 DUP7 PUSH2 0x1403 JUMP JUMPDEST SWAP2 SWAP1 SLOAD SWAP1 MLOAD SWAP2 PUSH1 0x3 SHL SHR DUP2 MSTORE RETURN JUMPDEST PUSH1 0x44 SWAP4 SWAP2 SWAP3 MLOAD SWAP3 PUSH4 0x295F44F7 PUSH1 0xE2 SHL DUP5 MSTORE DUP4 ADD MSTORE PUSH1 0x24 DUP3 ADD MSTORE REVERT JUMPDEST POP POP CALLVALUE PUSH2 0x232 JUMPI PUSH2 0x2FC SWAP1 PUSH2 0x9F5 CALLDATASIZE PUSH2 0xF86 JUMP JUMPDEST SWAP2 SWAP3 MLOAD SWAP3 PUSH2 0xA02 DUP5 PUSH2 0xFBB JUMP JUMPDEST DUP6 DUP5 MSTORE PUSH2 0x2F6 DUP4 DUP4 DUP4 PUSH2 0x1101 JUMP JUMPDEST POP SWAP2 CALLVALUE PUSH2 0x28D JUMPI DUP2 PUSH1 0x3 NOT CALLDATASIZE ADD SLT PUSH2 0x28D JUMPI PUSH2 0xA2A PUSH2 0xF55 JUMP JUMPDEST SWAP3 PUSH1 0x24 CALLDATALOAD SWAP1 PUSH2 0xA38 DUP6 PUSH2 0x10C8 JUMP JUMPDEST DUP3 LT ISZERO PUSH2 0xA68 JUMPI POP PUSH1 0x1 PUSH1 0x1 PUSH1 0xA0 SHL SUB SWAP1 SWAP4 AND DUP2 MSTORE PUSH1 0x8 PUSH1 0x20 SWAP1 DUP2 MSTORE DUP3 DUP3 KECCAK256 SWAP4 DUP3 MSTORE SWAP3 DUP4 MSTORE DUP2 SWAP1 KECCAK256 SLOAD SWAP1 MLOAD SWAP1 DUP2 MSTORE RETURN JUMPDEST SWAP3 MLOAD PUSH4 0x295F44F7 PUSH1 0xE2 SHL DUP2 MSTORE PUSH1 0x1 PUSH1 0x1 PUSH1 0xA0 SHL SUB SWAP1 SWAP5 AND SWAP3 DUP5 ADD SWAP3 DUP4 MSTORE PUSH1 0x20 DUP4 ADD MSTORE POP DUP2 SWAP1 PUSH1 0x40 ADD SUB SWAP1 REVERT JUMPDEST POP SWAP2 CALLVALUE PUSH2 0x28D JUMPI DUP2 PUSH1 0x3 NOT CALLDATASIZE ADD SLT PUSH2 0x28D JUMPI DUP3 CALLDATALOAD DUP2 MSTORE PUSH1 0x1 PUSH1 0x20 MSTORE DUP2 DUP2 KECCAK256 SLOAD PUSH1 0x24 CALLDATALOAD SWAP3 PUSH1 0x1 PUSH1 0x1 PUSH1 0xA0 SHL SUB DUP1 DUP4 AND SWAP4 SWAP2 SWAP3 PUSH1 0xA0 SHR SWAP1 DUP5 ISZERO PUSH2 0xB1B JUMPI JUMPDEST POP PUSH1 0x1 PUSH1 0x1 PUSH1 0x60 SHL SUB AND SWAP4 DUP5 DUP2 MUL SWAP5 DUP2 DUP7 DIV EQ SWAP1 ISZERO OR ISZERO PUSH2 0xB08 JUMPI DUP2 MLOAD PUSH1 0x1 PUSH1 0x1 PUSH1 0xA0 SHL SUB DUP5 AND DUP2 MSTORE PUSH2 0x2710 DUP6 DIV PUSH1 0x20 DUP3 ADD MSTORE PUSH1 0x40 SWAP1 RETURN JUMPDEST PUSH4 0x4E487B71 PUSH1 0xE0 SHL DUP2 MSTORE PUSH1 0x11 DUP6 MSTORE PUSH1 0x24 SWAP1 REVERT JUMPDEST DUP3 SLOAD SWAP1 DUP2 AND SWAP5 POP PUSH1 0xA0 SHR SWAP1 POP PUSH1 0x1 PUSH1 0x1 PUSH1 0x60 SHL SUB PUSH2 0xAD0 JUMP JUMPDEST POP DUP3 SWAP1 CALLVALUE PUSH2 0x232 JUMPI DUP3 PUSH1 0x3 NOT CALLDATASIZE ADD SLT PUSH2 0x232 JUMPI SWAP2 SWAP1 PUSH2 0xB51 PUSH2 0xF55 JUMP JUMPDEST SWAP1 PUSH1 0x24 SWAP4 DUP5 CALLDATALOAD PUSH2 0xB5F PUSH2 0x109C JUMP JUMPDEST PUSH2 0xB68 DUP2 PUSH2 0x1906 JUMP JUMPDEST SWAP2 PUSH2 0xB75 DUP7 MLOAD SWAP4 DUP5 PUSH2 0xFED JUMP JUMPDEST DUP2 DUP4 MSTORE PUSH2 0xB81 DUP3 PUSH2 0x1906 JUMP JUMPDEST PUSH1 0x20 SWAP8 DUP5 DUP10 ADD SWAP7 SWAP2 PUSH1 0x1F NOT ADD CALLDATASIZE DUP9 CALLDATACOPY PUSH1 0x1 PUSH1 0x1 PUSH1 0xA0 SHL SUB DUP3 AND SWAP3 DUP7 JUMPDEST DUP6 DUP2 LT PUSH2 0xBE5 JUMPI POP POP POP POP POP POP DUP4 MLOAD SWAP5 DUP6 SWAP5 DUP2 DUP7 ADD SWAP3 DUP3 DUP8 MSTORE MLOAD DUP1 SWAP4 MSTORE DUP6 ADD SWAP4 SWAP3 JUMPDEST DUP3 DUP2 LT PUSH2 0xBCE JUMPI POP POP POP POP SUB SWAP1 RETURN JUMPDEST DUP4 MLOAD DUP6 MSTORE DUP7 SWAP6 POP SWAP4 DUP2 ADD SWAP4 SWAP3 DUP2 ADD SWAP3 PUSH1 0x1 ADD PUSH2 0xBBF JUMP JUMPDEST PUSH1 0xD SWAP11 SWAP8 SWAP7 SWAP9 SWAP10 SWAP11 DUP1 SLOAD SWAP1 PUSH2 0xBF9 DUP3 PUSH2 0x159E JUMP JUMPDEST SWAP1 SSTORE PUSH2 0xC05 DUP2 DUP7 PUSH2 0x15C3 JUMP JUMPDEST DUP10 MLOAD DUP3 LT ISZERO PUSH2 0xC5C JUMPI SWAP1 DUP6 DUP3 PUSH32 0x1FE50C1EA65EC45D727411CCE4E6AC546A4CC83120DC5D887B7949347BFE728 DUP15 PUSH2 0xC51 SWAP6 DUP14 DUP16 DUP8 PUSH1 0x5 SHL ADD ADD MSTORE DUP13 DUP13 DUP3 MLOAD SWAP2 DUP1 DUP4 MSTORE DUP3 ADD MSTORE LOG3 PUSH2 0x159E JUMP JUMPDEST SWAP10 SWAP9 SWAP8 SWAP6 SWAP7 SWAP10 PUSH2 0xB9D JUMP JUMPDEST PUSH4 0x4E487B71 PUSH1 0xE0 SHL DUP9 MSTORE PUSH1 0x32 DUP4 MSTORE DUP4 DUP9 REVERT JUMPDEST DUP4 CALLVALUE PUSH2 0x28D JUMPI PUSH2 0x2FC PUSH2 0xC80 CALLDATASIZE PUSH2 0xF86 JUMP JUMPDEST SWAP2 PUSH2 0x1101 JUMP JUMPDEST POP POP CALLVALUE PUSH2 0x232 JUMPI DUP2 PUSH1 0x3 NOT CALLDATASIZE ADD SLT PUSH2 0x232 JUMPI PUSH1 0x20 SWAP1 PUSH1 0xA SLOAD SWAP1 MLOAD SWAP1 DUP2 MSTORE RETURN JUMPDEST POP SWAP1 CALLVALUE PUSH2 0x1E0 JUMPI DUP1 PUSH1 0x3 NOT CALLDATASIZE ADD SLT PUSH2 0x1E0 JUMPI PUSH2 0xCBF PUSH2 0xF55 JUMP JUMPDEST SWAP2 PUSH1 0x24 CALLDATALOAD SWAP1 PUSH2 0xCCD DUP3 PUSH2 0x13C8 JUMP JUMPDEST SWAP1 CALLER ISZERO ISZERO DUP1 PUSH2 0xD74 JUMPI JUMPDEST DUP1 PUSH2 0xD4B JUMPI JUMPDEST PUSH2 0xD34 JUMPI POP PUSH1 0x1 PUSH1 0x1 PUSH1 0xA0 SHL SUB SWAP4 DUP5 AND SWAP4 DUP3 SWAP2 DUP6 SWAP2 AND PUSH32 0x8C5BE1E5EBEC7D5BD14F71427D1E84F3DD0314C0F7B2291E5B200AC8C7C3B925 DUP8 DUP1 LOG4 DUP4 MSTORE PUSH1 0x6 PUSH1 0x20 MSTORE DUP3 KECCAK256 DUP1 SLOAD PUSH1 0x1 PUSH1 0x1 PUSH1 0xA0 SHL SUB NOT AND SWAP1 SWAP2 OR SWAP1 SSTORE DUP1 RETURN JUMPDEST PUSH1 0x24 SWAP1 DUP5 MLOAD SWAP1 PUSH4 0xA9FBF51F PUSH1 0xE0 SHL DUP3 MSTORE CALLER SWAP1 DUP3 ADD MSTORE REVERT JUMPDEST POP PUSH1 0x1 PUSH1 0x1 PUSH1 0xA0 SHL SUB DUP3 AND DUP7 MSTORE PUSH1 0x7 PUSH1 0x20 SWAP1 DUP2 MSTORE DUP5 DUP8 KECCAK256 CALLER DUP9 MSTORE SWAP1 MSTORE DUP4 DUP7 KECCAK256 SLOAD PUSH1 0xFF AND ISZERO PUSH2 0xCDD JUMP JUMPDEST POP PUSH1 0x1 PUSH1 0x1 PUSH1 0xA0 SHL SUB DUP3 AND CALLER EQ ISZERO PUSH2 0xCD7 JUMP JUMPDEST POP CALLVALUE PUSH2 0x1E0 JUMPI PUSH1 0x20 CALLDATASIZE PUSH1 0x3 NOT ADD SLT PUSH2 0x1E0 JUMPI SWAP2 PUSH1 0x20 SWAP3 CALLDATALOAD PUSH2 0xDA7 DUP2 PUSH2 0x13C8 JUMP JUMPDEST POP DUP2 MSTORE PUSH1 0x6 DUP4 MSTORE DUP2 SWAP1 KECCAK256 SLOAD SWAP1 MLOAD PUSH1 0x1 PUSH1 0x1 PUSH1 0xA0 SHL SUB SWAP1 SWAP2 AND DUP2 MSTORE RETURN JUMPDEST POP POP CALLVALUE PUSH2 0x232 JUMPI DUP2 PUSH1 0x3 NOT CALLDATASIZE ADD SLT PUSH2 0x232 JUMPI DUP1 MLOAD SWAP1 DUP3 PUSH1 0x2 SLOAD PUSH2 0xDE5 DUP2 PUSH2 0x1062 JUMP JUMPDEST DUP1 DUP6 MSTORE SWAP2 PUSH1 0x1 SWAP2 DUP1 DUP4 AND SWAP1 DUP2 ISZERO PUSH2 0x48A JUMPI POP PUSH1 0x1 EQ PUSH2 0xE10 JUMPI POP POP POP PUSH2 0x41B DUP3 PUSH2 0x289 SWAP5 SUB DUP4 PUSH2 0xFED JUMP JUMPDEST SWAP5 POP PUSH1 0x2 DUP6 MSTORE PUSH32 0x405787FA12A823E0F2B7631CC41B3BA8828B3321CA811111FA75CD3AA3BB5ACE JUMPDEST DUP3 DUP7 LT PUSH2 0xE55 JUMPI POP POP POP PUSH2 0x41B DUP3 PUSH1 0x20 PUSH2 0x289 SWAP6 DUP3 ADD ADD SWAP5 PUSH2 0x409 JUMP JUMPDEST DUP1 SLOAD PUSH1 0x20 DUP8 DUP8 ADD DUP2 ADD SWAP2 SWAP1 SWAP2 MSTORE SWAP1 SWAP6 ADD SWAP5 DUP2 ADD PUSH2 0xE38 JUMP JUMPDEST SWAP3 POP POP CALLVALUE PUSH2 0x1E0 JUMPI PUSH1 0x20 CALLDATASIZE PUSH1 0x3 NOT ADD SLT PUSH2 0x1E0 JUMPI CALLDATALOAD PUSH4 0xFFFFFFFF PUSH1 0xE0 SHL DUP2 AND DUP1 SWAP2 SUB PUSH2 0x1E0 JUMPI PUSH1 0x20 SWAP3 POP PUSH4 0x780E9D63 PUSH1 0xE0 SHL DUP2 EQ SWAP1 DUP2 ISZERO PUSH2 0xEB0 JUMPI JUMPDEST POP ISZERO ISZERO DUP2 MSTORE RETURN JUMPDEST PUSH4 0x80AC58CD PUSH1 0xE0 SHL DUP2 EQ SWAP2 POP DUP2 ISZERO PUSH2 0xEFC JUMPI JUMPDEST DUP2 ISZERO PUSH2 0xED1 JUMPI JUMPDEST POP CODESIZE PUSH2 0xEA9 JUMP JUMPDEST PUSH4 0x152A902D PUSH1 0xE1 SHL DUP2 EQ SWAP2 POP DUP2 ISZERO PUSH2 0xEEB JUMPI JUMPDEST POP CODESIZE PUSH2 0xECA JUMP JUMPDEST PUSH4 0x1FFC9A7 PUSH1 0xE0 SHL EQ SWAP1 POP CODESIZE PUSH2 0xEE4 JUMP JUMPDEST PUSH4 0x5B5E139F PUSH1 0xE0 SHL DUP2 EQ SWAP2 POP PUSH2 0xEC3 JUMP JUMPDEST PUSH1 0x0 JUMPDEST DUP4 DUP2 LT PUSH2 0xF20 JUMPI POP POP PUSH1 0x0 SWAP2 ADD MSTORE JUMP JUMPDEST DUP2 DUP2 ADD MLOAD DUP4 DUP3 ADD MSTORE PUSH1 0x20 ADD PUSH2 0xF10 JUMP JUMPDEST SWAP1 PUSH1 0x20 SWAP2 PUSH2 0xF49 DUP2 MLOAD DUP1 SWAP3 DUP2 DUP6 MSTORE DUP6 DUP1 DUP7 ADD SWAP2 ADD PUSH2 0xF0D JUMP JUMPDEST PUSH1 0x1F ADD PUSH1 0x1F NOT AND ADD ADD SWAP1 JUMP JUMPDEST PUSH1 0x4 CALLDATALOAD SWAP1 PUSH1 0x1 PUSH1 0x1 PUSH1 0xA0 SHL SUB DUP3 AND DUP3 SUB PUSH2 0xF6B JUMPI JUMP JUMPDEST PUSH1 0x0 DUP1 REVERT JUMPDEST PUSH1 0x24 CALLDATALOAD SWAP1 PUSH1 0x1 PUSH1 0x1 PUSH1 0xA0 SHL SUB DUP3 AND DUP3 SUB PUSH2 0xF6B JUMPI JUMP JUMPDEST PUSH1 0x60 SWAP1 PUSH1 0x3 NOT ADD SLT PUSH2 0xF6B JUMPI PUSH1 0x1 PUSH1 0x1 PUSH1 0xA0 SHL SUB SWAP1 PUSH1 0x4 CALLDATALOAD DUP3 DUP2 AND DUP2 SUB PUSH2 0xF6B JUMPI SWAP2 PUSH1 0x24 CALLDATALOAD SWAP1 DUP2 AND DUP2 SUB PUSH2 0xF6B JUMPI SWAP1 PUSH1 0x44 CALLDATALOAD SWAP1 JUMP JUMPDEST PUSH1 0x20 DUP2 ADD SWAP1 DUP2 LT PUSH8 0xFFFFFFFFFFFFFFFF DUP3 GT OR PUSH2 0xFD7 JUMPI PUSH1 0x40 MSTORE JUMP JUMPDEST PUSH4 0x4E487B71 PUSH1 0xE0 SHL PUSH1 0x0 MSTORE PUSH1 0x41 PUSH1 0x4 MSTORE PUSH1 0x24 PUSH1 0x0 REVERT JUMPDEST SWAP1 PUSH1 0x1F DUP1 NOT SWAP2 ADD AND DUP2 ADD SWAP1 DUP2 LT PUSH8 0xFFFFFFFFFFFFFFFF DUP3 GT OR PUSH2 0xFD7 JUMPI PUSH1 0x40 MSTORE JUMP JUMPDEST PUSH8 0xFFFFFFFFFFFFFFFF DUP2 GT PUSH2 0xFD7 JUMPI PUSH1 0x1F ADD PUSH1 0x1F NOT AND PUSH1 0x20 ADD SWAP1 JUMP JUMPDEST SWAP3 SWAP2 SWAP3 PUSH2 0x1037 DUP3 PUSH2 0x100F JUMP JUMPDEST SWAP2 PUSH2 0x1045 PUSH1 0x40 MLOAD SWAP4 DUP5 PUSH2 0xFED JUMP JUMPDEST DUP3 SWAP5 DUP2 DUP5 MSTORE DUP2 DUP4 ADD GT PUSH2 0xF6B JUMPI DUP3 DUP2 PUSH1 0x20 SWAP4 DUP5 PUSH1 0x0 SWAP7 ADD CALLDATACOPY ADD ADD MSTORE JUMP JUMPDEST SWAP1 PUSH1 0x1 DUP3 DUP2 SHR SWAP3 AND DUP1 ISZERO PUSH2 0x1092 JUMPI JUMPDEST PUSH1 0x20 DUP4 LT EQ PUSH2 0x107C JUMPI JUMP JUMPDEST PUSH4 0x4E487B71 PUSH1 0xE0 SHL PUSH1 0x0 MSTORE PUSH1 0x22 PUSH1 0x4 MSTORE PUSH1 0x24 PUSH1 0x0 REVERT JUMPDEST SWAP2 PUSH1 0x7F AND SWAP2 PUSH2 0x1071 JUMP JUMPDEST PUSH1 0xC SLOAD PUSH1 0x1 PUSH1 0x1 PUSH1 0xA0 SHL SUB AND CALLER SUB PUSH2 0x10B0 JUMPI JUMP JUMPDEST PUSH1 0x40 MLOAD PUSH4 0x118CDAA7 PUSH1 0xE0 SHL DUP2 MSTORE CALLER PUSH1 0x4 DUP3 ADD MSTORE PUSH1 0x24 SWAP1 REVERT JUMPDEST PUSH1 0x1 PUSH1 0x1 PUSH1 0xA0 SHL SUB AND DUP1 ISZERO PUSH2 0x10E8 JUMPI PUSH1 0x0 MSTORE PUSH1 0x5 PUSH1 0x20 MSTORE PUSH1 0x40 PUSH1 0x0 KECCAK256 SLOAD SWAP1 JUMP JUMPDEST PUSH1 0x40 MLOAD PUSH4 0x22718AD9 PUSH1 0xE2 SHL DUP2 MSTORE PUSH1 0x0 PUSH1 0x4 DUP3 ADD MSTORE PUSH1 0x24 SWAP1 REVERT JUMPDEST PUSH1 0x1 PUSH1 0x1 PUSH1 0xA0 SHL SUB DUP3 DUP2 AND SWAP4 SWAP2 SWAP1 DUP5 ISZERO PUSH2 0x13AF JUMPI PUSH1 0x0 SWAP2 DUP4 DUP4 MSTORE PUSH1 0x4 SWAP6 PUSH1 0x20 SWAP4 DUP8 DUP6 MSTORE PUSH1 0x40 SWAP5 DUP5 DUP7 DUP4 KECCAK256 SLOAD AND SWAP8 CALLER ISZERO ISZERO DUP1 PUSH2 0x131D JUMPI JUMPDEST POP DUP9 ISZERO DUP1 ISZERO PUSH2 0x12EA JUMPI JUMPDEST DUP5 DUP5 MSTORE PUSH1 0x5 DUP4 MSTORE DUP8 DUP5 KECCAK256 DUP1 SLOAD PUSH1 0x1 ADD SWAP1 SSTORE DUP9 DUP5 MSTORE DUP11 DUP4 MSTORE DUP8 DUP5 KECCAK256 DUP1 SLOAD PUSH1 0x1 PUSH1 0x1 PUSH1 0xA0 SHL SUB NOT AND DUP7 OR SWAP1 SSTORE DUP9 DUP6 DUP12 PUSH32 0xDDF252AD1BE2C89B69C2B068FC378DAA952BA7F163C4A11628F55A4DF523B3EF DUP8 DUP1 LOG4 ISZERO PUSH2 0x127E JUMPI PUSH1 0xA SLOAD DUP9 DUP5 MSTORE PUSH1 0xB DUP4 MSTORE DUP1 DUP9 DUP6 KECCAK256 SSTORE PUSH1 0x1 PUSH1 0x40 SHL DUP2 LT ISZERO PUSH2 0x126B JUMPI DUP9 PUSH2 0x11C6 DUP3 PUSH1 0x1 PUSH2 0x11DF SWAP5 ADD PUSH1 0xA SSTORE PUSH2 0x1403 JUMP JUMPDEST SWAP1 SWAP2 SWAP1 DUP3 SLOAD SWAP1 PUSH1 0x3 SHL SWAP2 DUP3 SHL SWAP2 PUSH1 0x0 NOT SWAP1 SHL NOT AND OR SWAP1 SSTORE JUMP JUMPDEST DUP4 DUP10 SUB PUSH2 0x121A JUMPI JUMPDEST POP POP POP POP AND SWAP1 DUP2 DUP5 SUB PUSH2 0x11FB JUMPI POP POP POP POP POP JUMP JUMPDEST MLOAD PUSH4 0x64283D7B PUSH1 0xE0 SHL DUP2 MSTORE SWAP4 DUP5 ADD MSTORE PUSH1 0x24 DUP4 ADD MSTORE PUSH1 0x44 DUP3 ADD MSTORE PUSH1 0x64 SWAP2 POP REVERT JUMPDEST PUSH2 0x1223 SWAP1 PUSH2 0x10C8 JUMP JUMPDEST PUSH1 0x0 NOT DUP2 ADD SWAP4 SWAP1 DUP5 GT PUSH2 0x1258 JUMPI DUP3 SWAP2 PUSH1 0x9 SWAP2 DUP9 SWAP5 MSTORE PUSH1 0x8 DUP2 MSTORE DUP4 DUP4 KECCAK256 DUP6 DUP5 MSTORE DUP2 MSTORE DUP9 DUP5 DUP5 KECCAK256 SSTORE DUP9 DUP4 MSTORE MSTORE KECCAK256 SSTORE CODESIZE DUP1 DUP1 DUP1 PUSH2 0x11E7 JUMP JUMPDEST PUSH4 0x4E487B71 PUSH1 0xE0 SHL DUP4 MSTORE PUSH1 0x11 DUP11 MSTORE PUSH1 0x24 DUP4 REVERT JUMPDEST PUSH4 0x4E487B71 PUSH1 0xE0 SHL DUP5 MSTORE PUSH1 0x41 DUP12 MSTORE PUSH1 0x24 DUP5 REVERT JUMPDEST DUP9 DUP5 EQ PUSH2 0x11DF JUMPI PUSH2 0x128E DUP10 PUSH2 0x10C8 JUMP JUMPDEST DUP9 DUP5 MSTORE PUSH1 0x9 DUP4 MSTORE DUP8 DUP5 KECCAK256 SLOAD SWAP1 DUP11 DUP6 MSTORE PUSH1 0x8 DUP5 MSTORE DUP9 DUP6 KECCAK256 SWAP2 DUP2 DUP2 SUB PUSH2 0x12C8 JUMPI JUMPDEST POP DUP10 DUP6 MSTORE PUSH1 0x9 DUP5 MSTORE DUP5 DUP10 DUP2 KECCAK256 SSTORE DUP5 MSTORE DUP3 MSTORE DUP3 DUP8 DUP2 KECCAK256 SSTORE PUSH2 0x11DF JUMP JUMPDEST DUP2 DUP7 MSTORE DUP3 DUP6 MSTORE DUP10 DUP7 KECCAK256 SLOAD DUP2 DUP8 MSTORE DUP1 DUP12 DUP9 KECCAK256 SSTORE DUP7 MSTORE PUSH1 0x9 DUP6 MSTORE DUP10 DUP7 KECCAK256 SSTORE CODESIZE PUSH2 0x12AD JUMP JUMPDEST PUSH1 0x0 DUP10 DUP2 MSTORE PUSH1 0x6 PUSH1 0x20 MSTORE PUSH1 0x40 SWAP1 KECCAK256 DUP1 SLOAD PUSH1 0x1 PUSH1 0x1 PUSH1 0xA0 SHL SUB NOT AND SWAP1 SSTORE DUP10 DUP5 MSTORE PUSH1 0x5 DUP4 MSTORE DUP8 DUP5 KECCAK256 DUP1 SLOAD PUSH1 0x0 NOT ADD SWAP1 SSTORE PUSH2 0x1141 JUMP JUMPDEST DUP1 PUSH2 0x136E JUMPI JUMPDEST ISZERO PUSH2 0x132E JUMPI CODESIZE PUSH2 0x1137 JUMP JUMPDEST DUP8 DUP11 DUP9 DUP12 PUSH2 0x134B JUMPI SWAP2 PUSH1 0x24 SWAP3 MLOAD SWAP2 PUSH4 0x7E273289 PUSH1 0xE0 SHL DUP4 MSTORE DUP3 ADD MSTORE REVERT JUMPDEST MLOAD PUSH4 0x177E802F PUSH1 0xE0 SHL DUP2 MSTORE CALLER SWAP2 DUP2 ADD SWAP2 DUP3 MSTORE PUSH1 0x20 DUP3 ADD SWAP3 SWAP1 SWAP3 MSTORE DUP2 SWAP1 PUSH1 0x40 ADD SUB SWAP1 REVERT JUMPDEST POP CALLER DUP10 EQ DUP1 ISZERO PUSH2 0x1393 JUMPI JUMPDEST DUP1 PUSH2 0x1323 JUMPI POP DUP8 DUP4 MSTORE PUSH1 0x6 DUP3 MSTORE CALLER DUP7 DUP9 DUP6 KECCAK256 SLOAD AND EQ PUSH2 0x1323 JUMP JUMPDEST POP DUP9 DUP4 MSTORE PUSH1 0x7 DUP3 MSTORE DUP7 DUP4 KECCAK256 CALLER DUP5 MSTORE DUP3 MSTORE PUSH1 0xFF DUP8 DUP5 KECCAK256 SLOAD AND PUSH2 0x1379 JUMP JUMPDEST PUSH1 0x40 MLOAD PUSH4 0x32505749 PUSH1 0xE1 SHL DUP2 MSTORE PUSH1 0x0 PUSH1 0x4 DUP3 ADD MSTORE PUSH1 0x24 SWAP1 REVERT JUMPDEST PUSH1 0x0 DUP2 DUP2 MSTORE PUSH1 0x4 PUSH1 0x20 MSTORE PUSH1 0x40 SWAP1 KECCAK256 SLOAD PUSH1 0x1 PUSH1 0x1 PUSH1 0xA0 SHL SUB AND SWAP1 DUP2 ISZERO PUSH2 0x13EB JUMPI POP SWAP1 JUMP JUMPDEST PUSH1 0x24 SWAP1 PUSH1 0x40 MLOAD SWAP1 PUSH4 0x7E273289 PUSH1 0xE0 SHL DUP3 MSTORE PUSH1 0x4 DUP3 ADD MSTORE REVERT JUMPDEST PUSH1 0xA SLOAD DUP2 LT ISZERO PUSH2 0x143A JUMPI PUSH1 0xA PUSH1 0x0 MSTORE PUSH32 0xC65A7BB8D6351C1CF70C95A316CC6A92839C986682D98BC35F958F4883F9D2A8 ADD SWAP1 PUSH1 0x0 SWAP1 JUMP JUMPDEST PUSH4 0x4E487B71 PUSH1 0xE0 SHL PUSH1 0x0 MSTORE PUSH1 0x32 PUSH1 0x4 MSTORE PUSH1 0x24 PUSH1 0x0 REVERT JUMPDEST SWAP1 SWAP4 SWAP2 SWAP3 DUP4 EXTCODESIZE PUSH2 0x1462 JUMPI JUMPDEST POP POP POP POP POP JUMP JUMPDEST PUSH1 0x40 MLOAD PUSH4 0xA85BD01 PUSH1 0xE1 SHL DUP1 DUP3 MSTORE PUSH1 0x1 PUSH1 0x1 PUSH1 0xA0 SHL SUB SWAP4 DUP5 AND PUSH1 0x4 DUP4 ADD MSTORE SWAP6 DUP4 AND PUSH1 0x24 DUP3 ADD MSTORE PUSH1 0x44 DUP2 ADD SWAP2 SWAP1 SWAP2 MSTORE PUSH1 0x80 PUSH1 0x64 DUP3 ADD MSTORE SWAP5 SWAP3 AND SWAP3 PUSH1 0x20 SWAP3 SWAP2 DUP6 SWAP1 PUSH2 0x14AF SWAP1 PUSH1 0x84 DUP4 ADD SWAP1 PUSH2 0xF30 JUMP JUMPDEST SUB SWAP5 DUP4 DUP2 PUSH1 0x0 SWAP8 DUP2 DUP10 DUP10 GAS CALL DUP7 SWAP2 DUP2 PUSH2 0x155A JUMPI JUMPDEST POP PUSH2 0x1524 JUMPI POP POP POP RETURNDATASIZE PUSH1 0x0 EQ PUSH2 0x151B JUMPI RETURNDATASIZE PUSH2 0x14DD DUP2 PUSH2 0x100F JUMP JUMPDEST SWAP1 PUSH2 0x14EB PUSH1 0x40 MLOAD SWAP3 DUP4 PUSH2 0xFED JUMP JUMPDEST DUP2 MSTORE DUP1 SWAP4 DUP3 RETURNDATASIZE SWAP3 ADD RETURNDATACOPY JUMPDEST DUP3 MLOAD SWAP3 DUP4 PUSH2 0x1516 JUMPI PUSH1 0x40 MLOAD PUSH4 0x32505749 PUSH1 0xE1 SHL DUP2 MSTORE PUSH1 0x4 DUP2 ADD DUP5 SWAP1 MSTORE PUSH1 0x24 SWAP1 REVERT JUMPDEST ADD SWAP1 POP REVERT JUMPDEST PUSH1 0x60 SWAP3 POP PUSH2 0x14F5 JUMP JUMPDEST SWAP2 SWAP5 POP SWAP2 POP PUSH4 0xFFFFFFFF PUSH1 0xE0 SHL AND SUB PUSH2 0x1542 JUMPI POP CODESIZE DUP1 DUP1 DUP1 DUP1 PUSH2 0x145B JUMP JUMPDEST PUSH1 0x24 SWAP1 PUSH1 0x40 MLOAD SWAP1 PUSH4 0x32505749 PUSH1 0xE1 SHL DUP3 MSTORE PUSH1 0x4 DUP3 ADD MSTORE REVERT JUMPDEST SWAP1 SWAP2 POP DUP5 DUP2 DUP2 RETURNDATASIZE DUP4 GT PUSH2 0x1597 JUMPI JUMPDEST PUSH2 0x1572 DUP2 DUP4 PUSH2 0xFED JUMP JUMPDEST DUP2 ADD SUB SLT PUSH2 0x1593 JUMPI MLOAD PUSH1 0x1 PUSH1 0x1 PUSH1 0xE0 SHL SUB NOT DUP2 AND DUP2 SUB PUSH2 0x1593 JUMPI SWAP1 CODESIZE PUSH2 0x14C3 JUMP JUMPDEST DUP7 DUP1 REVERT JUMPDEST POP RETURNDATASIZE PUSH2 0x1568 JUMP JUMPDEST PUSH1 0x0 NOT DUP2 EQ PUSH2 0x15AD JUMPI PUSH1 0x1 ADD SWAP1 JUMP JUMPDEST PUSH4 0x4E487B71 PUSH1 0xE0 SHL PUSH1 0x0 MSTORE PUSH1 0x11 PUSH1 0x4 MSTORE PUSH1 0x24 PUSH1 0x0 REVERT JUMPDEST PUSH1 0x40 SWAP1 DUP2 MLOAD SWAP2 PUSH2 0x15D2 DUP4 PUSH2 0xFBB JUMP JUMPDEST PUSH1 0x0 DUP1 DUP5 MSTORE SWAP4 PUSH1 0x1 PUSH1 0x1 PUSH1 0xA0 SHL SUB SWAP4 DUP4 DUP6 AND SWAP4 DUP5 ISZERO PUSH2 0x18EE JUMPI SWAP1 DUP3 SWAP2 PUSH32 0xDDF252AD1BE2C89B69C2B068FC378DAA952BA7F163C4A11628F55A4DF523B3EF SWAP4 DUP9 MSTORE PUSH1 0x4 SWAP7 DUP9 DUP8 DUP8 DUP7 DUP3 DUP13 PUSH1 0x20 SWAP11 DUP12 SWAP8 DUP3 DUP10 MSTORE DUP6 DUP9 KECCAK256 SLOAD AND SWAP7 DUP8 SWAP3 DUP4 ISZERO SWAP7 PUSH1 0x5 DUP9 ISZERO SWAP12 DUP13 PUSH2 0x18BC JUMPI JUMPDEST DUP8 DUP6 MSTORE MSTORE DUP3 KECCAK256 DUP1 SLOAD PUSH1 0x1 ADD SWAP1 SSTORE DUP6 DUP3 MSTORE DUP14 MSTORE DUP14 DUP2 KECCAK256 DUP1 SLOAD PUSH1 0x1 PUSH1 0x1 PUSH1 0xA0 SHL SUB NOT AND DUP6 OR SWAP1 SSTORE DUP1 LOG4 ISZERO PUSH2 0x184C JUMPI POP PUSH1 0xA SLOAD DUP6 DUP12 MSTORE PUSH1 0xB DUP8 MSTORE DUP1 DUP9 DUP13 KECCAK256 SSTORE PUSH1 0x1 PUSH1 0x40 SHL DUP2 LT ISZERO PUSH2 0x1839 JUMPI SWAP1 PUSH2 0x1697 DUP7 PUSH2 0x11C6 DUP5 PUSH1 0x1 DUP14 SWAP7 ADD PUSH1 0xA SSTORE PUSH2 0x1403 JUMP JUMPDEST SUB PUSH2 0x17ED JUMPI JUMPDEST PUSH2 0x17D6 JUMPI EXTCODESIZE PUSH2 0x16B0 JUMPI JUMPDEST POP POP POP POP POP POP POP JUMP JUMPDEST DUP3 PUSH2 0x16EE SWAP2 DUP6 SWAP7 SWAP8 SWAP9 SWAP10 SWAP5 SWAP6 MLOAD DUP1 SWAP4 DUP2 SWAP3 PUSH4 0xA85BD01 PUSH1 0xE1 SHL SWAP7 DUP8 DUP5 MSTORE CALLER DUP14 DUP6 ADD MSTORE DUP14 PUSH1 0x24 DUP6 ADD MSTORE PUSH1 0x44 DUP5 ADD MSTORE PUSH1 0x80 PUSH1 0x64 DUP5 ADD MSTORE PUSH1 0x84 DUP4 ADD SWAP1 PUSH2 0xF30 JUMP JUMPDEST SUB DUP2 DUP12 DUP11 GAS CALL DUP9 SWAP2 DUP2 PUSH2 0x1792 JUMPI JUMPDEST POP PUSH2 0x175B JUMPI POP POP POP RETURNDATASIZE PUSH1 0x0 EQ PUSH2 0x1752 JUMPI RETURNDATASIZE PUSH2 0x1716 DUP2 PUSH2 0x100F JUMP JUMPDEST SWAP1 PUSH2 0x1723 DUP5 MLOAD SWAP3 DUP4 PUSH2 0xFED JUMP JUMPDEST DUP2 MSTORE DUP1 SWAP6 DUP3 RETURNDATASIZE SWAP3 ADD RETURNDATACOPY JUMPDEST DUP5 MLOAD SWAP5 DUP6 PUSH2 0x174C JUMPI POP POP MLOAD PUSH4 0x32505749 PUSH1 0xE1 SHL DUP2 MSTORE SWAP2 DUP3 ADD MSTORE PUSH1 0x24 SWAP2 POP REVERT JUMPDEST DUP6 SWAP3 POP ADD REVERT JUMPDEST PUSH1 0x60 SWAP5 POP PUSH2 0x172D JUMP JUMPDEST SWAP2 SWAP7 POP SWAP2 POP PUSH4 0xFFFFFFFF PUSH1 0xE0 SHL AND SUB PUSH2 0x177D JUMPI POP POP POP CODESIZE DUP1 DUP1 DUP1 DUP1 DUP1 DUP1 PUSH2 0x16A7 JUMP JUMPDEST MLOAD PUSH4 0x32505749 PUSH1 0xE1 SHL DUP2 MSTORE SWAP2 DUP3 ADD MSTORE PUSH1 0x24 SWAP2 POP REVERT JUMPDEST SWAP1 SWAP2 POP DUP5 DUP2 DUP2 RETURNDATASIZE DUP4 GT PUSH2 0x17CF JUMPI JUMPDEST PUSH2 0x17AA DUP2 DUP4 PUSH2 0xFED JUMP JUMPDEST DUP2 ADD SUB SLT PUSH2 0x17CB JUMPI MLOAD PUSH1 0x1 PUSH1 0x1 PUSH1 0xE0 SHL SUB NOT DUP2 AND DUP2 SUB PUSH2 0x17CB JUMPI SWAP1 CODESIZE PUSH2 0x16FC JUMP JUMPDEST DUP9 DUP1 REVERT JUMPDEST POP RETURNDATASIZE PUSH2 0x17A0 JUMP JUMPDEST DUP5 MLOAD PUSH4 0x39E35637 PUSH1 0xE1 SHL DUP2 MSTORE DUP1 DUP9 ADD DUP10 SWAP1 MSTORE PUSH1 0x24 SWAP1 REVERT JUMPDEST PUSH2 0x17F6 DUP3 PUSH2 0x10C8 JUMP JUMPDEST PUSH1 0x0 NOT DUP2 ADD SWAP1 DUP2 GT PUSH2 0x1826 JUMPI DUP8 DUP11 MSTORE PUSH1 0x8 DUP7 MSTORE DUP7 DUP11 KECCAK256 DUP2 DUP12 MSTORE DUP7 MSTORE DUP5 DUP8 DUP12 KECCAK256 SSTORE DUP5 DUP11 MSTORE PUSH1 0x9 DUP7 MSTORE DUP7 DUP11 KECCAK256 SSTORE PUSH2 0x169D JUMP JUMPDEST PUSH4 0x4E487B71 PUSH1 0xE0 SHL DUP11 MSTORE PUSH1 0x11 DUP10 MSTORE PUSH1 0x24 DUP11 REVERT JUMPDEST PUSH4 0x4E487B71 PUSH1 0xE0 SHL DUP12 MSTORE PUSH1 0x41 DUP11 MSTORE PUSH1 0x24 DUP12 REVERT JUMPDEST SWAP1 DUP1 DUP3 EQ PUSH2 0x1697 JUMPI DUP11 PUSH2 0x185E DUP3 PUSH2 0x10C8 JUMP JUMPDEST DUP8 DUP3 MSTORE PUSH1 0x9 DUP10 MSTORE DUP10 DUP3 KECCAK256 SLOAD DUP4 DUP4 MSTORE PUSH1 0x8 DUP11 MSTORE DUP11 DUP1 DUP5 KECCAK256 SWAP4 DUP4 DUP4 SUB PUSH2 0x189A JUMPI JUMPDEST SWAP1 POP DUP10 SWAP2 POP MSTORE PUSH1 0x9 DUP10 MSTORE DUP13 DUP11 DUP2 KECCAK256 SSTORE DUP13 MSTORE DUP8 MSTORE DUP11 DUP9 DUP2 KECCAK256 SSTORE PUSH2 0x1697 JUMP JUMPDEST DUP4 DUP2 MSTORE DUP5 DUP13 MSTORE DUP2 DUP2 KECCAK256 SLOAD DUP4 DUP3 MSTORE DUP1 DUP4 DUP4 KECCAK256 SSTORE DUP2 MSTORE PUSH1 0x9 DUP13 MSTORE KECCAK256 SSTORE CODESIZE DUP11 DUP15 PUSH2 0x187D JUMP JUMPDEST PUSH1 0x0 DUP10 DUP2 MSTORE PUSH1 0x6 PUSH1 0x20 MSTORE PUSH1 0x40 SWAP1 KECCAK256 DUP1 SLOAD PUSH1 0x1 PUSH1 0x1 PUSH1 0xA0 SHL SUB NOT AND SWAP1 SSTORE DUP7 DUP6 MSTORE DUP2 DUP2 MSTORE DUP3 DUP6 KECCAK256 DUP1 SLOAD PUSH1 0x0 NOT ADD SWAP1 SSTORE PUSH2 0x1639 JUMP JUMPDEST DUP4 MLOAD PUSH4 0x32505749 PUSH1 0xE1 SHL DUP2 MSTORE PUSH1 0x4 DUP2 ADD DUP9 SWAP1 MSTORE PUSH1 0x24 SWAP1 REVERT JUMPDEST PUSH8 0xFFFFFFFFFFFFFFFF DUP2 GT PUSH2 0xFD7 JUMPI PUSH1 0x5 SHL PUSH1 0x20 ADD SWAP1 JUMP JUMPDEST PUSH2 0x1927 DUP2 PUSH2 0x13C8 JUMP JUMPDEST POP PUSH1 0xE SLOAD SWAP1 PUSH2 0x1935 DUP3 PUSH2 0x1062 JUMP JUMPDEST ISZERO PUSH2 0x1A18 JUMPI PUSH2 0x1943 SWAP1 PUSH2 0x1A2D JUMP JUMPDEST PUSH1 0x40 MLOAD DUP1 SWAP3 PUSH1 0x0 SWAP1 PUSH2 0x1954 DUP2 PUSH2 0x1062 JUMP JUMPDEST SWAP1 PUSH1 0x1 SWAP1 DUP2 DUP2 AND SWAP1 DUP2 ISZERO PUSH2 0x19F3 JUMPI POP PUSH1 0x1 EQ PUSH2 0x19A4 JUMPI JUMPDEST POP POP SWAP1 PUSH1 0x20 DUP3 PUSH2 0x1986 DUP6 PUSH1 0x5 SWAP6 PUSH2 0x19A1 SWAP8 MLOAD SWAP5 DUP6 SWAP3 ADD PUSH2 0xF0D JUMP JUMPDEST ADD PUSH5 0x173539B7B7 PUSH1 0xD9 SHL DUP2 MSTORE SUB PUSH1 0x1A NOT DUP2 ADD DUP5 MSTORE ADD DUP3 PUSH2 0xFED JUMP JUMPDEST SWAP1 JUMP JUMPDEST PUSH1 0xE PUSH1 0x0 SWAP1 DUP2 MSTORE SWAP2 SWAP3 POP PUSH1 0x0 DUP1 MLOAD PUSH1 0x20 PUSH2 0x1B04 DUP4 CODECOPY DUP2 MLOAD SWAP2 MSTORE JUMPDEST DUP4 DUP4 LT PUSH2 0x19D8 JUMPI POP POP POP DUP2 ADD PUSH1 0x20 SWAP1 DUP2 ADD SWAP1 PUSH2 0x19A1 PUSH2 0x196B JUMP JUMPDEST DUP1 SLOAD PUSH1 0x20 DUP5 DUP10 ADD DUP2 ADD SWAP2 SWAP1 SWAP2 MSTORE DUP8 SWAP6 POP SWAP1 SWAP3 ADD SWAP2 DUP2 ADD PUSH2 0x19BE JUMP JUMPDEST PUSH1 0xFF NOT AND PUSH1 0x20 DUP1 DUP8 ADD SWAP2 SWAP1 SWAP2 MSTORE DUP4 ISZERO ISZERO SWAP1 SWAP4 MUL DUP6 ADD DUP4 ADD SWAP4 POP PUSH2 0x19A1 SWAP2 POP PUSH2 0x196B SWAP1 POP JUMP JUMPDEST POP POP PUSH1 0x40 MLOAD PUSH2 0x1A26 DUP2 PUSH2 0xFBB JUMP JUMPDEST PUSH1 0x0 DUP2 MSTORE SWAP1 JUMP JUMPDEST DUP1 ISZERO PUSH2 0x1AD4 JUMPI PUSH1 0x0 DUP2 DUP1 JUMPDEST PUSH2 0x1AC0 JUMPI POP PUSH2 0x1A46 DUP2 PUSH2 0x100F JUMP JUMPDEST SWAP1 PUSH2 0x1A54 PUSH1 0x40 MLOAD SWAP3 DUP4 PUSH2 0xFED JUMP JUMPDEST DUP1 DUP3 MSTORE PUSH1 0x1F NOT PUSH2 0x1A63 DUP3 PUSH2 0x100F JUMP JUMPDEST ADD CALLDATASIZE PUSH1 0x20 DUP5 ADD CALLDATACOPY JUMPDEST DUP1 SWAP3 DUP1 ISZERO PUSH2 0x1AB9 JUMPI PUSH1 0x0 NOT DUP3 ADD SWAP2 DUP3 GT PUSH2 0x15AD JUMPI DUP2 SWAP4 PUSH1 0xA SWAP3 PUSH1 0x30 SWAP1 DUP5 DUP5 MOD DUP3 ADD DUP1 SWAP3 GT PUSH2 0x15AD JUMPI DUP6 MLOAD GT ISZERO PUSH2 0x143A JUMPI PUSH1 0xF8 SHL PUSH1 0x1 PUSH1 0x1 PUSH1 0xF8 SHL SUB NOT AND PUSH1 0x0 BYTE SWAP1 DUP5 ADD PUSH1 0x1F ADD MSTORE8 DIV SWAP2 PUSH2 0x1A6B JUMP JUMPDEST POP POP SWAP1 POP SWAP1 JUMP JUMPDEST SWAP1 PUSH2 0x1ACC PUSH1 0xA SWAP2 PUSH2 0x159E JUMP JUMPDEST SWAP2 DIV DUP1 PUSH2 0x1A38 JUMP JUMPDEST POP PUSH1 0x40 MLOAD PUSH1 0x40 DUP2 ADD DUP2 DUP2 LT PUSH8 0xFFFFFFFFFFFFFFFF DUP3 GT OR PUSH2 0xFD7 JUMPI PUSH1 0x40 MSTORE PUSH1 0x1 DUP2 MSTORE PUSH1 0x3 PUSH1 0xFC SHL PUSH1 0x20 DUP3 ADD MSTORE SWAP1 JUMP INVALID 0xBB PUSH28 0x4A454DC3493923482F07822329ED19E8244EFF582CC204F8554C3620 0xC3 REVERT LOG1 PUSH5 0x736F6C6343 STOP ADDMOD EQ STOP EXP "},"methodIdentifiers":{"approve(address,uint256)":"095ea7b3","balanceOf(address)":"70a08231","baseURI()":"6c0360eb","getApproved(uint256)":"081812fc","getNextTokenId()":"caa0f92a","isApprovedForAll(address,address)":"e985e9c5","mint(address)":"6a627842","mintBatch(address,uint256)":"248b71fc","name()":"06fdde03","owner()":"8da5cb5b","ownerOf(uint256)":"6352211e","renounceOwnership()":"715018a6","royaltyInfo(uint256,uint256)":"2a55205a","royaltyPercentage()":"8a71bb2d","royaltyReceiver()":"9fbc8713","safeTransferFrom(address,address,uint256)":"42842e0e","safeTransferFrom(address,address,uint256,bytes)":"b88d4fde","setApprovalForAll(address,bool)":"a22cb465","setBaseURI(string)":"55f804b3","setRoyalty(address,uint96)":"8f2fc60b","supportsInterface(bytes4)":"01ffc9a7","symbol()":"95d89b41","tokenByIndex(uint256)":"4f6ccce7","tokenOfOwnerByIndex(address,uint256)":"2f745c59","tokenURI(uint256)":"c87b56dd","totalSupply()":"18160ddd","transferFrom(address,address,uint256)":"23b872dd","transferOwnership(address)":"f2fde38b"}}}}}