{"src/contracts/UniswapV2Pair.sol":{"UniswapV2Pair":{"abi":[{"inputs":[{"internalType":"address","name":"_token0","type":"address"},{"internalType":"address","name":"_token1","type":"address"},{"internalType":"string","name":"lpName","type":"string"},{"internalType":"string","name":"lpSymbol","type":"string"},{"internalType":"address","name":"initialOwner","type":"address"}],"stateMutability":"nonpayable","type":"constructor"},{"inputs":[{"internalType":"address","name":"spender","type":"address"},{"internalType":"uint256","name":"allowance","type":"uint256"},{"internalType":"uint256","name":"needed","type":"uint256"}],"name":"ERC20InsufficientAllowance","type":"error"},{"inputs":[{"internalType":"address","name":"sender","type":"address"},{"internalType":"uint256","name":"balance","type":"uint256"},{"internalType":"uint256","name":"needed","type":"uint256"}],"name":"ERC20InsufficientBalance","type":"error"},{"inputs":[{"internalType":"address","name":"approver","type":"address"}],"name":"ERC20InvalidApprover","type":"error"},{"inputs":[{"internalType":"address","name":"receiver","type":"address"}],"name":"ERC20InvalidReceiver","type":"error"},{"inputs":[{"internalType":"address","name":"sender","type":"address"}],"name":"ERC20InvalidSender","type":"error"},{"inputs":[{"internalType":"address","name":"spender","type":"address"}],"name":"ERC20InvalidSpender","type":"error"},{"inputs":[{"internalType":"address","name":"owner","type":"address"}],"name":"OwnableInvalidOwner","type":"error"},{"inputs":[{"internalType":"address","name":"account","type":"address"}],"name":"OwnableUnauthorizedAccount","type":"error"},{"inputs":[],"name":"ReentrancyGuardReentrantCall","type":"error"},{"anonymous":false,"inputs":[{"indexed":true,"internalType":"address","name":"owner","type":"address"},{"indexed":true,"internalType":"address","name":"spender","type":"address"},{"indexed":false,"internalType":"uint256","name":"value","type":"uint256"}],"name":"Approval","type":"event"},{"anonymous":false,"inputs":[{"indexed":true,"internalType":"address","name":"sender","type":"address"},{"indexed":false,"internalType":"uint256","name":"amount0","type":"uint256"},{"indexed":false,"internalType":"uint256","name":"amount1","type":"uint256"},{"indexed":true,"internalType":"address","name":"to","type":"address"}],"name":"Burn","type":"event"},{"anonymous":false,"inputs":[{"indexed":true,"internalType":"address","name":"sender","type":"address"},{"indexed":false,"internalType":"uint256","name":"amount0","type":"uint256"},{"indexed":false,"internalType":"uint256","name":"amount1","type":"uint256"}],"name":"Mint","type":"event"},{"anonymous":false,"inputs":[{"indexed":true,"internalType":"address","name":"previousOwner","type":"address"},{"indexed":true,"internalType":"address","name":"newOwner","type":"address"}],"name":"OwnershipTransferred","type":"event"},{"anonymous":false,"inputs":[{"indexed":true,"internalType":"address","name":"sender","type":"address"},{"indexed":false,"internalType":"uint256","name":"amount0In","type":"uint256"},{"indexed":false,"internalType":"uint256","name":"amount1In","type":"uint256"},{"indexed":false,"internalType":"uint256","name":"amount0Out","type":"uint256"},{"indexed":false,"internalType":"uint256","name":"amount1Out","type":"uint256"},{"indexed":true,"internalType":"address","name":"to","type":"address"}],"name":"Swap","type":"event"},{"anonymous":false,"inputs":[{"indexed":false,"internalType":"uint256","name":"reserve0","type":"uint256"},{"indexed":false,"internalType":"uint256","name":"reserve1","type":"uint256"}],"name":"Sync","type":"event"},{"anonymous":false,"inputs":[{"indexed":true,"internalType":"address","name":"from","type":"address"},{"indexed":true,"internalType":"address","name":"to","type":"address"},{"indexed":false,"internalType":"uint256","name":"value","type":"uint256"}],"name":"Transfer","type":"event"},{"inputs":[],"name":"BASIS_POINTS","outputs":[{"internalType":"uint256","name":"","type":"uint256"}],"stateMutability":"view","type":"function"},{"inputs":[],"name":"FEE_PERCENTAGE","outputs":[{"internalType":"uint256","name":"","type":"uint256"}],"stateMutability":"view","type":"function"},{"inputs":[{"internalType":"address","name":"owner","type":"address"},{"internalType":"address","name":"spender","type":"address"}],"name":"allowance","outputs":[{"internalType":"uint256","name":"","type":"uint256"}],"stateMutability":"view","type":"function"},{"inputs":[{"internalType":"address","name":"spender","type":"address"},{"internalType":"uint256","name":"value","type":"uint256"}],"name":"approve","outputs":[{"internalType":"bool","name":"","type":"bool"}],"stateMutability":"nonpayable","type":"function"},{"inputs":[{"internalType":"address","name":"account","type":"address"}],"name":"balanceOf","outputs":[{"internalType":"uint256","name":"","type":"uint256"}],"stateMutability":"view","type":"function"},{"inputs":[{"internalType":"address","name":"to","type":"address"}],"name":"burn","outputs":[{"internalType":"uint256","name":"amount0","type":"uint256"},{"internalType":"uint256","name":"amount1","type":"uint256"}],"stateMutability":"nonpayable","type":"function"},{"inputs":[],"name":"decimals","outputs":[{"internalType":"uint8","name":"","type":"uint8"}],"stateMutability":"view","type":"function"},{"inputs":[{"internalType":"uint256","name":"amountOut","type":"uint256"},{"internalType":"uint256","name":"reserveIn","type":"uint256"},{"internalType":"uint256","name":"reserveOut","type":"uint256"}],"name":"getAmountIn","outputs":[{"internalType":"uint256","name":"amountIn","type":"uint256"}],"stateMutability":"pure","type":"function"},{"inputs":[{"internalType":"uint256","name":"amountIn","type":"uint256"},{"internalType":"uint256","name":"reserveIn","type":"uint256"},{"internalType":"uint256","name":"reserveOut","type":"uint256"}],"name":"getAmountOut","outputs":[{"internalType":"uint256","name":"amountOut","type":"uint256"}],"stateMutability":"pure","type":"function"},{"inputs":[],"name":"kLast","outputs":[{"internalType":"uint256","name":"","type":"uint256"}],"stateMutability":"view","type":"function"},{"inputs":[{"internalType":"address","name":"to","type":"address"}],"name":"mint","outputs":[{"internalType":"uint256","name":"liquidity","type":"uint256"}],"stateMutability":"nonpayable","type":"function"},{"inputs":[],"name":"name","outputs":[{"internalType":"string","name":"","type":"string"}],"stateMutability":"view","type":"function"},{"inputs":[],"name":"owner","outputs":[{"internalType":"address","name":"","type":"address"}],"stateMutability":"view","type":"function"},{"inputs":[],"name":"renounceOwnership","outputs":[],"stateMutability":"nonpayable","type":"function"},{"inputs":[],"name":"reserve0","outputs":[{"internalType":"uint256","name":"","type":"uint256"}],"stateMutability":"view","type":"function"},{"inputs":[],"name":"reserve1","outputs":[{"internalType":"uint256","name":"","type":"uint256"}],"stateMutability":"view","type":"function"},{"inputs":[{"internalType":"uint256","name":"amount0Out","type":"uint256"},{"internalType":"uint256","name":"amount1Out","type":"uint256"},{"internalType":"address","name":"to","type":"address"},{"internalType":"bytes","name":"data","type":"bytes"}],"name":"swap","outputs":[],"stateMutability":"nonpayable","type":"function"},{"inputs":[],"name":"symbol","outputs":[{"internalType":"string","name":"","type":"string"}],"stateMutability":"view","type":"function"},{"inputs":[],"name":"token0","outputs":[{"internalType":"contract IERC20","name":"","type":"address"}],"stateMutability":"view","type":"function"},{"inputs":[],"name":"token1","outputs":[{"internalType":"contract IERC20","name":"","type":"address"}],"stateMutability":"view","type":"function"},{"inputs":[],"name":"totalSupply","outputs":[{"internalType":"uint256","name":"","type":"uint256"}],"stateMutability":"view","type":"function"},{"inputs":[{"internalType":"address","name":"to","type":"address"},{"internalType":"uint256","name":"value","type":"uint256"}],"name":"transfer","outputs":[{"internalType":"bool","name":"","type":"bool"}],"stateMutability":"nonpayable","type":"function"},{"inputs":[{"internalType":"address","name":"from","type":"address"},{"internalType":"address","name":"to","type":"address"},{"internalType":"uint256","name":"value","type":"uint256"}],"name":"transferFrom","outputs":[{"internalType":"bool","name":"","type":"bool"}],"stateMutability":"nonpayable","type":"function"},{"inputs":[{"internalType":"address","name":"newOwner","type":"address"}],"name":"transferOwnership","outputs":[],"stateMutability":"nonpayable","type":"function"}],"evm":{"bytecode":{"linkReferences":{},"object":"608060405234620003e65762001c69803803806200001d81620003eb565b928339810160a082820312620003e657620000388262000411565b916020916200004983830162000411565b60408301519091906001600160401b0390818111620003e657826200007091860162000426565b91606085015190828211620003e657620000936080916200009b93880162000426565b950162000411565b938251828111620002e6576003918254916001958684811c94168015620003db575b8a851014620003c5578190601f948581116200036f575b508a908583116001146200030857600092620002fc575b505060001982861b1c191690861b1783555b8051938411620002e65760049788548681811c91168015620002db575b82821014620002c6579081848796959493116200026a575b5080928511600114620001fc5750600093620001f0575b505082841b92600019911b1c19161784555b6005556001600160a01b03918216928315620001d85750600680546001600160a01b0319808216861790925560405195919484929183167f8be0079c531659141344cd1fd0a4f28419497f9722a3daafe3b4186f6b6457e0600080a316836007541617600755169060085416176008556117d09081620004998239f35b602490600060405191631e4fbdf760e01b8352820152fd5b01519150388062000149565b929190869550601f1985168a60005284600020946000905b82821062000250575050851162000235575b50505050811b0184556200015b565b01519060f884600019921b161c191690553880808062000226565b848401518755899890960195938401939081019062000214565b90919293945089600052816000208480880160051c820192848910620002bc575b918991899897969594930160051c01915b828110620002ac57505062000132565b600081558897508991016200029c565b925081926200028b565b60228a634e487b7160e01b6000525260246000fd5b90607f16906200011a565b634e487b7160e01b600052604160045260246000fd5b015190503880620000eb565b60008781528c81208a9550929190601f198516908e5b8282106200035757505084116200033e575b505050811b018355620000fd565b015160001983881b60f8161c1916905538808062000330565b8385015186558c979095019493840193018e6200031e565b909150856000528a6000208580850160051c8201928d8610620003bb575b918a91869594930160051c01915b828110620003ab575050620000d4565b600081558594508a91016200039b565b925081926200038d565b634e487b7160e01b600052602260045260246000fd5b93607f1693620000bd565b600080fd5b6040519190601f01601f191682016001600160401b03811183821017620002e657604052565b51906001600160a01b0382168203620003e657565b919080601f84011215620003e65782516001600160401b038111620002e6576020906200045c601f8201601f19168301620003eb565b92818452828287010111620003e65760005b8181106200048457508260009394955001015290565b85810183015184820184015282016200046e56fe608080604052600436101561001357600080fd5b60003560e01c9081620b46f81461139657508063022c0d9f14610f51578063054d50d414610ee357806306fdde0314610e25578063095ea7b314610d9f5780630dfe168114610d7657806318160ddd14610d5857806323b872dd14610c66578063313ce56714610c4a578063443cb4bc14610c2c5780635a76f25e14610c0e5780636a6278421461091d57806370a08231146108e3578063715018a6146108865780637464fc3d1461086857806385f8c259146107cb57806389afcb44146103b05780638da5cb5b1461038757806395d89b4114610282578063a9059cbb14610251578063d21220a714610228578063dd62ed3e146101d7578063e1f1c4a7146101b95763f2fde38b1461012657600080fd5b346101b45760203660031901126101b45761013f6113b1565b610147611440565b6001600160a01b0390811690811561019b57600654826bffffffffffffffffffffffff60a01b821617600655167f8be0079c531659141344cd1fd0a4f28419497f9722a3daafe3b4186f6b6457e0600080a3005b604051631e4fbdf760e01b815260006004820152602490fd5b600080fd5b346101b45760003660031901126101b4576020604051620186a08152f35b346101b45760403660031901126101b4576101f06113b1565b6101f86113c7565b9060018060a01b038091166000526001602052604060002091166000526020526020604060002054604051908152f35b346101b45760003660031901126101b4576008546040516001600160a01b039091168152602090f35b346101b45760403660031901126101b45761027761026d6113b1565b60243590336114a4565b602060405160018152f35b346101b45760003660031901126101b457604051600090600454600181811c9080831692831561037d575b60209384841081146103675783865290811561034757506001146102ec575b6102e8846102dc8188038261146c565b604051918291826113f7565b0390f35b600460009081529294507f8a35acfbc15ff81a39ae7d344fd709f28e8600b4aa8c65c6b64bfe7fe36bd19b5b82841061033457505050816102e8936102dc92820101936102cc565b8054858501870152928501928101610318565b60ff1916858501525050151560051b82010191506102dc816102e86102cc565b634e487b7160e01b600052602260045260246000fd5b91607f16916102ad565b346101b45760003660031901126101b4576006546040516001600160a01b039091168152602090f35b346101b4576020806003193601126101b4576103ca6113b1565b906103d36115e7565b60018060a01b039081600754169060405193849382856370a0823160e01b9586825230600483015260249889915afa938415610658578695600095610799575b50838260085416604051978880928582523060048301525afa9586156106585760009661076a575b50306000526000845261046f610463610463610468604060002054986002549384918b6115b4565b6115c7565b98886115b4565b9486151580610761575b1561071d5730156107055730600052600085526040600020548181106106dd578188939260009230845283895203604083205580600254036002556040519081527fddf252ad1be2c89b69c2b068fc378daa952ba7f163c4a11628f55a4df523b3ef873092a360075460405163a9059cbb60e01b8082526001600160a01b038716600483015260248201949094529086908290604490829060009089165af1801561065857610530916000916106c0575b50611622565b6008546040519283526001600160a01b03851660048401526024830187905285908390604490829060009088165af191821561065857889261057a91600091610693575b50611667565b848360075416604051998a80928582523060048301525afa97881561065857600098610664575b5084908360085416926040518094819382523060048301525afa9081156106585760009161062a575b506105d790604097611789565b6105e6600954600a54906115b4565b600b55855191858352848484015216907fdccd412f0b1252819cb1fd330b93224ca42612892bb3f4f789976e6d81936496863392a360016005558351928352820152f35b90508381813d8311610651575b610641818361146c565b810103126101b4575160406105ca565b503d610637565b6040513d6000823e3d90fd5b9097508481813d831161068c575b61067c818361146c565b810103126101b4575196846105a1565b503d610672565b6106b39150873d89116106b9575b6106ab818361146c565b81019061160a565b8a610574565b503d6106a1565b6106d79150873d89116106b9576106ab818361146c565b8a61052a565b60405163391434e360e21b815230600482015260248101919091526044810191909152606490fd5b604051634b637e8f60e11b8152600060048201528890fd5b60405162461bcd60e51b815260048101869052601d818a01527f496e73756666696369656e74206c6971756964697479206275726e65640000006044820152606490fd5b50851515610479565b9095508381813d8311610792575b610782818361146c565b810103126101b45751948761043b565b503d610778565b955093508285813d81116107c4575b6107b2818361146c565b810103126101b4578594519387610413565b503d6107a8565b346101b4576108026107dc366113dd565b929082906107eb8215156116ac565b8015158061085f575b6107fd906116f8565b6115b4565b90620186a0918281029281840414901517156108495761082861082d916108339461158f565b61159c565b906115c7565b6001810180911161084957602090604051908152f35b634e487b7160e01b600052601160045260246000fd5b508415156107f4565b346101b45760003660031901126101b4576020600b54604051908152f35b346101b45760003660031901126101b45761089f611440565b600680546001600160a01b031981169091556000906001600160a01b03167f8be0079c531659141344cd1fd0a4f28419497f9722a3daafe3b4186f6b6457e08280a3005b346101b45760203660031901126101b4576001600160a01b036109046113b1565b1660005260006020526020604060002054604051908152f35b346101b4576020806003193601126101b4576109376113b1565b61093f6115e7565b6007546040516370a0823160e01b8082523060048301526024926001600160a01b039290869082908690829087165afa90811561065857600091610be1575b5085836008541692856040518095819382523060048301525afa91821561065857600092610bb2575b50600954936109b6858361158f565b94600a54946109c5868661158f565b95600254928315600014610b7f5750506109df86886115b4565b60006003821115610b7157508060019080821c828101809111610b5c5791905b838310610b3c575050505b6103e7198101908111610b2757975b8815610ae35716918215610acd575090610a3887610a7e959493611582565b6002558060005260008852604060002087815401905560007fddf252ad1be2c89b69c2b068fc378daa952ba7f163c4a11628f55a4df523b3ef896040518a8152a3611789565b610a8d600954600a54906115b4565b600b55604051918252838201527f4c209b5fc8ad50758f13e2e1088ba56a560dff690a1c6fef26394f4c03821c4f60403392a26001600555604051908152f35b60405163ec442f0560e01b815260006004820152fd5b60405162461bcd60e51b8152600481018b9052601d818601527f496e73756666696369656e74206c6971756964697479206d696e7465640000006044820152606490fd5b83634e487b7160e01b60005260116004526000fd5b90919250610b5383610b4e81846115c7565b611582565b821c91906109ff565b86634e487b7160e01b60005260116004526000fd5b9015610a0a57506001610a0a565b610b90610b9b91610463868c6115b4565b91610463858a6115b4565b80821015610bab57505b97610a19565b9050610ba5565b9091508581813d8311610bda575b610bca818361146c565b810103126101b4575190866109a7565b503d610bc0565b90508581813d8311610c07575b610bf8818361146c565b810103126101b457518661097e565b503d610bee565b346101b45760003660031901126101b4576020600a54604051908152f35b346101b45760003660031901126101b4576020600954604051908152f35b346101b45760003660031901126101b457602060405160128152f35b346101b45760603660031901126101b457610c7f6113b1565b610c876113c7565b6001600160a01b03821660008181526001602090815260408083203384529091529020549260443592916000198510610cc6575b5061027793506114a4565b838510610d32578015610d19573315610d005761027794849160005260016020526040600020336000526020520360406000205584610cbb565b604051634a1406b160e11b815260006004820152602490fd5b60405163e602df0560e01b815260006004820152602490fd5b604051637dc7a0d960e11b81523360048201526024810186905260448101859052606490fd5b346101b45760003660031901126101b4576020600254604051908152f35b346101b45760003660031901126101b4576007546040516001600160a01b039091168152602090f35b346101b45760403660031901126101b457610db86113b1565b602435903315610d19576001600160a01b0316908115610d0057336000526001602052604060002082600052602052806040600020556040519081527f8c5be1e5ebec7d5bd14f71427d1e84f3dd0314c0f7b2291e5b200ac8c7c3b92560203392a3602060405160018152f35b346101b45760003660031901126101b457604051600090600354600181811c90808316928315610ed9575b6020938484108114610367578386529081156103475750600114610e7e576102e8846102dc8188038261146c565b600360009081529294507fc2575a0e9e593c00f959f8c92f12db2869c3395a3b0502d05e2516446f71f85b5b828410610ec657505050816102e8936102dc92820101936102cc565b8054858501870152928501928101610eaa565b91607f1691610e50565b346101b457610ef1366113dd565b9091610efe81151561173d565b610f1f610f18841592831580610f48575b610828906116f8565b92836115b4565b90620186a08085029485041417156108495761082d610f4092602094611582565b604051908152f35b50841515610f0f565b346101b45760803660031901126101b4576044356001600160a01b0380821682036101b45760643567ffffffffffffffff8082116101b457366023830112156101b45781600401359081116101b457369101602401116101b457610fb36115e7565b600435158015809161138b575b610fc9906116ac565b600954600435108061137e575b610fdf906116f8565b611309575b602435611296575b8060075416916040516020816024816370a0823160e01b978882523060048301525afa90811561065857600091611264575b50602083600854169460246040518097819382523060048301525afa93841561065857600094611230575b506009549061105a6004358361158f565b811115611228576110766110706004358461158f565b8261158f565b945b600a54926110886024358561158f565b821115611220576110a461109e6024358661158f565b8361158f565b935b871590811582611217575b6110ba9061173d565b620186a08502858104620186a014861517156108495761012c92838b02908b820485141715610849576110ec9161158f565b620186a0850290858204620186a014861517156108495787848102048414881517156108495761112561112b92611131958a029061158f565b906115b4565b926115b4565b600190620186a060025b600181116111ee5750806000190483116108495761115a9202906115b4565b116111b25761116891611789565b60405193845260208401526004356040840152602435606084015216907fd78ad95fa46c994b6551d0da85fc275fe613ce37657fb8d5e3d130840159d82260803392a36001600555005b60405162461bcd60e51b815260206004820152601460248201527312c81a5b9d985c9a585b9d081d9a5bdb185d195960621b6044820152606490fd5b9080600019048111610849576001821661120e575b80029060011c61113b565b80930292611203565b508515156110b1565b6000936110a6565b600094611078565b9093506020813d60201161125c575b8161124c6020938361146c565b810103126101b457519284611049565b3d915061123f565b90506020813d60201161128e575b8161127f6020938361146c565b810103126101b457518461101e565b3d9150611272565b60085460405163a9059cbb60e01b81526001600160a01b03841660048201526024803590820152906020908290604490829060009087165af18015610658576112e6916000916112eb5750611667565b610fec565b611303915060203d81116106b9576106ab818361146c565b84610574565b60075460405163a9059cbb60e01b81526001600160a01b038416600480830191909152356024820152906020908290604490829060009087165af180156106585761135b916000916113605750611622565b610fe4565b611378915060203d81116106b9576106ab818361146c565b8461052a565b50600a5460243510610fd6565b506024351515610fc0565b346101b45760003660031901126101b4578061012c60209252f35b600435906001600160a01b03821682036101b457565b602435906001600160a01b03821682036101b457565b60609060031901126101b457600435906024359060443590565b6020808252825181830181905290939260005b82811061142c57505060409293506000838284010152601f8019910116010190565b81810186015184820160400152850161140a565b6006546001600160a01b0316330361145457565b60405163118cdaa760e01b8152336004820152602490fd5b90601f8019910116810190811067ffffffffffffffff82111761148e57604052565b634e487b7160e01b600052604160045260246000fd5b916001600160a01b038084169283156115695716928315611550576000908382528160205260408220549083821061151e575091604082827fddf252ad1be2c89b69c2b068fc378daa952ba7f163c4a11628f55a4df523b3ef958760209652828652038282205586815220818154019055604051908152a3565b60405163391434e360e21b81526001600160a01b03919091166004820152602481019190915260448101839052606490fd5b60405163ec442f0560e01b815260006004820152602490fd5b604051634b637e8f60e11b815260006004820152602490fd5b9190820180921161084957565b9190820391821161084957565b90620185749182810292818404149015171561084957565b8181029291811591840414171561084957565b81156115d1570490565b634e487b7160e01b600052601260045260246000fd5b6002600554146115f8576002600555565b604051633ee5aeb560e01b8152600490fd5b908160209103126101b4575180151581036101b45790565b1561162957565b60405162461bcd60e51b8152602060048201526016602482015275151bdad95b8c081d1c985b9cd9995c8819985a5b195960521b6044820152606490fd5b1561166e57565b60405162461bcd60e51b8152602060048201526016602482015275151bdad95b8c481d1c985b9cd9995c8819985a5b195960521b6044820152606490fd5b156116b357565b60405162461bcd60e51b815260206004820152601a60248201527f496e73756666696369656e74206f757470757420616d6f756e740000000000006044820152606490fd5b156116ff57565b60405162461bcd60e51b8152602060048201526016602482015275496e73756666696369656e74206c697175696469747960501b6044820152606490fd5b1561174457565b60405162461bcd60e51b815260206004820152601960248201527f496e73756666696369656e7420696e70757420616d6f756e74000000000000006044820152606490fd5b6040907fcf2aa50876cdfbb541206f89af0ee78d44a2abf8d328e37fa4917f982149848a928160095580600a5582519182526020820152a156fea164736f6c6343000814000a","opcodes":"PUSH1 0x80 PUSH1 0x40 MSTORE CALLVALUE PUSH3 0x3E6 JUMPI PUSH3 0x1C69 DUP1 CODESIZE SUB DUP1 PUSH3 0x1D DUP2 PUSH3 0x3EB JUMP JUMPDEST SWAP3 DUP4 CODECOPY DUP2 ADD PUSH1 0xA0 DUP3 DUP3 SUB SLT PUSH3 0x3E6 JUMPI PUSH3 0x38 DUP3 PUSH3 0x411 JUMP JUMPDEST SWAP2 PUSH1 0x20 SWAP2 PUSH3 0x49 DUP4 DUP4 ADD PUSH3 0x411 JUMP JUMPDEST PUSH1 0x40 DUP4 ADD MLOAD SWAP1 SWAP2 SWAP1 PUSH1 0x1 PUSH1 0x1 PUSH1 0x40 SHL SUB SWAP1 DUP2 DUP2 GT PUSH3 0x3E6 JUMPI DUP3 PUSH3 0x70 SWAP2 DUP7 ADD PUSH3 0x426 JUMP JUMPDEST SWAP2 PUSH1 0x60 DUP6 ADD MLOAD SWAP1 DUP3 DUP3 GT PUSH3 0x3E6 JUMPI PUSH3 0x93 PUSH1 0x80 SWAP2 PUSH3 0x9B SWAP4 DUP9 ADD PUSH3 0x426 JUMP JUMPDEST SWAP6 ADD PUSH3 0x411 JUMP JUMPDEST SWAP4 DUP3 MLOAD DUP3 DUP2 GT PUSH3 0x2E6 JUMPI PUSH1 0x3 SWAP2 DUP3 SLOAD SWAP2 PUSH1 0x1 SWAP6 DUP7 DUP5 DUP2 SHR SWAP5 AND DUP1 ISZERO PUSH3 0x3DB JUMPI JUMPDEST DUP11 DUP6 LT EQ PUSH3 0x3C5 JUMPI DUP2 SWAP1 PUSH1 0x1F SWAP5 DUP6 DUP2 GT PUSH3 0x36F JUMPI JUMPDEST POP DUP11 SWAP1 DUP6 DUP4 GT PUSH1 0x1 EQ PUSH3 0x308 JUMPI PUSH1 0x0 SWAP3 PUSH3 0x2FC JUMPI JUMPDEST POP POP PUSH1 0x0 NOT DUP3 DUP7 SHL SHR NOT AND SWAP1 DUP7 SHL OR DUP4 SSTORE JUMPDEST DUP1 MLOAD SWAP4 DUP5 GT PUSH3 0x2E6 JUMPI PUSH1 0x4 SWAP8 DUP9 SLOAD DUP7 DUP2 DUP2 SHR SWAP2 AND DUP1 ISZERO PUSH3 0x2DB JUMPI JUMPDEST DUP3 DUP3 LT EQ PUSH3 0x2C6 JUMPI SWAP1 DUP2 DUP5 DUP8 SWAP7 SWAP6 SWAP5 SWAP4 GT PUSH3 0x26A JUMPI JUMPDEST POP DUP1 SWAP3 DUP6 GT PUSH1 0x1 EQ PUSH3 0x1FC JUMPI POP PUSH1 0x0 SWAP4 PUSH3 0x1F0 JUMPI JUMPDEST POP POP DUP3 DUP5 SHL SWAP3 PUSH1 0x0 NOT SWAP2 SHL SHR NOT AND OR DUP5 SSTORE JUMPDEST PUSH1 0x5 SSTORE PUSH1 0x1 PUSH1 0x1 PUSH1 0xA0 SHL SUB SWAP2 DUP3 AND SWAP3 DUP4 ISZERO PUSH3 0x1D8 JUMPI POP PUSH1 0x6 DUP1 SLOAD PUSH1 0x1 PUSH1 0x1 PUSH1 0xA0 SHL SUB NOT DUP1 DUP3 AND DUP7 OR SWAP1 SWAP3 SSTORE PUSH1 0x40 MLOAD SWAP6 SWAP2 SWAP5 DUP5 SWAP3 SWAP2 DUP4 AND PUSH32 0x8BE0079C531659141344CD1FD0A4F28419497F9722A3DAAFE3B4186F6B6457E0 PUSH1 0x0 DUP1 LOG3 AND DUP4 PUSH1 0x7 SLOAD AND OR PUSH1 0x7 SSTORE AND SWAP1 PUSH1 0x8 SLOAD AND OR PUSH1 0x8 SSTORE PUSH2 0x17D0 SWAP1 DUP2 PUSH3 0x499 DUP3 CODECOPY RETURN JUMPDEST PUSH1 0x24 SWAP1 PUSH1 0x0 PUSH1 0x40 MLOAD SWAP2 PUSH4 0x1E4FBDF7 PUSH1 0xE0 SHL DUP4 MSTORE DUP3 ADD MSTORE REVERT JUMPDEST ADD MLOAD SWAP2 POP CODESIZE DUP1 PUSH3 0x149 JUMP JUMPDEST SWAP3 SWAP2 SWAP1 DUP7 SWAP6 POP PUSH1 0x1F NOT DUP6 AND DUP11 PUSH1 0x0 MSTORE DUP5 PUSH1 0x0 KECCAK256 SWAP5 PUSH1 0x0 SWAP1 JUMPDEST DUP3 DUP3 LT PUSH3 0x250 JUMPI POP POP DUP6 GT PUSH3 0x235 JUMPI JUMPDEST POP POP POP POP DUP2 SHL ADD DUP5 SSTORE PUSH3 0x15B JUMP JUMPDEST ADD MLOAD SWAP1 PUSH1 0xF8 DUP5 PUSH1 0x0 NOT SWAP3 SHL AND SHR NOT AND SWAP1 SSTORE CODESIZE DUP1 DUP1 DUP1 PUSH3 0x226 JUMP JUMPDEST DUP5 DUP5 ADD MLOAD DUP8 SSTORE DUP10 SWAP9 SWAP1 SWAP7 ADD SWAP6 SWAP4 DUP5 ADD SWAP4 SWAP1 DUP2 ADD SWAP1 PUSH3 0x214 JUMP JUMPDEST SWAP1 SWAP2 SWAP3 SWAP4 SWAP5 POP DUP10 PUSH1 0x0 MSTORE DUP2 PUSH1 0x0 KECCAK256 DUP5 DUP1 DUP9 ADD PUSH1 0x5 SHR DUP3 ADD SWAP3 DUP5 DUP10 LT PUSH3 0x2BC JUMPI JUMPDEST SWAP2 DUP10 SWAP2 DUP10 SWAP9 SWAP8 SWAP7 SWAP6 SWAP5 SWAP4 ADD PUSH1 0x5 SHR ADD SWAP2 JUMPDEST DUP3 DUP2 LT PUSH3 0x2AC JUMPI POP POP PUSH3 0x132 JUMP JUMPDEST PUSH1 0x0 DUP2 SSTORE DUP9 SWAP8 POP DUP10 SWAP2 ADD PUSH3 0x29C JUMP JUMPDEST SWAP3 POP DUP2 SWAP3 PUSH3 0x28B JUMP JUMPDEST PUSH1 0x22 DUP11 PUSH4 0x4E487B71 PUSH1 0xE0 SHL PUSH1 0x0 MSTORE MSTORE PUSH1 0x24 PUSH1 0x0 REVERT JUMPDEST SWAP1 PUSH1 0x7F AND SWAP1 PUSH3 0x11A JUMP JUMPDEST PUSH4 0x4E487B71 PUSH1 0xE0 SHL PUSH1 0x0 MSTORE PUSH1 0x41 PUSH1 0x4 MSTORE PUSH1 0x24 PUSH1 0x0 REVERT JUMPDEST ADD MLOAD SWAP1 POP CODESIZE DUP1 PUSH3 0xEB JUMP JUMPDEST PUSH1 0x0 DUP8 DUP2 MSTORE DUP13 DUP2 KECCAK256 DUP11 SWAP6 POP SWAP3 SWAP2 SWAP1 PUSH1 0x1F NOT DUP6 AND SWAP1 DUP15 JUMPDEST DUP3 DUP3 LT PUSH3 0x357 JUMPI POP POP DUP5 GT PUSH3 0x33E JUMPI JUMPDEST POP POP POP DUP2 SHL ADD DUP4 SSTORE PUSH3 0xFD JUMP JUMPDEST ADD MLOAD PUSH1 0x0 NOT DUP4 DUP9 SHL PUSH1 0xF8 AND SHR NOT AND SWAP1 SSTORE CODESIZE DUP1 DUP1 PUSH3 0x330 JUMP JUMPDEST DUP4 DUP6 ADD MLOAD DUP7 SSTORE DUP13 SWAP8 SWAP1 SWAP6 ADD SWAP5 SWAP4 DUP5 ADD SWAP4 ADD DUP15 PUSH3 0x31E JUMP JUMPDEST SWAP1 SWAP2 POP DUP6 PUSH1 0x0 MSTORE DUP11 PUSH1 0x0 KECCAK256 DUP6 DUP1 DUP6 ADD PUSH1 0x5 SHR DUP3 ADD SWAP3 DUP14 DUP7 LT PUSH3 0x3BB JUMPI JUMPDEST SWAP2 DUP11 SWAP2 DUP7 SWAP6 SWAP5 SWAP4 ADD PUSH1 0x5 SHR ADD SWAP2 JUMPDEST DUP3 DUP2 LT PUSH3 0x3AB JUMPI POP POP PUSH3 0xD4 JUMP JUMPDEST PUSH1 0x0 DUP2 SSTORE DUP6 SWAP5 POP DUP11 SWAP2 ADD PUSH3 0x39B JUMP JUMPDEST SWAP3 POP DUP2 SWAP3 PUSH3 0x38D JUMP JUMPDEST PUSH4 0x4E487B71 PUSH1 0xE0 SHL PUSH1 0x0 MSTORE PUSH1 0x22 PUSH1 0x4 MSTORE PUSH1 0x24 PUSH1 0x0 REVERT JUMPDEST SWAP4 PUSH1 0x7F AND SWAP4 PUSH3 0xBD JUMP JUMPDEST PUSH1 0x0 DUP1 REVERT JUMPDEST PUSH1 0x40 MLOAD SWAP2 SWAP1 PUSH1 0x1F ADD PUSH1 0x1F NOT AND DUP3 ADD PUSH1 0x1 PUSH1 0x1 PUSH1 0x40 SHL SUB DUP2 GT DUP4 DUP3 LT OR PUSH3 0x2E6 JUMPI PUSH1 0x40 MSTORE JUMP JUMPDEST MLOAD SWAP1 PUSH1 0x1 PUSH1 0x1 PUSH1 0xA0 SHL SUB DUP3 AND DUP3 SUB PUSH3 0x3E6 JUMPI JUMP JUMPDEST SWAP2 SWAP1 DUP1 PUSH1 0x1F DUP5 ADD SLT ISZERO PUSH3 0x3E6 JUMPI DUP3 MLOAD PUSH1 0x1 PUSH1 0x1 PUSH1 0x40 SHL SUB DUP2 GT PUSH3 0x2E6 JUMPI PUSH1 0x20 SWAP1 PUSH3 0x45C PUSH1 0x1F DUP3 ADD PUSH1 0x1F NOT AND DUP4 ADD PUSH3 0x3EB JUMP JUMPDEST SWAP3 DUP2 DUP5 MSTORE DUP3 DUP3 DUP8 ADD ADD GT PUSH3 0x3E6 JUMPI PUSH1 0x0 JUMPDEST DUP2 DUP2 LT PUSH3 0x484 JUMPI POP DUP3 PUSH1 0x0 SWAP4 SWAP5 SWAP6 POP ADD ADD MSTORE SWAP1 JUMP JUMPDEST DUP6 DUP2 ADD DUP4 ADD MLOAD DUP5 DUP3 ADD DUP5 ADD MSTORE DUP3 ADD PUSH3 0x46E JUMP INVALID PUSH1 0x80 DUP1 PUSH1 0x40 MSTORE PUSH1 0x4 CALLDATASIZE LT ISZERO PUSH2 0x13 JUMPI PUSH1 0x0 DUP1 REVERT JUMPDEST PUSH1 0x0 CALLDATALOAD PUSH1 0xE0 SHR SWAP1 DUP2 PUSH3 0xB46F8 EQ PUSH2 0x1396 JUMPI POP DUP1 PUSH4 0x22C0D9F EQ PUSH2 0xF51 JUMPI DUP1 PUSH4 0x54D50D4 EQ PUSH2 0xEE3 JUMPI DUP1 PUSH4 0x6FDDE03 EQ PUSH2 0xE25 JUMPI DUP1 PUSH4 0x95EA7B3 EQ PUSH2 0xD9F JUMPI DUP1 PUSH4 0xDFE1681 EQ PUSH2 0xD76 JUMPI DUP1 PUSH4 0x18160DDD EQ PUSH2 0xD58 JUMPI DUP1 PUSH4 0x23B872DD EQ PUSH2 0xC66 JUMPI DUP1 PUSH4 0x313CE567 EQ PUSH2 0xC4A JUMPI DUP1 PUSH4 0x443CB4BC EQ PUSH2 0xC2C JUMPI DUP1 PUSH4 0x5A76F25E EQ PUSH2 0xC0E JUMPI DUP1 PUSH4 0x6A627842 EQ PUSH2 0x91D JUMPI DUP1 PUSH4 0x70A08231 EQ PUSH2 0x8E3 JUMPI DUP1 PUSH4 0x715018A6 EQ PUSH2 0x886 JUMPI DUP1 PUSH4 0x7464FC3D EQ PUSH2 0x868 JUMPI DUP1 PUSH4 0x85F8C259 EQ PUSH2 0x7CB JUMPI DUP1 PUSH4 0x89AFCB44 EQ PUSH2 0x3B0 JUMPI DUP1 PUSH4 0x8DA5CB5B EQ PUSH2 0x387 JUMPI DUP1 PUSH4 0x95D89B41 EQ PUSH2 0x282 JUMPI DUP1 PUSH4 0xA9059CBB EQ PUSH2 0x251 JUMPI DUP1 PUSH4 0xD21220A7 EQ PUSH2 0x228 JUMPI DUP1 PUSH4 0xDD62ED3E EQ PUSH2 0x1D7 JUMPI DUP1 PUSH4 0xE1F1C4A7 EQ PUSH2 0x1B9 JUMPI PUSH4 0xF2FDE38B EQ PUSH2 0x126 JUMPI PUSH1 0x0 DUP1 REVERT JUMPDEST CALLVALUE PUSH2 0x1B4 JUMPI PUSH1 0x20 CALLDATASIZE PUSH1 0x3 NOT ADD SLT PUSH2 0x1B4 JUMPI PUSH2 0x13F PUSH2 0x13B1 JUMP JUMPDEST PUSH2 0x147 PUSH2 0x1440 JUMP JUMPDEST PUSH1 0x1 PUSH1 0x1 PUSH1 0xA0 SHL SUB SWAP1 DUP2 AND SWAP1 DUP2 ISZERO PUSH2 0x19B JUMPI PUSH1 0x6 SLOAD DUP3 PUSH12 0xFFFFFFFFFFFFFFFFFFFFFFFF PUSH1 0xA0 SHL DUP3 AND OR PUSH1 0x6 SSTORE AND PUSH32 0x8BE0079C531659141344CD1FD0A4F28419497F9722A3DAAFE3B4186F6B6457E0 PUSH1 0x0 DUP1 LOG3 STOP JUMPDEST PUSH1 0x40 MLOAD PUSH4 0x1E4FBDF7 PUSH1 0xE0 SHL DUP2 MSTORE PUSH1 0x0 PUSH1 0x4 DUP3 ADD MSTORE PUSH1 0x24 SWAP1 REVERT JUMPDEST PUSH1 0x0 DUP1 REVERT JUMPDEST CALLVALUE PUSH2 0x1B4 JUMPI PUSH1 0x0 CALLDATASIZE PUSH1 0x3 NOT ADD SLT PUSH2 0x1B4 JUMPI PUSH1 0x20 PUSH1 0x40 MLOAD PUSH3 0x186A0 DUP2 MSTORE RETURN JUMPDEST CALLVALUE PUSH2 0x1B4 JUMPI PUSH1 0x40 CALLDATASIZE PUSH1 0x3 NOT ADD SLT PUSH2 0x1B4 JUMPI PUSH2 0x1F0 PUSH2 0x13B1 JUMP JUMPDEST PUSH2 0x1F8 PUSH2 0x13C7 JUMP JUMPDEST SWAP1 PUSH1 0x1 DUP1 PUSH1 0xA0 SHL SUB DUP1 SWAP2 AND PUSH1 0x0 MSTORE PUSH1 0x1 PUSH1 0x20 MSTORE PUSH1 0x40 PUSH1 0x0 KECCAK256 SWAP2 AND PUSH1 0x0 MSTORE PUSH1 0x20 MSTORE PUSH1 0x20 PUSH1 0x40 PUSH1 0x0 KECCAK256 SLOAD PUSH1 0x40 MLOAD SWAP1 DUP2 MSTORE RETURN JUMPDEST CALLVALUE PUSH2 0x1B4 JUMPI PUSH1 0x0 CALLDATASIZE PUSH1 0x3 NOT ADD SLT PUSH2 0x1B4 JUMPI PUSH1 0x8 SLOAD PUSH1 0x40 MLOAD PUSH1 0x1 PUSH1 0x1 PUSH1 0xA0 SHL SUB SWAP1 SWAP2 AND DUP2 MSTORE PUSH1 0x20 SWAP1 RETURN JUMPDEST CALLVALUE PUSH2 0x1B4 JUMPI PUSH1 0x40 CALLDATASIZE PUSH1 0x3 NOT ADD SLT PUSH2 0x1B4 JUMPI PUSH2 0x277 PUSH2 0x26D PUSH2 0x13B1 JUMP JUMPDEST PUSH1 0x24 CALLDATALOAD SWAP1 CALLER PUSH2 0x14A4 JUMP JUMPDEST PUSH1 0x20 PUSH1 0x40 MLOAD PUSH1 0x1 DUP2 MSTORE RETURN JUMPDEST CALLVALUE PUSH2 0x1B4 JUMPI PUSH1 0x0 CALLDATASIZE PUSH1 0x3 NOT ADD SLT PUSH2 0x1B4 JUMPI PUSH1 0x40 MLOAD PUSH1 0x0 SWAP1 PUSH1 0x4 SLOAD PUSH1 0x1 DUP2 DUP2 SHR SWAP1 DUP1 DUP4 AND SWAP3 DUP4 ISZERO PUSH2 0x37D JUMPI JUMPDEST PUSH1 0x20 SWAP4 DUP5 DUP5 LT DUP2 EQ PUSH2 0x367 JUMPI DUP4 DUP7 MSTORE SWAP1 DUP2 ISZERO PUSH2 0x347 JUMPI POP PUSH1 0x1 EQ PUSH2 0x2EC JUMPI JUMPDEST PUSH2 0x2E8 DUP5 PUSH2 0x2DC DUP2 DUP9 SUB DUP3 PUSH2 0x146C JUMP JUMPDEST PUSH1 0x40 MLOAD SWAP2 DUP3 SWAP2 DUP3 PUSH2 0x13F7 JUMP JUMPDEST SUB SWAP1 RETURN JUMPDEST PUSH1 0x4 PUSH1 0x0 SWAP1 DUP2 MSTORE SWAP3 SWAP5 POP PUSH32 0x8A35ACFBC15FF81A39AE7D344FD709F28E8600B4AA8C65C6B64BFE7FE36BD19B JUMPDEST DUP3 DUP5 LT PUSH2 0x334 JUMPI POP POP POP DUP2 PUSH2 0x2E8 SWAP4 PUSH2 0x2DC SWAP3 DUP3 ADD ADD SWAP4 PUSH2 0x2CC JUMP JUMPDEST DUP1 SLOAD DUP6 DUP6 ADD DUP8 ADD MSTORE SWAP3 DUP6 ADD SWAP3 DUP2 ADD PUSH2 0x318 JUMP JUMPDEST PUSH1 0xFF NOT AND DUP6 DUP6 ADD MSTORE POP POP ISZERO ISZERO PUSH1 0x5 SHL DUP3 ADD ADD SWAP2 POP PUSH2 0x2DC DUP2 PUSH2 0x2E8 PUSH2 0x2CC JUMP JUMPDEST PUSH4 0x4E487B71 PUSH1 0xE0 SHL PUSH1 0x0 MSTORE PUSH1 0x22 PUSH1 0x4 MSTORE PUSH1 0x24 PUSH1 0x0 REVERT JUMPDEST SWAP2 PUSH1 0x7F AND SWAP2 PUSH2 0x2AD JUMP JUMPDEST CALLVALUE PUSH2 0x1B4 JUMPI PUSH1 0x0 CALLDATASIZE PUSH1 0x3 NOT ADD SLT PUSH2 0x1B4 JUMPI PUSH1 0x6 SLOAD PUSH1 0x40 MLOAD PUSH1 0x1 PUSH1 0x1 PUSH1 0xA0 SHL SUB SWAP1 SWAP2 AND DUP2 MSTORE PUSH1 0x20 SWAP1 RETURN JUMPDEST CALLVALUE PUSH2 0x1B4 JUMPI PUSH1 0x20 DUP1 PUSH1 0x3 NOT CALLDATASIZE ADD SLT PUSH2 0x1B4 JUMPI PUSH2 0x3CA PUSH2 0x13B1 JUMP JUMPDEST SWAP1 PUSH2 0x3D3 PUSH2 0x15E7 JUMP JUMPDEST PUSH1 0x1 DUP1 PUSH1 0xA0 SHL SUB SWAP1 DUP2 PUSH1 0x7 SLOAD AND SWAP1 PUSH1 0x40 MLOAD SWAP4 DUP5 SWAP4 DUP3 DUP6 PUSH4 0x70A08231 PUSH1 0xE0 SHL SWAP6 DUP7 DUP3 MSTORE ADDRESS PUSH1 0x4 DUP4 ADD MSTORE PUSH1 0x24 SWAP9 DUP10 SWAP2 GAS STATICCALL SWAP4 DUP5 ISZERO PUSH2 0x658 JUMPI DUP7 SWAP6 PUSH1 0x0 SWAP6 PUSH2 0x799 JUMPI JUMPDEST POP DUP4 DUP3 PUSH1 0x8 SLOAD AND PUSH1 0x40 MLOAD SWAP8 DUP9 DUP1 SWAP3 DUP6 DUP3 MSTORE ADDRESS PUSH1 0x4 DUP4 ADD MSTORE GAS STATICCALL SWAP6 DUP7 ISZERO PUSH2 0x658 JUMPI PUSH1 0x0 SWAP7 PUSH2 0x76A JUMPI JUMPDEST POP ADDRESS PUSH1 0x0 MSTORE PUSH1 0x0 DUP5 MSTORE PUSH2 0x46F PUSH2 0x463 PUSH2 0x463 PUSH2 0x468 PUSH1 0x40 PUSH1 0x0 KECCAK256 SLOAD SWAP9 PUSH1 0x2 SLOAD SWAP4 DUP5 SWAP2 DUP12 PUSH2 0x15B4 JUMP JUMPDEST PUSH2 0x15C7 JUMP JUMPDEST SWAP9 DUP9 PUSH2 0x15B4 JUMP JUMPDEST SWAP5 DUP7 ISZERO ISZERO DUP1 PUSH2 0x761 JUMPI JUMPDEST ISZERO PUSH2 0x71D JUMPI ADDRESS ISZERO PUSH2 0x705 JUMPI ADDRESS PUSH1 0x0 MSTORE PUSH1 0x0 DUP6 MSTORE PUSH1 0x40 PUSH1 0x0 KECCAK256 SLOAD DUP2 DUP2 LT PUSH2 0x6DD JUMPI DUP2 DUP9 SWAP4 SWAP3 PUSH1 0x0 SWAP3 ADDRESS DUP5 MSTORE DUP4 DUP10 MSTORE SUB PUSH1 0x40 DUP4 KECCAK256 SSTORE DUP1 PUSH1 0x2 SLOAD SUB PUSH1 0x2 SSTORE PUSH1 0x40 MLOAD SWAP1 DUP2 MSTORE PUSH32 0xDDF252AD1BE2C89B69C2B068FC378DAA952BA7F163C4A11628F55A4DF523B3EF DUP8 ADDRESS SWAP3 LOG3 PUSH1 0x7 SLOAD PUSH1 0x40 MLOAD PUSH4 0xA9059CBB PUSH1 0xE0 SHL DUP1 DUP3 MSTORE PUSH1 0x1 PUSH1 0x1 PUSH1 0xA0 SHL SUB DUP8 AND PUSH1 0x4 DUP4 ADD MSTORE PUSH1 0x24 DUP3 ADD SWAP5 SWAP1 SWAP5 MSTORE SWAP1 DUP7 SWAP1 DUP3 SWAP1 PUSH1 0x44 SWAP1 DUP3 SWAP1 PUSH1 0x0 SWAP1 DUP10 AND GAS CALL DUP1 ISZERO PUSH2 0x658 JUMPI PUSH2 0x530 SWAP2 PUSH1 0x0 SWAP2 PUSH2 0x6C0 JUMPI JUMPDEST POP PUSH2 0x1622 JUMP JUMPDEST PUSH1 0x8 SLOAD PUSH1 0x40 MLOAD SWAP3 DUP4 MSTORE PUSH1 0x1 PUSH1 0x1 PUSH1 0xA0 SHL SUB DUP6 AND PUSH1 0x4 DUP5 ADD MSTORE PUSH1 0x24 DUP4 ADD DUP8 SWAP1 MSTORE DUP6 SWAP1 DUP4 SWAP1 PUSH1 0x44 SWAP1 DUP3 SWAP1 PUSH1 0x0 SWAP1 DUP9 AND GAS CALL SWAP2 DUP3 ISZERO PUSH2 0x658 JUMPI DUP9 SWAP3 PUSH2 0x57A SWAP2 PUSH1 0x0 SWAP2 PUSH2 0x693 JUMPI JUMPDEST POP PUSH2 0x1667 JUMP JUMPDEST DUP5 DUP4 PUSH1 0x7 SLOAD AND PUSH1 0x40 MLOAD SWAP10 DUP11 DUP1 SWAP3 DUP6 DUP3 MSTORE ADDRESS PUSH1 0x4 DUP4 ADD MSTORE GAS STATICCALL SWAP8 DUP9 ISZERO PUSH2 0x658 JUMPI PUSH1 0x0 SWAP9 PUSH2 0x664 JUMPI JUMPDEST POP DUP5 SWAP1 DUP4 PUSH1 0x8 SLOAD AND SWAP3 PUSH1 0x40 MLOAD DUP1 SWAP5 DUP2 SWAP4 DUP3 MSTORE ADDRESS PUSH1 0x4 DUP4 ADD MSTORE GAS STATICCALL SWAP1 DUP2 ISZERO PUSH2 0x658 JUMPI PUSH1 0x0 SWAP2 PUSH2 0x62A JUMPI JUMPDEST POP PUSH2 0x5D7 SWAP1 PUSH1 0x40 SWAP8 PUSH2 0x1789 JUMP JUMPDEST PUSH2 0x5E6 PUSH1 0x9 SLOAD PUSH1 0xA SLOAD SWAP1 PUSH2 0x15B4 JUMP JUMPDEST PUSH1 0xB SSTORE DUP6 MLOAD SWAP2 DUP6 DUP4 MSTORE DUP5 DUP5 DUP5 ADD MSTORE AND SWAP1 PUSH32 0xDCCD412F0B1252819CB1FD330B93224CA42612892BB3F4F789976E6D81936496 DUP7 CALLER SWAP3 LOG3 PUSH1 0x1 PUSH1 0x5 SSTORE DUP4 MLOAD SWAP3 DUP4 MSTORE DUP3 ADD MSTORE RETURN JUMPDEST SWAP1 POP DUP4 DUP2 DUP2 RETURNDATASIZE DUP4 GT PUSH2 0x651 JUMPI JUMPDEST PUSH2 0x641 DUP2 DUP4 PUSH2 0x146C JUMP JUMPDEST DUP2 ADD SUB SLT PUSH2 0x1B4 JUMPI MLOAD PUSH1 0x40 PUSH2 0x5CA JUMP JUMPDEST POP RETURNDATASIZE PUSH2 0x637 JUMP JUMPDEST PUSH1 0x40 MLOAD RETURNDATASIZE PUSH1 0x0 DUP3 RETURNDATACOPY RETURNDATASIZE SWAP1 REVERT JUMPDEST SWAP1 SWAP8 POP DUP5 DUP2 DUP2 RETURNDATASIZE DUP4 GT PUSH2 0x68C JUMPI JUMPDEST PUSH2 0x67C DUP2 DUP4 PUSH2 0x146C JUMP JUMPDEST DUP2 ADD SUB SLT PUSH2 0x1B4 JUMPI MLOAD SWAP7 DUP5 PUSH2 0x5A1 JUMP JUMPDEST POP RETURNDATASIZE PUSH2 0x672 JUMP JUMPDEST PUSH2 0x6B3 SWAP2 POP DUP8 RETURNDATASIZE DUP10 GT PUSH2 0x6B9 JUMPI JUMPDEST PUSH2 0x6AB DUP2 DUP4 PUSH2 0x146C JUMP JUMPDEST DUP2 ADD SWAP1 PUSH2 0x160A JUMP JUMPDEST DUP11 PUSH2 0x574 JUMP JUMPDEST POP RETURNDATASIZE PUSH2 0x6A1 JUMP JUMPDEST PUSH2 0x6D7 SWAP2 POP DUP8 RETURNDATASIZE DUP10 GT PUSH2 0x6B9 JUMPI PUSH2 0x6AB DUP2 DUP4 PUSH2 0x146C JUMP JUMPDEST DUP11 PUSH2 0x52A JUMP JUMPDEST PUSH1 0x40 MLOAD PUSH4 0x391434E3 PUSH1 0xE2 SHL DUP2 MSTORE ADDRESS PUSH1 0x4 DUP3 ADD MSTORE PUSH1 0x24 DUP2 ADD SWAP2 SWAP1 SWAP2 MSTORE PUSH1 0x44 DUP2 ADD SWAP2 SWAP1 SWAP2 MSTORE PUSH1 0x64 SWAP1 REVERT JUMPDEST PUSH1 0x40 MLOAD PUSH4 0x4B637E8F PUSH1 0xE1 SHL DUP2 MSTORE PUSH1 0x0 PUSH1 0x4 DUP3 ADD MSTORE DUP9 SWAP1 REVERT JUMPDEST PUSH1 0x40 MLOAD PUSH3 0x461BCD PUSH1 0xE5 SHL DUP2 MSTORE PUSH1 0x4 DUP2 ADD DUP7 SWAP1 MSTORE PUSH1 0x1D DUP2 DUP11 ADD MSTORE PUSH32 0x496E73756666696369656E74206C6971756964697479206275726E6564000000 PUSH1 0x44 DUP3 ADD MSTORE PUSH1 0x64 SWAP1 REVERT JUMPDEST POP DUP6 ISZERO ISZERO PUSH2 0x479 JUMP JUMPDEST SWAP1 SWAP6 POP DUP4 DUP2 DUP2 RETURNDATASIZE DUP4 GT PUSH2 0x792 JUMPI JUMPDEST PUSH2 0x782 DUP2 DUP4 PUSH2 0x146C JUMP JUMPDEST DUP2 ADD SUB SLT PUSH2 0x1B4 JUMPI MLOAD SWAP5 DUP8 PUSH2 0x43B JUMP JUMPDEST POP RETURNDATASIZE PUSH2 0x778 JUMP JUMPDEST SWAP6 POP SWAP4 POP DUP3 DUP6 DUP2 RETURNDATASIZE DUP2 GT PUSH2 0x7C4 JUMPI JUMPDEST PUSH2 0x7B2 DUP2 DUP4 PUSH2 0x146C JUMP JUMPDEST DUP2 ADD SUB SLT PUSH2 0x1B4 JUMPI DUP6 SWAP5 MLOAD SWAP4 DUP8 PUSH2 0x413 JUMP JUMPDEST POP RETURNDATASIZE PUSH2 0x7A8 JUMP JUMPDEST CALLVALUE PUSH2 0x1B4 JUMPI PUSH2 0x802 PUSH2 0x7DC CALLDATASIZE PUSH2 0x13DD JUMP JUMPDEST SWAP3 SWAP1 DUP3 SWAP1 PUSH2 0x7EB DUP3 ISZERO ISZERO PUSH2 0x16AC JUMP JUMPDEST DUP1 ISZERO ISZERO DUP1 PUSH2 0x85F JUMPI JUMPDEST PUSH2 0x7FD SWAP1 PUSH2 0x16F8 JUMP JUMPDEST PUSH2 0x15B4 JUMP JUMPDEST SWAP1 PUSH3 0x186A0 SWAP2 DUP3 DUP2 MUL SWAP3 DUP2 DUP5 DIV EQ SWAP1 ISZERO OR ISZERO PUSH2 0x849 JUMPI PUSH2 0x828 PUSH2 0x82D SWAP2 PUSH2 0x833 SWAP5 PUSH2 0x158F JUMP JUMPDEST PUSH2 0x159C JUMP JUMPDEST SWAP1 PUSH2 0x15C7 JUMP JUMPDEST PUSH1 0x1 DUP2 ADD DUP1 SWAP2 GT PUSH2 0x849 JUMPI PUSH1 0x20 SWAP1 PUSH1 0x40 MLOAD SWAP1 DUP2 MSTORE RETURN JUMPDEST PUSH4 0x4E487B71 PUSH1 0xE0 SHL PUSH1 0x0 MSTORE PUSH1 0x11 PUSH1 0x4 MSTORE PUSH1 0x24 PUSH1 0x0 REVERT JUMPDEST POP DUP5 ISZERO ISZERO PUSH2 0x7F4 JUMP JUMPDEST CALLVALUE PUSH2 0x1B4 JUMPI PUSH1 0x0 CALLDATASIZE PUSH1 0x3 NOT ADD SLT PUSH2 0x1B4 JUMPI PUSH1 0x20 PUSH1 0xB SLOAD PUSH1 0x40 MLOAD SWAP1 DUP2 MSTORE RETURN JUMPDEST CALLVALUE PUSH2 0x1B4 JUMPI PUSH1 0x0 CALLDATASIZE PUSH1 0x3 NOT ADD SLT PUSH2 0x1B4 JUMPI PUSH2 0x89F PUSH2 0x1440 JUMP JUMPDEST PUSH1 0x6 DUP1 SLOAD PUSH1 0x1 PUSH1 0x1 PUSH1 0xA0 SHL SUB NOT DUP2 AND SWAP1 SWAP2 SSTORE PUSH1 0x0 SWAP1 PUSH1 0x1 PUSH1 0x1 PUSH1 0xA0 SHL SUB AND PUSH32 0x8BE0079C531659141344CD1FD0A4F28419497F9722A3DAAFE3B4186F6B6457E0 DUP3 DUP1 LOG3 STOP JUMPDEST CALLVALUE PUSH2 0x1B4 JUMPI PUSH1 0x20 CALLDATASIZE PUSH1 0x3 NOT ADD SLT PUSH2 0x1B4 JUMPI PUSH1 0x1 PUSH1 0x1 PUSH1 0xA0 SHL SUB PUSH2 0x904 PUSH2 0x13B1 JUMP JUMPDEST AND PUSH1 0x0 MSTORE PUSH1 0x0 PUSH1 0x20 MSTORE PUSH1 0x20 PUSH1 0x40 PUSH1 0x0 KECCAK256 SLOAD PUSH1 0x40 MLOAD SWAP1 DUP2 MSTORE RETURN JUMPDEST CALLVALUE PUSH2 0x1B4 JUMPI PUSH1 0x20 DUP1 PUSH1 0x3 NOT CALLDATASIZE ADD SLT PUSH2 0x1B4 JUMPI PUSH2 0x937 PUSH2 0x13B1 JUMP JUMPDEST PUSH2 0x93F PUSH2 0x15E7 JUMP JUMPDEST PUSH1 0x7 SLOAD PUSH1 0x40 MLOAD PUSH4 0x70A08231 PUSH1 0xE0 SHL DUP1 DUP3 MSTORE ADDRESS PUSH1 0x4 DUP4 ADD MSTORE PUSH1 0x24 SWAP3 PUSH1 0x1 PUSH1 0x1 PUSH1 0xA0 SHL SUB SWAP3 SWAP1 DUP7 SWAP1 DUP3 SWAP1 DUP7 SWAP1 DUP3 SWAP1 DUP8 AND GAS STATICCALL SWAP1 DUP2 ISZERO PUSH2 0x658 JUMPI PUSH1 0x0 SWAP2 PUSH2 0xBE1 JUMPI JUMPDEST POP DUP6 DUP4 PUSH1 0x8 SLOAD AND SWAP3 DUP6 PUSH1 0x40 MLOAD DUP1 SWAP6 DUP2 SWAP4 DUP3 MSTORE ADDRESS PUSH1 0x4 DUP4 ADD MSTORE GAS STATICCALL SWAP2 DUP3 ISZERO PUSH2 0x658 JUMPI PUSH1 0x0 SWAP3 PUSH2 0xBB2 JUMPI JUMPDEST POP PUSH1 0x9 SLOAD SWAP4 PUSH2 0x9B6 DUP6 DUP4 PUSH2 0x158F JUMP JUMPDEST SWAP5 PUSH1 0xA SLOAD SWAP5 PUSH2 0x9C5 DUP7 DUP7 PUSH2 0x158F JUMP JUMPDEST SWAP6 PUSH1 0x2 SLOAD SWAP3 DUP4 ISZERO PUSH1 0x0 EQ PUSH2 0xB7F JUMPI POP POP PUSH2 0x9DF DUP7 DUP9 PUSH2 0x15B4 JUMP JUMPDEST PUSH1 0x0 PUSH1 0x3 DUP3 GT ISZERO PUSH2 0xB71 JUMPI POP DUP1 PUSH1 0x1 SWAP1 DUP1 DUP3 SHR DUP3 DUP2 ADD DUP1 SWAP2 GT PUSH2 0xB5C JUMPI SWAP2 SWAP1 JUMPDEST DUP4 DUP4 LT PUSH2 0xB3C JUMPI POP POP POP JUMPDEST PUSH2 0x3E7 NOT DUP2 ADD SWAP1 DUP2 GT PUSH2 0xB27 JUMPI SWAP8 JUMPDEST DUP9 ISZERO PUSH2 0xAE3 JUMPI AND SWAP2 DUP3 ISZERO PUSH2 0xACD JUMPI POP SWAP1 PUSH2 0xA38 DUP8 PUSH2 0xA7E SWAP6 SWAP5 SWAP4 PUSH2 0x1582 JUMP JUMPDEST PUSH1 0x2 SSTORE DUP1 PUSH1 0x0 MSTORE PUSH1 0x0 DUP9 MSTORE PUSH1 0x40 PUSH1 0x0 KECCAK256 DUP8 DUP2 SLOAD ADD SWAP1 SSTORE PUSH1 0x0 PUSH32 0xDDF252AD1BE2C89B69C2B068FC378DAA952BA7F163C4A11628F55A4DF523B3EF DUP10 PUSH1 0x40 MLOAD DUP11 DUP2 MSTORE LOG3 PUSH2 0x1789 JUMP JUMPDEST PUSH2 0xA8D PUSH1 0x9 SLOAD PUSH1 0xA SLOAD SWAP1 PUSH2 0x15B4 JUMP JUMPDEST PUSH1 0xB SSTORE PUSH1 0x40 MLOAD SWAP2 DUP3 MSTORE DUP4 DUP3 ADD MSTORE PUSH32 0x4C209B5FC8AD50758F13E2E1088BA56A560DFF690A1C6FEF26394F4C03821C4F PUSH1 0x40 CALLER SWAP3 LOG2 PUSH1 0x1 PUSH1 0x5 SSTORE PUSH1 0x40 MLOAD SWAP1 DUP2 MSTORE RETURN JUMPDEST PUSH1 0x40 MLOAD PUSH4 0xEC442F05 PUSH1 0xE0 SHL DUP2 MSTORE PUSH1 0x0 PUSH1 0x4 DUP3 ADD MSTORE REVERT JUMPDEST PUSH1 0x40 MLOAD PUSH3 0x461BCD PUSH1 0xE5 SHL DUP2 MSTORE PUSH1 0x4 DUP2 ADD DUP12 SWAP1 MSTORE PUSH1 0x1D DUP2 DUP7 ADD MSTORE PUSH32 0x496E73756666696369656E74206C6971756964697479206D696E746564000000 PUSH1 0x44 DUP3 ADD MSTORE PUSH1 0x64 SWAP1 REVERT JUMPDEST DUP4 PUSH4 0x4E487B71 PUSH1 0xE0 SHL PUSH1 0x0 MSTORE PUSH1 0x11 PUSH1 0x4 MSTORE PUSH1 0x0 REVERT JUMPDEST SWAP1 SWAP2 SWAP3 POP PUSH2 0xB53 DUP4 PUSH2 0xB4E DUP2 DUP5 PUSH2 0x15C7 JUMP JUMPDEST PUSH2 0x1582 JUMP JUMPDEST DUP3 SHR SWAP2 SWAP1 PUSH2 0x9FF JUMP JUMPDEST DUP7 PUSH4 0x4E487B71 PUSH1 0xE0 SHL PUSH1 0x0 MSTORE PUSH1 0x11 PUSH1 0x4 MSTORE PUSH1 0x0 REVERT JUMPDEST SWAP1 ISZERO PUSH2 0xA0A JUMPI POP PUSH1 0x1 PUSH2 0xA0A JUMP JUMPDEST PUSH2 0xB90 PUSH2 0xB9B SWAP2 PUSH2 0x463 DUP7 DUP13 PUSH2 0x15B4 JUMP JUMPDEST SWAP2 PUSH2 0x463 DUP6 DUP11 PUSH2 0x15B4 JUMP JUMPDEST DUP1 DUP3 LT ISZERO PUSH2 0xBAB JUMPI POP JUMPDEST SWAP8 PUSH2 0xA19 JUMP JUMPDEST SWAP1 POP PUSH2 0xBA5 JUMP JUMPDEST SWAP1 SWAP2 POP DUP6 DUP2 DUP2 RETURNDATASIZE DUP4 GT PUSH2 0xBDA JUMPI JUMPDEST PUSH2 0xBCA DUP2 DUP4 PUSH2 0x146C JUMP JUMPDEST DUP2 ADD SUB SLT PUSH2 0x1B4 JUMPI MLOAD SWAP1 DUP7 PUSH2 0x9A7 JUMP JUMPDEST POP RETURNDATASIZE PUSH2 0xBC0 JUMP JUMPDEST SWAP1 POP DUP6 DUP2 DUP2 RETURNDATASIZE DUP4 GT PUSH2 0xC07 JUMPI JUMPDEST PUSH2 0xBF8 DUP2 DUP4 PUSH2 0x146C JUMP JUMPDEST DUP2 ADD SUB SLT PUSH2 0x1B4 JUMPI MLOAD DUP7 PUSH2 0x97E JUMP JUMPDEST POP RETURNDATASIZE PUSH2 0xBEE JUMP JUMPDEST CALLVALUE PUSH2 0x1B4 JUMPI PUSH1 0x0 CALLDATASIZE PUSH1 0x3 NOT ADD SLT PUSH2 0x1B4 JUMPI PUSH1 0x20 PUSH1 0xA SLOAD PUSH1 0x40 MLOAD SWAP1 DUP2 MSTORE RETURN JUMPDEST CALLVALUE PUSH2 0x1B4 JUMPI PUSH1 0x0 CALLDATASIZE PUSH1 0x3 NOT ADD SLT PUSH2 0x1B4 JUMPI PUSH1 0x20 PUSH1 0x9 SLOAD PUSH1 0x40 MLOAD SWAP1 DUP2 MSTORE RETURN JUMPDEST CALLVALUE PUSH2 0x1B4 JUMPI PUSH1 0x0 CALLDATASIZE PUSH1 0x3 NOT ADD SLT PUSH2 0x1B4 JUMPI PUSH1 0x20 PUSH1 0x40 MLOAD PUSH1 0x12 DUP2 MSTORE RETURN JUMPDEST CALLVALUE PUSH2 0x1B4 JUMPI PUSH1 0x60 CALLDATASIZE PUSH1 0x3 NOT ADD SLT PUSH2 0x1B4 JUMPI PUSH2 0xC7F PUSH2 0x13B1 JUMP JUMPDEST PUSH2 0xC87 PUSH2 0x13C7 JUMP JUMPDEST PUSH1 0x1 PUSH1 0x1 PUSH1 0xA0 SHL SUB DUP3 AND PUSH1 0x0 DUP2 DUP2 MSTORE PUSH1 0x1 PUSH1 0x20 SWAP1 DUP2 MSTORE PUSH1 0x40 DUP1 DUP4 KECCAK256 CALLER DUP5 MSTORE SWAP1 SWAP2 MSTORE SWAP1 KECCAK256 SLOAD SWAP3 PUSH1 0x44 CALLDATALOAD SWAP3 SWAP2 PUSH1 0x0 NOT DUP6 LT PUSH2 0xCC6 JUMPI JUMPDEST POP PUSH2 0x277 SWAP4 POP PUSH2 0x14A4 JUMP JUMPDEST DUP4 DUP6 LT PUSH2 0xD32 JUMPI DUP1 ISZERO PUSH2 0xD19 JUMPI CALLER ISZERO PUSH2 0xD00 JUMPI PUSH2 0x277 SWAP5 DUP5 SWAP2 PUSH1 0x0 MSTORE PUSH1 0x1 PUSH1 0x20 MSTORE PUSH1 0x40 PUSH1 0x0 KECCAK256 CALLER PUSH1 0x0 MSTORE PUSH1 0x20 MSTORE SUB PUSH1 0x40 PUSH1 0x0 KECCAK256 SSTORE DUP5 PUSH2 0xCBB JUMP JUMPDEST PUSH1 0x40 MLOAD PUSH4 0x4A1406B1 PUSH1 0xE1 SHL DUP2 MSTORE PUSH1 0x0 PUSH1 0x4 DUP3 ADD MSTORE PUSH1 0x24 SWAP1 REVERT JUMPDEST PUSH1 0x40 MLOAD PUSH4 0xE602DF05 PUSH1 0xE0 SHL DUP2 MSTORE PUSH1 0x0 PUSH1 0x4 DUP3 ADD MSTORE PUSH1 0x24 SWAP1 REVERT JUMPDEST PUSH1 0x40 MLOAD PUSH4 0x7DC7A0D9 PUSH1 0xE1 SHL DUP2 MSTORE CALLER PUSH1 0x4 DUP3 ADD MSTORE PUSH1 0x24 DUP2 ADD DUP7 SWAP1 MSTORE PUSH1 0x44 DUP2 ADD DUP6 SWAP1 MSTORE PUSH1 0x64 SWAP1 REVERT JUMPDEST CALLVALUE PUSH2 0x1B4 JUMPI PUSH1 0x0 CALLDATASIZE PUSH1 0x3 NOT ADD SLT PUSH2 0x1B4 JUMPI PUSH1 0x20 PUSH1 0x2 SLOAD PUSH1 0x40 MLOAD SWAP1 DUP2 MSTORE RETURN JUMPDEST CALLVALUE PUSH2 0x1B4 JUMPI PUSH1 0x0 CALLDATASIZE PUSH1 0x3 NOT ADD SLT PUSH2 0x1B4 JUMPI PUSH1 0x7 SLOAD PUSH1 0x40 MLOAD PUSH1 0x1 PUSH1 0x1 PUSH1 0xA0 SHL SUB SWAP1 SWAP2 AND DUP2 MSTORE PUSH1 0x20 SWAP1 RETURN JUMPDEST CALLVALUE PUSH2 0x1B4 JUMPI PUSH1 0x40 CALLDATASIZE PUSH1 0x3 NOT ADD SLT PUSH2 0x1B4 JUMPI PUSH2 0xDB8 PUSH2 0x13B1 JUMP JUMPDEST PUSH1 0x24 CALLDATALOAD SWAP1 CALLER ISZERO PUSH2 0xD19 JUMPI PUSH1 0x1 PUSH1 0x1 PUSH1 0xA0 SHL SUB AND SWAP1 DUP2 ISZERO PUSH2 0xD00 JUMPI CALLER PUSH1 0x0 MSTORE PUSH1 0x1 PUSH1 0x20 MSTORE PUSH1 0x40 PUSH1 0x0 KECCAK256 DUP3 PUSH1 0x0 MSTORE PUSH1 0x20 MSTORE DUP1 PUSH1 0x40 PUSH1 0x0 KECCAK256 SSTORE PUSH1 0x40 MLOAD SWAP1 DUP2 MSTORE PUSH32 0x8C5BE1E5EBEC7D5BD14F71427D1E84F3DD0314C0F7B2291E5B200AC8C7C3B925 PUSH1 0x20 CALLER SWAP3 LOG3 PUSH1 0x20 PUSH1 0x40 MLOAD PUSH1 0x1 DUP2 MSTORE RETURN JUMPDEST CALLVALUE PUSH2 0x1B4 JUMPI PUSH1 0x0 CALLDATASIZE PUSH1 0x3 NOT ADD SLT PUSH2 0x1B4 JUMPI PUSH1 0x40 MLOAD PUSH1 0x0 SWAP1 PUSH1 0x3 SLOAD PUSH1 0x1 DUP2 DUP2 SHR SWAP1 DUP1 DUP4 AND SWAP3 DUP4 ISZERO PUSH2 0xED9 JUMPI JUMPDEST PUSH1 0x20 SWAP4 DUP5 DUP5 LT DUP2 EQ PUSH2 0x367 JUMPI DUP4 DUP7 MSTORE SWAP1 DUP2 ISZERO PUSH2 0x347 JUMPI POP PUSH1 0x1 EQ PUSH2 0xE7E JUMPI PUSH2 0x2E8 DUP5 PUSH2 0x2DC DUP2 DUP9 SUB DUP3 PUSH2 0x146C JUMP JUMPDEST PUSH1 0x3 PUSH1 0x0 SWAP1 DUP2 MSTORE SWAP3 SWAP5 POP PUSH32 0xC2575A0E9E593C00F959F8C92F12DB2869C3395A3B0502D05E2516446F71F85B JUMPDEST DUP3 DUP5 LT PUSH2 0xEC6 JUMPI POP POP POP DUP2 PUSH2 0x2E8 SWAP4 PUSH2 0x2DC SWAP3 DUP3 ADD ADD SWAP4 PUSH2 0x2CC JUMP JUMPDEST DUP1 SLOAD DUP6 DUP6 ADD DUP8 ADD MSTORE SWAP3 DUP6 ADD SWAP3 DUP2 ADD PUSH2 0xEAA JUMP JUMPDEST SWAP2 PUSH1 0x7F AND SWAP2 PUSH2 0xE50 JUMP JUMPDEST CALLVALUE PUSH2 0x1B4 JUMPI PUSH2 0xEF1 CALLDATASIZE PUSH2 0x13DD JUMP JUMPDEST SWAP1 SWAP2 PUSH2 0xEFE DUP2 ISZERO ISZERO PUSH2 0x173D JUMP JUMPDEST PUSH2 0xF1F PUSH2 0xF18 DUP5 ISZERO SWAP3 DUP4 ISZERO DUP1 PUSH2 0xF48 JUMPI JUMPDEST PUSH2 0x828 SWAP1 PUSH2 0x16F8 JUMP JUMPDEST SWAP3 DUP4 PUSH2 0x15B4 JUMP JUMPDEST SWAP1 PUSH3 0x186A0 DUP1 DUP6 MUL SWAP5 DUP6 DIV EQ OR ISZERO PUSH2 0x849 JUMPI PUSH2 0x82D PUSH2 0xF40 SWAP3 PUSH1 0x20 SWAP5 PUSH2 0x1582 JUMP JUMPDEST PUSH1 0x40 MLOAD SWAP1 DUP2 MSTORE RETURN JUMPDEST POP DUP5 ISZERO ISZERO PUSH2 0xF0F JUMP JUMPDEST CALLVALUE PUSH2 0x1B4 JUMPI PUSH1 0x80 CALLDATASIZE PUSH1 0x3 NOT ADD SLT PUSH2 0x1B4 JUMPI PUSH1 0x44 CALLDATALOAD PUSH1 0x1 PUSH1 0x1 PUSH1 0xA0 SHL SUB DUP1 DUP3 AND DUP3 SUB PUSH2 0x1B4 JUMPI PUSH1 0x64 CALLDATALOAD PUSH8 0xFFFFFFFFFFFFFFFF DUP1 DUP3 GT PUSH2 0x1B4 JUMPI CALLDATASIZE PUSH1 0x23 DUP4 ADD SLT ISZERO PUSH2 0x1B4 JUMPI DUP2 PUSH1 0x4 ADD CALLDATALOAD SWAP1 DUP2 GT PUSH2 0x1B4 JUMPI CALLDATASIZE SWAP2 ADD PUSH1 0x24 ADD GT PUSH2 0x1B4 JUMPI PUSH2 0xFB3 PUSH2 0x15E7 JUMP JUMPDEST PUSH1 0x4 CALLDATALOAD ISZERO DUP1 ISZERO DUP1 SWAP2 PUSH2 0x138B JUMPI JUMPDEST PUSH2 0xFC9 SWAP1 PUSH2 0x16AC JUMP JUMPDEST PUSH1 0x9 SLOAD PUSH1 0x4 CALLDATALOAD LT DUP1 PUSH2 0x137E JUMPI JUMPDEST PUSH2 0xFDF SWAP1 PUSH2 0x16F8 JUMP JUMPDEST PUSH2 0x1309 JUMPI JUMPDEST PUSH1 0x24 CALLDATALOAD PUSH2 0x1296 JUMPI JUMPDEST DUP1 PUSH1 0x7 SLOAD AND SWAP2 PUSH1 0x40 MLOAD PUSH1 0x20 DUP2 PUSH1 0x24 DUP2 PUSH4 0x70A08231 PUSH1 0xE0 SHL SWAP8 DUP9 DUP3 MSTORE ADDRESS PUSH1 0x4 DUP4 ADD MSTORE GAS STATICCALL SWAP1 DUP2 ISZERO PUSH2 0x658 JUMPI PUSH1 0x0 SWAP2 PUSH2 0x1264 JUMPI JUMPDEST POP PUSH1 0x20 DUP4 PUSH1 0x8 SLOAD AND SWAP5 PUSH1 0x24 PUSH1 0x40 MLOAD DUP1 SWAP8 DUP2 SWAP4 DUP3 MSTORE ADDRESS PUSH1 0x4 DUP4 ADD MSTORE GAS STATICCALL SWAP4 DUP5 ISZERO PUSH2 0x658 JUMPI PUSH1 0x0 SWAP5 PUSH2 0x1230 JUMPI JUMPDEST POP PUSH1 0x9 SLOAD SWAP1 PUSH2 0x105A PUSH1 0x4 CALLDATALOAD DUP4 PUSH2 0x158F JUMP JUMPDEST DUP2 GT ISZERO PUSH2 0x1228 JUMPI PUSH2 0x1076 PUSH2 0x1070 PUSH1 0x4 CALLDATALOAD DUP5 PUSH2 0x158F JUMP JUMPDEST DUP3 PUSH2 0x158F JUMP JUMPDEST SWAP5 JUMPDEST PUSH1 0xA SLOAD SWAP3 PUSH2 0x1088 PUSH1 0x24 CALLDATALOAD DUP6 PUSH2 0x158F JUMP JUMPDEST DUP3 GT ISZERO PUSH2 0x1220 JUMPI PUSH2 0x10A4 PUSH2 0x109E PUSH1 0x24 CALLDATALOAD DUP7 PUSH2 0x158F JUMP JUMPDEST DUP4 PUSH2 0x158F JUMP JUMPDEST SWAP4 JUMPDEST DUP8 ISZERO SWAP1 DUP2 ISZERO DUP3 PUSH2 0x1217 JUMPI JUMPDEST PUSH2 0x10BA SWAP1 PUSH2 0x173D JUMP JUMPDEST PUSH3 0x186A0 DUP6 MUL DUP6 DUP2 DIV PUSH3 0x186A0 EQ DUP7 ISZERO OR ISZERO PUSH2 0x849 JUMPI PUSH2 0x12C SWAP3 DUP4 DUP12 MUL SWAP1 DUP12 DUP3 DIV DUP6 EQ OR ISZERO PUSH2 0x849 JUMPI PUSH2 0x10EC SWAP2 PUSH2 0x158F JUMP JUMPDEST PUSH3 0x186A0 DUP6 MUL SWAP1 DUP6 DUP3 DIV PUSH3 0x186A0 EQ DUP7 ISZERO OR ISZERO PUSH2 0x849 JUMPI DUP8 DUP5 DUP2 MUL DIV DUP5 EQ DUP9 ISZERO OR ISZERO PUSH2 0x849 JUMPI PUSH2 0x1125 PUSH2 0x112B SWAP3 PUSH2 0x1131 SWAP6 DUP11 MUL SWAP1 PUSH2 0x158F JUMP JUMPDEST SWAP1 PUSH2 0x15B4 JUMP JUMPDEST SWAP3 PUSH2 0x15B4 JUMP JUMPDEST PUSH1 0x1 SWAP1 PUSH3 0x186A0 PUSH1 0x2 JUMPDEST PUSH1 0x1 DUP2 GT PUSH2 0x11EE JUMPI POP DUP1 PUSH1 0x0 NOT DIV DUP4 GT PUSH2 0x849 JUMPI PUSH2 0x115A SWAP3 MUL SWAP1 PUSH2 0x15B4 JUMP JUMPDEST GT PUSH2 0x11B2 JUMPI PUSH2 0x1168 SWAP2 PUSH2 0x1789 JUMP JUMPDEST PUSH1 0x40 MLOAD SWAP4 DUP5 MSTORE PUSH1 0x20 DUP5 ADD MSTORE PUSH1 0x4 CALLDATALOAD PUSH1 0x40 DUP5 ADD MSTORE PUSH1 0x24 CALLDATALOAD PUSH1 0x60 DUP5 ADD MSTORE AND SWAP1 PUSH32 0xD78AD95FA46C994B6551D0DA85FC275FE613CE37657FB8D5E3D130840159D822 PUSH1 0x80 CALLER SWAP3 LOG3 PUSH1 0x1 PUSH1 0x5 SSTORE STOP JUMPDEST PUSH1 0x40 MLOAD PUSH3 0x461BCD PUSH1 0xE5 SHL DUP2 MSTORE PUSH1 0x20 PUSH1 0x4 DUP3 ADD MSTORE PUSH1 0x14 PUSH1 0x24 DUP3 ADD MSTORE PUSH20 0x12C81A5B9D985C9A585B9D081D9A5BDB185D1959 PUSH1 0x62 SHL PUSH1 0x44 DUP3 ADD MSTORE PUSH1 0x64 SWAP1 REVERT JUMPDEST SWAP1 DUP1 PUSH1 0x0 NOT DIV DUP2 GT PUSH2 0x849 JUMPI PUSH1 0x1 DUP3 AND PUSH2 0x120E JUMPI JUMPDEST DUP1 MUL SWAP1 PUSH1 0x1 SHR PUSH2 0x113B JUMP JUMPDEST DUP1 SWAP4 MUL SWAP3 PUSH2 0x1203 JUMP JUMPDEST POP DUP6 ISZERO ISZERO PUSH2 0x10B1 JUMP JUMPDEST PUSH1 0x0 SWAP4 PUSH2 0x10A6 JUMP JUMPDEST PUSH1 0x0 SWAP5 PUSH2 0x1078 JUMP JUMPDEST SWAP1 SWAP4 POP PUSH1 0x20 DUP2 RETURNDATASIZE PUSH1 0x20 GT PUSH2 0x125C JUMPI JUMPDEST DUP2 PUSH2 0x124C PUSH1 0x20 SWAP4 DUP4 PUSH2 0x146C JUMP JUMPDEST DUP2 ADD SUB SLT PUSH2 0x1B4 JUMPI MLOAD SWAP3 DUP5 PUSH2 0x1049 JUMP JUMPDEST RETURNDATASIZE SWAP2 POP PUSH2 0x123F JUMP JUMPDEST SWAP1 POP PUSH1 0x20 DUP2 RETURNDATASIZE PUSH1 0x20 GT PUSH2 0x128E JUMPI JUMPDEST DUP2 PUSH2 0x127F PUSH1 0x20 SWAP4 DUP4 PUSH2 0x146C JUMP JUMPDEST DUP2 ADD SUB SLT PUSH2 0x1B4 JUMPI MLOAD DUP5 PUSH2 0x101E JUMP JUMPDEST RETURNDATASIZE SWAP2 POP PUSH2 0x1272 JUMP JUMPDEST PUSH1 0x8 SLOAD PUSH1 0x40 MLOAD PUSH4 0xA9059CBB PUSH1 0xE0 SHL DUP2 MSTORE PUSH1 0x1 PUSH1 0x1 PUSH1 0xA0 SHL SUB DUP5 AND PUSH1 0x4 DUP3 ADD MSTORE PUSH1 0x24 DUP1 CALLDATALOAD SWAP1 DUP3 ADD MSTORE SWAP1 PUSH1 0x20 SWAP1 DUP3 SWAP1 PUSH1 0x44 SWAP1 DUP3 SWAP1 PUSH1 0x0 SWAP1 DUP8 AND GAS CALL DUP1 ISZERO PUSH2 0x658 JUMPI PUSH2 0x12E6 SWAP2 PUSH1 0x0 SWAP2 PUSH2 0x12EB JUMPI POP PUSH2 0x1667 JUMP JUMPDEST PUSH2 0xFEC JUMP JUMPDEST PUSH2 0x1303 SWAP2 POP PUSH1 0x20 RETURNDATASIZE DUP2 GT PUSH2 0x6B9 JUMPI PUSH2 0x6AB DUP2 DUP4 PUSH2 0x146C JUMP JUMPDEST DUP5 PUSH2 0x574 JUMP JUMPDEST PUSH1 0x7 SLOAD PUSH1 0x40 MLOAD PUSH4 0xA9059CBB PUSH1 0xE0 SHL DUP2 MSTORE PUSH1 0x1 PUSH1 0x1 PUSH1 0xA0 SHL SUB DUP5 AND PUSH1 0x4 DUP1 DUP4 ADD SWAP2 SWAP1 SWAP2 MSTORE CALLDATALOAD PUSH1 0x24 DUP3 ADD MSTORE SWAP1 PUSH1 0x20 SWAP1 DUP3 SWAP1 PUSH1 0x44 SWAP1 DUP3 SWAP1 PUSH1 0x0 SWAP1 DUP8 AND GAS CALL DUP1 ISZERO PUSH2 0x658 JUMPI PUSH2 0x135B SWAP2 PUSH1 0x0 SWAP2 PUSH2 0x1360 JUMPI POP PUSH2 0x1622 JUMP JUMPDEST PUSH2 0xFE4 JUMP JUMPDEST PUSH2 0x1378 SWAP2 POP PUSH1 0x20 RETURNDATASIZE DUP2 GT PUSH2 0x6B9 JUMPI PUSH2 0x6AB DUP2 DUP4 PUSH2 0x146C JUMP JUMPDEST DUP5 PUSH2 0x52A JUMP JUMPDEST POP PUSH1 0xA SLOAD PUSH1 0x24 CALLDATALOAD LT PUSH2 0xFD6 JUMP JUMPDEST POP PUSH1 0x24 CALLDATALOAD ISZERO ISZERO PUSH2 0xFC0 JUMP JUMPDEST CALLVALUE PUSH2 0x1B4 JUMPI PUSH1 0x0 CALLDATASIZE PUSH1 0x3 NOT ADD SLT PUSH2 0x1B4 JUMPI DUP1 PUSH2 0x12C PUSH1 0x20 SWAP3 MSTORE RETURN JUMPDEST PUSH1 0x4 CALLDATALOAD SWAP1 PUSH1 0x1 PUSH1 0x1 PUSH1 0xA0 SHL SUB DUP3 AND DUP3 SUB PUSH2 0x1B4 JUMPI JUMP JUMPDEST PUSH1 0x24 CALLDATALOAD SWAP1 PUSH1 0x1 PUSH1 0x1 PUSH1 0xA0 SHL SUB DUP3 AND DUP3 SUB PUSH2 0x1B4 JUMPI JUMP JUMPDEST PUSH1 0x60 SWAP1 PUSH1 0x3 NOT ADD SLT PUSH2 0x1B4 JUMPI PUSH1 0x4 CALLDATALOAD SWAP1 PUSH1 0x24 CALLDATALOAD SWAP1 PUSH1 0x44 CALLDATALOAD SWAP1 JUMP JUMPDEST PUSH1 0x20 DUP1 DUP3 MSTORE DUP3 MLOAD DUP2 DUP4 ADD DUP2 SWAP1 MSTORE SWAP1 SWAP4 SWAP3 PUSH1 0x0 JUMPDEST DUP3 DUP2 LT PUSH2 0x142C JUMPI POP POP PUSH1 0x40 SWAP3 SWAP4 POP PUSH1 0x0 DUP4 DUP3 DUP5 ADD ADD MSTORE PUSH1 0x1F DUP1 NOT SWAP2 ADD AND ADD ADD SWAP1 JUMP JUMPDEST DUP2 DUP2 ADD DUP7 ADD MLOAD DUP5 DUP3 ADD PUSH1 0x40 ADD MSTORE DUP6 ADD PUSH2 0x140A JUMP JUMPDEST PUSH1 0x6 SLOAD PUSH1 0x1 PUSH1 0x1 PUSH1 0xA0 SHL SUB AND CALLER SUB PUSH2 0x1454 JUMPI JUMP JUMPDEST PUSH1 0x40 MLOAD PUSH4 0x118CDAA7 PUSH1 0xE0 SHL DUP2 MSTORE CALLER PUSH1 0x4 DUP3 ADD MSTORE PUSH1 0x24 SWAP1 REVERT JUMPDEST SWAP1 PUSH1 0x1F DUP1 NOT SWAP2 ADD AND DUP2 ADD SWAP1 DUP2 LT PUSH8 0xFFFFFFFFFFFFFFFF DUP3 GT OR PUSH2 0x148E JUMPI PUSH1 0x40 MSTORE JUMP JUMPDEST PUSH4 0x4E487B71 PUSH1 0xE0 SHL PUSH1 0x0 MSTORE PUSH1 0x41 PUSH1 0x4 MSTORE PUSH1 0x24 PUSH1 0x0 REVERT JUMPDEST SWAP2 PUSH1 0x1 PUSH1 0x1 PUSH1 0xA0 SHL SUB DUP1 DUP5 AND SWAP3 DUP4 ISZERO PUSH2 0x1569 JUMPI AND SWAP3 DUP4 ISZERO PUSH2 0x1550 JUMPI PUSH1 0x0 SWAP1 DUP4 DUP3 MSTORE DUP2 PUSH1 0x20 MSTORE PUSH1 0x40 DUP3 KECCAK256 SLOAD SWAP1 DUP4 DUP3 LT PUSH2 0x151E JUMPI POP SWAP2 PUSH1 0x40 DUP3 DUP3 PUSH32 0xDDF252AD1BE2C89B69C2B068FC378DAA952BA7F163C4A11628F55A4DF523B3EF SWAP6 DUP8 PUSH1 0x20 SWAP7 MSTORE DUP3 DUP7 MSTORE SUB DUP3 DUP3 KECCAK256 SSTORE DUP7 DUP2 MSTORE KECCAK256 DUP2 DUP2 SLOAD ADD SWAP1 SSTORE PUSH1 0x40 MLOAD SWAP1 DUP2 MSTORE LOG3 JUMP JUMPDEST PUSH1 0x40 MLOAD PUSH4 0x391434E3 PUSH1 0xE2 SHL DUP2 MSTORE PUSH1 0x1 PUSH1 0x1 PUSH1 0xA0 SHL SUB SWAP2 SWAP1 SWAP2 AND PUSH1 0x4 DUP3 ADD MSTORE PUSH1 0x24 DUP2 ADD SWAP2 SWAP1 SWAP2 MSTORE PUSH1 0x44 DUP2 ADD DUP4 SWAP1 MSTORE PUSH1 0x64 SWAP1 REVERT JUMPDEST PUSH1 0x40 MLOAD PUSH4 0xEC442F05 PUSH1 0xE0 SHL DUP2 MSTORE PUSH1 0x0 PUSH1 0x4 DUP3 ADD MSTORE PUSH1 0x24 SWAP1 REVERT JUMPDEST PUSH1 0x40 MLOAD PUSH4 0x4B637E8F PUSH1 0xE1 SHL DUP2 MSTORE PUSH1 0x0 PUSH1 0x4 DUP3 ADD MSTORE PUSH1 0x24 SWAP1 REVERT JUMPDEST SWAP2 SWAP1 DUP3 ADD DUP1 SWAP3 GT PUSH2 0x849 JUMPI JUMP JUMPDEST SWAP2 SWAP1 DUP3 SUB SWAP2 DUP3 GT PUSH2 0x849 JUMPI JUMP JUMPDEST SWAP1 PUSH3 0x18574 SWAP2 DUP3 DUP2 MUL SWAP3 DUP2 DUP5 DIV EQ SWAP1 ISZERO OR ISZERO PUSH2 0x849 JUMPI JUMP JUMPDEST DUP2 DUP2 MUL SWAP3 SWAP2 DUP2 ISZERO SWAP2 DUP5 DIV EQ OR ISZERO PUSH2 0x849 JUMPI JUMP JUMPDEST DUP2 ISZERO PUSH2 0x15D1 JUMPI DIV SWAP1 JUMP JUMPDEST PUSH4 0x4E487B71 PUSH1 0xE0 SHL PUSH1 0x0 MSTORE PUSH1 0x12 PUSH1 0x4 MSTORE PUSH1 0x24 PUSH1 0x0 REVERT JUMPDEST PUSH1 0x2 PUSH1 0x5 SLOAD EQ PUSH2 0x15F8 JUMPI PUSH1 0x2 PUSH1 0x5 SSTORE JUMP JUMPDEST PUSH1 0x40 MLOAD PUSH4 0x3EE5AEB5 PUSH1 0xE0 SHL DUP2 MSTORE PUSH1 0x4 SWAP1 REVERT JUMPDEST SWAP1 DUP2 PUSH1 0x20 SWAP2 SUB SLT PUSH2 0x1B4 JUMPI MLOAD DUP1 ISZERO ISZERO DUP2 SUB PUSH2 0x1B4 JUMPI SWAP1 JUMP JUMPDEST ISZERO PUSH2 0x1629 JUMPI JUMP JUMPDEST PUSH1 0x40 MLOAD PUSH3 0x461BCD PUSH1 0xE5 SHL DUP2 MSTORE PUSH1 0x20 PUSH1 0x4 DUP3 ADD MSTORE PUSH1 0x16 PUSH1 0x24 DUP3 ADD MSTORE PUSH22 0x151BDAD95B8C081D1C985B9CD9995C8819985A5B1959 PUSH1 0x52 SHL PUSH1 0x44 DUP3 ADD MSTORE PUSH1 0x64 SWAP1 REVERT JUMPDEST ISZERO PUSH2 0x166E JUMPI JUMP JUMPDEST PUSH1 0x40 MLOAD PUSH3 0x461BCD PUSH1 0xE5 SHL DUP2 MSTORE PUSH1 0x20 PUSH1 0x4 DUP3 ADD MSTORE PUSH1 0x16 PUSH1 0x24 DUP3 ADD MSTORE PUSH22 0x151BDAD95B8C481D1C985B9CD9995C8819985A5B1959 PUSH1 0x52 SHL PUSH1 0x44 DUP3 ADD MSTORE PUSH1 0x64 SWAP1 REVERT JUMPDEST ISZERO PUSH2 0x16B3 JUMPI JUMP JUMPDEST PUSH1 0x40 MLOAD PUSH3 0x461BCD PUSH1 0xE5 SHL DUP2 MSTORE PUSH1 0x20 PUSH1 0x4 DUP3 ADD MSTORE PUSH1 0x1A PUSH1 0x24 DUP3 ADD MSTORE PUSH32 0x496E73756666696369656E74206F757470757420616D6F756E74000000000000 PUSH1 0x44 DUP3 ADD MSTORE PUSH1 0x64 SWAP1 REVERT JUMPDEST ISZERO PUSH2 0x16FF JUMPI JUMP JUMPDEST PUSH1 0x40 MLOAD PUSH3 0x461BCD PUSH1 0xE5 SHL DUP2 MSTORE PUSH1 0x20 PUSH1 0x4 DUP3 ADD MSTORE PUSH1 0x16 PUSH1 0x24 DUP3 ADD MSTORE PUSH22 0x496E73756666696369656E74206C6971756964697479 PUSH1 0x50 SHL PUSH1 0x44 DUP3 ADD MSTORE PUSH1 0x64 SWAP1 REVERT JUMPDEST ISZERO PUSH2 0x1744 JUMPI JUMP JUMPDEST PUSH1 0x40 MLOAD PUSH3 0x461BCD PUSH1 0xE5 SHL DUP2 MSTORE PUSH1 0x20 PUSH1 0x4 DUP3 ADD MSTORE PUSH1 0x19 PUSH1 0x24 DUP3 ADD MSTORE PUSH32 0x496E73756666696369656E7420696E70757420616D6F756E7400000000000000 PUSH1 0x44 DUP3 ADD MSTORE PUSH1 0x64 SWAP1 REVERT JUMPDEST PUSH1 0x40 SWAP1 PUSH32 0xCF2AA50876CDFBB541206F89AF0EE78D44A2ABF8D328E37FA4917F982149848A SWAP3 DUP2 PUSH1 0x9 SSTORE DUP1 PUSH1 0xA SSTORE DUP3 MLOAD SWAP2 DUP3 MSTORE PUSH1 0x20 DUP3 ADD MSTORE LOG1 JUMP INVALID LOG1 PUSH5 0x736F6C6343 STOP ADDMOD EQ STOP EXP "},"methodIdentifiers":{"BASIS_POINTS()":"e1f1c4a7","FEE_PERCENTAGE()":"000b46f8","allowance(address,address)":"dd62ed3e","approve(address,uint256)":"095ea7b3","balanceOf(address)":"70a08231","burn(address)":"89afcb44","decimals()":"313ce567","getAmountIn(uint256,uint256,uint256)":"85f8c259","getAmountOut(uint256,uint256,uint256)":"054d50d4","kLast()":"7464fc3d","mint(address)":"6a627842","name()":"06fdde03","owner()":"8da5cb5b","renounceOwnership()":"715018a6","reserve0()":"443cb4bc","reserve1()":"5a76f25e","swap(uint256,uint256,address,bytes)":"022c0d9f","symbol()":"95d89b41","token0()":"0dfe1681","token1()":"d21220a7","totalSupply()":"18160ddd","transfer(address,uint256)":"a9059cbb","transferFrom(address,address,uint256)":"23b872dd","transferOwnership(address)":"f2fde38b"}}}}}