{"src/contracts/TicketMarketplace.sol":{"TicketMarketplace":{"abi":[{"inputs":[{"internalType":"address","name":"_ticketContract","type":"address"},{"internalType":"address","name":"_stablecoinContract","type":"address"},{"internalType":"address","name":"_founderAddress","type":"address"}],"stateMutability":"nonpayable","type":"constructor"},{"inputs":[{"internalType":"address","name":"owner","type":"address"}],"name":"OwnableInvalidOwner","type":"error"},{"inputs":[{"internalType":"address","name":"account","type":"address"}],"name":"OwnableUnauthorizedAccount","type":"error"},{"anonymous":false,"inputs":[{"indexed":true,"internalType":"uint256","name":"tokenId","type":"uint256"},{"indexed":false,"internalType":"uint256","name":"platformFee","type":"uint256"},{"indexed":false,"internalType":"uint256","name":"founderShare","type":"uint256"},{"indexed":false,"internalType":"uint256","name":"creatorRoyalty","type":"uint256"}],"name":"FeeDistributed","type":"event"},{"anonymous":false,"inputs":[{"indexed":true,"internalType":"uint256","name":"tokenId","type":"uint256"},{"indexed":true,"internalType":"address","name":"seller","type":"address"}],"name":"ListingCanceled","type":"event"},{"anonymous":false,"inputs":[{"indexed":true,"internalType":"address","name":"previousOwner","type":"address"},{"indexed":true,"internalType":"address","name":"newOwner","type":"address"}],"name":"OwnershipTransferred","type":"event"},{"anonymous":false,"inputs":[{"indexed":true,"internalType":"uint256","name":"tokenId","type":"uint256"},{"indexed":true,"internalType":"address","name":"buyer","type":"address"},{"indexed":true,"internalType":"address","name":"seller","type":"address"},{"indexed":false,"internalType":"uint256","name":"price","type":"uint256"}],"name":"TicketBought","type":"event"},{"anonymous":false,"inputs":[{"indexed":true,"internalType":"uint256","name":"tokenId","type":"uint256"},{"indexed":true,"internalType":"address","name":"seller","type":"address"},{"indexed":false,"internalType":"uint256","name":"price","type":"uint256"}],"name":"TicketListed","type":"event"},{"inputs":[],"name":"FOUNDER_SHARE_BPS","outputs":[{"internalType":"uint256","name":"","type":"uint256"}],"stateMutability":"view","type":"function"},{"inputs":[],"name":"PLATFORM_FEE_BPS","outputs":[{"internalType":"uint256","name":"","type":"uint256"}],"stateMutability":"view","type":"function"},{"inputs":[{"internalType":"uint256","name":"tokenId","type":"uint256"}],"name":"buyTicket","outputs":[],"stateMutability":"nonpayable","type":"function"},{"inputs":[{"internalType":"uint256","name":"tokenId","type":"uint256"}],"name":"cancelListing","outputs":[],"stateMutability":"nonpayable","type":"function"},{"inputs":[],"name":"founderAddress","outputs":[{"internalType":"address","name":"","type":"address"}],"stateMutability":"view","type":"function"},{"inputs":[{"internalType":"uint256","name":"tokenId","type":"uint256"},{"internalType":"uint256","name":"price","type":"uint256"}],"name":"listTicket","outputs":[],"stateMutability":"nonpayable","type":"function"},{"inputs":[{"internalType":"uint256","name":"","type":"uint256"}],"name":"listings","outputs":[{"internalType":"address","name":"seller","type":"address"},{"internalType":"uint256","name":"price","type":"uint256"},{"internalType":"bool","name":"isListed","type":"bool"}],"stateMutability":"view","type":"function"},{"inputs":[],"name":"owner","outputs":[{"internalType":"address","name":"","type":"address"}],"stateMutability":"view","type":"function"},{"inputs":[],"name":"renounceOwnership","outputs":[],"stateMutability":"nonpayable","type":"function"},{"inputs":[],"name":"royaltyContract","outputs":[{"internalType":"contract IERC2981","name":"","type":"address"}],"stateMutability":"view","type":"function"},{"inputs":[],"name":"stablecoinContract","outputs":[{"internalType":"contract IERC20","name":"","type":"address"}],"stateMutability":"view","type":"function"},{"inputs":[],"name":"ticketContract","outputs":[{"internalType":"contract IERC721","name":"","type":"address"}],"stateMutability":"view","type":"function"},{"inputs":[{"internalType":"address","name":"newOwner","type":"address"}],"name":"transferOwnership","outputs":[],"stateMutability":"nonpayable","type":"function"},{"inputs":[{"internalType":"uint256","name":"amount","type":"uint256"}],"name":"withdrawStablecoin","outputs":[],"stateMutability":"nonpayable","type":"function"}],"evm":{"bytecode":{"linkReferences":{},"object":"6101003461022957601f620012d838819003918201601f191683019291906001600160401b0384118385101761022e5781606092849260409687528339810103126102295761004d81610244565b6100648361005d60208501610244565b9301610244565b9133156102115760008054336001600160a01b031982168117835586516001600160a01b039590949386939192918416907f8be0079c531659141344cd1fd0a4f28419497f9722a3daafe3b4186f6b6457e09080a3169182156101cf5750821691821561017f5783161561013b578060805260a05260c05260e0525161107f90816200025982396080518181816105c601528181610a860152610b56015260a05181818161044a0152610f08015260c051818181610232015281816103b00152610f4b015260e0518181816104a80152610ae60152f35b835162461bcd60e51b815260206004820152601760248201527f496e76616c696420666f756e64657220616464726573730000000000000000006044820152606490fd5b845162461bcd60e51b815260206004820152602360248201527f496e76616c696420737461626c65636f696e20636f6e7472616374206164647260448201526265737360e81b6064820152608490fd5b62461bcd60e51b815260206004820152601f60248201527f496e76616c6964207469636b657420636f6e74726163742061646472657373006044820152606490fd5b8351631e4fbdf760e01b815260006004820152602490fd5b600080fd5b634e487b7160e01b600052604160045260246000fd5b51906001600160a01b03821682036102295756fe608060408181526004908136101561001657600080fd5b600092833560e01c90816308ccf40314610f37575080631663ee0314610ef3578063305a67a814610e1f578063305a905a14610b1557806346bb283314610ad1578063539aa77f14610ab557806358a86e1d14610a7157806367dd74ca14610340578063715018a6146102e3578063870e974e146101ed5780638da5cb5b146101c5578063b19b7c0d146101a5578063de74e57b146101585763f2fde38b146100be57600080fd5b34610154576020366003190112610154576001600160a01b03823581811693919290849003610150576100ef610f7a565b831561013a575050600054826bffffffffffffffffffffffff60a01b821617600055167f8be0079c531659141344cd1fd0a4f28419497f9722a3daafe3b4186f6b6457e0600080a380f35b51631e4fbdf760e01b8152908101849052602490fd5b8480fd5b8280fd5b5090346101545760203660031901126101545760609282913581526001602052209060018060a01b038254169160ff60026001830154920154169082519384526020840152151590820152f35b8382346101c157816003193601126101c1576020905160148152f35b5080fd5b8382346101c157816003193601126101c157905490516001600160a01b039091168152602090f35b503461015457602036600319011261015457610207610f7a565b805163a9059cbb60e01b815233838201908152833560208281019190915290829081906040010381877f00000000000000000000000000000000000000000000000000000000000000006001600160a01b03165af19081156102d95784916102ab575b5015610274578280f35b906020606492519162461bcd60e51b8352820152601160248201527015da5d1a191c985dd85b0819985a5b1959607a1b6044820152fd5b6102cc915060203d81116102d2575b6102c48183610fa6565b810190611037565b3861026a565b503d6102ba565b82513d86823e3d90fd5b833461033d578060031936011261033d576102fc610f7a565b600080546001600160a01b0319811682556001600160a01b03167f8be0079c531659141344cd1fd0a4f28419497f9722a3daafe3b4186f6b6457e08280a380f35b80fd5b5090346101545760208060031936011261070e57813592838552600182528085209261037260ff600286015416610ff7565b83546001600160a01b0390811694909390338614610a30576001015483516323b872dd60e01b815233848201908152306020820152604081018390527f000000000000000000000000000000000000000000000000000000000000000087169792919084908290819060600103818d8c5af1908115610a26578a91610a09575b50156109c75760c881029681159782810460c8148917156109b45761271080910498601484029084820460141417156109a157049486519763152a902d60e11b89528a828a015260249284848b01528c898b604481867f0000000000000000000000000000000000000000000000000000000000000000165afa9a8b1561099557819b610955575b508a8c0190818d116109435786821015610901579089918f8c518b81806104e463a9059cbb60e01b988983527f00000000000000000000000000000000000000000000000000000000000000008d840160209093929193604081019460018060a01b031681520152565b0381858a5af19182156108f657916108d9575b5015610896578f908a8f8f908f918f948115158061088b575b6107dc575b5050610550936105249161104f565b9088855416905193849283928984528c840160209093929193604081019460018060a01b031681520152565b038185895af19182156107d157916107b4575b5015610772576105a8928f919261057b8b948a61104f565b8d519182526001600160a01b038b1688830190815260208101919091529094859384929091839160400190565b03925af1908115610768578d9161074b575b501561071257908b92917f000000000000000000000000000000000000000000000000000000000000000016803b1561070e578851632142170760e11b81526001600160a01b038716838201908152336020820152604081018e9052909491859182908490829060600103925af18015610704576106b3575b5050509160609593917f5b3735d487e9342fbcf11df79c2146f60ffabadb4d2e31ced107fe4346cd21ef979593898b526001835260006002868d2082815582600182015501558451908152897f44b4a3d0d8e806cfda189b34f2af001a470ea7120cf481411a083ff5e930623b843393a48251948552840152820152a280f35b67ffffffffffffffff839c949c116106f3575050855297817f5b3735d487e9342fbcf11df79c2146f60ffabadb4d2e31ced107fe4346cd21ef6060610633565b634e487b7160e01b84526041905282fd5b88513d8e823e3d90fd5b8380fd5b5060156064928689519362461bcd60e51b85528401528201527414d95b1b195c881c185e5b595b9d0819985a5b1959605a1b6044820152fd5b6107629150873d89116102d2576102c48183610fa6565b386105ba565b89513d8f823e3d90fd5b8a5162461bcd60e51b81528086018a9052601c818801527f506c6174666f726d20666565207472616e73666572206661696c6564000000006044820152606490fd5b6107cb91508a3d8c116102d2576102c48183610fa6565b38610563565b8d51903d90823e3d90fd5b92518881526001600160a01b039093168b840190815260208101919091529193508391829150604001038185895af19182156107d1579161086e575b501561082c578e8a8a8f8f908f9138610515565b8a5162461bcd60e51b81528086018a90526017818801527f526f79616c7479207472616e73666572206661696c65640000000000000000006044820152606490fd5b61088591508a3d8c116102d2576102c48183610fa6565b38610818565b508a81161515610510565b508a5162461bcd60e51b81528086018a9052601d818801527f466f756e646572207368617265207472616e73666572206661696c65640000006044820152606490fd5b6108f091508b3d8d116102d2576102c48183610fa6565b386104f7565b8e51903d90823e3d90fd5b8a5162461bcd60e51b81528086018a90526017818801527f546f74616c2066656573206578636565642070726963650000000000000000006044820152606490fd5b634e487b7160e01b8f5260118552858ffd5b809b508a8092503d831161098e575b61096e8183610fa6565b8101031261098a57866109808b610fde565b9a0151993861047a565b8c80fd5b503d610964565b508951903d90823e3d90fd5b634e487b7160e01b8c526011875260248cfd5b634e487b7160e01b8b526011865260248bfd5b5050606492519162461bcd60e51b8352820152601a60248201527f537461626c65636f696e207472616e73666572206661696c65640000000000006044820152fd5b610a209150843d86116102d2576102c48183610fa6565b386103f2565b86513d8c823e3d90fd5b50606492519162461bcd60e51b8352820152601a60248201527f43616e6e6f742062757920796f7572206f776e207469636b65740000000000006044820152fd5b8382346101c157816003193601126101c157517f00000000000000000000000000000000000000000000000000000000000000006001600160a01b03168152602090f35b8382346101c157816003193601126101c1576020905160c88152f35b8382346101c157816003193601126101c157517f00000000000000000000000000000000000000000000000000000000000000006001600160a01b03168152602090f35b508290346101c157806003193601126101c15782356024938435928315610ddd5780516331a9108f60e11b81528083018490526020926001600160a01b03917f000000000000000000000000000000000000000000000000000000000000000083169085818b81855afa908115610dd3578991610d9a575b508333911603610d585784899185519283809263020604bf60e21b82528a878301525afa908115610d4e578891610d15575b508230911603610cc5578487526001845260ff6002848920015416610c8b57825197606089019189831067ffffffffffffffff841117610c7a5750507f22968ec3be3687b180f3544163a034b88d57b48159d9a7e9a1b610fdb2d05f809495969760029184523381528481018881528482019360018552888b5260018752858b209251166bffffffffffffffffffffffff60a01b835416178255516001820155019051151560ff80198354169116179055519384523393a380f35b634e487b7160e01b89526041905287fd5b825162461bcd60e51b815290810184905260158189015274151a58dad95d08185b1c9958591e481b1a5cdd1959605a1b6044820152606490fd5b825162461bcd60e51b81529081018490526025818901527f4d61726b6574706c616365206e6f7420617070726f76656420666f72207472616044820152643739b332b960d91b6064820152608490fd5b90508481813d8311610d47575b610d2c8183610fa6565b81010312610d4357610d3d90610fde565b89610bbf565b8780fd5b503d610d22565b84513d8a823e3d90fd5b835162461bcd60e51b8152808301869052601b818b01527f4e6f7420746865206f776e6572206f6620746865207469636b657400000000006044820152606490fd5b90508581813d8311610dcc575b610db18183610fa6565b81010312610dc857610dc290610fde565b8a610b8d565b8880fd5b503d610da7565b85513d8b823e3d90fd5b90601f866020606494519362461bcd60e51b85528401528201527f5072696365206d7573742062652067726561746572207468616e207a65726f006044820152fd5b5034610154576020366003190112610154578135918284526001602052818420610e4f60ff600283015416610ff7565b546001600160a01b03163303610ea257506002839183835260016020528220828155826001820155015533907fbb7be15645f4eda9d65591c3a81b5e39256151f91bc25180315de259167c2e238380a380f35b6020608492519162461bcd60e51b8352820152602660248201527f4f6e6c79207468652073656c6c65722063616e2063616e63656c20746865206c604482015265697374696e6760d01b6064820152fd5b8382346101c157816003193601126101c157517f00000000000000000000000000000000000000000000000000000000000000006001600160a01b03168152602090f35b8490346101c157816003193601126101c1577f00000000000000000000000000000000000000000000000000000000000000006001600160a01b03168152602090f35b6000546001600160a01b03163303610f8e57565b60405163118cdaa760e01b8152336004820152602490fd5b90601f8019910116810190811067ffffffffffffffff821117610fc857604052565b634e487b7160e01b600052604160045260246000fd5b51906001600160a01b0382168203610ff257565b600080fd5b15610ffe57565b60405162461bcd60e51b8152602060048201526011602482015270151a58dad95d081b9bdd081b1a5cdd1959607a1b6044820152606490fd5b90816020910312610ff257518015158103610ff25790565b9190820391821161105c57565b634e487b7160e01b600052601160045260246000fdfea164736f6c6343000814000a","opcodes":"PUSH2 0x100 CALLVALUE PUSH2 0x229 JUMPI PUSH1 0x1F PUSH3 0x12D8 CODESIZE DUP2 SWAP1 SUB SWAP2 DUP3 ADD PUSH1 0x1F NOT AND DUP4 ADD SWAP3 SWAP2 SWAP1 PUSH1 0x1 PUSH1 0x1 PUSH1 0x40 SHL SUB DUP5 GT DUP4 DUP6 LT OR PUSH2 0x22E JUMPI DUP2 PUSH1 0x60 SWAP3 DUP5 SWAP3 PUSH1 0x40 SWAP7 DUP8 MSTORE DUP4 CODECOPY DUP2 ADD SUB SLT PUSH2 0x229 JUMPI PUSH2 0x4D DUP2 PUSH2 0x244 JUMP JUMPDEST PUSH2 0x64 DUP4 PUSH2 0x5D PUSH1 0x20 DUP6 ADD PUSH2 0x244 JUMP JUMPDEST SWAP4 ADD PUSH2 0x244 JUMP JUMPDEST SWAP2 CALLER ISZERO PUSH2 0x211 JUMPI PUSH1 0x0 DUP1 SLOAD CALLER PUSH1 0x1 PUSH1 0x1 PUSH1 0xA0 SHL SUB NOT DUP3 AND DUP2 OR DUP4 SSTORE DUP7 MLOAD PUSH1 0x1 PUSH1 0x1 PUSH1 0xA0 SHL SUB SWAP6 SWAP1 SWAP5 SWAP4 DUP7 SWAP4 SWAP2 SWAP3 SWAP2 DUP5 AND SWAP1 PUSH32 0x8BE0079C531659141344CD1FD0A4F28419497F9722A3DAAFE3B4186F6B6457E0 SWAP1 DUP1 LOG3 AND SWAP2 DUP3 ISZERO PUSH2 0x1CF JUMPI POP DUP3 AND SWAP2 DUP3 ISZERO PUSH2 0x17F JUMPI DUP4 AND ISZERO PUSH2 0x13B JUMPI DUP1 PUSH1 0x80 MSTORE PUSH1 0xA0 MSTORE PUSH1 0xC0 MSTORE PUSH1 0xE0 MSTORE MLOAD PUSH2 0x107F SWAP1 DUP2 PUSH3 0x259 DUP3 CODECOPY PUSH1 0x80 MLOAD DUP2 DUP2 DUP2 PUSH2 0x5C6 ADD MSTORE DUP2 DUP2 PUSH2 0xA86 ADD MSTORE PUSH2 0xB56 ADD MSTORE PUSH1 0xA0 MLOAD DUP2 DUP2 DUP2 PUSH2 0x44A ADD MSTORE PUSH2 0xF08 ADD MSTORE PUSH1 0xC0 MLOAD DUP2 DUP2 DUP2 PUSH2 0x232 ADD MSTORE DUP2 DUP2 PUSH2 0x3B0 ADD MSTORE PUSH2 0xF4B ADD MSTORE PUSH1 0xE0 MLOAD DUP2 DUP2 DUP2 PUSH2 0x4A8 ADD MSTORE PUSH2 0xAE6 ADD MSTORE RETURN JUMPDEST DUP4 MLOAD PUSH3 0x461BCD PUSH1 0xE5 SHL DUP2 MSTORE PUSH1 0x20 PUSH1 0x4 DUP3 ADD MSTORE PUSH1 0x17 PUSH1 0x24 DUP3 ADD MSTORE PUSH32 0x496E76616C696420666F756E6465722061646472657373000000000000000000 PUSH1 0x44 DUP3 ADD MSTORE PUSH1 0x64 SWAP1 REVERT JUMPDEST DUP5 MLOAD PUSH3 0x461BCD PUSH1 0xE5 SHL DUP2 MSTORE PUSH1 0x20 PUSH1 0x4 DUP3 ADD MSTORE PUSH1 0x23 PUSH1 0x24 DUP3 ADD MSTORE PUSH32 0x496E76616C696420737461626C65636F696E20636F6E74726163742061646472 PUSH1 0x44 DUP3 ADD MSTORE PUSH3 0x657373 PUSH1 0xE8 SHL PUSH1 0x64 DUP3 ADD MSTORE PUSH1 0x84 SWAP1 REVERT JUMPDEST PUSH3 0x461BCD PUSH1 0xE5 SHL DUP2 MSTORE PUSH1 0x20 PUSH1 0x4 DUP3 ADD MSTORE PUSH1 0x1F PUSH1 0x24 DUP3 ADD MSTORE PUSH32 0x496E76616C6964207469636B657420636F6E7472616374206164647265737300 PUSH1 0x44 DUP3 ADD MSTORE PUSH1 0x64 SWAP1 REVERT JUMPDEST DUP4 MLOAD PUSH4 0x1E4FBDF7 PUSH1 0xE0 SHL DUP2 MSTORE PUSH1 0x0 PUSH1 0x4 DUP3 ADD MSTORE PUSH1 0x24 SWAP1 REVERT JUMPDEST PUSH1 0x0 DUP1 REVERT JUMPDEST PUSH4 0x4E487B71 PUSH1 0xE0 SHL PUSH1 0x0 MSTORE PUSH1 0x41 PUSH1 0x4 MSTORE PUSH1 0x24 PUSH1 0x0 REVERT JUMPDEST MLOAD SWAP1 PUSH1 0x1 PUSH1 0x1 PUSH1 0xA0 SHL SUB DUP3 AND DUP3 SUB PUSH2 0x229 JUMPI JUMP INVALID PUSH1 0x80 PUSH1 0x40 DUP2 DUP2 MSTORE PUSH1 0x4 SWAP1 DUP2 CALLDATASIZE LT ISZERO PUSH2 0x16 JUMPI PUSH1 0x0 DUP1 REVERT JUMPDEST PUSH1 0x0 SWAP3 DUP4 CALLDATALOAD PUSH1 0xE0 SHR SWAP1 DUP2 PUSH4 0x8CCF403 EQ PUSH2 0xF37 JUMPI POP DUP1 PUSH4 0x1663EE03 EQ PUSH2 0xEF3 JUMPI DUP1 PUSH4 0x305A67A8 EQ PUSH2 0xE1F JUMPI DUP1 PUSH4 0x305A905A EQ PUSH2 0xB15 JUMPI DUP1 PUSH4 0x46BB2833 EQ PUSH2 0xAD1 JUMPI DUP1 PUSH4 0x539AA77F EQ PUSH2 0xAB5 JUMPI DUP1 PUSH4 0x58A86E1D EQ PUSH2 0xA71 JUMPI DUP1 PUSH4 0x67DD74CA EQ PUSH2 0x340 JUMPI DUP1 PUSH4 0x715018A6 EQ PUSH2 0x2E3 JUMPI DUP1 PUSH4 0x870E974E EQ PUSH2 0x1ED JUMPI DUP1 PUSH4 0x8DA5CB5B EQ PUSH2 0x1C5 JUMPI DUP1 PUSH4 0xB19B7C0D EQ PUSH2 0x1A5 JUMPI DUP1 PUSH4 0xDE74E57B EQ PUSH2 0x158 JUMPI PUSH4 0xF2FDE38B EQ PUSH2 0xBE JUMPI PUSH1 0x0 DUP1 REVERT JUMPDEST CALLVALUE PUSH2 0x154 JUMPI PUSH1 0x20 CALLDATASIZE PUSH1 0x3 NOT ADD SLT PUSH2 0x154 JUMPI PUSH1 0x1 PUSH1 0x1 PUSH1 0xA0 SHL SUB DUP3 CALLDATALOAD DUP2 DUP2 AND SWAP4 SWAP2 SWAP3 SWAP1 DUP5 SWAP1 SUB PUSH2 0x150 JUMPI PUSH2 0xEF PUSH2 0xF7A JUMP JUMPDEST DUP4 ISZERO PUSH2 0x13A JUMPI POP POP PUSH1 0x0 SLOAD DUP3 PUSH12 0xFFFFFFFFFFFFFFFFFFFFFFFF PUSH1 0xA0 SHL DUP3 AND OR PUSH1 0x0 SSTORE AND PUSH32 0x8BE0079C531659141344CD1FD0A4F28419497F9722A3DAAFE3B4186F6B6457E0 PUSH1 0x0 DUP1 LOG3 DUP1 RETURN JUMPDEST MLOAD PUSH4 0x1E4FBDF7 PUSH1 0xE0 SHL DUP2 MSTORE SWAP1 DUP2 ADD DUP5 SWAP1 MSTORE PUSH1 0x24 SWAP1 REVERT JUMPDEST DUP5 DUP1 REVERT JUMPDEST DUP3 DUP1 REVERT JUMPDEST POP SWAP1 CALLVALUE PUSH2 0x154 JUMPI PUSH1 0x20 CALLDATASIZE PUSH1 0x3 NOT ADD SLT PUSH2 0x154 JUMPI PUSH1 0x60 SWAP3 DUP3 SWAP2 CALLDATALOAD DUP2 MSTORE PUSH1 0x1 PUSH1 0x20 MSTORE KECCAK256 SWAP1 PUSH1 0x1 DUP1 PUSH1 0xA0 SHL SUB DUP3 SLOAD AND SWAP2 PUSH1 0xFF PUSH1 0x2 PUSH1 0x1 DUP4 ADD SLOAD SWAP3 ADD SLOAD AND SWAP1 DUP3 MLOAD SWAP4 DUP5 MSTORE PUSH1 0x20 DUP5 ADD MSTORE ISZERO ISZERO SWAP1 DUP3 ADD MSTORE RETURN JUMPDEST DUP4 DUP3 CALLVALUE PUSH2 0x1C1 JUMPI DUP2 PUSH1 0x3 NOT CALLDATASIZE ADD SLT PUSH2 0x1C1 JUMPI PUSH1 0x20 SWAP1 MLOAD PUSH1 0x14 DUP2 MSTORE RETURN JUMPDEST POP DUP1 REVERT JUMPDEST DUP4 DUP3 CALLVALUE PUSH2 0x1C1 JUMPI DUP2 PUSH1 0x3 NOT CALLDATASIZE ADD SLT PUSH2 0x1C1 JUMPI SWAP1 SLOAD SWAP1 MLOAD PUSH1 0x1 PUSH1 0x1 PUSH1 0xA0 SHL SUB SWAP1 SWAP2 AND DUP2 MSTORE PUSH1 0x20 SWAP1 RETURN JUMPDEST POP CALLVALUE PUSH2 0x154 JUMPI PUSH1 0x20 CALLDATASIZE PUSH1 0x3 NOT ADD SLT PUSH2 0x154 JUMPI PUSH2 0x207 PUSH2 0xF7A JUMP JUMPDEST DUP1 MLOAD PUSH4 0xA9059CBB PUSH1 0xE0 SHL DUP2 MSTORE CALLER DUP4 DUP3 ADD SWAP1 DUP2 MSTORE DUP4 CALLDATALOAD PUSH1 0x20 DUP3 DUP2 ADD SWAP2 SWAP1 SWAP2 MSTORE SWAP1 DUP3 SWAP1 DUP2 SWAP1 PUSH1 0x40 ADD SUB DUP2 DUP8 PUSH32 0x0 PUSH1 0x1 PUSH1 0x1 PUSH1 0xA0 SHL SUB AND GAS CALL SWAP1 DUP2 ISZERO PUSH2 0x2D9 JUMPI DUP5 SWAP2 PUSH2 0x2AB JUMPI JUMPDEST POP ISZERO PUSH2 0x274 JUMPI DUP3 DUP1 RETURN JUMPDEST SWAP1 PUSH1 0x20 PUSH1 0x64 SWAP3 MLOAD SWAP2 PUSH3 0x461BCD PUSH1 0xE5 SHL DUP4 MSTORE DUP3 ADD MSTORE PUSH1 0x11 PUSH1 0x24 DUP3 ADD MSTORE PUSH17 0x15DA5D1A191C985DD85B0819985A5B1959 PUSH1 0x7A SHL PUSH1 0x44 DUP3 ADD MSTORE REVERT JUMPDEST PUSH2 0x2CC SWAP2 POP PUSH1 0x20 RETURNDATASIZE DUP2 GT PUSH2 0x2D2 JUMPI JUMPDEST PUSH2 0x2C4 DUP2 DUP4 PUSH2 0xFA6 JUMP JUMPDEST DUP2 ADD SWAP1 PUSH2 0x1037 JUMP JUMPDEST CODESIZE PUSH2 0x26A JUMP JUMPDEST POP RETURNDATASIZE PUSH2 0x2BA JUMP JUMPDEST DUP3 MLOAD RETURNDATASIZE DUP7 DUP3 RETURNDATACOPY RETURNDATASIZE SWAP1 REVERT JUMPDEST DUP4 CALLVALUE PUSH2 0x33D JUMPI DUP1 PUSH1 0x3 NOT CALLDATASIZE ADD SLT PUSH2 0x33D JUMPI PUSH2 0x2FC PUSH2 0xF7A JUMP JUMPDEST PUSH1 0x0 DUP1 SLOAD PUSH1 0x1 PUSH1 0x1 PUSH1 0xA0 SHL SUB NOT DUP2 AND DUP3 SSTORE PUSH1 0x1 PUSH1 0x1 PUSH1 0xA0 SHL SUB AND PUSH32 0x8BE0079C531659141344CD1FD0A4F28419497F9722A3DAAFE3B4186F6B6457E0 DUP3 DUP1 LOG3 DUP1 RETURN JUMPDEST DUP1 REVERT JUMPDEST POP SWAP1 CALLVALUE PUSH2 0x154 JUMPI PUSH1 0x20 DUP1 PUSH1 0x3 NOT CALLDATASIZE ADD SLT PUSH2 0x70E JUMPI DUP2 CALLDATALOAD SWAP3 DUP4 DUP6 MSTORE PUSH1 0x1 DUP3 MSTORE DUP1 DUP6 KECCAK256 SWAP3 PUSH2 0x372 PUSH1 0xFF PUSH1 0x2 DUP7 ADD SLOAD AND PUSH2 0xFF7 JUMP JUMPDEST DUP4 SLOAD PUSH1 0x1 PUSH1 0x1 PUSH1 0xA0 SHL SUB SWAP1 DUP2 AND SWAP5 SWAP1 SWAP4 SWAP1 CALLER DUP7 EQ PUSH2 0xA30 JUMPI PUSH1 0x1 ADD SLOAD DUP4 MLOAD PUSH4 0x23B872DD PUSH1 0xE0 SHL DUP2 MSTORE CALLER DUP5 DUP3 ADD SWAP1 DUP2 MSTORE ADDRESS PUSH1 0x20 DUP3 ADD MSTORE PUSH1 0x40 DUP2 ADD DUP4 SWAP1 MSTORE PUSH32 0x0 DUP8 AND SWAP8 SWAP3 SWAP2 SWAP1 DUP5 SWAP1 DUP3 SWAP1 DUP2 SWAP1 PUSH1 0x60 ADD SUB DUP2 DUP14 DUP13 GAS CALL SWAP1 DUP2 ISZERO PUSH2 0xA26 JUMPI DUP11 SWAP2 PUSH2 0xA09 JUMPI JUMPDEST POP ISZERO PUSH2 0x9C7 JUMPI PUSH1 0xC8 DUP2 MUL SWAP7 DUP2 ISZERO SWAP8 DUP3 DUP2 DIV PUSH1 0xC8 EQ DUP10 OR ISZERO PUSH2 0x9B4 JUMPI PUSH2 0x2710 DUP1 SWAP2 DIV SWAP9 PUSH1 0x14 DUP5 MUL SWAP1 DUP5 DUP3 DIV PUSH1 0x14 EQ OR ISZERO PUSH2 0x9A1 JUMPI DIV SWAP5 DUP7 MLOAD SWAP8 PUSH4 0x152A902D PUSH1 0xE1 SHL DUP10 MSTORE DUP11 DUP3 DUP11 ADD MSTORE PUSH1 0x24 SWAP3 DUP5 DUP5 DUP12 ADD MSTORE DUP13 DUP10 DUP12 PUSH1 0x44 DUP2 DUP7 PUSH32 0x0 AND GAS STATICCALL SWAP11 DUP12 ISZERO PUSH2 0x995 JUMPI DUP2 SWAP12 PUSH2 0x955 JUMPI JUMPDEST POP DUP11 DUP13 ADD SWAP1 DUP2 DUP14 GT PUSH2 0x943 JUMPI DUP7 DUP3 LT ISZERO PUSH2 0x901 JUMPI SWAP1 DUP10 SWAP2 DUP16 DUP13 MLOAD DUP12 DUP2 DUP1 PUSH2 0x4E4 PUSH4 0xA9059CBB PUSH1 0xE0 SHL SWAP9 DUP10 DUP4 MSTORE PUSH32 0x0 DUP14 DUP5 ADD PUSH1 0x20 SWAP1 SWAP4 SWAP3 SWAP2 SWAP4 PUSH1 0x40 DUP2 ADD SWAP5 PUSH1 0x1 DUP1 PUSH1 0xA0 SHL SUB AND DUP2 MSTORE ADD MSTORE JUMP JUMPDEST SUB DUP2 DUP6 DUP11 GAS CALL SWAP2 DUP3 ISZERO PUSH2 0x8F6 JUMPI SWAP2 PUSH2 0x8D9 JUMPI JUMPDEST POP ISZERO PUSH2 0x896 JUMPI DUP16 SWAP1 DUP11 DUP16 DUP16 SWAP1 DUP16 SWAP2 DUP16 SWAP5 DUP2 ISZERO ISZERO DUP1 PUSH2 0x88B JUMPI JUMPDEST PUSH2 0x7DC JUMPI JUMPDEST POP POP PUSH2 0x550 SWAP4 PUSH2 0x524 SWAP2 PUSH2 0x104F JUMP JUMPDEST SWAP1 DUP9 DUP6 SLOAD AND SWAP1 MLOAD SWAP4 DUP5 SWAP3 DUP4 SWAP3 DUP10 DUP5 MSTORE DUP13 DUP5 ADD PUSH1 0x20 SWAP1 SWAP4 SWAP3 SWAP2 SWAP4 PUSH1 0x40 DUP2 ADD SWAP5 PUSH1 0x1 DUP1 PUSH1 0xA0 SHL SUB AND DUP2 MSTORE ADD MSTORE JUMP JUMPDEST SUB DUP2 DUP6 DUP10 GAS CALL SWAP2 DUP3 ISZERO PUSH2 0x7D1 JUMPI SWAP2 PUSH2 0x7B4 JUMPI JUMPDEST POP ISZERO PUSH2 0x772 JUMPI PUSH2 0x5A8 SWAP3 DUP16 SWAP2 SWAP3 PUSH2 0x57B DUP12 SWAP5 DUP11 PUSH2 0x104F JUMP JUMPDEST DUP14 MLOAD SWAP2 DUP3 MSTORE PUSH1 0x1 PUSH1 0x1 PUSH1 0xA0 SHL SUB DUP12 AND DUP9 DUP4 ADD SWAP1 DUP2 MSTORE PUSH1 0x20 DUP2 ADD SWAP2 SWAP1 SWAP2 MSTORE SWAP1 SWAP5 DUP6 SWAP4 DUP5 SWAP3 SWAP1 SWAP2 DUP4 SWAP2 PUSH1 0x40 ADD SWAP1 JUMP JUMPDEST SUB SWAP3 GAS CALL SWAP1 DUP2 ISZERO PUSH2 0x768 JUMPI DUP14 SWAP2 PUSH2 0x74B JUMPI JUMPDEST POP ISZERO PUSH2 0x712 JUMPI SWAP1 DUP12 SWAP3 SWAP2 PUSH32 0x0 AND DUP1 EXTCODESIZE ISZERO PUSH2 0x70E JUMPI DUP9 MLOAD PUSH4 0x21421707 PUSH1 0xE1 SHL DUP2 MSTORE PUSH1 0x1 PUSH1 0x1 PUSH1 0xA0 SHL SUB DUP8 AND DUP4 DUP3 ADD SWAP1 DUP2 MSTORE CALLER PUSH1 0x20 DUP3 ADD MSTORE PUSH1 0x40 DUP2 ADD DUP15 SWAP1 MSTORE SWAP1 SWAP5 SWAP2 DUP6 SWAP2 DUP3 SWAP1 DUP5 SWAP1 DUP3 SWAP1 PUSH1 0x60 ADD SUB SWAP3 GAS CALL DUP1 ISZERO PUSH2 0x704 JUMPI PUSH2 0x6B3 JUMPI JUMPDEST POP POP POP SWAP2 PUSH1 0x60 SWAP6 SWAP4 SWAP2 PUSH32 0x5B3735D487E9342FBCF11DF79C2146F60FFABADB4D2E31CED107FE4346CD21EF SWAP8 SWAP6 SWAP4 DUP10 DUP12 MSTORE PUSH1 0x1 DUP4 MSTORE PUSH1 0x0 PUSH1 0x2 DUP7 DUP14 KECCAK256 DUP3 DUP2 SSTORE DUP3 PUSH1 0x1 DUP3 ADD SSTORE ADD SSTORE DUP5 MLOAD SWAP1 DUP2 MSTORE DUP10 PUSH32 0x44B4A3D0D8E806CFDA189B34F2AF001A470EA7120CF481411A083FF5E930623B DUP5 CALLER SWAP4 LOG4 DUP3 MLOAD SWAP5 DUP6 MSTORE DUP5 ADD MSTORE DUP3 ADD MSTORE LOG2 DUP1 RETURN JUMPDEST PUSH8 0xFFFFFFFFFFFFFFFF DUP4 SWAP13 SWAP5 SWAP13 GT PUSH2 0x6F3 JUMPI POP POP DUP6 MSTORE SWAP8 DUP2 PUSH32 0x5B3735D487E9342FBCF11DF79C2146F60FFABADB4D2E31CED107FE4346CD21EF PUSH1 0x60 PUSH2 0x633 JUMP JUMPDEST PUSH4 0x4E487B71 PUSH1 0xE0 SHL DUP5 MSTORE PUSH1 0x41 SWAP1 MSTORE DUP3 REVERT JUMPDEST DUP9 MLOAD RETURNDATASIZE DUP15 DUP3 RETURNDATACOPY RETURNDATASIZE SWAP1 REVERT JUMPDEST DUP4 DUP1 REVERT JUMPDEST POP PUSH1 0x15 PUSH1 0x64 SWAP3 DUP7 DUP10 MLOAD SWAP4 PUSH3 0x461BCD PUSH1 0xE5 SHL DUP6 MSTORE DUP5 ADD MSTORE DUP3 ADD MSTORE PUSH21 0x14D95B1B195C881C185E5B595B9D0819985A5B1959 PUSH1 0x5A SHL PUSH1 0x44 DUP3 ADD MSTORE REVERT JUMPDEST PUSH2 0x762 SWAP2 POP DUP8 RETURNDATASIZE DUP10 GT PUSH2 0x2D2 JUMPI PUSH2 0x2C4 DUP2 DUP4 PUSH2 0xFA6 JUMP JUMPDEST CODESIZE PUSH2 0x5BA JUMP JUMPDEST DUP10 MLOAD RETURNDATASIZE DUP16 DUP3 RETURNDATACOPY RETURNDATASIZE SWAP1 REVERT JUMPDEST DUP11 MLOAD PUSH3 0x461BCD PUSH1 0xE5 SHL DUP2 MSTORE DUP1 DUP7 ADD DUP11 SWAP1 MSTORE PUSH1 0x1C DUP2 DUP9 ADD MSTORE PUSH32 0x506C6174666F726D20666565207472616E73666572206661696C656400000000 PUSH1 0x44 DUP3 ADD MSTORE PUSH1 0x64 SWAP1 REVERT JUMPDEST PUSH2 0x7CB SWAP2 POP DUP11 RETURNDATASIZE DUP13 GT PUSH2 0x2D2 JUMPI PUSH2 0x2C4 DUP2 DUP4 PUSH2 0xFA6 JUMP JUMPDEST CODESIZE PUSH2 0x563 JUMP JUMPDEST DUP14 MLOAD SWAP1 RETURNDATASIZE SWAP1 DUP3 RETURNDATACOPY RETURNDATASIZE SWAP1 REVERT JUMPDEST SWAP3 MLOAD DUP9 DUP2 MSTORE PUSH1 0x1 PUSH1 0x1 PUSH1 0xA0 SHL SUB SWAP1 SWAP4 AND DUP12 DUP5 ADD SWAP1 DUP2 MSTORE PUSH1 0x20 DUP2 ADD SWAP2 SWAP1 SWAP2 MSTORE SWAP2 SWAP4 POP DUP4 SWAP2 DUP3 SWAP2 POP PUSH1 0x40 ADD SUB DUP2 DUP6 DUP10 GAS CALL SWAP2 DUP3 ISZERO PUSH2 0x7D1 JUMPI SWAP2 PUSH2 0x86E JUMPI JUMPDEST POP ISZERO PUSH2 0x82C JUMPI DUP15 DUP11 DUP11 DUP16 DUP16 SWAP1 DUP16 SWAP2 CODESIZE PUSH2 0x515 JUMP JUMPDEST DUP11 MLOAD PUSH3 0x461BCD PUSH1 0xE5 SHL DUP2 MSTORE DUP1 DUP7 ADD DUP11 SWAP1 MSTORE PUSH1 0x17 DUP2 DUP9 ADD MSTORE PUSH32 0x526F79616C7479207472616E73666572206661696C6564000000000000000000 PUSH1 0x44 DUP3 ADD MSTORE PUSH1 0x64 SWAP1 REVERT JUMPDEST PUSH2 0x885 SWAP2 POP DUP11 RETURNDATASIZE DUP13 GT PUSH2 0x2D2 JUMPI PUSH2 0x2C4 DUP2 DUP4 PUSH2 0xFA6 JUMP JUMPDEST CODESIZE PUSH2 0x818 JUMP JUMPDEST POP DUP11 DUP2 AND ISZERO ISZERO PUSH2 0x510 JUMP JUMPDEST POP DUP11 MLOAD PUSH3 0x461BCD PUSH1 0xE5 SHL DUP2 MSTORE DUP1 DUP7 ADD DUP11 SWAP1 MSTORE PUSH1 0x1D DUP2 DUP9 ADD MSTORE PUSH32 0x466F756E646572207368617265207472616E73666572206661696C6564000000 PUSH1 0x44 DUP3 ADD MSTORE PUSH1 0x64 SWAP1 REVERT JUMPDEST PUSH2 0x8F0 SWAP2 POP DUP12 RETURNDATASIZE DUP14 GT PUSH2 0x2D2 JUMPI PUSH2 0x2C4 DUP2 DUP4 PUSH2 0xFA6 JUMP JUMPDEST CODESIZE PUSH2 0x4F7 JUMP JUMPDEST DUP15 MLOAD SWAP1 RETURNDATASIZE SWAP1 DUP3 RETURNDATACOPY RETURNDATASIZE SWAP1 REVERT JUMPDEST DUP11 MLOAD PUSH3 0x461BCD PUSH1 0xE5 SHL DUP2 MSTORE DUP1 DUP7 ADD DUP11 SWAP1 MSTORE PUSH1 0x17 DUP2 DUP9 ADD MSTORE PUSH32 0x546F74616C206665657320657863656564207072696365000000000000000000 PUSH1 0x44 DUP3 ADD MSTORE PUSH1 0x64 SWAP1 REVERT JUMPDEST PUSH4 0x4E487B71 PUSH1 0xE0 SHL DUP16 MSTORE PUSH1 0x11 DUP6 MSTORE DUP6 DUP16 REVERT JUMPDEST DUP1 SWAP12 POP DUP11 DUP1 SWAP3 POP RETURNDATASIZE DUP4 GT PUSH2 0x98E JUMPI JUMPDEST PUSH2 0x96E DUP2 DUP4 PUSH2 0xFA6 JUMP JUMPDEST DUP2 ADD SUB SLT PUSH2 0x98A JUMPI DUP7 PUSH2 0x980 DUP12 PUSH2 0xFDE JUMP JUMPDEST SWAP11 ADD MLOAD SWAP10 CODESIZE PUSH2 0x47A JUMP JUMPDEST DUP13 DUP1 REVERT JUMPDEST POP RETURNDATASIZE PUSH2 0x964 JUMP JUMPDEST POP DUP10 MLOAD SWAP1 RETURNDATASIZE SWAP1 DUP3 RETURNDATACOPY RETURNDATASIZE SWAP1 REVERT JUMPDEST PUSH4 0x4E487B71 PUSH1 0xE0 SHL DUP13 MSTORE PUSH1 0x11 DUP8 MSTORE PUSH1 0x24 DUP13 REVERT JUMPDEST PUSH4 0x4E487B71 PUSH1 0xE0 SHL DUP12 MSTORE PUSH1 0x11 DUP7 MSTORE PUSH1 0x24 DUP12 REVERT JUMPDEST POP POP PUSH1 0x64 SWAP3 MLOAD SWAP2 PUSH3 0x461BCD PUSH1 0xE5 SHL DUP4 MSTORE DUP3 ADD MSTORE PUSH1 0x1A PUSH1 0x24 DUP3 ADD MSTORE PUSH32 0x537461626C65636F696E207472616E73666572206661696C6564000000000000 PUSH1 0x44 DUP3 ADD MSTORE REVERT JUMPDEST PUSH2 0xA20 SWAP2 POP DUP5 RETURNDATASIZE DUP7 GT PUSH2 0x2D2 JUMPI PUSH2 0x2C4 DUP2 DUP4 PUSH2 0xFA6 JUMP JUMPDEST CODESIZE PUSH2 0x3F2 JUMP JUMPDEST DUP7 MLOAD RETURNDATASIZE DUP13 DUP3 RETURNDATACOPY RETURNDATASIZE SWAP1 REVERT JUMPDEST POP PUSH1 0x64 SWAP3 MLOAD SWAP2 PUSH3 0x461BCD PUSH1 0xE5 SHL DUP4 MSTORE DUP3 ADD MSTORE PUSH1 0x1A PUSH1 0x24 DUP3 ADD MSTORE PUSH32 0x43616E6E6F742062757920796F7572206F776E207469636B6574000000000000 PUSH1 0x44 DUP3 ADD MSTORE REVERT JUMPDEST DUP4 DUP3 CALLVALUE PUSH2 0x1C1 JUMPI DUP2 PUSH1 0x3 NOT CALLDATASIZE ADD SLT PUSH2 0x1C1 JUMPI MLOAD PUSH32 0x0 PUSH1 0x1 PUSH1 0x1 PUSH1 0xA0 SHL SUB AND DUP2 MSTORE PUSH1 0x20 SWAP1 RETURN JUMPDEST DUP4 DUP3 CALLVALUE PUSH2 0x1C1 JUMPI DUP2 PUSH1 0x3 NOT CALLDATASIZE ADD SLT PUSH2 0x1C1 JUMPI PUSH1 0x20 SWAP1 MLOAD PUSH1 0xC8 DUP2 MSTORE RETURN JUMPDEST DUP4 DUP3 CALLVALUE PUSH2 0x1C1 JUMPI DUP2 PUSH1 0x3 NOT CALLDATASIZE ADD SLT PUSH2 0x1C1 JUMPI MLOAD PUSH32 0x0 PUSH1 0x1 PUSH1 0x1 PUSH1 0xA0 SHL SUB AND DUP2 MSTORE PUSH1 0x20 SWAP1 RETURN JUMPDEST POP DUP3 SWAP1 CALLVALUE PUSH2 0x1C1 JUMPI DUP1 PUSH1 0x3 NOT CALLDATASIZE ADD SLT PUSH2 0x1C1 JUMPI DUP3 CALLDATALOAD PUSH1 0x24 SWAP4 DUP5 CALLDATALOAD SWAP3 DUP4 ISZERO PUSH2 0xDDD JUMPI DUP1 MLOAD PUSH4 0x31A9108F PUSH1 0xE1 SHL DUP2 MSTORE DUP1 DUP4 ADD DUP5 SWAP1 MSTORE PUSH1 0x20 SWAP3 PUSH1 0x1 PUSH1 0x1 PUSH1 0xA0 SHL SUB SWAP2 PUSH32 0x0 DUP4 AND SWAP1 DUP6 DUP2 DUP12 DUP2 DUP6 GAS STATICCALL SWAP1 DUP2 ISZERO PUSH2 0xDD3 JUMPI DUP10 SWAP2 PUSH2 0xD9A JUMPI JUMPDEST POP DUP4 CALLER SWAP2 AND SUB PUSH2 0xD58 JUMPI DUP5 DUP10 SWAP2 DUP6 MLOAD SWAP3 DUP4 DUP1 SWAP3 PUSH4 0x20604BF PUSH1 0xE2 SHL DUP3 MSTORE DUP11 DUP8 DUP4 ADD MSTORE GAS STATICCALL SWAP1 DUP2 ISZERO PUSH2 0xD4E JUMPI DUP9 SWAP2 PUSH2 0xD15 JUMPI JUMPDEST POP DUP3 ADDRESS SWAP2 AND SUB PUSH2 0xCC5 JUMPI DUP5 DUP8 MSTORE PUSH1 0x1 DUP5 MSTORE PUSH1 0xFF PUSH1 0x2 DUP5 DUP10 KECCAK256 ADD SLOAD AND PUSH2 0xC8B JUMPI DUP3 MLOAD SWAP8 PUSH1 0x60 DUP10 ADD SWAP2 DUP10 DUP4 LT PUSH8 0xFFFFFFFFFFFFFFFF DUP5 GT OR PUSH2 0xC7A JUMPI POP POP PUSH32 0x22968EC3BE3687B180F3544163A034B88D57B48159D9A7E9A1B610FDB2D05F80 SWAP5 SWAP6 SWAP7 SWAP8 PUSH1 0x2 SWAP2 DUP5 MSTORE CALLER DUP2 MSTORE DUP5 DUP2 ADD DUP9 DUP2 MSTORE DUP5 DUP3 ADD SWAP4 PUSH1 0x1 DUP6 MSTORE DUP9 DUP12 MSTORE PUSH1 0x1 DUP8 MSTORE DUP6 DUP12 KECCAK256 SWAP3 MLOAD AND PUSH12 0xFFFFFFFFFFFFFFFFFFFFFFFF PUSH1 0xA0 SHL DUP4 SLOAD AND OR DUP3 SSTORE MLOAD PUSH1 0x1 DUP3 ADD SSTORE ADD SWAP1 MLOAD ISZERO ISZERO PUSH1 0xFF DUP1 NOT DUP4 SLOAD AND SWAP2 AND OR SWAP1 SSTORE MLOAD SWAP4 DUP5 MSTORE CALLER SWAP4 LOG3 DUP1 RETURN JUMPDEST PUSH4 0x4E487B71 PUSH1 0xE0 SHL DUP10 MSTORE PUSH1 0x41 SWAP1 MSTORE DUP8 REVERT JUMPDEST DUP3 MLOAD PUSH3 0x461BCD PUSH1 0xE5 SHL DUP2 MSTORE SWAP1 DUP2 ADD DUP5 SWAP1 MSTORE PUSH1 0x15 DUP2 DUP10 ADD MSTORE PUSH21 0x151A58DAD95D08185B1C9958591E481B1A5CDD1959 PUSH1 0x5A SHL PUSH1 0x44 DUP3 ADD MSTORE PUSH1 0x64 SWAP1 REVERT JUMPDEST DUP3 MLOAD PUSH3 0x461BCD PUSH1 0xE5 SHL DUP2 MSTORE SWAP1 DUP2 ADD DUP5 SWAP1 MSTORE PUSH1 0x25 DUP2 DUP10 ADD MSTORE PUSH32 0x4D61726B6574706C616365206E6F7420617070726F76656420666F7220747261 PUSH1 0x44 DUP3 ADD MSTORE PUSH5 0x3739B332B9 PUSH1 0xD9 SHL PUSH1 0x64 DUP3 ADD MSTORE PUSH1 0x84 SWAP1 REVERT JUMPDEST SWAP1 POP DUP5 DUP2 DUP2 RETURNDATASIZE DUP4 GT PUSH2 0xD47 JUMPI JUMPDEST PUSH2 0xD2C DUP2 DUP4 PUSH2 0xFA6 JUMP JUMPDEST DUP2 ADD SUB SLT PUSH2 0xD43 JUMPI PUSH2 0xD3D SWAP1 PUSH2 0xFDE JUMP JUMPDEST DUP10 PUSH2 0xBBF JUMP JUMPDEST DUP8 DUP1 REVERT JUMPDEST POP RETURNDATASIZE PUSH2 0xD22 JUMP JUMPDEST DUP5 MLOAD RETURNDATASIZE DUP11 DUP3 RETURNDATACOPY RETURNDATASIZE SWAP1 REVERT JUMPDEST DUP4 MLOAD PUSH3 0x461BCD PUSH1 0xE5 SHL DUP2 MSTORE DUP1 DUP4 ADD DUP7 SWAP1 MSTORE PUSH1 0x1B DUP2 DUP12 ADD MSTORE PUSH32 0x4E6F7420746865206F776E6572206F6620746865207469636B65740000000000 PUSH1 0x44 DUP3 ADD MSTORE PUSH1 0x64 SWAP1 REVERT JUMPDEST SWAP1 POP DUP6 DUP2 DUP2 RETURNDATASIZE DUP4 GT PUSH2 0xDCC JUMPI JUMPDEST PUSH2 0xDB1 DUP2 DUP4 PUSH2 0xFA6 JUMP JUMPDEST DUP2 ADD SUB SLT PUSH2 0xDC8 JUMPI PUSH2 0xDC2 SWAP1 PUSH2 0xFDE JUMP JUMPDEST DUP11 PUSH2 0xB8D JUMP JUMPDEST DUP9 DUP1 REVERT JUMPDEST POP RETURNDATASIZE PUSH2 0xDA7 JUMP JUMPDEST DUP6 MLOAD RETURNDATASIZE DUP12 DUP3 RETURNDATACOPY RETURNDATASIZE SWAP1 REVERT JUMPDEST SWAP1 PUSH1 0x1F DUP7 PUSH1 0x20 PUSH1 0x64 SWAP5 MLOAD SWAP4 PUSH3 0x461BCD PUSH1 0xE5 SHL DUP6 MSTORE DUP5 ADD MSTORE DUP3 ADD MSTORE PUSH32 0x5072696365206D7573742062652067726561746572207468616E207A65726F00 PUSH1 0x44 DUP3 ADD MSTORE REVERT JUMPDEST POP CALLVALUE PUSH2 0x154 JUMPI PUSH1 0x20 CALLDATASIZE PUSH1 0x3 NOT ADD SLT PUSH2 0x154 JUMPI DUP2 CALLDATALOAD SWAP2 DUP3 DUP5 MSTORE PUSH1 0x1 PUSH1 0x20 MSTORE DUP2 DUP5 KECCAK256 PUSH2 0xE4F PUSH1 0xFF PUSH1 0x2 DUP4 ADD SLOAD AND PUSH2 0xFF7 JUMP JUMPDEST SLOAD PUSH1 0x1 PUSH1 0x1 PUSH1 0xA0 SHL SUB AND CALLER SUB PUSH2 0xEA2 JUMPI POP PUSH1 0x2 DUP4 SWAP2 DUP4 DUP4 MSTORE PUSH1 0x1 PUSH1 0x20 MSTORE DUP3 KECCAK256 DUP3 DUP2 SSTORE DUP3 PUSH1 0x1 DUP3 ADD SSTORE ADD SSTORE CALLER SWAP1 PUSH32 0xBB7BE15645F4EDA9D65591C3A81B5E39256151F91BC25180315DE259167C2E23 DUP4 DUP1 LOG3 DUP1 RETURN JUMPDEST PUSH1 0x20 PUSH1 0x84 SWAP3 MLOAD SWAP2 PUSH3 0x461BCD PUSH1 0xE5 SHL DUP4 MSTORE DUP3 ADD MSTORE PUSH1 0x26 PUSH1 0x24 DUP3 ADD MSTORE PUSH32 0x4F6E6C79207468652073656C6C65722063616E2063616E63656C20746865206C PUSH1 0x44 DUP3 ADD MSTORE PUSH6 0x697374696E67 PUSH1 0xD0 SHL PUSH1 0x64 DUP3 ADD MSTORE REVERT JUMPDEST DUP4 DUP3 CALLVALUE PUSH2 0x1C1 JUMPI DUP2 PUSH1 0x3 NOT CALLDATASIZE ADD SLT PUSH2 0x1C1 JUMPI MLOAD PUSH32 0x0 PUSH1 0x1 PUSH1 0x1 PUSH1 0xA0 SHL SUB AND DUP2 MSTORE PUSH1 0x20 SWAP1 RETURN JUMPDEST DUP5 SWAP1 CALLVALUE PUSH2 0x1C1 JUMPI DUP2 PUSH1 0x3 NOT CALLDATASIZE ADD SLT PUSH2 0x1C1 JUMPI PUSH32 0x0 PUSH1 0x1 PUSH1 0x1 PUSH1 0xA0 SHL SUB AND DUP2 MSTORE PUSH1 0x20 SWAP1 RETURN JUMPDEST PUSH1 0x0 SLOAD PUSH1 0x1 PUSH1 0x1 PUSH1 0xA0 SHL SUB AND CALLER SUB PUSH2 0xF8E JUMPI JUMP JUMPDEST PUSH1 0x40 MLOAD PUSH4 0x118CDAA7 PUSH1 0xE0 SHL DUP2 MSTORE CALLER PUSH1 0x4 DUP3 ADD MSTORE PUSH1 0x24 SWAP1 REVERT JUMPDEST SWAP1 PUSH1 0x1F DUP1 NOT SWAP2 ADD AND DUP2 ADD SWAP1 DUP2 LT PUSH8 0xFFFFFFFFFFFFFFFF DUP3 GT OR PUSH2 0xFC8 JUMPI PUSH1 0x40 MSTORE JUMP JUMPDEST PUSH4 0x4E487B71 PUSH1 0xE0 SHL PUSH1 0x0 MSTORE PUSH1 0x41 PUSH1 0x4 MSTORE PUSH1 0x24 PUSH1 0x0 REVERT JUMPDEST MLOAD SWAP1 PUSH1 0x1 PUSH1 0x1 PUSH1 0xA0 SHL SUB DUP3 AND DUP3 SUB PUSH2 0xFF2 JUMPI JUMP JUMPDEST PUSH1 0x0 DUP1 REVERT JUMPDEST ISZERO PUSH2 0xFFE JUMPI JUMP JUMPDEST PUSH1 0x40 MLOAD PUSH3 0x461BCD PUSH1 0xE5 SHL DUP2 MSTORE PUSH1 0x20 PUSH1 0x4 DUP3 ADD MSTORE PUSH1 0x11 PUSH1 0x24 DUP3 ADD MSTORE PUSH17 0x151A58DAD95D081B9BDD081B1A5CDD1959 PUSH1 0x7A SHL PUSH1 0x44 DUP3 ADD MSTORE PUSH1 0x64 SWAP1 REVERT JUMPDEST SWAP1 DUP2 PUSH1 0x20 SWAP2 SUB SLT PUSH2 0xFF2 JUMPI MLOAD DUP1 ISZERO ISZERO DUP2 SUB PUSH2 0xFF2 JUMPI SWAP1 JUMP JUMPDEST SWAP2 SWAP1 DUP3 SUB SWAP2 DUP3 GT PUSH2 0x105C JUMPI JUMP JUMPDEST PUSH4 0x4E487B71 PUSH1 0xE0 SHL PUSH1 0x0 MSTORE PUSH1 0x11 PUSH1 0x4 MSTORE PUSH1 0x24 PUSH1 0x0 REVERT INVALID LOG1 PUSH5 0x736F6C6343 STOP ADDMOD EQ STOP EXP "},"methodIdentifiers":{"FOUNDER_SHARE_BPS()":"b19b7c0d","PLATFORM_FEE_BPS()":"539aa77f","buyTicket(uint256)":"67dd74ca","cancelListing(uint256)":"305a67a8","founderAddress()":"46bb2833","listTicket(uint256,uint256)":"305a905a","listings(uint256)":"de74e57b","owner()":"8da5cb5b","renounceOwnership()":"715018a6","royaltyContract()":"1663ee03","stablecoinContract()":"08ccf403","ticketContract()":"58a86e1d","transferOwnership(address)":"f2fde38b","withdrawStablecoin(uint256)":"870e974e"}}}}}