{"src/contracts/IRRStablecoin.sol":{"IRRStablecoin":{"abi":[{"inputs":[{"internalType":"address","name":"_trustedForwarder","type":"address"},{"internalType":"address","name":"_redemptionService","type":"address"}],"stateMutability":"nonpayable","type":"constructor"},{"inputs":[],"name":"AccessControlBadConfirmation","type":"error"},{"inputs":[{"internalType":"address","name":"account","type":"address"},{"internalType":"bytes32","name":"neededRole","type":"bytes32"}],"name":"AccessControlUnauthorizedAccount","type":"error"},{"inputs":[{"internalType":"address","name":"spender","type":"address"},{"internalType":"uint256","name":"allowance","type":"uint256"},{"internalType":"uint256","name":"needed","type":"uint256"}],"name":"ERC20InsufficientAllowance","type":"error"},{"inputs":[{"internalType":"address","name":"sender","type":"address"},{"internalType":"uint256","name":"balance","type":"uint256"},{"internalType":"uint256","name":"needed","type":"uint256"}],"name":"ERC20InsufficientBalance","type":"error"},{"inputs":[{"internalType":"address","name":"approver","type":"address"}],"name":"ERC20InvalidApprover","type":"error"},{"inputs":[{"internalType":"address","name":"receiver","type":"address"}],"name":"ERC20InvalidReceiver","type":"error"},{"inputs":[{"internalType":"address","name":"sender","type":"address"}],"name":"ERC20InvalidSender","type":"error"},{"inputs":[{"internalType":"address","name":"spender","type":"address"}],"name":"ERC20InvalidSpender","type":"error"},{"inputs":[],"name":"EnforcedPause","type":"error"},{"inputs":[],"name":"ExpectedPause","type":"error"},{"anonymous":false,"inputs":[{"indexed":true,"internalType":"address","name":"owner","type":"address"},{"indexed":true,"internalType":"address","name":"spender","type":"address"},{"indexed":false,"internalType":"uint256","name":"value","type":"uint256"}],"name":"Approval","type":"event"},{"anonymous":false,"inputs":[{"indexed":true,"internalType":"address","name":"account","type":"address"}],"name":"BurnerAdded","type":"event"},{"anonymous":false,"inputs":[{"indexed":true,"internalType":"address","name":"account","type":"address"}],"name":"BurnerRemoved","type":"event"},{"anonymous":false,"inputs":[{"indexed":true,"internalType":"address","name":"account","type":"address"}],"name":"MinterAdded","type":"event"},{"anonymous":false,"inputs":[{"indexed":true,"internalType":"address","name":"account","type":"address"}],"name":"MinterRemoved","type":"event"},{"anonymous":false,"inputs":[{"indexed":false,"internalType":"address","name":"account","type":"address"}],"name":"Paused","type":"event"},{"anonymous":false,"inputs":[{"indexed":true,"internalType":"bytes32","name":"role","type":"bytes32"},{"indexed":true,"internalType":"bytes32","name":"previousAdminRole","type":"bytes32"},{"indexed":true,"internalType":"bytes32","name":"newAdminRole","type":"bytes32"}],"name":"RoleAdminChanged","type":"event"},{"anonymous":false,"inputs":[{"indexed":true,"internalType":"bytes32","name":"role","type":"bytes32"},{"indexed":true,"internalType":"address","name":"account","type":"address"},{"indexed":true,"internalType":"address","name":"sender","type":"address"}],"name":"RoleGranted","type":"event"},{"anonymous":false,"inputs":[{"indexed":true,"internalType":"bytes32","name":"role","type":"bytes32"},{"indexed":true,"internalType":"address","name":"account","type":"address"},{"indexed":true,"internalType":"address","name":"sender","type":"address"}],"name":"RoleRevoked","type":"event"},{"anonymous":false,"inputs":[{"indexed":true,"internalType":"address","name":"from","type":"address"},{"indexed":true,"internalType":"address","name":"to","type":"address"},{"indexed":false,"internalType":"uint256","name":"value","type":"uint256"}],"name":"Transfer","type":"event"},{"anonymous":false,"inputs":[{"indexed":false,"internalType":"address","name":"account","type":"address"}],"name":"Unpaused","type":"event"},{"inputs":[],"name":"BURNER_ROLE","outputs":[{"internalType":"bytes32","name":"","type":"bytes32"}],"stateMutability":"view","type":"function"},{"inputs":[],"name":"DEFAULT_ADMIN_ROLE","outputs":[{"internalType":"bytes32","name":"","type":"bytes32"}],"stateMutability":"view","type":"function"},{"inputs":[],"name":"MINTER_ROLE","outputs":[{"internalType":"bytes32","name":"","type":"bytes32"}],"stateMutability":"view","type":"function"},{"inputs":[],"name":"PAUSER_ROLE","outputs":[{"internalType":"bytes32","name":"","type":"bytes32"}],"stateMutability":"view","type":"function"},{"inputs":[],"name":"REDEMPTION_MANAGER_ROLE","outputs":[{"internalType":"bytes32","name":"","type":"bytes32"}],"stateMutability":"view","type":"function"},{"inputs":[{"internalType":"address","name":"account","type":"address"}],"name":"addBurner","outputs":[],"stateMutability":"nonpayable","type":"function"},{"inputs":[{"internalType":"address","name":"account","type":"address"}],"name":"addMinter","outputs":[],"stateMutability":"nonpayable","type":"function"},{"inputs":[{"internalType":"address","name":"account","type":"address"}],"name":"addRedemptionManager","outputs":[],"stateMutability":"nonpayable","type":"function"},{"inputs":[{"internalType":"address","name":"owner","type":"address"},{"internalType":"address","name":"spender","type":"address"}],"name":"allowance","outputs":[{"internalType":"uint256","name":"","type":"uint256"}],"stateMutability":"view","type":"function"},{"inputs":[{"internalType":"address","name":"spender","type":"address"},{"internalType":"uint256","name":"value","type":"uint256"}],"name":"approve","outputs":[{"internalType":"bool","name":"","type":"bool"}],"stateMutability":"nonpayable","type":"function"},{"inputs":[{"internalType":"address","name":"account","type":"address"}],"name":"balanceOf","outputs":[{"internalType":"uint256","name":"","type":"uint256"}],"stateMutability":"view","type":"function"},{"inputs":[{"internalType":"address","name":"from","type":"address"},{"internalType":"uint256","name":"amount","type":"uint256"}],"name":"burn","outputs":[],"stateMutability":"nonpayable","type":"function"},{"inputs":[],"name":"collateralizationRatio","outputs":[{"internalType":"uint256","name":"","type":"uint256"}],"stateMutability":"view","type":"function"},{"inputs":[],"name":"decimals","outputs":[{"internalType":"uint8","name":"","type":"uint8"}],"stateMutability":"view","type":"function"},{"inputs":[{"internalType":"bytes32","name":"role","type":"bytes32"}],"name":"getRoleAdmin","outputs":[{"internalType":"bytes32","name":"","type":"bytes32"}],"stateMutability":"view","type":"function"},{"inputs":[{"internalType":"bytes32","name":"role","type":"bytes32"},{"internalType":"address","name":"account","type":"address"}],"name":"grantRole","outputs":[],"stateMutability":"nonpayable","type":"function"},{"inputs":[{"internalType":"bytes32","name":"role","type":"bytes32"},{"internalType":"address","name":"account","type":"address"}],"name":"hasRole","outputs":[{"internalType":"bool","name":"","type":"bool"}],"stateMutability":"view","type":"function"},{"inputs":[{"internalType":"address","name":"forwarder","type":"address"}],"name":"isTrustedForwarder","outputs":[{"internalType":"bool","name":"","type":"bool"}],"stateMutability":"view","type":"function"},{"inputs":[{"internalType":"address","name":"to","type":"address"},{"internalType":"uint256","name":"amount","type":"uint256"}],"name":"mint","outputs":[],"stateMutability":"nonpayable","type":"function"},{"inputs":[],"name":"name","outputs":[{"internalType":"string","name":"","type":"string"}],"stateMutability":"view","type":"function"},{"inputs":[],"name":"pause","outputs":[],"stateMutability":"nonpayable","type":"function"},{"inputs":[],"name":"paused","outputs":[{"internalType":"bool","name":"","type":"bool"}],"stateMutability":"view","type":"function"},{"inputs":[{"internalType":"uint256","name":"amount","type":"uint256"}],"name":"redeem","outputs":[],"stateMutability":"nonpayable","type":"function"},{"inputs":[],"name":"redemptionService","outputs":[{"internalType":"address","name":"","type":"address"}],"stateMutability":"view","type":"function"},{"inputs":[{"internalType":"address","name":"account","type":"address"}],"name":"removeBurner","outputs":[],"stateMutability":"nonpayable","type":"function"},{"inputs":[{"internalType":"address","name":"account","type":"address"}],"name":"removeMinter","outputs":[],"stateMutability":"nonpayable","type":"function"},{"inputs":[{"internalType":"address","name":"account","type":"address"}],"name":"removeRedemptionManager","outputs":[],"stateMutability":"nonpayable","type":"function"},{"inputs":[{"internalType":"bytes32","name":"role","type":"bytes32"},{"internalType":"address","name":"callerConfirmation","type":"address"}],"name":"renounceRole","outputs":[],"stateMutability":"nonpayable","type":"function"},{"inputs":[{"internalType":"bytes32","name":"role","type":"bytes32"},{"internalType":"address","name":"account","type":"address"}],"name":"revokeRole","outputs":[],"stateMutability":"nonpayable","type":"function"},{"inputs":[{"internalType":"bytes4","name":"interfaceId","type":"bytes4"}],"name":"supportsInterface","outputs":[{"internalType":"bool","name":"","type":"bool"}],"stateMutability":"view","type":"function"},{"inputs":[],"name":"symbol","outputs":[{"internalType":"string","name":"","type":"string"}],"stateMutability":"view","type":"function"},{"inputs":[],"name":"totalFiatReserves","outputs":[{"internalType":"uint256","name":"","type":"uint256"}],"stateMutability":"view","type":"function"},{"inputs":[],"name":"totalSupply","outputs":[{"internalType":"uint256","name":"","type":"uint256"}],"stateMutability":"view","type":"function"},{"inputs":[{"internalType":"address","name":"to","type":"address"},{"internalType":"uint256","name":"value","type":"uint256"}],"name":"transfer","outputs":[{"internalType":"bool","name":"","type":"bool"}],"stateMutability":"nonpayable","type":"function"},{"inputs":[{"internalType":"address","name":"from","type":"address"},{"internalType":"address","name":"to","type":"address"},{"internalType":"uint256","name":"value","type":"uint256"}],"name":"transferFrom","outputs":[{"internalType":"bool","name":"","type":"bool"}],"stateMutability":"nonpayable","type":"function"},{"inputs":[],"name":"trustedForwarder","outputs":[{"internalType":"address","name":"","type":"address"}],"stateMutability":"view","type":"function"},{"inputs":[],"name":"unpause","outputs":[],"stateMutability":"nonpayable","type":"function"},{"inputs":[{"internalType":"uint256","name":"_newReserves","type":"uint256"}],"name":"updateFiatReserves","outputs":[],"stateMutability":"nonpayable","type":"function"}],"evm":{"bytecode":{"linkReferences":{},"object":"60a034620003eb57601f906001600160401b0390601f196200204a3881900385810183168401919085831185841017620002ef578085926040948552833981010312620003eb57620000518262000410565b9262000061602080940162000410565b946200006c620003f0565b600e81526d24a9291029ba30b13632b1b7b4b760911b8582015262000090620003f0565b916003928381526224a92960e91b878201528251858111620002ef5784546001948582811c92168015620003e0575b8a831014620003ca57818584931162000374575b508990858311600114620003115760009262000305575b505060001982871b1c191690841b1784555b8051948511620002ef5760049687548481811c91168015620002e4575b82821014620002cf5783811162000284575b5080928611600114620002185750849550908492916000956200020c575b50501b92600019911b1c19161790555b608052620001706200016a62000741565b62000425565b50620001856200017f62000741565b620004b3565b506200019a6200019462000741565b62000563565b50620001af620001a962000741565b62000604565b50620001c4620001be62000741565b620006a5565b50600780546001600160a01b0319166001600160a01b03929092169190911790556040516118a990816200078182396080518181816108550152818161091e01526117ce0152f35b01519350388062000149565b939295859081168860005285600020956000905b898383106200026957505050106200024e575b50505050811b01905562000159565b01519060f884600019921b161c19169055388080806200023f565b8587015189559097019694850194889350908101906200022c565b88600052816000208480890160051c820192848a10620002c5575b0160051c019085905b828110620002b85750506200012b565b60008155018590620002a8565b925081926200029f565b602289634e487b7160e01b6000525260246000fd5b90607f169062000119565b634e487b7160e01b600052604160045260246000fd5b015190503880620000ea565b908987941691886000528b6000209260005b8d8282106200035d575050841162000344575b505050811b018455620000fc565b015160001983891b60f8161c1916905538808062000336565b8385015186558a9790950194938401930162000323565b90915086600052896000208580850160051c8201928c8610620003c0575b918891869594930160051c01915b828110620003b0575050620000d3565b60008155859450889101620003a0565b9250819262000392565b634e487b7160e01b600052602260045260246000fd5b91607f1691620000bf565b600080fd5b60408051919082016001600160401b03811183821017620002ef57604052565b51906001600160a01b0382168203620003eb57565b6001600160a01b0390811660008181527f54cdd369e4e8a8515e52ca72ec816c2101831ad1f18bf44102ed171459c9b4f8602052604081205490929060ff16620004ae5782805260066020526040832082845260205260408320600160ff198254161790556200049462000741565b16916000805160206200202a8339815191528180a4600190565b505090565b6001600160a01b0390811660008181527f3195c024b2ddd6d9b8f6c836aa52f67fe69376c8903d009b80229b3ce4425f51602052604081205490927f9f2df0fed2c77648de5860a4cc508cd0818c85b8b8a1ab4ceeef8d981c8956a69160ff166200055d576000805160206200202a8339815191529082855260066020526040852084865260205260408520600160ff198254161790556200055462000741565b169380a4600190565b50505090565b6001600160a01b0390811660008181527f42d20fd6db25ea5a8e33f43724ad72f2ebd9488257fa78c86176b8175fc383fa602052604081205490927f3c11d16cbaffd01df69ce1c404f6340ee057498f5f00246190ea54220576a8489160ff166200055d576000805160206200202a8339815191529082855260066020526040852084865260205260408520600160ff198254161790556200055462000741565b6001600160a01b0390811660008181527fe09f975e15f8f53f24cbbc282b13c40b84df485fcdb8d3997fa103dc5a4ef841602052604081205490927f65d7a28e3265b37a6474929f336521b332c1681b933f6cb9f3376673440d862a9160ff166200055d576000805160206200202a8339815191529082855260066020526040852084865260205260408520600160ff198254161790556200055462000741565b6001600160a01b0390811660008181527f444fb9c097962b1599c3db8a3e427b5aa78220c2e8f7d80cfe11d37ca4279029602052604081205490927fe5bea7d829f723a95a0c83a655765be37702fa584514c1e2a20867d04b58478e9160ff166200055d576000805160206200202a8339815191529082855260066020526040852084865260205260408520600160ff19825416179055620005545b6014361015806200076b575b1562000767576013193601368111620003eb573560601c90565b3390565b506080516001600160a01b031633146200074d56fe608060409080825260048036101561001657600080fd5b600092833560e01c92836301ffc9a714610f87575082630284685814610f2b57826306fdde0314610e36578263095ea7b314610d8457826318160ddd14610d6557826323b872dd14610c51578263248a9ca314610c26578263282c51f314610bfd5782632f2ff15d14610bd35782633092afd514610b77578263313ce56714610b5b5782633580418314610b3157826336568abe14610ae1578263395ffad614610ab85782633f4ba83a14610a4e57826340c10f1914610945578263572b6c05146108f35782635c975abb146108cf578263610a2ca7146108a557826370a08231146108845782637da0a877146108405782638456cb59146107d25782638ade91ec146107a957826391d148541461076257826395d89b411461065f578263983b2d56146106035782639dc29fac14610599578263a217fddf1461057e578263a9059cbb14610546578263d53913931461051d578263d547741f146104dd578263db006a751461036c578263dcaf9c4414610348578263dd62ed3e146102ff578263dfda3991146102e0578263e63ab1e9146102a1578263ee8f01ef1461022657505063f44637ba146101c857600080fd5b34610223576020366003190112610223576101e1610fdb565b6101e9611055565b6101f28161128a565b506001600160a01b03167f86e57fd2b90329052917118de7c3f521f400d439b9650deaa906a25b08b945608280a280f35b80fd5b9091503461029d57602036600319011261029d576102426117a3565b60008051602061183d8339815191529182855260066020528085209160018060a01b03169182865260205260ff818620541615610283575050503560085580f35b5163e2517d3f60e01b815292830152602482015260449150fd5b8280fd5b8390346102dc57816003193601126102dc57602090517f65d7a28e3265b37a6474929f336521b332c1681b933f6cb9f3376673440d862a8152f35b5080fd5b8390346102dc57816003193601126102dc576020906008549051908152f35b8390346102dc57806003193601126102dc578060209261031d610fdb565b610325610ff6565b6001600160a01b0391821683526001865283832091168252845220549051908152f35b8390346102dc57816003193601126102dc57602090610365611763565b9051908152f35b9091503461029d57602090816003193601126104d957823561038c611745565b806103b36103986117a3565b6001600160a01b031660009081526020819052604090205490565b106104a0576103c9816103c46117a3565b61169e565b60075483906001600160a01b03906044908216886103e56117a3565b91875196879586946365d8480b60e01b8652168b85015260248401525af190811561049657859161045c575b501561041b578380f35b5162461bcd60e51b815291820152601960248201527f526564656d7074696f6e2072657175657374206661696c656400000000000000604482015260649150fd5b90508281813d831161048f575b6104738183611580565b8101031261048b5751801515810361048b5738610411565b8480fd5b503d610469565b82513d87823e3d90fd5b505162461bcd60e51b8152918201526014602482015273496e73756666696369656e742062616c616e636560601b604482015260649150fd5b8380fd5b9091503461029d578060031936011261029d5761051991356105146001610502610ff6565b9383875260066020528620015461112b565b611519565b5080f35b8390346102dc57816003193601126102dc576020905160008051602061185d8339815191528152f35b8390346102dc57806003193601126102dc57602090610577610566610fdb565b602435906105726117a3565b6115b8565b5160018152f35b8390346102dc57816003193601126102dc5751908152602090f35b91503461029d578160031936011261029d576105b3610fdb565b916105bc6117a3565b60008051602061181d8339815191529182865260066020528086209160018060a01b03169182875260205260ff81872054161561028357856106006024358761169e565b80f35b83346102235760203660031901126102235761061d610fdb565b610625611055565b61062e816111ff565b506001600160a01b03167f6ae172837ea30b801fbfcdd4108aa1d5bf8ff775444fd70256b44e6bf3dfc3f68280a280f35b8390346102dc57816003193601126102dc57805191809380549160019083821c92828516948515610758575b60209586861081146107455785895290811561072157506001146106c9575b6106c587876106bb828c0383611580565b519182918261100c565b0390f35b81529295507f8a35acfbc15ff81a39ae7d344fd709f28e8600b4aa8c65c6b64bfe7fe36bd19b5b82841061070e57505050826106c5946106bb928201019486806106aa565b80548685018801529286019281016106f0565b60ff19168887015250505050151560051b83010192506106bb826106c586806106aa565b634e487b7160e01b845260228352602484fd5b93607f169361068b565b91503461029d578160031936011261029d578160209360ff92610783610ff6565b90358252600686528282206001600160a01b039091168252855220549151911615158152f35b8390346102dc57816003193601126102dc576020905160008051602061183d8339815191528152f35b8390346102dc57816003193601126102dc5760207f62e78cea01bee320cd4e420270b5ea74000d11b0c9f74754ebdbfc544b05a258916108106110be565b610818611745565b600160ff19600554161760055561082d6117a3565b90516001600160a01b039091168152a180f35b8390346102dc57816003193601126102dc57517f00000000000000000000000000000000000000000000000000000000000000006001600160a01b03168152602090f35b8390346102dc5760203660031901126102dc57602090610365610398610fdb565b8334610223576020366003190112610223576105196108c2610fdb565b6108ca611055565b611490565b8390346102dc57816003193601126102dc5760209060ff6005541690519015158152f35b8390346102dc5760203660031901126102dc57602090610911610fdb565b90519060018060a01b03807f0000000000000000000000000000000000000000000000000000000000000000169116148152f35b9091503461029d578060031936011261029d57610960610fdb565b906024359161096d6117a3565b60008051602061185d833981519152808752600660209081528488206001600160a01b03938416808a5291528488205492939260ff1615610a3257505016928315610a1d576109ba611745565b60025490838201809211610a0a575084927fddf252ad1be2c89b69c2b068fc378daa952ba7f163c4a11628f55a4df523b3ef9260209260025585855284835280852082815401905551908152a380f35b634e487b7160e01b865260119052602485fd5b84602492519163ec442f0560e01b8352820152fd5b604491879186519263e2517d3f60e01b84528301526024820152fd5b91503461029d578260031936011261029d57610a686110be565b6005549060ff821615610aaa575060ff19166005557f5db9ee0a495bf2e6ff9c91a7834c1ba4fdd244a5e8aa4e537bd38aeae4b073aa9060209061082d6117a3565b8251638dfc202b60e01b8152fd5b8390346102dc57816003193601126102dc5760075490516001600160a01b039091168152602090f35b8390346102dc57806003193601126102dc57610afb610ff6565b906001600160a01b0380610b0d6117a3565b1690831603610b225750610519919235611519565b5163334bd91960e11b81528390fd5b833461022357602036600319011261022357610519610b4e610fdb565b610b56611055565b611165565b8390346102dc57816003193601126102dc576020905160128152f35b833461022357602036600319011261022357610b91610fdb565b610b99611055565b610ba281611407565b506001600160a01b03167fe94479a9f7e1952cc78f2d6baab678adc1b772d936c6583def489e524cb666928280a280f35b9091503461029d578060031936011261029d576105199135610bf86001610502610ff6565b611315565b8390346102dc57816003193601126102dc576020905160008051602061181d8339815191528152f35b91503461029d57602036600319011261029d5781602093600192358152600685522001549051908152f35b90833461022357606036600319011261022357610c6c610fdb565b610c74610ff6565b9160443593610c816117a3565b6001600160a01b0384811680855260016020908152898620928416808752929052888520549391929091906000198510610cc4575b60208a6105778b8b8b6115b8565b888510610d3057508115610d19578215610d025750835260016020908152878420918452908152918690209085900390558290610577878080610cb6565b8851634a1406b160e11b8152908101859052602490fd5b885163e602df0560e01b8152908101859052602490fd5b8951637dc7a0d960e11b81526001600160a01b0390911691810191825260208201859052604082018990529081906060010390fd5b8390346102dc57816003193601126102dc576020906002549051908152f35b91503461029d578160031936011261029d57610d9e610fdb565b602435936001600160a01b0380610db36117a3565b16928315610e1f5716928315610e0a575060208581968684867f8c5be1e5ebec7d5bd14f71427d1e84f3dd0314c0f7b2291e5b200ac8c7c3b925965260018552818120888252855220558551908152a35160018152f35b602491855191634a1406b160e11b8352820152fd5b855163e602df0560e01b8152808601849052602490fd5b9091503461029d578260031936011261029d57805191836003549060019082821c928281168015610f21575b6020958686108214610f0e5750848852908115610eec5750600114610e93575b6106c586866106bb828b0383611580565b929550600383527fc2575a0e9e593c00f959f8c92f12db2869c3395a3b0502d05e2516446f71f85b5b828410610ed957505050826106c5946106bb928201019438610e82565b8054868501880152928601928101610ebc565b60ff191687860152505050151560051b83010192506106bb826106c538610e82565b634e487b7160e01b845260229052602483fd5b93607f1693610e62565b833461022357602036600319011261022357610f45610fdb565b610f4d611055565b610f568161137e565b506001600160a01b03167f90eabbc0c667db2a5029ed6bc0f5fe9f356d11684a4ca9fcfaec0e53f12b9c8e8280a280f35b9250503461029d57602036600319011261029d573563ffffffff60e01b811680910361029d5760209250637965db0b60e01b8114908115610fca575b5015158152f35b6301ffc9a760e01b14905038610fc3565b600435906001600160a01b0382168203610ff157565b600080fd5b602435906001600160a01b0382168203610ff157565b6020808252825181830181905290939260005b82811061104157505060409293506000838284010152601f8019910116010190565b81810186015184820160400152850161101f565b61105d6117a3565b6001600160a01b031660008181527f54cdd369e4e8a8515e52ca72ec816c2101831ad1f18bf44102ed171459c9b4f8602052604081205460ff16156110a0575050565b604492506040519163e2517d3f60e01b835260048301526024820152fd5b6110c66117a3565b6001600160a01b031660008181527fe09f975e15f8f53f24cbbc282b13c40b84df485fcdb8d3997fa103dc5a4ef84160205260409020547f65d7a28e3265b37a6474929f336521b332c1681b933f6cb9f3376673440d862a9060ff16156110a0575050565b6111336117a3565b9080600052600660205260406000209160018060a01b0316918260005260205260ff60406000205416156110a0575050565b6001600160a01b0390811660008181527f444fb9c097962b1599c3db8a3e427b5aa78220c2e8f7d80cfe11d37ca42790296020526040812054909260008051602061183d8339815191529160ff166111f9576000805160206117fd8339815191529082855260066020526040852084865260205260408520600160ff198254161790556111f06117a3565b169380a4600190565b50505090565b6001600160a01b0390811660008181527f3195c024b2ddd6d9b8f6c836aa52f67fe69376c8903d009b80229b3ce4425f516020526040812054909260008051602061185d8339815191529160ff166111f9576000805160206117fd8339815191529082855260066020526040852084865260205260408520600160ff198254161790556111f06117a3565b6001600160a01b0390811660008181527f42d20fd6db25ea5a8e33f43724ad72f2ebd9488257fa78c86176b8175fc383fa6020526040812054909260008051602061181d8339815191529160ff166111f9576000805160206117fd8339815191529082855260066020526040852084865260205260408520600160ff198254161790556111f06117a3565b60008181526006602090815260408083206001600160a01b039586168085529252822054919390929160ff166111f9576000805160206117fd8339815191529082855260066020526040852084865260205260408520600160ff198254161790556111f06117a3565b6001600160a01b0390811660008181527f42d20fd6db25ea5a8e33f43724ad72f2ebd9488257fa78c86176b8175fc383fa6020526040812054909260008051602061181d8339815191529160ff16156111f95760008051602061187d833981519152908285526006602052604085208486526020526040852060ff1981541690556111f06117a3565b6001600160a01b0390811660008181527f3195c024b2ddd6d9b8f6c836aa52f67fe69376c8903d009b80229b3ce4425f516020526040812054909260008051602061185d8339815191529160ff16156111f95760008051602061187d833981519152908285526006602052604085208486526020526040852060ff1981541690556111f06117a3565b6001600160a01b0390811660008181527f444fb9c097962b1599c3db8a3e427b5aa78220c2e8f7d80cfe11d37ca42790296020526040812054909260008051602061183d8339815191529160ff16156111f95760008051602061187d833981519152908285526006602052604085208486526020526040852060ff1981541690556111f06117a3565b60008181526006602090815260408083206001600160a01b039586168085529252822054919390929160ff16156111f95760008051602061187d833981519152908285526006602052604085208486526020526040852060ff1981541690556111f06117a3565b90601f8019910116810190811067ffffffffffffffff8211176115a257604052565b634e487b7160e01b600052604160045260246000fd5b916001600160a01b03808416928315611685571692831561166c576115db611745565b6000908382528160205260408220549083821061163a575091604082827fddf252ad1be2c89b69c2b068fc378daa952ba7f163c4a11628f55a4df523b3ef958760209652828652038282205586815220818154019055604051908152a3565b60405163391434e360e21b81526001600160a01b03919091166004820152602481019190915260448101839052606490fd5b60405163ec442f0560e01b815260006004820152602490fd5b604051634b637e8f60e11b815260006004820152602490fd5b906001600160a01b038216908115611685576116b8611745565b600092828452836020526040842054908282106117135750817fddf252ad1be2c89b69c2b068fc378daa952ba7f163c4a11628f55a4df523b3ef926020928587528684520360408620558060025403600255604051908152a3565b60405163391434e360e21b81526001600160a01b03919091166004820152602481019190915260448101829052606490fd5b60ff6005541661175157565b60405163d93c066560e01b8152600490fd5b600254801561179d5760085461271090818102918183041490151715611787570490565b634e487b7160e01b600052601160045260246000fd5b50600090565b6014361015806117ca575b156117c6576013193601368111610ff1573560601c90565b3390565b50337f00000000000000000000000000000000000000000000000000000000000000006001600160a01b0316146117ae56fe2f8788117e7eff1d82e926ec794901d17c78024a50270940304540a733656f0d3c11d16cbaffd01df69ce1c404f6340ee057498f5f00246190ea54220576a848e5bea7d829f723a95a0c83a655765be37702fa584514c1e2a20867d04b58478e9f2df0fed2c77648de5860a4cc508cd0818c85b8b8a1ab4ceeef8d981c8956a6f6391f5c32d9c69d2a47ea670b442974b53935d1edc7fd64eb21e047a839171ba164736f6c6343000814000a2f8788117e7eff1d82e926ec794901d17c78024a50270940304540a733656f0d","opcodes":"PUSH1 0xA0 CALLVALUE PUSH3 0x3EB JUMPI PUSH1 0x1F SWAP1 PUSH1 0x1 PUSH1 0x1 PUSH1 0x40 SHL SUB SWAP1 PUSH1 0x1F NOT PUSH3 0x204A CODESIZE DUP2 SWAP1 SUB DUP6 DUP2 ADD DUP4 AND DUP5 ADD SWAP2 SWAP1 DUP6 DUP4 GT DUP6 DUP5 LT OR PUSH3 0x2EF JUMPI DUP1 DUP6 SWAP3 PUSH1 0x40 SWAP5 DUP6 MSTORE DUP4 CODECOPY DUP2 ADD SUB SLT PUSH3 0x3EB JUMPI PUSH3 0x51 DUP3 PUSH3 0x410 JUMP JUMPDEST SWAP3 PUSH3 0x61 PUSH1 0x20 DUP1 SWAP5 ADD PUSH3 0x410 JUMP JUMPDEST SWAP5 PUSH3 0x6C PUSH3 0x3F0 JUMP JUMPDEST PUSH1 0xE DUP2 MSTORE PUSH14 0x24A9291029BA30B13632B1B7B4B7 PUSH1 0x91 SHL DUP6 DUP3 ADD MSTORE PUSH3 0x90 PUSH3 0x3F0 JUMP JUMPDEST SWAP2 PUSH1 0x3 SWAP3 DUP4 DUP2 MSTORE PUSH3 0x24A929 PUSH1 0xE9 SHL DUP8 DUP3 ADD MSTORE DUP3 MLOAD DUP6 DUP2 GT PUSH3 0x2EF JUMPI DUP5 SLOAD PUSH1 0x1 SWAP5 DUP6 DUP3 DUP2 SHR SWAP3 AND DUP1 ISZERO PUSH3 0x3E0 JUMPI JUMPDEST DUP11 DUP4 LT EQ PUSH3 0x3CA JUMPI DUP2 DUP6 DUP5 SWAP4 GT PUSH3 0x374 JUMPI JUMPDEST POP DUP10 SWAP1 DUP6 DUP4 GT PUSH1 0x1 EQ PUSH3 0x311 JUMPI PUSH1 0x0 SWAP3 PUSH3 0x305 JUMPI JUMPDEST POP POP PUSH1 0x0 NOT DUP3 DUP8 SHL SHR NOT AND SWAP1 DUP5 SHL OR DUP5 SSTORE JUMPDEST DUP1 MLOAD SWAP5 DUP6 GT PUSH3 0x2EF JUMPI PUSH1 0x4 SWAP7 DUP8 SLOAD DUP5 DUP2 DUP2 SHR SWAP2 AND DUP1 ISZERO PUSH3 0x2E4 JUMPI JUMPDEST DUP3 DUP3 LT EQ PUSH3 0x2CF JUMPI DUP4 DUP2 GT PUSH3 0x284 JUMPI JUMPDEST POP DUP1 SWAP3 DUP7 GT PUSH1 0x1 EQ PUSH3 0x218 JUMPI POP DUP5 SWAP6 POP SWAP1 DUP5 SWAP3 SWAP2 PUSH1 0x0 SWAP6 PUSH3 0x20C JUMPI JUMPDEST POP POP SHL SWAP3 PUSH1 0x0 NOT SWAP2 SHL SHR NOT AND OR SWAP1 SSTORE JUMPDEST PUSH1 0x80 MSTORE PUSH3 0x170 PUSH3 0x16A PUSH3 0x741 JUMP JUMPDEST PUSH3 0x425 JUMP JUMPDEST POP PUSH3 0x185 PUSH3 0x17F PUSH3 0x741 JUMP JUMPDEST PUSH3 0x4B3 JUMP JUMPDEST POP PUSH3 0x19A PUSH3 0x194 PUSH3 0x741 JUMP JUMPDEST PUSH3 0x563 JUMP JUMPDEST POP PUSH3 0x1AF PUSH3 0x1A9 PUSH3 0x741 JUMP JUMPDEST PUSH3 0x604 JUMP JUMPDEST POP PUSH3 0x1C4 PUSH3 0x1BE PUSH3 0x741 JUMP JUMPDEST PUSH3 0x6A5 JUMP JUMPDEST POP PUSH1 0x7 DUP1 SLOAD PUSH1 0x1 PUSH1 0x1 PUSH1 0xA0 SHL SUB NOT AND PUSH1 0x1 PUSH1 0x1 PUSH1 0xA0 SHL SUB SWAP3 SWAP1 SWAP3 AND SWAP2 SWAP1 SWAP2 OR SWAP1 SSTORE PUSH1 0x40 MLOAD PUSH2 0x18A9 SWAP1 DUP2 PUSH3 0x781 DUP3 CODECOPY PUSH1 0x80 MLOAD DUP2 DUP2 DUP2 PUSH2 0x855 ADD MSTORE DUP2 DUP2 PUSH2 0x91E ADD MSTORE PUSH2 0x17CE ADD MSTORE RETURN JUMPDEST ADD MLOAD SWAP4 POP CODESIZE DUP1 PUSH3 0x149 JUMP JUMPDEST SWAP4 SWAP3 SWAP6 DUP6 SWAP1 DUP2 AND DUP9 PUSH1 0x0 MSTORE DUP6 PUSH1 0x0 KECCAK256 SWAP6 PUSH1 0x0 SWAP1 JUMPDEST DUP10 DUP4 DUP4 LT PUSH3 0x269 JUMPI POP POP POP LT PUSH3 0x24E JUMPI JUMPDEST POP POP POP POP DUP2 SHL ADD SWAP1 SSTORE PUSH3 0x159 JUMP JUMPDEST ADD MLOAD SWAP1 PUSH1 0xF8 DUP5 PUSH1 0x0 NOT SWAP3 SHL AND SHR NOT AND SWAP1 SSTORE CODESIZE DUP1 DUP1 DUP1 PUSH3 0x23F JUMP JUMPDEST DUP6 DUP8 ADD MLOAD DUP10 SSTORE SWAP1 SWAP8 ADD SWAP7 SWAP5 DUP6 ADD SWAP5 DUP9 SWAP4 POP SWAP1 DUP2 ADD SWAP1 PUSH3 0x22C JUMP JUMPDEST DUP9 PUSH1 0x0 MSTORE DUP2 PUSH1 0x0 KECCAK256 DUP5 DUP1 DUP10 ADD PUSH1 0x5 SHR DUP3 ADD SWAP3 DUP5 DUP11 LT PUSH3 0x2C5 JUMPI JUMPDEST ADD PUSH1 0x5 SHR ADD SWAP1 DUP6 SWAP1 JUMPDEST DUP3 DUP2 LT PUSH3 0x2B8 JUMPI POP POP PUSH3 0x12B JUMP JUMPDEST PUSH1 0x0 DUP2 SSTORE ADD DUP6 SWAP1 PUSH3 0x2A8 JUMP JUMPDEST SWAP3 POP DUP2 SWAP3 PUSH3 0x29F JUMP JUMPDEST PUSH1 0x22 DUP10 PUSH4 0x4E487B71 PUSH1 0xE0 SHL PUSH1 0x0 MSTORE MSTORE PUSH1 0x24 PUSH1 0x0 REVERT JUMPDEST SWAP1 PUSH1 0x7F AND SWAP1 PUSH3 0x119 JUMP JUMPDEST PUSH4 0x4E487B71 PUSH1 0xE0 SHL PUSH1 0x0 MSTORE PUSH1 0x41 PUSH1 0x4 MSTORE PUSH1 0x24 PUSH1 0x0 REVERT JUMPDEST ADD MLOAD SWAP1 POP CODESIZE DUP1 PUSH3 0xEA JUMP JUMPDEST SWAP1 DUP10 DUP8 SWAP5 AND SWAP2 DUP9 PUSH1 0x0 MSTORE DUP12 PUSH1 0x0 KECCAK256 SWAP3 PUSH1 0x0 JUMPDEST DUP14 DUP3 DUP3 LT PUSH3 0x35D JUMPI POP POP DUP5 GT PUSH3 0x344 JUMPI JUMPDEST POP POP POP DUP2 SHL ADD DUP5 SSTORE PUSH3 0xFC JUMP JUMPDEST ADD MLOAD PUSH1 0x0 NOT DUP4 DUP10 SHL PUSH1 0xF8 AND SHR NOT AND SWAP1 SSTORE CODESIZE DUP1 DUP1 PUSH3 0x336 JUMP JUMPDEST DUP4 DUP6 ADD MLOAD DUP7 SSTORE DUP11 SWAP8 SWAP1 SWAP6 ADD SWAP5 SWAP4 DUP5 ADD SWAP4 ADD PUSH3 0x323 JUMP JUMPDEST SWAP1 SWAP2 POP DUP7 PUSH1 0x0 MSTORE DUP10 PUSH1 0x0 KECCAK256 DUP6 DUP1 DUP6 ADD PUSH1 0x5 SHR DUP3 ADD SWAP3 DUP13 DUP7 LT PUSH3 0x3C0 JUMPI JUMPDEST SWAP2 DUP9 SWAP2 DUP7 SWAP6 SWAP5 SWAP4 ADD PUSH1 0x5 SHR ADD SWAP2 JUMPDEST DUP3 DUP2 LT PUSH3 0x3B0 JUMPI POP POP PUSH3 0xD3 JUMP JUMPDEST PUSH1 0x0 DUP2 SSTORE DUP6 SWAP5 POP DUP9 SWAP2 ADD PUSH3 0x3A0 JUMP JUMPDEST SWAP3 POP DUP2 SWAP3 PUSH3 0x392 JUMP JUMPDEST PUSH4 0x4E487B71 PUSH1 0xE0 SHL PUSH1 0x0 MSTORE PUSH1 0x22 PUSH1 0x4 MSTORE PUSH1 0x24 PUSH1 0x0 REVERT JUMPDEST SWAP2 PUSH1 0x7F AND SWAP2 PUSH3 0xBF JUMP JUMPDEST PUSH1 0x0 DUP1 REVERT JUMPDEST PUSH1 0x40 DUP1 MLOAD SWAP2 SWAP1 DUP3 ADD PUSH1 0x1 PUSH1 0x1 PUSH1 0x40 SHL SUB DUP2 GT DUP4 DUP3 LT OR PUSH3 0x2EF JUMPI PUSH1 0x40 MSTORE JUMP JUMPDEST MLOAD SWAP1 PUSH1 0x1 PUSH1 0x1 PUSH1 0xA0 SHL SUB DUP3 AND DUP3 SUB PUSH3 0x3EB JUMPI JUMP JUMPDEST PUSH1 0x1 PUSH1 0x1 PUSH1 0xA0 SHL SUB SWAP1 DUP2 AND PUSH1 0x0 DUP2 DUP2 MSTORE PUSH32 0x54CDD369E4E8A8515E52CA72EC816C2101831AD1F18BF44102ED171459C9B4F8 PUSH1 0x20 MSTORE PUSH1 0x40 DUP2 KECCAK256 SLOAD SWAP1 SWAP3 SWAP1 PUSH1 0xFF AND PUSH3 0x4AE JUMPI DUP3 DUP1 MSTORE PUSH1 0x6 PUSH1 0x20 MSTORE PUSH1 0x40 DUP4 KECCAK256 DUP3 DUP5 MSTORE PUSH1 0x20 MSTORE PUSH1 0x40 DUP4 KECCAK256 PUSH1 0x1 PUSH1 0xFF NOT DUP3 SLOAD AND OR SWAP1 SSTORE PUSH3 0x494 PUSH3 0x741 JUMP JUMPDEST AND SWAP2 PUSH1 0x0 DUP1 MLOAD PUSH1 0x20 PUSH3 0x202A DUP4 CODECOPY DUP2 MLOAD SWAP2 MSTORE DUP2 DUP1 LOG4 PUSH1 0x1 SWAP1 JUMP JUMPDEST POP POP SWAP1 JUMP JUMPDEST PUSH1 0x1 PUSH1 0x1 PUSH1 0xA0 SHL SUB SWAP1 DUP2 AND PUSH1 0x0 DUP2 DUP2 MSTORE PUSH32 0x3195C024B2DDD6D9B8F6C836AA52F67FE69376C8903D009B80229B3CE4425F51 PUSH1 0x20 MSTORE PUSH1 0x40 DUP2 KECCAK256 SLOAD SWAP1 SWAP3 PUSH32 0x9F2DF0FED2C77648DE5860A4CC508CD0818C85B8B8A1AB4CEEEF8D981C8956A6 SWAP2 PUSH1 0xFF AND PUSH3 0x55D JUMPI PUSH1 0x0 DUP1 MLOAD PUSH1 0x20 PUSH3 0x202A DUP4 CODECOPY DUP2 MLOAD SWAP2 MSTORE SWAP1 DUP3 DUP6 MSTORE PUSH1 0x6 PUSH1 0x20 MSTORE PUSH1 0x40 DUP6 KECCAK256 DUP5 DUP7 MSTORE PUSH1 0x20 MSTORE PUSH1 0x40 DUP6 KECCAK256 PUSH1 0x1 PUSH1 0xFF NOT DUP3 SLOAD AND OR SWAP1 SSTORE PUSH3 0x554 PUSH3 0x741 JUMP JUMPDEST AND SWAP4 DUP1 LOG4 PUSH1 0x1 SWAP1 JUMP JUMPDEST POP POP POP SWAP1 JUMP JUMPDEST PUSH1 0x1 PUSH1 0x1 PUSH1 0xA0 SHL SUB SWAP1 DUP2 AND PUSH1 0x0 DUP2 DUP2 MSTORE PUSH32 0x42D20FD6DB25EA5A8E33F43724AD72F2EBD9488257FA78C86176B8175FC383FA PUSH1 0x20 MSTORE PUSH1 0x40 DUP2 KECCAK256 SLOAD SWAP1 SWAP3 PUSH32 0x3C11D16CBAFFD01DF69CE1C404F6340EE057498F5F00246190EA54220576A848 SWAP2 PUSH1 0xFF AND PUSH3 0x55D JUMPI PUSH1 0x0 DUP1 MLOAD PUSH1 0x20 PUSH3 0x202A DUP4 CODECOPY DUP2 MLOAD SWAP2 MSTORE SWAP1 DUP3 DUP6 MSTORE PUSH1 0x6 PUSH1 0x20 MSTORE PUSH1 0x40 DUP6 KECCAK256 DUP5 DUP7 MSTORE PUSH1 0x20 MSTORE PUSH1 0x40 DUP6 KECCAK256 PUSH1 0x1 PUSH1 0xFF NOT DUP3 SLOAD AND OR SWAP1 SSTORE PUSH3 0x554 PUSH3 0x741 JUMP JUMPDEST PUSH1 0x1 PUSH1 0x1 PUSH1 0xA0 SHL SUB SWAP1 DUP2 AND PUSH1 0x0 DUP2 DUP2 MSTORE PUSH32 0xE09F975E15F8F53F24CBBC282B13C40B84DF485FCDB8D3997FA103DC5A4EF841 PUSH1 0x20 MSTORE PUSH1 0x40 DUP2 KECCAK256 SLOAD SWAP1 SWAP3 PUSH32 0x65D7A28E3265B37A6474929F336521B332C1681B933F6CB9F3376673440D862A SWAP2 PUSH1 0xFF AND PUSH3 0x55D JUMPI PUSH1 0x0 DUP1 MLOAD PUSH1 0x20 PUSH3 0x202A DUP4 CODECOPY DUP2 MLOAD SWAP2 MSTORE SWAP1 DUP3 DUP6 MSTORE PUSH1 0x6 PUSH1 0x20 MSTORE PUSH1 0x40 DUP6 KECCAK256 DUP5 DUP7 MSTORE PUSH1 0x20 MSTORE PUSH1 0x40 DUP6 KECCAK256 PUSH1 0x1 PUSH1 0xFF NOT DUP3 SLOAD AND OR SWAP1 SSTORE PUSH3 0x554 PUSH3 0x741 JUMP JUMPDEST PUSH1 0x1 PUSH1 0x1 PUSH1 0xA0 SHL SUB SWAP1 DUP2 AND PUSH1 0x0 DUP2 DUP2 MSTORE PUSH32 0x444FB9C097962B1599C3DB8A3E427B5AA78220C2E8F7D80CFE11D37CA4279029 PUSH1 0x20 MSTORE PUSH1 0x40 DUP2 KECCAK256 SLOAD SWAP1 SWAP3 PUSH32 0xE5BEA7D829F723A95A0C83A655765BE37702FA584514C1E2A20867D04B58478E SWAP2 PUSH1 0xFF AND PUSH3 0x55D JUMPI PUSH1 0x0 DUP1 MLOAD PUSH1 0x20 PUSH3 0x202A DUP4 CODECOPY DUP2 MLOAD SWAP2 MSTORE SWAP1 DUP3 DUP6 MSTORE PUSH1 0x6 PUSH1 0x20 MSTORE PUSH1 0x40 DUP6 KECCAK256 DUP5 DUP7 MSTORE PUSH1 0x20 MSTORE PUSH1 0x40 DUP6 KECCAK256 PUSH1 0x1 PUSH1 0xFF NOT DUP3 SLOAD AND OR SWAP1 SSTORE PUSH3 0x554 JUMPDEST PUSH1 0x14 CALLDATASIZE LT ISZERO DUP1 PUSH3 0x76B JUMPI JUMPDEST ISZERO PUSH3 0x767 JUMPI PUSH1 0x13 NOT CALLDATASIZE ADD CALLDATASIZE DUP2 GT PUSH3 0x3EB JUMPI CALLDATALOAD PUSH1 0x60 SHR SWAP1 JUMP JUMPDEST CALLER SWAP1 JUMP JUMPDEST POP PUSH1 0x80 MLOAD PUSH1 0x1 PUSH1 0x1 PUSH1 0xA0 SHL SUB AND CALLER EQ PUSH3 0x74D JUMP INVALID PUSH1 0x80 PUSH1 0x40 SWAP1 DUP1 DUP3 MSTORE PUSH1 0x4 DUP1 CALLDATASIZE LT ISZERO PUSH2 0x16 JUMPI PUSH1 0x0 DUP1 REVERT JUMPDEST PUSH1 0x0 SWAP3 DUP4 CALLDATALOAD PUSH1 0xE0 SHR SWAP3 DUP4 PUSH4 0x1FFC9A7 EQ PUSH2 0xF87 JUMPI POP DUP3 PUSH4 0x2846858 EQ PUSH2 0xF2B JUMPI DUP3 PUSH4 0x6FDDE03 EQ PUSH2 0xE36 JUMPI DUP3 PUSH4 0x95EA7B3 EQ PUSH2 0xD84 JUMPI DUP3 PUSH4 0x18160DDD EQ PUSH2 0xD65 JUMPI DUP3 PUSH4 0x23B872DD EQ PUSH2 0xC51 JUMPI DUP3 PUSH4 0x248A9CA3 EQ PUSH2 0xC26 JUMPI DUP3 PUSH4 0x282C51F3 EQ PUSH2 0xBFD JUMPI DUP3 PUSH4 0x2F2FF15D EQ PUSH2 0xBD3 JUMPI DUP3 PUSH4 0x3092AFD5 EQ PUSH2 0xB77 JUMPI DUP3 PUSH4 0x313CE567 EQ PUSH2 0xB5B JUMPI DUP3 PUSH4 0x35804183 EQ PUSH2 0xB31 JUMPI DUP3 PUSH4 0x36568ABE EQ PUSH2 0xAE1 JUMPI DUP3 PUSH4 0x395FFAD6 EQ PUSH2 0xAB8 JUMPI DUP3 PUSH4 0x3F4BA83A EQ PUSH2 0xA4E JUMPI DUP3 PUSH4 0x40C10F19 EQ PUSH2 0x945 JUMPI DUP3 PUSH4 0x572B6C05 EQ PUSH2 0x8F3 JUMPI DUP3 PUSH4 0x5C975ABB EQ PUSH2 0x8CF JUMPI DUP3 PUSH4 0x610A2CA7 EQ PUSH2 0x8A5 JUMPI DUP3 PUSH4 0x70A08231 EQ PUSH2 0x884 JUMPI DUP3 PUSH4 0x7DA0A877 EQ PUSH2 0x840 JUMPI DUP3 PUSH4 0x8456CB59 EQ PUSH2 0x7D2 JUMPI DUP3 PUSH4 0x8ADE91EC EQ PUSH2 0x7A9 JUMPI DUP3 PUSH4 0x91D14854 EQ PUSH2 0x762 JUMPI DUP3 PUSH4 0x95D89B41 EQ PUSH2 0x65F JUMPI DUP3 PUSH4 0x983B2D56 EQ PUSH2 0x603 JUMPI DUP3 PUSH4 0x9DC29FAC EQ PUSH2 0x599 JUMPI DUP3 PUSH4 0xA217FDDF EQ PUSH2 0x57E JUMPI DUP3 PUSH4 0xA9059CBB EQ PUSH2 0x546 JUMPI DUP3 PUSH4 0xD5391393 EQ PUSH2 0x51D JUMPI DUP3 PUSH4 0xD547741F EQ PUSH2 0x4DD JUMPI DUP3 PUSH4 0xDB006A75 EQ PUSH2 0x36C JUMPI DUP3 PUSH4 0xDCAF9C44 EQ PUSH2 0x348 JUMPI DUP3 PUSH4 0xDD62ED3E EQ PUSH2 0x2FF JUMPI DUP3 PUSH4 0xDFDA3991 EQ PUSH2 0x2E0 JUMPI DUP3 PUSH4 0xE63AB1E9 EQ PUSH2 0x2A1 JUMPI DUP3 PUSH4 0xEE8F01EF EQ PUSH2 0x226 JUMPI POP POP PUSH4 0xF44637BA EQ PUSH2 0x1C8 JUMPI PUSH1 0x0 DUP1 REVERT JUMPDEST CALLVALUE PUSH2 0x223 JUMPI PUSH1 0x20 CALLDATASIZE PUSH1 0x3 NOT ADD SLT PUSH2 0x223 JUMPI PUSH2 0x1E1 PUSH2 0xFDB JUMP JUMPDEST PUSH2 0x1E9 PUSH2 0x1055 JUMP JUMPDEST PUSH2 0x1F2 DUP2 PUSH2 0x128A JUMP JUMPDEST POP PUSH1 0x1 PUSH1 0x1 PUSH1 0xA0 SHL SUB AND PUSH32 0x86E57FD2B90329052917118DE7C3F521F400D439B9650DEAA906A25B08B94560 DUP3 DUP1 LOG2 DUP1 RETURN JUMPDEST DUP1 REVERT JUMPDEST SWAP1 SWAP2 POP CALLVALUE PUSH2 0x29D JUMPI PUSH1 0x20 CALLDATASIZE PUSH1 0x3 NOT ADD SLT PUSH2 0x29D JUMPI PUSH2 0x242 PUSH2 0x17A3 JUMP JUMPDEST PUSH1 0x0 DUP1 MLOAD PUSH1 0x20 PUSH2 0x183D DUP4 CODECOPY DUP2 MLOAD SWAP2 MSTORE SWAP2 DUP3 DUP6 MSTORE PUSH1 0x6 PUSH1 0x20 MSTORE DUP1 DUP6 KECCAK256 SWAP2 PUSH1 0x1 DUP1 PUSH1 0xA0 SHL SUB AND SWAP2 DUP3 DUP7 MSTORE PUSH1 0x20 MSTORE PUSH1 0xFF DUP2 DUP7 KECCAK256 SLOAD AND ISZERO PUSH2 0x283 JUMPI POP POP POP CALLDATALOAD PUSH1 0x8 SSTORE DUP1 RETURN JUMPDEST MLOAD PUSH4 0xE2517D3F PUSH1 0xE0 SHL DUP2 MSTORE SWAP3 DUP4 ADD MSTORE PUSH1 0x24 DUP3 ADD MSTORE PUSH1 0x44 SWAP2 POP REVERT JUMPDEST DUP3 DUP1 REVERT JUMPDEST DUP4 SWAP1 CALLVALUE PUSH2 0x2DC JUMPI DUP2 PUSH1 0x3 NOT CALLDATASIZE ADD SLT PUSH2 0x2DC JUMPI PUSH1 0x20 SWAP1 MLOAD PUSH32 0x65D7A28E3265B37A6474929F336521B332C1681B933F6CB9F3376673440D862A DUP2 MSTORE RETURN JUMPDEST POP DUP1 REVERT JUMPDEST DUP4 SWAP1 CALLVALUE PUSH2 0x2DC JUMPI DUP2 PUSH1 0x3 NOT CALLDATASIZE ADD SLT PUSH2 0x2DC JUMPI PUSH1 0x20 SWAP1 PUSH1 0x8 SLOAD SWAP1 MLOAD SWAP1 DUP2 MSTORE RETURN JUMPDEST DUP4 SWAP1 CALLVALUE PUSH2 0x2DC JUMPI DUP1 PUSH1 0x3 NOT CALLDATASIZE ADD SLT PUSH2 0x2DC JUMPI DUP1 PUSH1 0x20 SWAP3 PUSH2 0x31D PUSH2 0xFDB JUMP JUMPDEST PUSH2 0x325 PUSH2 0xFF6 JUMP JUMPDEST PUSH1 0x1 PUSH1 0x1 PUSH1 0xA0 SHL SUB SWAP2 DUP3 AND DUP4 MSTORE PUSH1 0x1 DUP7 MSTORE DUP4 DUP4 KECCAK256 SWAP2 AND DUP3 MSTORE DUP5 MSTORE KECCAK256 SLOAD SWAP1 MLOAD SWAP1 DUP2 MSTORE RETURN JUMPDEST DUP4 SWAP1 CALLVALUE PUSH2 0x2DC JUMPI DUP2 PUSH1 0x3 NOT CALLDATASIZE ADD SLT PUSH2 0x2DC JUMPI PUSH1 0x20 SWAP1 PUSH2 0x365 PUSH2 0x1763 JUMP JUMPDEST SWAP1 MLOAD SWAP1 DUP2 MSTORE RETURN JUMPDEST SWAP1 SWAP2 POP CALLVALUE PUSH2 0x29D JUMPI PUSH1 0x20 SWAP1 DUP2 PUSH1 0x3 NOT CALLDATASIZE ADD SLT PUSH2 0x4D9 JUMPI DUP3 CALLDATALOAD PUSH2 0x38C PUSH2 0x1745 JUMP JUMPDEST DUP1 PUSH2 0x3B3 PUSH2 0x398 PUSH2 0x17A3 JUMP JUMPDEST PUSH1 0x1 PUSH1 0x1 PUSH1 0xA0 SHL SUB AND PUSH1 0x0 SWAP1 DUP2 MSTORE PUSH1 0x20 DUP2 SWAP1 MSTORE PUSH1 0x40 SWAP1 KECCAK256 SLOAD SWAP1 JUMP JUMPDEST LT PUSH2 0x4A0 JUMPI PUSH2 0x3C9 DUP2 PUSH2 0x3C4 PUSH2 0x17A3 JUMP JUMPDEST PUSH2 0x169E JUMP JUMPDEST PUSH1 0x7 SLOAD DUP4 SWAP1 PUSH1 0x1 PUSH1 0x1 PUSH1 0xA0 SHL SUB SWAP1 PUSH1 0x44 SWAP1 DUP3 AND DUP9 PUSH2 0x3E5 PUSH2 0x17A3 JUMP JUMPDEST SWAP2 DUP8 MLOAD SWAP7 DUP8 SWAP6 DUP7 SWAP5 PUSH4 0x65D8480B PUSH1 0xE0 SHL DUP7 MSTORE AND DUP12 DUP6 ADD MSTORE PUSH1 0x24 DUP5 ADD MSTORE GAS CALL SWAP1 DUP2 ISZERO PUSH2 0x496 JUMPI DUP6 SWAP2 PUSH2 0x45C JUMPI JUMPDEST POP ISZERO PUSH2 0x41B JUMPI DUP4 DUP1 RETURN JUMPDEST MLOAD PUSH3 0x461BCD PUSH1 0xE5 SHL DUP2 MSTORE SWAP2 DUP3 ADD MSTORE PUSH1 0x19 PUSH1 0x24 DUP3 ADD MSTORE PUSH32 0x526564656D7074696F6E2072657175657374206661696C656400000000000000 PUSH1 0x44 DUP3 ADD MSTORE PUSH1 0x64 SWAP2 POP REVERT JUMPDEST SWAP1 POP DUP3 DUP2 DUP2 RETURNDATASIZE DUP4 GT PUSH2 0x48F JUMPI JUMPDEST PUSH2 0x473 DUP2 DUP4 PUSH2 0x1580 JUMP JUMPDEST DUP2 ADD SUB SLT PUSH2 0x48B JUMPI MLOAD DUP1 ISZERO ISZERO DUP2 SUB PUSH2 0x48B JUMPI CODESIZE PUSH2 0x411 JUMP JUMPDEST DUP5 DUP1 REVERT JUMPDEST POP RETURNDATASIZE PUSH2 0x469 JUMP JUMPDEST DUP3 MLOAD RETURNDATASIZE DUP8 DUP3 RETURNDATACOPY RETURNDATASIZE SWAP1 REVERT JUMPDEST POP MLOAD PUSH3 0x461BCD PUSH1 0xE5 SHL DUP2 MSTORE SWAP2 DUP3 ADD MSTORE PUSH1 0x14 PUSH1 0x24 DUP3 ADD MSTORE PUSH20 0x496E73756666696369656E742062616C616E6365 PUSH1 0x60 SHL PUSH1 0x44 DUP3 ADD MSTORE PUSH1 0x64 SWAP2 POP REVERT JUMPDEST DUP4 DUP1 REVERT JUMPDEST SWAP1 SWAP2 POP CALLVALUE PUSH2 0x29D JUMPI DUP1 PUSH1 0x3 NOT CALLDATASIZE ADD SLT PUSH2 0x29D JUMPI PUSH2 0x519 SWAP2 CALLDATALOAD PUSH2 0x514 PUSH1 0x1 PUSH2 0x502 PUSH2 0xFF6 JUMP JUMPDEST SWAP4 DUP4 DUP8 MSTORE PUSH1 0x6 PUSH1 0x20 MSTORE DUP7 KECCAK256 ADD SLOAD PUSH2 0x112B JUMP JUMPDEST PUSH2 0x1519 JUMP JUMPDEST POP DUP1 RETURN JUMPDEST DUP4 SWAP1 CALLVALUE PUSH2 0x2DC JUMPI DUP2 PUSH1 0x3 NOT CALLDATASIZE ADD SLT PUSH2 0x2DC JUMPI PUSH1 0x20 SWAP1 MLOAD PUSH1 0x0 DUP1 MLOAD PUSH1 0x20 PUSH2 0x185D DUP4 CODECOPY DUP2 MLOAD SWAP2 MSTORE DUP2 MSTORE RETURN JUMPDEST DUP4 SWAP1 CALLVALUE PUSH2 0x2DC JUMPI DUP1 PUSH1 0x3 NOT CALLDATASIZE ADD SLT PUSH2 0x2DC JUMPI PUSH1 0x20 SWAP1 PUSH2 0x577 PUSH2 0x566 PUSH2 0xFDB JUMP JUMPDEST PUSH1 0x24 CALLDATALOAD SWAP1 PUSH2 0x572 PUSH2 0x17A3 JUMP JUMPDEST PUSH2 0x15B8 JUMP JUMPDEST MLOAD PUSH1 0x1 DUP2 MSTORE RETURN JUMPDEST DUP4 SWAP1 CALLVALUE PUSH2 0x2DC JUMPI DUP2 PUSH1 0x3 NOT CALLDATASIZE ADD SLT PUSH2 0x2DC JUMPI MLOAD SWAP1 DUP2 MSTORE PUSH1 0x20 SWAP1 RETURN JUMPDEST SWAP2 POP CALLVALUE PUSH2 0x29D JUMPI DUP2 PUSH1 0x3 NOT CALLDATASIZE ADD SLT PUSH2 0x29D JUMPI PUSH2 0x5B3 PUSH2 0xFDB JUMP JUMPDEST SWAP2 PUSH2 0x5BC PUSH2 0x17A3 JUMP JUMPDEST PUSH1 0x0 DUP1 MLOAD PUSH1 0x20 PUSH2 0x181D DUP4 CODECOPY DUP2 MLOAD SWAP2 MSTORE SWAP2 DUP3 DUP7 MSTORE PUSH1 0x6 PUSH1 0x20 MSTORE DUP1 DUP7 KECCAK256 SWAP2 PUSH1 0x1 DUP1 PUSH1 0xA0 SHL SUB AND SWAP2 DUP3 DUP8 MSTORE PUSH1 0x20 MSTORE PUSH1 0xFF DUP2 DUP8 KECCAK256 SLOAD AND ISZERO PUSH2 0x283 JUMPI DUP6 PUSH2 0x600 PUSH1 0x24 CALLDATALOAD DUP8 PUSH2 0x169E JUMP JUMPDEST DUP1 RETURN JUMPDEST DUP4 CALLVALUE PUSH2 0x223 JUMPI PUSH1 0x20 CALLDATASIZE PUSH1 0x3 NOT ADD SLT PUSH2 0x223 JUMPI PUSH2 0x61D PUSH2 0xFDB JUMP JUMPDEST PUSH2 0x625 PUSH2 0x1055 JUMP JUMPDEST PUSH2 0x62E DUP2 PUSH2 0x11FF JUMP JUMPDEST POP PUSH1 0x1 PUSH1 0x1 PUSH1 0xA0 SHL SUB AND PUSH32 0x6AE172837EA30B801FBFCDD4108AA1D5BF8FF775444FD70256B44E6BF3DFC3F6 DUP3 DUP1 LOG2 DUP1 RETURN JUMPDEST DUP4 SWAP1 CALLVALUE PUSH2 0x2DC JUMPI DUP2 PUSH1 0x3 NOT CALLDATASIZE ADD SLT PUSH2 0x2DC JUMPI DUP1 MLOAD SWAP2 DUP1 SWAP4 DUP1 SLOAD SWAP2 PUSH1 0x1 SWAP1 DUP4 DUP3 SHR SWAP3 DUP3 DUP6 AND SWAP5 DUP6 ISZERO PUSH2 0x758 JUMPI JUMPDEST PUSH1 0x20 SWAP6 DUP7 DUP7 LT DUP2 EQ PUSH2 0x745 JUMPI DUP6 DUP10 MSTORE SWAP1 DUP2 ISZERO PUSH2 0x721 JUMPI POP PUSH1 0x1 EQ PUSH2 0x6C9 JUMPI JUMPDEST PUSH2 0x6C5 DUP8 DUP8 PUSH2 0x6BB DUP3 DUP13 SUB DUP4 PUSH2 0x1580 JUMP JUMPDEST MLOAD SWAP2 DUP3 SWAP2 DUP3 PUSH2 0x100C JUMP JUMPDEST SUB SWAP1 RETURN JUMPDEST DUP2 MSTORE SWAP3 SWAP6 POP PUSH32 0x8A35ACFBC15FF81A39AE7D344FD709F28E8600B4AA8C65C6B64BFE7FE36BD19B JUMPDEST DUP3 DUP5 LT PUSH2 0x70E JUMPI POP POP POP DUP3 PUSH2 0x6C5 SWAP5 PUSH2 0x6BB SWAP3 DUP3 ADD ADD SWAP5 DUP7 DUP1 PUSH2 0x6AA JUMP JUMPDEST DUP1 SLOAD DUP7 DUP6 ADD DUP9 ADD MSTORE SWAP3 DUP7 ADD SWAP3 DUP2 ADD PUSH2 0x6F0 JUMP JUMPDEST PUSH1 0xFF NOT AND DUP9 DUP8 ADD MSTORE POP POP POP POP ISZERO ISZERO PUSH1 0x5 SHL DUP4 ADD ADD SWAP3 POP PUSH2 0x6BB DUP3 PUSH2 0x6C5 DUP7 DUP1 PUSH2 0x6AA JUMP JUMPDEST PUSH4 0x4E487B71 PUSH1 0xE0 SHL DUP5 MSTORE PUSH1 0x22 DUP4 MSTORE PUSH1 0x24 DUP5 REVERT JUMPDEST SWAP4 PUSH1 0x7F AND SWAP4 PUSH2 0x68B JUMP JUMPDEST SWAP2 POP CALLVALUE PUSH2 0x29D JUMPI DUP2 PUSH1 0x3 NOT CALLDATASIZE ADD SLT PUSH2 0x29D JUMPI DUP2 PUSH1 0x20 SWAP4 PUSH1 0xFF SWAP3 PUSH2 0x783 PUSH2 0xFF6 JUMP JUMPDEST SWAP1 CALLDATALOAD DUP3 MSTORE PUSH1 0x6 DUP7 MSTORE DUP3 DUP3 KECCAK256 PUSH1 0x1 PUSH1 0x1 PUSH1 0xA0 SHL SUB SWAP1 SWAP2 AND DUP3 MSTORE DUP6 MSTORE KECCAK256 SLOAD SWAP2 MLOAD SWAP2 AND ISZERO ISZERO DUP2 MSTORE RETURN JUMPDEST DUP4 SWAP1 CALLVALUE PUSH2 0x2DC JUMPI DUP2 PUSH1 0x3 NOT CALLDATASIZE ADD SLT PUSH2 0x2DC JUMPI PUSH1 0x20 SWAP1 MLOAD PUSH1 0x0 DUP1 MLOAD PUSH1 0x20 PUSH2 0x183D DUP4 CODECOPY DUP2 MLOAD SWAP2 MSTORE DUP2 MSTORE RETURN JUMPDEST DUP4 SWAP1 CALLVALUE PUSH2 0x2DC JUMPI DUP2 PUSH1 0x3 NOT CALLDATASIZE ADD SLT PUSH2 0x2DC JUMPI PUSH1 0x20 PUSH32 0x62E78CEA01BEE320CD4E420270B5EA74000D11B0C9F74754EBDBFC544B05A258 SWAP2 PUSH2 0x810 PUSH2 0x10BE JUMP JUMPDEST PUSH2 0x818 PUSH2 0x1745 JUMP JUMPDEST PUSH1 0x1 PUSH1 0xFF NOT PUSH1 0x5 SLOAD AND OR PUSH1 0x5 SSTORE PUSH2 0x82D PUSH2 0x17A3 JUMP JUMPDEST SWAP1 MLOAD PUSH1 0x1 PUSH1 0x1 PUSH1 0xA0 SHL SUB SWAP1 SWAP2 AND DUP2 MSTORE LOG1 DUP1 RETURN JUMPDEST DUP4 SWAP1 CALLVALUE PUSH2 0x2DC JUMPI DUP2 PUSH1 0x3 NOT CALLDATASIZE ADD SLT PUSH2 0x2DC JUMPI MLOAD PUSH32 0x0 PUSH1 0x1 PUSH1 0x1 PUSH1 0xA0 SHL SUB AND DUP2 MSTORE PUSH1 0x20 SWAP1 RETURN JUMPDEST DUP4 SWAP1 CALLVALUE PUSH2 0x2DC JUMPI PUSH1 0x20 CALLDATASIZE PUSH1 0x3 NOT ADD SLT PUSH2 0x2DC JUMPI PUSH1 0x20 SWAP1 PUSH2 0x365 PUSH2 0x398 PUSH2 0xFDB JUMP JUMPDEST DUP4 CALLVALUE PUSH2 0x223 JUMPI PUSH1 0x20 CALLDATASIZE PUSH1 0x3 NOT ADD SLT PUSH2 0x223 JUMPI PUSH2 0x519 PUSH2 0x8C2 PUSH2 0xFDB JUMP JUMPDEST PUSH2 0x8CA PUSH2 0x1055 JUMP JUMPDEST PUSH2 0x1490 JUMP JUMPDEST DUP4 SWAP1 CALLVALUE PUSH2 0x2DC JUMPI DUP2 PUSH1 0x3 NOT CALLDATASIZE ADD SLT PUSH2 0x2DC JUMPI PUSH1 0x20 SWAP1 PUSH1 0xFF PUSH1 0x5 SLOAD AND SWAP1 MLOAD SWAP1 ISZERO ISZERO DUP2 MSTORE RETURN JUMPDEST DUP4 SWAP1 CALLVALUE PUSH2 0x2DC JUMPI PUSH1 0x20 CALLDATASIZE PUSH1 0x3 NOT ADD SLT PUSH2 0x2DC JUMPI PUSH1 0x20 SWAP1 PUSH2 0x911 PUSH2 0xFDB JUMP JUMPDEST SWAP1 MLOAD SWAP1 PUSH1 0x1 DUP1 PUSH1 0xA0 SHL SUB DUP1 PUSH32 0x0 AND SWAP2 AND EQ DUP2 MSTORE RETURN JUMPDEST SWAP1 SWAP2 POP CALLVALUE PUSH2 0x29D JUMPI DUP1 PUSH1 0x3 NOT CALLDATASIZE ADD SLT PUSH2 0x29D JUMPI PUSH2 0x960 PUSH2 0xFDB JUMP JUMPDEST SWAP1 PUSH1 0x24 CALLDATALOAD SWAP2 PUSH2 0x96D PUSH2 0x17A3 JUMP JUMPDEST PUSH1 0x0 DUP1 MLOAD PUSH1 0x20 PUSH2 0x185D DUP4 CODECOPY DUP2 MLOAD SWAP2 MSTORE DUP1 DUP8 MSTORE PUSH1 0x6 PUSH1 0x20 SWAP1 DUP2 MSTORE DUP5 DUP9 KECCAK256 PUSH1 0x1 PUSH1 0x1 PUSH1 0xA0 SHL SUB SWAP4 DUP5 AND DUP1 DUP11 MSTORE SWAP2 MSTORE DUP5 DUP9 KECCAK256 SLOAD SWAP3 SWAP4 SWAP3 PUSH1 0xFF AND ISZERO PUSH2 0xA32 JUMPI POP POP AND SWAP3 DUP4 ISZERO PUSH2 0xA1D JUMPI PUSH2 0x9BA PUSH2 0x1745 JUMP JUMPDEST PUSH1 0x2 SLOAD SWAP1 DUP4 DUP3 ADD DUP1 SWAP3 GT PUSH2 0xA0A JUMPI POP DUP5 SWAP3 PUSH32 0xDDF252AD1BE2C89B69C2B068FC378DAA952BA7F163C4A11628F55A4DF523B3EF SWAP3 PUSH1 0x20 SWAP3 PUSH1 0x2 SSTORE DUP6 DUP6 MSTORE DUP5 DUP4 MSTORE DUP1 DUP6 KECCAK256 DUP3 DUP2 SLOAD ADD SWAP1 SSTORE MLOAD SWAP1 DUP2 MSTORE LOG3 DUP1 RETURN JUMPDEST PUSH4 0x4E487B71 PUSH1 0xE0 SHL DUP7 MSTORE PUSH1 0x11 SWAP1 MSTORE PUSH1 0x24 DUP6 REVERT JUMPDEST DUP5 PUSH1 0x24 SWAP3 MLOAD SWAP2 PUSH4 0xEC442F05 PUSH1 0xE0 SHL DUP4 MSTORE DUP3 ADD MSTORE REVERT JUMPDEST PUSH1 0x44 SWAP2 DUP8 SWAP2 DUP7 MLOAD SWAP3 PUSH4 0xE2517D3F PUSH1 0xE0 SHL DUP5 MSTORE DUP4 ADD MSTORE PUSH1 0x24 DUP3 ADD MSTORE REVERT JUMPDEST SWAP2 POP CALLVALUE PUSH2 0x29D JUMPI DUP3 PUSH1 0x3 NOT CALLDATASIZE ADD SLT PUSH2 0x29D JUMPI PUSH2 0xA68 PUSH2 0x10BE JUMP JUMPDEST PUSH1 0x5 SLOAD SWAP1 PUSH1 0xFF DUP3 AND ISZERO PUSH2 0xAAA JUMPI POP PUSH1 0xFF NOT AND PUSH1 0x5 SSTORE PUSH32 0x5DB9EE0A495BF2E6FF9C91A7834C1BA4FDD244A5E8AA4E537BD38AEAE4B073AA SWAP1 PUSH1 0x20 SWAP1 PUSH2 0x82D PUSH2 0x17A3 JUMP JUMPDEST DUP3 MLOAD PUSH4 0x8DFC202B PUSH1 0xE0 SHL DUP2 MSTORE REVERT JUMPDEST DUP4 SWAP1 CALLVALUE PUSH2 0x2DC JUMPI DUP2 PUSH1 0x3 NOT CALLDATASIZE ADD SLT PUSH2 0x2DC JUMPI PUSH1 0x7 SLOAD SWAP1 MLOAD PUSH1 0x1 PUSH1 0x1 PUSH1 0xA0 SHL SUB SWAP1 SWAP2 AND DUP2 MSTORE PUSH1 0x20 SWAP1 RETURN JUMPDEST DUP4 SWAP1 CALLVALUE PUSH2 0x2DC JUMPI DUP1 PUSH1 0x3 NOT CALLDATASIZE ADD SLT PUSH2 0x2DC JUMPI PUSH2 0xAFB PUSH2 0xFF6 JUMP JUMPDEST SWAP1 PUSH1 0x1 PUSH1 0x1 PUSH1 0xA0 SHL SUB DUP1 PUSH2 0xB0D PUSH2 0x17A3 JUMP JUMPDEST AND SWAP1 DUP4 AND SUB PUSH2 0xB22 JUMPI POP PUSH2 0x519 SWAP2 SWAP3 CALLDATALOAD PUSH2 0x1519 JUMP JUMPDEST MLOAD PUSH4 0x334BD919 PUSH1 0xE1 SHL DUP2 MSTORE DUP4 SWAP1 REVERT JUMPDEST DUP4 CALLVALUE PUSH2 0x223 JUMPI PUSH1 0x20 CALLDATASIZE PUSH1 0x3 NOT ADD SLT PUSH2 0x223 JUMPI PUSH2 0x519 PUSH2 0xB4E PUSH2 0xFDB JUMP JUMPDEST PUSH2 0xB56 PUSH2 0x1055 JUMP JUMPDEST PUSH2 0x1165 JUMP JUMPDEST DUP4 SWAP1 CALLVALUE PUSH2 0x2DC JUMPI DUP2 PUSH1 0x3 NOT CALLDATASIZE ADD SLT PUSH2 0x2DC JUMPI PUSH1 0x20 SWAP1 MLOAD PUSH1 0x12 DUP2 MSTORE RETURN JUMPDEST DUP4 CALLVALUE PUSH2 0x223 JUMPI PUSH1 0x20 CALLDATASIZE PUSH1 0x3 NOT ADD SLT PUSH2 0x223 JUMPI PUSH2 0xB91 PUSH2 0xFDB JUMP JUMPDEST PUSH2 0xB99 PUSH2 0x1055 JUMP JUMPDEST PUSH2 0xBA2 DUP2 PUSH2 0x1407 JUMP JUMPDEST POP PUSH1 0x1 PUSH1 0x1 PUSH1 0xA0 SHL SUB AND PUSH32 0xE94479A9F7E1952CC78F2D6BAAB678ADC1B772D936C6583DEF489E524CB66692 DUP3 DUP1 LOG2 DUP1 RETURN JUMPDEST SWAP1 SWAP2 POP CALLVALUE PUSH2 0x29D JUMPI DUP1 PUSH1 0x3 NOT CALLDATASIZE ADD SLT PUSH2 0x29D JUMPI PUSH2 0x519 SWAP2 CALLDATALOAD PUSH2 0xBF8 PUSH1 0x1 PUSH2 0x502 PUSH2 0xFF6 JUMP JUMPDEST PUSH2 0x1315 JUMP JUMPDEST DUP4 SWAP1 CALLVALUE PUSH2 0x2DC JUMPI DUP2 PUSH1 0x3 NOT CALLDATASIZE ADD SLT PUSH2 0x2DC JUMPI PUSH1 0x20 SWAP1 MLOAD PUSH1 0x0 DUP1 MLOAD PUSH1 0x20 PUSH2 0x181D DUP4 CODECOPY DUP2 MLOAD SWAP2 MSTORE DUP2 MSTORE RETURN JUMPDEST SWAP2 POP CALLVALUE PUSH2 0x29D JUMPI PUSH1 0x20 CALLDATASIZE PUSH1 0x3 NOT ADD SLT PUSH2 0x29D JUMPI DUP2 PUSH1 0x20 SWAP4 PUSH1 0x1 SWAP3 CALLDATALOAD DUP2 MSTORE PUSH1 0x6 DUP6 MSTORE KECCAK256 ADD SLOAD SWAP1 MLOAD SWAP1 DUP2 MSTORE RETURN JUMPDEST SWAP1 DUP4 CALLVALUE PUSH2 0x223 JUMPI PUSH1 0x60 CALLDATASIZE PUSH1 0x3 NOT ADD SLT PUSH2 0x223 JUMPI PUSH2 0xC6C PUSH2 0xFDB JUMP JUMPDEST PUSH2 0xC74 PUSH2 0xFF6 JUMP JUMPDEST SWAP2 PUSH1 0x44 CALLDATALOAD SWAP4 PUSH2 0xC81 PUSH2 0x17A3 JUMP JUMPDEST PUSH1 0x1 PUSH1 0x1 PUSH1 0xA0 SHL SUB DUP5 DUP2 AND DUP1 DUP6 MSTORE PUSH1 0x1 PUSH1 0x20 SWAP1 DUP2 MSTORE DUP10 DUP7 KECCAK256 SWAP3 DUP5 AND DUP1 DUP8 MSTORE SWAP3 SWAP1 MSTORE DUP9 DUP6 KECCAK256 SLOAD SWAP4 SWAP2 SWAP3 SWAP1 SWAP2 SWAP1 PUSH1 0x0 NOT DUP6 LT PUSH2 0xCC4 JUMPI JUMPDEST PUSH1 0x20 DUP11 PUSH2 0x577 DUP12 DUP12 DUP12 PUSH2 0x15B8 JUMP JUMPDEST DUP9 DUP6 LT PUSH2 0xD30 JUMPI POP DUP2 ISZERO PUSH2 0xD19 JUMPI DUP3 ISZERO PUSH2 0xD02 JUMPI POP DUP4 MSTORE PUSH1 0x1 PUSH1 0x20 SWAP1 DUP2 MSTORE DUP8 DUP5 KECCAK256 SWAP2 DUP5 MSTORE SWAP1 DUP2 MSTORE SWAP2 DUP7 SWAP1 KECCAK256 SWAP1 DUP6 SWAP1 SUB SWAP1 SSTORE DUP3 SWAP1 PUSH2 0x577 DUP8 DUP1 DUP1 PUSH2 0xCB6 JUMP JUMPDEST DUP9 MLOAD PUSH4 0x4A1406B1 PUSH1 0xE1 SHL DUP2 MSTORE SWAP1 DUP2 ADD DUP6 SWAP1 MSTORE PUSH1 0x24 SWAP1 REVERT JUMPDEST DUP9 MLOAD PUSH4 0xE602DF05 PUSH1 0xE0 SHL DUP2 MSTORE SWAP1 DUP2 ADD DUP6 SWAP1 MSTORE PUSH1 0x24 SWAP1 REVERT JUMPDEST DUP10 MLOAD PUSH4 0x7DC7A0D9 PUSH1 0xE1 SHL DUP2 MSTORE PUSH1 0x1 PUSH1 0x1 PUSH1 0xA0 SHL SUB SWAP1 SWAP2 AND SWAP2 DUP2 ADD SWAP2 DUP3 MSTORE PUSH1 0x20 DUP3 ADD DUP6 SWAP1 MSTORE PUSH1 0x40 DUP3 ADD DUP10 SWAP1 MSTORE SWAP1 DUP2 SWAP1 PUSH1 0x60 ADD SUB SWAP1 REVERT JUMPDEST DUP4 SWAP1 CALLVALUE PUSH2 0x2DC JUMPI DUP2 PUSH1 0x3 NOT CALLDATASIZE ADD SLT PUSH2 0x2DC JUMPI PUSH1 0x20 SWAP1 PUSH1 0x2 SLOAD SWAP1 MLOAD SWAP1 DUP2 MSTORE RETURN JUMPDEST SWAP2 POP CALLVALUE PUSH2 0x29D JUMPI DUP2 PUSH1 0x3 NOT CALLDATASIZE ADD SLT PUSH2 0x29D JUMPI PUSH2 0xD9E PUSH2 0xFDB JUMP JUMPDEST PUSH1 0x24 CALLDATALOAD SWAP4 PUSH1 0x1 PUSH1 0x1 PUSH1 0xA0 SHL SUB DUP1 PUSH2 0xDB3 PUSH2 0x17A3 JUMP JUMPDEST AND SWAP3 DUP4 ISZERO PUSH2 0xE1F JUMPI AND SWAP3 DUP4 ISZERO PUSH2 0xE0A JUMPI POP PUSH1 0x20 DUP6 DUP2 SWAP7 DUP7 DUP5 DUP7 PUSH32 0x8C5BE1E5EBEC7D5BD14F71427D1E84F3DD0314C0F7B2291E5B200AC8C7C3B925 SWAP7 MSTORE PUSH1 0x1 DUP6 MSTORE DUP2 DUP2 KECCAK256 DUP9 DUP3 MSTORE DUP6 MSTORE KECCAK256 SSTORE DUP6 MLOAD SWAP1 DUP2 MSTORE LOG3 MLOAD PUSH1 0x1 DUP2 MSTORE RETURN JUMPDEST PUSH1 0x24 SWAP2 DUP6 MLOAD SWAP2 PUSH4 0x4A1406B1 PUSH1 0xE1 SHL DUP4 MSTORE DUP3 ADD MSTORE REVERT JUMPDEST DUP6 MLOAD PUSH4 0xE602DF05 PUSH1 0xE0 SHL DUP2 MSTORE DUP1 DUP7 ADD DUP5 SWAP1 MSTORE PUSH1 0x24 SWAP1 REVERT JUMPDEST SWAP1 SWAP2 POP CALLVALUE PUSH2 0x29D JUMPI DUP3 PUSH1 0x3 NOT CALLDATASIZE ADD SLT PUSH2 0x29D JUMPI DUP1 MLOAD SWAP2 DUP4 PUSH1 0x3 SLOAD SWAP1 PUSH1 0x1 SWAP1 DUP3 DUP3 SHR SWAP3 DUP3 DUP2 AND DUP1 ISZERO PUSH2 0xF21 JUMPI JUMPDEST PUSH1 0x20 SWAP6 DUP7 DUP7 LT DUP3 EQ PUSH2 0xF0E JUMPI POP DUP5 DUP9 MSTORE SWAP1 DUP2 ISZERO PUSH2 0xEEC JUMPI POP PUSH1 0x1 EQ PUSH2 0xE93 JUMPI JUMPDEST PUSH2 0x6C5 DUP7 DUP7 PUSH2 0x6BB DUP3 DUP12 SUB DUP4 PUSH2 0x1580 JUMP JUMPDEST SWAP3 SWAP6 POP PUSH1 0x3 DUP4 MSTORE PUSH32 0xC2575A0E9E593C00F959F8C92F12DB2869C3395A3B0502D05E2516446F71F85B JUMPDEST DUP3 DUP5 LT PUSH2 0xED9 JUMPI POP POP POP DUP3 PUSH2 0x6C5 SWAP5 PUSH2 0x6BB SWAP3 DUP3 ADD ADD SWAP5 CODESIZE PUSH2 0xE82 JUMP JUMPDEST DUP1 SLOAD DUP7 DUP6 ADD DUP9 ADD MSTORE SWAP3 DUP7 ADD SWAP3 DUP2 ADD PUSH2 0xEBC JUMP JUMPDEST PUSH1 0xFF NOT AND DUP8 DUP7 ADD MSTORE POP POP POP ISZERO ISZERO PUSH1 0x5 SHL DUP4 ADD ADD SWAP3 POP PUSH2 0x6BB DUP3 PUSH2 0x6C5 CODESIZE PUSH2 0xE82 JUMP JUMPDEST PUSH4 0x4E487B71 PUSH1 0xE0 SHL DUP5 MSTORE PUSH1 0x22 SWAP1 MSTORE PUSH1 0x24 DUP4 REVERT JUMPDEST SWAP4 PUSH1 0x7F AND SWAP4 PUSH2 0xE62 JUMP JUMPDEST DUP4 CALLVALUE PUSH2 0x223 JUMPI PUSH1 0x20 CALLDATASIZE PUSH1 0x3 NOT ADD SLT PUSH2 0x223 JUMPI PUSH2 0xF45 PUSH2 0xFDB JUMP JUMPDEST PUSH2 0xF4D PUSH2 0x1055 JUMP JUMPDEST PUSH2 0xF56 DUP2 PUSH2 0x137E JUMP JUMPDEST POP PUSH1 0x1 PUSH1 0x1 PUSH1 0xA0 SHL SUB AND PUSH32 0x90EABBC0C667DB2A5029ED6BC0F5FE9F356D11684A4CA9FCFAEC0E53F12B9C8E DUP3 DUP1 LOG2 DUP1 RETURN JUMPDEST SWAP3 POP POP CALLVALUE PUSH2 0x29D JUMPI PUSH1 0x20 CALLDATASIZE PUSH1 0x3 NOT ADD SLT PUSH2 0x29D JUMPI CALLDATALOAD PUSH4 0xFFFFFFFF PUSH1 0xE0 SHL DUP2 AND DUP1 SWAP2 SUB PUSH2 0x29D JUMPI PUSH1 0x20 SWAP3 POP PUSH4 0x7965DB0B PUSH1 0xE0 SHL DUP2 EQ SWAP1 DUP2 ISZERO PUSH2 0xFCA JUMPI JUMPDEST POP ISZERO ISZERO DUP2 MSTORE RETURN JUMPDEST PUSH4 0x1FFC9A7 PUSH1 0xE0 SHL EQ SWAP1 POP CODESIZE PUSH2 0xFC3 JUMP JUMPDEST PUSH1 0x4 CALLDATALOAD SWAP1 PUSH1 0x1 PUSH1 0x1 PUSH1 0xA0 SHL SUB DUP3 AND DUP3 SUB PUSH2 0xFF1 JUMPI JUMP JUMPDEST PUSH1 0x0 DUP1 REVERT JUMPDEST PUSH1 0x24 CALLDATALOAD SWAP1 PUSH1 0x1 PUSH1 0x1 PUSH1 0xA0 SHL SUB DUP3 AND DUP3 SUB PUSH2 0xFF1 JUMPI JUMP JUMPDEST PUSH1 0x20 DUP1 DUP3 MSTORE DUP3 MLOAD DUP2 DUP4 ADD DUP2 SWAP1 MSTORE SWAP1 SWAP4 SWAP3 PUSH1 0x0 JUMPDEST DUP3 DUP2 LT PUSH2 0x1041 JUMPI POP POP PUSH1 0x40 SWAP3 SWAP4 POP PUSH1 0x0 DUP4 DUP3 DUP5 ADD ADD MSTORE PUSH1 0x1F DUP1 NOT SWAP2 ADD AND ADD ADD SWAP1 JUMP JUMPDEST DUP2 DUP2 ADD DUP7 ADD MLOAD DUP5 DUP3 ADD PUSH1 0x40 ADD MSTORE DUP6 ADD PUSH2 0x101F JUMP JUMPDEST PUSH2 0x105D PUSH2 0x17A3 JUMP JUMPDEST PUSH1 0x1 PUSH1 0x1 PUSH1 0xA0 SHL SUB AND PUSH1 0x0 DUP2 DUP2 MSTORE PUSH32 0x54CDD369E4E8A8515E52CA72EC816C2101831AD1F18BF44102ED171459C9B4F8 PUSH1 0x20 MSTORE PUSH1 0x40 DUP2 KECCAK256 SLOAD PUSH1 0xFF AND ISZERO PUSH2 0x10A0 JUMPI POP POP JUMP JUMPDEST PUSH1 0x44 SWAP3 POP PUSH1 0x40 MLOAD SWAP2 PUSH4 0xE2517D3F PUSH1 0xE0 SHL DUP4 MSTORE PUSH1 0x4 DUP4 ADD MSTORE PUSH1 0x24 DUP3 ADD MSTORE REVERT JUMPDEST PUSH2 0x10C6 PUSH2 0x17A3 JUMP JUMPDEST PUSH1 0x1 PUSH1 0x1 PUSH1 0xA0 SHL SUB AND PUSH1 0x0 DUP2 DUP2 MSTORE PUSH32 0xE09F975E15F8F53F24CBBC282B13C40B84DF485FCDB8D3997FA103DC5A4EF841 PUSH1 0x20 MSTORE PUSH1 0x40 SWAP1 KECCAK256 SLOAD PUSH32 0x65D7A28E3265B37A6474929F336521B332C1681B933F6CB9F3376673440D862A SWAP1 PUSH1 0xFF AND ISZERO PUSH2 0x10A0 JUMPI POP POP JUMP JUMPDEST PUSH2 0x1133 PUSH2 0x17A3 JUMP JUMPDEST SWAP1 DUP1 PUSH1 0x0 MSTORE PUSH1 0x6 PUSH1 0x20 MSTORE PUSH1 0x40 PUSH1 0x0 KECCAK256 SWAP2 PUSH1 0x1 DUP1 PUSH1 0xA0 SHL SUB AND SWAP2 DUP3 PUSH1 0x0 MSTORE PUSH1 0x20 MSTORE PUSH1 0xFF PUSH1 0x40 PUSH1 0x0 KECCAK256 SLOAD AND ISZERO PUSH2 0x10A0 JUMPI POP POP JUMP JUMPDEST PUSH1 0x1 PUSH1 0x1 PUSH1 0xA0 SHL SUB SWAP1 DUP2 AND PUSH1 0x0 DUP2 DUP2 MSTORE PUSH32 0x444FB9C097962B1599C3DB8A3E427B5AA78220C2E8F7D80CFE11D37CA4279029 PUSH1 0x20 MSTORE PUSH1 0x40 DUP2 KECCAK256 SLOAD SWAP1 SWAP3 PUSH1 0x0 DUP1 MLOAD PUSH1 0x20 PUSH2 0x183D DUP4 CODECOPY DUP2 MLOAD SWAP2 MSTORE SWAP2 PUSH1 0xFF AND PUSH2 0x11F9 JUMPI PUSH1 0x0 DUP1 MLOAD PUSH1 0x20 PUSH2 0x17FD DUP4 CODECOPY DUP2 MLOAD SWAP2 MSTORE SWAP1 DUP3 DUP6 MSTORE PUSH1 0x6 PUSH1 0x20 MSTORE PUSH1 0x40 DUP6 KECCAK256 DUP5 DUP7 MSTORE PUSH1 0x20 MSTORE PUSH1 0x40 DUP6 KECCAK256 PUSH1 0x1 PUSH1 0xFF NOT DUP3 SLOAD AND OR SWAP1 SSTORE PUSH2 0x11F0 PUSH2 0x17A3 JUMP JUMPDEST AND SWAP4 DUP1 LOG4 PUSH1 0x1 SWAP1 JUMP JUMPDEST POP POP POP SWAP1 JUMP JUMPDEST PUSH1 0x1 PUSH1 0x1 PUSH1 0xA0 SHL SUB SWAP1 DUP2 AND PUSH1 0x0 DUP2 DUP2 MSTORE PUSH32 0x3195C024B2DDD6D9B8F6C836AA52F67FE69376C8903D009B80229B3CE4425F51 PUSH1 0x20 MSTORE PUSH1 0x40 DUP2 KECCAK256 SLOAD SWAP1 SWAP3 PUSH1 0x0 DUP1 MLOAD PUSH1 0x20 PUSH2 0x185D DUP4 CODECOPY DUP2 MLOAD SWAP2 MSTORE SWAP2 PUSH1 0xFF AND PUSH2 0x11F9 JUMPI PUSH1 0x0 DUP1 MLOAD PUSH1 0x20 PUSH2 0x17FD DUP4 CODECOPY DUP2 MLOAD SWAP2 MSTORE SWAP1 DUP3 DUP6 MSTORE PUSH1 0x6 PUSH1 0x20 MSTORE PUSH1 0x40 DUP6 KECCAK256 DUP5 DUP7 MSTORE PUSH1 0x20 MSTORE PUSH1 0x40 DUP6 KECCAK256 PUSH1 0x1 PUSH1 0xFF NOT DUP3 SLOAD AND OR SWAP1 SSTORE PUSH2 0x11F0 PUSH2 0x17A3 JUMP JUMPDEST PUSH1 0x1 PUSH1 0x1 PUSH1 0xA0 SHL SUB SWAP1 DUP2 AND PUSH1 0x0 DUP2 DUP2 MSTORE PUSH32 0x42D20FD6DB25EA5A8E33F43724AD72F2EBD9488257FA78C86176B8175FC383FA PUSH1 0x20 MSTORE PUSH1 0x40 DUP2 KECCAK256 SLOAD SWAP1 SWAP3 PUSH1 0x0 DUP1 MLOAD PUSH1 0x20 PUSH2 0x181D DUP4 CODECOPY DUP2 MLOAD SWAP2 MSTORE SWAP2 PUSH1 0xFF AND PUSH2 0x11F9 JUMPI PUSH1 0x0 DUP1 MLOAD PUSH1 0x20 PUSH2 0x17FD DUP4 CODECOPY DUP2 MLOAD SWAP2 MSTORE SWAP1 DUP3 DUP6 MSTORE PUSH1 0x6 PUSH1 0x20 MSTORE PUSH1 0x40 DUP6 KECCAK256 DUP5 DUP7 MSTORE PUSH1 0x20 MSTORE PUSH1 0x40 DUP6 KECCAK256 PUSH1 0x1 PUSH1 0xFF NOT DUP3 SLOAD AND OR SWAP1 SSTORE PUSH2 0x11F0 PUSH2 0x17A3 JUMP JUMPDEST PUSH1 0x0 DUP2 DUP2 MSTORE PUSH1 0x6 PUSH1 0x20 SWAP1 DUP2 MSTORE PUSH1 0x40 DUP1 DUP4 KECCAK256 PUSH1 0x1 PUSH1 0x1 PUSH1 0xA0 SHL SUB SWAP6 DUP7 AND DUP1 DUP6 MSTORE SWAP3 MSTORE DUP3 KECCAK256 SLOAD SWAP2 SWAP4 SWAP1 SWAP3 SWAP2 PUSH1 0xFF AND PUSH2 0x11F9 JUMPI PUSH1 0x0 DUP1 MLOAD PUSH1 0x20 PUSH2 0x17FD DUP4 CODECOPY DUP2 MLOAD SWAP2 MSTORE SWAP1 DUP3 DUP6 MSTORE PUSH1 0x6 PUSH1 0x20 MSTORE PUSH1 0x40 DUP6 KECCAK256 DUP5 DUP7 MSTORE PUSH1 0x20 MSTORE PUSH1 0x40 DUP6 KECCAK256 PUSH1 0x1 PUSH1 0xFF NOT DUP3 SLOAD AND OR SWAP1 SSTORE PUSH2 0x11F0 PUSH2 0x17A3 JUMP JUMPDEST PUSH1 0x1 PUSH1 0x1 PUSH1 0xA0 SHL SUB SWAP1 DUP2 AND PUSH1 0x0 DUP2 DUP2 MSTORE PUSH32 0x42D20FD6DB25EA5A8E33F43724AD72F2EBD9488257FA78C86176B8175FC383FA PUSH1 0x20 MSTORE PUSH1 0x40 DUP2 KECCAK256 SLOAD SWAP1 SWAP3 PUSH1 0x0 DUP1 MLOAD PUSH1 0x20 PUSH2 0x181D DUP4 CODECOPY DUP2 MLOAD SWAP2 MSTORE SWAP2 PUSH1 0xFF AND ISZERO PUSH2 0x11F9 JUMPI PUSH1 0x0 DUP1 MLOAD PUSH1 0x20 PUSH2 0x187D DUP4 CODECOPY DUP2 MLOAD SWAP2 MSTORE SWAP1 DUP3 DUP6 MSTORE PUSH1 0x6 PUSH1 0x20 MSTORE PUSH1 0x40 DUP6 KECCAK256 DUP5 DUP7 MSTORE PUSH1 0x20 MSTORE PUSH1 0x40 DUP6 KECCAK256 PUSH1 0xFF NOT DUP2 SLOAD AND SWAP1 SSTORE PUSH2 0x11F0 PUSH2 0x17A3 JUMP JUMPDEST PUSH1 0x1 PUSH1 0x1 PUSH1 0xA0 SHL SUB SWAP1 DUP2 AND PUSH1 0x0 DUP2 DUP2 MSTORE PUSH32 0x3195C024B2DDD6D9B8F6C836AA52F67FE69376C8903D009B80229B3CE4425F51 PUSH1 0x20 MSTORE PUSH1 0x40 DUP2 KECCAK256 SLOAD SWAP1 SWAP3 PUSH1 0x0 DUP1 MLOAD PUSH1 0x20 PUSH2 0x185D DUP4 CODECOPY DUP2 MLOAD SWAP2 MSTORE SWAP2 PUSH1 0xFF AND ISZERO PUSH2 0x11F9 JUMPI PUSH1 0x0 DUP1 MLOAD PUSH1 0x20 PUSH2 0x187D DUP4 CODECOPY DUP2 MLOAD SWAP2 MSTORE SWAP1 DUP3 DUP6 MSTORE PUSH1 0x6 PUSH1 0x20 MSTORE PUSH1 0x40 DUP6 KECCAK256 DUP5 DUP7 MSTORE PUSH1 0x20 MSTORE PUSH1 0x40 DUP6 KECCAK256 PUSH1 0xFF NOT DUP2 SLOAD AND SWAP1 SSTORE PUSH2 0x11F0 PUSH2 0x17A3 JUMP JUMPDEST PUSH1 0x1 PUSH1 0x1 PUSH1 0xA0 SHL SUB SWAP1 DUP2 AND PUSH1 0x0 DUP2 DUP2 MSTORE PUSH32 0x444FB9C097962B1599C3DB8A3E427B5AA78220C2E8F7D80CFE11D37CA4279029 PUSH1 0x20 MSTORE PUSH1 0x40 DUP2 KECCAK256 SLOAD SWAP1 SWAP3 PUSH1 0x0 DUP1 MLOAD PUSH1 0x20 PUSH2 0x183D DUP4 CODECOPY DUP2 MLOAD SWAP2 MSTORE SWAP2 PUSH1 0xFF AND ISZERO PUSH2 0x11F9 JUMPI PUSH1 0x0 DUP1 MLOAD PUSH1 0x20 PUSH2 0x187D DUP4 CODECOPY DUP2 MLOAD SWAP2 MSTORE SWAP1 DUP3 DUP6 MSTORE PUSH1 0x6 PUSH1 0x20 MSTORE PUSH1 0x40 DUP6 KECCAK256 DUP5 DUP7 MSTORE PUSH1 0x20 MSTORE PUSH1 0x40 DUP6 KECCAK256 PUSH1 0xFF NOT DUP2 SLOAD AND SWAP1 SSTORE PUSH2 0x11F0 PUSH2 0x17A3 JUMP JUMPDEST PUSH1 0x0 DUP2 DUP2 MSTORE PUSH1 0x6 PUSH1 0x20 SWAP1 DUP2 MSTORE PUSH1 0x40 DUP1 DUP4 KECCAK256 PUSH1 0x1 PUSH1 0x1 PUSH1 0xA0 SHL SUB SWAP6 DUP7 AND DUP1 DUP6 MSTORE SWAP3 MSTORE DUP3 KECCAK256 SLOAD SWAP2 SWAP4 SWAP1 SWAP3 SWAP2 PUSH1 0xFF AND ISZERO PUSH2 0x11F9 JUMPI PUSH1 0x0 DUP1 MLOAD PUSH1 0x20 PUSH2 0x187D DUP4 CODECOPY DUP2 MLOAD SWAP2 MSTORE SWAP1 DUP3 DUP6 MSTORE PUSH1 0x6 PUSH1 0x20 MSTORE PUSH1 0x40 DUP6 KECCAK256 DUP5 DUP7 MSTORE PUSH1 0x20 MSTORE PUSH1 0x40 DUP6 KECCAK256 PUSH1 0xFF NOT DUP2 SLOAD AND SWAP1 SSTORE PUSH2 0x11F0 PUSH2 0x17A3 JUMP JUMPDEST SWAP1 PUSH1 0x1F DUP1 NOT SWAP2 ADD AND DUP2 ADD SWAP1 DUP2 LT PUSH8 0xFFFFFFFFFFFFFFFF DUP3 GT OR PUSH2 0x15A2 JUMPI PUSH1 0x40 MSTORE JUMP JUMPDEST PUSH4 0x4E487B71 PUSH1 0xE0 SHL PUSH1 0x0 MSTORE PUSH1 0x41 PUSH1 0x4 MSTORE PUSH1 0x24 PUSH1 0x0 REVERT JUMPDEST SWAP2 PUSH1 0x1 PUSH1 0x1 PUSH1 0xA0 SHL SUB DUP1 DUP5 AND SWAP3 DUP4 ISZERO PUSH2 0x1685 JUMPI AND SWAP3 DUP4 ISZERO PUSH2 0x166C JUMPI PUSH2 0x15DB PUSH2 0x1745 JUMP JUMPDEST PUSH1 0x0 SWAP1 DUP4 DUP3 MSTORE DUP2 PUSH1 0x20 MSTORE PUSH1 0x40 DUP3 KECCAK256 SLOAD SWAP1 DUP4 DUP3 LT PUSH2 0x163A JUMPI POP SWAP2 PUSH1 0x40 DUP3 DUP3 PUSH32 0xDDF252AD1BE2C89B69C2B068FC378DAA952BA7F163C4A11628F55A4DF523B3EF SWAP6 DUP8 PUSH1 0x20 SWAP7 MSTORE DUP3 DUP7 MSTORE SUB DUP3 DUP3 KECCAK256 SSTORE DUP7 DUP2 MSTORE KECCAK256 DUP2 DUP2 SLOAD ADD SWAP1 SSTORE PUSH1 0x40 MLOAD SWAP1 DUP2 MSTORE LOG3 JUMP JUMPDEST PUSH1 0x40 MLOAD PUSH4 0x391434E3 PUSH1 0xE2 SHL DUP2 MSTORE PUSH1 0x1 PUSH1 0x1 PUSH1 0xA0 SHL SUB SWAP2 SWAP1 SWAP2 AND PUSH1 0x4 DUP3 ADD MSTORE PUSH1 0x24 DUP2 ADD SWAP2 SWAP1 SWAP2 MSTORE PUSH1 0x44 DUP2 ADD DUP4 SWAP1 MSTORE PUSH1 0x64 SWAP1 REVERT JUMPDEST PUSH1 0x40 MLOAD PUSH4 0xEC442F05 PUSH1 0xE0 SHL DUP2 MSTORE PUSH1 0x0 PUSH1 0x4 DUP3 ADD MSTORE PUSH1 0x24 SWAP1 REVERT JUMPDEST PUSH1 0x40 MLOAD PUSH4 0x4B637E8F PUSH1 0xE1 SHL DUP2 MSTORE PUSH1 0x0 PUSH1 0x4 DUP3 ADD MSTORE PUSH1 0x24 SWAP1 REVERT JUMPDEST SWAP1 PUSH1 0x1 PUSH1 0x1 PUSH1 0xA0 SHL SUB DUP3 AND SWAP1 DUP2 ISZERO PUSH2 0x1685 JUMPI PUSH2 0x16B8 PUSH2 0x1745 JUMP JUMPDEST PUSH1 0x0 SWAP3 DUP3 DUP5 MSTORE DUP4 PUSH1 0x20 MSTORE PUSH1 0x40 DUP5 KECCAK256 SLOAD SWAP1 DUP3 DUP3 LT PUSH2 0x1713 JUMPI POP DUP2 PUSH32 0xDDF252AD1BE2C89B69C2B068FC378DAA952BA7F163C4A11628F55A4DF523B3EF SWAP3 PUSH1 0x20 SWAP3 DUP6 DUP8 MSTORE DUP7 DUP5 MSTORE SUB PUSH1 0x40 DUP7 KECCAK256 SSTORE DUP1 PUSH1 0x2 SLOAD SUB PUSH1 0x2 SSTORE PUSH1 0x40 MLOAD SWAP1 DUP2 MSTORE LOG3 JUMP JUMPDEST PUSH1 0x40 MLOAD PUSH4 0x391434E3 PUSH1 0xE2 SHL DUP2 MSTORE PUSH1 0x1 PUSH1 0x1 PUSH1 0xA0 SHL SUB SWAP2 SWAP1 SWAP2 AND PUSH1 0x4 DUP3 ADD MSTORE PUSH1 0x24 DUP2 ADD SWAP2 SWAP1 SWAP2 MSTORE PUSH1 0x44 DUP2 ADD DUP3 SWAP1 MSTORE PUSH1 0x64 SWAP1 REVERT JUMPDEST PUSH1 0xFF PUSH1 0x5 SLOAD AND PUSH2 0x1751 JUMPI JUMP JUMPDEST PUSH1 0x40 MLOAD PUSH4 0xD93C0665 PUSH1 0xE0 SHL DUP2 MSTORE PUSH1 0x4 SWAP1 REVERT JUMPDEST PUSH1 0x2 SLOAD DUP1 ISZERO PUSH2 0x179D JUMPI PUSH1 0x8 SLOAD PUSH2 0x2710 SWAP1 DUP2 DUP2 MUL SWAP2 DUP2 DUP4 DIV EQ SWAP1 ISZERO OR ISZERO PUSH2 0x1787 JUMPI DIV SWAP1 JUMP JUMPDEST PUSH4 0x4E487B71 PUSH1 0xE0 SHL PUSH1 0x0 MSTORE PUSH1 0x11 PUSH1 0x4 MSTORE PUSH1 0x24 PUSH1 0x0 REVERT JUMPDEST POP PUSH1 0x0 SWAP1 JUMP JUMPDEST PUSH1 0x14 CALLDATASIZE LT ISZERO DUP1 PUSH2 0x17CA JUMPI JUMPDEST ISZERO PUSH2 0x17C6 JUMPI PUSH1 0x13 NOT CALLDATASIZE ADD CALLDATASIZE DUP2 GT PUSH2 0xFF1 JUMPI CALLDATALOAD PUSH1 0x60 SHR SWAP1 JUMP JUMPDEST CALLER SWAP1 JUMP JUMPDEST POP CALLER PUSH32 0x0 PUSH1 0x1 PUSH1 0x1 PUSH1 0xA0 SHL SUB AND EQ PUSH2 0x17AE JUMP INVALID 0x2F DUP8 DUP9 GT PUSH31 0x7EFF1D82E926EC794901D17C78024A50270940304540A733656F0D3C11D16C 0xBA SELFDESTRUCT 0xD0 SAR 0xF6 SWAP13 0xE1 0xC4 DIV 0xF6 CALLVALUE 0xE 0xE0 JUMPI 0x49 DUP16 PUSH0 STOP 0x24 PUSH2 0x90EA SLOAD 0x22 SDIV PUSH23 0xA848E5BEA7D829F723A95A0C83A655765BE37702FA5845 EQ 0xC1 0xE2 LOG2 ADDMOD PUSH8 0xD04B58478E9F2DF0 INVALID 0xD2 0xC7 PUSH23 0x48DE5860A4CC508CD0818C85B8B8A1AB4CEEEF8D981C89 JUMP 0xA6 0xF6 CODECOPY 0x1F 0x5C ORIGIN 0xD9 0xC6 SWAP14 0x2A SELFBALANCE 0xEA PUSH8 0xB442974B53935D1 0xED 0xC7 REVERT PUSH5 0xEB21E047A8 CODECOPY OR SHL LOG1 PUSH5 0x736F6C6343 STOP ADDMOD EQ STOP EXP 0x2F DUP8 DUP9 GT PUSH31 0x7EFF1D82E926EC794901D17C78024A50270940304540A733656F0D00000000 "},"methodIdentifiers":{"BURNER_ROLE()":"282c51f3","DEFAULT_ADMIN_ROLE()":"a217fddf","MINTER_ROLE()":"d5391393","PAUSER_ROLE()":"e63ab1e9","REDEMPTION_MANAGER_ROLE()":"8ade91ec","addBurner(address)":"f44637ba","addMinter(address)":"983b2d56","addRedemptionManager(address)":"35804183","allowance(address,address)":"dd62ed3e","approve(address,uint256)":"095ea7b3","balanceOf(address)":"70a08231","burn(address,uint256)":"9dc29fac","collateralizationRatio()":"dcaf9c44","decimals()":"313ce567","getRoleAdmin(bytes32)":"248a9ca3","grantRole(bytes32,address)":"2f2ff15d","hasRole(bytes32,address)":"91d14854","isTrustedForwarder(address)":"572b6c05","mint(address,uint256)":"40c10f19","name()":"06fdde03","pause()":"8456cb59","paused()":"5c975abb","redeem(uint256)":"db006a75","redemptionService()":"395ffad6","removeBurner(address)":"02846858","removeMinter(address)":"3092afd5","removeRedemptionManager(address)":"610a2ca7","renounceRole(bytes32,address)":"36568abe","revokeRole(bytes32,address)":"d547741f","supportsInterface(bytes4)":"01ffc9a7","symbol()":"95d89b41","totalFiatReserves()":"dfda3991","totalSupply()":"18160ddd","transfer(address,uint256)":"a9059cbb","transferFrom(address,address,uint256)":"23b872dd","trustedForwarder()":"7da0a877","unpause()":"3f4ba83a","updateFiatReserves(uint256)":"ee8f01ef"}}}}}