{"src/contracts/SmartTicket.sol":{"SmartTicket":{"abi":[{"inputs":[{"internalType":"string","name":"name","type":"string"},{"internalType":"string","name":"symbol","type":"string"},{"internalType":"string","name":"_baseURI","type":"string"},{"internalType":"address","name":"_minter","type":"address"},{"internalType":"address","name":"_royaltyReceiver","type":"address"},{"internalType":"uint96","name":"_royaltyPercentage","type":"uint96"}],"stateMutability":"nonpayable","type":"constructor"},{"inputs":[{"internalType":"uint256","name":"numerator","type":"uint256"},{"internalType":"uint256","name":"denominator","type":"uint256"}],"name":"ERC2981InvalidDefaultRoyalty","type":"error"},{"inputs":[{"internalType":"address","name":"receiver","type":"address"}],"name":"ERC2981InvalidDefaultRoyaltyReceiver","type":"error"},{"inputs":[{"internalType":"uint256","name":"tokenId","type":"uint256"},{"internalType":"uint256","name":"numerator","type":"uint256"},{"internalType":"uint256","name":"denominator","type":"uint256"}],"name":"ERC2981InvalidTokenRoyalty","type":"error"},{"inputs":[{"internalType":"uint256","name":"tokenId","type":"uint256"},{"internalType":"address","name":"receiver","type":"address"}],"name":"ERC2981InvalidTokenRoyaltyReceiver","type":"error"},{"inputs":[],"name":"ERC721EnumerableForbiddenBatchMint","type":"error"},{"inputs":[{"internalType":"address","name":"sender","type":"address"},{"internalType":"uint256","name":"tokenId","type":"uint256"},{"internalType":"address","name":"owner","type":"address"}],"name":"ERC721IncorrectOwner","type":"error"},{"inputs":[{"internalType":"address","name":"operator","type":"address"},{"internalType":"uint256","name":"tokenId","type":"uint256"}],"name":"ERC721InsufficientApproval","type":"error"},{"inputs":[{"internalType":"address","name":"approver","type":"address"}],"name":"ERC721InvalidApprover","type":"error"},{"inputs":[{"internalType":"address","name":"operator","type":"address"}],"name":"ERC721InvalidOperator","type":"error"},{"inputs":[{"internalType":"address","name":"owner","type":"address"}],"name":"ERC721InvalidOwner","type":"error"},{"inputs":[{"internalType":"address","name":"receiver","type":"address"}],"name":"ERC721InvalidReceiver","type":"error"},{"inputs":[{"internalType":"address","name":"sender","type":"address"}],"name":"ERC721InvalidSender","type":"error"},{"inputs":[{"internalType":"uint256","name":"tokenId","type":"uint256"}],"name":"ERC721NonexistentToken","type":"error"},{"inputs":[{"internalType":"address","name":"owner","type":"address"},{"internalType":"uint256","name":"index","type":"uint256"}],"name":"ERC721OutOfBoundsIndex","type":"error"},{"inputs":[{"internalType":"address","name":"owner","type":"address"}],"name":"OwnableInvalidOwner","type":"error"},{"inputs":[{"internalType":"address","name":"account","type":"address"}],"name":"OwnableUnauthorizedAccount","type":"error"},{"anonymous":false,"inputs":[{"indexed":true,"internalType":"address","name":"owner","type":"address"},{"indexed":true,"internalType":"address","name":"approved","type":"address"},{"indexed":true,"internalType":"uint256","name":"tokenId","type":"uint256"}],"name":"Approval","type":"event"},{"anonymous":false,"inputs":[{"indexed":true,"internalType":"address","name":"owner","type":"address"},{"indexed":true,"internalType":"address","name":"operator","type":"address"},{"indexed":false,"internalType":"bool","name":"approved","type":"bool"}],"name":"ApprovalForAll","type":"event"},{"anonymous":false,"inputs":[{"indexed":true,"internalType":"address","name":"previousOwner","type":"address"},{"indexed":true,"internalType":"address","name":"newOwner","type":"address"}],"name":"OwnershipTransferred","type":"event"},{"anonymous":false,"inputs":[{"indexed":true,"internalType":"address","name":"receiver","type":"address"},{"indexed":false,"internalType":"uint96","name":"percentage","type":"uint96"}],"name":"RoyaltyUpdated","type":"event"},{"anonymous":false,"inputs":[{"indexed":true,"internalType":"uint256","name":"tokenId","type":"uint256"},{"indexed":true,"internalType":"address","name":"to","type":"address"},{"indexed":false,"internalType":"string","name":"uri","type":"string"}],"name":"TicketMinted","type":"event"},{"anonymous":false,"inputs":[{"indexed":true,"internalType":"uint256","name":"tokenId","type":"uint256"},{"indexed":true,"internalType":"address","name":"redeemer","type":"address"}],"name":"TicketRedeemed","type":"event"},{"anonymous":false,"inputs":[{"indexed":true,"internalType":"address","name":"from","type":"address"},{"indexed":true,"internalType":"address","name":"to","type":"address"},{"indexed":true,"internalType":"uint256","name":"tokenId","type":"uint256"}],"name":"Transfer","type":"event"},{"inputs":[{"internalType":"address","name":"to","type":"address"},{"internalType":"uint256","name":"tokenId","type":"uint256"}],"name":"approve","outputs":[],"stateMutability":"nonpayable","type":"function"},{"inputs":[{"internalType":"address","name":"owner","type":"address"}],"name":"balanceOf","outputs":[{"internalType":"uint256","name":"","type":"uint256"}],"stateMutability":"view","type":"function"},{"inputs":[],"name":"baseURI","outputs":[{"internalType":"string","name":"","type":"string"}],"stateMutability":"view","type":"function"},{"inputs":[{"internalType":"uint256","name":"tokenId","type":"uint256"}],"name":"getApproved","outputs":[{"internalType":"address","name":"","type":"address"}],"stateMutability":"view","type":"function"},{"inputs":[],"name":"getNextTokenId","outputs":[{"internalType":"uint256","name":"","type":"uint256"}],"stateMutability":"view","type":"function"},{"inputs":[{"internalType":"address","name":"owner","type":"address"},{"internalType":"address","name":"operator","type":"address"}],"name":"isApprovedForAll","outputs":[{"internalType":"bool","name":"","type":"bool"}],"stateMutability":"view","type":"function"},{"inputs":[{"internalType":"uint256","name":"tokenId","type":"uint256"}],"name":"isRedeemed","outputs":[{"internalType":"bool","name":"","type":"bool"}],"stateMutability":"view","type":"function"},{"inputs":[{"internalType":"address","name":"to","type":"address"}],"name":"mint","outputs":[{"internalType":"uint256","name":"","type":"uint256"}],"stateMutability":"nonpayable","type":"function"},{"inputs":[{"internalType":"address","name":"to","type":"address"},{"internalType":"uint256","name":"quantity","type":"uint256"}],"name":"mintBatch","outputs":[{"internalType":"uint256[]","name":"","type":"uint256[]"}],"stateMutability":"nonpayable","type":"function"},{"inputs":[],"name":"name","outputs":[{"internalType":"string","name":"","type":"string"}],"stateMutability":"view","type":"function"},{"inputs":[],"name":"owner","outputs":[{"internalType":"address","name":"","type":"address"}],"stateMutability":"view","type":"function"},{"inputs":[{"internalType":"uint256","name":"tokenId","type":"uint256"}],"name":"ownerOf","outputs":[{"internalType":"address","name":"","type":"address"}],"stateMutability":"view","type":"function"},{"inputs":[{"internalType":"uint256","name":"tokenId","type":"uint256"}],"name":"redeemTicket","outputs":[],"stateMutability":"nonpayable","type":"function"},{"inputs":[],"name":"renounceOwnership","outputs":[],"stateMutability":"nonpayable","type":"function"},{"inputs":[{"internalType":"uint256","name":"tokenId","type":"uint256"},{"internalType":"uint256","name":"salePrice","type":"uint256"}],"name":"royaltyInfo","outputs":[{"internalType":"address","name":"receiver","type":"address"},{"internalType":"uint256","name":"amount","type":"uint256"}],"stateMutability":"view","type":"function"},{"inputs":[],"name":"royaltyPercentage","outputs":[{"internalType":"uint96","name":"","type":"uint96"}],"stateMutability":"view","type":"function"},{"inputs":[],"name":"royaltyReceiver","outputs":[{"internalType":"address","name":"","type":"address"}],"stateMutability":"view","type":"function"},{"inputs":[{"internalType":"address","name":"from","type":"address"},{"internalType":"address","name":"to","type":"address"},{"internalType":"uint256","name":"tokenId","type":"uint256"}],"name":"safeTransferFrom","outputs":[],"stateMutability":"nonpayable","type":"function"},{"inputs":[{"internalType":"address","name":"from","type":"address"},{"internalType":"address","name":"to","type":"address"},{"internalType":"uint256","name":"tokenId","type":"uint256"},{"internalType":"bytes","name":"data","type":"bytes"}],"name":"safeTransferFrom","outputs":[],"stateMutability":"nonpayable","type":"function"},{"inputs":[{"internalType":"address","name":"operator","type":"address"},{"internalType":"bool","name":"approved","type":"bool"}],"name":"setApprovalForAll","outputs":[],"stateMutability":"nonpayable","type":"function"},{"inputs":[{"internalType":"string","name":"_baseURI","type":"string"}],"name":"setBaseURI","outputs":[],"stateMutability":"nonpayable","type":"function"},{"inputs":[{"internalType":"address","name":"receiver","type":"address"},{"internalType":"uint96","name":"percentage","type":"uint96"}],"name":"setRoyalty","outputs":[],"stateMutability":"nonpayable","type":"function"},{"inputs":[{"internalType":"bytes4","name":"interfaceId","type":"bytes4"}],"name":"supportsInterface","outputs":[{"internalType":"bool","name":"","type":"bool"}],"stateMutability":"view","type":"function"},{"inputs":[],"name":"symbol","outputs":[{"internalType":"string","name":"","type":"string"}],"stateMutability":"view","type":"function"},{"inputs":[{"internalType":"uint256","name":"index","type":"uint256"}],"name":"tokenByIndex","outputs":[{"internalType":"uint256","name":"","type":"uint256"}],"stateMutability":"view","type":"function"},{"inputs":[{"internalType":"address","name":"owner","type":"address"},{"internalType":"uint256","name":"index","type":"uint256"}],"name":"tokenOfOwnerByIndex","outputs":[{"internalType":"uint256","name":"","type":"uint256"}],"stateMutability":"view","type":"function"},{"inputs":[{"internalType":"uint256","name":"tokenId","type":"uint256"}],"name":"tokenURI","outputs":[{"internalType":"string","name":"","type":"string"}],"stateMutability":"view","type":"function"},{"inputs":[],"name":"totalSupply","outputs":[{"internalType":"uint256","name":"","type":"uint256"}],"stateMutability":"view","type":"function"},{"inputs":[{"internalType":"address","name":"from","type":"address"},{"internalType":"address","name":"to","type":"address"},{"internalType":"uint256","name":"tokenId","type":"uint256"}],"name":"transferFrom","outputs":[],"stateMutability":"nonpayable","type":"function"},{"inputs":[{"internalType":"address","name":"newOwner","type":"address"}],"name":"transferOwnership","outputs":[],"stateMutability":"nonpayable","type":"function"}],"evm":{"bytecode":{"linkReferences":{},"object":"60406080815234620005525762002288803803806200001e8162000557565b92833981019060c081830312620005525780516001600160401b039190828111620005525783620000519183016200057d565b91602091828101518281116200055257856200006f9183016200057d565b94868201519083821162000552576200008a9183016200057d565b936200009960608301620005ef565b9460a0620000aa60808501620005ef565b930151966001600160601b0388169687890362000552578351908682116200025b57600254916001958684811c9416801562000547575b8a8510146200036b578190601f94858111620004f0575b508a90858311600114620004845760009262000478575b5050600019600383901b1c191690861b176002555b82518781116200025b576003938454908782811c921680156200046d575b8b8310146200036b57818584931162000417575b508a90858311600114620003b057600092620003a4575b505060001982861b1c191690861b1783555b33156200038c57620001a090620001963362000604565b85600d5562000604565b8251928684116200025b57600f548581811c9116801562000381575b898210146200036b578281116200031f575b5087918411600114620002b257938394918492600095620002a6575b50501b92600019911b1c191617600f555b6001600160a01b03166001600160a01b031960a09590951b94909416841760108190559361271080851162000289575080156200027157855191828701908111838210176200025b5786528152015260005551611c3a90816200064e8239f35b634e487b7160e01b600052604160045260246000fd5b8551635b6cc80560e11b815260006004820152602490fd5b84604491885191636f483d0960e01b835260048301526024820152fd5b015193503880620001ea565b9190601f19841692600f60005284896000209460005b8b89838310620003075750505010620002ec575b50505050811b01600f55620001fb565b01519060f884600019921b161c1916905538808080620002dc565b868601518955909701969485019488935001620002c8565b600f600052886000208380870160051c8201928b881062000361575b0160051c019086905b82811062000354575050620001ce565b6000815501869062000344565b925081926200033b565b634e487b7160e01b600052602260045260246000fd5b90607f1690620001bc565b8a51631e4fbdf760e01b815260006004820152602490fd5b0151905038806200016d565b60008781528c81208a9550929190601f198516908e5b828210620003ff5750508411620003e6575b505050811b0183556200017f565b015160001983881b60f8161c19169055388080620003d8565b8385015186558c979095019493840193018e620003c6565b909150856000528a6000208580850160051c8201928d861062000463575b918a91869594930160051c01915b8281106200045357505062000156565b600081558594508a910162000443565b9250819262000435565b91607f169162000142565b0151905038806200010f565b90889350601f1983169160026000528c600020928d6000905b828210620004d85750508411620004be575b505050811b0160025562000124565b015160001960f88460031b161c19169055388080620004af565b8385015186558c979095019493840193018e6200049d565b90915060026000528a6000208580850160051c8201928d86106200053d575b918a91869594930160051c01915b8281106200052d575050620000f8565b600081558594508a91016200051d565b925081926200050f565b93607f1693620000e1565b600080fd5b6040519190601f01601f191682016001600160401b038111838210176200025b57604052565b919080601f84011215620005525782516001600160401b0381116200025b57602090620005b3601f8201601f1916830162000557565b92818452828287010111620005525760005b818110620005db57508260009394955001015290565b8581018301518482018401528201620005c5565b51906001600160a01b03821682036200055257565b600c80546001600160a01b039283166001600160a01b0319821681179092559091167f8be0079c531659141344cd1fd0a4f28419497f9722a3daafe3b4186f6b6457e0600080a356fe6080604081815260048036101561001557600080fd5b600092833560e01c90816301ffc9a714610f775750806306fdde0314610ecd578063081812fc14610e91578063095ea7b314610daf57806315f59d7f14610ce757806318160ddd14610cc857806323b872dd14610cb0578063248b71fc14610b765780632a55205a14610ad65780632f745c5914610a5257806332d33cd014610a2657806342842e0e146109f75780634f6ccce7146109a357806355f804b3146108265780636352211e146107f55780636a627842146107745780636c0360eb146106dc57806370a08231146106af578063715018a6146106525780638a71bb2d146106305780638da5cb5b146106075780638f2fc60b146104c857806395d89b41146103e35780639fbc8713146103ba578063a22cb46514610319578063b88d4fde146102a6578063c87b56dd1461026b578063caa0f92a1461024c578063e985e9c5146101fa5763f2fde38b1461016d57600080fd5b346101f65760203660031901126101f65761018661105f565b9061018f6111a6565b6001600160a01b039182169283156101e0575050600c54826001600160601b0360a01b821617600c55167f8be0079c531659141344cd1fd0a4f28419497f9722a3daafe3b4186f6b6457e08380a380f35b51631e4fbdf760e01b8152908101849052602490fd5b8280fd5b50503461024857806003193601126102485760ff8160209361021a61105f565b61022261107a565b6001600160a01b0391821683526007875283832091168252855220549151911615158152f35b5080fd5b505034610248578160031936011261024857602090600d549051908152f35b5091346102a35760203660031901126102a3575061028c61029f9235611a28565b905191829160208352602083019061103a565b0390f35b80fd5b838234610248576080366003190112610248576102c161105f565b6102c961107a565b6044359060643567ffffffffffffffff81116103155736602382011215610315576103129481602461030093369301359101611135565b9261030c83838361120b565b3361155a565b80f35b8580fd5b5090346101f657806003193601126101f65761033361105f565b90602435918215158093036103b6576001600160a01b03169283156103a15750338452600760205280842083855260205280842060ff1981541660ff8416179055519081527f17307eab39ab6107e8899845ad3d59bd9653f200f220920489ca2b5937696c3160203392a380f35b836024925191630b61174360e31b8352820152fd5b8480fd5b50503461024857816003193601126102485760105490516001600160a01b039091168152602090f35b505034610248578160031936011261024857805190826003546104058161116c565b808552916001918083169081156104a05750600114610443575b5050506104318261029f9403836110f7565b5191829160208352602083019061103a565b9450600385527fc2575a0e9e593c00f959f8c92f12db2869c3395a3b0502d05e2516446f71f85b5b8286106104885750505061043182602061029f958201019461041f565b8054602087870181019190915290950194810161046b565b61029f97508693506020925061043194915060ff191682840152151560051b8201019461041f565b5090346101f657806003193601126101f6576104e261105f565b90602435926001600160601b03841692838503610315576105016111a6565b6001600160a01b03169384156105d15761271084116105985760a01b6001600160a01b03191684176010819055825190918184019067ffffffffffffffff82118383101761058557509184602085937f8039bd6e4e7dba001c8840eb2e118d9d131246faa7d0d04335f7305127ec0b1097958297528881520152865551908152a280f35b634e487b7160e01b885260419052602487fd5b506020606492519162461bcd60e51b835282015260136024820152720a0cae4c6cadce8c2ceca40e8dede40d0d2ced606b1b6044820152fd5b506020606492519162461bcd60e51b8352820152601060248201526f24b73b30b634b2103932b1b2b4bb32b960811b6044820152fd5b505034610248578160031936011261024857600c5490516001600160a01b039091168152602090f35b50503461024857816003193601126102485760209060105460a01c9051908152f35b83346102a357806003193601126102a35761066b6111a6565b600c80546001600160a01b0319811690915581906001600160a01b03167f8be0079c531659141344cd1fd0a4f28419497f9722a3daafe3b4186f6b6457e08280a380f35b505034610248576020366003190112610248576020906106d56106d061105f565b6111d2565b9051908152f35b50503461024857816003193601126102485780519082600f546106fe8161116c565b808552916001918083169081156104a05750600114610729575050506104318261029f9403836110f7565b9450600f8552600080516020611c0e8339815191525b82861061075c5750505061043182602061029f958201019461041f565b8054602087870181019190915290950194810161073f565b505034610248576020366003190112610248578060209261079361105f565b61079b6111a6565b7f01fe50c1ea65ec45d727411cce4e6ac546a4cc83120dc5d887b7949347bfe728600d549485926107cb846116a8565b600d556107d884826116cd565b8151888152888101959095526001600160a01b031693a351908152f35b5091346102a35760203660031901126102a35750610815602092356114d2565b90516001600160a01b039091168152f35b5082346102a3576020806003193601126102485767ffffffffffffffff90833582811161099f573660238201121561099f5761086b9036906024818801359101611135565b936108746111a6565b845192831161098c5750610889600f5461116c565b601f811161093c575b5080601f83116001146108cd575082938293926108c2575b50508160011b916000199060031b1c191617600f5580f35b0151905083806108aa565b600f8452601f19831694600080516020611c0e833981519152929185905b87821061092457505083600195961061090b575b505050811b01600f5580f35b015160001960f88460031b161c191690558380806108ff565b806001859682949686015181550195019301906108eb565b600f8452600080516020611c0e833981519152601f840160051c810191838510610982575b601f0160051c01905b8181106109775750610892565b84815560010161096a565b9091508190610961565b634e487b7160e01b845260419052602483fd5b8380fd5b50346101f65760203660031901126101f657803592600a548410156109dc576020836109ce8661150d565b91905490519160031b1c8152f35b6044939192519263295f44f760e21b84528301526024820152fd5b5050346102485761031290610a0b36611090565b91925192610a18846110c5565b85845261030c83838361120b565b50346101f65760203660031901126101f6578160209360ff92358152600e855220541690519015158152f35b5091346102a357816003193601126102a357610a6c61105f565b9260243590610a7a856111d2565b821015610aaa57506001600160a01b03909316815260086020908152828220938252928352819020549051908152f35b925163295f44f760e21b81526001600160a01b0390941692840192835260208301525081906040010390fd5b5091346102a357816003193601126102a35782358152600160205281812054602435926001600160a01b0380831693919260a01c908415610b5d575b506001600160601b031693848102948186041490151715610b4a5781516001600160a01b038416815261271085046020820152604090f35b634e487b7160e01b815260118552602490fd5b8254908116945060a01c90506001600160601b03610b12565b508290346102485782600319360112610248579190610b9361105f565b906024938435610ba16111a6565b610baa81611a10565b91610bb7865193846110f7565b818352610bc382611a10565b6020978489019691601f19013688376001600160a01b03821692865b858110610c275750505050505083519485948186019282875251809352850193925b828110610c1057505050500390f35b835185528695509381019392810192600101610c01565b600d9a979698999a805490610c3b826116a8565b9055610c4781866116cd565b8951821015610c9e579085827f01fe50c1ea65ec45d727411cce4e6ac546a4cc83120dc5d887b7949347bfe7288e610c93958d8f8760051b0101528c8c825191808352820152a36116a8565b999897959699610bdf565b634e487b7160e01b8852603283528388fd5b83346102a357610312610cc236611090565b9161120b565b505034610248578160031936011261024857602090600a549051908152f35b5090346101f65760203660031901126101f657813591610d056111a6565b610d0e836114d2565b50828452600e60205260ff8285205416610d615750818352600e6020528220805460ff1916600117905533907f716bb19bdc2c35c51f08204334d6e0362bbe5428bbda94d186a1f2c8fa87b10c8380a380f35b6020608492519162461bcd60e51b8352820152602360248201527f536d6172745469636b65743a20746f6b656e20616c72656164792072656465656044820152621b595960ea1b6064820152fd5b5090346101f657806003193601126101f657610dc961105f565b9160243590610dd7826114d2565b9033151580610e7e575b80610e55575b610e3e57506001600160a01b039384169382918591167f8c5be1e5ebec7d5bd14f71427d1e84f3dd0314c0f7b2291e5b200ac8c7c3b9258780a483526006602052822080546001600160a01b031916909117905580f35b60249084519063a9fbf51f60e01b82523390820152fd5b506001600160a01b03821686526007602090815284872033885290528386205460ff1615610de7565b506001600160a01b038216331415610de1565b50346101f65760203660031901126101f6579160209235610eb1816114d2565b508152600683528190205490516001600160a01b039091168152f35b50503461024857816003193601126102485780519082600254610eef8161116c565b808552916001918083169081156104a05750600114610f1a575050506104318261029f9403836110f7565b9450600285527f405787fa12a823e0f2b7631cc41b3ba8828b3321ca811111fa75cd3aa3bb5ace5b828610610f5f5750505061043182602061029f958201019461041f565b80546020878701810191909152909501948101610f42565b925050346101f65760203660031901126101f6573563ffffffff60e01b81168091036101f6576020925063780e9d6360e01b8114908115610fba575b5015158152f35b6380ac58cd60e01b811491508115611006575b8115610fdb575b5038610fb3565b63152a902d60e11b811491508115610ff5575b5038610fd4565b6301ffc9a760e01b14905038610fee565b635b5e139f60e01b81149150610fcd565b60005b83811061102a5750506000910152565b818101518382015260200161101a565b9060209161105381518092818552858086019101611017565b601f01601f1916010190565b600435906001600160a01b038216820361107557565b600080fd5b602435906001600160a01b038216820361107557565b6060906003190112611075576001600160a01b0390600435828116810361107557916024359081168103611075579060443590565b6020810190811067ffffffffffffffff8211176110e157604052565b634e487b7160e01b600052604160045260246000fd5b90601f8019910116810190811067ffffffffffffffff8211176110e157604052565b67ffffffffffffffff81116110e157601f01601f191660200190565b92919261114182611119565b9161114f60405193846110f7565b829481845281830111611075578281602093846000960137010152565b90600182811c9216801561119c575b602083101461118657565b634e487b7160e01b600052602260045260246000fd5b91607f169161117b565b600c546001600160a01b031633036111ba57565b60405163118cdaa760e01b8152336004820152602490fd5b6001600160a01b031680156111f257600052600560205260406000205490565b6040516322718ad960e21b815260006004820152602490fd5b6001600160a01b0382811693919084156114b9576000918383526004956020938785526040948486832054169733151580611427575b50881580156113f4575b84845260058352878420805460010190558884528a835287842080546001600160a01b0319168617905588858b7fddf252ad1be2c89b69c2b068fc378daa952ba7f163c4a11628f55a4df523b3ef8780a41561138857600a54888452600b83528088852055600160401b81101561137557886112d08260016112e99401600a5561150d565b90919082549060031b91821b91600019901b1916179055565b838903611324575b505050501690818403611305575050505050565b516364283d7b60e01b8152938401526024830152604482015260649150fd5b61132d906111d2565b6000198101939084116113625782916009918894526008815283832085845281528884842055888352522055388080806112f1565b634e487b7160e01b835260118a52602483fd5b634e487b7160e01b845260418b52602484fd5b8884146112e957611398896111d2565b8884526009835287842054908a855260088452888520918181036113d2575b508985526009845284898120558452825282878120556112e9565b81865282855289862054818752808b88205586526009855289862055386113b7565b600089815260066020526040902080546001600160a01b031916905589845260058352878420805460001901905561124b565b80611478575b156114385738611241565b878a888b61145557916024925191637e27328960e01b8352820152fd5b5163177e802f60e01b815233918101918252602082019290925281906040010390fd5b50338914801561149d575b8061142d575087835260068252338688852054161461142d565b5088835260078252868320338452825260ff8784205416611483565b604051633250574960e11b815260006004820152602490fd5b6000818152600460205260409020546001600160a01b03169081156114f5575090565b60249060405190637e27328960e01b82526004820152fd5b600a5481101561154457600a6000527fc65a7bb8d6351c1cf70c95a316cc6a92839c986682d98bc35f958f4883f9d2a80190600090565b634e487b7160e01b600052603260045260246000fd5b90939192833b61156c575b5050505050565b604051630a85bd0160e11b8082526001600160a01b0393841660048301529583166024820152604481019190915260806064820152949216926020929185906115b990608483019061103a565b039483816000978189895af1869181611664575b5061162e575050503d600014611625573d6115e781611119565b906115f560405192836110f7565b81528093823d92013e5b8251928361162057604051633250574960e11b815260048101849052602490fd5b019050fd5b606092506115ff565b919450915063ffffffff60e01b160361164c57503880808080611565565b60249060405190633250574960e11b82526004820152fd5b9091508481813d83116116a1575b61167c81836110f7565b8101031261169d57516001600160e01b03198116810361169d5790386115cd565b8680fd5b503d611672565b60001981146116b75760010190565b634e487b7160e01b600052601160045260246000fd5b6040908151916116dc836110c5565b6000808452936001600160a01b03938385169384156119f8579082917fddf252ad1be2c89b69c2b068fc378daa952ba7f163c4a11628f55a4df523b3ef93885260049688878786828c60209a8b978289528588205416968792831596600588159b8c6119c6575b878552528220805460010190558582528d528d812080546001600160a01b0319168517905580a4156119565750600a54858b52600b875280888c2055600160401b81101561194357906117a1866112d08460018d9601600a5561150d565b036118f7575b6118e0573b6117ba575b50505050505050565b826117f891859697989994955180938192630a85bd0160e11b96878452338d8501528d6024850152604484015260806064840152608483019061103a565b03818b8a5af188918161189c575b50611865575050503d60001461185c573d61182081611119565b9061182d845192836110f7565b81528095823d92013e5b8451948561185657505051633250574960e11b81529182015260249150fd5b85925001fd5b60609450611837565b919650915063ffffffff60e01b160361188757505050388080808080806117b1565b51633250574960e11b81529182015260249150fd5b9091508481813d83116118d9575b6118b481836110f7565b810103126118d557516001600160e01b0319811681036118d5579038611806565b8880fd5b503d6118aa565b84516339e3563760e11b8152808801899052602490fd5b611900826111d2565b600019810190811161193057878a5260088652868a20818b52865284878b2055848a5260098652868a20556117a7565b634e487b7160e01b8a526011895260248afd5b634e487b7160e01b8b5260418a5260248bfd5b908082146117a1578a611968826111d2565b878252600989528982205483835260088a528a808420938383036119a4575b905089915052600989528c8a8120558c5287528a888120556117a1565b838152848c52818120548382528083832055815260098c522055388a8e611987565b600089815260066020526040902080546001600160a01b03191690558685528181528285208054600019019055611743565b8351633250574960e11b815260048101889052602490fd5b67ffffffffffffffff81116110e15760051b60200190565b611a31816114d2565b50600f5490611a3f8261116c565b15611b2257611a4d90611b37565b6040518092600090611a5e8161116c565b90600190818116908115611afd5750600114611aae575b505090602082611a9085600595611aab975194859201611017565b0164173539b7b760d91b815203601a198101845201826110f7565b90565b600f6000908152919250600080516020611c0e8339815191525b838310611ae2575050508101602090810190611aab611a75565b80546020848901810191909152879550909201918101611ac8565b60ff1916602080870191909152831515909302850183019350611aab9150611a759050565b5050604051611b30816110c5565b6000815290565b8015611bde57600081805b611bca5750611b5081611119565b90611b5e60405192836110f7565b808252601f19611b6d82611119565b013660208401375b80928015611bc35760001982019182116116b7578193600a9260309084840682018092116116b757855111156115445760f81b6001600160f81b03191660001a908401601f01530491611b75565b5050905090565b90611bd6600a916116a8565b910480611b42565b506040516040810181811067ffffffffffffffff8211176110e15760405260018152600360fc1b60208201529056fe8d1108e10bcb7c27dddfc02ed9d693a074039d026cf4ea4240b40f7d581ac802a164736f6c6343000814000a","opcodes":"PUSH1 0x40 PUSH1 0x80 DUP2 MSTORE CALLVALUE PUSH3 0x552 JUMPI PUSH3 0x2288 DUP1 CODESIZE SUB DUP1 PUSH3 0x1E DUP2 PUSH3 0x557 JUMP JUMPDEST SWAP3 DUP4 CODECOPY DUP2 ADD SWAP1 PUSH1 0xC0 DUP2 DUP4 SUB SLT PUSH3 0x552 JUMPI DUP1 MLOAD PUSH1 0x1 PUSH1 0x1 PUSH1 0x40 SHL SUB SWAP2 SWAP1 DUP3 DUP2 GT PUSH3 0x552 JUMPI DUP4 PUSH3 0x51 SWAP2 DUP4 ADD PUSH3 0x57D JUMP JUMPDEST SWAP2 PUSH1 0x20 SWAP2 DUP3 DUP2 ADD MLOAD DUP3 DUP2 GT PUSH3 0x552 JUMPI DUP6 PUSH3 0x6F SWAP2 DUP4 ADD PUSH3 0x57D JUMP JUMPDEST SWAP5 DUP7 DUP3 ADD MLOAD SWAP1 DUP4 DUP3 GT PUSH3 0x552 JUMPI PUSH3 0x8A SWAP2 DUP4 ADD PUSH3 0x57D JUMP JUMPDEST SWAP4 PUSH3 0x99 PUSH1 0x60 DUP4 ADD PUSH3 0x5EF JUMP JUMPDEST SWAP5 PUSH1 0xA0 PUSH3 0xAA PUSH1 0x80 DUP6 ADD PUSH3 0x5EF JUMP JUMPDEST SWAP4 ADD MLOAD SWAP7 PUSH1 0x1 PUSH1 0x1 PUSH1 0x60 SHL SUB DUP9 AND SWAP7 DUP8 DUP10 SUB PUSH3 0x552 JUMPI DUP4 MLOAD SWAP1 DUP7 DUP3 GT PUSH3 0x25B JUMPI PUSH1 0x2 SLOAD SWAP2 PUSH1 0x1 SWAP6 DUP7 DUP5 DUP2 SHR SWAP5 AND DUP1 ISZERO PUSH3 0x547 JUMPI JUMPDEST DUP11 DUP6 LT EQ PUSH3 0x36B JUMPI DUP2 SWAP1 PUSH1 0x1F SWAP5 DUP6 DUP2 GT PUSH3 0x4F0 JUMPI JUMPDEST POP DUP11 SWAP1 DUP6 DUP4 GT PUSH1 0x1 EQ PUSH3 0x484 JUMPI PUSH1 0x0 SWAP3 PUSH3 0x478 JUMPI JUMPDEST POP POP PUSH1 0x0 NOT PUSH1 0x3 DUP4 SWAP1 SHL SHR NOT AND SWAP1 DUP7 SHL OR PUSH1 0x2 SSTORE JUMPDEST DUP3 MLOAD DUP8 DUP2 GT PUSH3 0x25B JUMPI PUSH1 0x3 SWAP4 DUP5 SLOAD SWAP1 DUP8 DUP3 DUP2 SHR SWAP3 AND DUP1 ISZERO PUSH3 0x46D JUMPI JUMPDEST DUP12 DUP4 LT EQ PUSH3 0x36B JUMPI DUP2 DUP6 DUP5 SWAP4 GT PUSH3 0x417 JUMPI JUMPDEST POP DUP11 SWAP1 DUP6 DUP4 GT PUSH1 0x1 EQ PUSH3 0x3B0 JUMPI PUSH1 0x0 SWAP3 PUSH3 0x3A4 JUMPI JUMPDEST POP POP PUSH1 0x0 NOT DUP3 DUP7 SHL SHR NOT AND SWAP1 DUP7 SHL OR DUP4 SSTORE JUMPDEST CALLER ISZERO PUSH3 0x38C JUMPI PUSH3 0x1A0 SWAP1 PUSH3 0x196 CALLER PUSH3 0x604 JUMP JUMPDEST DUP6 PUSH1 0xD SSTORE PUSH3 0x604 JUMP JUMPDEST DUP3 MLOAD SWAP3 DUP7 DUP5 GT PUSH3 0x25B JUMPI PUSH1 0xF SLOAD DUP6 DUP2 DUP2 SHR SWAP2 AND DUP1 ISZERO PUSH3 0x381 JUMPI JUMPDEST DUP10 DUP3 LT EQ PUSH3 0x36B JUMPI DUP3 DUP2 GT PUSH3 0x31F JUMPI JUMPDEST POP DUP8 SWAP2 DUP5 GT PUSH1 0x1 EQ PUSH3 0x2B2 JUMPI SWAP4 DUP4 SWAP5 SWAP2 DUP5 SWAP3 PUSH1 0x0 SWAP6 PUSH3 0x2A6 JUMPI JUMPDEST POP POP SHL SWAP3 PUSH1 0x0 NOT SWAP2 SHL SHR NOT AND OR PUSH1 0xF SSTORE JUMPDEST PUSH1 0x1 PUSH1 0x1 PUSH1 0xA0 SHL SUB AND PUSH1 0x1 PUSH1 0x1 PUSH1 0xA0 SHL SUB NOT PUSH1 0xA0 SWAP6 SWAP1 SWAP6 SHL SWAP5 SWAP1 SWAP5 AND DUP5 OR PUSH1 0x10 DUP2 SWAP1 SSTORE SWAP4 PUSH2 0x2710 DUP1 DUP6 GT PUSH3 0x289 JUMPI POP DUP1 ISZERO PUSH3 0x271 JUMPI DUP6 MLOAD SWAP2 DUP3 DUP8 ADD SWAP1 DUP2 GT DUP4 DUP3 LT OR PUSH3 0x25B JUMPI DUP7 MSTORE DUP2 MSTORE ADD MSTORE PUSH1 0x0 SSTORE MLOAD PUSH2 0x1C3A SWAP1 DUP2 PUSH3 0x64E DUP3 CODECOPY RETURN JUMPDEST PUSH4 0x4E487B71 PUSH1 0xE0 SHL PUSH1 0x0 MSTORE PUSH1 0x41 PUSH1 0x4 MSTORE PUSH1 0x24 PUSH1 0x0 REVERT JUMPDEST DUP6 MLOAD PUSH4 0x5B6CC805 PUSH1 0xE1 SHL DUP2 MSTORE PUSH1 0x0 PUSH1 0x4 DUP3 ADD MSTORE PUSH1 0x24 SWAP1 REVERT JUMPDEST DUP5 PUSH1 0x44 SWAP2 DUP9 MLOAD SWAP2 PUSH4 0x6F483D09 PUSH1 0xE0 SHL DUP4 MSTORE PUSH1 0x4 DUP4 ADD MSTORE PUSH1 0x24 DUP3 ADD MSTORE REVERT JUMPDEST ADD MLOAD SWAP4 POP CODESIZE DUP1 PUSH3 0x1EA JUMP JUMPDEST SWAP2 SWAP1 PUSH1 0x1F NOT DUP5 AND SWAP3 PUSH1 0xF PUSH1 0x0 MSTORE DUP5 DUP10 PUSH1 0x0 KECCAK256 SWAP5 PUSH1 0x0 JUMPDEST DUP12 DUP10 DUP4 DUP4 LT PUSH3 0x307 JUMPI POP POP POP LT PUSH3 0x2EC JUMPI JUMPDEST POP POP POP POP DUP2 SHL ADD PUSH1 0xF SSTORE PUSH3 0x1FB JUMP JUMPDEST ADD MLOAD SWAP1 PUSH1 0xF8 DUP5 PUSH1 0x0 NOT SWAP3 SHL AND SHR NOT AND SWAP1 SSTORE CODESIZE DUP1 DUP1 DUP1 PUSH3 0x2DC JUMP JUMPDEST DUP7 DUP7 ADD MLOAD DUP10 SSTORE SWAP1 SWAP8 ADD SWAP7 SWAP5 DUP6 ADD SWAP5 DUP9 SWAP4 POP ADD PUSH3 0x2C8 JUMP JUMPDEST PUSH1 0xF PUSH1 0x0 MSTORE DUP9 PUSH1 0x0 KECCAK256 DUP4 DUP1 DUP8 ADD PUSH1 0x5 SHR DUP3 ADD SWAP3 DUP12 DUP9 LT PUSH3 0x361 JUMPI JUMPDEST ADD PUSH1 0x5 SHR ADD SWAP1 DUP7 SWAP1 JUMPDEST DUP3 DUP2 LT PUSH3 0x354 JUMPI POP POP PUSH3 0x1CE JUMP JUMPDEST PUSH1 0x0 DUP2 SSTORE ADD DUP7 SWAP1 PUSH3 0x344 JUMP JUMPDEST SWAP3 POP DUP2 SWAP3 PUSH3 0x33B JUMP JUMPDEST PUSH4 0x4E487B71 PUSH1 0xE0 SHL PUSH1 0x0 MSTORE PUSH1 0x22 PUSH1 0x4 MSTORE PUSH1 0x24 PUSH1 0x0 REVERT JUMPDEST SWAP1 PUSH1 0x7F AND SWAP1 PUSH3 0x1BC JUMP JUMPDEST DUP11 MLOAD PUSH4 0x1E4FBDF7 PUSH1 0xE0 SHL DUP2 MSTORE PUSH1 0x0 PUSH1 0x4 DUP3 ADD MSTORE PUSH1 0x24 SWAP1 REVERT JUMPDEST ADD MLOAD SWAP1 POP CODESIZE DUP1 PUSH3 0x16D JUMP JUMPDEST PUSH1 0x0 DUP8 DUP2 MSTORE DUP13 DUP2 KECCAK256 DUP11 SWAP6 POP SWAP3 SWAP2 SWAP1 PUSH1 0x1F NOT DUP6 AND SWAP1 DUP15 JUMPDEST DUP3 DUP3 LT PUSH3 0x3FF JUMPI POP POP DUP5 GT PUSH3 0x3E6 JUMPI JUMPDEST POP POP POP DUP2 SHL ADD DUP4 SSTORE PUSH3 0x17F JUMP JUMPDEST ADD MLOAD PUSH1 0x0 NOT DUP4 DUP9 SHL PUSH1 0xF8 AND SHR NOT AND SWAP1 SSTORE CODESIZE DUP1 DUP1 PUSH3 0x3D8 JUMP JUMPDEST DUP4 DUP6 ADD MLOAD DUP7 SSTORE DUP13 SWAP8 SWAP1 SWAP6 ADD SWAP5 SWAP4 DUP5 ADD SWAP4 ADD DUP15 PUSH3 0x3C6 JUMP JUMPDEST SWAP1 SWAP2 POP DUP6 PUSH1 0x0 MSTORE DUP11 PUSH1 0x0 KECCAK256 DUP6 DUP1 DUP6 ADD PUSH1 0x5 SHR DUP3 ADD SWAP3 DUP14 DUP7 LT PUSH3 0x463 JUMPI JUMPDEST SWAP2 DUP11 SWAP2 DUP7 SWAP6 SWAP5 SWAP4 ADD PUSH1 0x5 SHR ADD SWAP2 JUMPDEST DUP3 DUP2 LT PUSH3 0x453 JUMPI POP POP PUSH3 0x156 JUMP JUMPDEST PUSH1 0x0 DUP2 SSTORE DUP6 SWAP5 POP DUP11 SWAP2 ADD PUSH3 0x443 JUMP JUMPDEST SWAP3 POP DUP2 SWAP3 PUSH3 0x435 JUMP JUMPDEST SWAP2 PUSH1 0x7F AND SWAP2 PUSH3 0x142 JUMP JUMPDEST ADD MLOAD SWAP1 POP CODESIZE DUP1 PUSH3 0x10F JUMP JUMPDEST SWAP1 DUP9 SWAP4 POP PUSH1 0x1F NOT DUP4 AND SWAP2 PUSH1 0x2 PUSH1 0x0 MSTORE DUP13 PUSH1 0x0 KECCAK256 SWAP3 DUP14 PUSH1 0x0 SWAP1 JUMPDEST DUP3 DUP3 LT PUSH3 0x4D8 JUMPI POP POP DUP5 GT PUSH3 0x4BE JUMPI JUMPDEST POP POP POP DUP2 SHL ADD PUSH1 0x2 SSTORE PUSH3 0x124 JUMP JUMPDEST ADD MLOAD PUSH1 0x0 NOT PUSH1 0xF8 DUP5 PUSH1 0x3 SHL AND SHR NOT AND SWAP1 SSTORE CODESIZE DUP1 DUP1 PUSH3 0x4AF JUMP JUMPDEST DUP4 DUP6 ADD MLOAD DUP7 SSTORE DUP13 SWAP8 SWAP1 SWAP6 ADD SWAP5 SWAP4 DUP5 ADD SWAP4 ADD DUP15 PUSH3 0x49D JUMP JUMPDEST SWAP1 SWAP2 POP PUSH1 0x2 PUSH1 0x0 MSTORE DUP11 PUSH1 0x0 KECCAK256 DUP6 DUP1 DUP6 ADD PUSH1 0x5 SHR DUP3 ADD SWAP3 DUP14 DUP7 LT PUSH3 0x53D JUMPI JUMPDEST SWAP2 DUP11 SWAP2 DUP7 SWAP6 SWAP5 SWAP4 ADD PUSH1 0x5 SHR ADD SWAP2 JUMPDEST DUP3 DUP2 LT PUSH3 0x52D JUMPI POP POP PUSH3 0xF8 JUMP JUMPDEST PUSH1 0x0 DUP2 SSTORE DUP6 SWAP5 POP DUP11 SWAP2 ADD PUSH3 0x51D JUMP JUMPDEST SWAP3 POP DUP2 SWAP3 PUSH3 0x50F JUMP JUMPDEST SWAP4 PUSH1 0x7F AND SWAP4 PUSH3 0xE1 JUMP JUMPDEST PUSH1 0x0 DUP1 REVERT JUMPDEST PUSH1 0x40 MLOAD SWAP2 SWAP1 PUSH1 0x1F ADD PUSH1 0x1F NOT AND DUP3 ADD PUSH1 0x1 PUSH1 0x1 PUSH1 0x40 SHL SUB DUP2 GT DUP4 DUP3 LT OR PUSH3 0x25B JUMPI PUSH1 0x40 MSTORE JUMP JUMPDEST SWAP2 SWAP1 DUP1 PUSH1 0x1F DUP5 ADD SLT ISZERO PUSH3 0x552 JUMPI DUP3 MLOAD PUSH1 0x1 PUSH1 0x1 PUSH1 0x40 SHL SUB DUP2 GT PUSH3 0x25B JUMPI PUSH1 0x20 SWAP1 PUSH3 0x5B3 PUSH1 0x1F DUP3 ADD PUSH1 0x1F NOT AND DUP4 ADD PUSH3 0x557 JUMP JUMPDEST SWAP3 DUP2 DUP5 MSTORE DUP3 DUP3 DUP8 ADD ADD GT PUSH3 0x552 JUMPI PUSH1 0x0 JUMPDEST DUP2 DUP2 LT PUSH3 0x5DB JUMPI POP DUP3 PUSH1 0x0 SWAP4 SWAP5 SWAP6 POP ADD ADD MSTORE SWAP1 JUMP JUMPDEST DUP6 DUP2 ADD DUP4 ADD MLOAD DUP5 DUP3 ADD DUP5 ADD MSTORE DUP3 ADD PUSH3 0x5C5 JUMP JUMPDEST MLOAD SWAP1 PUSH1 0x1 PUSH1 0x1 PUSH1 0xA0 SHL SUB DUP3 AND DUP3 SUB PUSH3 0x552 JUMPI JUMP JUMPDEST PUSH1 0xC DUP1 SLOAD PUSH1 0x1 PUSH1 0x1 PUSH1 0xA0 SHL SUB SWAP3 DUP4 AND PUSH1 0x1 PUSH1 0x1 PUSH1 0xA0 SHL SUB NOT DUP3 AND DUP2 OR SWAP1 SWAP3 SSTORE SWAP1 SWAP2 AND PUSH32 0x8BE0079C531659141344CD1FD0A4F28419497F9722A3DAAFE3B4186F6B6457E0 PUSH1 0x0 DUP1 LOG3 JUMP INVALID PUSH1 0x80 PUSH1 0x40 DUP2 DUP2 MSTORE PUSH1 0x4 DUP1 CALLDATASIZE LT ISZERO PUSH2 0x15 JUMPI PUSH1 0x0 DUP1 REVERT JUMPDEST PUSH1 0x0 SWAP3 DUP4 CALLDATALOAD PUSH1 0xE0 SHR SWAP1 DUP2 PUSH4 0x1FFC9A7 EQ PUSH2 0xF77 JUMPI POP DUP1 PUSH4 0x6FDDE03 EQ PUSH2 0xECD JUMPI DUP1 PUSH4 0x81812FC EQ PUSH2 0xE91 JUMPI DUP1 PUSH4 0x95EA7B3 EQ PUSH2 0xDAF JUMPI DUP1 PUSH4 0x15F59D7F EQ PUSH2 0xCE7 JUMPI DUP1 PUSH4 0x18160DDD EQ PUSH2 0xCC8 JUMPI DUP1 PUSH4 0x23B872DD EQ PUSH2 0xCB0 JUMPI DUP1 PUSH4 0x248B71FC EQ PUSH2 0xB76 JUMPI DUP1 PUSH4 0x2A55205A EQ PUSH2 0xAD6 JUMPI DUP1 PUSH4 0x2F745C59 EQ PUSH2 0xA52 JUMPI DUP1 PUSH4 0x32D33CD0 EQ PUSH2 0xA26 JUMPI DUP1 PUSH4 0x42842E0E EQ PUSH2 0x9F7 JUMPI DUP1 PUSH4 0x4F6CCCE7 EQ PUSH2 0x9A3 JUMPI DUP1 PUSH4 0x55F804B3 EQ PUSH2 0x826 JUMPI DUP1 PUSH4 0x6352211E EQ PUSH2 0x7F5 JUMPI DUP1 PUSH4 0x6A627842 EQ PUSH2 0x774 JUMPI DUP1 PUSH4 0x6C0360EB EQ PUSH2 0x6DC JUMPI DUP1 PUSH4 0x70A08231 EQ PUSH2 0x6AF JUMPI DUP1 PUSH4 0x715018A6 EQ PUSH2 0x652 JUMPI DUP1 PUSH4 0x8A71BB2D EQ PUSH2 0x630 JUMPI DUP1 PUSH4 0x8DA5CB5B EQ PUSH2 0x607 JUMPI DUP1 PUSH4 0x8F2FC60B EQ PUSH2 0x4C8 JUMPI DUP1 PUSH4 0x95D89B41 EQ PUSH2 0x3E3 JUMPI DUP1 PUSH4 0x9FBC8713 EQ PUSH2 0x3BA JUMPI DUP1 PUSH4 0xA22CB465 EQ PUSH2 0x319 JUMPI DUP1 PUSH4 0xB88D4FDE EQ PUSH2 0x2A6 JUMPI DUP1 PUSH4 0xC87B56DD EQ PUSH2 0x26B JUMPI DUP1 PUSH4 0xCAA0F92A EQ PUSH2 0x24C JUMPI DUP1 PUSH4 0xE985E9C5 EQ PUSH2 0x1FA JUMPI PUSH4 0xF2FDE38B EQ PUSH2 0x16D JUMPI PUSH1 0x0 DUP1 REVERT JUMPDEST CALLVALUE PUSH2 0x1F6 JUMPI PUSH1 0x20 CALLDATASIZE PUSH1 0x3 NOT ADD SLT PUSH2 0x1F6 JUMPI PUSH2 0x186 PUSH2 0x105F JUMP JUMPDEST SWAP1 PUSH2 0x18F PUSH2 0x11A6 JUMP JUMPDEST PUSH1 0x1 PUSH1 0x1 PUSH1 0xA0 SHL SUB SWAP2 DUP3 AND SWAP3 DUP4 ISZERO PUSH2 0x1E0 JUMPI POP POP PUSH1 0xC SLOAD DUP3 PUSH1 0x1 PUSH1 0x1 PUSH1 0x60 SHL SUB PUSH1 0xA0 SHL DUP3 AND OR PUSH1 0xC SSTORE AND PUSH32 0x8BE0079C531659141344CD1FD0A4F28419497F9722A3DAAFE3B4186F6B6457E0 DUP4 DUP1 LOG3 DUP1 RETURN JUMPDEST MLOAD PUSH4 0x1E4FBDF7 PUSH1 0xE0 SHL DUP2 MSTORE SWAP1 DUP2 ADD DUP5 SWAP1 MSTORE PUSH1 0x24 SWAP1 REVERT JUMPDEST DUP3 DUP1 REVERT JUMPDEST POP POP CALLVALUE PUSH2 0x248 JUMPI DUP1 PUSH1 0x3 NOT CALLDATASIZE ADD SLT PUSH2 0x248 JUMPI PUSH1 0xFF DUP2 PUSH1 0x20 SWAP4 PUSH2 0x21A PUSH2 0x105F JUMP JUMPDEST PUSH2 0x222 PUSH2 0x107A JUMP JUMPDEST PUSH1 0x1 PUSH1 0x1 PUSH1 0xA0 SHL SUB SWAP2 DUP3 AND DUP4 MSTORE PUSH1 0x7 DUP8 MSTORE DUP4 DUP4 KECCAK256 SWAP2 AND DUP3 MSTORE DUP6 MSTORE KECCAK256 SLOAD SWAP2 MLOAD SWAP2 AND ISZERO ISZERO DUP2 MSTORE RETURN JUMPDEST POP DUP1 REVERT JUMPDEST POP POP CALLVALUE PUSH2 0x248 JUMPI DUP2 PUSH1 0x3 NOT CALLDATASIZE ADD SLT PUSH2 0x248 JUMPI PUSH1 0x20 SWAP1 PUSH1 0xD SLOAD SWAP1 MLOAD SWAP1 DUP2 MSTORE RETURN JUMPDEST POP SWAP2 CALLVALUE PUSH2 0x2A3 JUMPI PUSH1 0x20 CALLDATASIZE PUSH1 0x3 NOT ADD SLT PUSH2 0x2A3 JUMPI POP PUSH2 0x28C PUSH2 0x29F SWAP3 CALLDATALOAD PUSH2 0x1A28 JUMP JUMPDEST SWAP1 MLOAD SWAP2 DUP3 SWAP2 PUSH1 0x20 DUP4 MSTORE PUSH1 0x20 DUP4 ADD SWAP1 PUSH2 0x103A JUMP JUMPDEST SUB SWAP1 RETURN JUMPDEST DUP1 REVERT JUMPDEST DUP4 DUP3 CALLVALUE PUSH2 0x248 JUMPI PUSH1 0x80 CALLDATASIZE PUSH1 0x3 NOT ADD SLT PUSH2 0x248 JUMPI PUSH2 0x2C1 PUSH2 0x105F JUMP JUMPDEST PUSH2 0x2C9 PUSH2 0x107A JUMP JUMPDEST PUSH1 0x44 CALLDATALOAD SWAP1 PUSH1 0x64 CALLDATALOAD PUSH8 0xFFFFFFFFFFFFFFFF DUP2 GT PUSH2 0x315 JUMPI CALLDATASIZE PUSH1 0x23 DUP3 ADD SLT ISZERO PUSH2 0x315 JUMPI PUSH2 0x312 SWAP5 DUP2 PUSH1 0x24 PUSH2 0x300 SWAP4 CALLDATASIZE SWAP4 ADD CALLDATALOAD SWAP2 ADD PUSH2 0x1135 JUMP JUMPDEST SWAP3 PUSH2 0x30C DUP4 DUP4 DUP4 PUSH2 0x120B JUMP JUMPDEST CALLER PUSH2 0x155A JUMP JUMPDEST DUP1 RETURN JUMPDEST DUP6 DUP1 REVERT JUMPDEST POP SWAP1 CALLVALUE PUSH2 0x1F6 JUMPI DUP1 PUSH1 0x3 NOT CALLDATASIZE ADD SLT PUSH2 0x1F6 JUMPI PUSH2 0x333 PUSH2 0x105F JUMP JUMPDEST SWAP1 PUSH1 0x24 CALLDATALOAD SWAP2 DUP3 ISZERO ISZERO DUP1 SWAP4 SUB PUSH2 0x3B6 JUMPI PUSH1 0x1 PUSH1 0x1 PUSH1 0xA0 SHL SUB AND SWAP3 DUP4 ISZERO PUSH2 0x3A1 JUMPI POP CALLER DUP5 MSTORE PUSH1 0x7 PUSH1 0x20 MSTORE DUP1 DUP5 KECCAK256 DUP4 DUP6 MSTORE PUSH1 0x20 MSTORE DUP1 DUP5 KECCAK256 PUSH1 0xFF NOT DUP2 SLOAD AND PUSH1 0xFF DUP5 AND OR SWAP1 SSTORE MLOAD SWAP1 DUP2 MSTORE PUSH32 0x17307EAB39AB6107E8899845AD3D59BD9653F200F220920489CA2B5937696C31 PUSH1 0x20 CALLER SWAP3 LOG3 DUP1 RETURN JUMPDEST DUP4 PUSH1 0x24 SWAP3 MLOAD SWAP2 PUSH4 0xB611743 PUSH1 0xE3 SHL DUP4 MSTORE DUP3 ADD MSTORE REVERT JUMPDEST DUP5 DUP1 REVERT JUMPDEST POP POP CALLVALUE PUSH2 0x248 JUMPI DUP2 PUSH1 0x3 NOT CALLDATASIZE ADD SLT PUSH2 0x248 JUMPI PUSH1 0x10 SLOAD SWAP1 MLOAD PUSH1 0x1 PUSH1 0x1 PUSH1 0xA0 SHL SUB SWAP1 SWAP2 AND DUP2 MSTORE PUSH1 0x20 SWAP1 RETURN JUMPDEST POP POP CALLVALUE PUSH2 0x248 JUMPI DUP2 PUSH1 0x3 NOT CALLDATASIZE ADD SLT PUSH2 0x248 JUMPI DUP1 MLOAD SWAP1 DUP3 PUSH1 0x3 SLOAD PUSH2 0x405 DUP2 PUSH2 0x116C JUMP JUMPDEST DUP1 DUP6 MSTORE SWAP2 PUSH1 0x1 SWAP2 DUP1 DUP4 AND SWAP1 DUP2 ISZERO PUSH2 0x4A0 JUMPI POP PUSH1 0x1 EQ PUSH2 0x443 JUMPI JUMPDEST POP POP POP PUSH2 0x431 DUP3 PUSH2 0x29F SWAP5 SUB DUP4 PUSH2 0x10F7 JUMP JUMPDEST MLOAD SWAP2 DUP3 SWAP2 PUSH1 0x20 DUP4 MSTORE PUSH1 0x20 DUP4 ADD SWAP1 PUSH2 0x103A JUMP JUMPDEST SWAP5 POP PUSH1 0x3 DUP6 MSTORE PUSH32 0xC2575A0E9E593C00F959F8C92F12DB2869C3395A3B0502D05E2516446F71F85B JUMPDEST DUP3 DUP7 LT PUSH2 0x488 JUMPI POP POP POP PUSH2 0x431 DUP3 PUSH1 0x20 PUSH2 0x29F SWAP6 DUP3 ADD ADD SWAP5 PUSH2 0x41F JUMP JUMPDEST DUP1 SLOAD PUSH1 0x20 DUP8 DUP8 ADD DUP2 ADD SWAP2 SWAP1 SWAP2 MSTORE SWAP1 SWAP6 ADD SWAP5 DUP2 ADD PUSH2 0x46B JUMP JUMPDEST PUSH2 0x29F SWAP8 POP DUP7 SWAP4 POP PUSH1 0x20 SWAP3 POP PUSH2 0x431 SWAP5 SWAP2 POP PUSH1 0xFF NOT AND DUP3 DUP5 ADD MSTORE ISZERO ISZERO PUSH1 0x5 SHL DUP3 ADD ADD SWAP5 PUSH2 0x41F JUMP JUMPDEST POP SWAP1 CALLVALUE PUSH2 0x1F6 JUMPI DUP1 PUSH1 0x3 NOT CALLDATASIZE ADD SLT PUSH2 0x1F6 JUMPI PUSH2 0x4E2 PUSH2 0x105F JUMP JUMPDEST SWAP1 PUSH1 0x24 CALLDATALOAD SWAP3 PUSH1 0x1 PUSH1 0x1 PUSH1 0x60 SHL SUB DUP5 AND SWAP3 DUP4 DUP6 SUB PUSH2 0x315 JUMPI PUSH2 0x501 PUSH2 0x11A6 JUMP JUMPDEST PUSH1 0x1 PUSH1 0x1 PUSH1 0xA0 SHL SUB AND SWAP4 DUP5 ISZERO PUSH2 0x5D1 JUMPI PUSH2 0x2710 DUP5 GT PUSH2 0x598 JUMPI PUSH1 0xA0 SHL PUSH1 0x1 PUSH1 0x1 PUSH1 0xA0 SHL SUB NOT AND DUP5 OR PUSH1 0x10 DUP2 SWAP1 SSTORE DUP3 MLOAD SWAP1 SWAP2 DUP2 DUP5 ADD SWAP1 PUSH8 0xFFFFFFFFFFFFFFFF DUP3 GT DUP4 DUP4 LT OR PUSH2 0x585 JUMPI POP SWAP2 DUP5 PUSH1 0x20 DUP6 SWAP4 PUSH32 0x8039BD6E4E7DBA001C8840EB2E118D9D131246FAA7D0D04335F7305127EC0B10 SWAP8 SWAP6 DUP3 SWAP8 MSTORE DUP9 DUP2 MSTORE ADD MSTORE DUP7 SSTORE MLOAD SWAP1 DUP2 MSTORE LOG2 DUP1 RETURN JUMPDEST PUSH4 0x4E487B71 PUSH1 0xE0 SHL DUP9 MSTORE PUSH1 0x41 SWAP1 MSTORE PUSH1 0x24 DUP8 REVERT JUMPDEST POP PUSH1 0x20 PUSH1 0x64 SWAP3 MLOAD SWAP2 PUSH3 0x461BCD PUSH1 0xE5 SHL DUP4 MSTORE DUP3 ADD MSTORE PUSH1 0x13 PUSH1 0x24 DUP3 ADD MSTORE PUSH19 0xA0CAE4C6CADCE8C2CECA40E8DEDE40D0D2CED PUSH1 0x6B SHL PUSH1 0x44 DUP3 ADD MSTORE REVERT JUMPDEST POP PUSH1 0x20 PUSH1 0x64 SWAP3 MLOAD SWAP2 PUSH3 0x461BCD PUSH1 0xE5 SHL DUP4 MSTORE DUP3 ADD MSTORE PUSH1 0x10 PUSH1 0x24 DUP3 ADD MSTORE PUSH16 0x24B73B30B634B2103932B1B2B4BB32B9 PUSH1 0x81 SHL PUSH1 0x44 DUP3 ADD MSTORE REVERT JUMPDEST POP POP CALLVALUE PUSH2 0x248 JUMPI DUP2 PUSH1 0x3 NOT CALLDATASIZE ADD SLT PUSH2 0x248 JUMPI PUSH1 0xC SLOAD SWAP1 MLOAD PUSH1 0x1 PUSH1 0x1 PUSH1 0xA0 SHL SUB SWAP1 SWAP2 AND DUP2 MSTORE PUSH1 0x20 SWAP1 RETURN JUMPDEST POP POP CALLVALUE PUSH2 0x248 JUMPI DUP2 PUSH1 0x3 NOT CALLDATASIZE ADD SLT PUSH2 0x248 JUMPI PUSH1 0x20 SWAP1 PUSH1 0x10 SLOAD PUSH1 0xA0 SHR SWAP1 MLOAD SWAP1 DUP2 MSTORE RETURN JUMPDEST DUP4 CALLVALUE PUSH2 0x2A3 JUMPI DUP1 PUSH1 0x3 NOT CALLDATASIZE ADD SLT PUSH2 0x2A3 JUMPI PUSH2 0x66B PUSH2 0x11A6 JUMP JUMPDEST PUSH1 0xC DUP1 SLOAD PUSH1 0x1 PUSH1 0x1 PUSH1 0xA0 SHL SUB NOT DUP2 AND SWAP1 SWAP2 SSTORE DUP2 SWAP1 PUSH1 0x1 PUSH1 0x1 PUSH1 0xA0 SHL SUB AND PUSH32 0x8BE0079C531659141344CD1FD0A4F28419497F9722A3DAAFE3B4186F6B6457E0 DUP3 DUP1 LOG3 DUP1 RETURN JUMPDEST POP POP CALLVALUE PUSH2 0x248 JUMPI PUSH1 0x20 CALLDATASIZE PUSH1 0x3 NOT ADD SLT PUSH2 0x248 JUMPI PUSH1 0x20 SWAP1 PUSH2 0x6D5 PUSH2 0x6D0 PUSH2 0x105F JUMP JUMPDEST PUSH2 0x11D2 JUMP JUMPDEST SWAP1 MLOAD SWAP1 DUP2 MSTORE RETURN JUMPDEST POP POP CALLVALUE PUSH2 0x248 JUMPI DUP2 PUSH1 0x3 NOT CALLDATASIZE ADD SLT PUSH2 0x248 JUMPI DUP1 MLOAD SWAP1 DUP3 PUSH1 0xF SLOAD PUSH2 0x6FE DUP2 PUSH2 0x116C JUMP JUMPDEST DUP1 DUP6 MSTORE SWAP2 PUSH1 0x1 SWAP2 DUP1 DUP4 AND SWAP1 DUP2 ISZERO PUSH2 0x4A0 JUMPI POP PUSH1 0x1 EQ PUSH2 0x729 JUMPI POP POP POP PUSH2 0x431 DUP3 PUSH2 0x29F SWAP5 SUB DUP4 PUSH2 0x10F7 JUMP JUMPDEST SWAP5 POP PUSH1 0xF DUP6 MSTORE PUSH1 0x0 DUP1 MLOAD PUSH1 0x20 PUSH2 0x1C0E DUP4 CODECOPY DUP2 MLOAD SWAP2 MSTORE JUMPDEST DUP3 DUP7 LT PUSH2 0x75C JUMPI POP POP POP PUSH2 0x431 DUP3 PUSH1 0x20 PUSH2 0x29F SWAP6 DUP3 ADD ADD SWAP5 PUSH2 0x41F JUMP JUMPDEST DUP1 SLOAD PUSH1 0x20 DUP8 DUP8 ADD DUP2 ADD SWAP2 SWAP1 SWAP2 MSTORE SWAP1 SWAP6 ADD SWAP5 DUP2 ADD PUSH2 0x73F JUMP JUMPDEST POP POP CALLVALUE PUSH2 0x248 JUMPI PUSH1 0x20 CALLDATASIZE PUSH1 0x3 NOT ADD SLT PUSH2 0x248 JUMPI DUP1 PUSH1 0x20 SWAP3 PUSH2 0x793 PUSH2 0x105F JUMP JUMPDEST PUSH2 0x79B PUSH2 0x11A6 JUMP JUMPDEST PUSH32 0x1FE50C1EA65EC45D727411CCE4E6AC546A4CC83120DC5D887B7949347BFE728 PUSH1 0xD SLOAD SWAP5 DUP6 SWAP3 PUSH2 0x7CB DUP5 PUSH2 0x16A8 JUMP JUMPDEST PUSH1 0xD SSTORE PUSH2 0x7D8 DUP5 DUP3 PUSH2 0x16CD JUMP JUMPDEST DUP2 MLOAD DUP9 DUP2 MSTORE DUP9 DUP2 ADD SWAP6 SWAP1 SWAP6 MSTORE PUSH1 0x1 PUSH1 0x1 PUSH1 0xA0 SHL SUB AND SWAP4 LOG3 MLOAD SWAP1 DUP2 MSTORE RETURN JUMPDEST POP SWAP2 CALLVALUE PUSH2 0x2A3 JUMPI PUSH1 0x20 CALLDATASIZE PUSH1 0x3 NOT ADD SLT PUSH2 0x2A3 JUMPI POP PUSH2 0x815 PUSH1 0x20 SWAP3 CALLDATALOAD PUSH2 0x14D2 JUMP JUMPDEST SWAP1 MLOAD PUSH1 0x1 PUSH1 0x1 PUSH1 0xA0 SHL SUB SWAP1 SWAP2 AND DUP2 MSTORE RETURN JUMPDEST POP DUP3 CALLVALUE PUSH2 0x2A3 JUMPI PUSH1 0x20 DUP1 PUSH1 0x3 NOT CALLDATASIZE ADD SLT PUSH2 0x248 JUMPI PUSH8 0xFFFFFFFFFFFFFFFF SWAP1 DUP4 CALLDATALOAD DUP3 DUP2 GT PUSH2 0x99F JUMPI CALLDATASIZE PUSH1 0x23 DUP3 ADD SLT ISZERO PUSH2 0x99F JUMPI PUSH2 0x86B SWAP1 CALLDATASIZE SWAP1 PUSH1 0x24 DUP2 DUP9 ADD CALLDATALOAD SWAP2 ADD PUSH2 0x1135 JUMP JUMPDEST SWAP4 PUSH2 0x874 PUSH2 0x11A6 JUMP JUMPDEST DUP5 MLOAD SWAP3 DUP4 GT PUSH2 0x98C JUMPI POP PUSH2 0x889 PUSH1 0xF SLOAD PUSH2 0x116C JUMP JUMPDEST PUSH1 0x1F DUP2 GT PUSH2 0x93C JUMPI JUMPDEST POP DUP1 PUSH1 0x1F DUP4 GT PUSH1 0x1 EQ PUSH2 0x8CD JUMPI POP DUP3 SWAP4 DUP3 SWAP4 SWAP3 PUSH2 0x8C2 JUMPI JUMPDEST POP POP DUP2 PUSH1 0x1 SHL SWAP2 PUSH1 0x0 NOT SWAP1 PUSH1 0x3 SHL SHR NOT AND OR PUSH1 0xF SSTORE DUP1 RETURN JUMPDEST ADD MLOAD SWAP1 POP DUP4 DUP1 PUSH2 0x8AA JUMP JUMPDEST PUSH1 0xF DUP5 MSTORE PUSH1 0x1F NOT DUP4 AND SWAP5 PUSH1 0x0 DUP1 MLOAD PUSH1 0x20 PUSH2 0x1C0E DUP4 CODECOPY DUP2 MLOAD SWAP2 MSTORE SWAP3 SWAP2 DUP6 SWAP1 JUMPDEST DUP8 DUP3 LT PUSH2 0x924 JUMPI POP POP DUP4 PUSH1 0x1 SWAP6 SWAP7 LT PUSH2 0x90B JUMPI JUMPDEST POP POP POP DUP2 SHL ADD PUSH1 0xF SSTORE DUP1 RETURN JUMPDEST ADD MLOAD PUSH1 0x0 NOT PUSH1 0xF8 DUP5 PUSH1 0x3 SHL AND SHR NOT AND SWAP1 SSTORE DUP4 DUP1 DUP1 PUSH2 0x8FF JUMP JUMPDEST DUP1 PUSH1 0x1 DUP6 SWAP7 DUP3 SWAP5 SWAP7 DUP7 ADD MLOAD DUP2 SSTORE ADD SWAP6 ADD SWAP4 ADD SWAP1 PUSH2 0x8EB JUMP JUMPDEST PUSH1 0xF DUP5 MSTORE PUSH1 0x0 DUP1 MLOAD PUSH1 0x20 PUSH2 0x1C0E DUP4 CODECOPY DUP2 MLOAD SWAP2 MSTORE PUSH1 0x1F DUP5 ADD PUSH1 0x5 SHR DUP2 ADD SWAP2 DUP4 DUP6 LT PUSH2 0x982 JUMPI JUMPDEST PUSH1 0x1F ADD PUSH1 0x5 SHR ADD SWAP1 JUMPDEST DUP2 DUP2 LT PUSH2 0x977 JUMPI POP PUSH2 0x892 JUMP JUMPDEST DUP5 DUP2 SSTORE PUSH1 0x1 ADD PUSH2 0x96A JUMP JUMPDEST SWAP1 SWAP2 POP DUP2 SWAP1 PUSH2 0x961 JUMP JUMPDEST PUSH4 0x4E487B71 PUSH1 0xE0 SHL DUP5 MSTORE PUSH1 0x41 SWAP1 MSTORE PUSH1 0x24 DUP4 REVERT JUMPDEST DUP4 DUP1 REVERT JUMPDEST POP CALLVALUE PUSH2 0x1F6 JUMPI PUSH1 0x20 CALLDATASIZE PUSH1 0x3 NOT ADD SLT PUSH2 0x1F6 JUMPI DUP1 CALLDATALOAD SWAP3 PUSH1 0xA SLOAD DUP5 LT ISZERO PUSH2 0x9DC JUMPI PUSH1 0x20 DUP4 PUSH2 0x9CE DUP7 PUSH2 0x150D JUMP JUMPDEST SWAP2 SWAP1 SLOAD SWAP1 MLOAD SWAP2 PUSH1 0x3 SHL SHR DUP2 MSTORE RETURN JUMPDEST PUSH1 0x44 SWAP4 SWAP2 SWAP3 MLOAD SWAP3 PUSH4 0x295F44F7 PUSH1 0xE2 SHL DUP5 MSTORE DUP4 ADD MSTORE PUSH1 0x24 DUP3 ADD MSTORE REVERT JUMPDEST POP POP CALLVALUE PUSH2 0x248 JUMPI PUSH2 0x312 SWAP1 PUSH2 0xA0B CALLDATASIZE PUSH2 0x1090 JUMP JUMPDEST SWAP2 SWAP3 MLOAD SWAP3 PUSH2 0xA18 DUP5 PUSH2 0x10C5 JUMP JUMPDEST DUP6 DUP5 MSTORE PUSH2 0x30C DUP4 DUP4 DUP4 PUSH2 0x120B JUMP JUMPDEST POP CALLVALUE PUSH2 0x1F6 JUMPI PUSH1 0x20 CALLDATASIZE PUSH1 0x3 NOT ADD SLT PUSH2 0x1F6 JUMPI DUP2 PUSH1 0x20 SWAP4 PUSH1 0xFF SWAP3 CALLDATALOAD DUP2 MSTORE PUSH1 0xE DUP6 MSTORE KECCAK256 SLOAD AND SWAP1 MLOAD SWAP1 ISZERO ISZERO DUP2 MSTORE RETURN JUMPDEST POP SWAP2 CALLVALUE PUSH2 0x2A3 JUMPI DUP2 PUSH1 0x3 NOT CALLDATASIZE ADD SLT PUSH2 0x2A3 JUMPI PUSH2 0xA6C PUSH2 0x105F JUMP JUMPDEST SWAP3 PUSH1 0x24 CALLDATALOAD SWAP1 PUSH2 0xA7A DUP6 PUSH2 0x11D2 JUMP JUMPDEST DUP3 LT ISZERO PUSH2 0xAAA JUMPI POP PUSH1 0x1 PUSH1 0x1 PUSH1 0xA0 SHL SUB SWAP1 SWAP4 AND DUP2 MSTORE PUSH1 0x8 PUSH1 0x20 SWAP1 DUP2 MSTORE DUP3 DUP3 KECCAK256 SWAP4 DUP3 MSTORE SWAP3 DUP4 MSTORE DUP2 SWAP1 KECCAK256 SLOAD SWAP1 MLOAD SWAP1 DUP2 MSTORE RETURN JUMPDEST SWAP3 MLOAD PUSH4 0x295F44F7 PUSH1 0xE2 SHL DUP2 MSTORE PUSH1 0x1 PUSH1 0x1 PUSH1 0xA0 SHL SUB SWAP1 SWAP5 AND SWAP3 DUP5 ADD SWAP3 DUP4 MSTORE PUSH1 0x20 DUP4 ADD MSTORE POP DUP2 SWAP1 PUSH1 0x40 ADD SUB SWAP1 REVERT JUMPDEST POP SWAP2 CALLVALUE PUSH2 0x2A3 JUMPI DUP2 PUSH1 0x3 NOT CALLDATASIZE ADD SLT PUSH2 0x2A3 JUMPI DUP3 CALLDATALOAD DUP2 MSTORE PUSH1 0x1 PUSH1 0x20 MSTORE DUP2 DUP2 KECCAK256 SLOAD PUSH1 0x24 CALLDATALOAD SWAP3 PUSH1 0x1 PUSH1 0x1 PUSH1 0xA0 SHL SUB DUP1 DUP4 AND SWAP4 SWAP2 SWAP3 PUSH1 0xA0 SHR SWAP1 DUP5 ISZERO PUSH2 0xB5D JUMPI JUMPDEST POP PUSH1 0x1 PUSH1 0x1 PUSH1 0x60 SHL SUB AND SWAP4 DUP5 DUP2 MUL SWAP5 DUP2 DUP7 DIV EQ SWAP1 ISZERO OR ISZERO PUSH2 0xB4A JUMPI DUP2 MLOAD PUSH1 0x1 PUSH1 0x1 PUSH1 0xA0 SHL SUB DUP5 AND DUP2 MSTORE PUSH2 0x2710 DUP6 DIV PUSH1 0x20 DUP3 ADD MSTORE PUSH1 0x40 SWAP1 RETURN JUMPDEST PUSH4 0x4E487B71 PUSH1 0xE0 SHL DUP2 MSTORE PUSH1 0x11 DUP6 MSTORE PUSH1 0x24 SWAP1 REVERT JUMPDEST DUP3 SLOAD SWAP1 DUP2 AND SWAP5 POP PUSH1 0xA0 SHR SWAP1 POP PUSH1 0x1 PUSH1 0x1 PUSH1 0x60 SHL SUB PUSH2 0xB12 JUMP JUMPDEST POP DUP3 SWAP1 CALLVALUE PUSH2 0x248 JUMPI DUP3 PUSH1 0x3 NOT CALLDATASIZE ADD SLT PUSH2 0x248 JUMPI SWAP2 SWAP1 PUSH2 0xB93 PUSH2 0x105F JUMP JUMPDEST SWAP1 PUSH1 0x24 SWAP4 DUP5 CALLDATALOAD PUSH2 0xBA1 PUSH2 0x11A6 JUMP JUMPDEST PUSH2 0xBAA DUP2 PUSH2 0x1A10 JUMP JUMPDEST SWAP2 PUSH2 0xBB7 DUP7 MLOAD SWAP4 DUP5 PUSH2 0x10F7 JUMP JUMPDEST DUP2 DUP4 MSTORE PUSH2 0xBC3 DUP3 PUSH2 0x1A10 JUMP JUMPDEST PUSH1 0x20 SWAP8 DUP5 DUP10 ADD SWAP7 SWAP2 PUSH1 0x1F NOT ADD CALLDATASIZE DUP9 CALLDATACOPY PUSH1 0x1 PUSH1 0x1 PUSH1 0xA0 SHL SUB DUP3 AND SWAP3 DUP7 JUMPDEST DUP6 DUP2 LT PUSH2 0xC27 JUMPI POP POP POP POP POP POP DUP4 MLOAD SWAP5 DUP6 SWAP5 DUP2 DUP7 ADD SWAP3 DUP3 DUP8 MSTORE MLOAD DUP1 SWAP4 MSTORE DUP6 ADD SWAP4 SWAP3 JUMPDEST DUP3 DUP2 LT PUSH2 0xC10 JUMPI POP POP POP POP SUB SWAP1 RETURN JUMPDEST DUP4 MLOAD DUP6 MSTORE DUP7 SWAP6 POP SWAP4 DUP2 ADD SWAP4 SWAP3 DUP2 ADD SWAP3 PUSH1 0x1 ADD PUSH2 0xC01 JUMP JUMPDEST PUSH1 0xD SWAP11 SWAP8 SWAP7 SWAP9 SWAP10 SWAP11 DUP1 SLOAD SWAP1 PUSH2 0xC3B DUP3 PUSH2 0x16A8 JUMP JUMPDEST SWAP1 SSTORE PUSH2 0xC47 DUP2 DUP7 PUSH2 0x16CD JUMP JUMPDEST DUP10 MLOAD DUP3 LT ISZERO PUSH2 0xC9E JUMPI SWAP1 DUP6 DUP3 PUSH32 0x1FE50C1EA65EC45D727411CCE4E6AC546A4CC83120DC5D887B7949347BFE728 DUP15 PUSH2 0xC93 SWAP6 DUP14 DUP16 DUP8 PUSH1 0x5 SHL ADD ADD MSTORE DUP13 DUP13 DUP3 MLOAD SWAP2 DUP1 DUP4 MSTORE DUP3 ADD MSTORE LOG3 PUSH2 0x16A8 JUMP JUMPDEST SWAP10 SWAP9 SWAP8 SWAP6 SWAP7 SWAP10 PUSH2 0xBDF JUMP JUMPDEST PUSH4 0x4E487B71 PUSH1 0xE0 SHL DUP9 MSTORE PUSH1 0x32 DUP4 MSTORE DUP4 DUP9 REVERT JUMPDEST DUP4 CALLVALUE PUSH2 0x2A3 JUMPI PUSH2 0x312 PUSH2 0xCC2 CALLDATASIZE PUSH2 0x1090 JUMP JUMPDEST SWAP2 PUSH2 0x120B JUMP JUMPDEST POP POP CALLVALUE PUSH2 0x248 JUMPI DUP2 PUSH1 0x3 NOT CALLDATASIZE ADD SLT PUSH2 0x248 JUMPI PUSH1 0x20 SWAP1 PUSH1 0xA SLOAD SWAP1 MLOAD SWAP1 DUP2 MSTORE RETURN JUMPDEST POP SWAP1 CALLVALUE PUSH2 0x1F6 JUMPI PUSH1 0x20 CALLDATASIZE PUSH1 0x3 NOT ADD SLT PUSH2 0x1F6 JUMPI DUP2 CALLDATALOAD SWAP2 PUSH2 0xD05 PUSH2 0x11A6 JUMP JUMPDEST PUSH2 0xD0E DUP4 PUSH2 0x14D2 JUMP JUMPDEST POP DUP3 DUP5 MSTORE PUSH1 0xE PUSH1 0x20 MSTORE PUSH1 0xFF DUP3 DUP6 KECCAK256 SLOAD AND PUSH2 0xD61 JUMPI POP DUP2 DUP4 MSTORE PUSH1 0xE PUSH1 0x20 MSTORE DUP3 KECCAK256 DUP1 SLOAD PUSH1 0xFF NOT AND PUSH1 0x1 OR SWAP1 SSTORE CALLER SWAP1 PUSH32 0x716BB19BDC2C35C51F08204334D6E0362BBE5428BBDA94D186A1F2C8FA87B10C DUP4 DUP1 LOG3 DUP1 RETURN JUMPDEST PUSH1 0x20 PUSH1 0x84 SWAP3 MLOAD SWAP2 PUSH3 0x461BCD PUSH1 0xE5 SHL DUP4 MSTORE DUP3 ADD MSTORE PUSH1 0x23 PUSH1 0x24 DUP3 ADD MSTORE PUSH32 0x536D6172745469636B65743A20746F6B656E20616C7265616479207265646565 PUSH1 0x44 DUP3 ADD MSTORE PUSH3 0x1B5959 PUSH1 0xEA SHL PUSH1 0x64 DUP3 ADD MSTORE REVERT JUMPDEST POP SWAP1 CALLVALUE PUSH2 0x1F6 JUMPI DUP1 PUSH1 0x3 NOT CALLDATASIZE ADD SLT PUSH2 0x1F6 JUMPI PUSH2 0xDC9 PUSH2 0x105F JUMP JUMPDEST SWAP2 PUSH1 0x24 CALLDATALOAD SWAP1 PUSH2 0xDD7 DUP3 PUSH2 0x14D2 JUMP JUMPDEST SWAP1 CALLER ISZERO ISZERO DUP1 PUSH2 0xE7E JUMPI JUMPDEST DUP1 PUSH2 0xE55 JUMPI JUMPDEST PUSH2 0xE3E JUMPI POP PUSH1 0x1 PUSH1 0x1 PUSH1 0xA0 SHL SUB SWAP4 DUP5 AND SWAP4 DUP3 SWAP2 DUP6 SWAP2 AND PUSH32 0x8C5BE1E5EBEC7D5BD14F71427D1E84F3DD0314C0F7B2291E5B200AC8C7C3B925 DUP8 DUP1 LOG4 DUP4 MSTORE PUSH1 0x6 PUSH1 0x20 MSTORE DUP3 KECCAK256 DUP1 SLOAD PUSH1 0x1 PUSH1 0x1 PUSH1 0xA0 SHL SUB NOT AND SWAP1 SWAP2 OR SWAP1 SSTORE DUP1 RETURN JUMPDEST PUSH1 0x24 SWAP1 DUP5 MLOAD SWAP1 PUSH4 0xA9FBF51F PUSH1 0xE0 SHL DUP3 MSTORE CALLER SWAP1 DUP3 ADD MSTORE REVERT JUMPDEST POP PUSH1 0x1 PUSH1 0x1 PUSH1 0xA0 SHL SUB DUP3 AND DUP7 MSTORE PUSH1 0x7 PUSH1 0x20 SWAP1 DUP2 MSTORE DUP5 DUP8 KECCAK256 CALLER DUP9 MSTORE SWAP1 MSTORE DUP4 DUP7 KECCAK256 SLOAD PUSH1 0xFF AND ISZERO PUSH2 0xDE7 JUMP JUMPDEST POP PUSH1 0x1 PUSH1 0x1 PUSH1 0xA0 SHL SUB DUP3 AND CALLER EQ ISZERO PUSH2 0xDE1 JUMP JUMPDEST POP CALLVALUE PUSH2 0x1F6 JUMPI PUSH1 0x20 CALLDATASIZE PUSH1 0x3 NOT ADD SLT PUSH2 0x1F6 JUMPI SWAP2 PUSH1 0x20 SWAP3 CALLDATALOAD PUSH2 0xEB1 DUP2 PUSH2 0x14D2 JUMP JUMPDEST POP DUP2 MSTORE PUSH1 0x6 DUP4 MSTORE DUP2 SWAP1 KECCAK256 SLOAD SWAP1 MLOAD PUSH1 0x1 PUSH1 0x1 PUSH1 0xA0 SHL SUB SWAP1 SWAP2 AND DUP2 MSTORE RETURN JUMPDEST POP POP CALLVALUE PUSH2 0x248 JUMPI DUP2 PUSH1 0x3 NOT CALLDATASIZE ADD SLT PUSH2 0x248 JUMPI DUP1 MLOAD SWAP1 DUP3 PUSH1 0x2 SLOAD PUSH2 0xEEF DUP2 PUSH2 0x116C JUMP JUMPDEST DUP1 DUP6 MSTORE SWAP2 PUSH1 0x1 SWAP2 DUP1 DUP4 AND SWAP1 DUP2 ISZERO PUSH2 0x4A0 JUMPI POP PUSH1 0x1 EQ PUSH2 0xF1A JUMPI POP POP POP PUSH2 0x431 DUP3 PUSH2 0x29F SWAP5 SUB DUP4 PUSH2 0x10F7 JUMP JUMPDEST SWAP5 POP PUSH1 0x2 DUP6 MSTORE PUSH32 0x405787FA12A823E0F2B7631CC41B3BA8828B3321CA811111FA75CD3AA3BB5ACE JUMPDEST DUP3 DUP7 LT PUSH2 0xF5F JUMPI POP POP POP PUSH2 0x431 DUP3 PUSH1 0x20 PUSH2 0x29F SWAP6 DUP3 ADD ADD SWAP5 PUSH2 0x41F JUMP JUMPDEST DUP1 SLOAD PUSH1 0x20 DUP8 DUP8 ADD DUP2 ADD SWAP2 SWAP1 SWAP2 MSTORE SWAP1 SWAP6 ADD SWAP5 DUP2 ADD PUSH2 0xF42 JUMP JUMPDEST SWAP3 POP POP CALLVALUE PUSH2 0x1F6 JUMPI PUSH1 0x20 CALLDATASIZE PUSH1 0x3 NOT ADD SLT PUSH2 0x1F6 JUMPI CALLDATALOAD PUSH4 0xFFFFFFFF PUSH1 0xE0 SHL DUP2 AND DUP1 SWAP2 SUB PUSH2 0x1F6 JUMPI PUSH1 0x20 SWAP3 POP PUSH4 0x780E9D63 PUSH1 0xE0 SHL DUP2 EQ SWAP1 DUP2 ISZERO PUSH2 0xFBA JUMPI JUMPDEST POP ISZERO ISZERO DUP2 MSTORE RETURN JUMPDEST PUSH4 0x80AC58CD PUSH1 0xE0 SHL DUP2 EQ SWAP2 POP DUP2 ISZERO PUSH2 0x1006 JUMPI JUMPDEST DUP2 ISZERO PUSH2 0xFDB JUMPI JUMPDEST POP CODESIZE PUSH2 0xFB3 JUMP JUMPDEST PUSH4 0x152A902D PUSH1 0xE1 SHL DUP2 EQ SWAP2 POP DUP2 ISZERO PUSH2 0xFF5 JUMPI JUMPDEST POP CODESIZE PUSH2 0xFD4 JUMP JUMPDEST PUSH4 0x1FFC9A7 PUSH1 0xE0 SHL EQ SWAP1 POP CODESIZE PUSH2 0xFEE JUMP JUMPDEST PUSH4 0x5B5E139F PUSH1 0xE0 SHL DUP2 EQ SWAP2 POP PUSH2 0xFCD JUMP JUMPDEST PUSH1 0x0 JUMPDEST DUP4 DUP2 LT PUSH2 0x102A JUMPI POP POP PUSH1 0x0 SWAP2 ADD MSTORE JUMP JUMPDEST DUP2 DUP2 ADD MLOAD DUP4 DUP3 ADD MSTORE PUSH1 0x20 ADD PUSH2 0x101A JUMP JUMPDEST SWAP1 PUSH1 0x20 SWAP2 PUSH2 0x1053 DUP2 MLOAD DUP1 SWAP3 DUP2 DUP6 MSTORE DUP6 DUP1 DUP7 ADD SWAP2 ADD PUSH2 0x1017 JUMP JUMPDEST PUSH1 0x1F ADD PUSH1 0x1F NOT AND ADD ADD SWAP1 JUMP JUMPDEST PUSH1 0x4 CALLDATALOAD SWAP1 PUSH1 0x1 PUSH1 0x1 PUSH1 0xA0 SHL SUB DUP3 AND DUP3 SUB PUSH2 0x1075 JUMPI JUMP JUMPDEST PUSH1 0x0 DUP1 REVERT JUMPDEST PUSH1 0x24 CALLDATALOAD SWAP1 PUSH1 0x1 PUSH1 0x1 PUSH1 0xA0 SHL SUB DUP3 AND DUP3 SUB PUSH2 0x1075 JUMPI JUMP JUMPDEST PUSH1 0x60 SWAP1 PUSH1 0x3 NOT ADD SLT PUSH2 0x1075 JUMPI PUSH1 0x1 PUSH1 0x1 PUSH1 0xA0 SHL SUB SWAP1 PUSH1 0x4 CALLDATALOAD DUP3 DUP2 AND DUP2 SUB PUSH2 0x1075 JUMPI SWAP2 PUSH1 0x24 CALLDATALOAD SWAP1 DUP2 AND DUP2 SUB PUSH2 0x1075 JUMPI SWAP1 PUSH1 0x44 CALLDATALOAD SWAP1 JUMP JUMPDEST PUSH1 0x20 DUP2 ADD SWAP1 DUP2 LT PUSH8 0xFFFFFFFFFFFFFFFF DUP3 GT OR PUSH2 0x10E1 JUMPI PUSH1 0x40 MSTORE JUMP JUMPDEST PUSH4 0x4E487B71 PUSH1 0xE0 SHL PUSH1 0x0 MSTORE PUSH1 0x41 PUSH1 0x4 MSTORE PUSH1 0x24 PUSH1 0x0 REVERT JUMPDEST SWAP1 PUSH1 0x1F DUP1 NOT SWAP2 ADD AND DUP2 ADD SWAP1 DUP2 LT PUSH8 0xFFFFFFFFFFFFFFFF DUP3 GT OR PUSH2 0x10E1 JUMPI PUSH1 0x40 MSTORE JUMP JUMPDEST PUSH8 0xFFFFFFFFFFFFFFFF DUP2 GT PUSH2 0x10E1 JUMPI PUSH1 0x1F ADD PUSH1 0x1F NOT AND PUSH1 0x20 ADD SWAP1 JUMP JUMPDEST SWAP3 SWAP2 SWAP3 PUSH2 0x1141 DUP3 PUSH2 0x1119 JUMP JUMPDEST SWAP2 PUSH2 0x114F PUSH1 0x40 MLOAD SWAP4 DUP5 PUSH2 0x10F7 JUMP JUMPDEST DUP3 SWAP5 DUP2 DUP5 MSTORE DUP2 DUP4 ADD GT PUSH2 0x1075 JUMPI DUP3 DUP2 PUSH1 0x20 SWAP4 DUP5 PUSH1 0x0 SWAP7 ADD CALLDATACOPY ADD ADD MSTORE JUMP JUMPDEST SWAP1 PUSH1 0x1 DUP3 DUP2 SHR SWAP3 AND DUP1 ISZERO PUSH2 0x119C JUMPI JUMPDEST PUSH1 0x20 DUP4 LT EQ PUSH2 0x1186 JUMPI JUMP JUMPDEST PUSH4 0x4E487B71 PUSH1 0xE0 SHL PUSH1 0x0 MSTORE PUSH1 0x22 PUSH1 0x4 MSTORE PUSH1 0x24 PUSH1 0x0 REVERT JUMPDEST SWAP2 PUSH1 0x7F AND SWAP2 PUSH2 0x117B JUMP JUMPDEST PUSH1 0xC SLOAD PUSH1 0x1 PUSH1 0x1 PUSH1 0xA0 SHL SUB AND CALLER SUB PUSH2 0x11BA JUMPI JUMP JUMPDEST PUSH1 0x40 MLOAD PUSH4 0x118CDAA7 PUSH1 0xE0 SHL DUP2 MSTORE CALLER PUSH1 0x4 DUP3 ADD MSTORE PUSH1 0x24 SWAP1 REVERT JUMPDEST PUSH1 0x1 PUSH1 0x1 PUSH1 0xA0 SHL SUB AND DUP1 ISZERO PUSH2 0x11F2 JUMPI PUSH1 0x0 MSTORE PUSH1 0x5 PUSH1 0x20 MSTORE PUSH1 0x40 PUSH1 0x0 KECCAK256 SLOAD SWAP1 JUMP JUMPDEST PUSH1 0x40 MLOAD PUSH4 0x22718AD9 PUSH1 0xE2 SHL DUP2 MSTORE PUSH1 0x0 PUSH1 0x4 DUP3 ADD MSTORE PUSH1 0x24 SWAP1 REVERT JUMPDEST PUSH1 0x1 PUSH1 0x1 PUSH1 0xA0 SHL SUB DUP3 DUP2 AND SWAP4 SWAP2 SWAP1 DUP5 ISZERO PUSH2 0x14B9 JUMPI PUSH1 0x0 SWAP2 DUP4 DUP4 MSTORE PUSH1 0x4 SWAP6 PUSH1 0x20 SWAP4 DUP8 DUP6 MSTORE PUSH1 0x40 SWAP5 DUP5 DUP7 DUP4 KECCAK256 SLOAD AND SWAP8 CALLER ISZERO ISZERO DUP1 PUSH2 0x1427 JUMPI JUMPDEST POP DUP9 ISZERO DUP1 ISZERO PUSH2 0x13F4 JUMPI JUMPDEST DUP5 DUP5 MSTORE PUSH1 0x5 DUP4 MSTORE DUP8 DUP5 KECCAK256 DUP1 SLOAD PUSH1 0x1 ADD SWAP1 SSTORE DUP9 DUP5 MSTORE DUP11 DUP4 MSTORE DUP8 DUP5 KECCAK256 DUP1 SLOAD PUSH1 0x1 PUSH1 0x1 PUSH1 0xA0 SHL SUB NOT AND DUP7 OR SWAP1 SSTORE DUP9 DUP6 DUP12 PUSH32 0xDDF252AD1BE2C89B69C2B068FC378DAA952BA7F163C4A11628F55A4DF523B3EF DUP8 DUP1 LOG4 ISZERO PUSH2 0x1388 JUMPI PUSH1 0xA SLOAD DUP9 DUP5 MSTORE PUSH1 0xB DUP4 MSTORE DUP1 DUP9 DUP6 KECCAK256 SSTORE PUSH1 0x1 PUSH1 0x40 SHL DUP2 LT ISZERO PUSH2 0x1375 JUMPI DUP9 PUSH2 0x12D0 DUP3 PUSH1 0x1 PUSH2 0x12E9 SWAP5 ADD PUSH1 0xA SSTORE PUSH2 0x150D JUMP JUMPDEST SWAP1 SWAP2 SWAP1 DUP3 SLOAD SWAP1 PUSH1 0x3 SHL SWAP2 DUP3 SHL SWAP2 PUSH1 0x0 NOT SWAP1 SHL NOT AND OR SWAP1 SSTORE JUMP JUMPDEST DUP4 DUP10 SUB PUSH2 0x1324 JUMPI JUMPDEST POP POP POP POP AND SWAP1 DUP2 DUP5 SUB PUSH2 0x1305 JUMPI POP POP POP POP POP JUMP JUMPDEST MLOAD PUSH4 0x64283D7B PUSH1 0xE0 SHL DUP2 MSTORE SWAP4 DUP5 ADD MSTORE PUSH1 0x24 DUP4 ADD MSTORE PUSH1 0x44 DUP3 ADD MSTORE PUSH1 0x64 SWAP2 POP REVERT JUMPDEST PUSH2 0x132D SWAP1 PUSH2 0x11D2 JUMP JUMPDEST PUSH1 0x0 NOT DUP2 ADD SWAP4 SWAP1 DUP5 GT PUSH2 0x1362 JUMPI DUP3 SWAP2 PUSH1 0x9 SWAP2 DUP9 SWAP5 MSTORE PUSH1 0x8 DUP2 MSTORE DUP4 DUP4 KECCAK256 DUP6 DUP5 MSTORE DUP2 MSTORE DUP9 DUP5 DUP5 KECCAK256 SSTORE DUP9 DUP4 MSTORE MSTORE KECCAK256 SSTORE CODESIZE DUP1 DUP1 DUP1 PUSH2 0x12F1 JUMP JUMPDEST PUSH4 0x4E487B71 PUSH1 0xE0 SHL DUP4 MSTORE PUSH1 0x11 DUP11 MSTORE PUSH1 0x24 DUP4 REVERT JUMPDEST PUSH4 0x4E487B71 PUSH1 0xE0 SHL DUP5 MSTORE PUSH1 0x41 DUP12 MSTORE PUSH1 0x24 DUP5 REVERT JUMPDEST DUP9 DUP5 EQ PUSH2 0x12E9 JUMPI PUSH2 0x1398 DUP10 PUSH2 0x11D2 JUMP JUMPDEST DUP9 DUP5 MSTORE PUSH1 0x9 DUP4 MSTORE DUP8 DUP5 KECCAK256 SLOAD SWAP1 DUP11 DUP6 MSTORE PUSH1 0x8 DUP5 MSTORE DUP9 DUP6 KECCAK256 SWAP2 DUP2 DUP2 SUB PUSH2 0x13D2 JUMPI JUMPDEST POP DUP10 DUP6 MSTORE PUSH1 0x9 DUP5 MSTORE DUP5 DUP10 DUP2 KECCAK256 SSTORE DUP5 MSTORE DUP3 MSTORE DUP3 DUP8 DUP2 KECCAK256 SSTORE PUSH2 0x12E9 JUMP JUMPDEST DUP2 DUP7 MSTORE DUP3 DUP6 MSTORE DUP10 DUP7 KECCAK256 SLOAD DUP2 DUP8 MSTORE DUP1 DUP12 DUP9 KECCAK256 SSTORE DUP7 MSTORE PUSH1 0x9 DUP6 MSTORE DUP10 DUP7 KECCAK256 SSTORE CODESIZE PUSH2 0x13B7 JUMP JUMPDEST PUSH1 0x0 DUP10 DUP2 MSTORE PUSH1 0x6 PUSH1 0x20 MSTORE PUSH1 0x40 SWAP1 KECCAK256 DUP1 SLOAD PUSH1 0x1 PUSH1 0x1 PUSH1 0xA0 SHL SUB NOT AND SWAP1 SSTORE DUP10 DUP5 MSTORE PUSH1 0x5 DUP4 MSTORE DUP8 DUP5 KECCAK256 DUP1 SLOAD PUSH1 0x0 NOT ADD SWAP1 SSTORE PUSH2 0x124B JUMP JUMPDEST DUP1 PUSH2 0x1478 JUMPI JUMPDEST ISZERO PUSH2 0x1438 JUMPI CODESIZE PUSH2 0x1241 JUMP JUMPDEST DUP8 DUP11 DUP9 DUP12 PUSH2 0x1455 JUMPI SWAP2 PUSH1 0x24 SWAP3 MLOAD SWAP2 PUSH4 0x7E273289 PUSH1 0xE0 SHL DUP4 MSTORE DUP3 ADD MSTORE REVERT JUMPDEST MLOAD PUSH4 0x177E802F PUSH1 0xE0 SHL DUP2 MSTORE CALLER SWAP2 DUP2 ADD SWAP2 DUP3 MSTORE PUSH1 0x20 DUP3 ADD SWAP3 SWAP1 SWAP3 MSTORE DUP2 SWAP1 PUSH1 0x40 ADD SUB SWAP1 REVERT JUMPDEST POP CALLER DUP10 EQ DUP1 ISZERO PUSH2 0x149D JUMPI JUMPDEST DUP1 PUSH2 0x142D JUMPI POP DUP8 DUP4 MSTORE PUSH1 0x6 DUP3 MSTORE CALLER DUP7 DUP9 DUP6 KECCAK256 SLOAD AND EQ PUSH2 0x142D JUMP JUMPDEST POP DUP9 DUP4 MSTORE PUSH1 0x7 DUP3 MSTORE DUP7 DUP4 KECCAK256 CALLER DUP5 MSTORE DUP3 MSTORE PUSH1 0xFF DUP8 DUP5 KECCAK256 SLOAD AND PUSH2 0x1483 JUMP JUMPDEST PUSH1 0x40 MLOAD PUSH4 0x32505749 PUSH1 0xE1 SHL DUP2 MSTORE PUSH1 0x0 PUSH1 0x4 DUP3 ADD MSTORE PUSH1 0x24 SWAP1 REVERT JUMPDEST PUSH1 0x0 DUP2 DUP2 MSTORE PUSH1 0x4 PUSH1 0x20 MSTORE PUSH1 0x40 SWAP1 KECCAK256 SLOAD PUSH1 0x1 PUSH1 0x1 PUSH1 0xA0 SHL SUB AND SWAP1 DUP2 ISZERO PUSH2 0x14F5 JUMPI POP SWAP1 JUMP JUMPDEST PUSH1 0x24 SWAP1 PUSH1 0x40 MLOAD SWAP1 PUSH4 0x7E273289 PUSH1 0xE0 SHL DUP3 MSTORE PUSH1 0x4 DUP3 ADD MSTORE REVERT JUMPDEST PUSH1 0xA SLOAD DUP2 LT ISZERO PUSH2 0x1544 JUMPI PUSH1 0xA PUSH1 0x0 MSTORE PUSH32 0xC65A7BB8D6351C1CF70C95A316CC6A92839C986682D98BC35F958F4883F9D2A8 ADD SWAP1 PUSH1 0x0 SWAP1 JUMP JUMPDEST PUSH4 0x4E487B71 PUSH1 0xE0 SHL PUSH1 0x0 MSTORE PUSH1 0x32 PUSH1 0x4 MSTORE PUSH1 0x24 PUSH1 0x0 REVERT JUMPDEST SWAP1 SWAP4 SWAP2 SWAP3 DUP4 EXTCODESIZE PUSH2 0x156C JUMPI JUMPDEST POP POP POP POP POP JUMP JUMPDEST PUSH1 0x40 MLOAD PUSH4 0xA85BD01 PUSH1 0xE1 SHL DUP1 DUP3 MSTORE PUSH1 0x1 PUSH1 0x1 PUSH1 0xA0 SHL SUB SWAP4 DUP5 AND PUSH1 0x4 DUP4 ADD MSTORE SWAP6 DUP4 AND PUSH1 0x24 DUP3 ADD MSTORE PUSH1 0x44 DUP2 ADD SWAP2 SWAP1 SWAP2 MSTORE PUSH1 0x80 PUSH1 0x64 DUP3 ADD MSTORE SWAP5 SWAP3 AND SWAP3 PUSH1 0x20 SWAP3 SWAP2 DUP6 SWAP1 PUSH2 0x15B9 SWAP1 PUSH1 0x84 DUP4 ADD SWAP1 PUSH2 0x103A JUMP JUMPDEST SUB SWAP5 DUP4 DUP2 PUSH1 0x0 SWAP8 DUP2 DUP10 DUP10 GAS CALL DUP7 SWAP2 DUP2 PUSH2 0x1664 JUMPI JUMPDEST POP PUSH2 0x162E JUMPI POP POP POP RETURNDATASIZE PUSH1 0x0 EQ PUSH2 0x1625 JUMPI RETURNDATASIZE PUSH2 0x15E7 DUP2 PUSH2 0x1119 JUMP JUMPDEST SWAP1 PUSH2 0x15F5 PUSH1 0x40 MLOAD SWAP3 DUP4 PUSH2 0x10F7 JUMP JUMPDEST DUP2 MSTORE DUP1 SWAP4 DUP3 RETURNDATASIZE SWAP3 ADD RETURNDATACOPY JUMPDEST DUP3 MLOAD SWAP3 DUP4 PUSH2 0x1620 JUMPI PUSH1 0x40 MLOAD PUSH4 0x32505749 PUSH1 0xE1 SHL DUP2 MSTORE PUSH1 0x4 DUP2 ADD DUP5 SWAP1 MSTORE PUSH1 0x24 SWAP1 REVERT JUMPDEST ADD SWAP1 POP REVERT JUMPDEST PUSH1 0x60 SWAP3 POP PUSH2 0x15FF JUMP JUMPDEST SWAP2 SWAP5 POP SWAP2 POP PUSH4 0xFFFFFFFF PUSH1 0xE0 SHL AND SUB PUSH2 0x164C JUMPI POP CODESIZE DUP1 DUP1 DUP1 DUP1 PUSH2 0x1565 JUMP JUMPDEST PUSH1 0x24 SWAP1 PUSH1 0x40 MLOAD SWAP1 PUSH4 0x32505749 PUSH1 0xE1 SHL DUP3 MSTORE PUSH1 0x4 DUP3 ADD MSTORE REVERT JUMPDEST SWAP1 SWAP2 POP DUP5 DUP2 DUP2 RETURNDATASIZE DUP4 GT PUSH2 0x16A1 JUMPI JUMPDEST PUSH2 0x167C DUP2 DUP4 PUSH2 0x10F7 JUMP JUMPDEST DUP2 ADD SUB SLT PUSH2 0x169D JUMPI MLOAD PUSH1 0x1 PUSH1 0x1 PUSH1 0xE0 SHL SUB NOT DUP2 AND DUP2 SUB PUSH2 0x169D JUMPI SWAP1 CODESIZE PUSH2 0x15CD JUMP JUMPDEST DUP7 DUP1 REVERT JUMPDEST POP RETURNDATASIZE PUSH2 0x1672 JUMP JUMPDEST PUSH1 0x0 NOT DUP2 EQ PUSH2 0x16B7 JUMPI PUSH1 0x1 ADD SWAP1 JUMP JUMPDEST PUSH4 0x4E487B71 PUSH1 0xE0 SHL PUSH1 0x0 MSTORE PUSH1 0x11 PUSH1 0x4 MSTORE PUSH1 0x24 PUSH1 0x0 REVERT JUMPDEST PUSH1 0x40 SWAP1 DUP2 MLOAD SWAP2 PUSH2 0x16DC DUP4 PUSH2 0x10C5 JUMP JUMPDEST PUSH1 0x0 DUP1 DUP5 MSTORE SWAP4 PUSH1 0x1 PUSH1 0x1 PUSH1 0xA0 SHL SUB SWAP4 DUP4 DUP6 AND SWAP4 DUP5 ISZERO PUSH2 0x19F8 JUMPI SWAP1 DUP3 SWAP2 PUSH32 0xDDF252AD1BE2C89B69C2B068FC378DAA952BA7F163C4A11628F55A4DF523B3EF SWAP4 DUP9 MSTORE PUSH1 0x4 SWAP7 DUP9 DUP8 DUP8 DUP7 DUP3 DUP13 PUSH1 0x20 SWAP11 DUP12 SWAP8 DUP3 DUP10 MSTORE DUP6 DUP9 KECCAK256 SLOAD AND SWAP7 DUP8 SWAP3 DUP4 ISZERO SWAP7 PUSH1 0x5 DUP9 ISZERO SWAP12 DUP13 PUSH2 0x19C6 JUMPI JUMPDEST DUP8 DUP6 MSTORE MSTORE DUP3 KECCAK256 DUP1 SLOAD PUSH1 0x1 ADD SWAP1 SSTORE DUP6 DUP3 MSTORE DUP14 MSTORE DUP14 DUP2 KECCAK256 DUP1 SLOAD PUSH1 0x1 PUSH1 0x1 PUSH1 0xA0 SHL SUB NOT AND DUP6 OR SWAP1 SSTORE DUP1 LOG4 ISZERO PUSH2 0x1956 JUMPI POP PUSH1 0xA SLOAD DUP6 DUP12 MSTORE PUSH1 0xB DUP8 MSTORE DUP1 DUP9 DUP13 KECCAK256 SSTORE PUSH1 0x1 PUSH1 0x40 SHL DUP2 LT ISZERO PUSH2 0x1943 JUMPI SWAP1 PUSH2 0x17A1 DUP7 PUSH2 0x12D0 DUP5 PUSH1 0x1 DUP14 SWAP7 ADD PUSH1 0xA SSTORE PUSH2 0x150D JUMP JUMPDEST SUB PUSH2 0x18F7 JUMPI JUMPDEST PUSH2 0x18E0 JUMPI EXTCODESIZE PUSH2 0x17BA JUMPI JUMPDEST POP POP POP POP POP POP POP JUMP JUMPDEST DUP3 PUSH2 0x17F8 SWAP2 DUP6 SWAP7 SWAP8 SWAP9 SWAP10 SWAP5 SWAP6 MLOAD DUP1 SWAP4 DUP2 SWAP3 PUSH4 0xA85BD01 PUSH1 0xE1 SHL SWAP7 DUP8 DUP5 MSTORE CALLER DUP14 DUP6 ADD MSTORE DUP14 PUSH1 0x24 DUP6 ADD MSTORE PUSH1 0x44 DUP5 ADD MSTORE PUSH1 0x80 PUSH1 0x64 DUP5 ADD MSTORE PUSH1 0x84 DUP4 ADD SWAP1 PUSH2 0x103A JUMP JUMPDEST SUB DUP2 DUP12 DUP11 GAS CALL DUP9 SWAP2 DUP2 PUSH2 0x189C JUMPI JUMPDEST POP PUSH2 0x1865 JUMPI POP POP POP RETURNDATASIZE PUSH1 0x0 EQ PUSH2 0x185C JUMPI RETURNDATASIZE PUSH2 0x1820 DUP2 PUSH2 0x1119 JUMP JUMPDEST SWAP1 PUSH2 0x182D DUP5 MLOAD SWAP3 DUP4 PUSH2 0x10F7 JUMP JUMPDEST DUP2 MSTORE DUP1 SWAP6 DUP3 RETURNDATASIZE SWAP3 ADD RETURNDATACOPY JUMPDEST DUP5 MLOAD SWAP5 DUP6 PUSH2 0x1856 JUMPI POP POP MLOAD PUSH4 0x32505749 PUSH1 0xE1 SHL DUP2 MSTORE SWAP2 DUP3 ADD MSTORE PUSH1 0x24 SWAP2 POP REVERT JUMPDEST DUP6 SWAP3 POP ADD REVERT JUMPDEST PUSH1 0x60 SWAP5 POP PUSH2 0x1837 JUMP JUMPDEST SWAP2 SWAP7 POP SWAP2 POP PUSH4 0xFFFFFFFF PUSH1 0xE0 SHL AND SUB PUSH2 0x1887 JUMPI POP POP POP CODESIZE DUP1 DUP1 DUP1 DUP1 DUP1 DUP1 PUSH2 0x17B1 JUMP JUMPDEST MLOAD PUSH4 0x32505749 PUSH1 0xE1 SHL DUP2 MSTORE SWAP2 DUP3 ADD MSTORE PUSH1 0x24 SWAP2 POP REVERT JUMPDEST SWAP1 SWAP2 POP DUP5 DUP2 DUP2 RETURNDATASIZE DUP4 GT PUSH2 0x18D9 JUMPI JUMPDEST PUSH2 0x18B4 DUP2 DUP4 PUSH2 0x10F7 JUMP JUMPDEST DUP2 ADD SUB SLT PUSH2 0x18D5 JUMPI MLOAD PUSH1 0x1 PUSH1 0x1 PUSH1 0xE0 SHL SUB NOT DUP2 AND DUP2 SUB PUSH2 0x18D5 JUMPI SWAP1 CODESIZE PUSH2 0x1806 JUMP JUMPDEST DUP9 DUP1 REVERT JUMPDEST POP RETURNDATASIZE PUSH2 0x18AA JUMP JUMPDEST DUP5 MLOAD PUSH4 0x39E35637 PUSH1 0xE1 SHL DUP2 MSTORE DUP1 DUP9 ADD DUP10 SWAP1 MSTORE PUSH1 0x24 SWAP1 REVERT JUMPDEST PUSH2 0x1900 DUP3 PUSH2 0x11D2 JUMP JUMPDEST PUSH1 0x0 NOT DUP2 ADD SWAP1 DUP2 GT PUSH2 0x1930 JUMPI DUP8 DUP11 MSTORE PUSH1 0x8 DUP7 MSTORE DUP7 DUP11 KECCAK256 DUP2 DUP12 MSTORE DUP7 MSTORE DUP5 DUP8 DUP12 KECCAK256 SSTORE DUP5 DUP11 MSTORE PUSH1 0x9 DUP7 MSTORE DUP7 DUP11 KECCAK256 SSTORE PUSH2 0x17A7 JUMP JUMPDEST PUSH4 0x4E487B71 PUSH1 0xE0 SHL DUP11 MSTORE PUSH1 0x11 DUP10 MSTORE PUSH1 0x24 DUP11 REVERT JUMPDEST PUSH4 0x4E487B71 PUSH1 0xE0 SHL DUP12 MSTORE PUSH1 0x41 DUP11 MSTORE PUSH1 0x24 DUP12 REVERT JUMPDEST SWAP1 DUP1 DUP3 EQ PUSH2 0x17A1 JUMPI DUP11 PUSH2 0x1968 DUP3 PUSH2 0x11D2 JUMP JUMPDEST DUP8 DUP3 MSTORE PUSH1 0x9 DUP10 MSTORE DUP10 DUP3 KECCAK256 SLOAD DUP4 DUP4 MSTORE PUSH1 0x8 DUP11 MSTORE DUP11 DUP1 DUP5 KECCAK256 SWAP4 DUP4 DUP4 SUB PUSH2 0x19A4 JUMPI JUMPDEST SWAP1 POP DUP10 SWAP2 POP MSTORE PUSH1 0x9 DUP10 MSTORE DUP13 DUP11 DUP2 KECCAK256 SSTORE DUP13 MSTORE DUP8 MSTORE DUP11 DUP9 DUP2 KECCAK256 SSTORE PUSH2 0x17A1 JUMP JUMPDEST DUP4 DUP2 MSTORE DUP5 DUP13 MSTORE DUP2 DUP2 KECCAK256 SLOAD DUP4 DUP3 MSTORE DUP1 DUP4 DUP4 KECCAK256 SSTORE DUP2 MSTORE PUSH1 0x9 DUP13 MSTORE KECCAK256 SSTORE CODESIZE DUP11 DUP15 PUSH2 0x1987 JUMP JUMPDEST PUSH1 0x0 DUP10 DUP2 MSTORE PUSH1 0x6 PUSH1 0x20 MSTORE PUSH1 0x40 SWAP1 KECCAK256 DUP1 SLOAD PUSH1 0x1 PUSH1 0x1 PUSH1 0xA0 SHL SUB NOT AND SWAP1 SSTORE DUP7 DUP6 MSTORE DUP2 DUP2 MSTORE DUP3 DUP6 KECCAK256 DUP1 SLOAD PUSH1 0x0 NOT ADD SWAP1 SSTORE PUSH2 0x1743 JUMP JUMPDEST DUP4 MLOAD PUSH4 0x32505749 PUSH1 0xE1 SHL DUP2 MSTORE PUSH1 0x4 DUP2 ADD DUP9 SWAP1 MSTORE PUSH1 0x24 SWAP1 REVERT JUMPDEST PUSH8 0xFFFFFFFFFFFFFFFF DUP2 GT PUSH2 0x10E1 JUMPI PUSH1 0x5 SHL PUSH1 0x20 ADD SWAP1 JUMP JUMPDEST PUSH2 0x1A31 DUP2 PUSH2 0x14D2 JUMP JUMPDEST POP PUSH1 0xF SLOAD SWAP1 PUSH2 0x1A3F DUP3 PUSH2 0x116C JUMP JUMPDEST ISZERO PUSH2 0x1B22 JUMPI PUSH2 0x1A4D SWAP1 PUSH2 0x1B37 JUMP JUMPDEST PUSH1 0x40 MLOAD DUP1 SWAP3 PUSH1 0x0 SWAP1 PUSH2 0x1A5E DUP2 PUSH2 0x116C JUMP JUMPDEST SWAP1 PUSH1 0x1 SWAP1 DUP2 DUP2 AND SWAP1 DUP2 ISZERO PUSH2 0x1AFD JUMPI POP PUSH1 0x1 EQ PUSH2 0x1AAE JUMPI JUMPDEST POP POP SWAP1 PUSH1 0x20 DUP3 PUSH2 0x1A90 DUP6 PUSH1 0x5 SWAP6 PUSH2 0x1AAB SWAP8 MLOAD SWAP5 DUP6 SWAP3 ADD PUSH2 0x1017 JUMP JUMPDEST ADD PUSH5 0x173539B7B7 PUSH1 0xD9 SHL DUP2 MSTORE SUB PUSH1 0x1A NOT DUP2 ADD DUP5 MSTORE ADD DUP3 PUSH2 0x10F7 JUMP JUMPDEST SWAP1 JUMP JUMPDEST PUSH1 0xF PUSH1 0x0 SWAP1 DUP2 MSTORE SWAP2 SWAP3 POP PUSH1 0x0 DUP1 MLOAD PUSH1 0x20 PUSH2 0x1C0E DUP4 CODECOPY DUP2 MLOAD SWAP2 MSTORE JUMPDEST DUP4 DUP4 LT PUSH2 0x1AE2 JUMPI POP POP POP DUP2 ADD PUSH1 0x20 SWAP1 DUP2 ADD SWAP1 PUSH2 0x1AAB PUSH2 0x1A75 JUMP JUMPDEST DUP1 SLOAD PUSH1 0x20 DUP5 DUP10 ADD DUP2 ADD SWAP2 SWAP1 SWAP2 MSTORE DUP8 SWAP6 POP SWAP1 SWAP3 ADD SWAP2 DUP2 ADD PUSH2 0x1AC8 JUMP JUMPDEST PUSH1 0xFF NOT AND PUSH1 0x20 DUP1 DUP8 ADD SWAP2 SWAP1 SWAP2 MSTORE DUP4 ISZERO ISZERO SWAP1 SWAP4 MUL DUP6 ADD DUP4 ADD SWAP4 POP PUSH2 0x1AAB SWAP2 POP PUSH2 0x1A75 SWAP1 POP JUMP JUMPDEST POP POP PUSH1 0x40 MLOAD PUSH2 0x1B30 DUP2 PUSH2 0x10C5 JUMP JUMPDEST PUSH1 0x0 DUP2 MSTORE SWAP1 JUMP JUMPDEST DUP1 ISZERO PUSH2 0x1BDE JUMPI PUSH1 0x0 DUP2 DUP1 JUMPDEST PUSH2 0x1BCA JUMPI POP PUSH2 0x1B50 DUP2 PUSH2 0x1119 JUMP JUMPDEST SWAP1 PUSH2 0x1B5E PUSH1 0x40 MLOAD SWAP3 DUP4 PUSH2 0x10F7 JUMP JUMPDEST DUP1 DUP3 MSTORE PUSH1 0x1F NOT PUSH2 0x1B6D DUP3 PUSH2 0x1119 JUMP JUMPDEST ADD CALLDATASIZE PUSH1 0x20 DUP5 ADD CALLDATACOPY JUMPDEST DUP1 SWAP3 DUP1 ISZERO PUSH2 0x1BC3 JUMPI PUSH1 0x0 NOT DUP3 ADD SWAP2 DUP3 GT PUSH2 0x16B7 JUMPI DUP2 SWAP4 PUSH1 0xA SWAP3 PUSH1 0x30 SWAP1 DUP5 DUP5 MOD DUP3 ADD DUP1 SWAP3 GT PUSH2 0x16B7 JUMPI DUP6 MLOAD GT ISZERO PUSH2 0x1544 JUMPI PUSH1 0xF8 SHL PUSH1 0x1 PUSH1 0x1 PUSH1 0xF8 SHL SUB NOT AND PUSH1 0x0 BYTE SWAP1 DUP5 ADD PUSH1 0x1F ADD MSTORE8 DIV SWAP2 PUSH2 0x1B75 JUMP JUMPDEST POP POP SWAP1 POP SWAP1 JUMP JUMPDEST SWAP1 PUSH2 0x1BD6 PUSH1 0xA SWAP2 PUSH2 0x16A8 JUMP JUMPDEST SWAP2 DIV DUP1 PUSH2 0x1B42 JUMP JUMPDEST POP PUSH1 0x40 MLOAD PUSH1 0x40 DUP2 ADD DUP2 DUP2 LT PUSH8 0xFFFFFFFFFFFFFFFF DUP3 GT OR PUSH2 0x10E1 JUMPI PUSH1 0x40 MSTORE PUSH1 0x1 DUP2 MSTORE PUSH1 0x3 PUSH1 0xFC SHL PUSH1 0x20 DUP3 ADD MSTORE SWAP1 JUMP INVALID DUP14 GT ADDMOD 0xE1 SIGNEXTEND 0xCB PUSH29 0x27DDDFC02ED9D693A074039D026CF4EA4240B40F7D581AC802A164736F PUSH13 0x6343000814000A000000000000 "},"methodIdentifiers":{"approve(address,uint256)":"095ea7b3","balanceOf(address)":"70a08231","baseURI()":"6c0360eb","getApproved(uint256)":"081812fc","getNextTokenId()":"caa0f92a","isApprovedForAll(address,address)":"e985e9c5","isRedeemed(uint256)":"32d33cd0","mint(address)":"6a627842","mintBatch(address,uint256)":"248b71fc","name()":"06fdde03","owner()":"8da5cb5b","ownerOf(uint256)":"6352211e","redeemTicket(uint256)":"15f59d7f","renounceOwnership()":"715018a6","royaltyInfo(uint256,uint256)":"2a55205a","royaltyPercentage()":"8a71bb2d","royaltyReceiver()":"9fbc8713","safeTransferFrom(address,address,uint256)":"42842e0e","safeTransferFrom(address,address,uint256,bytes)":"b88d4fde","setApprovalForAll(address,bool)":"a22cb465","setBaseURI(string)":"55f804b3","setRoyalty(address,uint96)":"8f2fc60b","supportsInterface(bytes4)":"01ffc9a7","symbol()":"95d89b41","tokenByIndex(uint256)":"4f6ccce7","tokenOfOwnerByIndex(address,uint256)":"2f745c59","tokenURI(uint256)":"c87b56dd","totalSupply()":"18160ddd","transferFrom(address,address,uint256)":"23b872dd","transferOwnership(address)":"f2fde38b"}}}}}