{"src/contracts/Forwarder.sol":{"TambrForwarder":{"abi":[{"inputs":[],"stateMutability":"nonpayable","type":"constructor"},{"inputs":[],"name":"ECDSAInvalidSignature","type":"error"},{"inputs":[{"internalType":"uint256","name":"length","type":"uint256"}],"name":"ECDSAInvalidSignatureLength","type":"error"},{"inputs":[{"internalType":"bytes32","name":"s","type":"bytes32"}],"name":"ECDSAInvalidSignatureS","type":"error"},{"inputs":[],"name":"InvalidShortString","type":"error"},{"inputs":[{"internalType":"string","name":"str","type":"string"}],"name":"StringTooLong","type":"error"},{"anonymous":false,"inputs":[],"name":"EIP712DomainChanged","type":"event"},{"anonymous":false,"inputs":[{"indexed":true,"internalType":"address","name":"from","type":"address"},{"indexed":true,"internalType":"address","name":"to","type":"address"},{"indexed":false,"internalType":"bytes","name":"returnData","type":"bytes"}],"name":"MetaTransactionExecuted","type":"event"},{"inputs":[],"name":"eip712Domain","outputs":[{"internalType":"bytes1","name":"fields","type":"bytes1"},{"internalType":"string","name":"name","type":"string"},{"internalType":"string","name":"version","type":"string"},{"internalType":"uint256","name":"chainId","type":"uint256"},{"internalType":"address","name":"verifyingContract","type":"address"},{"internalType":"bytes32","name":"salt","type":"bytes32"},{"internalType":"uint256[]","name":"extensions","type":"uint256[]"}],"stateMutability":"view","type":"function"},{"inputs":[{"components":[{"internalType":"address","name":"from","type":"address"},{"internalType":"address","name":"to","type":"address"},{"internalType":"uint256","name":"value","type":"uint256"},{"internalType":"uint256","name":"gas","type":"uint256"},{"internalType":"uint256","name":"nonce","type":"uint256"},{"internalType":"bytes","name":"data","type":"bytes"}],"internalType":"struct TambrForwarder.ForwardRequest","name":"req","type":"tuple"},{"internalType":"bytes","name":"signature","type":"bytes"}],"name":"execute","outputs":[{"internalType":"bool","name":"","type":"bool"},{"internalType":"bytes","name":"","type":"bytes"}],"stateMutability":"payable","type":"function"},{"inputs":[{"internalType":"address","name":"from","type":"address"}],"name":"getNonce","outputs":[{"internalType":"uint256","name":"","type":"uint256"}],"stateMutability":"view","type":"function"},{"inputs":[{"components":[{"internalType":"address","name":"from","type":"address"},{"internalType":"address","name":"to","type":"address"},{"internalType":"uint256","name":"value","type":"uint256"},{"internalType":"uint256","name":"gas","type":"uint256"},{"internalType":"uint256","name":"nonce","type":"uint256"},{"internalType":"bytes","name":"data","type":"bytes"}],"internalType":"struct TambrForwarder.ForwardRequest","name":"req","type":"tuple"},{"internalType":"bytes","name":"signature","type":"bytes"}],"name":"verify","outputs":[{"internalType":"bool","name":"","type":"bool"}],"stateMutability":"view","type":"function"}],"evm":{"bytecode":{"linkReferences":{},"object":"61016080604052346200015157620000178162000156565b600e8152602081016d2a30b6b1392337b93bb0b93232b960911b815260405191620000428362000156565b6001835260208301603160f81b81526200005c8262000172565b926101209384526200006e8562000345565b92610140938452519020938460e05251902091610100938385524660a0526040519360208501917f8b73c3c69bb8fe3d512ecc4cf759cc79239f7b179b0ffacaa9a75d522b39400f8352604086015260608501524660808501523060a085015260a0845260c084019380851060018060401b038611176200013b57846040525190206080523060c052610ae59384620004f38539608051846109e6015260a05184610ab2015260c051846109b0015260e05184610a3501525183610a5b0152518260900152518160ba0152f35b634e487b7160e01b600052604160045260246000fd5b600080fd5b604081019081106001600160401b038211176200013b57604052565b8051602091908281101562000211575090601f825111620001b05780825192015190808310620001a157501790565b82600019910360031b1b161790565b90604051809263305a27a960e01b82528060048301528251908160248401526000935b828510620001f7575050604492506000838284010152601f80199101168101030190fd5b8481018201518686016044015293810193859350620001d3565b6001600160401b0381116200013b576000928354926001938481811c911680156200033a575b838210146200032657601f8111620002f0575b5081601f841160011462000289575092829391839286946200027d575b50501b916000199060031b1c191617905560ff90565b01519250388062000267565b919083601f1981168780528488209488905b88838310620002d55750505010620002bb575b505050811b01905560ff90565b015160001960f88460031b161c19169055388080620002ae565b8587015188559096019594850194879350908101906200029b565b85805284601f848820920160051c820191601f860160051c015b8281106200031a5750506200024a565b8781550185906200030a565b634e487b7160e01b86526022600452602486fd5b90607f169062000237565b805160209081811015620003d35750601f825111620003725780825192015190808310620001a157501790565b90604051809263305a27a960e01b82528060048301528251908160248401526000935b828510620003b9575050604492506000838284010152601f80199101168101030190fd5b848101820151868601604401529381019385935062000395565b9192916001600160401b0381116200013b5760019182548381811c91168015620004e7575b82821014620004d157601f811162000498575b5080601f83116001146200044b5750819293946000926200043f575b5050600019600383901b1c191690821b17905560ff90565b01519050388062000427565b90601f198316958460005282600020926000905b888210620004805750508385969710620002bb57505050811b01905560ff90565b8087859682949686015181550195019301906200045f565b8360005283601f83600020920160051c820191601f850160051c015b828110620004c45750506200040b565b60008155018490620004b4565b634e487b7160e01b600052602260045260246000fd5b90607f1690620003f856fe608060408181526004918236101561001657600080fd5b600092833560e01c9182632d0335ab146103785750816347153f821461019a57816384b0196e14610078575063bf5d3bdb1461005157600080fd5b346100745760209061006b610065366103b3565b91610746565b90519015158152f35b5080fd5b919050346101965782600319360112610196576100b47f00000000000000000000000000000000000000000000000000000000000000006104b3565b926100de7f00000000000000000000000000000000000000000000000000000000000000006105d9565b908251926020928385019585871067ffffffffffffffff8811176101835750928061013983889661012c998b9996528686528151998a99600f60f81b8b5260e0868c015260e08b019061041f565b91898303908a015261041f565b924660608801523060808801528460a088015286840360c088015251928381520193925b82811061016c57505050500390f35b83518552869550938101939281019260010161015d565b634e487b7160e01b845260419052602483fd5b8280fd5b6101b184846101a8366103b3565b90829592610746565b15610336576001600160a01b03806101c8856106c8565b168352602094600286528284208054906000198214610323576001820190556080860135036102ef5750906102ba9291858501908380610207846106c8565b61021460a08a018a6106dc565b90818851928392833781018481520391878b01359060608c0135f1953d156102be576102896102837f5845892132946850460bff5a0083f71031bc5bf9aadcd40f1de79423eac9b10b923d610268816106ac565b9061027589519283610491565b815280988c3d92013e6106c8565b936106c8565b91808551938a855216931691806102a28a82018861041f565b0390a38080519586951515865285015283019061041f565b0390f35b93507f5845892132946850460bff5a0083f71031bc5bf9aadcd40f1de79423eac9b10b6102896102836060966106c8565b825162461bcd60e51b8152908101869052600e60248201526d09cdedcc6ca40dad2e6dac2e8c6d60931b6044820152606490fd5b634e487b7160e01b865260118352602486fd5b5162461bcd60e51b8152602081850152601d60248201527f5369676e617475726520766572696669636174696f6e206661696c65640000006044820152606490fd5b929150346103af5760203660031901126103af57356001600160a01b038116908190036103af579260209381526002845220548152f35b8380fd5b906003199060408284011261041a5760043567ffffffffffffffff9283821161041a5760c090828603011261041a57600401926024359083821161041a578060238301121561041a57816004013593841161041a576024848301011161041a576024019190565b600080fd5b919082519283825260005b84811061044b575050826000602080949584010152601f8019910116010190565b60208183018101518483018201520161042a565b6040810190811067ffffffffffffffff82111761047b57604052565b634e487b7160e01b600052604160045260246000fd5b90601f8019910116810190811067ffffffffffffffff82111761047b57604052565b60ff81146104f15760ff811690601f82116104df57604051916104d58361045f565b8252602082015290565b604051632cd44ac360e21b8152600490fd5b506040516000805490600182811c908084169384156105cf575b60209485841081146105bb578387528694939291811561059b575060011461053f575b505061053c92500382610491565b90565b60008080527f290decd9548b62a8d60345a988386fc84ba6bc95484008f6362f93160ef3e56395935091905b81831061058357505061053c9350820101388061052e565b8554878401850152948501948694509183019161056b565b91505061053c94925060ff191682840152151560051b820101388061052e565b634e487b7160e01b85526022600452602485fd5b91607f169161050b565b60ff81146105fb5760ff811690601f82116104df57604051916104d58361045f565b50604051600060019081549182811c908084169384156106a2575b60209485841081146105bb578387528694939291811561059b575060011461064657505061053c92500382610491565b60008181527fb10e2d527612073b26eecdfd717e6a320cf44b4afac2b0732d9fcbe2b7fa0cf695935091905b81831061068a57505061053c9350820101388061052e565b85548784018501529485019486945091830191610672565b91607f1691610616565b67ffffffffffffffff811161047b57601f01601f191660200190565b356001600160a01b038116810361041a5790565b903590601e198136030182121561041a570180359067ffffffffffffffff821161041a5760200191813603831361041a57565b92919261071b826106ac565b916107296040519384610491565b82948184528183011161041a578281602093846000960137010152565b90610750826106c8565b9261075d602084016106c8565b9261077561076e60a08301836106dc565b369161070f565b60208151910120946040519560208701917fdd8f4b70b0f4393e889bd39128a30628a78b61816a9eb8199759e7a349657e48835260018060a01b03968780921660408a015216606088015260408301356080880152606083013560a0880152608083013560c088015260e087015260e0865261010086019286841067ffffffffffffffff85111761047b5761084186956042610847946108509a610855986040525190206108216109ad565b906040519161190160f01b8352600283015260228201522092369161070f565b9061085c565b90969196610928565b6106c8565b1691161490565b815191906041830361088d5761088692506020820151906060604084015193015160001a90610898565b9192909190565b505060009160029190565b91907f7fffffffffffffffffffffffffffffff5d576e7357a4501ddfe92f46681b20a0841161091c57926020929160ff608095604051948552168484015260408301526060820152600092839182805260015afa156109105780516001600160a01b0381161561090757918190565b50809160019190565b604051903d90823e3d90fd5b50505060009160039190565b6004811015610997578061093a575050565b600181036109545760405163f645eedf60e01b8152600490fd5b600281036109755760405163fce698f760e01b815260048101839052602490fd5b60031461097f5750565b602490604051906335e2f38360e21b82526004820152fd5b634e487b7160e01b600052602160045260246000fd5b307f00000000000000000000000000000000000000000000000000000000000000006001600160a01b03161480610aaf575b15610a08577f000000000000000000000000000000000000000000000000000000000000000090565b60405160208101907f8b73c3c69bb8fe3d512ecc4cf759cc79239f7b179b0ffacaa9a75d522b39400f82527f000000000000000000000000000000000000000000000000000000000000000060408201527f000000000000000000000000000000000000000000000000000000000000000060608201524660808201523060a082015260a0815260c0810181811067ffffffffffffffff82111761047b5760405251902090565b507f000000000000000000000000000000000000000000000000000000000000000046146109df56fea164736f6c6343000814000a","opcodes":"PUSH2 0x160 DUP1 PUSH1 0x40 MSTORE CALLVALUE PUSH3 0x151 JUMPI PUSH3 0x17 DUP2 PUSH3 0x156 JUMP JUMPDEST PUSH1 0xE DUP2 MSTORE PUSH1 0x20 DUP2 ADD PUSH14 0x2A30B6B1392337B93BB0B93232B9 PUSH1 0x91 SHL DUP2 MSTORE PUSH1 0x40 MLOAD SWAP2 PUSH3 0x42 DUP4 PUSH3 0x156 JUMP JUMPDEST PUSH1 0x1 DUP4 MSTORE PUSH1 0x20 DUP4 ADD PUSH1 0x31 PUSH1 0xF8 SHL DUP2 MSTORE PUSH3 0x5C DUP3 PUSH3 0x172 JUMP JUMPDEST SWAP3 PUSH2 0x120 SWAP4 DUP5 MSTORE PUSH3 0x6E DUP6 PUSH3 0x345 JUMP JUMPDEST SWAP3 PUSH2 0x140 SWAP4 DUP5 MSTORE MLOAD SWAP1 KECCAK256 SWAP4 DUP5 PUSH1 0xE0 MSTORE MLOAD SWAP1 KECCAK256 SWAP2 PUSH2 0x100 SWAP4 DUP4 DUP6 MSTORE CHAINID PUSH1 0xA0 MSTORE PUSH1 0x40 MLOAD SWAP4 PUSH1 0x20 DUP6 ADD SWAP2 PUSH32 0x8B73C3C69BB8FE3D512ECC4CF759CC79239F7B179B0FFACAA9A75D522B39400F DUP4 MSTORE PUSH1 0x40 DUP7 ADD MSTORE PUSH1 0x60 DUP6 ADD MSTORE CHAINID PUSH1 0x80 DUP6 ADD MSTORE ADDRESS PUSH1 0xA0 DUP6 ADD MSTORE PUSH1 0xA0 DUP5 MSTORE PUSH1 0xC0 DUP5 ADD SWAP4 DUP1 DUP6 LT PUSH1 0x1 DUP1 PUSH1 0x40 SHL SUB DUP7 GT OR PUSH3 0x13B JUMPI DUP5 PUSH1 0x40 MSTORE MLOAD SWAP1 KECCAK256 PUSH1 0x80 MSTORE ADDRESS PUSH1 0xC0 MSTORE PUSH2 0xAE5 SWAP4 DUP5 PUSH3 0x4F3 DUP6 CODECOPY PUSH1 0x80 MLOAD DUP5 PUSH2 0x9E6 ADD MSTORE PUSH1 0xA0 MLOAD DUP5 PUSH2 0xAB2 ADD MSTORE PUSH1 0xC0 MLOAD DUP5 PUSH2 0x9B0 ADD MSTORE PUSH1 0xE0 MLOAD DUP5 PUSH2 0xA35 ADD MSTORE MLOAD DUP4 PUSH2 0xA5B ADD MSTORE MLOAD DUP3 PUSH1 0x90 ADD MSTORE MLOAD DUP2 PUSH1 0xBA ADD MSTORE RETURN JUMPDEST PUSH4 0x4E487B71 PUSH1 0xE0 SHL PUSH1 0x0 MSTORE PUSH1 0x41 PUSH1 0x4 MSTORE PUSH1 0x24 PUSH1 0x0 REVERT JUMPDEST PUSH1 0x0 DUP1 REVERT JUMPDEST PUSH1 0x40 DUP2 ADD SWAP1 DUP2 LT PUSH1 0x1 PUSH1 0x1 PUSH1 0x40 SHL SUB DUP3 GT OR PUSH3 0x13B JUMPI PUSH1 0x40 MSTORE JUMP JUMPDEST DUP1 MLOAD PUSH1 0x20 SWAP2 SWAP1 DUP3 DUP2 LT ISZERO PUSH3 0x211 JUMPI POP SWAP1 PUSH1 0x1F DUP3 MLOAD GT PUSH3 0x1B0 JUMPI DUP1 DUP3 MLOAD SWAP3 ADD MLOAD SWAP1 DUP1 DUP4 LT PUSH3 0x1A1 JUMPI POP OR SWAP1 JUMP JUMPDEST DUP3 PUSH1 0x0 NOT SWAP2 SUB PUSH1 0x3 SHL SHL AND OR SWAP1 JUMP JUMPDEST SWAP1 PUSH1 0x40 MLOAD DUP1 SWAP3 PUSH4 0x305A27A9 PUSH1 0xE0 SHL DUP3 MSTORE DUP1 PUSH1 0x4 DUP4 ADD MSTORE DUP3 MLOAD SWAP1 DUP2 PUSH1 0x24 DUP5 ADD MSTORE PUSH1 0x0 SWAP4 JUMPDEST DUP3 DUP6 LT PUSH3 0x1F7 JUMPI POP POP PUSH1 0x44 SWAP3 POP PUSH1 0x0 DUP4 DUP3 DUP5 ADD ADD MSTORE PUSH1 0x1F DUP1 NOT SWAP2 ADD AND DUP2 ADD SUB ADD SWAP1 REVERT JUMPDEST DUP5 DUP2 ADD DUP3 ADD MLOAD DUP7 DUP7 ADD PUSH1 0x44 ADD MSTORE SWAP4 DUP2 ADD SWAP4 DUP6 SWAP4 POP PUSH3 0x1D3 JUMP JUMPDEST PUSH1 0x1 PUSH1 0x1 PUSH1 0x40 SHL SUB DUP2 GT PUSH3 0x13B JUMPI PUSH1 0x0 SWAP3 DUP4 SLOAD SWAP3 PUSH1 0x1 SWAP4 DUP5 DUP2 DUP2 SHR SWAP2 AND DUP1 ISZERO PUSH3 0x33A JUMPI JUMPDEST DUP4 DUP3 LT EQ PUSH3 0x326 JUMPI PUSH1 0x1F DUP2 GT PUSH3 0x2F0 JUMPI JUMPDEST POP DUP2 PUSH1 0x1F DUP5 GT PUSH1 0x1 EQ PUSH3 0x289 JUMPI POP SWAP3 DUP3 SWAP4 SWAP2 DUP4 SWAP3 DUP7 SWAP5 PUSH3 0x27D JUMPI JUMPDEST POP POP SHL SWAP2 PUSH1 0x0 NOT SWAP1 PUSH1 0x3 SHL SHR NOT AND OR SWAP1 SSTORE PUSH1 0xFF SWAP1 JUMP JUMPDEST ADD MLOAD SWAP3 POP CODESIZE DUP1 PUSH3 0x267 JUMP JUMPDEST SWAP2 SWAP1 DUP4 PUSH1 0x1F NOT DUP2 AND DUP8 DUP1 MSTORE DUP5 DUP9 KECCAK256 SWAP5 DUP9 SWAP1 JUMPDEST DUP9 DUP4 DUP4 LT PUSH3 0x2D5 JUMPI POP POP POP LT PUSH3 0x2BB JUMPI JUMPDEST POP POP POP DUP2 SHL ADD SWAP1 SSTORE PUSH1 0xFF SWAP1 JUMP JUMPDEST ADD MLOAD PUSH1 0x0 NOT PUSH1 0xF8 DUP5 PUSH1 0x3 SHL AND SHR NOT AND SWAP1 SSTORE CODESIZE DUP1 DUP1 PUSH3 0x2AE JUMP JUMPDEST DUP6 DUP8 ADD MLOAD DUP9 SSTORE SWAP1 SWAP7 ADD SWAP6 SWAP5 DUP6 ADD SWAP5 DUP8 SWAP4 POP SWAP1 DUP2 ADD SWAP1 PUSH3 0x29B JUMP JUMPDEST DUP6 DUP1 MSTORE DUP5 PUSH1 0x1F DUP5 DUP9 KECCAK256 SWAP3 ADD PUSH1 0x5 SHR DUP3 ADD SWAP2 PUSH1 0x1F DUP7 ADD PUSH1 0x5 SHR ADD JUMPDEST DUP3 DUP2 LT PUSH3 0x31A JUMPI POP POP PUSH3 0x24A JUMP JUMPDEST DUP8 DUP2 SSTORE ADD DUP6 SWAP1 PUSH3 0x30A JUMP JUMPDEST PUSH4 0x4E487B71 PUSH1 0xE0 SHL DUP7 MSTORE PUSH1 0x22 PUSH1 0x4 MSTORE PUSH1 0x24 DUP7 REVERT JUMPDEST SWAP1 PUSH1 0x7F AND SWAP1 PUSH3 0x237 JUMP JUMPDEST DUP1 MLOAD PUSH1 0x20 SWAP1 DUP2 DUP2 LT ISZERO PUSH3 0x3D3 JUMPI POP PUSH1 0x1F DUP3 MLOAD GT PUSH3 0x372 JUMPI DUP1 DUP3 MLOAD SWAP3 ADD MLOAD SWAP1 DUP1 DUP4 LT PUSH3 0x1A1 JUMPI POP OR SWAP1 JUMP JUMPDEST SWAP1 PUSH1 0x40 MLOAD DUP1 SWAP3 PUSH4 0x305A27A9 PUSH1 0xE0 SHL DUP3 MSTORE DUP1 PUSH1 0x4 DUP4 ADD MSTORE DUP3 MLOAD SWAP1 DUP2 PUSH1 0x24 DUP5 ADD MSTORE PUSH1 0x0 SWAP4 JUMPDEST DUP3 DUP6 LT PUSH3 0x3B9 JUMPI POP POP PUSH1 0x44 SWAP3 POP PUSH1 0x0 DUP4 DUP3 DUP5 ADD ADD MSTORE PUSH1 0x1F DUP1 NOT SWAP2 ADD AND DUP2 ADD SUB ADD SWAP1 REVERT JUMPDEST DUP5 DUP2 ADD DUP3 ADD MLOAD DUP7 DUP7 ADD PUSH1 0x44 ADD MSTORE SWAP4 DUP2 ADD SWAP4 DUP6 SWAP4 POP PUSH3 0x395 JUMP JUMPDEST SWAP2 SWAP3 SWAP2 PUSH1 0x1 PUSH1 0x1 PUSH1 0x40 SHL SUB DUP2 GT PUSH3 0x13B JUMPI PUSH1 0x1 SWAP2 DUP3 SLOAD DUP4 DUP2 DUP2 SHR SWAP2 AND DUP1 ISZERO PUSH3 0x4E7 JUMPI JUMPDEST DUP3 DUP3 LT EQ PUSH3 0x4D1 JUMPI PUSH1 0x1F DUP2 GT PUSH3 0x498 JUMPI JUMPDEST POP DUP1 PUSH1 0x1F DUP4 GT PUSH1 0x1 EQ PUSH3 0x44B JUMPI POP DUP2 SWAP3 SWAP4 SWAP5 PUSH1 0x0 SWAP3 PUSH3 0x43F JUMPI JUMPDEST POP POP PUSH1 0x0 NOT PUSH1 0x3 DUP4 SWAP1 SHL SHR NOT AND SWAP1 DUP3 SHL OR SWAP1 SSTORE PUSH1 0xFF SWAP1 JUMP JUMPDEST ADD MLOAD SWAP1 POP CODESIZE DUP1 PUSH3 0x427 JUMP JUMPDEST SWAP1 PUSH1 0x1F NOT DUP4 AND SWAP6 DUP5 PUSH1 0x0 MSTORE DUP3 PUSH1 0x0 KECCAK256 SWAP3 PUSH1 0x0 SWAP1 JUMPDEST DUP9 DUP3 LT PUSH3 0x480 JUMPI POP POP DUP4 DUP6 SWAP7 SWAP8 LT PUSH3 0x2BB JUMPI POP POP POP DUP2 SHL ADD SWAP1 SSTORE PUSH1 0xFF SWAP1 JUMP JUMPDEST DUP1 DUP8 DUP6 SWAP7 DUP3 SWAP5 SWAP7 DUP7 ADD MLOAD DUP2 SSTORE ADD SWAP6 ADD SWAP4 ADD SWAP1 PUSH3 0x45F JUMP JUMPDEST DUP4 PUSH1 0x0 MSTORE DUP4 PUSH1 0x1F DUP4 PUSH1 0x0 KECCAK256 SWAP3 ADD PUSH1 0x5 SHR DUP3 ADD SWAP2 PUSH1 0x1F DUP6 ADD PUSH1 0x5 SHR ADD JUMPDEST DUP3 DUP2 LT PUSH3 0x4C4 JUMPI POP POP PUSH3 0x40B JUMP JUMPDEST PUSH1 0x0 DUP2 SSTORE ADD DUP5 SWAP1 PUSH3 0x4B4 JUMP JUMPDEST PUSH4 0x4E487B71 PUSH1 0xE0 SHL PUSH1 0x0 MSTORE PUSH1 0x22 PUSH1 0x4 MSTORE PUSH1 0x24 PUSH1 0x0 REVERT JUMPDEST SWAP1 PUSH1 0x7F AND SWAP1 PUSH3 0x3F8 JUMP INVALID PUSH1 0x80 PUSH1 0x40 DUP2 DUP2 MSTORE PUSH1 0x4 SWAP2 DUP3 CALLDATASIZE LT ISZERO PUSH2 0x16 JUMPI PUSH1 0x0 DUP1 REVERT JUMPDEST PUSH1 0x0 SWAP3 DUP4 CALLDATALOAD PUSH1 0xE0 SHR SWAP2 DUP3 PUSH4 0x2D0335AB EQ PUSH2 0x378 JUMPI POP DUP2 PUSH4 0x47153F82 EQ PUSH2 0x19A JUMPI DUP2 PUSH4 0x84B0196E EQ PUSH2 0x78 JUMPI POP PUSH4 0xBF5D3BDB EQ PUSH2 0x51 JUMPI PUSH1 0x0 DUP1 REVERT JUMPDEST CALLVALUE PUSH2 0x74 JUMPI PUSH1 0x20 SWAP1 PUSH2 0x6B PUSH2 0x65 CALLDATASIZE PUSH2 0x3B3 JUMP JUMPDEST SWAP2 PUSH2 0x746 JUMP JUMPDEST SWAP1 MLOAD SWAP1 ISZERO ISZERO DUP2 MSTORE RETURN JUMPDEST POP DUP1 REVERT JUMPDEST SWAP2 SWAP1 POP CALLVALUE PUSH2 0x196 JUMPI DUP3 PUSH1 0x3 NOT CALLDATASIZE ADD SLT PUSH2 0x196 JUMPI PUSH2 0xB4 PUSH32 0x0 PUSH2 0x4B3 JUMP JUMPDEST SWAP3 PUSH2 0xDE PUSH32 0x0 PUSH2 0x5D9 JUMP JUMPDEST SWAP1 DUP3 MLOAD SWAP3 PUSH1 0x20 SWAP3 DUP4 DUP6 ADD SWAP6 DUP6 DUP8 LT PUSH8 0xFFFFFFFFFFFFFFFF DUP9 GT OR PUSH2 0x183 JUMPI POP SWAP3 DUP1 PUSH2 0x139 DUP4 DUP9 SWAP7 PUSH2 0x12C SWAP10 DUP12 SWAP10 SWAP7 MSTORE DUP7 DUP7 MSTORE DUP2 MLOAD SWAP10 DUP11 SWAP10 PUSH1 0xF PUSH1 0xF8 SHL DUP12 MSTORE PUSH1 0xE0 DUP7 DUP13 ADD MSTORE PUSH1 0xE0 DUP12 ADD SWAP1 PUSH2 0x41F JUMP JUMPDEST SWAP2 DUP10 DUP4 SUB SWAP1 DUP11 ADD MSTORE PUSH2 0x41F JUMP JUMPDEST SWAP3 CHAINID PUSH1 0x60 DUP9 ADD MSTORE ADDRESS PUSH1 0x80 DUP9 ADD MSTORE DUP5 PUSH1 0xA0 DUP9 ADD MSTORE DUP7 DUP5 SUB PUSH1 0xC0 DUP9 ADD MSTORE MLOAD SWAP3 DUP4 DUP2 MSTORE ADD SWAP4 SWAP3 JUMPDEST DUP3 DUP2 LT PUSH2 0x16C JUMPI POP POP POP POP SUB SWAP1 RETURN JUMPDEST DUP4 MLOAD DUP6 MSTORE DUP7 SWAP6 POP SWAP4 DUP2 ADD SWAP4 SWAP3 DUP2 ADD SWAP3 PUSH1 0x1 ADD PUSH2 0x15D JUMP JUMPDEST PUSH4 0x4E487B71 PUSH1 0xE0 SHL DUP5 MSTORE PUSH1 0x41 SWAP1 MSTORE PUSH1 0x24 DUP4 REVERT JUMPDEST DUP3 DUP1 REVERT JUMPDEST PUSH2 0x1B1 DUP5 DUP5 PUSH2 0x1A8 CALLDATASIZE PUSH2 0x3B3 JUMP JUMPDEST SWAP1 DUP3 SWAP6 SWAP3 PUSH2 0x746 JUMP JUMPDEST ISZERO PUSH2 0x336 JUMPI PUSH1 0x1 PUSH1 0x1 PUSH1 0xA0 SHL SUB DUP1 PUSH2 0x1C8 DUP6 PUSH2 0x6C8 JUMP JUMPDEST AND DUP4 MSTORE PUSH1 0x20 SWAP5 PUSH1 0x2 DUP7 MSTORE DUP3 DUP5 KECCAK256 DUP1 SLOAD SWAP1 PUSH1 0x0 NOT DUP3 EQ PUSH2 0x323 JUMPI PUSH1 0x1 DUP3 ADD SWAP1 SSTORE PUSH1 0x80 DUP7 ADD CALLDATALOAD SUB PUSH2 0x2EF JUMPI POP SWAP1 PUSH2 0x2BA SWAP3 SWAP2 DUP6 DUP6 ADD SWAP1 DUP4 DUP1 PUSH2 0x207 DUP5 PUSH2 0x6C8 JUMP JUMPDEST PUSH2 0x214 PUSH1 0xA0 DUP11 ADD DUP11 PUSH2 0x6DC JUMP JUMPDEST SWAP1 DUP2 DUP9 MLOAD SWAP3 DUP4 SWAP3 DUP4 CALLDATACOPY DUP2 ADD DUP5 DUP2 MSTORE SUB SWAP2 DUP8 DUP12 ADD CALLDATALOAD SWAP1 PUSH1 0x60 DUP13 ADD CALLDATALOAD CALL SWAP6 RETURNDATASIZE ISZERO PUSH2 0x2BE JUMPI PUSH2 0x289 PUSH2 0x283 PUSH32 0x5845892132946850460BFF5A0083F71031BC5BF9AADCD40F1DE79423EAC9B10B SWAP3 RETURNDATASIZE PUSH2 0x268 DUP2 PUSH2 0x6AC JUMP JUMPDEST SWAP1 PUSH2 0x275 DUP10 MLOAD SWAP3 DUP4 PUSH2 0x491 JUMP JUMPDEST DUP2 MSTORE DUP1 SWAP9 DUP13 RETURNDATASIZE SWAP3 ADD RETURNDATACOPY PUSH2 0x6C8 JUMP JUMPDEST SWAP4 PUSH2 0x6C8 JUMP JUMPDEST SWAP2 DUP1 DUP6 MLOAD SWAP4 DUP11 DUP6 MSTORE AND SWAP4 AND SWAP2 DUP1 PUSH2 0x2A2 DUP11 DUP3 ADD DUP9 PUSH2 0x41F JUMP JUMPDEST SUB SWAP1 LOG3 DUP1 DUP1 MLOAD SWAP6 DUP7 SWAP6 ISZERO ISZERO DUP7 MSTORE DUP6 ADD MSTORE DUP4 ADD SWAP1 PUSH2 0x41F JUMP JUMPDEST SUB SWAP1 RETURN JUMPDEST SWAP4 POP PUSH32 0x5845892132946850460BFF5A0083F71031BC5BF9AADCD40F1DE79423EAC9B10B PUSH2 0x289 PUSH2 0x283 PUSH1 0x60 SWAP7 PUSH2 0x6C8 JUMP JUMPDEST DUP3 MLOAD PUSH3 0x461BCD PUSH1 0xE5 SHL DUP2 MSTORE SWAP1 DUP2 ADD DUP7 SWAP1 MSTORE PUSH1 0xE PUSH1 0x24 DUP3 ADD MSTORE PUSH14 0x9CDEDCC6CA40DAD2E6DAC2E8C6D PUSH1 0x93 SHL PUSH1 0x44 DUP3 ADD MSTORE PUSH1 0x64 SWAP1 REVERT JUMPDEST PUSH4 0x4E487B71 PUSH1 0xE0 SHL DUP7 MSTORE PUSH1 0x11 DUP4 MSTORE PUSH1 0x24 DUP7 REVERT JUMPDEST MLOAD PUSH3 0x461BCD PUSH1 0xE5 SHL DUP2 MSTORE PUSH1 0x20 DUP2 DUP6 ADD MSTORE PUSH1 0x1D PUSH1 0x24 DUP3 ADD MSTORE PUSH32 0x5369676E617475726520766572696669636174696F6E206661696C6564000000 PUSH1 0x44 DUP3 ADD MSTORE PUSH1 0x64 SWAP1 REVERT JUMPDEST SWAP3 SWAP2 POP CALLVALUE PUSH2 0x3AF JUMPI PUSH1 0x20 CALLDATASIZE PUSH1 0x3 NOT ADD SLT PUSH2 0x3AF JUMPI CALLDATALOAD PUSH1 0x1 PUSH1 0x1 PUSH1 0xA0 SHL SUB DUP2 AND SWAP1 DUP2 SWAP1 SUB PUSH2 0x3AF JUMPI SWAP3 PUSH1 0x20 SWAP4 DUP2 MSTORE PUSH1 0x2 DUP5 MSTORE KECCAK256 SLOAD DUP2 MSTORE RETURN JUMPDEST DUP4 DUP1 REVERT JUMPDEST SWAP1 PUSH1 0x3 NOT SWAP1 PUSH1 0x40 DUP3 DUP5 ADD SLT PUSH2 0x41A JUMPI PUSH1 0x4 CALLDATALOAD PUSH8 0xFFFFFFFFFFFFFFFF SWAP3 DUP4 DUP3 GT PUSH2 0x41A JUMPI PUSH1 0xC0 SWAP1 DUP3 DUP7 SUB ADD SLT PUSH2 0x41A JUMPI PUSH1 0x4 ADD SWAP3 PUSH1 0x24 CALLDATALOAD SWAP1 DUP4 DUP3 GT PUSH2 0x41A JUMPI DUP1 PUSH1 0x23 DUP4 ADD SLT ISZERO PUSH2 0x41A JUMPI DUP2 PUSH1 0x4 ADD CALLDATALOAD SWAP4 DUP5 GT PUSH2 0x41A JUMPI PUSH1 0x24 DUP5 DUP4 ADD ADD GT PUSH2 0x41A JUMPI PUSH1 0x24 ADD SWAP2 SWAP1 JUMP JUMPDEST PUSH1 0x0 DUP1 REVERT JUMPDEST SWAP2 SWAP1 DUP3 MLOAD SWAP3 DUP4 DUP3 MSTORE PUSH1 0x0 JUMPDEST DUP5 DUP2 LT PUSH2 0x44B JUMPI POP POP DUP3 PUSH1 0x0 PUSH1 0x20 DUP1 SWAP5 SWAP6 DUP5 ADD ADD MSTORE PUSH1 0x1F DUP1 NOT SWAP2 ADD AND ADD ADD SWAP1 JUMP JUMPDEST PUSH1 0x20 DUP2 DUP4 ADD DUP2 ADD MLOAD DUP5 DUP4 ADD DUP3 ADD MSTORE ADD PUSH2 0x42A JUMP JUMPDEST PUSH1 0x40 DUP2 ADD SWAP1 DUP2 LT PUSH8 0xFFFFFFFFFFFFFFFF DUP3 GT OR PUSH2 0x47B JUMPI PUSH1 0x40 MSTORE JUMP JUMPDEST PUSH4 0x4E487B71 PUSH1 0xE0 SHL PUSH1 0x0 MSTORE PUSH1 0x41 PUSH1 0x4 MSTORE PUSH1 0x24 PUSH1 0x0 REVERT JUMPDEST SWAP1 PUSH1 0x1F DUP1 NOT SWAP2 ADD AND DUP2 ADD SWAP1 DUP2 LT PUSH8 0xFFFFFFFFFFFFFFFF DUP3 GT OR PUSH2 0x47B JUMPI PUSH1 0x40 MSTORE JUMP JUMPDEST PUSH1 0xFF DUP2 EQ PUSH2 0x4F1 JUMPI PUSH1 0xFF DUP2 AND SWAP1 PUSH1 0x1F DUP3 GT PUSH2 0x4DF JUMPI PUSH1 0x40 MLOAD SWAP2 PUSH2 0x4D5 DUP4 PUSH2 0x45F JUMP JUMPDEST DUP3 MSTORE PUSH1 0x20 DUP3 ADD MSTORE SWAP1 JUMP JUMPDEST PUSH1 0x40 MLOAD PUSH4 0x2CD44AC3 PUSH1 0xE2 SHL DUP2 MSTORE PUSH1 0x4 SWAP1 REVERT JUMPDEST POP PUSH1 0x40 MLOAD PUSH1 0x0 DUP1 SLOAD SWAP1 PUSH1 0x1 DUP3 DUP2 SHR SWAP1 DUP1 DUP5 AND SWAP4 DUP5 ISZERO PUSH2 0x5CF JUMPI JUMPDEST PUSH1 0x20 SWAP5 DUP6 DUP5 LT DUP2 EQ PUSH2 0x5BB JUMPI DUP4 DUP8 MSTORE DUP7 SWAP5 SWAP4 SWAP3 SWAP2 DUP2 ISZERO PUSH2 0x59B JUMPI POP PUSH1 0x1 EQ PUSH2 0x53F JUMPI JUMPDEST POP POP PUSH2 0x53C SWAP3 POP SUB DUP3 PUSH2 0x491 JUMP JUMPDEST SWAP1 JUMP JUMPDEST PUSH1 0x0 DUP1 DUP1 MSTORE PUSH32 0x290DECD9548B62A8D60345A988386FC84BA6BC95484008F6362F93160EF3E563 SWAP6 SWAP4 POP SWAP2 SWAP1 JUMPDEST DUP2 DUP4 LT PUSH2 0x583 JUMPI POP POP PUSH2 0x53C SWAP4 POP DUP3 ADD ADD CODESIZE DUP1 PUSH2 0x52E JUMP JUMPDEST DUP6 SLOAD DUP8 DUP5 ADD DUP6 ADD MSTORE SWAP5 DUP6 ADD SWAP5 DUP7 SWAP5 POP SWAP2 DUP4 ADD SWAP2 PUSH2 0x56B JUMP JUMPDEST SWAP2 POP POP PUSH2 0x53C SWAP5 SWAP3 POP PUSH1 0xFF NOT AND DUP3 DUP5 ADD MSTORE ISZERO ISZERO PUSH1 0x5 SHL DUP3 ADD ADD CODESIZE DUP1 PUSH2 0x52E JUMP JUMPDEST PUSH4 0x4E487B71 PUSH1 0xE0 SHL DUP6 MSTORE PUSH1 0x22 PUSH1 0x4 MSTORE PUSH1 0x24 DUP6 REVERT JUMPDEST SWAP2 PUSH1 0x7F AND SWAP2 PUSH2 0x50B JUMP JUMPDEST PUSH1 0xFF DUP2 EQ PUSH2 0x5FB JUMPI PUSH1 0xFF DUP2 AND SWAP1 PUSH1 0x1F DUP3 GT PUSH2 0x4DF JUMPI PUSH1 0x40 MLOAD SWAP2 PUSH2 0x4D5 DUP4 PUSH2 0x45F JUMP JUMPDEST POP PUSH1 0x40 MLOAD PUSH1 0x0 PUSH1 0x1 SWAP1 DUP2 SLOAD SWAP2 DUP3 DUP2 SHR SWAP1 DUP1 DUP5 AND SWAP4 DUP5 ISZERO PUSH2 0x6A2 JUMPI JUMPDEST PUSH1 0x20 SWAP5 DUP6 DUP5 LT DUP2 EQ PUSH2 0x5BB JUMPI DUP4 DUP8 MSTORE DUP7 SWAP5 SWAP4 SWAP3 SWAP2 DUP2 ISZERO PUSH2 0x59B JUMPI POP PUSH1 0x1 EQ PUSH2 0x646 JUMPI POP POP PUSH2 0x53C SWAP3 POP SUB DUP3 PUSH2 0x491 JUMP JUMPDEST PUSH1 0x0 DUP2 DUP2 MSTORE PUSH32 0xB10E2D527612073B26EECDFD717E6A320CF44B4AFAC2B0732D9FCBE2B7FA0CF6 SWAP6 SWAP4 POP SWAP2 SWAP1 JUMPDEST DUP2 DUP4 LT PUSH2 0x68A JUMPI POP POP PUSH2 0x53C SWAP4 POP DUP3 ADD ADD CODESIZE DUP1 PUSH2 0x52E JUMP JUMPDEST DUP6 SLOAD DUP8 DUP5 ADD DUP6 ADD MSTORE SWAP5 DUP6 ADD SWAP5 DUP7 SWAP5 POP SWAP2 DUP4 ADD SWAP2 PUSH2 0x672 JUMP JUMPDEST SWAP2 PUSH1 0x7F AND SWAP2 PUSH2 0x616 JUMP JUMPDEST PUSH8 0xFFFFFFFFFFFFFFFF DUP2 GT PUSH2 0x47B JUMPI PUSH1 0x1F ADD PUSH1 0x1F NOT AND PUSH1 0x20 ADD SWAP1 JUMP JUMPDEST CALLDATALOAD PUSH1 0x1 PUSH1 0x1 PUSH1 0xA0 SHL SUB DUP2 AND DUP2 SUB PUSH2 0x41A JUMPI SWAP1 JUMP JUMPDEST SWAP1 CALLDATALOAD SWAP1 PUSH1 0x1E NOT DUP2 CALLDATASIZE SUB ADD DUP3 SLT ISZERO PUSH2 0x41A JUMPI ADD DUP1 CALLDATALOAD SWAP1 PUSH8 0xFFFFFFFFFFFFFFFF DUP3 GT PUSH2 0x41A JUMPI PUSH1 0x20 ADD SWAP2 DUP2 CALLDATASIZE SUB DUP4 SGT PUSH2 0x41A JUMPI JUMP JUMPDEST SWAP3 SWAP2 SWAP3 PUSH2 0x71B DUP3 PUSH2 0x6AC JUMP JUMPDEST SWAP2 PUSH2 0x729 PUSH1 0x40 MLOAD SWAP4 DUP5 PUSH2 0x491 JUMP JUMPDEST DUP3 SWAP5 DUP2 DUP5 MSTORE DUP2 DUP4 ADD GT PUSH2 0x41A JUMPI DUP3 DUP2 PUSH1 0x20 SWAP4 DUP5 PUSH1 0x0 SWAP7 ADD CALLDATACOPY ADD ADD MSTORE JUMP JUMPDEST SWAP1 PUSH2 0x750 DUP3 PUSH2 0x6C8 JUMP JUMPDEST SWAP3 PUSH2 0x75D PUSH1 0x20 DUP5 ADD PUSH2 0x6C8 JUMP JUMPDEST SWAP3 PUSH2 0x775 PUSH2 0x76E PUSH1 0xA0 DUP4 ADD DUP4 PUSH2 0x6DC JUMP JUMPDEST CALLDATASIZE SWAP2 PUSH2 0x70F JUMP JUMPDEST PUSH1 0x20 DUP2 MLOAD SWAP2 ADD KECCAK256 SWAP5 PUSH1 0x40 MLOAD SWAP6 PUSH1 0x20 DUP8 ADD SWAP2 PUSH32 0xDD8F4B70B0F4393E889BD39128A30628A78B61816A9EB8199759E7A349657E48 DUP4 MSTORE PUSH1 0x1 DUP1 PUSH1 0xA0 SHL SUB SWAP7 DUP8 DUP1 SWAP3 AND PUSH1 0x40 DUP11 ADD MSTORE AND PUSH1 0x60 DUP9 ADD MSTORE PUSH1 0x40 DUP4 ADD CALLDATALOAD PUSH1 0x80 DUP9 ADD MSTORE PUSH1 0x60 DUP4 ADD CALLDATALOAD PUSH1 0xA0 DUP9 ADD MSTORE PUSH1 0x80 DUP4 ADD CALLDATALOAD PUSH1 0xC0 DUP9 ADD MSTORE PUSH1 0xE0 DUP8 ADD MSTORE PUSH1 0xE0 DUP7 MSTORE PUSH2 0x100 DUP7 ADD SWAP3 DUP7 DUP5 LT PUSH8 0xFFFFFFFFFFFFFFFF DUP6 GT OR PUSH2 0x47B JUMPI PUSH2 0x841 DUP7 SWAP6 PUSH1 0x42 PUSH2 0x847 SWAP5 PUSH2 0x850 SWAP11 PUSH2 0x855 SWAP9 PUSH1 0x40 MSTORE MLOAD SWAP1 KECCAK256 PUSH2 0x821 PUSH2 0x9AD JUMP JUMPDEST SWAP1 PUSH1 0x40 MLOAD SWAP2 PUSH2 0x1901 PUSH1 0xF0 SHL DUP4 MSTORE PUSH1 0x2 DUP4 ADD MSTORE PUSH1 0x22 DUP3 ADD MSTORE KECCAK256 SWAP3 CALLDATASIZE SWAP2 PUSH2 0x70F JUMP JUMPDEST SWAP1 PUSH2 0x85C JUMP JUMPDEST SWAP1 SWAP7 SWAP2 SWAP7 PUSH2 0x928 JUMP JUMPDEST PUSH2 0x6C8 JUMP JUMPDEST AND SWAP2 AND EQ SWAP1 JUMP JUMPDEST DUP2 MLOAD SWAP2 SWAP1 PUSH1 0x41 DUP4 SUB PUSH2 0x88D JUMPI PUSH2 0x886 SWAP3 POP PUSH1 0x20 DUP3 ADD MLOAD SWAP1 PUSH1 0x60 PUSH1 0x40 DUP5 ADD MLOAD SWAP4 ADD MLOAD PUSH1 0x0 BYTE SWAP1 PUSH2 0x898 JUMP JUMPDEST SWAP2 SWAP3 SWAP1 SWAP2 SWAP1 JUMP JUMPDEST POP POP PUSH1 0x0 SWAP2 PUSH1 0x2 SWAP2 SWAP1 JUMP JUMPDEST SWAP2 SWAP1 PUSH32 0x7FFFFFFFFFFFFFFFFFFFFFFFFFFFFFFF5D576E7357A4501DDFE92F46681B20A0 DUP5 GT PUSH2 0x91C JUMPI SWAP3 PUSH1 0x20 SWAP3 SWAP2 PUSH1 0xFF PUSH1 0x80 SWAP6 PUSH1 0x40 MLOAD SWAP5 DUP6 MSTORE AND DUP5 DUP5 ADD MSTORE PUSH1 0x40 DUP4 ADD MSTORE PUSH1 0x60 DUP3 ADD MSTORE PUSH1 0x0 SWAP3 DUP4 SWAP2 DUP3 DUP1 MSTORE PUSH1 0x1 GAS STATICCALL ISZERO PUSH2 0x910 JUMPI DUP1 MLOAD PUSH1 0x1 PUSH1 0x1 PUSH1 0xA0 SHL SUB DUP2 AND ISZERO PUSH2 0x907 JUMPI SWAP2 DUP2 SWAP1 JUMP JUMPDEST POP DUP1 SWAP2 PUSH1 0x1 SWAP2 SWAP1 JUMP JUMPDEST PUSH1 0x40 MLOAD SWAP1 RETURNDATASIZE SWAP1 DUP3 RETURNDATACOPY RETURNDATASIZE SWAP1 REVERT JUMPDEST POP POP POP PUSH1 0x0 SWAP2 PUSH1 0x3 SWAP2 SWAP1 JUMP JUMPDEST PUSH1 0x4 DUP2 LT ISZERO PUSH2 0x997 JUMPI DUP1 PUSH2 0x93A JUMPI POP POP JUMP JUMPDEST PUSH1 0x1 DUP2 SUB PUSH2 0x954 JUMPI PUSH1 0x40 MLOAD PUSH4 0xF645EEDF PUSH1 0xE0 SHL DUP2 MSTORE PUSH1 0x4 SWAP1 REVERT JUMPDEST PUSH1 0x2 DUP2 SUB PUSH2 0x975 JUMPI PUSH1 0x40 MLOAD PUSH4 0xFCE698F7 PUSH1 0xE0 SHL DUP2 MSTORE PUSH1 0x4 DUP2 ADD DUP4 SWAP1 MSTORE PUSH1 0x24 SWAP1 REVERT JUMPDEST PUSH1 0x3 EQ PUSH2 0x97F JUMPI POP JUMP JUMPDEST PUSH1 0x24 SWAP1 PUSH1 0x40 MLOAD SWAP1 PUSH4 0x35E2F383 PUSH1 0xE2 SHL DUP3 MSTORE PUSH1 0x4 DUP3 ADD MSTORE REVERT JUMPDEST PUSH4 0x4E487B71 PUSH1 0xE0 SHL PUSH1 0x0 MSTORE PUSH1 0x21 PUSH1 0x4 MSTORE PUSH1 0x24 PUSH1 0x0 REVERT JUMPDEST ADDRESS PUSH32 0x0 PUSH1 0x1 PUSH1 0x1 PUSH1 0xA0 SHL SUB AND EQ DUP1 PUSH2 0xAAF JUMPI JUMPDEST ISZERO PUSH2 0xA08 JUMPI PUSH32 0x0 SWAP1 JUMP JUMPDEST PUSH1 0x40 MLOAD PUSH1 0x20 DUP2 ADD SWAP1 PUSH32 0x8B73C3C69BB8FE3D512ECC4CF759CC79239F7B179B0FFACAA9A75D522B39400F DUP3 MSTORE PUSH32 0x0 PUSH1 0x40 DUP3 ADD MSTORE PUSH32 0x0 PUSH1 0x60 DUP3 ADD MSTORE CHAINID PUSH1 0x80 DUP3 ADD MSTORE ADDRESS PUSH1 0xA0 DUP3 ADD MSTORE PUSH1 0xA0 DUP2 MSTORE PUSH1 0xC0 DUP2 ADD DUP2 DUP2 LT PUSH8 0xFFFFFFFFFFFFFFFF DUP3 GT OR PUSH2 0x47B JUMPI PUSH1 0x40 MSTORE MLOAD SWAP1 KECCAK256 SWAP1 JUMP JUMPDEST POP PUSH32 0x0 CHAINID EQ PUSH2 0x9DF JUMP INVALID LOG1 PUSH5 0x736F6C6343 STOP ADDMOD EQ STOP EXP "},"methodIdentifiers":{"eip712Domain()":"84b0196e","execute((address,address,uint256,uint256,uint256,bytes),bytes)":"47153f82","getNonce(address)":"2d0335ab","verify((address,address,uint256,uint256,uint256,bytes),bytes)":"bf5d3bdb"}}}}}