{"src/contracts/SoulboundToken.sol":{"SoulboundToken":{"abi":[{"inputs":[{"internalType":"string","name":"name","type":"string"},{"internalType":"string","name":"symbol","type":"string"},{"internalType":"string","name":"_baseURI","type":"string"}],"stateMutability":"nonpayable","type":"constructor"},{"inputs":[{"internalType":"address","name":"sender","type":"address"},{"internalType":"uint256","name":"tokenId","type":"uint256"},{"internalType":"address","name":"owner","type":"address"}],"name":"ERC721IncorrectOwner","type":"error"},{"inputs":[{"internalType":"address","name":"operator","type":"address"},{"internalType":"uint256","name":"tokenId","type":"uint256"}],"name":"ERC721InsufficientApproval","type":"error"},{"inputs":[{"internalType":"address","name":"approver","type":"address"}],"name":"ERC721InvalidApprover","type":"error"},{"inputs":[{"internalType":"address","name":"operator","type":"address"}],"name":"ERC721InvalidOperator","type":"error"},{"inputs":[{"internalType":"address","name":"owner","type":"address"}],"name":"ERC721InvalidOwner","type":"error"},{"inputs":[{"internalType":"address","name":"receiver","type":"address"}],"name":"ERC721InvalidReceiver","type":"error"},{"inputs":[{"internalType":"address","name":"sender","type":"address"}],"name":"ERC721InvalidSender","type":"error"},{"inputs":[{"internalType":"uint256","name":"tokenId","type":"uint256"}],"name":"ERC721NonexistentToken","type":"error"},{"inputs":[{"internalType":"address","name":"owner","type":"address"}],"name":"OwnableInvalidOwner","type":"error"},{"inputs":[{"internalType":"address","name":"account","type":"address"}],"name":"OwnableUnauthorizedAccount","type":"error"},{"anonymous":false,"inputs":[{"indexed":true,"internalType":"address","name":"owner","type":"address"},{"indexed":true,"internalType":"address","name":"approved","type":"address"},{"indexed":true,"internalType":"uint256","name":"tokenId","type":"uint256"}],"name":"Approval","type":"event"},{"anonymous":false,"inputs":[{"indexed":true,"internalType":"address","name":"owner","type":"address"},{"indexed":true,"internalType":"address","name":"operator","type":"address"},{"indexed":false,"internalType":"bool","name":"approved","type":"bool"}],"name":"ApprovalForAll","type":"event"},{"anonymous":false,"inputs":[{"indexed":true,"internalType":"uint256","name":"tokenId","type":"uint256"},{"indexed":true,"internalType":"address","name":"to","type":"address"},{"indexed":false,"internalType":"string","name":"metadata","type":"string"}],"name":"Issued","type":"event"},{"anonymous":false,"inputs":[{"indexed":true,"internalType":"address","name":"previousOwner","type":"address"},{"indexed":true,"internalType":"address","name":"newOwner","type":"address"}],"name":"OwnershipTransferred","type":"event"},{"anonymous":false,"inputs":[{"indexed":true,"internalType":"uint256","name":"tokenId","type":"uint256"}],"name":"Revoked","type":"event"},{"anonymous":false,"inputs":[{"indexed":true,"internalType":"address","name":"from","type":"address"},{"indexed":true,"internalType":"address","name":"to","type":"address"},{"indexed":true,"internalType":"uint256","name":"tokenId","type":"uint256"}],"name":"Transfer","type":"event"},{"inputs":[{"internalType":"address","name":"to","type":"address"},{"internalType":"uint256","name":"tokenId","type":"uint256"}],"name":"approve","outputs":[],"stateMutability":"nonpayable","type":"function"},{"inputs":[{"internalType":"address","name":"owner","type":"address"}],"name":"balanceOf","outputs":[{"internalType":"uint256","name":"","type":"uint256"}],"stateMutability":"view","type":"function"},{"inputs":[],"name":"baseURI","outputs":[{"internalType":"string","name":"","type":"string"}],"stateMutability":"view","type":"function"},{"inputs":[{"internalType":"uint256","name":"tokenId","type":"uint256"}],"name":"getApproved","outputs":[{"internalType":"address","name":"","type":"address"}],"stateMutability":"view","type":"function"},{"inputs":[{"internalType":"uint256","name":"tokenId","type":"uint256"}],"name":"getMetadata","outputs":[{"internalType":"string","name":"","type":"string"}],"stateMutability":"view","type":"function"},{"inputs":[{"internalType":"address","name":"owner","type":"address"},{"internalType":"address","name":"operator","type":"address"}],"name":"isApprovedForAll","outputs":[{"internalType":"bool","name":"","type":"bool"}],"stateMutability":"view","type":"function"},{"inputs":[{"internalType":"address","name":"to","type":"address"},{"internalType":"string","name":"metadata","type":"string"}],"name":"issue","outputs":[{"internalType":"uint256","name":"","type":"uint256"}],"stateMutability":"nonpayable","type":"function"},{"inputs":[],"name":"name","outputs":[{"internalType":"string","name":"","type":"string"}],"stateMutability":"view","type":"function"},{"inputs":[],"name":"owner","outputs":[{"internalType":"address","name":"","type":"address"}],"stateMutability":"view","type":"function"},{"inputs":[{"internalType":"uint256","name":"tokenId","type":"uint256"}],"name":"ownerOf","outputs":[{"internalType":"address","name":"","type":"address"}],"stateMutability":"view","type":"function"},{"inputs":[],"name":"renounceOwnership","outputs":[],"stateMutability":"nonpayable","type":"function"},{"inputs":[{"internalType":"uint256","name":"tokenId","type":"uint256"}],"name":"revoke","outputs":[],"stateMutability":"nonpayable","type":"function"},{"inputs":[{"internalType":"address","name":"from","type":"address"},{"internalType":"address","name":"to","type":"address"},{"internalType":"uint256","name":"tokenId","type":"uint256"}],"name":"safeTransferFrom","outputs":[],"stateMutability":"nonpayable","type":"function"},{"inputs":[{"internalType":"address","name":"from","type":"address"},{"internalType":"address","name":"to","type":"address"},{"internalType":"uint256","name":"tokenId","type":"uint256"},{"internalType":"bytes","name":"data","type":"bytes"}],"name":"safeTransferFrom","outputs":[],"stateMutability":"nonpayable","type":"function"},{"inputs":[{"internalType":"address","name":"operator","type":"address"},{"internalType":"bool","name":"approved","type":"bool"}],"name":"setApprovalForAll","outputs":[],"stateMutability":"nonpayable","type":"function"},{"inputs":[{"internalType":"string","name":"_baseURI","type":"string"}],"name":"setBaseURI","outputs":[],"stateMutability":"nonpayable","type":"function"},{"inputs":[{"internalType":"bytes4","name":"interfaceId","type":"bytes4"}],"name":"supportsInterface","outputs":[{"internalType":"bool","name":"","type":"bool"}],"stateMutability":"view","type":"function"},{"inputs":[],"name":"symbol","outputs":[{"internalType":"string","name":"","type":"string"}],"stateMutability":"view","type":"function"},{"inputs":[{"internalType":"uint256","name":"","type":"uint256"}],"name":"tokenMetadata","outputs":[{"internalType":"string","name":"","type":"string"}],"stateMutability":"view","type":"function"},{"inputs":[{"internalType":"uint256","name":"tokenId","type":"uint256"}],"name":"tokenURI","outputs":[{"internalType":"string","name":"","type":"string"}],"stateMutability":"view","type":"function"},{"inputs":[{"internalType":"address","name":"from","type":"address"},{"internalType":"address","name":"to","type":"address"},{"internalType":"uint256","name":"tokenId","type":"uint256"}],"name":"transferFrom","outputs":[],"stateMutability":"nonpayable","type":"function"},{"inputs":[{"internalType":"address","name":"newOwner","type":"address"}],"name":"transferOwnership","outputs":[],"stateMutability":"nonpayable","type":"function"}],"evm":{"bytecode":{"linkReferences":{},"object":"608060405234620004df5762001eab803803806200001d81620004e4565b9283398101606082820312620004df5781516001600160401b039190828111620004df57816200004f9185016200050a565b9060209384810151848111620004df57826200006d9183016200050a565b916040820151858111620004df576200008792016200050a565b825191848311620004c9576000908154936001958686811c96168015620004be575b89871014620003c8578190601f968781116200046b575b50899087831160011462000407578592620003fb575b5050600019600383901b1c191690861b1782555b805190868211620003e75785548681811c91168015620003dc575b89821014620003c85790818684931162000375575b5088908683116001146200031157849262000305575b5050600019600383901b1c191690851b1784555b3315620002ed5760068054336001600160a01b0319821681179092556001600160a01b03167f8be0079c531659141344cd1fd0a4f28419497f9722a3daafe3b4186f6b6457e08380a3836007558151948511620002d9576008548481811c91168015620002ce575b87821014620002ba5783811162000271575b508592851160011462000208579394508492919083620001fc575b50501b916000199060031b1c1916176008555b60405161192e90816200057d8239f35b015192503880620001d9565b6008815285812093958591601f198316915b888383106200025657505050106200023c575b505050811b01600855620001ec565b015160001960f88460031b161c191690553880806200022d565b8587015188559096019594850194879350908101906200021a565b600882528682208480880160051c820192898910620002b0575b0160051c019085905b828110620002a4575050620001be565b83815501859062000294565b925081926200028b565b634e487b7160e01b82526022600452602482fd5b90607f1690620001ac565b634e487b7160e01b81526041600452602490fd5b60249060405190631e4fbdf760e01b82526004820152fd5b01519050388062000130565b8785528985208894509190601f198416865b8c8282106200035e575050841162000344575b505050811b01845562000144565b015160001960f88460031b161c1916905538808062000336565b8385015186558b9790950194938401930162000323565b9091508684528884208680850160051c8201928b8610620003be575b918991869594930160051c01915b828110620003af5750506200011a565b8681558594508991016200039f565b9250819262000391565b634e487b7160e01b84526022600452602484fd5b90607f169062000105565b634e487b7160e01b83526041600452602483fd5b015190503880620000d6565b8580528a86208994509190601f198416875b8d8282106200045457505084116200043a575b505050811b018255620000ea565b015160001960f88460031b161c191690553880806200042c565b8385015186558c9790950194938401930162000419565b9091508480528985208780850160051c8201928c8610620004b4575b918a91869594930160051c01915b828110620004a5575050620000c0565b8781558594508a910162000495565b9250819262000487565b95607f1695620000a9565b634e487b7160e01b600052604160045260246000fd5b600080fd5b6040519190601f01601f191682016001600160401b03811183821017620004c957604052565b919080601f84011215620004df5782516001600160401b038111620004c95760209062000540601f8201601f19168301620004e4565b92818452828287010111620004df5760005b8181106200056857508260009394955001015290565b85810183015184820184015282016200055256fe6080604081815260048036101561001557600080fd5b600092833560e01c90816301ffc9a7146110065750806304b444d914610b8457806306fdde0314610adc578063081812fc14610aa1578063095ea7b3146109c557806320c5429b146107eb57806323b872dd146107d357806342842e0e146107a457806355f804b3146106425780636352211e146106115780636914db60146105e85780636c0360eb1461055057806370a08231146104fb578063715018a61461049e5780638da5cb5b1461047557806395d89b4114610392578063a22cb465146102f1578063a574cea4146102a7578063b88d4fde14610234578063c87b56dd146101f9578063e985e9c5146101a75763f2fde38b1461011557600080fd5b346101a35760203660031901126101a35761012e611072565b906101376112c5565b6001600160a01b0391821692831561018d575050600654826bffffffffffffffffffffffff60a01b821617600655167f8be0079c531659141344cd1fd0a4f28419497f9722a3daafe3b4186f6b6457e08380a380f35b51631e4fbdf760e01b8152908101849052602490fd5b8280fd5b5050346101f557806003193601126101f55760ff816020936101c7611072565b6101cf61108d565b6001600160a01b0391821683526005875283832091168252855220549151911615158152f35b5080fd5b509134610231576020366003190112610231575061021a61022d9235611709565b905191829160208352602083019061118b565b0390f35b80fd5b8382346101f55760803660031901126101f55761024f611072565b61025761108d565b6044359060643567ffffffffffffffff81116102a357366023820112156102a3576102a09481602461028e93369301359101611113565b9261029a8383836112f1565b33611540565b80f35b8580fd5b50346101a35760203660031901126101a3573580835260026020528183205461022d9361021a9284926102e4906001600160a01b031615156116c6565b815260096020522061121f565b5090346101a357806003193601126101a35761030b611072565b906024359182151580930361038e576001600160a01b03169283156103795750338452600560205280842083855260205280842060ff1981541660ff8416179055519081527f17307eab39ab6107e8899845ad3d59bd9653f200f220920489ca2b5937696c3160203392a380f35b836024925191630b61174360e31b8352820152fd5b8480fd5b5050346101f557816003193601126101f5578051908260018054916103b6836111e5565b8086529282811690811561044d57506001146103f1575b5050506103df8261022d9403836110d5565b5191829160208352602083019061118b565b94508085527fb10e2d527612073b26eecdfd717e6a320cf44b4afac2b0732d9fcbe2b7fa0cf65b828610610435575050506103df82602061022d95820101946103cd565b80546020878701810191909152909501948101610418565b61022d9750869350602092506103df94915060ff191682840152151560051b820101946103cd565b5050346101f557816003193601126101f55760065490516001600160a01b039091168152602090f35b83346102315780600319360112610231576104b76112c5565b600680546001600160a01b0319811690915581906001600160a01b03167f8be0079c531659141344cd1fd0a4f28419497f9722a3daafe3b4186f6b6457e08280a380f35b509134610231576020366003190112610231576001600160a01b0361051e611072565b1692831561053b5750806020938392526003845220549051908152f35b91516322718ad960e21b815291820152602490fd5b5050346101f557816003193601126101f55780519082600854610572816111e5565b8085529160019180831690811561044d575060011461059d575050506103df8261022d9403836110d5565b9450600885526000805160206119028339815191525b8286106105d0575050506103df82602061022d95820101946103cd565b805460208787018101919091529095019481016105b3565b50346101a35760203660031901126101a3578161022d9361021a9235815260096020522061121f565b509134610231576020366003190112610231575061063160209235611505565b90516001600160a01b039091168152f35b508234610231576020806003193601126101f55767ffffffffffffffff9083358281116107a057610676903690860161114a565b9361067f6112c5565b845192831161078d57506106946008546111e5565b601f8111610747575b5080601f83116001146106d8575082938293926106cd575b50508160011b916000199060031b1c19161760085580f35b0151905083806106b5565b60088452601f19831694600080516020611902833981519152929185905b87821061072f575050836001959610610716575b505050811b0160085580f35b015160001960f88460031b161c1916905583808061070a565b806001859682949686015181550195019301906106f6565b61077d9060088552600080516020611902833981519152601f850160051c810191848610610783575b601f0160051c01906116af565b8461069d565b9091508190610770565b634e487b7160e01b845260419052602483fd5b8380fd5b5050346101f5576102a0906107b8366111b0565b919251926107c5846110a3565b85845261029a8383836112f1565b8334610231576102a06107e5366111b0565b916112f1565b5090346101a357602090816003193601126107a05782359261080b6112c5565b83855260028352818520546001600160a01b039061082c90821615156116c6565b848652600284528083872054161515806109be575b61096d578486526002845282862054168486821592831561093a575b8282526002875285822080546001600160a01b03191690557fddf252ad1be2c89b69c2b068fc378daa952ba7f163c4a11628f55a4df523b3ef8280a46109255750908391838352600982528220906108b582546111e5565b90816108e6575b505050807f61e27b0bfd8e18e6b92ec32ce1c28bb698d27bfe93e84c7e94d4db0a3135c76091a280f35b8390601f831160011461090157505050555b813880806108bc565b838252812092909161091e90601f0160051c8401600185016116af565b55556108f8565b836024925191637e27328960e01b8352820152fd5b600083815260046020526040902080546001600160a01b031916905580825260038752858220805460001901905561085d565b5082608492519162461bcd60e51b8352820152602660248201527f536f756c626f756e6420746f6b656e732063616e6e6f74206265207472616e7360448201526519995c9c995960d21b6064820152fd5b5085610841565b5090346101a357806003193601126101a3576109df611072565b916024356109ec81611505565b33151580610a8e575b80610a65575b610a4f576001600160a01b039485169482918691167f8c5be1e5ebec7d5bd14f71427d1e84f3dd0314c0f7b2291e5b200ac8c7c3b9258880a48452602052822080546001600160a01b031916909117905580f35b835163a9fbf51f60e01b81523381850152602490fd5b506001600160a01b03811686526005602090815284872033885290528386205460ff16156109fb565b506001600160a01b0381163314156109f5565b50346101a35760203660031901126101a357918260209335610ac281611505565b50825283528190205490516001600160a01b039091168152f35b5050346101f557816003193601126101f557805190828054610afd816111e5565b8085529160019180831690811561044d5750600114610b28575050506103df8261022d9403836110d5565b80809650527f290decd9548b62a8d60345a988386fc84ba6bc95484008f6362f93160ef3e5635b828610610b6c575050506103df82602061022d95820101946103cd565b80546020878701810191909152909501948101610b4f565b5090346101a357806003193601126101a357610b9e611072565b9160249067ffffffffffffffff90823582811161100257610bc2903690830161114a565b91610bcb6112c5565b6001600160a01b0396868816948515610fcc5760075497610beb8961168a565b600755875190610bfa826110a3565b83825289845260209a60028c52808a86205416151580610fc4575b610f735790898b8a879695948f9883905260028952838820541660028115159485610f40575b838a5260038b52892080546001908101909155848a5299528d882080546001600160a01b031916831790557fddf252ad1be2c89b69c2b068fc378daa952ba7f163c4a11628f55a4df523b3ef8880a4610f2a573b610e02575b5088825260098a52878220948651948511610df157505090839291610cbb899695546111e5565b601f8111610dc3575b508990601f8411600114610d3a579280610d26959381937f381b3c2768bc16c7296e77b51cac213d6e8331455193be573ca09ebc9808d71f989693610d2f575b501b916000199060031b1c19161790555b85519182918983528983019061118b565b0390a351908152f35b860151925038610d04565b90601f9392931983168583528b8320925b8c828210610dac575050918391610d2696947f381b3c2768bc16c7296e77b51cac213d6e8331455193be573ca09ebc9808d71f98969410610d93575b5050811b019055610d15565b85015160001960f88460031b161c191690553880610d87565b8884015185558c9950938601939283019201610d4b565b610deb908583528b8320601f860160051c8101918d871061078357601f0160051c01906116af565b38610cc4565b634e487b7160e01b83526041905281fd5b94610e4a8b839c978a8680869f9a989c99978f9e9f5196879586948593630a85bd0160e11b9b8c865233908601528401528d604484015260806064840152608483019061118b565b03925af1889181610ee6575b50610eb2575050505050503d600014610ea9573d610e73816110f7565b90610e80855192836110d5565b81528092823d92013e5b81519182610ea6575050505191633250574960e11b8352820152fd5b01fd5b60609150610e8a565b63ffffffff60e09c93959894969b979c9a999a1b1603610ed25738610c94565b8751633250574960e11b8152808601889052fd5b9091508781813d8311610f23575b610efe81836110d5565b81010312610f1f57516001600160e01b031981168103610f1f579038610e56565b8880fd5b503d610ef4565b89516339e3563760e11b81528088018590528390fd5b600085815260046020526040902080546001600160a01b0319169055828a5260038b52808a208054600019019055610c3b565b895162461bcd60e51b81528088018d90526026818601527f536f756c626f756e6420746f6b656e732063616e6e6f74206265207472616e7360448201526519995c9c995960d21b6064820152608490fd5b506001610c15565b83601160649260208a519362461bcd60e51b855284015282015270125b9d985b1a59081c9958da5c1a595b9d607a1b6044820152fd5b8680fd5b925050346101a35760203660031901126101a3573563ffffffff60e01b81168091036101a357602092506380ac58cd60e01b8114908115611061575b8115611050575b5015158152f35b6301ffc9a760e01b14905038611049565b635b5e139f60e01b81149150611042565b600435906001600160a01b038216820361108857565b600080fd5b602435906001600160a01b038216820361108857565b6020810190811067ffffffffffffffff8211176110bf57604052565b634e487b7160e01b600052604160045260246000fd5b90601f8019910116810190811067ffffffffffffffff8211176110bf57604052565b67ffffffffffffffff81116110bf57601f01601f191660200190565b92919261111f826110f7565b9161112d60405193846110d5565b829481845281830111611088578281602093846000960137010152565b9080601f830112156110885781602061116593359101611113565b90565b60005b83811061117b5750506000910152565b818101518382015260200161116b565b906020916111a481518092818552858086019101611168565b601f01601f1916010190565b6060906003190112611088576001600160a01b0390600435828116810361108857916024359081168103611088579060443590565b90600182811c92168015611215575b60208310146111ff57565b634e487b7160e01b600052602260045260246000fd5b91607f16916111f4565b9060405191826000825492611233846111e5565b9081845260019485811690816000146112a2575060011461125f575b505061125d925003836110d5565b565b9093915060005260209081600020936000915b81831061128a57505061125d9350820101388061124f565b85548884018501529485019487945091830191611272565b91505061125d94506020925060ff191682840152151560051b820101388061124f565b6006546001600160a01b031633036112d957565b60405163118cdaa760e01b8152336004820152602490fd5b6001600160a01b0391821692909183156114ec57600092828452602094600286526040958387872054161515806114e4575b6114925790849182875260028152848888205416968791331515806113fc575b509060027fddf252ad1be2c89b69c2b068fc378daa952ba7f163c4a11628f55a4df523b3ef92846113c9575b858352600381528b8320805460010190558683525289812080546001600160a01b0319168517905580a416928383036113a85750505050565b6064945051926364283d7b60e01b8452600484015260248301526044820152fd5b600087815260046020526040902080546001600160a01b0319169055848352600381528b8320805460001901905561136f565b91939450915080611451575b1561141857859291879138611343565b878688611435576024915190637e27328960e01b82526004820152fd5b604491519063177e802f60e01b82523360048301526024820152fd5b503387148015611476575b806114085750858252600481523385898420541614611408565b5086825260058152878220338352815260ff888320541661145c565b60849087519062461bcd60e51b82526004820152602660248201527f536f756c626f756e6420746f6b656e732063616e6e6f74206265207472616e7360448201526519995c9c995960d21b6064820152fd5b506001611323565b604051633250574960e11b815260006004820152602490fd5b6000818152600260205260409020546001600160a01b0316908115611528575090565b60249060405190637e27328960e01b82526004820152fd5b90939192833b611552575b5050505050565b604051630a85bd0160e11b8082526001600160a01b03938416600483015295831660248201526044810191909152608060648201529492169260209291859061159f90608483019061118b565b039483816000978189895af186918161164a575b50611614575050503d60001461160b573d6115cd816110f7565b906115db60405192836110d5565b81528093823d92013e5b8251928361160657604051633250574960e11b815260048101849052602490fd5b019050fd5b606092506115e5565b919450915063ffffffff60e01b16036116325750388080808061154b565b60249060405190633250574960e11b82526004820152fd5b9091508481813d8311611683575b61166281836110d5565b8101031261100257516001600160e01b0319811681036110025790386115b3565b503d611658565b60001981146116995760010190565b634e487b7160e01b600052601160045260246000fd5b8181106116ba575050565b600081556001016116af565b156116cd57565b60405162461bcd60e51b8152602060048201526014602482015273151bdad95b88191bd95cc81b9bdd08195e1a5cdd60621b6044820152606490fd5b61171281611505565b5060085490611720826111e5565b156118005761172e90611815565b604051809260009061173f816111e5565b906001908181169081156117db575060011461178c575b50509060208261177185600595611165975194859201611168565b0164173539b7b760d91b815203601a198101845201826110d5565b600860009081529192506000805160206119028339815191525b8383106117c0575050508101602090810190611165611756565b805460208489018101919091528795509092019181016117a6565b60ff191660208087019190915283151590930285018301935061116591506117569050565b505060405161180e816110a3565b6000815290565b80156118d257600081805b6118be575061182e816110f7565b9061183c60405192836110d5565b808252601f1961184b826110f7565b013660208401375b809280156118b7576000198201918211611699578193600a92603090848406820180921161169957855111156118a15760f81b6001600160f81b03191660001a908401601f01530491611853565b634e487b7160e01b600052603260045260246000fd5b5050905090565b906118ca600a9161168a565b910480611820565b506040516040810181811067ffffffffffffffff8211176110bf5760405260018152600360fc1b60208201529056fef3f7a9fe364faab93b216da50a3214154f22a0a2b415b23a84c8169e8b636ee3a164736f6c6343000814000a","opcodes":"PUSH1 0x80 PUSH1 0x40 MSTORE CALLVALUE PUSH3 0x4DF JUMPI PUSH3 0x1EAB DUP1 CODESIZE SUB DUP1 PUSH3 0x1D DUP2 PUSH3 0x4E4 JUMP JUMPDEST SWAP3 DUP4 CODECOPY DUP2 ADD PUSH1 0x60 DUP3 DUP3 SUB SLT PUSH3 0x4DF JUMPI DUP2 MLOAD PUSH1 0x1 PUSH1 0x1 PUSH1 0x40 SHL SUB SWAP2 SWAP1 DUP3 DUP2 GT PUSH3 0x4DF JUMPI DUP2 PUSH3 0x4F SWAP2 DUP6 ADD PUSH3 0x50A JUMP JUMPDEST SWAP1 PUSH1 0x20 SWAP4 DUP5 DUP2 ADD MLOAD DUP5 DUP2 GT PUSH3 0x4DF JUMPI DUP3 PUSH3 0x6D SWAP2 DUP4 ADD PUSH3 0x50A JUMP JUMPDEST SWAP2 PUSH1 0x40 DUP3 ADD MLOAD DUP6 DUP2 GT PUSH3 0x4DF JUMPI PUSH3 0x87 SWAP3 ADD PUSH3 0x50A JUMP JUMPDEST DUP3 MLOAD SWAP2 DUP5 DUP4 GT PUSH3 0x4C9 JUMPI PUSH1 0x0 SWAP1 DUP2 SLOAD SWAP4 PUSH1 0x1 SWAP6 DUP7 DUP7 DUP2 SHR SWAP7 AND DUP1 ISZERO PUSH3 0x4BE JUMPI JUMPDEST DUP10 DUP8 LT EQ PUSH3 0x3C8 JUMPI DUP2 SWAP1 PUSH1 0x1F SWAP7 DUP8 DUP2 GT PUSH3 0x46B JUMPI JUMPDEST POP DUP10 SWAP1 DUP8 DUP4 GT PUSH1 0x1 EQ PUSH3 0x407 JUMPI DUP6 SWAP3 PUSH3 0x3FB JUMPI JUMPDEST POP POP PUSH1 0x0 NOT PUSH1 0x3 DUP4 SWAP1 SHL SHR NOT AND SWAP1 DUP7 SHL OR DUP3 SSTORE JUMPDEST DUP1 MLOAD SWAP1 DUP7 DUP3 GT PUSH3 0x3E7 JUMPI DUP6 SLOAD DUP7 DUP2 DUP2 SHR SWAP2 AND DUP1 ISZERO PUSH3 0x3DC JUMPI JUMPDEST DUP10 DUP3 LT EQ PUSH3 0x3C8 JUMPI SWAP1 DUP2 DUP7 DUP5 SWAP4 GT PUSH3 0x375 JUMPI JUMPDEST POP DUP9 SWAP1 DUP7 DUP4 GT PUSH1 0x1 EQ PUSH3 0x311 JUMPI DUP5 SWAP3 PUSH3 0x305 JUMPI JUMPDEST POP POP PUSH1 0x0 NOT PUSH1 0x3 DUP4 SWAP1 SHL SHR NOT AND SWAP1 DUP6 SHL OR DUP5 SSTORE JUMPDEST CALLER ISZERO PUSH3 0x2ED JUMPI PUSH1 0x6 DUP1 SLOAD CALLER PUSH1 0x1 PUSH1 0x1 PUSH1 0xA0 SHL SUB NOT DUP3 AND DUP2 OR SWAP1 SWAP3 SSTORE PUSH1 0x1 PUSH1 0x1 PUSH1 0xA0 SHL SUB AND PUSH32 0x8BE0079C531659141344CD1FD0A4F28419497F9722A3DAAFE3B4186F6B6457E0 DUP4 DUP1 LOG3 DUP4 PUSH1 0x7 SSTORE DUP2 MLOAD SWAP5 DUP6 GT PUSH3 0x2D9 JUMPI PUSH1 0x8 SLOAD DUP5 DUP2 DUP2 SHR SWAP2 AND DUP1 ISZERO PUSH3 0x2CE JUMPI JUMPDEST DUP8 DUP3 LT EQ PUSH3 0x2BA JUMPI DUP4 DUP2 GT PUSH3 0x271 JUMPI JUMPDEST POP DUP6 SWAP3 DUP6 GT PUSH1 0x1 EQ PUSH3 0x208 JUMPI SWAP4 SWAP5 POP DUP5 SWAP3 SWAP2 SWAP1 DUP4 PUSH3 0x1FC JUMPI JUMPDEST POP POP SHL SWAP2 PUSH1 0x0 NOT SWAP1 PUSH1 0x3 SHL SHR NOT AND OR PUSH1 0x8 SSTORE JUMPDEST PUSH1 0x40 MLOAD PUSH2 0x192E SWAP1 DUP2 PUSH3 0x57D DUP3 CODECOPY RETURN JUMPDEST ADD MLOAD SWAP3 POP CODESIZE DUP1 PUSH3 0x1D9 JUMP JUMPDEST PUSH1 0x8 DUP2 MSTORE DUP6 DUP2 KECCAK256 SWAP4 SWAP6 DUP6 SWAP2 PUSH1 0x1F NOT DUP4 AND SWAP2 JUMPDEST DUP9 DUP4 DUP4 LT PUSH3 0x256 JUMPI POP POP POP LT PUSH3 0x23C JUMPI JUMPDEST POP POP POP DUP2 SHL ADD PUSH1 0x8 SSTORE PUSH3 0x1EC JUMP JUMPDEST ADD MLOAD PUSH1 0x0 NOT PUSH1 0xF8 DUP5 PUSH1 0x3 SHL AND SHR NOT AND SWAP1 SSTORE CODESIZE DUP1 DUP1 PUSH3 0x22D JUMP JUMPDEST DUP6 DUP8 ADD MLOAD DUP9 SSTORE SWAP1 SWAP7 ADD SWAP6 SWAP5 DUP6 ADD SWAP5 DUP8 SWAP4 POP SWAP1 DUP2 ADD SWAP1 PUSH3 0x21A JUMP JUMPDEST PUSH1 0x8 DUP3 MSTORE DUP7 DUP3 KECCAK256 DUP5 DUP1 DUP9 ADD PUSH1 0x5 SHR DUP3 ADD SWAP3 DUP10 DUP10 LT PUSH3 0x2B0 JUMPI JUMPDEST ADD PUSH1 0x5 SHR ADD SWAP1 DUP6 SWAP1 JUMPDEST DUP3 DUP2 LT PUSH3 0x2A4 JUMPI POP POP PUSH3 0x1BE JUMP JUMPDEST DUP4 DUP2 SSTORE ADD DUP6 SWAP1 PUSH3 0x294 JUMP JUMPDEST SWAP3 POP DUP2 SWAP3 PUSH3 0x28B JUMP JUMPDEST PUSH4 0x4E487B71 PUSH1 0xE0 SHL DUP3 MSTORE PUSH1 0x22 PUSH1 0x4 MSTORE PUSH1 0x24 DUP3 REVERT JUMPDEST SWAP1 PUSH1 0x7F AND SWAP1 PUSH3 0x1AC JUMP JUMPDEST PUSH4 0x4E487B71 PUSH1 0xE0 SHL DUP2 MSTORE PUSH1 0x41 PUSH1 0x4 MSTORE PUSH1 0x24 SWAP1 REVERT JUMPDEST PUSH1 0x24 SWAP1 PUSH1 0x40 MLOAD SWAP1 PUSH4 0x1E4FBDF7 PUSH1 0xE0 SHL DUP3 MSTORE PUSH1 0x4 DUP3 ADD MSTORE REVERT JUMPDEST ADD MLOAD SWAP1 POP CODESIZE DUP1 PUSH3 0x130 JUMP JUMPDEST DUP8 DUP6 MSTORE DUP10 DUP6 KECCAK256 DUP9 SWAP5 POP SWAP2 SWAP1 PUSH1 0x1F NOT DUP5 AND DUP7 JUMPDEST DUP13 DUP3 DUP3 LT PUSH3 0x35E JUMPI POP POP DUP5 GT PUSH3 0x344 JUMPI JUMPDEST POP POP POP DUP2 SHL ADD DUP5 SSTORE PUSH3 0x144 JUMP JUMPDEST ADD MLOAD PUSH1 0x0 NOT PUSH1 0xF8 DUP5 PUSH1 0x3 SHL AND SHR NOT AND SWAP1 SSTORE CODESIZE DUP1 DUP1 PUSH3 0x336 JUMP JUMPDEST DUP4 DUP6 ADD MLOAD DUP7 SSTORE DUP12 SWAP8 SWAP1 SWAP6 ADD SWAP5 SWAP4 DUP5 ADD SWAP4 ADD PUSH3 0x323 JUMP JUMPDEST SWAP1 SWAP2 POP DUP7 DUP5 MSTORE DUP9 DUP5 KECCAK256 DUP7 DUP1 DUP6 ADD PUSH1 0x5 SHR DUP3 ADD SWAP3 DUP12 DUP7 LT PUSH3 0x3BE JUMPI JUMPDEST SWAP2 DUP10 SWAP2 DUP7 SWAP6 SWAP5 SWAP4 ADD PUSH1 0x5 SHR ADD SWAP2 JUMPDEST DUP3 DUP2 LT PUSH3 0x3AF JUMPI POP POP PUSH3 0x11A JUMP JUMPDEST DUP7 DUP2 SSTORE DUP6 SWAP5 POP DUP10 SWAP2 ADD PUSH3 0x39F JUMP JUMPDEST SWAP3 POP DUP2 SWAP3 PUSH3 0x391 JUMP JUMPDEST PUSH4 0x4E487B71 PUSH1 0xE0 SHL DUP5 MSTORE PUSH1 0x22 PUSH1 0x4 MSTORE PUSH1 0x24 DUP5 REVERT JUMPDEST SWAP1 PUSH1 0x7F AND SWAP1 PUSH3 0x105 JUMP JUMPDEST PUSH4 0x4E487B71 PUSH1 0xE0 SHL DUP4 MSTORE PUSH1 0x41 PUSH1 0x4 MSTORE PUSH1 0x24 DUP4 REVERT JUMPDEST ADD MLOAD SWAP1 POP CODESIZE DUP1 PUSH3 0xD6 JUMP JUMPDEST DUP6 DUP1 MSTORE DUP11 DUP7 KECCAK256 DUP10 SWAP5 POP SWAP2 SWAP1 PUSH1 0x1F NOT DUP5 AND DUP8 JUMPDEST DUP14 DUP3 DUP3 LT PUSH3 0x454 JUMPI POP POP DUP5 GT PUSH3 0x43A JUMPI JUMPDEST POP POP POP DUP2 SHL ADD DUP3 SSTORE PUSH3 0xEA JUMP JUMPDEST ADD MLOAD PUSH1 0x0 NOT PUSH1 0xF8 DUP5 PUSH1 0x3 SHL AND SHR NOT AND SWAP1 SSTORE CODESIZE DUP1 DUP1 PUSH3 0x42C JUMP JUMPDEST DUP4 DUP6 ADD MLOAD DUP7 SSTORE DUP13 SWAP8 SWAP1 SWAP6 ADD SWAP5 SWAP4 DUP5 ADD SWAP4 ADD PUSH3 0x419 JUMP JUMPDEST SWAP1 SWAP2 POP DUP5 DUP1 MSTORE DUP10 DUP6 KECCAK256 DUP8 DUP1 DUP6 ADD PUSH1 0x5 SHR DUP3 ADD SWAP3 DUP13 DUP7 LT PUSH3 0x4B4 JUMPI JUMPDEST SWAP2 DUP11 SWAP2 DUP7 SWAP6 SWAP5 SWAP4 ADD PUSH1 0x5 SHR ADD SWAP2 JUMPDEST DUP3 DUP2 LT PUSH3 0x4A5 JUMPI POP POP PUSH3 0xC0 JUMP JUMPDEST DUP8 DUP2 SSTORE DUP6 SWAP5 POP DUP11 SWAP2 ADD PUSH3 0x495 JUMP JUMPDEST SWAP3 POP DUP2 SWAP3 PUSH3 0x487 JUMP JUMPDEST SWAP6 PUSH1 0x7F AND SWAP6 PUSH3 0xA9 JUMP JUMPDEST PUSH4 0x4E487B71 PUSH1 0xE0 SHL PUSH1 0x0 MSTORE PUSH1 0x41 PUSH1 0x4 MSTORE PUSH1 0x24 PUSH1 0x0 REVERT JUMPDEST PUSH1 0x0 DUP1 REVERT JUMPDEST PUSH1 0x40 MLOAD SWAP2 SWAP1 PUSH1 0x1F ADD PUSH1 0x1F NOT AND DUP3 ADD PUSH1 0x1 PUSH1 0x1 PUSH1 0x40 SHL SUB DUP2 GT DUP4 DUP3 LT OR PUSH3 0x4C9 JUMPI PUSH1 0x40 MSTORE JUMP JUMPDEST SWAP2 SWAP1 DUP1 PUSH1 0x1F DUP5 ADD SLT ISZERO PUSH3 0x4DF JUMPI DUP3 MLOAD PUSH1 0x1 PUSH1 0x1 PUSH1 0x40 SHL SUB DUP2 GT PUSH3 0x4C9 JUMPI PUSH1 0x20 SWAP1 PUSH3 0x540 PUSH1 0x1F DUP3 ADD PUSH1 0x1F NOT AND DUP4 ADD PUSH3 0x4E4 JUMP JUMPDEST SWAP3 DUP2 DUP5 MSTORE DUP3 DUP3 DUP8 ADD ADD GT PUSH3 0x4DF JUMPI PUSH1 0x0 JUMPDEST DUP2 DUP2 LT PUSH3 0x568 JUMPI POP DUP3 PUSH1 0x0 SWAP4 SWAP5 SWAP6 POP ADD ADD MSTORE SWAP1 JUMP JUMPDEST DUP6 DUP2 ADD DUP4 ADD MLOAD DUP5 DUP3 ADD DUP5 ADD MSTORE DUP3 ADD PUSH3 0x552 JUMP INVALID PUSH1 0x80 PUSH1 0x40 DUP2 DUP2 MSTORE PUSH1 0x4 DUP1 CALLDATASIZE LT ISZERO PUSH2 0x15 JUMPI PUSH1 0x0 DUP1 REVERT JUMPDEST PUSH1 0x0 SWAP3 DUP4 CALLDATALOAD PUSH1 0xE0 SHR SWAP1 DUP2 PUSH4 0x1FFC9A7 EQ PUSH2 0x1006 JUMPI POP DUP1 PUSH4 0x4B444D9 EQ PUSH2 0xB84 JUMPI DUP1 PUSH4 0x6FDDE03 EQ PUSH2 0xADC JUMPI DUP1 PUSH4 0x81812FC EQ PUSH2 0xAA1 JUMPI DUP1 PUSH4 0x95EA7B3 EQ PUSH2 0x9C5 JUMPI DUP1 PUSH4 0x20C5429B EQ PUSH2 0x7EB JUMPI DUP1 PUSH4 0x23B872DD EQ PUSH2 0x7D3 JUMPI DUP1 PUSH4 0x42842E0E EQ PUSH2 0x7A4 JUMPI DUP1 PUSH4 0x55F804B3 EQ PUSH2 0x642 JUMPI DUP1 PUSH4 0x6352211E EQ PUSH2 0x611 JUMPI DUP1 PUSH4 0x6914DB60 EQ PUSH2 0x5E8 JUMPI DUP1 PUSH4 0x6C0360EB EQ PUSH2 0x550 JUMPI DUP1 PUSH4 0x70A08231 EQ PUSH2 0x4FB JUMPI DUP1 PUSH4 0x715018A6 EQ PUSH2 0x49E JUMPI DUP1 PUSH4 0x8DA5CB5B EQ PUSH2 0x475 JUMPI DUP1 PUSH4 0x95D89B41 EQ PUSH2 0x392 JUMPI DUP1 PUSH4 0xA22CB465 EQ PUSH2 0x2F1 JUMPI DUP1 PUSH4 0xA574CEA4 EQ PUSH2 0x2A7 JUMPI DUP1 PUSH4 0xB88D4FDE EQ PUSH2 0x234 JUMPI DUP1 PUSH4 0xC87B56DD EQ PUSH2 0x1F9 JUMPI DUP1 PUSH4 0xE985E9C5 EQ PUSH2 0x1A7 JUMPI PUSH4 0xF2FDE38B EQ PUSH2 0x115 JUMPI PUSH1 0x0 DUP1 REVERT JUMPDEST CALLVALUE PUSH2 0x1A3 JUMPI PUSH1 0x20 CALLDATASIZE PUSH1 0x3 NOT ADD SLT PUSH2 0x1A3 JUMPI PUSH2 0x12E PUSH2 0x1072 JUMP JUMPDEST SWAP1 PUSH2 0x137 PUSH2 0x12C5 JUMP JUMPDEST PUSH1 0x1 PUSH1 0x1 PUSH1 0xA0 SHL SUB SWAP2 DUP3 AND SWAP3 DUP4 ISZERO PUSH2 0x18D JUMPI POP POP PUSH1 0x6 SLOAD DUP3 PUSH12 0xFFFFFFFFFFFFFFFFFFFFFFFF PUSH1 0xA0 SHL DUP3 AND OR PUSH1 0x6 SSTORE AND PUSH32 0x8BE0079C531659141344CD1FD0A4F28419497F9722A3DAAFE3B4186F6B6457E0 DUP4 DUP1 LOG3 DUP1 RETURN JUMPDEST MLOAD PUSH4 0x1E4FBDF7 PUSH1 0xE0 SHL DUP2 MSTORE SWAP1 DUP2 ADD DUP5 SWAP1 MSTORE PUSH1 0x24 SWAP1 REVERT JUMPDEST DUP3 DUP1 REVERT JUMPDEST POP POP CALLVALUE PUSH2 0x1F5 JUMPI DUP1 PUSH1 0x3 NOT CALLDATASIZE ADD SLT PUSH2 0x1F5 JUMPI PUSH1 0xFF DUP2 PUSH1 0x20 SWAP4 PUSH2 0x1C7 PUSH2 0x1072 JUMP JUMPDEST PUSH2 0x1CF PUSH2 0x108D JUMP JUMPDEST PUSH1 0x1 PUSH1 0x1 PUSH1 0xA0 SHL SUB SWAP2 DUP3 AND DUP4 MSTORE PUSH1 0x5 DUP8 MSTORE DUP4 DUP4 KECCAK256 SWAP2 AND DUP3 MSTORE DUP6 MSTORE KECCAK256 SLOAD SWAP2 MLOAD SWAP2 AND ISZERO ISZERO DUP2 MSTORE RETURN JUMPDEST POP DUP1 REVERT JUMPDEST POP SWAP2 CALLVALUE PUSH2 0x231 JUMPI PUSH1 0x20 CALLDATASIZE PUSH1 0x3 NOT ADD SLT PUSH2 0x231 JUMPI POP PUSH2 0x21A PUSH2 0x22D SWAP3 CALLDATALOAD PUSH2 0x1709 JUMP JUMPDEST SWAP1 MLOAD SWAP2 DUP3 SWAP2 PUSH1 0x20 DUP4 MSTORE PUSH1 0x20 DUP4 ADD SWAP1 PUSH2 0x118B JUMP JUMPDEST SUB SWAP1 RETURN JUMPDEST DUP1 REVERT JUMPDEST DUP4 DUP3 CALLVALUE PUSH2 0x1F5 JUMPI PUSH1 0x80 CALLDATASIZE PUSH1 0x3 NOT ADD SLT PUSH2 0x1F5 JUMPI PUSH2 0x24F PUSH2 0x1072 JUMP JUMPDEST PUSH2 0x257 PUSH2 0x108D JUMP JUMPDEST PUSH1 0x44 CALLDATALOAD SWAP1 PUSH1 0x64 CALLDATALOAD PUSH8 0xFFFFFFFFFFFFFFFF DUP2 GT PUSH2 0x2A3 JUMPI CALLDATASIZE PUSH1 0x23 DUP3 ADD SLT ISZERO PUSH2 0x2A3 JUMPI PUSH2 0x2A0 SWAP5 DUP2 PUSH1 0x24 PUSH2 0x28E SWAP4 CALLDATASIZE SWAP4 ADD CALLDATALOAD SWAP2 ADD PUSH2 0x1113 JUMP JUMPDEST SWAP3 PUSH2 0x29A DUP4 DUP4 DUP4 PUSH2 0x12F1 JUMP JUMPDEST CALLER PUSH2 0x1540 JUMP JUMPDEST DUP1 RETURN JUMPDEST DUP6 DUP1 REVERT JUMPDEST POP CALLVALUE PUSH2 0x1A3 JUMPI PUSH1 0x20 CALLDATASIZE PUSH1 0x3 NOT ADD SLT PUSH2 0x1A3 JUMPI CALLDATALOAD DUP1 DUP4 MSTORE PUSH1 0x2 PUSH1 0x20 MSTORE DUP2 DUP4 KECCAK256 SLOAD PUSH2 0x22D SWAP4 PUSH2 0x21A SWAP3 DUP5 SWAP3 PUSH2 0x2E4 SWAP1 PUSH1 0x1 PUSH1 0x1 PUSH1 0xA0 SHL SUB AND ISZERO ISZERO PUSH2 0x16C6 JUMP JUMPDEST DUP2 MSTORE PUSH1 0x9 PUSH1 0x20 MSTORE KECCAK256 PUSH2 0x121F JUMP JUMPDEST POP SWAP1 CALLVALUE PUSH2 0x1A3 JUMPI DUP1 PUSH1 0x3 NOT CALLDATASIZE ADD SLT PUSH2 0x1A3 JUMPI PUSH2 0x30B PUSH2 0x1072 JUMP JUMPDEST SWAP1 PUSH1 0x24 CALLDATALOAD SWAP2 DUP3 ISZERO ISZERO DUP1 SWAP4 SUB PUSH2 0x38E JUMPI PUSH1 0x1 PUSH1 0x1 PUSH1 0xA0 SHL SUB AND SWAP3 DUP4 ISZERO PUSH2 0x379 JUMPI POP CALLER DUP5 MSTORE PUSH1 0x5 PUSH1 0x20 MSTORE DUP1 DUP5 KECCAK256 DUP4 DUP6 MSTORE PUSH1 0x20 MSTORE DUP1 DUP5 KECCAK256 PUSH1 0xFF NOT DUP2 SLOAD AND PUSH1 0xFF DUP5 AND OR SWAP1 SSTORE MLOAD SWAP1 DUP2 MSTORE PUSH32 0x17307EAB39AB6107E8899845AD3D59BD9653F200F220920489CA2B5937696C31 PUSH1 0x20 CALLER SWAP3 LOG3 DUP1 RETURN JUMPDEST DUP4 PUSH1 0x24 SWAP3 MLOAD SWAP2 PUSH4 0xB611743 PUSH1 0xE3 SHL DUP4 MSTORE DUP3 ADD MSTORE REVERT JUMPDEST DUP5 DUP1 REVERT JUMPDEST POP POP CALLVALUE PUSH2 0x1F5 JUMPI DUP2 PUSH1 0x3 NOT CALLDATASIZE ADD SLT PUSH2 0x1F5 JUMPI DUP1 MLOAD SWAP1 DUP3 PUSH1 0x1 DUP1 SLOAD SWAP2 PUSH2 0x3B6 DUP4 PUSH2 0x11E5 JUMP JUMPDEST DUP1 DUP7 MSTORE SWAP3 DUP3 DUP2 AND SWAP1 DUP2 ISZERO PUSH2 0x44D JUMPI POP PUSH1 0x1 EQ PUSH2 0x3F1 JUMPI JUMPDEST POP POP POP PUSH2 0x3DF DUP3 PUSH2 0x22D SWAP5 SUB DUP4 PUSH2 0x10D5 JUMP JUMPDEST MLOAD SWAP2 DUP3 SWAP2 PUSH1 0x20 DUP4 MSTORE PUSH1 0x20 DUP4 ADD SWAP1 PUSH2 0x118B JUMP JUMPDEST SWAP5 POP DUP1 DUP6 MSTORE PUSH32 0xB10E2D527612073B26EECDFD717E6A320CF44B4AFAC2B0732D9FCBE2B7FA0CF6 JUMPDEST DUP3 DUP7 LT PUSH2 0x435 JUMPI POP POP POP PUSH2 0x3DF DUP3 PUSH1 0x20 PUSH2 0x22D SWAP6 DUP3 ADD ADD SWAP5 PUSH2 0x3CD JUMP JUMPDEST DUP1 SLOAD PUSH1 0x20 DUP8 DUP8 ADD DUP2 ADD SWAP2 SWAP1 SWAP2 MSTORE SWAP1 SWAP6 ADD SWAP5 DUP2 ADD PUSH2 0x418 JUMP JUMPDEST PUSH2 0x22D SWAP8 POP DUP7 SWAP4 POP PUSH1 0x20 SWAP3 POP PUSH2 0x3DF SWAP5 SWAP2 POP PUSH1 0xFF NOT AND DUP3 DUP5 ADD MSTORE ISZERO ISZERO PUSH1 0x5 SHL DUP3 ADD ADD SWAP5 PUSH2 0x3CD JUMP JUMPDEST POP POP CALLVALUE PUSH2 0x1F5 JUMPI DUP2 PUSH1 0x3 NOT CALLDATASIZE ADD SLT PUSH2 0x1F5 JUMPI PUSH1 0x6 SLOAD SWAP1 MLOAD PUSH1 0x1 PUSH1 0x1 PUSH1 0xA0 SHL SUB SWAP1 SWAP2 AND DUP2 MSTORE PUSH1 0x20 SWAP1 RETURN JUMPDEST DUP4 CALLVALUE PUSH2 0x231 JUMPI DUP1 PUSH1 0x3 NOT CALLDATASIZE ADD SLT PUSH2 0x231 JUMPI PUSH2 0x4B7 PUSH2 0x12C5 JUMP JUMPDEST PUSH1 0x6 DUP1 SLOAD PUSH1 0x1 PUSH1 0x1 PUSH1 0xA0 SHL SUB NOT DUP2 AND SWAP1 SWAP2 SSTORE DUP2 SWAP1 PUSH1 0x1 PUSH1 0x1 PUSH1 0xA0 SHL SUB AND PUSH32 0x8BE0079C531659141344CD1FD0A4F28419497F9722A3DAAFE3B4186F6B6457E0 DUP3 DUP1 LOG3 DUP1 RETURN JUMPDEST POP SWAP2 CALLVALUE PUSH2 0x231 JUMPI PUSH1 0x20 CALLDATASIZE PUSH1 0x3 NOT ADD SLT PUSH2 0x231 JUMPI PUSH1 0x1 PUSH1 0x1 PUSH1 0xA0 SHL SUB PUSH2 0x51E PUSH2 0x1072 JUMP JUMPDEST AND SWAP3 DUP4 ISZERO PUSH2 0x53B JUMPI POP DUP1 PUSH1 0x20 SWAP4 DUP4 SWAP3 MSTORE PUSH1 0x3 DUP5 MSTORE KECCAK256 SLOAD SWAP1 MLOAD SWAP1 DUP2 MSTORE RETURN JUMPDEST SWAP2 MLOAD PUSH4 0x22718AD9 PUSH1 0xE2 SHL DUP2 MSTORE SWAP2 DUP3 ADD MSTORE PUSH1 0x24 SWAP1 REVERT JUMPDEST POP POP CALLVALUE PUSH2 0x1F5 JUMPI DUP2 PUSH1 0x3 NOT CALLDATASIZE ADD SLT PUSH2 0x1F5 JUMPI DUP1 MLOAD SWAP1 DUP3 PUSH1 0x8 SLOAD PUSH2 0x572 DUP2 PUSH2 0x11E5 JUMP JUMPDEST DUP1 DUP6 MSTORE SWAP2 PUSH1 0x1 SWAP2 DUP1 DUP4 AND SWAP1 DUP2 ISZERO PUSH2 0x44D JUMPI POP PUSH1 0x1 EQ PUSH2 0x59D JUMPI POP POP POP PUSH2 0x3DF DUP3 PUSH2 0x22D SWAP5 SUB DUP4 PUSH2 0x10D5 JUMP JUMPDEST SWAP5 POP PUSH1 0x8 DUP6 MSTORE PUSH1 0x0 DUP1 MLOAD PUSH1 0x20 PUSH2 0x1902 DUP4 CODECOPY DUP2 MLOAD SWAP2 MSTORE JUMPDEST DUP3 DUP7 LT PUSH2 0x5D0 JUMPI POP POP POP PUSH2 0x3DF DUP3 PUSH1 0x20 PUSH2 0x22D SWAP6 DUP3 ADD ADD SWAP5 PUSH2 0x3CD JUMP JUMPDEST DUP1 SLOAD PUSH1 0x20 DUP8 DUP8 ADD DUP2 ADD SWAP2 SWAP1 SWAP2 MSTORE SWAP1 SWAP6 ADD SWAP5 DUP2 ADD PUSH2 0x5B3 JUMP JUMPDEST POP CALLVALUE PUSH2 0x1A3 JUMPI PUSH1 0x20 CALLDATASIZE PUSH1 0x3 NOT ADD SLT PUSH2 0x1A3 JUMPI DUP2 PUSH2 0x22D SWAP4 PUSH2 0x21A SWAP3 CALLDATALOAD DUP2 MSTORE PUSH1 0x9 PUSH1 0x20 MSTORE KECCAK256 PUSH2 0x121F JUMP JUMPDEST POP SWAP2 CALLVALUE PUSH2 0x231 JUMPI PUSH1 0x20 CALLDATASIZE PUSH1 0x3 NOT ADD SLT PUSH2 0x231 JUMPI POP PUSH2 0x631 PUSH1 0x20 SWAP3 CALLDATALOAD PUSH2 0x1505 JUMP JUMPDEST SWAP1 MLOAD PUSH1 0x1 PUSH1 0x1 PUSH1 0xA0 SHL SUB SWAP1 SWAP2 AND DUP2 MSTORE RETURN JUMPDEST POP DUP3 CALLVALUE PUSH2 0x231 JUMPI PUSH1 0x20 DUP1 PUSH1 0x3 NOT CALLDATASIZE ADD SLT PUSH2 0x1F5 JUMPI PUSH8 0xFFFFFFFFFFFFFFFF SWAP1 DUP4 CALLDATALOAD DUP3 DUP2 GT PUSH2 0x7A0 JUMPI PUSH2 0x676 SWAP1 CALLDATASIZE SWAP1 DUP7 ADD PUSH2 0x114A JUMP JUMPDEST SWAP4 PUSH2 0x67F PUSH2 0x12C5 JUMP JUMPDEST DUP5 MLOAD SWAP3 DUP4 GT PUSH2 0x78D JUMPI POP PUSH2 0x694 PUSH1 0x8 SLOAD PUSH2 0x11E5 JUMP JUMPDEST PUSH1 0x1F DUP2 GT PUSH2 0x747 JUMPI JUMPDEST POP DUP1 PUSH1 0x1F DUP4 GT PUSH1 0x1 EQ PUSH2 0x6D8 JUMPI POP DUP3 SWAP4 DUP3 SWAP4 SWAP3 PUSH2 0x6CD JUMPI JUMPDEST POP POP DUP2 PUSH1 0x1 SHL SWAP2 PUSH1 0x0 NOT SWAP1 PUSH1 0x3 SHL SHR NOT AND OR PUSH1 0x8 SSTORE DUP1 RETURN JUMPDEST ADD MLOAD SWAP1 POP DUP4 DUP1 PUSH2 0x6B5 JUMP JUMPDEST PUSH1 0x8 DUP5 MSTORE PUSH1 0x1F NOT DUP4 AND SWAP5 PUSH1 0x0 DUP1 MLOAD PUSH1 0x20 PUSH2 0x1902 DUP4 CODECOPY DUP2 MLOAD SWAP2 MSTORE SWAP3 SWAP2 DUP6 SWAP1 JUMPDEST DUP8 DUP3 LT PUSH2 0x72F JUMPI POP POP DUP4 PUSH1 0x1 SWAP6 SWAP7 LT PUSH2 0x716 JUMPI JUMPDEST POP POP POP DUP2 SHL ADD PUSH1 0x8 SSTORE DUP1 RETURN JUMPDEST ADD MLOAD PUSH1 0x0 NOT PUSH1 0xF8 DUP5 PUSH1 0x3 SHL AND SHR NOT AND SWAP1 SSTORE DUP4 DUP1 DUP1 PUSH2 0x70A JUMP JUMPDEST DUP1 PUSH1 0x1 DUP6 SWAP7 DUP3 SWAP5 SWAP7 DUP7 ADD MLOAD DUP2 SSTORE ADD SWAP6 ADD SWAP4 ADD SWAP1 PUSH2 0x6F6 JUMP JUMPDEST PUSH2 0x77D SWAP1 PUSH1 0x8 DUP6 MSTORE PUSH1 0x0 DUP1 MLOAD PUSH1 0x20 PUSH2 0x1902 DUP4 CODECOPY DUP2 MLOAD SWAP2 MSTORE PUSH1 0x1F DUP6 ADD PUSH1 0x5 SHR DUP2 ADD SWAP2 DUP5 DUP7 LT PUSH2 0x783 JUMPI JUMPDEST PUSH1 0x1F ADD PUSH1 0x5 SHR ADD SWAP1 PUSH2 0x16AF JUMP JUMPDEST DUP5 PUSH2 0x69D JUMP JUMPDEST SWAP1 SWAP2 POP DUP2 SWAP1 PUSH2 0x770 JUMP JUMPDEST PUSH4 0x4E487B71 PUSH1 0xE0 SHL DUP5 MSTORE PUSH1 0x41 SWAP1 MSTORE PUSH1 0x24 DUP4 REVERT JUMPDEST DUP4 DUP1 REVERT JUMPDEST POP POP CALLVALUE PUSH2 0x1F5 JUMPI PUSH2 0x2A0 SWAP1 PUSH2 0x7B8 CALLDATASIZE PUSH2 0x11B0 JUMP JUMPDEST SWAP2 SWAP3 MLOAD SWAP3 PUSH2 0x7C5 DUP5 PUSH2 0x10A3 JUMP JUMPDEST DUP6 DUP5 MSTORE PUSH2 0x29A DUP4 DUP4 DUP4 PUSH2 0x12F1 JUMP JUMPDEST DUP4 CALLVALUE PUSH2 0x231 JUMPI PUSH2 0x2A0 PUSH2 0x7E5 CALLDATASIZE PUSH2 0x11B0 JUMP JUMPDEST SWAP2 PUSH2 0x12F1 JUMP JUMPDEST POP SWAP1 CALLVALUE PUSH2 0x1A3 JUMPI PUSH1 0x20 SWAP1 DUP2 PUSH1 0x3 NOT CALLDATASIZE ADD SLT PUSH2 0x7A0 JUMPI DUP3 CALLDATALOAD SWAP3 PUSH2 0x80B PUSH2 0x12C5 JUMP JUMPDEST DUP4 DUP6 MSTORE PUSH1 0x2 DUP4 MSTORE DUP2 DUP6 KECCAK256 SLOAD PUSH1 0x1 PUSH1 0x1 PUSH1 0xA0 SHL SUB SWAP1 PUSH2 0x82C SWAP1 DUP3 AND ISZERO ISZERO PUSH2 0x16C6 JUMP JUMPDEST DUP5 DUP7 MSTORE PUSH1 0x2 DUP5 MSTORE DUP1 DUP4 DUP8 KECCAK256 SLOAD AND ISZERO ISZERO DUP1 PUSH2 0x9BE JUMPI JUMPDEST PUSH2 0x96D JUMPI DUP5 DUP7 MSTORE PUSH1 0x2 DUP5 MSTORE DUP3 DUP7 KECCAK256 SLOAD AND DUP5 DUP7 DUP3 ISZERO SWAP3 DUP4 ISZERO PUSH2 0x93A JUMPI JUMPDEST DUP3 DUP3 MSTORE PUSH1 0x2 DUP8 MSTORE DUP6 DUP3 KECCAK256 DUP1 SLOAD PUSH1 0x1 PUSH1 0x1 PUSH1 0xA0 SHL SUB NOT AND SWAP1 SSTORE PUSH32 0xDDF252AD1BE2C89B69C2B068FC378DAA952BA7F163C4A11628F55A4DF523B3EF DUP3 DUP1 LOG4 PUSH2 0x925 JUMPI POP SWAP1 DUP4 SWAP2 DUP4 DUP4 MSTORE PUSH1 0x9 DUP3 MSTORE DUP3 KECCAK256 SWAP1 PUSH2 0x8B5 DUP3 SLOAD PUSH2 0x11E5 JUMP JUMPDEST SWAP1 DUP2 PUSH2 0x8E6 JUMPI JUMPDEST POP POP POP DUP1 PUSH32 0x61E27B0BFD8E18E6B92EC32CE1C28BB698D27BFE93E84C7E94D4DB0A3135C760 SWAP2 LOG2 DUP1 RETURN JUMPDEST DUP4 SWAP1 PUSH1 0x1F DUP4 GT PUSH1 0x1 EQ PUSH2 0x901 JUMPI POP POP POP SSTORE JUMPDEST DUP2 CODESIZE DUP1 DUP1 PUSH2 0x8BC JUMP JUMPDEST DUP4 DUP3 MSTORE DUP2 KECCAK256 SWAP3 SWAP1 SWAP2 PUSH2 0x91E SWAP1 PUSH1 0x1F ADD PUSH1 0x5 SHR DUP5 ADD PUSH1 0x1 DUP6 ADD PUSH2 0x16AF JUMP JUMPDEST SSTORE SSTORE PUSH2 0x8F8 JUMP JUMPDEST DUP4 PUSH1 0x24 SWAP3 MLOAD SWAP2 PUSH4 0x7E273289 PUSH1 0xE0 SHL DUP4 MSTORE DUP3 ADD MSTORE REVERT JUMPDEST PUSH1 0x0 DUP4 DUP2 MSTORE PUSH1 0x4 PUSH1 0x20 MSTORE PUSH1 0x40 SWAP1 KECCAK256 DUP1 SLOAD PUSH1 0x1 PUSH1 0x1 PUSH1 0xA0 SHL SUB NOT AND SWAP1 SSTORE DUP1 DUP3 MSTORE PUSH1 0x3 DUP8 MSTORE DUP6 DUP3 KECCAK256 DUP1 SLOAD PUSH1 0x0 NOT ADD SWAP1 SSTORE PUSH2 0x85D JUMP JUMPDEST POP DUP3 PUSH1 0x84 SWAP3 MLOAD SWAP2 PUSH3 0x461BCD PUSH1 0xE5 SHL DUP4 MSTORE DUP3 ADD MSTORE PUSH1 0x26 PUSH1 0x24 DUP3 ADD MSTORE PUSH32 0x536F756C626F756E6420746F6B656E732063616E6E6F74206265207472616E73 PUSH1 0x44 DUP3 ADD MSTORE PUSH6 0x19995C9C9959 PUSH1 0xD2 SHL PUSH1 0x64 DUP3 ADD MSTORE REVERT JUMPDEST POP DUP6 PUSH2 0x841 JUMP JUMPDEST POP SWAP1 CALLVALUE PUSH2 0x1A3 JUMPI DUP1 PUSH1 0x3 NOT CALLDATASIZE ADD SLT PUSH2 0x1A3 JUMPI PUSH2 0x9DF PUSH2 0x1072 JUMP JUMPDEST SWAP2 PUSH1 0x24 CALLDATALOAD PUSH2 0x9EC DUP2 PUSH2 0x1505 JUMP JUMPDEST CALLER ISZERO ISZERO DUP1 PUSH2 0xA8E JUMPI JUMPDEST DUP1 PUSH2 0xA65 JUMPI JUMPDEST PUSH2 0xA4F JUMPI PUSH1 0x1 PUSH1 0x1 PUSH1 0xA0 SHL SUB SWAP5 DUP6 AND SWAP5 DUP3 SWAP2 DUP7 SWAP2 AND PUSH32 0x8C5BE1E5EBEC7D5BD14F71427D1E84F3DD0314C0F7B2291E5B200AC8C7C3B925 DUP9 DUP1 LOG4 DUP5 MSTORE PUSH1 0x20 MSTORE DUP3 KECCAK256 DUP1 SLOAD PUSH1 0x1 PUSH1 0x1 PUSH1 0xA0 SHL SUB NOT AND SWAP1 SWAP2 OR SWAP1 SSTORE DUP1 RETURN JUMPDEST DUP4 MLOAD PUSH4 0xA9FBF51F PUSH1 0xE0 SHL DUP2 MSTORE CALLER DUP2 DUP6 ADD MSTORE PUSH1 0x24 SWAP1 REVERT JUMPDEST POP PUSH1 0x1 PUSH1 0x1 PUSH1 0xA0 SHL SUB DUP2 AND DUP7 MSTORE PUSH1 0x5 PUSH1 0x20 SWAP1 DUP2 MSTORE DUP5 DUP8 KECCAK256 CALLER DUP9 MSTORE SWAP1 MSTORE DUP4 DUP7 KECCAK256 SLOAD PUSH1 0xFF AND ISZERO PUSH2 0x9FB JUMP JUMPDEST POP PUSH1 0x1 PUSH1 0x1 PUSH1 0xA0 SHL SUB DUP2 AND CALLER EQ ISZERO PUSH2 0x9F5 JUMP JUMPDEST POP CALLVALUE PUSH2 0x1A3 JUMPI PUSH1 0x20 CALLDATASIZE PUSH1 0x3 NOT ADD SLT PUSH2 0x1A3 JUMPI SWAP2 DUP3 PUSH1 0x20 SWAP4 CALLDATALOAD PUSH2 0xAC2 DUP2 PUSH2 0x1505 JUMP JUMPDEST POP DUP3 MSTORE DUP4 MSTORE DUP2 SWAP1 KECCAK256 SLOAD SWAP1 MLOAD PUSH1 0x1 PUSH1 0x1 PUSH1 0xA0 SHL SUB SWAP1 SWAP2 AND DUP2 MSTORE RETURN JUMPDEST POP POP CALLVALUE PUSH2 0x1F5 JUMPI DUP2 PUSH1 0x3 NOT CALLDATASIZE ADD SLT PUSH2 0x1F5 JUMPI DUP1 MLOAD SWAP1 DUP3 DUP1 SLOAD PUSH2 0xAFD DUP2 PUSH2 0x11E5 JUMP JUMPDEST DUP1 DUP6 MSTORE SWAP2 PUSH1 0x1 SWAP2 DUP1 DUP4 AND SWAP1 DUP2 ISZERO PUSH2 0x44D JUMPI POP PUSH1 0x1 EQ PUSH2 0xB28 JUMPI POP POP POP PUSH2 0x3DF DUP3 PUSH2 0x22D SWAP5 SUB DUP4 PUSH2 0x10D5 JUMP JUMPDEST DUP1 DUP1 SWAP7 POP MSTORE PUSH32 0x290DECD9548B62A8D60345A988386FC84BA6BC95484008F6362F93160EF3E563 JUMPDEST DUP3 DUP7 LT PUSH2 0xB6C JUMPI POP POP POP PUSH2 0x3DF DUP3 PUSH1 0x20 PUSH2 0x22D SWAP6 DUP3 ADD ADD SWAP5 PUSH2 0x3CD JUMP JUMPDEST DUP1 SLOAD PUSH1 0x20 DUP8 DUP8 ADD DUP2 ADD SWAP2 SWAP1 SWAP2 MSTORE SWAP1 SWAP6 ADD SWAP5 DUP2 ADD PUSH2 0xB4F JUMP JUMPDEST POP SWAP1 CALLVALUE PUSH2 0x1A3 JUMPI DUP1 PUSH1 0x3 NOT CALLDATASIZE ADD SLT PUSH2 0x1A3 JUMPI PUSH2 0xB9E PUSH2 0x1072 JUMP JUMPDEST SWAP2 PUSH1 0x24 SWAP1 PUSH8 0xFFFFFFFFFFFFFFFF SWAP1 DUP3 CALLDATALOAD DUP3 DUP2 GT PUSH2 0x1002 JUMPI PUSH2 0xBC2 SWAP1 CALLDATASIZE SWAP1 DUP4 ADD PUSH2 0x114A JUMP JUMPDEST SWAP2 PUSH2 0xBCB PUSH2 0x12C5 JUMP JUMPDEST PUSH1 0x1 PUSH1 0x1 PUSH1 0xA0 SHL SUB SWAP7 DUP7 DUP9 AND SWAP5 DUP6 ISZERO PUSH2 0xFCC JUMPI PUSH1 0x7 SLOAD SWAP8 PUSH2 0xBEB DUP10 PUSH2 0x168A JUMP JUMPDEST PUSH1 0x7 SSTORE DUP8 MLOAD SWAP1 PUSH2 0xBFA DUP3 PUSH2 0x10A3 JUMP JUMPDEST DUP4 DUP3 MSTORE DUP10 DUP5 MSTORE PUSH1 0x20 SWAP11 PUSH1 0x2 DUP13 MSTORE DUP1 DUP11 DUP7 KECCAK256 SLOAD AND ISZERO ISZERO DUP1 PUSH2 0xFC4 JUMPI JUMPDEST PUSH2 0xF73 JUMPI SWAP1 DUP10 DUP12 DUP11 DUP8 SWAP7 SWAP6 SWAP5 DUP16 SWAP9 DUP4 SWAP1 MSTORE PUSH1 0x2 DUP10 MSTORE DUP4 DUP9 KECCAK256 SLOAD AND PUSH1 0x2 DUP2 ISZERO ISZERO SWAP5 DUP6 PUSH2 0xF40 JUMPI JUMPDEST DUP4 DUP11 MSTORE PUSH1 0x3 DUP12 MSTORE DUP10 KECCAK256 DUP1 SLOAD PUSH1 0x1 SWAP1 DUP2 ADD SWAP1 SWAP2 SSTORE DUP5 DUP11 MSTORE SWAP10 MSTORE DUP14 DUP9 KECCAK256 DUP1 SLOAD PUSH1 0x1 PUSH1 0x1 PUSH1 0xA0 SHL SUB NOT AND DUP4 OR SWAP1 SSTORE PUSH32 0xDDF252AD1BE2C89B69C2B068FC378DAA952BA7F163C4A11628F55A4DF523B3EF DUP9 DUP1 LOG4 PUSH2 0xF2A JUMPI EXTCODESIZE PUSH2 0xE02 JUMPI JUMPDEST POP DUP9 DUP3 MSTORE PUSH1 0x9 DUP11 MSTORE DUP8 DUP3 KECCAK256 SWAP5 DUP7 MLOAD SWAP5 DUP6 GT PUSH2 0xDF1 JUMPI POP POP SWAP1 DUP4 SWAP3 SWAP2 PUSH2 0xCBB DUP10 SWAP7 SWAP6 SLOAD PUSH2 0x11E5 JUMP JUMPDEST PUSH1 0x1F DUP2 GT PUSH2 0xDC3 JUMPI JUMPDEST POP DUP10 SWAP1 PUSH1 0x1F DUP5 GT PUSH1 0x1 EQ PUSH2 0xD3A JUMPI SWAP3 DUP1 PUSH2 0xD26 SWAP6 SWAP4 DUP2 SWAP4 PUSH32 0x381B3C2768BC16C7296E77B51CAC213D6E8331455193BE573CA09EBC9808D71F SWAP9 SWAP7 SWAP4 PUSH2 0xD2F JUMPI JUMPDEST POP SHL SWAP2 PUSH1 0x0 NOT SWAP1 PUSH1 0x3 SHL SHR NOT AND OR SWAP1 SSTORE JUMPDEST DUP6 MLOAD SWAP2 DUP3 SWAP2 DUP10 DUP4 MSTORE DUP10 DUP4 ADD SWAP1 PUSH2 0x118B JUMP JUMPDEST SUB SWAP1 LOG3 MLOAD SWAP1 DUP2 MSTORE RETURN JUMPDEST DUP7 ADD MLOAD SWAP3 POP CODESIZE PUSH2 0xD04 JUMP JUMPDEST SWAP1 PUSH1 0x1F SWAP4 SWAP3 SWAP4 NOT DUP4 AND DUP6 DUP4 MSTORE DUP12 DUP4 KECCAK256 SWAP3 JUMPDEST DUP13 DUP3 DUP3 LT PUSH2 0xDAC JUMPI POP POP SWAP2 DUP4 SWAP2 PUSH2 0xD26 SWAP7 SWAP5 PUSH32 0x381B3C2768BC16C7296E77B51CAC213D6E8331455193BE573CA09EBC9808D71F SWAP9 SWAP7 SWAP5 LT PUSH2 0xD93 JUMPI JUMPDEST POP POP DUP2 SHL ADD SWAP1 SSTORE PUSH2 0xD15 JUMP JUMPDEST DUP6 ADD MLOAD PUSH1 0x0 NOT PUSH1 0xF8 DUP5 PUSH1 0x3 SHL AND SHR NOT AND SWAP1 SSTORE CODESIZE DUP1 PUSH2 0xD87 JUMP JUMPDEST DUP9 DUP5 ADD MLOAD DUP6 SSTORE DUP13 SWAP10 POP SWAP4 DUP7 ADD SWAP4 SWAP3 DUP4 ADD SWAP3 ADD PUSH2 0xD4B JUMP JUMPDEST PUSH2 0xDEB SWAP1 DUP6 DUP4 MSTORE DUP12 DUP4 KECCAK256 PUSH1 0x1F DUP7 ADD PUSH1 0x5 SHR DUP2 ADD SWAP2 DUP14 DUP8 LT PUSH2 0x783 JUMPI PUSH1 0x1F ADD PUSH1 0x5 SHR ADD SWAP1 PUSH2 0x16AF JUMP JUMPDEST CODESIZE PUSH2 0xCC4 JUMP JUMPDEST PUSH4 0x4E487B71 PUSH1 0xE0 SHL DUP4 MSTORE PUSH1 0x41 SWAP1 MSTORE DUP2 REVERT JUMPDEST SWAP5 PUSH2 0xE4A DUP12 DUP4 SWAP13 SWAP8 DUP11 DUP7 DUP1 DUP7 SWAP16 SWAP11 SWAP9 SWAP13 SWAP10 SWAP8 DUP16 SWAP15 SWAP16 MLOAD SWAP7 DUP8 SWAP6 DUP7 SWAP5 DUP6 SWAP4 PUSH4 0xA85BD01 PUSH1 0xE1 SHL SWAP12 DUP13 DUP7 MSTORE CALLER SWAP1 DUP7 ADD MSTORE DUP5 ADD MSTORE DUP14 PUSH1 0x44 DUP5 ADD MSTORE PUSH1 0x80 PUSH1 0x64 DUP5 ADD MSTORE PUSH1 0x84 DUP4 ADD SWAP1 PUSH2 0x118B JUMP JUMPDEST SUB SWAP3 GAS CALL DUP9 SWAP2 DUP2 PUSH2 0xEE6 JUMPI JUMPDEST POP PUSH2 0xEB2 JUMPI POP POP POP POP POP POP RETURNDATASIZE PUSH1 0x0 EQ PUSH2 0xEA9 JUMPI RETURNDATASIZE PUSH2 0xE73 DUP2 PUSH2 0x10F7 JUMP JUMPDEST SWAP1 PUSH2 0xE80 DUP6 MLOAD SWAP3 DUP4 PUSH2 0x10D5 JUMP JUMPDEST DUP2 MSTORE DUP1 SWAP3 DUP3 RETURNDATASIZE SWAP3 ADD RETURNDATACOPY JUMPDEST DUP2 MLOAD SWAP2 DUP3 PUSH2 0xEA6 JUMPI POP POP POP MLOAD SWAP2 PUSH4 0x32505749 PUSH1 0xE1 SHL DUP4 MSTORE DUP3 ADD MSTORE REVERT JUMPDEST ADD REVERT JUMPDEST PUSH1 0x60 SWAP2 POP PUSH2 0xE8A JUMP JUMPDEST PUSH4 0xFFFFFFFF PUSH1 0xE0 SWAP13 SWAP4 SWAP6 SWAP9 SWAP5 SWAP7 SWAP12 SWAP8 SWAP13 SWAP11 SWAP10 SWAP11 SHL AND SUB PUSH2 0xED2 JUMPI CODESIZE PUSH2 0xC94 JUMP JUMPDEST DUP8 MLOAD PUSH4 0x32505749 PUSH1 0xE1 SHL DUP2 MSTORE DUP1 DUP7 ADD DUP9 SWAP1 MSTORE REVERT JUMPDEST SWAP1 SWAP2 POP DUP8 DUP2 DUP2 RETURNDATASIZE DUP4 GT PUSH2 0xF23 JUMPI JUMPDEST PUSH2 0xEFE DUP2 DUP4 PUSH2 0x10D5 JUMP JUMPDEST DUP2 ADD SUB SLT PUSH2 0xF1F JUMPI MLOAD PUSH1 0x1 PUSH1 0x1 PUSH1 0xE0 SHL SUB NOT DUP2 AND DUP2 SUB PUSH2 0xF1F JUMPI SWAP1 CODESIZE PUSH2 0xE56 JUMP JUMPDEST DUP9 DUP1 REVERT JUMPDEST POP RETURNDATASIZE PUSH2 0xEF4 JUMP JUMPDEST DUP10 MLOAD PUSH4 0x39E35637 PUSH1 0xE1 SHL DUP2 MSTORE DUP1 DUP9 ADD DUP6 SWAP1 MSTORE DUP4 SWAP1 REVERT JUMPDEST PUSH1 0x0 DUP6 DUP2 MSTORE PUSH1 0x4 PUSH1 0x20 MSTORE PUSH1 0x40 SWAP1 KECCAK256 DUP1 SLOAD PUSH1 0x1 PUSH1 0x1 PUSH1 0xA0 SHL SUB NOT AND SWAP1 SSTORE DUP3 DUP11 MSTORE PUSH1 0x3 DUP12 MSTORE DUP1 DUP11 KECCAK256 DUP1 SLOAD PUSH1 0x0 NOT ADD SWAP1 SSTORE PUSH2 0xC3B JUMP JUMPDEST DUP10 MLOAD PUSH3 0x461BCD PUSH1 0xE5 SHL DUP2 MSTORE DUP1 DUP9 ADD DUP14 SWAP1 MSTORE PUSH1 0x26 DUP2 DUP7 ADD MSTORE PUSH32 0x536F756C626F756E6420746F6B656E732063616E6E6F74206265207472616E73 PUSH1 0x44 DUP3 ADD MSTORE PUSH6 0x19995C9C9959 PUSH1 0xD2 SHL PUSH1 0x64 DUP3 ADD MSTORE PUSH1 0x84 SWAP1 REVERT JUMPDEST POP PUSH1 0x1 PUSH2 0xC15 JUMP JUMPDEST DUP4 PUSH1 0x11 PUSH1 0x64 SWAP3 PUSH1 0x20 DUP11 MLOAD SWAP4 PUSH3 0x461BCD PUSH1 0xE5 SHL DUP6 MSTORE DUP5 ADD MSTORE DUP3 ADD MSTORE PUSH17 0x125B9D985B1A59081C9958DA5C1A595B9D PUSH1 0x7A SHL PUSH1 0x44 DUP3 ADD MSTORE REVERT JUMPDEST DUP7 DUP1 REVERT JUMPDEST SWAP3 POP POP CALLVALUE PUSH2 0x1A3 JUMPI PUSH1 0x20 CALLDATASIZE PUSH1 0x3 NOT ADD SLT PUSH2 0x1A3 JUMPI CALLDATALOAD PUSH4 0xFFFFFFFF PUSH1 0xE0 SHL DUP2 AND DUP1 SWAP2 SUB PUSH2 0x1A3 JUMPI PUSH1 0x20 SWAP3 POP PUSH4 0x80AC58CD PUSH1 0xE0 SHL DUP2 EQ SWAP1 DUP2 ISZERO PUSH2 0x1061 JUMPI JUMPDEST DUP2 ISZERO PUSH2 0x1050 JUMPI JUMPDEST POP ISZERO ISZERO DUP2 MSTORE RETURN JUMPDEST PUSH4 0x1FFC9A7 PUSH1 0xE0 SHL EQ SWAP1 POP CODESIZE PUSH2 0x1049 JUMP JUMPDEST PUSH4 0x5B5E139F PUSH1 0xE0 SHL DUP2 EQ SWAP2 POP PUSH2 0x1042 JUMP JUMPDEST PUSH1 0x4 CALLDATALOAD SWAP1 PUSH1 0x1 PUSH1 0x1 PUSH1 0xA0 SHL SUB DUP3 AND DUP3 SUB PUSH2 0x1088 JUMPI JUMP JUMPDEST PUSH1 0x0 DUP1 REVERT JUMPDEST PUSH1 0x24 CALLDATALOAD SWAP1 PUSH1 0x1 PUSH1 0x1 PUSH1 0xA0 SHL SUB DUP3 AND DUP3 SUB PUSH2 0x1088 JUMPI JUMP JUMPDEST PUSH1 0x20 DUP2 ADD SWAP1 DUP2 LT PUSH8 0xFFFFFFFFFFFFFFFF DUP3 GT OR PUSH2 0x10BF JUMPI PUSH1 0x40 MSTORE JUMP JUMPDEST PUSH4 0x4E487B71 PUSH1 0xE0 SHL PUSH1 0x0 MSTORE PUSH1 0x41 PUSH1 0x4 MSTORE PUSH1 0x24 PUSH1 0x0 REVERT JUMPDEST SWAP1 PUSH1 0x1F DUP1 NOT SWAP2 ADD AND DUP2 ADD SWAP1 DUP2 LT PUSH8 0xFFFFFFFFFFFFFFFF DUP3 GT OR PUSH2 0x10BF JUMPI PUSH1 0x40 MSTORE JUMP JUMPDEST PUSH8 0xFFFFFFFFFFFFFFFF DUP2 GT PUSH2 0x10BF JUMPI PUSH1 0x1F ADD PUSH1 0x1F NOT AND PUSH1 0x20 ADD SWAP1 JUMP JUMPDEST SWAP3 SWAP2 SWAP3 PUSH2 0x111F DUP3 PUSH2 0x10F7 JUMP JUMPDEST SWAP2 PUSH2 0x112D PUSH1 0x40 MLOAD SWAP4 DUP5 PUSH2 0x10D5 JUMP JUMPDEST DUP3 SWAP5 DUP2 DUP5 MSTORE DUP2 DUP4 ADD GT PUSH2 0x1088 JUMPI DUP3 DUP2 PUSH1 0x20 SWAP4 DUP5 PUSH1 0x0 SWAP7 ADD CALLDATACOPY ADD ADD MSTORE JUMP JUMPDEST SWAP1 DUP1 PUSH1 0x1F DUP4 ADD SLT ISZERO PUSH2 0x1088 JUMPI DUP2 PUSH1 0x20 PUSH2 0x1165 SWAP4 CALLDATALOAD SWAP2 ADD PUSH2 0x1113 JUMP JUMPDEST SWAP1 JUMP JUMPDEST PUSH1 0x0 JUMPDEST DUP4 DUP2 LT PUSH2 0x117B JUMPI POP POP PUSH1 0x0 SWAP2 ADD MSTORE JUMP JUMPDEST DUP2 DUP2 ADD MLOAD DUP4 DUP3 ADD MSTORE PUSH1 0x20 ADD PUSH2 0x116B JUMP JUMPDEST SWAP1 PUSH1 0x20 SWAP2 PUSH2 0x11A4 DUP2 MLOAD DUP1 SWAP3 DUP2 DUP6 MSTORE DUP6 DUP1 DUP7 ADD SWAP2 ADD PUSH2 0x1168 JUMP JUMPDEST PUSH1 0x1F ADD PUSH1 0x1F NOT AND ADD ADD SWAP1 JUMP JUMPDEST PUSH1 0x60 SWAP1 PUSH1 0x3 NOT ADD SLT PUSH2 0x1088 JUMPI PUSH1 0x1 PUSH1 0x1 PUSH1 0xA0 SHL SUB SWAP1 PUSH1 0x4 CALLDATALOAD DUP3 DUP2 AND DUP2 SUB PUSH2 0x1088 JUMPI SWAP2 PUSH1 0x24 CALLDATALOAD SWAP1 DUP2 AND DUP2 SUB PUSH2 0x1088 JUMPI SWAP1 PUSH1 0x44 CALLDATALOAD SWAP1 JUMP JUMPDEST SWAP1 PUSH1 0x1 DUP3 DUP2 SHR SWAP3 AND DUP1 ISZERO PUSH2 0x1215 JUMPI JUMPDEST PUSH1 0x20 DUP4 LT EQ PUSH2 0x11FF JUMPI JUMP JUMPDEST PUSH4 0x4E487B71 PUSH1 0xE0 SHL PUSH1 0x0 MSTORE PUSH1 0x22 PUSH1 0x4 MSTORE PUSH1 0x24 PUSH1 0x0 REVERT JUMPDEST SWAP2 PUSH1 0x7F AND SWAP2 PUSH2 0x11F4 JUMP JUMPDEST SWAP1 PUSH1 0x40 MLOAD SWAP2 DUP3 PUSH1 0x0 DUP3 SLOAD SWAP3 PUSH2 0x1233 DUP5 PUSH2 0x11E5 JUMP JUMPDEST SWAP1 DUP2 DUP5 MSTORE PUSH1 0x1 SWAP5 DUP6 DUP2 AND SWAP1 DUP2 PUSH1 0x0 EQ PUSH2 0x12A2 JUMPI POP PUSH1 0x1 EQ PUSH2 0x125F JUMPI JUMPDEST POP POP PUSH2 0x125D SWAP3 POP SUB DUP4 PUSH2 0x10D5 JUMP JUMPDEST JUMP JUMPDEST SWAP1 SWAP4 SWAP2 POP PUSH1 0x0 MSTORE PUSH1 0x20 SWAP1 DUP2 PUSH1 0x0 KECCAK256 SWAP4 PUSH1 0x0 SWAP2 JUMPDEST DUP2 DUP4 LT PUSH2 0x128A JUMPI POP POP PUSH2 0x125D SWAP4 POP DUP3 ADD ADD CODESIZE DUP1 PUSH2 0x124F JUMP JUMPDEST DUP6 SLOAD DUP9 DUP5 ADD DUP6 ADD MSTORE SWAP5 DUP6 ADD SWAP5 DUP8 SWAP5 POP SWAP2 DUP4 ADD SWAP2 PUSH2 0x1272 JUMP JUMPDEST SWAP2 POP POP PUSH2 0x125D SWAP5 POP PUSH1 0x20 SWAP3 POP PUSH1 0xFF NOT AND DUP3 DUP5 ADD MSTORE ISZERO ISZERO PUSH1 0x5 SHL DUP3 ADD ADD CODESIZE DUP1 PUSH2 0x124F JUMP JUMPDEST PUSH1 0x6 SLOAD PUSH1 0x1 PUSH1 0x1 PUSH1 0xA0 SHL SUB AND CALLER SUB PUSH2 0x12D9 JUMPI JUMP JUMPDEST PUSH1 0x40 MLOAD PUSH4 0x118CDAA7 PUSH1 0xE0 SHL DUP2 MSTORE CALLER PUSH1 0x4 DUP3 ADD MSTORE PUSH1 0x24 SWAP1 REVERT JUMPDEST PUSH1 0x1 PUSH1 0x1 PUSH1 0xA0 SHL SUB SWAP2 DUP3 AND SWAP3 SWAP1 SWAP2 DUP4 ISZERO PUSH2 0x14EC JUMPI PUSH1 0x0 SWAP3 DUP3 DUP5 MSTORE PUSH1 0x20 SWAP5 PUSH1 0x2 DUP7 MSTORE PUSH1 0x40 SWAP6 DUP4 DUP8 DUP8 KECCAK256 SLOAD AND ISZERO ISZERO DUP1 PUSH2 0x14E4 JUMPI JUMPDEST PUSH2 0x1492 JUMPI SWAP1 DUP5 SWAP2 DUP3 DUP8 MSTORE PUSH1 0x2 DUP2 MSTORE DUP5 DUP9 DUP9 KECCAK256 SLOAD AND SWAP7 DUP8 SWAP2 CALLER ISZERO ISZERO DUP1 PUSH2 0x13FC JUMPI JUMPDEST POP SWAP1 PUSH1 0x2 PUSH32 0xDDF252AD1BE2C89B69C2B068FC378DAA952BA7F163C4A11628F55A4DF523B3EF SWAP3 DUP5 PUSH2 0x13C9 JUMPI JUMPDEST DUP6 DUP4 MSTORE PUSH1 0x3 DUP2 MSTORE DUP12 DUP4 KECCAK256 DUP1 SLOAD PUSH1 0x1 ADD SWAP1 SSTORE DUP7 DUP4 MSTORE MSTORE DUP10 DUP2 KECCAK256 DUP1 SLOAD PUSH1 0x1 PUSH1 0x1 PUSH1 0xA0 SHL SUB NOT AND DUP6 OR SWAP1 SSTORE DUP1 LOG4 AND SWAP3 DUP4 DUP4 SUB PUSH2 0x13A8 JUMPI POP POP POP POP JUMP JUMPDEST PUSH1 0x64 SWAP5 POP MLOAD SWAP3 PUSH4 0x64283D7B PUSH1 0xE0 SHL DUP5 MSTORE PUSH1 0x4 DUP5 ADD MSTORE PUSH1 0x24 DUP4 ADD MSTORE PUSH1 0x44 DUP3 ADD MSTORE REVERT JUMPDEST PUSH1 0x0 DUP8 DUP2 MSTORE PUSH1 0x4 PUSH1 0x20 MSTORE PUSH1 0x40 SWAP1 KECCAK256 DUP1 SLOAD PUSH1 0x1 PUSH1 0x1 PUSH1 0xA0 SHL SUB NOT AND SWAP1 SSTORE DUP5 DUP4 MSTORE PUSH1 0x3 DUP2 MSTORE DUP12 DUP4 KECCAK256 DUP1 SLOAD PUSH1 0x0 NOT ADD SWAP1 SSTORE PUSH2 0x136F JUMP JUMPDEST SWAP2 SWAP4 SWAP5 POP SWAP2 POP DUP1 PUSH2 0x1451 JUMPI JUMPDEST ISZERO PUSH2 0x1418 JUMPI DUP6 SWAP3 SWAP2 DUP8 SWAP2 CODESIZE PUSH2 0x1343 JUMP JUMPDEST DUP8 DUP7 DUP9 PUSH2 0x1435 JUMPI PUSH1 0x24 SWAP2 MLOAD SWAP1 PUSH4 0x7E273289 PUSH1 0xE0 SHL DUP3 MSTORE PUSH1 0x4 DUP3 ADD MSTORE REVERT JUMPDEST PUSH1 0x44 SWAP2 MLOAD SWAP1 PUSH4 0x177E802F PUSH1 0xE0 SHL DUP3 MSTORE CALLER PUSH1 0x4 DUP4 ADD MSTORE PUSH1 0x24 DUP3 ADD MSTORE REVERT JUMPDEST POP CALLER DUP8 EQ DUP1 ISZERO PUSH2 0x1476 JUMPI JUMPDEST DUP1 PUSH2 0x1408 JUMPI POP DUP6 DUP3 MSTORE PUSH1 0x4 DUP2 MSTORE CALLER DUP6 DUP10 DUP5 KECCAK256 SLOAD AND EQ PUSH2 0x1408 JUMP JUMPDEST POP DUP7 DUP3 MSTORE PUSH1 0x5 DUP2 MSTORE DUP8 DUP3 KECCAK256 CALLER DUP4 MSTORE DUP2 MSTORE PUSH1 0xFF DUP9 DUP4 KECCAK256 SLOAD AND PUSH2 0x145C JUMP JUMPDEST PUSH1 0x84 SWAP1 DUP8 MLOAD SWAP1 PUSH3 0x461BCD PUSH1 0xE5 SHL DUP3 MSTORE PUSH1 0x4 DUP3 ADD MSTORE PUSH1 0x26 PUSH1 0x24 DUP3 ADD MSTORE PUSH32 0x536F756C626F756E6420746F6B656E732063616E6E6F74206265207472616E73 PUSH1 0x44 DUP3 ADD MSTORE PUSH6 0x19995C9C9959 PUSH1 0xD2 SHL PUSH1 0x64 DUP3 ADD MSTORE REVERT JUMPDEST POP PUSH1 0x1 PUSH2 0x1323 JUMP JUMPDEST PUSH1 0x40 MLOAD PUSH4 0x32505749 PUSH1 0xE1 SHL DUP2 MSTORE PUSH1 0x0 PUSH1 0x4 DUP3 ADD MSTORE PUSH1 0x24 SWAP1 REVERT JUMPDEST PUSH1 0x0 DUP2 DUP2 MSTORE PUSH1 0x2 PUSH1 0x20 MSTORE PUSH1 0x40 SWAP1 KECCAK256 SLOAD PUSH1 0x1 PUSH1 0x1 PUSH1 0xA0 SHL SUB AND SWAP1 DUP2 ISZERO PUSH2 0x1528 JUMPI POP SWAP1 JUMP JUMPDEST PUSH1 0x24 SWAP1 PUSH1 0x40 MLOAD SWAP1 PUSH4 0x7E273289 PUSH1 0xE0 SHL DUP3 MSTORE PUSH1 0x4 DUP3 ADD MSTORE REVERT JUMPDEST SWAP1 SWAP4 SWAP2 SWAP3 DUP4 EXTCODESIZE PUSH2 0x1552 JUMPI JUMPDEST POP POP POP POP POP JUMP JUMPDEST PUSH1 0x40 MLOAD PUSH4 0xA85BD01 PUSH1 0xE1 SHL DUP1 DUP3 MSTORE PUSH1 0x1 PUSH1 0x1 PUSH1 0xA0 SHL SUB SWAP4 DUP5 AND PUSH1 0x4 DUP4 ADD MSTORE SWAP6 DUP4 AND PUSH1 0x24 DUP3 ADD MSTORE PUSH1 0x44 DUP2 ADD SWAP2 SWAP1 SWAP2 MSTORE PUSH1 0x80 PUSH1 0x64 DUP3 ADD MSTORE SWAP5 SWAP3 AND SWAP3 PUSH1 0x20 SWAP3 SWAP2 DUP6 SWAP1 PUSH2 0x159F SWAP1 PUSH1 0x84 DUP4 ADD SWAP1 PUSH2 0x118B JUMP JUMPDEST SUB SWAP5 DUP4 DUP2 PUSH1 0x0 SWAP8 DUP2 DUP10 DUP10 GAS CALL DUP7 SWAP2 DUP2 PUSH2 0x164A JUMPI JUMPDEST POP PUSH2 0x1614 JUMPI POP POP POP RETURNDATASIZE PUSH1 0x0 EQ PUSH2 0x160B JUMPI RETURNDATASIZE PUSH2 0x15CD DUP2 PUSH2 0x10F7 JUMP JUMPDEST SWAP1 PUSH2 0x15DB PUSH1 0x40 MLOAD SWAP3 DUP4 PUSH2 0x10D5 JUMP JUMPDEST DUP2 MSTORE DUP1 SWAP4 DUP3 RETURNDATASIZE SWAP3 ADD RETURNDATACOPY JUMPDEST DUP3 MLOAD SWAP3 DUP4 PUSH2 0x1606 JUMPI PUSH1 0x40 MLOAD PUSH4 0x32505749 PUSH1 0xE1 SHL DUP2 MSTORE PUSH1 0x4 DUP2 ADD DUP5 SWAP1 MSTORE PUSH1 0x24 SWAP1 REVERT JUMPDEST ADD SWAP1 POP REVERT JUMPDEST PUSH1 0x60 SWAP3 POP PUSH2 0x15E5 JUMP JUMPDEST SWAP2 SWAP5 POP SWAP2 POP PUSH4 0xFFFFFFFF PUSH1 0xE0 SHL AND SUB PUSH2 0x1632 JUMPI POP CODESIZE DUP1 DUP1 DUP1 DUP1 PUSH2 0x154B JUMP JUMPDEST PUSH1 0x24 SWAP1 PUSH1 0x40 MLOAD SWAP1 PUSH4 0x32505749 PUSH1 0xE1 SHL DUP3 MSTORE PUSH1 0x4 DUP3 ADD MSTORE REVERT JUMPDEST SWAP1 SWAP2 POP DUP5 DUP2 DUP2 RETURNDATASIZE DUP4 GT PUSH2 0x1683 JUMPI JUMPDEST PUSH2 0x1662 DUP2 DUP4 PUSH2 0x10D5 JUMP JUMPDEST DUP2 ADD SUB SLT PUSH2 0x1002 JUMPI MLOAD PUSH1 0x1 PUSH1 0x1 PUSH1 0xE0 SHL SUB NOT DUP2 AND DUP2 SUB PUSH2 0x1002 JUMPI SWAP1 CODESIZE PUSH2 0x15B3 JUMP JUMPDEST POP RETURNDATASIZE PUSH2 0x1658 JUMP JUMPDEST PUSH1 0x0 NOT DUP2 EQ PUSH2 0x1699 JUMPI PUSH1 0x1 ADD SWAP1 JUMP JUMPDEST PUSH4 0x4E487B71 PUSH1 0xE0 SHL PUSH1 0x0 MSTORE PUSH1 0x11 PUSH1 0x4 MSTORE PUSH1 0x24 PUSH1 0x0 REVERT JUMPDEST DUP2 DUP2 LT PUSH2 0x16BA JUMPI POP POP JUMP JUMPDEST PUSH1 0x0 DUP2 SSTORE PUSH1 0x1 ADD PUSH2 0x16AF JUMP JUMPDEST ISZERO PUSH2 0x16CD JUMPI JUMP JUMPDEST PUSH1 0x40 MLOAD PUSH3 0x461BCD PUSH1 0xE5 SHL DUP2 MSTORE PUSH1 0x20 PUSH1 0x4 DUP3 ADD MSTORE PUSH1 0x14 PUSH1 0x24 DUP3 ADD MSTORE PUSH20 0x151BDAD95B88191BD95CC81B9BDD08195E1A5CDD PUSH1 0x62 SHL PUSH1 0x44 DUP3 ADD MSTORE PUSH1 0x64 SWAP1 REVERT JUMPDEST PUSH2 0x1712 DUP2 PUSH2 0x1505 JUMP JUMPDEST POP PUSH1 0x8 SLOAD SWAP1 PUSH2 0x1720 DUP3 PUSH2 0x11E5 JUMP JUMPDEST ISZERO PUSH2 0x1800 JUMPI PUSH2 0x172E SWAP1 PUSH2 0x1815 JUMP JUMPDEST PUSH1 0x40 MLOAD DUP1 SWAP3 PUSH1 0x0 SWAP1 PUSH2 0x173F DUP2 PUSH2 0x11E5 JUMP JUMPDEST SWAP1 PUSH1 0x1 SWAP1 DUP2 DUP2 AND SWAP1 DUP2 ISZERO PUSH2 0x17DB JUMPI POP PUSH1 0x1 EQ PUSH2 0x178C JUMPI JUMPDEST POP POP SWAP1 PUSH1 0x20 DUP3 PUSH2 0x1771 DUP6 PUSH1 0x5 SWAP6 PUSH2 0x1165 SWAP8 MLOAD SWAP5 DUP6 SWAP3 ADD PUSH2 0x1168 JUMP JUMPDEST ADD PUSH5 0x173539B7B7 PUSH1 0xD9 SHL DUP2 MSTORE SUB PUSH1 0x1A NOT DUP2 ADD DUP5 MSTORE ADD DUP3 PUSH2 0x10D5 JUMP JUMPDEST PUSH1 0x8 PUSH1 0x0 SWAP1 DUP2 MSTORE SWAP2 SWAP3 POP PUSH1 0x0 DUP1 MLOAD PUSH1 0x20 PUSH2 0x1902 DUP4 CODECOPY DUP2 MLOAD SWAP2 MSTORE JUMPDEST DUP4 DUP4 LT PUSH2 0x17C0 JUMPI POP POP POP DUP2 ADD PUSH1 0x20 SWAP1 DUP2 ADD SWAP1 PUSH2 0x1165 PUSH2 0x1756 JUMP JUMPDEST DUP1 SLOAD PUSH1 0x20 DUP5 DUP10 ADD DUP2 ADD SWAP2 SWAP1 SWAP2 MSTORE DUP8 SWAP6 POP SWAP1 SWAP3 ADD SWAP2 DUP2 ADD PUSH2 0x17A6 JUMP JUMPDEST PUSH1 0xFF NOT AND PUSH1 0x20 DUP1 DUP8 ADD SWAP2 SWAP1 SWAP2 MSTORE DUP4 ISZERO ISZERO SWAP1 SWAP4 MUL DUP6 ADD DUP4 ADD SWAP4 POP PUSH2 0x1165 SWAP2 POP PUSH2 0x1756 SWAP1 POP JUMP JUMPDEST POP POP PUSH1 0x40 MLOAD PUSH2 0x180E DUP2 PUSH2 0x10A3 JUMP JUMPDEST PUSH1 0x0 DUP2 MSTORE SWAP1 JUMP JUMPDEST DUP1 ISZERO PUSH2 0x18D2 JUMPI PUSH1 0x0 DUP2 DUP1 JUMPDEST PUSH2 0x18BE JUMPI POP PUSH2 0x182E DUP2 PUSH2 0x10F7 JUMP JUMPDEST SWAP1 PUSH2 0x183C PUSH1 0x40 MLOAD SWAP3 DUP4 PUSH2 0x10D5 JUMP JUMPDEST DUP1 DUP3 MSTORE PUSH1 0x1F NOT PUSH2 0x184B DUP3 PUSH2 0x10F7 JUMP JUMPDEST ADD CALLDATASIZE PUSH1 0x20 DUP5 ADD CALLDATACOPY JUMPDEST DUP1 SWAP3 DUP1 ISZERO PUSH2 0x18B7 JUMPI PUSH1 0x0 NOT DUP3 ADD SWAP2 DUP3 GT PUSH2 0x1699 JUMPI DUP2 SWAP4 PUSH1 0xA SWAP3 PUSH1 0x30 SWAP1 DUP5 DUP5 MOD DUP3 ADD DUP1 SWAP3 GT PUSH2 0x1699 JUMPI DUP6 MLOAD GT ISZERO PUSH2 0x18A1 JUMPI PUSH1 0xF8 SHL PUSH1 0x1 PUSH1 0x1 PUSH1 0xF8 SHL SUB NOT AND PUSH1 0x0 BYTE SWAP1 DUP5 ADD PUSH1 0x1F ADD MSTORE8 DIV SWAP2 PUSH2 0x1853 JUMP JUMPDEST PUSH4 0x4E487B71 PUSH1 0xE0 SHL PUSH1 0x0 MSTORE PUSH1 0x32 PUSH1 0x4 MSTORE PUSH1 0x24 PUSH1 0x0 REVERT JUMPDEST POP POP SWAP1 POP SWAP1 JUMP JUMPDEST SWAP1 PUSH2 0x18CA PUSH1 0xA SWAP2 PUSH2 0x168A JUMP JUMPDEST SWAP2 DIV DUP1 PUSH2 0x1820 JUMP JUMPDEST POP PUSH1 0x40 MLOAD PUSH1 0x40 DUP2 ADD DUP2 DUP2 LT PUSH8 0xFFFFFFFFFFFFFFFF DUP3 GT OR PUSH2 0x10BF JUMPI PUSH1 0x40 MSTORE PUSH1 0x1 DUP2 MSTORE PUSH1 0x3 PUSH1 0xFC SHL PUSH1 0x20 DUP3 ADD MSTORE SWAP1 JUMP INVALID RETURN 0xF7 0xA9 INVALID CALLDATASIZE 0x4F 0xAA 0xB9 EXTCODESIZE 0x21 PUSH14 0xA50A3214154F22A0A2B415B23A84 0xC8 AND SWAP15 DUP12 PUSH4 0x6EE3A164 PUSH20 0x6F6C6343000814000A0000000000000000000000 "},"methodIdentifiers":{"approve(address,uint256)":"095ea7b3","balanceOf(address)":"70a08231","baseURI()":"6c0360eb","getApproved(uint256)":"081812fc","getMetadata(uint256)":"a574cea4","isApprovedForAll(address,address)":"e985e9c5","issue(address,string)":"04b444d9","name()":"06fdde03","owner()":"8da5cb5b","ownerOf(uint256)":"6352211e","renounceOwnership()":"715018a6","revoke(uint256)":"20c5429b","safeTransferFrom(address,address,uint256)":"42842e0e","safeTransferFrom(address,address,uint256,bytes)":"b88d4fde","setApprovalForAll(address,bool)":"a22cb465","setBaseURI(string)":"55f804b3","supportsInterface(bytes4)":"01ffc9a7","symbol()":"95d89b41","tokenMetadata(uint256)":"6914db60","tokenURI(uint256)":"c87b56dd","transferFrom(address,address,uint256)":"23b872dd","transferOwnership(address)":"f2fde38b"}}}}}