{"src/contracts/MultiSigWallet.sol":{"MultiSigWallet":{"abi":[{"inputs":[{"internalType":"address[]","name":"_owners","type":"address[]"},{"internalType":"uint256","name":"_required","type":"uint256"}],"stateMutability":"payable","type":"constructor"},{"anonymous":false,"inputs":[{"indexed":true,"internalType":"address","name":"owner","type":"address"},{"indexed":true,"internalType":"uint256","name":"transactionId","type":"uint256"}],"name":"Confirmation","type":"event"},{"anonymous":false,"inputs":[{"indexed":true,"internalType":"address","name":"sender","type":"address"},{"indexed":false,"internalType":"uint256","name":"value","type":"uint256"}],"name":"Deposit","type":"event"},{"anonymous":false,"inputs":[{"indexed":true,"internalType":"uint256","name":"transactionId","type":"uint256"}],"name":"Execution","type":"event"},{"anonymous":false,"inputs":[{"indexed":true,"internalType":"address","name":"owner","type":"address"},{"indexed":true,"internalType":"uint256","name":"transactionId","type":"uint256"}],"name":"Revocation","type":"event"},{"anonymous":false,"inputs":[{"indexed":true,"internalType":"uint256","name":"transactionId","type":"uint256"}],"name":"Submission","type":"event"},{"inputs":[{"internalType":"uint256","name":"_transactionId","type":"uint256"}],"name":"confirmTransaction","outputs":[],"stateMutability":"nonpayable","type":"function"},{"inputs":[{"internalType":"uint256","name":"","type":"uint256"},{"internalType":"address","name":"","type":"address"}],"name":"confirmations","outputs":[{"internalType":"bool","name":"","type":"bool"}],"stateMutability":"view","type":"function"},{"inputs":[{"internalType":"uint256","name":"_transactionId","type":"uint256"}],"name":"executeTransaction","outputs":[],"stateMutability":"nonpayable","type":"function"},{"inputs":[{"internalType":"uint256","name":"_transactionId","type":"uint256"}],"name":"getConfirmationCount","outputs":[{"internalType":"uint256","name":"count","type":"uint256"}],"stateMutability":"view","type":"function"},{"inputs":[{"internalType":"address","name":"","type":"address"}],"name":"isOwner","outputs":[{"internalType":"bool","name":"","type":"bool"}],"stateMutability":"view","type":"function"},{"inputs":[{"internalType":"uint256","name":"","type":"uint256"}],"name":"owners","outputs":[{"internalType":"address","name":"","type":"address"}],"stateMutability":"view","type":"function"},{"inputs":[],"name":"required","outputs":[{"internalType":"uint256","name":"","type":"uint256"}],"stateMutability":"view","type":"function"},{"inputs":[{"internalType":"address","name":"_destination","type":"address"},{"internalType":"uint256","name":"_value","type":"uint256"},{"internalType":"bytes","name":"_data","type":"bytes"}],"name":"submitTransaction","outputs":[{"internalType":"uint256","name":"transactionId","type":"uint256"}],"stateMutability":"nonpayable","type":"function"},{"inputs":[{"internalType":"uint256","name":"","type":"uint256"}],"name":"transactions","outputs":[{"internalType":"address","name":"destination","type":"address"},{"internalType":"uint256","name":"value","type":"uint256"},{"internalType":"bytes","name":"data","type":"bytes"},{"internalType":"bool","name":"executed","type":"bool"}],"stateMutability":"view","type":"function"},{"stateMutability":"payable","type":"receive"}],"evm":{"bytecode":{"linkReferences":{},"object":"604060808152620011a990813803806200001981620002d8565b9384398201918181840312620002d35780516001600160401b039390848111620002d35782019181601f84011215620002d35782519485116200017d5760059185831b60209485806200006e818501620002d8565b809a81520192820101928311620002d35790858094939201905b828210620002a75750505001519380511562000271578415158062000265575b15620002215760005b81518110156200020e5780831b82018401516001600160a01b03168015620001ca57806000526000855260ff86600020541662000193578060005260008552856000206001908160ff19825416179055805490680100000000000000008210156200017d57808201808255821015620001675760009081528690200180546001600160a01b031916909117905560001981146200015157600101620000b1565b634e487b7160e01b600052601160045260246000fd5b634e487b7160e01b600052603260045260246000fd5b634e487b7160e01b600052604160045260246000fd5b855162461bcd60e51b815260048101869052601060248201526f4f776e6572206e6f7420756e6971756560801b6044820152606490fd5b855162461bcd60e51b815260048101869052601560248201527f496e76616c6964206f776e6572206164647265737300000000000000000000006044820152606490fd5b848660025551610eaa9081620002ff8239f35b835162461bcd60e51b815260048101849052601760248201527f496e76616c6964207265717569726564206e756d6265720000000000000000006044820152606490fd5b508051851115620000a8565b835162461bcd60e51b815260048101849052600f60248201526e13dddb995c9cc81c995c5d5a5c9959608a1b6044820152606490fd5b815193945091929091906001600160a01b0381168103620002d357815285939291840190840162000088565b600080fd5b6040519190601f01601f191682016001600160401b038111838210176200017d5760405256fe60806040526004361015610047575b361561001957600080fd5b6040513481527fe1fffcc4923d04b559f4d29a8bfc6cda04eb5b0d3c460751c2402c5c5cc9109c60203392a2005b60003560e01c8063025e7c2714610c2d5780632f54bf6e14610bee5780633411c81c14610b9c5780638b51d13f14610b765780639ace38c214610a23578063c01a8c8414610805578063c6427474146102b9578063dc8452cd1461029b5763ee22610b0361000e573461029657602080600319360112610296576004359033600052600081526100de60ff60406000205416610d84565b6100f860ff60036100ee85610cd2565b5001541615610dbc565b61010182610dfe565b600254116102575761011282610cd2565b50600381019060019060ff1992828482541617905560018060a01b038154169260028383015492019060405193600092805461014d81610d0c565b93818416918215610240575050600114610205575b505050916000939181859403925af13d15610200573d61018181610d68565b9061018f6040519283610d46565b81526000833d92013e5b156101c657507f33e13ecb54c3076d8e8bb8c2881800a4d972b792045ffae98fdf46df365fed75600080a2005b6064906040519062461bcd60e51b825260048201526013602482015272151e08195e1958dd5d1a5bdb8819985a5b1959606a1b6044820152fd5b610199565b909192506000528560002090866000925b84841061022e57505050908301905081836000610162565b80548785015292019187908201610216565b168752505050801515028301905081836000610162565b6064906040519062461bcd60e51b8252600482015260186024820152774e6f7420656e6f75676820636f6e6669726d6174696f6e7360401b6044820152fd5b600080fd5b34610296576000366003190112610296576020600254604051908152f35b34610296576060366003190112610296576102d2610cbc565b67ffffffffffffffff9060443582811161029657366023820112156102965780600401356102ff81610d68565b9161030d6040519384610d46565b81835236602483830101116102965781600092602460209301838601378301015233600052600060205261034860ff60406000205416610d84565b600354926040519260808401848110838211176107d95760405260018060a01b03168352602083019160243583526040840190815260006060850152680100000000000000008510156107d957600185016003556103a585610cd2565b9390936107ef57845184546001600160a01b0319166001600160a01b03919091161784555160018401555180519182116107d9576103e66002840154610d0c565b601f8111610792575b50602090601f831160011461072057918060609492600394600092610715575b50508160011b9160001990851b1c19161760028201555b0191015115159060ff199160ff838354169116179055817fc0ba8fe4b176c1714197d43b9cc6bcf797a4a7461c5fe8d0ef6e184ae7601e51600080a233600052600060205261047c60ff60406000205416610d84565b61048c60ff60036100ee85610cd2565b81600052600460205260406000203360005260205260ff604060002054166106d957816000526004602052604060002033600052602052604060002060018282541617905581337f4a504a94899432a9846e1aa406dceb1bcfd538bb839071d49d1e5e23f5be30ef600080a361050182610dfe565b60025480911015610518575b602083604051908152f35b33600052600060205261053260ff60406000205416610d84565b61054260ff60036100ee86610cd2565b61054b83610dfe565b106106995761055982610cd2565b50906003820160018282541617905560018060a01b038254169160026001820154910160405192600091805461058e81610d0c565b9260018216918215610685575050600114610650575b5050916000939181859403925af13d1561064b573d6105c281610d68565b906105d06040519283610d46565b8152600060203d92013e5b1561061057806020917f33e13ecb54c3076d8e8bb8c2881800a4d972b792045ffae98fdf46df365fed75600080a2908261050d565b60405162461bcd60e51b8152602060048201526013602482015272151e08195e1958dd5d1a5bdb8819985a5b1959606a1b6044820152606490fd5b6105db565b90915060005260206000206000905b828210610671575050820181836105a4565b60018160209254848801520191019061065f565b1686525050801515028301905081836105a4565b60405162461bcd60e51b81526020600482015260186024820152774e6f7420656e6f75676820636f6e6669726d6174696f6e7360401b6044820152606490fd5b60405162461bcd60e51b8152602060048201526014602482015273151e08185b1c9958591e4818dbdb999a5c9b595960621b6044820152606490fd5b01519050878061040f565b90601f198316916002850160005260206000209260005b81811061077a57509260019285926003966060989610610762575b505050811b016002820155610426565b015160001983871b60f8161c19169055878080610752565b92936020600181928786015181550195019301610737565b600284016000526020600020601f840160051c8101602085106107d2575b601f830160051c820181106107c65750506103ef565b600081556001016107b0565b50806107b0565b634e487b7160e01b600052604160045260246000fd5b634e487b7160e01b600052600060045260246000fd5b34610296576020806003193601126102965760043590336000526000815261083460ff60406000205416610d84565b61084460ff60036100ee85610cd2565b8160005260048152604060002033600052815260ff604060002054166109e857816000526004815260406000203360005281526040600020600160ff1991818382541617905583337f4a504a94899432a9846e1aa406dceb1bcfd538bb839071d49d1e5e23f5be30ef600080a36108ba84610dfe565b600254809110156108c757005b33600052600084526108e060ff60406000205416610d84565b6108f060ff60036100ee88610cd2565b6108f985610dfe565b106109a85761090784610cd2565b5060038101828482541617905560018060a01b038154169260028383015492019060405193600092805461093a81610d0c565b9381841691821561024057505060011461096d57505050916000939181859403925af13d15610200573d61018181610d68565b909192506000528560002090866000925b84841061099657505050908301905081836000610162565b8054878501529201918790820161097e565b60405162461bcd60e51b81526004810184905260186024820152774e6f7420656e6f75676820636f6e6669726d6174696f6e7360401b6044820152606490fd5b6064906040519062461bcd60e51b825260048201526014602482015273151e08185b1c9958591e4818dbdb999a5c9b595960621b6044820152fd5b34610296576020806003193601126102965760043560035481101561029657610a4b90610cd2565b509060018060a01b0382541691600191828201549160028101604051948591600091815491610a7983610d0c565b92838652878382169182600014610b50575050600114610b0e575b50505091610aab60039260ff949896980387610d46565b0154166040519485938452828401526080604084015283519182608085015260005b838110610af757505060a09350600084838501015215156060830152601f80199101168101030190f35b80860182015187820160a001528694508101610acd565b86935060009291925282600020916000925b828410610b3857505050820101610aab8260ff610a94565b8054848b018601528995508794909301928101610b20565b60ff19168782015293151560051b86019093019350610aab925084915060ff9050610a94565b34610296576020366003190112610296576020610b94600435610dfe565b604051908152f35b34610296576040366003190112610296576024356001600160a01b03811690819003610296576004356000526004602052604060002090600052602052602060ff604060002054166040519015158152f35b34610296576020366003190112610296576001600160a01b03610c0f610cbc565b166000526000602052602060ff604060002054166040519015158152f35b346102965760203660031901126102965760043560015481101561029657610c56602091610c6f565b905460405160039290921b1c6001600160a01b03168152f35b600154811015610ca65760016000527fb10e2d527612073b26eecdfd717e6a320cf44b4afac2b0732d9fcbe2b7fa0cf60190600090565b634e487b7160e01b600052603260045260246000fd5b600435906001600160a01b038216820361029657565b600354811015610ca657600360005260021b7fc2575a0e9e593c00f959f8c92f12db2869c3395a3b0502d05e2516446f71f85b0190600090565b90600182811c92168015610d3c575b6020831014610d2657565b634e487b7160e01b600052602260045260246000fd5b91607f1691610d1b565b90601f8019910116810190811067ffffffffffffffff8211176107d957604052565b67ffffffffffffffff81116107d957601f01601f191660200190565b15610d8b57565b60405162461bcd60e51b81526020600482015260096024820152682737ba1037bbb732b960b91b6044820152606490fd5b15610dc357565b60405162461bcd60e51b8152602060048201526013602482015272151e08185b1c9958591e48195e1958dd5d1959606a1b6044820152606490fd5b60018054600093928490815b838110610e18575050505050565b81835260046020818152604080862060ff92610e3386610c6f565b905460039190911b1c6001600160a01b031688525285205416610e76575b506000198114610e62578401610e0a565b634e487b7160e01b83526011600452602483fd5b8588929801809211610e8a57509538610e51565b634e487b7160e01b845260119052602483fdfea164736f6c6343000814000a","opcodes":"PUSH1 0x40 PUSH1 0x80 DUP2 MSTORE PUSH3 0x11A9 SWAP1 DUP2 CODESIZE SUB DUP1 PUSH3 0x19 DUP2 PUSH3 0x2D8 JUMP JUMPDEST SWAP4 DUP5 CODECOPY DUP3 ADD SWAP2 DUP2 DUP2 DUP5 SUB SLT PUSH3 0x2D3 JUMPI DUP1 MLOAD PUSH1 0x1 PUSH1 0x1 PUSH1 0x40 SHL SUB SWAP4 SWAP1 DUP5 DUP2 GT PUSH3 0x2D3 JUMPI DUP3 ADD SWAP2 DUP2 PUSH1 0x1F DUP5 ADD SLT ISZERO PUSH3 0x2D3 JUMPI DUP3 MLOAD SWAP5 DUP6 GT PUSH3 0x17D JUMPI PUSH1 0x5 SWAP2 DUP6 DUP4 SHL PUSH1 0x20 SWAP5 DUP6 DUP1 PUSH3 0x6E DUP2 DUP6 ADD PUSH3 0x2D8 JUMP JUMPDEST DUP1 SWAP11 DUP2 MSTORE ADD SWAP3 DUP3 ADD ADD SWAP3 DUP4 GT PUSH3 0x2D3 JUMPI SWAP1 DUP6 DUP1 SWAP5 SWAP4 SWAP3 ADD SWAP1 JUMPDEST DUP3 DUP3 LT PUSH3 0x2A7 JUMPI POP POP POP ADD MLOAD SWAP4 DUP1 MLOAD ISZERO PUSH3 0x271 JUMPI DUP5 ISZERO ISZERO DUP1 PUSH3 0x265 JUMPI JUMPDEST ISZERO PUSH3 0x221 JUMPI PUSH1 0x0 JUMPDEST DUP2 MLOAD DUP2 LT ISZERO PUSH3 0x20E JUMPI DUP1 DUP4 SHL DUP3 ADD DUP5 ADD MLOAD PUSH1 0x1 PUSH1 0x1 PUSH1 0xA0 SHL SUB AND DUP1 ISZERO PUSH3 0x1CA JUMPI DUP1 PUSH1 0x0 MSTORE PUSH1 0x0 DUP6 MSTORE PUSH1 0xFF DUP7 PUSH1 0x0 KECCAK256 SLOAD AND PUSH3 0x193 JUMPI DUP1 PUSH1 0x0 MSTORE PUSH1 0x0 DUP6 MSTORE DUP6 PUSH1 0x0 KECCAK256 PUSH1 0x1 SWAP1 DUP2 PUSH1 0xFF NOT DUP3 SLOAD AND OR SWAP1 SSTORE DUP1 SLOAD SWAP1 PUSH9 0x10000000000000000 DUP3 LT ISZERO PUSH3 0x17D JUMPI DUP1 DUP3 ADD DUP1 DUP3 SSTORE DUP3 LT ISZERO PUSH3 0x167 JUMPI PUSH1 0x0 SWAP1 DUP2 MSTORE DUP7 SWAP1 KECCAK256 ADD DUP1 SLOAD PUSH1 0x1 PUSH1 0x1 PUSH1 0xA0 SHL SUB NOT AND SWAP1 SWAP2 OR SWAP1 SSTORE PUSH1 0x0 NOT DUP2 EQ PUSH3 0x151 JUMPI PUSH1 0x1 ADD PUSH3 0xB1 JUMP JUMPDEST PUSH4 0x4E487B71 PUSH1 0xE0 SHL PUSH1 0x0 MSTORE PUSH1 0x11 PUSH1 0x4 MSTORE PUSH1 0x24 PUSH1 0x0 REVERT JUMPDEST PUSH4 0x4E487B71 PUSH1 0xE0 SHL PUSH1 0x0 MSTORE PUSH1 0x32 PUSH1 0x4 MSTORE PUSH1 0x24 PUSH1 0x0 REVERT JUMPDEST PUSH4 0x4E487B71 PUSH1 0xE0 SHL PUSH1 0x0 MSTORE PUSH1 0x41 PUSH1 0x4 MSTORE PUSH1 0x24 PUSH1 0x0 REVERT JUMPDEST DUP6 MLOAD PUSH3 0x461BCD PUSH1 0xE5 SHL DUP2 MSTORE PUSH1 0x4 DUP2 ADD DUP7 SWAP1 MSTORE PUSH1 0x10 PUSH1 0x24 DUP3 ADD MSTORE PUSH16 0x4F776E6572206E6F7420756E69717565 PUSH1 0x80 SHL PUSH1 0x44 DUP3 ADD MSTORE PUSH1 0x64 SWAP1 REVERT JUMPDEST DUP6 MLOAD PUSH3 0x461BCD PUSH1 0xE5 SHL DUP2 MSTORE PUSH1 0x4 DUP2 ADD DUP7 SWAP1 MSTORE PUSH1 0x15 PUSH1 0x24 DUP3 ADD MSTORE PUSH32 0x496E76616C6964206F776E657220616464726573730000000000000000000000 PUSH1 0x44 DUP3 ADD MSTORE PUSH1 0x64 SWAP1 REVERT JUMPDEST DUP5 DUP7 PUSH1 0x2 SSTORE MLOAD PUSH2 0xEAA SWAP1 DUP2 PUSH3 0x2FF DUP3 CODECOPY RETURN JUMPDEST DUP4 MLOAD PUSH3 0x461BCD PUSH1 0xE5 SHL DUP2 MSTORE PUSH1 0x4 DUP2 ADD DUP5 SWAP1 MSTORE PUSH1 0x17 PUSH1 0x24 DUP3 ADD MSTORE PUSH32 0x496E76616C6964207265717569726564206E756D626572000000000000000000 PUSH1 0x44 DUP3 ADD MSTORE PUSH1 0x64 SWAP1 REVERT JUMPDEST POP DUP1 MLOAD DUP6 GT ISZERO PUSH3 0xA8 JUMP JUMPDEST DUP4 MLOAD PUSH3 0x461BCD PUSH1 0xE5 SHL DUP2 MSTORE PUSH1 0x4 DUP2 ADD DUP5 SWAP1 MSTORE PUSH1 0xF PUSH1 0x24 DUP3 ADD MSTORE PUSH15 0x13DDDB995C9CC81C995C5D5A5C9959 PUSH1 0x8A SHL PUSH1 0x44 DUP3 ADD MSTORE PUSH1 0x64 SWAP1 REVERT JUMPDEST DUP2 MLOAD SWAP4 SWAP5 POP SWAP2 SWAP3 SWAP1 SWAP2 SWAP1 PUSH1 0x1 PUSH1 0x1 PUSH1 0xA0 SHL SUB DUP2 AND DUP2 SUB PUSH3 0x2D3 JUMPI DUP2 MSTORE DUP6 SWAP4 SWAP3 SWAP2 DUP5 ADD SWAP1 DUP5 ADD PUSH3 0x88 JUMP JUMPDEST PUSH1 0x0 DUP1 REVERT JUMPDEST PUSH1 0x40 MLOAD SWAP2 SWAP1 PUSH1 0x1F ADD PUSH1 0x1F NOT AND DUP3 ADD PUSH1 0x1 PUSH1 0x1 PUSH1 0x40 SHL SUB DUP2 GT DUP4 DUP3 LT OR PUSH3 0x17D JUMPI PUSH1 0x40 MSTORE JUMP INVALID PUSH1 0x80 PUSH1 0x40 MSTORE PUSH1 0x4 CALLDATASIZE LT ISZERO PUSH2 0x47 JUMPI JUMPDEST CALLDATASIZE ISZERO PUSH2 0x19 JUMPI PUSH1 0x0 DUP1 REVERT JUMPDEST PUSH1 0x40 MLOAD CALLVALUE DUP2 MSTORE PUSH32 0xE1FFFCC4923D04B559F4D29A8BFC6CDA04EB5B0D3C460751C2402C5C5CC9109C PUSH1 0x20 CALLER SWAP3 LOG2 STOP JUMPDEST PUSH1 0x0 CALLDATALOAD PUSH1 0xE0 SHR DUP1 PUSH4 0x25E7C27 EQ PUSH2 0xC2D JUMPI DUP1 PUSH4 0x2F54BF6E EQ PUSH2 0xBEE JUMPI DUP1 PUSH4 0x3411C81C EQ PUSH2 0xB9C JUMPI DUP1 PUSH4 0x8B51D13F EQ PUSH2 0xB76 JUMPI DUP1 PUSH4 0x9ACE38C2 EQ PUSH2 0xA23 JUMPI DUP1 PUSH4 0xC01A8C84 EQ PUSH2 0x805 JUMPI DUP1 PUSH4 0xC6427474 EQ PUSH2 0x2B9 JUMPI DUP1 PUSH4 0xDC8452CD EQ PUSH2 0x29B JUMPI PUSH4 0xEE22610B SUB PUSH2 0xE JUMPI CALLVALUE PUSH2 0x296 JUMPI PUSH1 0x20 DUP1 PUSH1 0x3 NOT CALLDATASIZE ADD SLT PUSH2 0x296 JUMPI PUSH1 0x4 CALLDATALOAD SWAP1 CALLER PUSH1 0x0 MSTORE PUSH1 0x0 DUP2 MSTORE PUSH2 0xDE PUSH1 0xFF PUSH1 0x40 PUSH1 0x0 KECCAK256 SLOAD AND PUSH2 0xD84 JUMP JUMPDEST PUSH2 0xF8 PUSH1 0xFF PUSH1 0x3 PUSH2 0xEE DUP6 PUSH2 0xCD2 JUMP JUMPDEST POP ADD SLOAD AND ISZERO PUSH2 0xDBC JUMP JUMPDEST PUSH2 0x101 DUP3 PUSH2 0xDFE JUMP JUMPDEST PUSH1 0x2 SLOAD GT PUSH2 0x257 JUMPI PUSH2 0x112 DUP3 PUSH2 0xCD2 JUMP JUMPDEST POP PUSH1 0x3 DUP2 ADD SWAP1 PUSH1 0x1 SWAP1 PUSH1 0xFF NOT SWAP3 DUP3 DUP5 DUP3 SLOAD AND OR SWAP1 SSTORE PUSH1 0x1 DUP1 PUSH1 0xA0 SHL SUB DUP2 SLOAD AND SWAP3 PUSH1 0x2 DUP4 DUP4 ADD SLOAD SWAP3 ADD SWAP1 PUSH1 0x40 MLOAD SWAP4 PUSH1 0x0 SWAP3 DUP1 SLOAD PUSH2 0x14D DUP2 PUSH2 0xD0C JUMP JUMPDEST SWAP4 DUP2 DUP5 AND SWAP2 DUP3 ISZERO PUSH2 0x240 JUMPI POP POP PUSH1 0x1 EQ PUSH2 0x205 JUMPI JUMPDEST POP POP POP SWAP2 PUSH1 0x0 SWAP4 SWAP2 DUP2 DUP6 SWAP5 SUB SWAP3 GAS CALL RETURNDATASIZE ISZERO PUSH2 0x200 JUMPI RETURNDATASIZE PUSH2 0x181 DUP2 PUSH2 0xD68 JUMP JUMPDEST SWAP1 PUSH2 0x18F PUSH1 0x40 MLOAD SWAP3 DUP4 PUSH2 0xD46 JUMP JUMPDEST DUP2 MSTORE PUSH1 0x0 DUP4 RETURNDATASIZE SWAP3 ADD RETURNDATACOPY JUMPDEST ISZERO PUSH2 0x1C6 JUMPI POP PUSH32 0x33E13ECB54C3076D8E8BB8C2881800A4D972B792045FFAE98FDF46DF365FED75 PUSH1 0x0 DUP1 LOG2 STOP JUMPDEST PUSH1 0x64 SWAP1 PUSH1 0x40 MLOAD SWAP1 PUSH3 0x461BCD PUSH1 0xE5 SHL DUP3 MSTORE PUSH1 0x4 DUP3 ADD MSTORE PUSH1 0x13 PUSH1 0x24 DUP3 ADD MSTORE PUSH19 0x151E08195E1958DD5D1A5BDB8819985A5B1959 PUSH1 0x6A SHL PUSH1 0x44 DUP3 ADD MSTORE REVERT JUMPDEST PUSH2 0x199 JUMP JUMPDEST SWAP1 SWAP2 SWAP3 POP PUSH1 0x0 MSTORE DUP6 PUSH1 0x0 KECCAK256 SWAP1 DUP7 PUSH1 0x0 SWAP3 JUMPDEST DUP5 DUP5 LT PUSH2 0x22E JUMPI POP POP POP SWAP1 DUP4 ADD SWAP1 POP DUP2 DUP4 PUSH1 0x0 PUSH2 0x162 JUMP JUMPDEST DUP1 SLOAD DUP8 DUP6 ADD MSTORE SWAP3 ADD SWAP2 DUP8 SWAP1 DUP3 ADD PUSH2 0x216 JUMP JUMPDEST AND DUP8 MSTORE POP POP POP DUP1 ISZERO ISZERO MUL DUP4 ADD SWAP1 POP DUP2 DUP4 PUSH1 0x0 PUSH2 0x162 JUMP JUMPDEST PUSH1 0x64 SWAP1 PUSH1 0x40 MLOAD SWAP1 PUSH3 0x461BCD PUSH1 0xE5 SHL DUP3 MSTORE PUSH1 0x4 DUP3 ADD MSTORE PUSH1 0x18 PUSH1 0x24 DUP3 ADD MSTORE PUSH24 0x4E6F7420656E6F75676820636F6E6669726D6174696F6E73 PUSH1 0x40 SHL PUSH1 0x44 DUP3 ADD MSTORE REVERT JUMPDEST PUSH1 0x0 DUP1 REVERT JUMPDEST CALLVALUE PUSH2 0x296 JUMPI PUSH1 0x0 CALLDATASIZE PUSH1 0x3 NOT ADD SLT PUSH2 0x296 JUMPI PUSH1 0x20 PUSH1 0x2 SLOAD PUSH1 0x40 MLOAD SWAP1 DUP2 MSTORE RETURN JUMPDEST CALLVALUE PUSH2 0x296 JUMPI PUSH1 0x60 CALLDATASIZE PUSH1 0x3 NOT ADD SLT PUSH2 0x296 JUMPI PUSH2 0x2D2 PUSH2 0xCBC JUMP JUMPDEST PUSH8 0xFFFFFFFFFFFFFFFF SWAP1 PUSH1 0x44 CALLDATALOAD DUP3 DUP2 GT PUSH2 0x296 JUMPI CALLDATASIZE PUSH1 0x23 DUP3 ADD SLT ISZERO PUSH2 0x296 JUMPI DUP1 PUSH1 0x4 ADD CALLDATALOAD PUSH2 0x2FF DUP2 PUSH2 0xD68 JUMP JUMPDEST SWAP2 PUSH2 0x30D PUSH1 0x40 MLOAD SWAP4 DUP5 PUSH2 0xD46 JUMP JUMPDEST DUP2 DUP4 MSTORE CALLDATASIZE PUSH1 0x24 DUP4 DUP4 ADD ADD GT PUSH2 0x296 JUMPI DUP2 PUSH1 0x0 SWAP3 PUSH1 0x24 PUSH1 0x20 SWAP4 ADD DUP4 DUP7 ADD CALLDATACOPY DUP4 ADD ADD MSTORE CALLER PUSH1 0x0 MSTORE PUSH1 0x0 PUSH1 0x20 MSTORE PUSH2 0x348 PUSH1 0xFF PUSH1 0x40 PUSH1 0x0 KECCAK256 SLOAD AND PUSH2 0xD84 JUMP JUMPDEST PUSH1 0x3 SLOAD SWAP3 PUSH1 0x40 MLOAD SWAP3 PUSH1 0x80 DUP5 ADD DUP5 DUP2 LT DUP4 DUP3 GT OR PUSH2 0x7D9 JUMPI PUSH1 0x40 MSTORE PUSH1 0x1 DUP1 PUSH1 0xA0 SHL SUB AND DUP4 MSTORE PUSH1 0x20 DUP4 ADD SWAP2 PUSH1 0x24 CALLDATALOAD DUP4 MSTORE PUSH1 0x40 DUP5 ADD SWAP1 DUP2 MSTORE PUSH1 0x0 PUSH1 0x60 DUP6 ADD MSTORE PUSH9 0x10000000000000000 DUP6 LT ISZERO PUSH2 0x7D9 JUMPI PUSH1 0x1 DUP6 ADD PUSH1 0x3 SSTORE PUSH2 0x3A5 DUP6 PUSH2 0xCD2 JUMP JUMPDEST SWAP4 SWAP1 SWAP4 PUSH2 0x7EF JUMPI DUP5 MLOAD DUP5 SLOAD PUSH1 0x1 PUSH1 0x1 PUSH1 0xA0 SHL SUB NOT AND PUSH1 0x1 PUSH1 0x1 PUSH1 0xA0 SHL SUB SWAP2 SWAP1 SWAP2 AND OR DUP5 SSTORE MLOAD PUSH1 0x1 DUP5 ADD SSTORE MLOAD DUP1 MLOAD SWAP2 DUP3 GT PUSH2 0x7D9 JUMPI PUSH2 0x3E6 PUSH1 0x2 DUP5 ADD SLOAD PUSH2 0xD0C JUMP JUMPDEST PUSH1 0x1F DUP2 GT PUSH2 0x792 JUMPI JUMPDEST POP PUSH1 0x20 SWAP1 PUSH1 0x1F DUP4 GT PUSH1 0x1 EQ PUSH2 0x720 JUMPI SWAP2 DUP1 PUSH1 0x60 SWAP5 SWAP3 PUSH1 0x3 SWAP5 PUSH1 0x0 SWAP3 PUSH2 0x715 JUMPI JUMPDEST POP POP DUP2 PUSH1 0x1 SHL SWAP2 PUSH1 0x0 NOT SWAP1 DUP6 SHL SHR NOT AND OR PUSH1 0x2 DUP3 ADD SSTORE JUMPDEST ADD SWAP2 ADD MLOAD ISZERO ISZERO SWAP1 PUSH1 0xFF NOT SWAP2 PUSH1 0xFF DUP4 DUP4 SLOAD AND SWAP2 AND OR SWAP1 SSTORE DUP2 PUSH32 0xC0BA8FE4B176C1714197D43B9CC6BCF797A4A7461C5FE8D0EF6E184AE7601E51 PUSH1 0x0 DUP1 LOG2 CALLER PUSH1 0x0 MSTORE PUSH1 0x0 PUSH1 0x20 MSTORE PUSH2 0x47C PUSH1 0xFF PUSH1 0x40 PUSH1 0x0 KECCAK256 SLOAD AND PUSH2 0xD84 JUMP JUMPDEST PUSH2 0x48C PUSH1 0xFF PUSH1 0x3 PUSH2 0xEE DUP6 PUSH2 0xCD2 JUMP JUMPDEST DUP2 PUSH1 0x0 MSTORE PUSH1 0x4 PUSH1 0x20 MSTORE PUSH1 0x40 PUSH1 0x0 KECCAK256 CALLER PUSH1 0x0 MSTORE PUSH1 0x20 MSTORE PUSH1 0xFF PUSH1 0x40 PUSH1 0x0 KECCAK256 SLOAD AND PUSH2 0x6D9 JUMPI DUP2 PUSH1 0x0 MSTORE PUSH1 0x4 PUSH1 0x20 MSTORE PUSH1 0x40 PUSH1 0x0 KECCAK256 CALLER PUSH1 0x0 MSTORE PUSH1 0x20 MSTORE PUSH1 0x40 PUSH1 0x0 KECCAK256 PUSH1 0x1 DUP3 DUP3 SLOAD AND OR SWAP1 SSTORE DUP2 CALLER PUSH32 0x4A504A94899432A9846E1AA406DCEB1BCFD538BB839071D49D1E5E23F5BE30EF PUSH1 0x0 DUP1 LOG3 PUSH2 0x501 DUP3 PUSH2 0xDFE JUMP JUMPDEST PUSH1 0x2 SLOAD DUP1 SWAP2 LT ISZERO PUSH2 0x518 JUMPI JUMPDEST PUSH1 0x20 DUP4 PUSH1 0x40 MLOAD SWAP1 DUP2 MSTORE RETURN JUMPDEST CALLER PUSH1 0x0 MSTORE PUSH1 0x0 PUSH1 0x20 MSTORE PUSH2 0x532 PUSH1 0xFF PUSH1 0x40 PUSH1 0x0 KECCAK256 SLOAD AND PUSH2 0xD84 JUMP JUMPDEST PUSH2 0x542 PUSH1 0xFF PUSH1 0x3 PUSH2 0xEE DUP7 PUSH2 0xCD2 JUMP JUMPDEST PUSH2 0x54B DUP4 PUSH2 0xDFE JUMP JUMPDEST LT PUSH2 0x699 JUMPI PUSH2 0x559 DUP3 PUSH2 0xCD2 JUMP JUMPDEST POP SWAP1 PUSH1 0x3 DUP3 ADD PUSH1 0x1 DUP3 DUP3 SLOAD AND OR SWAP1 SSTORE PUSH1 0x1 DUP1 PUSH1 0xA0 SHL SUB DUP3 SLOAD AND SWAP2 PUSH1 0x2 PUSH1 0x1 DUP3 ADD SLOAD SWAP2 ADD PUSH1 0x40 MLOAD SWAP3 PUSH1 0x0 SWAP2 DUP1 SLOAD PUSH2 0x58E DUP2 PUSH2 0xD0C JUMP JUMPDEST SWAP3 PUSH1 0x1 DUP3 AND SWAP2 DUP3 ISZERO PUSH2 0x685 JUMPI POP POP PUSH1 0x1 EQ PUSH2 0x650 JUMPI JUMPDEST POP POP SWAP2 PUSH1 0x0 SWAP4 SWAP2 DUP2 DUP6 SWAP5 SUB SWAP3 GAS CALL RETURNDATASIZE ISZERO PUSH2 0x64B JUMPI RETURNDATASIZE PUSH2 0x5C2 DUP2 PUSH2 0xD68 JUMP JUMPDEST SWAP1 PUSH2 0x5D0 PUSH1 0x40 MLOAD SWAP3 DUP4 PUSH2 0xD46 JUMP JUMPDEST DUP2 MSTORE PUSH1 0x0 PUSH1 0x20 RETURNDATASIZE SWAP3 ADD RETURNDATACOPY JUMPDEST ISZERO PUSH2 0x610 JUMPI DUP1 PUSH1 0x20 SWAP2 PUSH32 0x33E13ECB54C3076D8E8BB8C2881800A4D972B792045FFAE98FDF46DF365FED75 PUSH1 0x0 DUP1 LOG2 SWAP1 DUP3 PUSH2 0x50D JUMP JUMPDEST PUSH1 0x40 MLOAD PUSH3 0x461BCD PUSH1 0xE5 SHL DUP2 MSTORE PUSH1 0x20 PUSH1 0x4 DUP3 ADD MSTORE PUSH1 0x13 PUSH1 0x24 DUP3 ADD MSTORE PUSH19 0x151E08195E1958DD5D1A5BDB8819985A5B1959 PUSH1 0x6A SHL PUSH1 0x44 DUP3 ADD MSTORE PUSH1 0x64 SWAP1 REVERT JUMPDEST PUSH2 0x5DB JUMP JUMPDEST SWAP1 SWAP2 POP PUSH1 0x0 MSTORE PUSH1 0x20 PUSH1 0x0 KECCAK256 PUSH1 0x0 SWAP1 JUMPDEST DUP3 DUP3 LT PUSH2 0x671 JUMPI POP POP DUP3 ADD DUP2 DUP4 PUSH2 0x5A4 JUMP JUMPDEST PUSH1 0x1 DUP2 PUSH1 0x20 SWAP3 SLOAD DUP5 DUP9 ADD MSTORE ADD SWAP2 ADD SWAP1 PUSH2 0x65F JUMP JUMPDEST AND DUP7 MSTORE POP POP DUP1 ISZERO ISZERO MUL DUP4 ADD SWAP1 POP DUP2 DUP4 PUSH2 0x5A4 JUMP JUMPDEST PUSH1 0x40 MLOAD PUSH3 0x461BCD PUSH1 0xE5 SHL DUP2 MSTORE PUSH1 0x20 PUSH1 0x4 DUP3 ADD MSTORE PUSH1 0x18 PUSH1 0x24 DUP3 ADD MSTORE PUSH24 0x4E6F7420656E6F75676820636F6E6669726D6174696F6E73 PUSH1 0x40 SHL PUSH1 0x44 DUP3 ADD MSTORE PUSH1 0x64 SWAP1 REVERT JUMPDEST PUSH1 0x40 MLOAD PUSH3 0x461BCD PUSH1 0xE5 SHL DUP2 MSTORE PUSH1 0x20 PUSH1 0x4 DUP3 ADD MSTORE PUSH1 0x14 PUSH1 0x24 DUP3 ADD MSTORE PUSH20 0x151E08185B1C9958591E4818DBDB999A5C9B5959 PUSH1 0x62 SHL PUSH1 0x44 DUP3 ADD MSTORE PUSH1 0x64 SWAP1 REVERT JUMPDEST ADD MLOAD SWAP1 POP DUP8 DUP1 PUSH2 0x40F JUMP JUMPDEST SWAP1 PUSH1 0x1F NOT DUP4 AND SWAP2 PUSH1 0x2 DUP6 ADD PUSH1 0x0 MSTORE PUSH1 0x20 PUSH1 0x0 KECCAK256 SWAP3 PUSH1 0x0 JUMPDEST DUP2 DUP2 LT PUSH2 0x77A JUMPI POP SWAP3 PUSH1 0x1 SWAP3 DUP6 SWAP3 PUSH1 0x3 SWAP7 PUSH1 0x60 SWAP9 SWAP7 LT PUSH2 0x762 JUMPI JUMPDEST POP POP POP DUP2 SHL ADD PUSH1 0x2 DUP3 ADD SSTORE PUSH2 0x426 JUMP JUMPDEST ADD MLOAD PUSH1 0x0 NOT DUP4 DUP8 SHL PUSH1 0xF8 AND SHR NOT AND SWAP1 SSTORE DUP8 DUP1 DUP1 PUSH2 0x752 JUMP JUMPDEST SWAP3 SWAP4 PUSH1 0x20 PUSH1 0x1 DUP2 SWAP3 DUP8 DUP7 ADD MLOAD DUP2 SSTORE ADD SWAP6 ADD SWAP4 ADD PUSH2 0x737 JUMP JUMPDEST PUSH1 0x2 DUP5 ADD PUSH1 0x0 MSTORE PUSH1 0x20 PUSH1 0x0 KECCAK256 PUSH1 0x1F DUP5 ADD PUSH1 0x5 SHR DUP2 ADD PUSH1 0x20 DUP6 LT PUSH2 0x7D2 JUMPI JUMPDEST PUSH1 0x1F DUP4 ADD PUSH1 0x5 SHR DUP3 ADD DUP2 LT PUSH2 0x7C6 JUMPI POP POP PUSH2 0x3EF JUMP JUMPDEST PUSH1 0x0 DUP2 SSTORE PUSH1 0x1 ADD PUSH2 0x7B0 JUMP JUMPDEST POP DUP1 PUSH2 0x7B0 JUMP JUMPDEST PUSH4 0x4E487B71 PUSH1 0xE0 SHL PUSH1 0x0 MSTORE PUSH1 0x41 PUSH1 0x4 MSTORE PUSH1 0x24 PUSH1 0x0 REVERT JUMPDEST PUSH4 0x4E487B71 PUSH1 0xE0 SHL PUSH1 0x0 MSTORE PUSH1 0x0 PUSH1 0x4 MSTORE PUSH1 0x24 PUSH1 0x0 REVERT JUMPDEST CALLVALUE PUSH2 0x296 JUMPI PUSH1 0x20 DUP1 PUSH1 0x3 NOT CALLDATASIZE ADD SLT PUSH2 0x296 JUMPI PUSH1 0x4 CALLDATALOAD SWAP1 CALLER PUSH1 0x0 MSTORE PUSH1 0x0 DUP2 MSTORE PUSH2 0x834 PUSH1 0xFF PUSH1 0x40 PUSH1 0x0 KECCAK256 SLOAD AND PUSH2 0xD84 JUMP JUMPDEST PUSH2 0x844 PUSH1 0xFF PUSH1 0x3 PUSH2 0xEE DUP6 PUSH2 0xCD2 JUMP JUMPDEST DUP2 PUSH1 0x0 MSTORE PUSH1 0x4 DUP2 MSTORE PUSH1 0x40 PUSH1 0x0 KECCAK256 CALLER PUSH1 0x0 MSTORE DUP2 MSTORE PUSH1 0xFF PUSH1 0x40 PUSH1 0x0 KECCAK256 SLOAD AND PUSH2 0x9E8 JUMPI DUP2 PUSH1 0x0 MSTORE PUSH1 0x4 DUP2 MSTORE PUSH1 0x40 PUSH1 0x0 KECCAK256 CALLER PUSH1 0x0 MSTORE DUP2 MSTORE PUSH1 0x40 PUSH1 0x0 KECCAK256 PUSH1 0x1 PUSH1 0xFF NOT SWAP2 DUP2 DUP4 DUP3 SLOAD AND OR SWAP1 SSTORE DUP4 CALLER PUSH32 0x4A504A94899432A9846E1AA406DCEB1BCFD538BB839071D49D1E5E23F5BE30EF PUSH1 0x0 DUP1 LOG3 PUSH2 0x8BA DUP5 PUSH2 0xDFE JUMP JUMPDEST PUSH1 0x2 SLOAD DUP1 SWAP2 LT ISZERO PUSH2 0x8C7 JUMPI STOP JUMPDEST CALLER PUSH1 0x0 MSTORE PUSH1 0x0 DUP5 MSTORE PUSH2 0x8E0 PUSH1 0xFF PUSH1 0x40 PUSH1 0x0 KECCAK256 SLOAD AND PUSH2 0xD84 JUMP JUMPDEST PUSH2 0x8F0 PUSH1 0xFF PUSH1 0x3 PUSH2 0xEE DUP9 PUSH2 0xCD2 JUMP JUMPDEST PUSH2 0x8F9 DUP6 PUSH2 0xDFE JUMP JUMPDEST LT PUSH2 0x9A8 JUMPI PUSH2 0x907 DUP5 PUSH2 0xCD2 JUMP JUMPDEST POP PUSH1 0x3 DUP2 ADD DUP3 DUP5 DUP3 SLOAD AND OR SWAP1 SSTORE PUSH1 0x1 DUP1 PUSH1 0xA0 SHL SUB DUP2 SLOAD AND SWAP3 PUSH1 0x2 DUP4 DUP4 ADD SLOAD SWAP3 ADD SWAP1 PUSH1 0x40 MLOAD SWAP4 PUSH1 0x0 SWAP3 DUP1 SLOAD PUSH2 0x93A DUP2 PUSH2 0xD0C JUMP JUMPDEST SWAP4 DUP2 DUP5 AND SWAP2 DUP3 ISZERO PUSH2 0x240 JUMPI POP POP PUSH1 0x1 EQ PUSH2 0x96D JUMPI POP POP POP SWAP2 PUSH1 0x0 SWAP4 SWAP2 DUP2 DUP6 SWAP5 SUB SWAP3 GAS CALL RETURNDATASIZE ISZERO PUSH2 0x200 JUMPI RETURNDATASIZE PUSH2 0x181 DUP2 PUSH2 0xD68 JUMP JUMPDEST SWAP1 SWAP2 SWAP3 POP PUSH1 0x0 MSTORE DUP6 PUSH1 0x0 KECCAK256 SWAP1 DUP7 PUSH1 0x0 SWAP3 JUMPDEST DUP5 DUP5 LT PUSH2 0x996 JUMPI POP POP POP SWAP1 DUP4 ADD SWAP1 POP DUP2 DUP4 PUSH1 0x0 PUSH2 0x162 JUMP JUMPDEST DUP1 SLOAD DUP8 DUP6 ADD MSTORE SWAP3 ADD SWAP2 DUP8 SWAP1 DUP3 ADD PUSH2 0x97E JUMP JUMPDEST PUSH1 0x40 MLOAD PUSH3 0x461BCD PUSH1 0xE5 SHL DUP2 MSTORE PUSH1 0x4 DUP2 ADD DUP5 SWAP1 MSTORE PUSH1 0x18 PUSH1 0x24 DUP3 ADD MSTORE PUSH24 0x4E6F7420656E6F75676820636F6E6669726D6174696F6E73 PUSH1 0x40 SHL PUSH1 0x44 DUP3 ADD MSTORE PUSH1 0x64 SWAP1 REVERT JUMPDEST PUSH1 0x64 SWAP1 PUSH1 0x40 MLOAD SWAP1 PUSH3 0x461BCD PUSH1 0xE5 SHL DUP3 MSTORE PUSH1 0x4 DUP3 ADD MSTORE PUSH1 0x14 PUSH1 0x24 DUP3 ADD MSTORE PUSH20 0x151E08185B1C9958591E4818DBDB999A5C9B5959 PUSH1 0x62 SHL PUSH1 0x44 DUP3 ADD MSTORE REVERT JUMPDEST CALLVALUE PUSH2 0x296 JUMPI PUSH1 0x20 DUP1 PUSH1 0x3 NOT CALLDATASIZE ADD SLT PUSH2 0x296 JUMPI PUSH1 0x4 CALLDATALOAD PUSH1 0x3 SLOAD DUP2 LT ISZERO PUSH2 0x296 JUMPI PUSH2 0xA4B SWAP1 PUSH2 0xCD2 JUMP JUMPDEST POP SWAP1 PUSH1 0x1 DUP1 PUSH1 0xA0 SHL SUB DUP3 SLOAD AND SWAP2 PUSH1 0x1 SWAP2 DUP3 DUP3 ADD SLOAD SWAP2 PUSH1 0x2 DUP2 ADD PUSH1 0x40 MLOAD SWAP5 DUP6 SWAP2 PUSH1 0x0 SWAP2 DUP2 SLOAD SWAP2 PUSH2 0xA79 DUP4 PUSH2 0xD0C JUMP JUMPDEST SWAP3 DUP4 DUP7 MSTORE DUP8 DUP4 DUP3 AND SWAP2 DUP3 PUSH1 0x0 EQ PUSH2 0xB50 JUMPI POP POP PUSH1 0x1 EQ PUSH2 0xB0E JUMPI JUMPDEST POP POP POP SWAP2 PUSH2 0xAAB PUSH1 0x3 SWAP3 PUSH1 0xFF SWAP5 SWAP9 SWAP7 SWAP9 SUB DUP8 PUSH2 0xD46 JUMP JUMPDEST ADD SLOAD AND PUSH1 0x40 MLOAD SWAP5 DUP6 SWAP4 DUP5 MSTORE DUP3 DUP5 ADD MSTORE PUSH1 0x80 PUSH1 0x40 DUP5 ADD MSTORE DUP4 MLOAD SWAP2 DUP3 PUSH1 0x80 DUP6 ADD MSTORE PUSH1 0x0 JUMPDEST DUP4 DUP2 LT PUSH2 0xAF7 JUMPI POP POP PUSH1 0xA0 SWAP4 POP PUSH1 0x0 DUP5 DUP4 DUP6 ADD ADD MSTORE ISZERO ISZERO PUSH1 0x60 DUP4 ADD MSTORE PUSH1 0x1F DUP1 NOT SWAP2 ADD AND DUP2 ADD SUB ADD SWAP1 RETURN JUMPDEST DUP1 DUP7 ADD DUP3 ADD MLOAD DUP8 DUP3 ADD PUSH1 0xA0 ADD MSTORE DUP7 SWAP5 POP DUP2 ADD PUSH2 0xACD JUMP JUMPDEST DUP7 SWAP4 POP PUSH1 0x0 SWAP3 SWAP2 SWAP3 MSTORE DUP3 PUSH1 0x0 KECCAK256 SWAP2 PUSH1 0x0 SWAP3 JUMPDEST DUP3 DUP5 LT PUSH2 0xB38 JUMPI POP POP POP DUP3 ADD ADD PUSH2 0xAAB DUP3 PUSH1 0xFF PUSH2 0xA94 JUMP JUMPDEST DUP1 SLOAD DUP5 DUP12 ADD DUP7 ADD MSTORE DUP10 SWAP6 POP DUP8 SWAP5 SWAP1 SWAP4 ADD SWAP3 DUP2 ADD PUSH2 0xB20 JUMP JUMPDEST PUSH1 0xFF NOT AND DUP8 DUP3 ADD MSTORE SWAP4 ISZERO ISZERO PUSH1 0x5 SHL DUP7 ADD SWAP1 SWAP4 ADD SWAP4 POP PUSH2 0xAAB SWAP3 POP DUP5 SWAP2 POP PUSH1 0xFF SWAP1 POP PUSH2 0xA94 JUMP JUMPDEST CALLVALUE PUSH2 0x296 JUMPI PUSH1 0x20 CALLDATASIZE PUSH1 0x3 NOT ADD SLT PUSH2 0x296 JUMPI PUSH1 0x20 PUSH2 0xB94 PUSH1 0x4 CALLDATALOAD PUSH2 0xDFE JUMP JUMPDEST PUSH1 0x40 MLOAD SWAP1 DUP2 MSTORE RETURN JUMPDEST CALLVALUE PUSH2 0x296 JUMPI PUSH1 0x40 CALLDATASIZE PUSH1 0x3 NOT ADD SLT PUSH2 0x296 JUMPI PUSH1 0x24 CALLDATALOAD PUSH1 0x1 PUSH1 0x1 PUSH1 0xA0 SHL SUB DUP2 AND SWAP1 DUP2 SWAP1 SUB PUSH2 0x296 JUMPI PUSH1 0x4 CALLDATALOAD PUSH1 0x0 MSTORE PUSH1 0x4 PUSH1 0x20 MSTORE PUSH1 0x40 PUSH1 0x0 KECCAK256 SWAP1 PUSH1 0x0 MSTORE PUSH1 0x20 MSTORE PUSH1 0x20 PUSH1 0xFF PUSH1 0x40 PUSH1 0x0 KECCAK256 SLOAD AND PUSH1 0x40 MLOAD SWAP1 ISZERO ISZERO DUP2 MSTORE RETURN JUMPDEST CALLVALUE PUSH2 0x296 JUMPI PUSH1 0x20 CALLDATASIZE PUSH1 0x3 NOT ADD SLT PUSH2 0x296 JUMPI PUSH1 0x1 PUSH1 0x1 PUSH1 0xA0 SHL SUB PUSH2 0xC0F PUSH2 0xCBC JUMP JUMPDEST AND PUSH1 0x0 MSTORE PUSH1 0x0 PUSH1 0x20 MSTORE PUSH1 0x20 PUSH1 0xFF PUSH1 0x40 PUSH1 0x0 KECCAK256 SLOAD AND PUSH1 0x40 MLOAD SWAP1 ISZERO ISZERO DUP2 MSTORE RETURN JUMPDEST CALLVALUE PUSH2 0x296 JUMPI PUSH1 0x20 CALLDATASIZE PUSH1 0x3 NOT ADD SLT PUSH2 0x296 JUMPI PUSH1 0x4 CALLDATALOAD PUSH1 0x1 SLOAD DUP2 LT ISZERO PUSH2 0x296 JUMPI PUSH2 0xC56 PUSH1 0x20 SWAP2 PUSH2 0xC6F JUMP JUMPDEST SWAP1 SLOAD PUSH1 0x40 MLOAD PUSH1 0x3 SWAP3 SWAP1 SWAP3 SHL SHR PUSH1 0x1 PUSH1 0x1 PUSH1 0xA0 SHL SUB AND DUP2 MSTORE RETURN JUMPDEST PUSH1 0x1 SLOAD DUP2 LT ISZERO PUSH2 0xCA6 JUMPI PUSH1 0x1 PUSH1 0x0 MSTORE PUSH32 0xB10E2D527612073B26EECDFD717E6A320CF44B4AFAC2B0732D9FCBE2B7FA0CF6 ADD SWAP1 PUSH1 0x0 SWAP1 JUMP JUMPDEST PUSH4 0x4E487B71 PUSH1 0xE0 SHL PUSH1 0x0 MSTORE PUSH1 0x32 PUSH1 0x4 MSTORE PUSH1 0x24 PUSH1 0x0 REVERT JUMPDEST PUSH1 0x4 CALLDATALOAD SWAP1 PUSH1 0x1 PUSH1 0x1 PUSH1 0xA0 SHL SUB DUP3 AND DUP3 SUB PUSH2 0x296 JUMPI JUMP JUMPDEST PUSH1 0x3 SLOAD DUP2 LT ISZERO PUSH2 0xCA6 JUMPI PUSH1 0x3 PUSH1 0x0 MSTORE PUSH1 0x2 SHL PUSH32 0xC2575A0E9E593C00F959F8C92F12DB2869C3395A3B0502D05E2516446F71F85B ADD SWAP1 PUSH1 0x0 SWAP1 JUMP JUMPDEST SWAP1 PUSH1 0x1 DUP3 DUP2 SHR SWAP3 AND DUP1 ISZERO PUSH2 0xD3C JUMPI JUMPDEST PUSH1 0x20 DUP4 LT EQ PUSH2 0xD26 JUMPI JUMP JUMPDEST PUSH4 0x4E487B71 PUSH1 0xE0 SHL PUSH1 0x0 MSTORE PUSH1 0x22 PUSH1 0x4 MSTORE PUSH1 0x24 PUSH1 0x0 REVERT JUMPDEST SWAP2 PUSH1 0x7F AND SWAP2 PUSH2 0xD1B JUMP JUMPDEST SWAP1 PUSH1 0x1F DUP1 NOT SWAP2 ADD AND DUP2 ADD SWAP1 DUP2 LT PUSH8 0xFFFFFFFFFFFFFFFF DUP3 GT OR PUSH2 0x7D9 JUMPI PUSH1 0x40 MSTORE JUMP JUMPDEST PUSH8 0xFFFFFFFFFFFFFFFF DUP2 GT PUSH2 0x7D9 JUMPI PUSH1 0x1F ADD PUSH1 0x1F NOT AND PUSH1 0x20 ADD SWAP1 JUMP JUMPDEST ISZERO PUSH2 0xD8B JUMPI JUMP JUMPDEST PUSH1 0x40 MLOAD PUSH3 0x461BCD PUSH1 0xE5 SHL DUP2 MSTORE PUSH1 0x20 PUSH1 0x4 DUP3 ADD MSTORE PUSH1 0x9 PUSH1 0x24 DUP3 ADD MSTORE PUSH9 0x2737BA1037BBB732B9 PUSH1 0xB9 SHL PUSH1 0x44 DUP3 ADD MSTORE PUSH1 0x64 SWAP1 REVERT JUMPDEST ISZERO PUSH2 0xDC3 JUMPI JUMP JUMPDEST PUSH1 0x40 MLOAD PUSH3 0x461BCD PUSH1 0xE5 SHL DUP2 MSTORE PUSH1 0x20 PUSH1 0x4 DUP3 ADD MSTORE PUSH1 0x13 PUSH1 0x24 DUP3 ADD MSTORE PUSH19 0x151E08185B1C9958591E48195E1958DD5D1959 PUSH1 0x6A SHL PUSH1 0x44 DUP3 ADD MSTORE PUSH1 0x64 SWAP1 REVERT JUMPDEST PUSH1 0x1 DUP1 SLOAD PUSH1 0x0 SWAP4 SWAP3 DUP5 SWAP1 DUP2 JUMPDEST DUP4 DUP2 LT PUSH2 0xE18 JUMPI POP POP POP POP POP JUMP JUMPDEST DUP2 DUP4 MSTORE PUSH1 0x4 PUSH1 0x20 DUP2 DUP2 MSTORE PUSH1 0x40 DUP1 DUP7 KECCAK256 PUSH1 0xFF SWAP3 PUSH2 0xE33 DUP7 PUSH2 0xC6F JUMP JUMPDEST SWAP1 SLOAD PUSH1 0x3 SWAP2 SWAP1 SWAP2 SHL SHR PUSH1 0x1 PUSH1 0x1 PUSH1 0xA0 SHL SUB AND DUP9 MSTORE MSTORE DUP6 KECCAK256 SLOAD AND PUSH2 0xE76 JUMPI JUMPDEST POP PUSH1 0x0 NOT DUP2 EQ PUSH2 0xE62 JUMPI DUP5 ADD PUSH2 0xE0A JUMP JUMPDEST PUSH4 0x4E487B71 PUSH1 0xE0 SHL DUP4 MSTORE PUSH1 0x11 PUSH1 0x4 MSTORE PUSH1 0x24 DUP4 REVERT JUMPDEST DUP6 DUP9 SWAP3 SWAP9 ADD DUP1 SWAP3 GT PUSH2 0xE8A JUMPI POP SWAP6 CODESIZE PUSH2 0xE51 JUMP JUMPDEST PUSH4 0x4E487B71 PUSH1 0xE0 SHL DUP5 MSTORE PUSH1 0x11 SWAP1 MSTORE PUSH1 0x24 DUP4 REVERT INVALID LOG1 PUSH5 0x736F6C6343 STOP ADDMOD EQ STOP EXP "},"methodIdentifiers":{"confirmTransaction(uint256)":"c01a8c84","confirmations(uint256,address)":"3411c81c","executeTransaction(uint256)":"ee22610b","getConfirmationCount(uint256)":"8b51d13f","isOwner(address)":"2f54bf6e","owners(uint256)":"025e7c27","required()":"dc8452cd","submitTransaction(address,uint256,bytes)":"c6427474","transactions(uint256)":"9ace38c2"}}}}}