{
  "_format": "hh-sol-artifact-1",
  "contractName": "GovernanceToken",
  "sourceName": "src/contracts/GovernanceToken.sol",
  "abi": [
    {
      "inputs": [
        {
          "internalType": "address",
          "name": "_founderAddress",
          "type": "address"
        }
      ],
      "stateMutability": "nonpayable",
      "type": "constructor"
    },
    {
      "inputs": [
        {
          "internalType": "address",
          "name": "spender",
          "type": "address"
        },
        {
          "internalType": "uint256",
          "name": "allowance",
          "type": "uint256"
        },
        {
          "internalType": "uint256",
          "name": "needed",
          "type": "uint256"
        }
      ],
      "name": "ERC20InsufficientAllowance",
      "type": "error"
    },
    {
      "inputs": [
        {
          "internalType": "address",
          "name": "sender",
          "type": "address"
        },
        {
          "internalType": "uint256",
          "name": "balance",
          "type": "uint256"
        },
        {
          "internalType": "uint256",
          "name": "needed",
          "type": "uint256"
        }
      ],
      "name": "ERC20InsufficientBalance",
      "type": "error"
    },
    {
      "inputs": [
        {
          "internalType": "address",
          "name": "approver",
          "type": "address"
        }
      ],
      "name": "ERC20InvalidApprover",
      "type": "error"
    },
    {
      "inputs": [
        {
          "internalType": "address",
          "name": "receiver",
          "type": "address"
        }
      ],
      "name": "ERC20InvalidReceiver",
      "type": "error"
    },
    {
      "inputs": [
        {
          "internalType": "address",
          "name": "sender",
          "type": "address"
        }
      ],
      "name": "ERC20InvalidSender",
      "type": "error"
    },
    {
      "inputs": [
        {
          "internalType": "address",
          "name": "spender",
          "type": "address"
        }
      ],
      "name": "ERC20InvalidSpender",
      "type": "error"
    },
    {
      "inputs": [
        {
          "internalType": "address",
          "name": "owner",
          "type": "address"
        }
      ],
      "name": "OwnableInvalidOwner",
      "type": "error"
    },
    {
      "inputs": [
        {
          "internalType": "address",
          "name": "account",
          "type": "address"
        }
      ],
      "name": "OwnableUnauthorizedAccount",
      "type": "error"
    },
    {
      "anonymous": false,
      "inputs": [
        {
          "indexed": true,
          "internalType": "address",
          "name": "owner",
          "type": "address"
        },
        {
          "indexed": true,
          "internalType": "address",
          "name": "spender",
          "type": "address"
        },
        {
          "indexed": false,
          "internalType": "uint256",
          "name": "value",
          "type": "uint256"
        }
      ],
      "name": "Approval",
      "type": "event"
    },
    {
      "anonymous": false,
      "inputs": [
        {
          "indexed": true,
          "internalType": "address",
          "name": "founder",
          "type": "address"
        },
        {
          "indexed": false,
          "internalType": "uint256",
          "name": "amount",
          "type": "uint256"
        }
      ],
      "name": "FounderAllocationSet",
      "type": "event"
    },
    {
      "anonymous": false,
      "inputs": [
        {
          "indexed": true,
          "internalType": "address",
          "name": "previousOwner",
          "type": "address"
        },
        {
          "indexed": true,
          "internalType": "address",
          "name": "newOwner",
          "type": "address"
        }
      ],
      "name": "OwnershipTransferred",
      "type": "event"
    },
    {
      "anonymous": false,
      "inputs": [
        {
          "indexed": true,
          "internalType": "address",
          "name": "from",
          "type": "address"
        },
        {
          "indexed": true,
          "internalType": "address",
          "name": "to",
          "type": "address"
        },
        {
          "indexed": false,
          "internalType": "uint256",
          "name": "value",
          "type": "uint256"
        }
      ],
      "name": "Transfer",
      "type": "event"
    },
    {
      "inputs": [],
      "name": "FOUNDER_ALLOCATION_PERCENTAGE",
      "outputs": [
        {
          "internalType": "uint256",
          "name": "",
          "type": "uint256"
        }
      ],
      "stateMutability": "view",
      "type": "function"
    },
    {
      "inputs": [],
      "name": "TOTAL_SUPPLY",
      "outputs": [
        {
          "internalType": "uint256",
          "name": "",
          "type": "uint256"
        }
      ],
      "stateMutability": "view",
      "type": "function"
    },
    {
      "inputs": [
        {
          "internalType": "address",
          "name": "owner",
          "type": "address"
        },
        {
          "internalType": "address",
          "name": "spender",
          "type": "address"
        }
      ],
      "name": "allowance",
      "outputs": [
        {
          "internalType": "uint256",
          "name": "",
          "type": "uint256"
        }
      ],
      "stateMutability": "view",
      "type": "function"
    },
    {
      "inputs": [
        {
          "internalType": "address",
          "name": "spender",
          "type": "address"
        },
        {
          "internalType": "uint256",
          "name": "value",
          "type": "uint256"
        }
      ],
      "name": "approve",
      "outputs": [
        {
          "internalType": "bool",
          "name": "",
          "type": "bool"
        }
      ],
      "stateMutability": "nonpayable",
      "type": "function"
    },
    {
      "inputs": [
        {
          "internalType": "address",
          "name": "account",
          "type": "address"
        }
      ],
      "name": "balanceOf",
      "outputs": [
        {
          "internalType": "uint256",
          "name": "",
          "type": "uint256"
        }
      ],
      "stateMutability": "view",
      "type": "function"
    },
    {
      "inputs": [],
      "name": "decimals",
      "outputs": [
        {
          "internalType": "uint8",
          "name": "",
          "type": "uint8"
        }
      ],
      "stateMutability": "view",
      "type": "function"
    },
    {
      "inputs": [],
      "name": "founderAddress",
      "outputs": [
        {
          "internalType": "address",
          "name": "",
          "type": "address"
        }
      ],
      "stateMutability": "view",
      "type": "function"
    },
    {
      "inputs": [],
      "name": "getFounderAllocationPercentage",
      "outputs": [
        {
          "internalType": "uint256",
          "name": "",
          "type": "uint256"
        }
      ],
      "stateMutability": "pure",
      "type": "function"
    },
    {
      "inputs": [],
      "name": "getFounderBalance",
      "outputs": [
        {
          "internalType": "uint256",
          "name": "",
          "type": "uint256"
        }
      ],
      "stateMutability": "view",
      "type": "function"
    },
    {
      "inputs": [],
      "name": "name",
      "outputs": [
        {
          "internalType": "string",
          "name": "",
          "type": "string"
        }
      ],
      "stateMutability": "view",
      "type": "function"
    },
    {
      "inputs": [],
      "name": "owner",
      "outputs": [
        {
          "internalType": "address",
          "name": "",
          "type": "address"
        }
      ],
      "stateMutability": "view",
      "type": "function"
    },
    {
      "inputs": [],
      "name": "renounceOwnership",
      "outputs": [],
      "stateMutability": "nonpayable",
      "type": "function"
    },
    {
      "inputs": [],
      "name": "symbol",
      "outputs": [
        {
          "internalType": "string",
          "name": "",
          "type": "string"
        }
      ],
      "stateMutability": "view",
      "type": "function"
    },
    {
      "inputs": [],
      "name": "totalSupply",
      "outputs": [
        {
          "internalType": "uint256",
          "name": "",
          "type": "uint256"
        }
      ],
      "stateMutability": "view",
      "type": "function"
    },
    {
      "inputs": [
        {
          "internalType": "address",
          "name": "to",
          "type": "address"
        },
        {
          "internalType": "uint256",
          "name": "value",
          "type": "uint256"
        }
      ],
      "name": "transfer",
      "outputs": [
        {
          "internalType": "bool",
          "name": "",
          "type": "bool"
        }
      ],
      "stateMutability": "nonpayable",
      "type": "function"
    },
    {
      "inputs": [
        {
          "internalType": "address",
          "name": "from",
          "type": "address"
        },
        {
          "internalType": "address",
          "name": "to",
          "type": "address"
        },
        {
          "internalType": "uint256",
          "name": "value",
          "type": "uint256"
        }
      ],
      "name": "transferFrom",
      "outputs": [
        {
          "internalType": "bool",
          "name": "",
          "type": "bool"
        }
      ],
      "stateMutability": "nonpayable",
      "type": "function"
    },
    {
      "inputs": [
        {
          "internalType": "address",
          "name": "newOwner",
          "type": "address"
        }
      ],
      "name": "transferOwnership",
      "outputs": [],
      "stateMutability": "nonpayable",
      "type": "function"
    }
  ],
  "bytecode": "0x608034620005615762000e6180380391601f1990601f93828582011682019360018060401b0391838610838711176200046557808492604097885283396020938491810103126200056157516001600160a01b0393848216929183900362000561576200006b62000566565b91601683527f54616d627220476f7665726e616e636520546f6b656e00000000000000000000858401526200009f62000566565b97600593848a52642a20a6a12960d91b878b0152805191838311620004655760039283546001938482811c9216801562000556575b8b83101462000540578184849311620004ec575b508a9084831160011462000487576000926200047b575b505060001982861b1c191690831b1783555b8a51938411620004655760049a8b548381811c911680156200045a575b8a8210146200044557828111620003fc575b508891851160011462000393578495509084929160009562000387575b50501b92600019911b1c19161786555b331562000370578054336001600160a01b0319808316821790935586519186167f8be0079c531659141344cd1fd0a4f28419497f9722a3daafe3b4186f6b6457e0600080a382156200032f5750600654161760065530156200031857600254916b033b2e3c9fd0803ce800000092838101809111620003035760025530600052600082528360002083815401905583519283527fddf252ad1be2c89b69c2b068fc378daa952ba7f163c4a11628f55a4df523b3ef92600084843093a380600654168015620002ec5733600052600083528460002054936a52b7d2dcc80cd2e400000094858110620002c9577f2757e94815f97c30f5cacc67e9ff5e3ffa15dcef43c23ee9a64d8652a0c55a069596975033600052600085526a52b7d2dcc80cd2e3ffffff190187600020558160005286600020868154019055865190868252843392a360065416928451908152a2516108da9081620005878239f35b878660649289519263391434e360e21b8452339084015260248301526044820152fd5b845163ec442f0560e01b8152600081880152602490fd5b601186634e487b7160e01b6000525260246000fd5b825163ec442f0560e01b8152600081860152602490fd5b62461bcd60e51b8152868101849052601760248201527f496e76616c696420666f756e64657220616464726573730000000000000000006044820152606490fd5b8451631e4fbdf760e01b8152600081880152602490fd5b0151935038806200015d565b9291948416928b60005284896000209460005b8b89838310620003e45750505010620003c9575b50505050811b0186556200016d565b01519060f884600019921b161c1916905538808080620003ba565b868601518955909701969485019488935001620003a6565b8c60005289600020838088018a1c8201928c89106200043b575b01891c019084905b8281106200042e57505062000140565b600081550184906200041e565b9250819262000416565b60228d634e487b7160e01b6000525260246000fd5b90607f16906200012e565b634e487b7160e01b600052604160045260246000fd5b015190503880620000ff565b908886941691876000528c600020928d6000905b828210620004d45750508411620004bb575b505050811b01835562000111565b015160001983881b60f8161c19169055388080620004ad565b83850151865589979095019493840193018e6200049b565b909150856000528a600020848085018b1c8201928d861062000536575b91879186959493018c1c01915b82811062000526575050620000e8565b6000815585945087910162000516565b9250819262000509565b634e487b7160e01b600052602260045260246000fd5b91607f1691620000d4565b600080fd5b60408051919082016001600160401b03811183821017620004655760405256fe6080604081815260048036101561001557600080fd5b600092833560e01c90816301ad083c1461072e57508063041e011f146106f857806306fdde031461061d578063095ea7b31461057457806318160ddd1461055557806323b872dd14610462578063313ce5671461044657806346bb28331461041d578063674d57f21461040157806370a08231146103be578063715018a61461035e5780638da5cb5b14610335578063902d55a51461030e57806395d89b41146101ee578063a9059cbb146101bd578063dd62ed3e146101705763f2fde38b146100de57600080fd5b3461016c57602036600319011261016c576100f7610792565b906101006107c3565b6001600160a01b03918216928315610156575050600554826bffffffffffffffffffffffff60a01b821617600555167f8be0079c531659141344cd1fd0a4f28419497f9722a3daafe3b4186f6b6457e08380a380f35b51631e4fbdf760e01b8152908101849052602490fd5b8280fd5b5050346101b957806003193601126101b9578060209261018e610792565b6101966107ad565b6001600160a01b0391821683526001865283832091168252845220549051908152f35b5080fd5b5050346101b957806003193601126101b9576020906101e76101dd610792565b60243590336107ef565b5160018152f35b509190346101b957816003193601126101b957805190828454600181811c90808316928315610304575b60209384841081146102f1578388529081156102d55750600114610280575b505050829003601f01601f191682019267ffffffffffffffff84118385101761026d5750829182610269925282610749565b0390f35b634e487b7160e01b815260418552602490fd5b8787529192508591837f8a35acfbc15ff81a39ae7d344fd709f28e8600b4aa8c65c6b64bfe7fe36bd19b5b8385106102c15750505050830101388080610237565b8054888601830152930192849082016102ab565b60ff1916878501525050151560051b8401019050388080610237565b634e487b7160e01b895260228a52602489fd5b91607f1691610218565b5050346101b957816003193601126101b957602090516b033b2e3c9fd0803ce80000008152f35b5050346101b957816003193601126101b95760055490516001600160a01b039091168152602090f35b83346103bb57806003193601126103bb576103776107c3565b600580546001600160a01b0319811690915581906001600160a01b03167f8be0079c531659141344cd1fd0a4f28419497f9722a3daafe3b4186f6b6457e08280a380f35b80fd5b5050346101b95760203660031901126101b9576020906103fa6103df610792565b6001600160a01b031660009081526020819052604090205490565b9051908152f35b5050346101b957816003193601126101b95760209051600a8152f35b5050346101b957816003193601126101b95760065490516001600160a01b039091168152602090f35b5050346101b957816003193601126101b9576020905160128152f35b5082346103bb5760603660031901126103bb5761047d610792565b6104856107ad565b916044359360018060a01b0383168083526001602052868320338452602052868320549160001983106104c1575b6020886101e78989896107ef565b8683106105295781156105125733156104fb575082526001602090815286832033845281529186902090859003905582906101e7876104b3565b8751634a1406b160e11b8152908101849052602490fd5b875163e602df0560e01b8152908101849052602490fd5b8751637dc7a0d960e11b8152339181019182526020820193909352604081018790528291506060010390fd5b5050346101b957816003193601126101b9576020906002549051908152f35b503461016c578160031936011261016c5761058d610792565b602435903315610606576001600160a01b03169182156105ef57508083602095338152600187528181208582528752205582519081527f8c5be1e5ebec7d5bd14f71427d1e84f3dd0314c0f7b2291e5b200ac8c7c3b925843392a35160018152f35b8351634a1406b160e11b8152908101859052602490fd5b835163e602df0560e01b8152808401869052602490fd5b509190346101b957816003193601126101b95780519082600354600181811c908083169283156106ee575b60209384841081146102f1578388529081156102d5575060011461069857505050829003601f01601f191682019267ffffffffffffffff84118385101761026d5750829182610269925282610749565b600387529192508591837fc2575a0e9e593c00f959f8c92f12db2869c3395a3b0502d05e2516446f71f85b5b8385106106da5750505050830101388080610237565b8054888601830152930192849082016106c4565b91607f1691610648565b5050346101b957816003193601126101b9576006546001600160a01b0316600090815260208181526040909120549091906103fa565b8490346101b957816003193601126101b95780600a60209252f35b6020808252825181830181905290939260005b82811061077e57505060409293506000838284010152601f8019910116010190565b81810186015184820160400152850161075c565b600435906001600160a01b03821682036107a857565b600080fd5b602435906001600160a01b03821682036107a857565b6005546001600160a01b031633036107d757565b60405163118cdaa760e01b8152336004820152602490fd5b916001600160a01b038084169283156108b4571692831561089b5760009083825281602052604082205490838210610869575091604082827fddf252ad1be2c89b69c2b068fc378daa952ba7f163c4a11628f55a4df523b3ef958760209652828652038282205586815220818154019055604051908152a3565b60405163391434e360e21b81526001600160a01b03919091166004820152602481019190915260448101839052606490fd5b60405163ec442f0560e01b815260006004820152602490fd5b604051634b637e8f60e11b815260006004820152602490fdfea164736f6c6343000814000a",
  "linkReferences": {},
  "deployedLinkReferences": {}
}