{
  "_format": "hh-sol-artifact-1",
  "contractName": "GovernanceToken",
  "sourceName": "src/contracts/GovernanceToken.sol",
  "abi": [
    {
      "inputs": [
        {
          "internalType": "address",
          "name": "_founderAddress",
          "type": "address"
        }
      ],
      "stateMutability": "nonpayable",
      "type": "constructor"
    },
    {
      "inputs": [],
      "name": "CheckpointUnorderedInsertion",
      "type": "error"
    },
    {
      "inputs": [],
      "name": "ECDSAInvalidSignature",
      "type": "error"
    },
    {
      "inputs": [
        {
          "internalType": "uint256",
          "name": "length",
          "type": "uint256"
        }
      ],
      "name": "ECDSAInvalidSignatureLength",
      "type": "error"
    },
    {
      "inputs": [
        {
          "internalType": "bytes32",
          "name": "s",
          "type": "bytes32"
        }
      ],
      "name": "ECDSAInvalidSignatureS",
      "type": "error"
    },
    {
      "inputs": [
        {
          "internalType": "uint256",
          "name": "increasedSupply",
          "type": "uint256"
        },
        {
          "internalType": "uint256",
          "name": "cap",
          "type": "uint256"
        }
      ],
      "name": "ERC20ExceededSafeSupply",
      "type": "error"
    },
    {
      "inputs": [
        {
          "internalType": "address",
          "name": "spender",
          "type": "address"
        },
        {
          "internalType": "uint256",
          "name": "allowance",
          "type": "uint256"
        },
        {
          "internalType": "uint256",
          "name": "needed",
          "type": "uint256"
        }
      ],
      "name": "ERC20InsufficientAllowance",
      "type": "error"
    },
    {
      "inputs": [
        {
          "internalType": "address",
          "name": "sender",
          "type": "address"
        },
        {
          "internalType": "uint256",
          "name": "balance",
          "type": "uint256"
        },
        {
          "internalType": "uint256",
          "name": "needed",
          "type": "uint256"
        }
      ],
      "name": "ERC20InsufficientBalance",
      "type": "error"
    },
    {
      "inputs": [
        {
          "internalType": "address",
          "name": "approver",
          "type": "address"
        }
      ],
      "name": "ERC20InvalidApprover",
      "type": "error"
    },
    {
      "inputs": [
        {
          "internalType": "address",
          "name": "receiver",
          "type": "address"
        }
      ],
      "name": "ERC20InvalidReceiver",
      "type": "error"
    },
    {
      "inputs": [
        {
          "internalType": "address",
          "name": "sender",
          "type": "address"
        }
      ],
      "name": "ERC20InvalidSender",
      "type": "error"
    },
    {
      "inputs": [
        {
          "internalType": "address",
          "name": "spender",
          "type": "address"
        }
      ],
      "name": "ERC20InvalidSpender",
      "type": "error"
    },
    {
      "inputs": [
        {
          "internalType": "uint256",
          "name": "deadline",
          "type": "uint256"
        }
      ],
      "name": "ERC2612ExpiredSignature",
      "type": "error"
    },
    {
      "inputs": [
        {
          "internalType": "address",
          "name": "signer",
          "type": "address"
        },
        {
          "internalType": "address",
          "name": "owner",
          "type": "address"
        }
      ],
      "name": "ERC2612InvalidSigner",
      "type": "error"
    },
    {
      "inputs": [
        {
          "internalType": "uint256",
          "name": "timepoint",
          "type": "uint256"
        },
        {
          "internalType": "uint48",
          "name": "clock",
          "type": "uint48"
        }
      ],
      "name": "ERC5805FutureLookup",
      "type": "error"
    },
    {
      "inputs": [],
      "name": "ERC6372InconsistentClock",
      "type": "error"
    },
    {
      "inputs": [
        {
          "internalType": "address",
          "name": "account",
          "type": "address"
        },
        {
          "internalType": "uint256",
          "name": "currentNonce",
          "type": "uint256"
        }
      ],
      "name": "InvalidAccountNonce",
      "type": "error"
    },
    {
      "inputs": [],
      "name": "InvalidShortString",
      "type": "error"
    },
    {
      "inputs": [
        {
          "internalType": "uint8",
          "name": "bits",
          "type": "uint8"
        },
        {
          "internalType": "uint256",
          "name": "value",
          "type": "uint256"
        }
      ],
      "name": "SafeCastOverflowedUintDowncast",
      "type": "error"
    },
    {
      "inputs": [
        {
          "internalType": "string",
          "name": "str",
          "type": "string"
        }
      ],
      "name": "StringTooLong",
      "type": "error"
    },
    {
      "inputs": [
        {
          "internalType": "uint256",
          "name": "expiry",
          "type": "uint256"
        }
      ],
      "name": "VotesExpiredSignature",
      "type": "error"
    },
    {
      "anonymous": false,
      "inputs": [
        {
          "indexed": true,
          "internalType": "address",
          "name": "owner",
          "type": "address"
        },
        {
          "indexed": true,
          "internalType": "address",
          "name": "spender",
          "type": "address"
        },
        {
          "indexed": false,
          "internalType": "uint256",
          "name": "value",
          "type": "uint256"
        }
      ],
      "name": "Approval",
      "type": "event"
    },
    {
      "anonymous": false,
      "inputs": [
        {
          "indexed": true,
          "internalType": "address",
          "name": "delegator",
          "type": "address"
        },
        {
          "indexed": true,
          "internalType": "address",
          "name": "fromDelegate",
          "type": "address"
        },
        {
          "indexed": true,
          "internalType": "address",
          "name": "toDelegate",
          "type": "address"
        }
      ],
      "name": "DelegateChanged",
      "type": "event"
    },
    {
      "anonymous": false,
      "inputs": [
        {
          "indexed": true,
          "internalType": "address",
          "name": "delegate",
          "type": "address"
        },
        {
          "indexed": false,
          "internalType": "uint256",
          "name": "previousVotes",
          "type": "uint256"
        },
        {
          "indexed": false,
          "internalType": "uint256",
          "name": "newVotes",
          "type": "uint256"
        }
      ],
      "name": "DelegateVotesChanged",
      "type": "event"
    },
    {
      "anonymous": false,
      "inputs": [],
      "name": "EIP712DomainChanged",
      "type": "event"
    },
    {
      "anonymous": false,
      "inputs": [
        {
          "indexed": true,
          "internalType": "address",
          "name": "founder",
          "type": "address"
        },
        {
          "indexed": false,
          "internalType": "uint256",
          "name": "amount",
          "type": "uint256"
        }
      ],
      "name": "FounderAllocationSet",
      "type": "event"
    },
    {
      "anonymous": false,
      "inputs": [
        {
          "indexed": true,
          "internalType": "address",
          "name": "from",
          "type": "address"
        },
        {
          "indexed": true,
          "internalType": "address",
          "name": "to",
          "type": "address"
        },
        {
          "indexed": false,
          "internalType": "uint256",
          "name": "value",
          "type": "uint256"
        }
      ],
      "name": "Transfer",
      "type": "event"
    },
    {
      "inputs": [],
      "name": "CLOCK_MODE",
      "outputs": [
        {
          "internalType": "string",
          "name": "",
          "type": "string"
        }
      ],
      "stateMutability": "view",
      "type": "function"
    },
    {
      "inputs": [],
      "name": "DOMAIN_SEPARATOR",
      "outputs": [
        {
          "internalType": "bytes32",
          "name": "",
          "type": "bytes32"
        }
      ],
      "stateMutability": "view",
      "type": "function"
    },
    {
      "inputs": [],
      "name": "FOUNDER_ALLOCATION_PERCENTAGE",
      "outputs": [
        {
          "internalType": "uint256",
          "name": "",
          "type": "uint256"
        }
      ],
      "stateMutability": "view",
      "type": "function"
    },
    {
      "inputs": [],
      "name": "TOTAL_SUPPLY",
      "outputs": [
        {
          "internalType": "uint256",
          "name": "",
          "type": "uint256"
        }
      ],
      "stateMutability": "view",
      "type": "function"
    },
    {
      "inputs": [
        {
          "internalType": "address",
          "name": "owner",
          "type": "address"
        },
        {
          "internalType": "address",
          "name": "spender",
          "type": "address"
        }
      ],
      "name": "allowance",
      "outputs": [
        {
          "internalType": "uint256",
          "name": "",
          "type": "uint256"
        }
      ],
      "stateMutability": "view",
      "type": "function"
    },
    {
      "inputs": [
        {
          "internalType": "address",
          "name": "spender",
          "type": "address"
        },
        {
          "internalType": "uint256",
          "name": "value",
          "type": "uint256"
        }
      ],
      "name": "approve",
      "outputs": [
        {
          "internalType": "bool",
          "name": "",
          "type": "bool"
        }
      ],
      "stateMutability": "nonpayable",
      "type": "function"
    },
    {
      "inputs": [
        {
          "internalType": "address",
          "name": "account",
          "type": "address"
        }
      ],
      "name": "balanceOf",
      "outputs": [
        {
          "internalType": "uint256",
          "name": "",
          "type": "uint256"
        }
      ],
      "stateMutability": "view",
      "type": "function"
    },
    {
      "inputs": [
        {
          "internalType": "address",
          "name": "account",
          "type": "address"
        },
        {
          "internalType": "uint32",
          "name": "pos",
          "type": "uint32"
        }
      ],
      "name": "checkpoints",
      "outputs": [
        {
          "components": [
            {
              "internalType": "uint48",
              "name": "_key",
              "type": "uint48"
            },
            {
              "internalType": "uint208",
              "name": "_value",
              "type": "uint208"
            }
          ],
          "internalType": "struct Checkpoints.Checkpoint208",
          "name": "",
          "type": "tuple"
        }
      ],
      "stateMutability": "view",
      "type": "function"
    },
    {
      "inputs": [],
      "name": "clock",
      "outputs": [
        {
          "internalType": "uint48",
          "name": "",
          "type": "uint48"
        }
      ],
      "stateMutability": "view",
      "type": "function"
    },
    {
      "inputs": [],
      "name": "decimals",
      "outputs": [
        {
          "internalType": "uint8",
          "name": "",
          "type": "uint8"
        }
      ],
      "stateMutability": "view",
      "type": "function"
    },
    {
      "inputs": [
        {
          "internalType": "address",
          "name": "delegatee",
          "type": "address"
        }
      ],
      "name": "delegate",
      "outputs": [],
      "stateMutability": "nonpayable",
      "type": "function"
    },
    {
      "inputs": [
        {
          "internalType": "address",
          "name": "delegatee",
          "type": "address"
        },
        {
          "internalType": "uint256",
          "name": "nonce",
          "type": "uint256"
        },
        {
          "internalType": "uint256",
          "name": "expiry",
          "type": "uint256"
        },
        {
          "internalType": "uint8",
          "name": "v",
          "type": "uint8"
        },
        {
          "internalType": "bytes32",
          "name": "r",
          "type": "bytes32"
        },
        {
          "internalType": "bytes32",
          "name": "s",
          "type": "bytes32"
        }
      ],
      "name": "delegateBySig",
      "outputs": [],
      "stateMutability": "nonpayable",
      "type": "function"
    },
    {
      "inputs": [
        {
          "internalType": "address",
          "name": "account",
          "type": "address"
        }
      ],
      "name": "delegates",
      "outputs": [
        {
          "internalType": "address",
          "name": "",
          "type": "address"
        }
      ],
      "stateMutability": "view",
      "type": "function"
    },
    {
      "inputs": [],
      "name": "eip712Domain",
      "outputs": [
        {
          "internalType": "bytes1",
          "name": "fields",
          "type": "bytes1"
        },
        {
          "internalType": "string",
          "name": "name",
          "type": "string"
        },
        {
          "internalType": "string",
          "name": "version",
          "type": "string"
        },
        {
          "internalType": "uint256",
          "name": "chainId",
          "type": "uint256"
        },
        {
          "internalType": "address",
          "name": "verifyingContract",
          "type": "address"
        },
        {
          "internalType": "bytes32",
          "name": "salt",
          "type": "bytes32"
        },
        {
          "internalType": "uint256[]",
          "name": "extensions",
          "type": "uint256[]"
        }
      ],
      "stateMutability": "view",
      "type": "function"
    },
    {
      "inputs": [],
      "name": "founderAddress",
      "outputs": [
        {
          "internalType": "address",
          "name": "",
          "type": "address"
        }
      ],
      "stateMutability": "view",
      "type": "function"
    },
    {
      "inputs": [],
      "name": "getFounderAllocationPercentage",
      "outputs": [
        {
          "internalType": "uint256",
          "name": "",
          "type": "uint256"
        }
      ],
      "stateMutability": "pure",
      "type": "function"
    },
    {
      "inputs": [],
      "name": "getFounderBalance",
      "outputs": [
        {
          "internalType": "uint256",
          "name": "",
          "type": "uint256"
        }
      ],
      "stateMutability": "view",
      "type": "function"
    },
    {
      "inputs": [
        {
          "internalType": "uint256",
          "name": "timepoint",
          "type": "uint256"
        }
      ],
      "name": "getPastTotalSupply",
      "outputs": [
        {
          "internalType": "uint256",
          "name": "",
          "type": "uint256"
        }
      ],
      "stateMutability": "view",
      "type": "function"
    },
    {
      "inputs": [
        {
          "internalType": "address",
          "name": "account",
          "type": "address"
        },
        {
          "internalType": "uint256",
          "name": "timepoint",
          "type": "uint256"
        }
      ],
      "name": "getPastVotes",
      "outputs": [
        {
          "internalType": "uint256",
          "name": "",
          "type": "uint256"
        }
      ],
      "stateMutability": "view",
      "type": "function"
    },
    {
      "inputs": [
        {
          "internalType": "address",
          "name": "account",
          "type": "address"
        }
      ],
      "name": "getVotes",
      "outputs": [
        {
          "internalType": "uint256",
          "name": "",
          "type": "uint256"
        }
      ],
      "stateMutability": "view",
      "type": "function"
    },
    {
      "inputs": [],
      "name": "name",
      "outputs": [
        {
          "internalType": "string",
          "name": "",
          "type": "string"
        }
      ],
      "stateMutability": "view",
      "type": "function"
    },
    {
      "inputs": [
        {
          "internalType": "address",
          "name": "owner",
          "type": "address"
        }
      ],
      "name": "nonces",
      "outputs": [
        {
          "internalType": "uint256",
          "name": "",
          "type": "uint256"
        }
      ],
      "stateMutability": "view",
      "type": "function"
    },
    {
      "inputs": [
        {
          "internalType": "address",
          "name": "account",
          "type": "address"
        }
      ],
      "name": "numCheckpoints",
      "outputs": [
        {
          "internalType": "uint32",
          "name": "",
          "type": "uint32"
        }
      ],
      "stateMutability": "view",
      "type": "function"
    },
    {
      "inputs": [
        {
          "internalType": "address",
          "name": "owner",
          "type": "address"
        },
        {
          "internalType": "address",
          "name": "spender",
          "type": "address"
        },
        {
          "internalType": "uint256",
          "name": "value",
          "type": "uint256"
        },
        {
          "internalType": "uint256",
          "name": "deadline",
          "type": "uint256"
        },
        {
          "internalType": "uint8",
          "name": "v",
          "type": "uint8"
        },
        {
          "internalType": "bytes32",
          "name": "r",
          "type": "bytes32"
        },
        {
          "internalType": "bytes32",
          "name": "s",
          "type": "bytes32"
        }
      ],
      "name": "permit",
      "outputs": [],
      "stateMutability": "nonpayable",
      "type": "function"
    },
    {
      "inputs": [],
      "name": "symbol",
      "outputs": [
        {
          "internalType": "string",
          "name": "",
          "type": "string"
        }
      ],
      "stateMutability": "view",
      "type": "function"
    },
    {
      "inputs": [],
      "name": "totalSupply",
      "outputs": [
        {
          "internalType": "uint256",
          "name": "",
          "type": "uint256"
        }
      ],
      "stateMutability": "view",
      "type": "function"
    },
    {
      "inputs": [
        {
          "internalType": "address",
          "name": "to",
          "type": "address"
        },
        {
          "internalType": "uint256",
          "name": "value",
          "type": "uint256"
        }
      ],
      "name": "transfer",
      "outputs": [
        {
          "internalType": "bool",
          "name": "",
          "type": "bool"
        }
      ],
      "stateMutability": "nonpayable",
      "type": "function"
    },
    {
      "inputs": [
        {
          "internalType": "address",
          "name": "from",
          "type": "address"
        },
        {
          "internalType": "address",
          "name": "to",
          "type": "address"
        },
        {
          "internalType": "uint256",
          "name": "value",
          "type": "uint256"
        }
      ],
      "name": "transferFrom",
      "outputs": [
        {
          "internalType": "bool",
          "name": "",
          "type": "bool"
        }
      ],
      "stateMutability": "nonpayable",
      "type": "function"
    }
  ],
  "bytecode": "0x6101608060405234620000995760206200361980380380916200002282620000b4565b8439126200009957516001600160a01b038116810362000099576200004790620001eb565b604051611e9d9081620016fc82396080518161154c015260a05181611607015260c05181611516015260e0518161159b015261010051816115c1015261012051816107be015261014051816107e70152f35b600080fd5b634e487b7160e01b600052604160045260246000fd5b601f01601f1916610160908101906001600160401b03821190821017620000da57604052565b6200009e565b604081019081106001600160401b03821117620000da57604052565b604051906200010b82620000e0565b565b604051906200011c82620000e0565b60058252565b604051906200013182620000e0565b60018252565b604051906200014682620000e0565b601682527f54616d627220476f7665726e616e636520546f6b656e000000000000000000006020830152565b156200017a57565b60405162461bcd60e51b815260206004820152601760248201527f496e76616c696420666f756e64657220616464726573730000000000000000006044820152606490fd5b634e487b7160e01b600052601160045260246000fd5b600019810191908211620001e557565b620001bf565b90620001f662000137565b916200020162000137565b926200020c6200010d565b90602090642a20a6a12960d91b828401526200022762000122565b9180830193603160f81b8552875160018060401b038111620000da576200025b81620002556003546200040e565b6200044b565b82601f82116001146200037b5790806200029a93926200032a9a9b6000926200036f575b50508160011b916000199060031b1c191617600355620005af565b620002a58262000edd565b61012052620002b48362000ff0565b61014052815191012060e052519020610100524660a052620002d5620011a1565b6080523060c052620002f26001600160a01b038216151562000172565b600b80546001600160a01b0319166001600160a01b038316179055620003188162000d5f565b620003233062000e3d565b80620006a2565b600b546001600160a01b03166040516a52b7d2dcc80cd2e400000081527f2757e94815f97c30f5cacc67e9ff5e3ffa15dcef43c23ee9a64d8652a0c55a0690602090a2565b0151905038806200027f565b6003600052601f198216997fc2575a0e9e593c00f959f8c92f12db2869c3395a3b0502d05e2516446f71f85b9a60005b818110620003f657509a60019284926200029a96956200032a9d9e10620003dc575b505050811b01600355620005af565b015160001960f88460031b161c19169055388080620003cd565b838301518d556001909c019b928601928601620003ab565b90600182811c9216801562000440575b60208310146200042a57565b634e487b7160e01b600052602260045260246000fd5b91607f16916200041e565b601f811162000458575050565b6000906003825260208220906020601f850160051c8301941062000499575b601f0160051c01915b8281106200048d57505050565b81815560010162000480565b909250829062000477565b601f8111620004b1575050565b6000906004825260208220906020601f850160051c83019410620004f2575b601f0160051c01915b828110620004e657505050565b818155600101620004d9565b9092508290620004d0565b601f81116200050a575050565b6000906005825260208220906020601f850160051c830194106200054b575b601f0160051c01915b8281106200053f57505050565b81815560010162000532565b909250829062000529565b601f811162000563575050565b6000906006825260208220906020601f850160051c83019410620005a4575b601f0160051c01915b8281106200059857505050565b8181556001016200058b565b909250829062000582565b80519091906001600160401b038111620000da57620005db81620005d56004546200040e565b620004a4565b602080601f83116001146200061a57508192936000926200060e575b50508160011b916000199060031b1c191617600455565b015190503880620005f7565b6004600052601f198316949091907f8a35acfbc15ff81a39ae7d344fd709f28e8600b4aa8c65c6b64bfe7fe36bd19b926000905b878210620006895750508360019596106200066f575b505050811b01600455565b015160001960f88460031b161c1916905538808062000664565b806001859682949686015181550195019301906200064e565b6001600160a01b03908116600081815260086020526040812080548585166001600160a01b031982168117909255909491939192911690849082907f3134e8a2e6d97e929a7e54011ea5485d7d196dd5f0ba4d4ef95803e8e3fc257f8680a482602052604083205492848214158062000889575b62000723575b5050505050565b816200079f575b5050826200073b575b80806200071c565b6001600160a01b03166000908152600960205260409020600080516020620035f9833981519152916200077b916200077490916200120d565b9062000bff565b604080516001600160d01b039384168152919092166020820152a238808062000733565b6001600160a01b038216600090815260096020526040902090620007c3856200120d565b9165ffffffffffff918243116200086a578154806200082c575090620007ff600080516020620035f9833981519152946200080994936200169a565b914316906200140b565b604080516001600160d01b039384168152919092166020820152a238806200072a565b929190600019948486810111620001e557600080516020620035f983398151915295620008099560208486620007ff96522001015460301c6200169a565b6040516306dfcc6560e41b815260306004820152436024820152604490fd5b5083151562000716565b6001600160a01b038083169291908116908184141580620009df575b620008bb575b50505050565b8162000929575b505081620008d3575b8080620008b5565b6001600160a01b03166000908152600960205260409020600080516020620035f983398151915290620009069062000b18565b604080516001600160d01b039384168152919092166020820152a23880620008cb565b6001600160a01b0316600090815260096020526040902065ffffffffffff8043116200086a57815460009080620009a15750506200097e90600080516020620035f983398151915292620007ff600062001651565b604080516001600160d01b039384168152919092166020820152a23880620008c2565b919092600019938385810111620001e557600080516020620035f9833981519152946200097e9460208385620007ff95522001015460301c62001651565b506001620008af565b6001600160a01b03808316929190811690818414158062000b0f575b62000a0f5750505050565b8162000a59575b50508162000a26578080620008b5565b6001600160a01b03166000908152600960205260409020600080516020620035f983398151915290620009069062000b8d565b6001600160a01b0316600090815260096020526040902065ffffffffffff8043116200086a5781546000908062000ad157505062000aae90600080516020620035f983398151915292620007ff600062001675565b604080516001600160d01b039384168152919092166020820152a2388062000a16565b919092600019938385810111620001e557600080516020620035f98339815191529462000aae9460208385620007ff95522001015460301c62001675565b50600162000a04565b65ffffffffffff908143116200086a5780546000908062000b6b5750506000905b6001600160d01b039182166a52b7d2dcc80cd2e400000001918211620001e55762000b67924316906200140b565b9091565b600019918183810111620001e5578084602092522001015460301c9062000b39565b65ffffffffffff908143116200086a5780546000908062000bdd5750506000905b6001600160d01b039182166b02e87669c308736a0400000001918211620001e55762000b67924316906200140b565b600019918183810111620001e5578084602092522001015460301c9062000bae565b9065ffffffffffff918243116200086a5780546000908062000c4557505060005b6001600160d01b0392831690831601918211620001e55762000b67924316906200140b565b600019918183810111620001e5578084602092522001015460301c62000c20565b65ffffffffffff8043116200086a57600a546000908062000cb457505060005b6001600160d01b039081166a52b7d2dcc80cd2e3ffffff1901908111620001e55762000b679143166200130f565b600019918183810111620001e557600a90520160008051602062003599833981519152015460301c62000c86565b65ffffffffffff8043116200086a57600a546000908062000d3157505060005b6001600160d01b039081166b02e87669c308736a03ffffff1901908111620001e55762000b679143166200130f565b600019918183810111620001e557600a90520160008051602062003599833981519152015460301c62000d02565b6001600160a01b038116801562000e24576002546a52b7d2dcc80cd2e400000090818101809111620001e5576002556001600160a01b03831660009081526020819052604090209081540190556000600080516020620035d98339815191526040518062000ddc81906a52b7d2dcc80cd2e4000000602083019252565b0390a36002546001600160d01b03811162000dfd57506200010b90620014d8565b604051630e58ae9360e11b815260048101919091526001600160d01b036024820152604490fd5b60405163ec442f0560e01b815260006004820152602490fd5b6001600160a01b038116801562000e24576002546b02e87669c308736a0400000090818101809111620001e5576002556001600160a01b03831660009081526020819052604090209081540190556000600080516020620035d98339815191526040518062000ebc81906b02e87669c308736a04000000602083019252565b0390a36002546001600160d01b03811162000dfd57506200010b9062001599565b908151602080821060001462000efe5750509062000efb9062001124565b90565b6001600160401b038211620000da5762000f258262000f1f6005546200040e565b620004fd565b80601f831160011462000f65575081929360009262000f59575b50508160011b916000199060031b1c19161760055560ff90565b01519050388062000f3f565b6005600052601f198316949091907f036b6384b5eca791c62761152d0c79bb0604c104a5fb6f4eb0703f3154bb3db0926000905b87821062000fd757505083600195961062000fbd575b505050811b0160055560ff90565b015160001960f88460031b161c1916905538808062000faf565b8060018596829496860151815501950193019062000f99565b90815160208082106000146200100e5750509062000efb9062001124565b6001600160401b038211620000da5762001035826200102f6006546200040e565b62000556565b80601f831160011462001075575081929360009262001069575b50508160011b916000199060031b1c19161760065560ff90565b0151905038806200104f565b6006600052601f198316949091907ff652222313e28459528d920b65115c16c04f3efc82aaedc97be59f3f377c0d3f926000905b878210620010e7575050836001959610620010cd575b505050811b0160065560ff90565b015160001960f88460031b161c19169055388080620010bf565b80600185968294968601518155019501930190620010a9565b60208151910151906020811062001115575090565b6000199060200360031b1b1690565b601f8151116200113f57620011398162001100565b90511790565b6040519063305a27a960e01b82528160208060048301528251908160248401526000935b82851062001187575050604492506000838284010152601f80199101168101030190fd5b848101820151868601604401529381019385935062001163565b60e051610100516040519060208201927f8b73c3c69bb8fe3d512ecc4cf759cc79239f7b179b0ffacaa9a75d522b39400f8452604083015260608201524660808201523060a082015260a0815260c0810181811060018060401b03821117620000da5760405251902090565b6001600160d01b039081811162001222571690565b604490604051906306dfcc6560e41b825260d060048301526024820152fd5b600a549068010000000000000000821015620000da576001820180600a55821015620012a357600a60005280516020919091015160301b65ffffffffffff191665ffffffffffff91909116176000805160206200359983398151915290910155565b634e487b7160e01b600052603260045260246000fd5b90815468010000000000000000811015620000da5760018101808455811015620012a35760009283526020928390208251929093015160301b65ffffffffffff191665ffffffffffff9290921691909117910155565b600a549192918015620013dc576200132b6200134491620001d5565b600a600052600080516020620035998339815191520190565b9081549165ffffffffffff90818416918316808311620013ca578692036200138c576200138592509065ffffffffffff82549181199060301b169116179055565b60301c9190565b5050620013c490620013af620013a1620000fc565b65ffffffffffff9092168252565b6001600160d01b038516602082015262001241565b62001385565b604051632520601d60e01b8152600490fd5b506200140590620013f0620013a1620000fc565b6001600160d01b038416602082015262001241565b60009190565b80549293928015620014ae57620014266200143391620001d5565b8260005260206000200190565b9182549265ffffffffffff91828516928116808411620013ca578793036200147557506200138592509065ffffffffffff82549181199060301b169116179055565b915050620013c491620014996200148b620000fc565b65ffffffffffff9093168352565b6001600160d01b0386166020830152620012b9565b50906200140591620014c36200148b620000fc565b6001600160d01b0385166020830152620012b9565b65ffffffffffff908143116200086a57600a546000908062001567575050620015146200010b926200150b6000620016b4565b9043166200130f565b50506001600160a01b0390811690811562001555575b6008602052600080516020620035b98339815191525460009283526040909220548116911662000893565b6200155f62000c66565b50506200152a565b9092600019938285810111620001e5576200010b946200151493602083600a6200150b95522001015460301c620016b4565b65ffffffffffff908143116200086a57600a54600090806200161f575050620015cc6200010b926200150b6000620016d7565b50506001600160a01b039081169081156200160d575b6008602052600080516020620035b983398151915254600092835260409092205481169116620009e8565b6200161762000ce2565b5050620015e2565b9092600019938285810111620001e5576200010b94620015cc93602083600a6200150b95522001015460301c620016d7565b6001600160d01b039081166a52b7d2dcc80cd2e3ffffff1901908111620001e55790565b6001600160d01b039081166b02e87669c308736a03ffffff1901908111620001e55790565b6001600160d01b0391821690821603908111620001e55790565b6001600160d01b039081166a52b7d2dcc80cd2e400000001908111620001e55790565b6001600160d01b039081166b02e87669c308736a0400000001908111620001e5579056fe6080604052600436101561001257600080fd5b60003560e01c806301ad083c146101d7578063041e011f146101d257806306fdde03146101cd578063095ea7b3146101c857806318160ddd146101c357806323b872dd146101be578063313ce567146101b95780633644e515146101b45780633a46b1a8146101af57806346bb2833146101aa5780634bf5d7e9146101a5578063587cde1e146101a05780635c19a95c1461019b578063674d57f2146101965780636fcfff451461019157806370a082311461018c5780637ecebe001461018757806384b0196e146101825780638e539e8c1461017d578063902d55a51461017857806391ddadf41461017357806395d89b411461016e5780639ab24eb014610169578063a9059cbb14610164578063c3cda5201461015f578063d505accf1461015a578063dd62ed3e146101555763f1127ed81461015057600080fd5b610d48565b610cf0565b610bbc565b610af3565b610aad565b610a64565b6109bd565b610991565b61096a565b61089b565b6107a3565b610769565b610730565b6106c8565b6101d7565b6106a4565b610669565b6105d7565b6105ae565b6104c6565b6104ab565b61048f565b6103e2565b6103c4565b610393565b610282565b6101f8565b346101f35760003660031901126101f3576020604051600a8152f35b600080fd5b346101f35760003660031901126101f357600b546001600160a01b0316600090815260208181526040909120545b604051908152f35b919082519283825260005b84811061025a575050826000602080949584010152601f8019910116010190565b602081830181015184830182015201610239565b90602061027f92818152019061022e565b90565b346101f3576000806003193601126103645760405190806003546102a581611115565b8085529160019180831690811561033a57506001146102df575b6102db856102cf81870382610e86565b6040519182918261026e565b0390f35b9250600383527fc2575a0e9e593c00f959f8c92f12db2869c3395a3b0502d05e2516446f71f85b5b8284106103225750505081016020016102cf826102db6102bf565b80546020858701810191909152909301928101610307565b8695506102db969350602092506102cf94915060ff191682840152151560051b82010192936102bf565b80fd5b600435906001600160a01b03821682036101f357565b602435906001600160a01b03821682036101f357565b346101f35760403660031901126101f3576103b96103af610367565b6024359033611261565b602060405160018152f35b346101f35760003660031901126101f3576020600254604051908152f35b346101f35760603660031901126101f3576103fb610367565b61040361037d565b6001600160a01b0382166000908152600160209081526040808320338452909152902060443591905492600019841061044d575b610441935061114f565b60405160018152602090f35b828410610469576104648361044195033383611315565b610437565b604051637dc7a0d960e11b81523360048201526024810185905260448101849052606490fd5b346101f35760003660031901126101f357602060405160128152f35b346101f35760003660031901126101f3576020610226611513565b346101f35760403660031901126101f3576001600160a01b036104e7610367565b16600090815260096020526040812090610502602435610eb7565b91805482938160058111610554575b50906020946105209284611d3e565b8061053a5750505b6040516001600160d01b039091168152f35b9161054684929361186b565b92815220015460301c610528565b9461055e866118a8565b86039586116105a9576020956105209385875265ffffffffffff80838a8a20015416908516106000146105975750915b91925094610511565b9291506105a39061187a565b9061058e565b6110ff565b346101f35760003660031901126101f357600b546040516001600160a01b039091168152602090f35b346101f35760003660031901126101f3576105f143611839565b65ffffffffffff8061060243611839565b16911603610657576102db60405161061981610e11565b601d81527f6d6f64653d626c6f636b6e756d6265722666726f6d3d64656661756c74000000602082015260405191829160208352602083019061022e565b6040516301bfc1c560e61b8152600490fd5b346101f35760203660031901126101f35760206001600160a01b038061068d610367565b166000526008825260406000205416604051908152f35b346101f35760203660031901126101f3576106c66106c0610367565b33610ef8565b005b346101f35760203660031901126101f3576001600160a01b036106e9610367565b16600052600960205260406000205463ffffffff908181116107115760209160405191168152f35b604490604051906306dfcc6560e41b8252602060048301526024820152fd5b346101f35760203660031901126101f357602061022661074e610367565b6001600160a01b031660009081526020819052604090205490565b346101f35760203660031901126101f3576001600160a01b0361078a610367565b1660005260076020526020604060002054604051908152f35b346101f3576000806003193601126103645761084d906107e27f0000000000000000000000000000000000000000000000000000000000000000611653565b61080b7f000000000000000000000000000000000000000000000000000000000000000061174c565b916040519161081983610e32565b818352604051948594600f60f81b865261083f60209360e08589015260e088019061022e565b90868203604088015261022e565b904660608601523060808601528260a086015284820360c08601528080855193848152019401925b82811061088457505050500390f35b835185528695509381019392810192600101610875565b346101f35760203660031901126101f3576108b7600435610eb7565b600a5490600082916005841161090f575b6108d29350611cd5565b6000816108e757505060405160008152602090f35b600a6108f460209361186b565b9152600080516020611e71833981519152015460301c610528565b919261091a816118a8565b81039081116105a9576108d293600a835265ffffffffffff8083600080516020611e71833981519152015416908516106000146109585750916108c8565b9291506109649061187a565b906108c8565b346101f35760003660031901126101f35760206040516b033b2e3c9fd0803ce80000008152f35b346101f35760003660031901126101f35760206109ad43611839565b65ffffffffffff60405191168152f35b346101f3576000806003193601126103645760405190806004546109e081611115565b8085529160019180831690811561033a5750600114610a09576102db856102cf81870382610e86565b9250600483527f8a35acfbc15ff81a39ae7d344fd709f28e8600b4aa8c65c6b64bfe7fe36bd19b5b828410610a4c5750505081016020016102cf826102db6102bf565b80546020858701810191909152909301928101610a31565b346101f35760203660031901126101f3576001600160a01b03610a85610367565b166000526009602052602060018060d01b03610aa46040600020611a1d565b16604051908152f35b346101f35760403660031901126101f3576103b9610ac9610367565b602435903361114f565b6064359060ff821682036101f357565b6084359060ff821682036101f357565b346101f35760c03660031901126101f357610b0c610367565b60443590602435610b1b610ad3565b834211610ba357610b976106c694610b9e926040519060208201927fe48329057bfd03d55e49b547132e39cffd9c1820ad7b9d4c5307691425d15adf845260018060a01b0388166040840152866060840152608083015260808252610b7f82610e4e565b610b9260a435936084359351902061162d565b6113be565b9182611368565b610ef8565b604051632341d78760e11b815260048101859052602490fd5b346101f35760e03660031901126101f357610bd5610367565b610bdd61037d565b60443590606435610bec610ae3565b814211610cd7576001600160a01b0385811660008181526007602090815260409182902080546001810190915582517f6e71edae12b1b97f4d1f60370fef10105fa2faae0126114a169c64845d6126c99281019283529283019390935292861660608201526080810187905260a081019190915260c080820194909452928352610c90929091610c7d60e083610e86565b610b9260c4359360a4359351902061162d565b6001600160a01b0384811690821603610cad57506106c692611261565b6040516325c0072360e11b81526001600160a01b0391821660048201529084166024820152604490fd5b60405163313c898160e11b815260048101839052602490fd5b346101f35760403660031901126101f3576020610d3f610d0e610367565b610d1661037d565b6001600160a01b0391821660009081526001855260408082209290931681526020919091522090565b54604051908152f35b346101f35760403660031901126101f357610d61610367565b6024359063ffffffff821682036101f3576102db91610db191610d8261134f565b50610d8b61134f565b506001600160a01b03166000908152600960205260409020610dab61134f565b50611a4b565b5060405190610dbf82610e11565b5465ffffffffffff811680835260309190911c60209283019081526040805192835290516001600160d01b031692820192909252918291820190565b634e487b7160e01b600052604160045260246000fd5b6040810190811067ffffffffffffffff821117610e2d57604052565b610dfb565b6020810190811067ffffffffffffffff821117610e2d57604052565b60a0810190811067ffffffffffffffff821117610e2d57604052565b60c0810190811067ffffffffffffffff821117610e2d57604052565b90601f8019910116810190811067ffffffffffffffff821117610e2d57604052565b60405190610eb582610e11565b565b65ffffffffffff610ec743611839565b1680821015610eda575061027f90611839565b6044925060405191637669fc0f60e11b835260048301526024820152fd5b6001600160a01b03818116600081815260086020526040812080548685166001600160a01b031982168117909255610eb596941694610f759390928691907f3134e8a2e6d97e929a7e54011ea5485d7d196dd5f0ba4d4ef95803e8e3fc257f9080a46001600160a01b031660009081526020819052604090205490565b915b6001600160a01b038083169392919081169081851415806110c0575b610f9f575b5050505050565b81611024575b505082610fb4575b8080610f98565b6001600160a01b031660009081526009602052604090207fdec2bacdd2f05b59de34da9b523dff8be42e5e38e818c82fdb0bae774387a7249161100191610ffb9091611806565b906110c9565b604080516001600160d01b039384168152919092166020820152a2388080610fad565b6001600160a01b0316600090815260096020526040902061104484611806565b61104d43611839565b6001600160d01b0391828061106186611a1d565b1691169003928284116105a9577fdec2bacdd2f05b59de34da9b523dff8be42e5e38e818c82fdb0bae774387a724936110b69261109d92611c19565b6040805192851683529316602082015291829190820190565b0390a23880610fa5565b50831515610f93565b906110d343611839565b6001600160d01b039182806110e786611a1d565b169116019182116110ff576110fb92611c19565b9091565b634e487b7160e01b600052601160045260246000fd5b90600182811c92168015611145575b602083101461112f57565b634e487b7160e01b600052602260045260246000fd5b91607f1691611124565b6001600160a01b0380821694939291908515611248578216801561122f576001600160a01b038216600090815260208190526040902054958487106112005784610eb59697036111b18460018060a01b03166000526000602052604060002090565b556001600160a01b0384166000908152602081815260409182902080548801905590518681527fddf252ad1be2c89b69c2b068fc378daa952ba7f163c4a11628f55a4df523b3ef9190a3611d9f565b60405163391434e360e21b81526001600160a01b03841660048201526024810188905260448101869052606490fd5b60405163ec442f0560e01b815260006004820152602490fd5b604051634b637e8f60e11b815260006004820152602490fd5b6001600160a01b0380821692919083156112fc5782169384156112e357806112d97f8c5be1e5ebec7d5bd14f71427d1e84f3dd0314c0f7b2291e5b200ac8c7c3b925946112c260209560018060a01b03166000526001602052604060002090565b9060018060a01b0316600052602052604060002090565b55604051908152a3565b604051634a1406b160e11b815260006004820152602490fd5b60405163e602df0560e01b815260006004820152602490fd5b906001600160a01b03808316156112fc578116156112e3576112c261134c9260018060a01b03166000526001602052604060002090565b55565b6040519061135c82610e11565b60006020838281520152565b6001600160a01b03811660009081526007602052604090208054600181019091559091819003611396575050565b6040516301d4b62360e61b81526001600160a01b039092166004830152602482015260449150fd5b9161027f93916113cd936113d6565b90929192611486565b91907f7fffffffffffffffffffffffffffffff5d576e7357a4501ddfe92f46681b20a0841161145a57926020929160ff608095604051948552168484015260408301526060820152600092839182805260015afa1561144e5780516001600160a01b0381161561144557918190565b50809160019190565b604051903d90823e3d90fd5b50505060009160039190565b6004111561147057565b634e487b7160e01b600052602160045260246000fd5b61148f81611466565b80611498575050565b6114a181611466565b600181036114bb5760405163f645eedf60e01b8152600490fd5b6114c481611466565b600281036114e55760405163fce698f760e01b815260048101839052602490fd5b806114f1600392611466565b146114f95750565b6040516335e2f38360e21b81526004810191909152602490fd5b307f00000000000000000000000000000000000000000000000000000000000000006001600160a01b03161480611604575b1561156e577f000000000000000000000000000000000000000000000000000000000000000090565b60405160208101907f8b73c3c69bb8fe3d512ecc4cf759cc79239f7b179b0ffacaa9a75d522b39400f82527f000000000000000000000000000000000000000000000000000000000000000060408201527f000000000000000000000000000000000000000000000000000000000000000060608201524660808201523060a082015260a081526115fe81610e6a565b51902090565b507f00000000000000000000000000000000000000000000000000000000000000004614611545565b604290611638611513565b906040519161190160f01b8352600283015260228201522090565b60ff81146116915760ff811690601f821161167f576040519161167583610e11565b8252602082015290565b604051632cd44ac360e21b8152600490fd5b506040516005548160006116a483611115565b8083529260019081811690811561172a57506001146116cb575b5061027f92500382610e86565b6005600090815291507f036b6384b5eca791c62761152d0c79bb0604c104a5fb6f4eb0703f3154bb3db05b84831061170f575061027f9350508101602001386116be565b819350908160209254838589010152019101909184926116f6565b90506020925061027f94915060ff191682840152151560051b820101386116be565b60ff811461176e5760ff811690601f821161167f576040519161167583610e11565b5060405160065481600061178183611115565b8083529260019081811690811561172a57506001146117a7575061027f92500382610e86565b6006600090815291507ff652222313e28459528d920b65115c16c04f3efc82aaedc97be59f3f377c0d3f5b8483106117eb575061027f9350508101602001386116be565b819350908160209254838589010152019101909184926117d2565b6001600160d01b039081811161181a571690565b604490604051906306dfcc6560e41b825260d060048301526024820152fd5b65ffffffffffff9081811161184c571690565b604490604051906306dfcc6560e41b8252603060048301526024820152fd5b6000198101919082116105a957565b90600182018092116105a957565b8115611892570490565b634e487b7160e01b600052601260045260246000fd5b600181111561027f57600181600160801b8110156119c1575b61196961195f61195561194b61194161193761197597600488600160401b6119709a10156119b4575b6401000000008110156119a7575b6201000081101561199a575b61010081101561198e575b6010811015611982575b101561197a575b60030260011c611930818b611888565b0160011c90565b611930818a611888565b6119308189611888565b6119308188611888565b6119308187611888565b6119308186611888565b8093611888565b821190565b900390565b60011b611920565b811c9160021b91611919565b60081c91811b9161190f565b60101c9160081b91611904565b60201c9160101b916118f8565b60401c9160201b916118ea565b50600160401b9050608082901c6118c1565b600a54600090806119e5575050600090565b806000198101116105a957600a7fc65a7bb8d6351c1cf70c95a316cc6a92839c986682d98bc35f958f4883f9d2a79252015460301c90565b805460009181611a2f57505050600090565b6000199282848101116105a95760209181522001015460301c90565b8054821015611a635760005260206000200190600090565b634e487b7160e01b600052603260045260246000fd5b600a5490600160401b821015610e2d576001820180600a55821015611a6357600a600052805160209091015160301b65ffffffffffff191665ffffffffffff9190911617600080516020611e7183398151915290910155565b8054600160401b811015610e2d57611aef91600182018155611a4b565b611b1a57815160209092015160301b65ffffffffffff191665ffffffffffff92909216919091179055565b634e487b7160e01b600052600060045260246000fd5b600a549192918015611bef57611b48611b609161186b565b600a600052600080516020611e718339815191520190565b9081549165ffffffffffff90818416918316808311611bdd57869203611ba557611b9e92509065ffffffffffff82549181199060301b169116179055565b60301c9190565b5050611bd890611bc4611bb6610ea8565b65ffffffffffff9092168252565b6001600160d01b0385166020820152611a79565b611b9e565b604051632520601d60e01b8152600490fd5b50611c1390611bff611bb6610ea8565b6001600160d01b0384166020820152611a79565b60009190565b80549293928015611cb057611c30611c3d9161186b565b8260005260206000200190565b9182549265ffffffffffff91828516928116808411611bdd57879303611c7c5750611b9e92509065ffffffffffff82549181199060301b169116179055565b915050611bd891611c9c611c8e610ea8565b65ffffffffffff9093168352565b6001600160d01b0386166020830152611ad2565b5090611c1391611cc1611c8e610ea8565b6001600160d01b0385166020830152611ad2565b905b828110611ce357505090565b90918082169080831860011c82018092116105a957600a60005265ffffffffffff8083600080516020611e7183398151915201541690851610600014611d2c5750915b90611cd7565b929150611d389061187a565b90611d26565b91905b838210611d4e5750505090565b9091928083169080841860011c82018092116105a95760008581526020902082015465ffffffffffff9081169084161015611d8d5750925b9190611d41565b939250611d999061187a565b91611d86565b6001600160a01b03908116929181908415611e2b575b16908115611de3575b610eb59360005260086020528060406000205416916000526040600020541690610f77565b611dec83611806565b93611df643611839565b6001600160d01b03958680611e096119d3565b16911690039586116105a957610eb595611e2291611b30565b50509350611dbe565b9050611e3683611806565b90611e4043611839565b6001600160d01b03928380611e536119d3565b169116019283116105a9578392611e6991611b30565b5050611db556fec65a7bb8d6351c1cf70c95a316cc6a92839c986682d98bc35f958f4883f9d2a8a164736f6c6343000814000ac65a7bb8d6351c1cf70c95a316cc6a92839c986682d98bc35f958f4883f9d2a85eff886ea0ce6ca488a3d6e336d6c0f75f46d19b42c06ce5ee98e42c96d256c7ddf252ad1be2c89b69c2b068fc378daa952ba7f163c4a11628f55a4df523b3efdec2bacdd2f05b59de34da9b523dff8be42e5e38e818c82fdb0bae774387a724",
  "linkReferences": {},
  "deployedLinkReferences": {}
}