{
  "_format": "hh-sol-artifact-1",
  "contractName": "TambrDynamicBondingCurve",
  "sourceName": "src/contracts/TambrDynamicBondingCurve.sol",
  "abi": [
    {
      "inputs": [
        {
          "internalType": "address",
          "name": "_stablecoin",
          "type": "address"
        },
        {
          "internalType": "address",
          "name": "_treasury",
          "type": "address"
        },
        {
          "internalType": "uint256",
          "name": "_founderFeeRate",
          "type": "uint256"
        },
        {
          "internalType": "address",
          "name": "_trustedForwarder",
          "type": "address"
        }
      ],
      "stateMutability": "nonpayable",
      "type": "constructor"
    },
    {
      "inputs": [
        {
          "internalType": "address",
          "name": "owner",
          "type": "address"
        }
      ],
      "name": "OwnableInvalidOwner",
      "type": "error"
    },
    {
      "inputs": [
        {
          "internalType": "address",
          "name": "account",
          "type": "address"
        }
      ],
      "name": "OwnableUnauthorizedAccount",
      "type": "error"
    },
    {
      "anonymous": false,
      "inputs": [
        {
          "indexed": true,
          "internalType": "address",
          "name": "buyer",
          "type": "address"
        },
        {
          "indexed": false,
          "internalType": "uint256",
          "name": "amountIn",
          "type": "uint256"
        },
        {
          "indexed": false,
          "internalType": "uint256",
          "name": "tokensOut",
          "type": "uint256"
        },
        {
          "indexed": false,
          "internalType": "uint256",
          "name": "founderFee",
          "type": "uint256"
        }
      ],
      "name": "Buy",
      "type": "event"
    },
    {
      "anonymous": false,
      "inputs": [
        {
          "indexed": false,
          "internalType": "uint256",
          "name": "newRate",
          "type": "uint256"
        }
      ],
      "name": "FounderFeeRateUpdated",
      "type": "event"
    },
    {
      "anonymous": false,
      "inputs": [
        {
          "indexed": true,
          "internalType": "address",
          "name": "previousOwner",
          "type": "address"
        },
        {
          "indexed": true,
          "internalType": "address",
          "name": "newOwner",
          "type": "address"
        }
      ],
      "name": "OwnershipTransferred",
      "type": "event"
    },
    {
      "anonymous": false,
      "inputs": [
        {
          "indexed": true,
          "internalType": "address",
          "name": "seller",
          "type": "address"
        },
        {
          "indexed": false,
          "internalType": "uint256",
          "name": "tokensIn",
          "type": "uint256"
        },
        {
          "indexed": false,
          "internalType": "uint256",
          "name": "amountOut",
          "type": "uint256"
        },
        {
          "indexed": false,
          "internalType": "uint256",
          "name": "founderFee",
          "type": "uint256"
        }
      ],
      "name": "Sell",
      "type": "event"
    },
    {
      "anonymous": false,
      "inputs": [
        {
          "indexed": false,
          "internalType": "address",
          "name": "newTreasury",
          "type": "address"
        }
      ],
      "name": "TreasuryUpdated",
      "type": "event"
    },
    {
      "inputs": [],
      "name": "FEE_DENOMINATOR",
      "outputs": [
        {
          "internalType": "uint256",
          "name": "",
          "type": "uint256"
        }
      ],
      "stateMutability": "view",
      "type": "function"
    },
    {
      "inputs": [
        {
          "internalType": "uint256",
          "name": "_amountIn",
          "type": "uint256"
        },
        {
          "internalType": "uint256",
          "name": "_minTokensOut",
          "type": "uint256"
        }
      ],
      "name": "buy",
      "outputs": [],
      "stateMutability": "nonpayable",
      "type": "function"
    },
    {
      "inputs": [
        {
          "internalType": "uint256",
          "name": "_amountIn",
          "type": "uint256"
        }
      ],
      "name": "calculateBuyReturn",
      "outputs": [
        {
          "internalType": "uint256",
          "name": "tokensOut",
          "type": "uint256"
        },
        {
          "internalType": "uint256",
          "name": "feeAmount",
          "type": "uint256"
        }
      ],
      "stateMutability": "view",
      "type": "function"
    },
    {
      "inputs": [
        {
          "internalType": "uint256",
          "name": "_tokensIn",
          "type": "uint256"
        }
      ],
      "name": "calculateSellReturn",
      "outputs": [
        {
          "internalType": "uint256",
          "name": "amountOut",
          "type": "uint256"
        },
        {
          "internalType": "uint256",
          "name": "feeAmount",
          "type": "uint256"
        }
      ],
      "stateMutability": "view",
      "type": "function"
    },
    {
      "inputs": [],
      "name": "founderFeeRate",
      "outputs": [
        {
          "internalType": "uint256",
          "name": "",
          "type": "uint256"
        }
      ],
      "stateMutability": "view",
      "type": "function"
    },
    {
      "inputs": [],
      "name": "owner",
      "outputs": [
        {
          "internalType": "address",
          "name": "",
          "type": "address"
        }
      ],
      "stateMutability": "view",
      "type": "function"
    },
    {
      "inputs": [],
      "name": "renounceOwnership",
      "outputs": [],
      "stateMutability": "nonpayable",
      "type": "function"
    },
    {
      "inputs": [],
      "name": "reserveBalance",
      "outputs": [
        {
          "internalType": "uint256",
          "name": "",
          "type": "uint256"
        }
      ],
      "stateMutability": "view",
      "type": "function"
    },
    {
      "inputs": [
        {
          "internalType": "uint256",
          "name": "_tokensIn",
          "type": "uint256"
        },
        {
          "internalType": "uint256",
          "name": "_minAmountOut",
          "type": "uint256"
        }
      ],
      "name": "sell",
      "outputs": [],
      "stateMutability": "nonpayable",
      "type": "function"
    },
    {
      "inputs": [
        {
          "internalType": "uint256",
          "name": "_newRate",
          "type": "uint256"
        }
      ],
      "name": "setFounderFeeRate",
      "outputs": [],
      "stateMutability": "nonpayable",
      "type": "function"
    },
    {
      "inputs": [
        {
          "internalType": "address",
          "name": "_newTreasury",
          "type": "address"
        }
      ],
      "name": "setTreasury",
      "outputs": [],
      "stateMutability": "nonpayable",
      "type": "function"
    },
    {
      "inputs": [],
      "name": "stablecoin",
      "outputs": [
        {
          "internalType": "contract IERC20",
          "name": "",
          "type": "address"
        }
      ],
      "stateMutability": "view",
      "type": "function"
    },
    {
      "inputs": [
        {
          "internalType": "address",
          "name": "newOwner",
          "type": "address"
        }
      ],
      "name": "transferOwnership",
      "outputs": [],
      "stateMutability": "nonpayable",
      "type": "function"
    },
    {
      "inputs": [],
      "name": "treasury",
      "outputs": [
        {
          "internalType": "address",
          "name": "",
          "type": "address"
        }
      ],
      "stateMutability": "view",
      "type": "function"
    }
  ],
  "bytecode": "0x60a03461010a57601f610a4038819003918201601f19168301916001600160401b0383118484101761010f5780849260809460405283398101031261010a5761004781610125565b9061005460208201610125565b610065606060408401519301610125565b5033156100f15760008054336001600160a01b0319808316821784556040519690946001600160a01b03949093859391908416907f8be0079c531659141344cd1fd0a4f28419497f9722a3daafe3b4186f6b6457e09080a31660805216906001541617600155600255610906908161013a82396080518181816102090152818161029701526104530152f35b604051631e4fbdf760e01b815260006004820152602490fd5b600080fd5b634e487b7160e01b600052604160045260246000fd5b51906001600160a01b038216820361010a5756fe60406080815260048036101561001457600080fd5b600091823560e01c80631e098183146106bf57806336a70065146106a057806361d027b314610677578063715018a61461061d578063828f3a9c146105a95780638da5cb5b146105f5578063a10954fe146105d6578063bc3c39cb146105a9578063d6febde8146103fe578063d73792a9146103e1578063d79875eb1461023c578063e9cbd822146101f4578063f0f442601461014a5763f2fde38b146100ba57600080fd5b34610146576020366003190112610146576001600160a01b03823581811693919290849003610142576100eb610765565b831561012c57505082546001600160a01b0319811683178455167f8be0079c531659141344cd1fd0a4f28419497f9722a3daafe3b4186f6b6457e08380a380f35b51631e4fbdf760e01b8152908101849052602490fd5b8480fd5b8280fd5b50346101465760203660031901126101465781356001600160a01b03811692908390036101f057610179610765565b82156101bf5750600180546001600160a01b03191683179055519081527f7dae230f18360d76a040c81f050aa14eb9d6dc7901b20fc5d855e2a20fe814d190602090a180f35b6020606492519162461bcd60e51b8352820152600c60248201526b5a65726f206164647265737360a01b6044820152fd5b8380fd5b838234610238578160031936011261023857517f00000000000000000000000000000000000000000000000000000000000000006001600160a01b03168152602090f35b5080fd5b5090346101465761026761024f3661074a565b909261025a846107b4565b93819385939210156107db565b600154865163a9059cbb60e01b8082526001600160a01b03928316828501908152602081810196909652909391927f0000000000000000000000000000000000000000000000000000000000000000169085908490819060400103818d855af1918a83156103d65761030b956102e78995899784916103b9575b506108b7565b8b519081523392810192835260208301949094529294859384929091839160400190565b03925af19182156103af5761037c927f846c37eef631e0943682d87352ec117c20008eb7f425c9b85ac011a6d4774cc0969792610350928a92610382575b505061086b565b61035c83600354610791565b600355519283923396846040919493926060820195825260208201520152565b0390a280f35b6103a19250803d106103a8575b610399818361081b565b810190610853565b3880610349565b503d61038f565b86513d89823e3d90fd5b6103d09150883d8a116103a857610399818361081b565b386102e1565b8a51903d90823e3d90fd5b838234610238578160031936011261023857602090516127108152f35b50829034610238576104286104123661074a565b909261041d846107b4565b9390928310156107db565b80516323b872dd60e01b81523387820152306024820152604481018590526020906001600160a01b037f000000000000000000000000000000000000000000000000000000000000000081169183816064818c875af190811561059f5792849261049e89936104d3968d91610582575b5061086b565b600154168a8c88519687958694859363a9059cbb60e01b8552840160209093929193604081019460018060a01b031681520152565b03925af191821561057857906104f29291889261055b575b50506108b7565b6104fc8385610791565b60035490810180911161054857600355519283526020830152604082015233907fbeae048c6d270d9469f86cf6e8fedda3c60ad770f16c24c9fc131c8e9a09101d90806060810161037c565b634e487b7160e01b865260118752602486fd5b6105719250803d106103a857610399818361081b565b88806104eb565b83513d89823e3d90fd5b6105999150863d88116103a857610399818361081b565b8e610498565b85513d8b823e3d90fd5b5091346105d35760203660031901126105d357506105c790356107b4565b82519182526020820152f35b80fd5b8382346102385781600319360112610238576020906003549051908152f35b838234610238578160031936011261023857905490516001600160a01b039091168152602090f35b83346105d357806003193601126105d357610636610765565b80546001600160a01b03198116825581906001600160a01b03167f8be0079c531659141344cd1fd0a4f28419497f9722a3daafe3b4186f6b6457e08280a380f35b83823461023857816003193601126102385760015490516001600160a01b039091168152602090f35b8382346102385781600319360112610238576020906002549051908152f35b5034610146576020366003190112610146578135916106dc610765565b6127108310156107185750816020917fdcd396927df583044701e45157583beba125fcfbc90fac4a48302645a843ccfa9360025551908152a180f35b6020606492519162461bcd60e51b8352820152600d60248201526c0a4c2e8ca40e8dede40d0d2ced609b1b6044820152fd5b6040906003190112610760576004359060243590565b600080fd5b6000546001600160a01b0316330361077957565b60405163118cdaa760e01b8152336004820152602490fd5b9190820391821161079e57565b634e487b7160e01b600052601160045260246000fd5b9060025480830290838204148315171561079e576127106107d791048093610791565b9190565b156107e257565b60405162461bcd60e51b81526020600482015260116024820152700a6d8d2e0e0c2ceca40e8dede40d0d2ced607b1b6044820152606490fd5b90601f8019910116810190811067ffffffffffffffff82111761083d57604052565b634e487b7160e01b600052604160045260246000fd5b90816020910312610760575180151581036107605790565b1561087257565b60405162461bcd60e51b815260206004820152601a60248201527f436f6c6c61746572616c207472616e73666572206661696c65640000000000006044820152606490fd5b156108be57565b60405162461bcd60e51b8152602060048201526013602482015272119959481d1c985b9cd9995c8819985a5b1959606a1b6044820152606490fdfea164736f6c6343000814000a",
  "linkReferences": {},
  "deployedLinkReferences": {}
}