{
  "_format": "hh-sol-artifact-1",
  "contractName": "TambrDynamicBondingCurve",
  "sourceName": "src/contracts/TambrDynamicBondingCurve.sol",
  "abi": [
    {
      "inputs": [
        {
          "internalType": "string",
          "name": "name",
          "type": "string"
        },
        {
          "internalType": "string",
          "name": "symbol",
          "type": "string"
        },
        {
          "internalType": "string",
          "name": "description",
          "type": "string"
        },
        {
          "internalType": "string",
          "name": "imageUrl",
          "type": "string"
        },
        {
          "internalType": "address",
          "name": "_baseToken",
          "type": "address"
        },
        {
          "internalType": "address",
          "name": "_founderAddress",
          "type": "address"
        },
        {
          "internalType": "uint256",
          "name": "_migrationThreshold",
          "type": "uint256"
        },
        {
          "internalType": "address",
          "name": "_oracleAddress",
          "type": "address"
        }
      ],
      "stateMutability": "nonpayable",
      "type": "constructor"
    },
    {
      "inputs": [
        {
          "internalType": "address",
          "name": "spender",
          "type": "address"
        },
        {
          "internalType": "uint256",
          "name": "allowance",
          "type": "uint256"
        },
        {
          "internalType": "uint256",
          "name": "needed",
          "type": "uint256"
        }
      ],
      "name": "ERC20InsufficientAllowance",
      "type": "error"
    },
    {
      "inputs": [
        {
          "internalType": "address",
          "name": "sender",
          "type": "address"
        },
        {
          "internalType": "uint256",
          "name": "balance",
          "type": "uint256"
        },
        {
          "internalType": "uint256",
          "name": "needed",
          "type": "uint256"
        }
      ],
      "name": "ERC20InsufficientBalance",
      "type": "error"
    },
    {
      "inputs": [
        {
          "internalType": "address",
          "name": "approver",
          "type": "address"
        }
      ],
      "name": "ERC20InvalidApprover",
      "type": "error"
    },
    {
      "inputs": [
        {
          "internalType": "address",
          "name": "receiver",
          "type": "address"
        }
      ],
      "name": "ERC20InvalidReceiver",
      "type": "error"
    },
    {
      "inputs": [
        {
          "internalType": "address",
          "name": "sender",
          "type": "address"
        }
      ],
      "name": "ERC20InvalidSender",
      "type": "error"
    },
    {
      "inputs": [
        {
          "internalType": "address",
          "name": "spender",
          "type": "address"
        }
      ],
      "name": "ERC20InvalidSpender",
      "type": "error"
    },
    {
      "inputs": [
        {
          "internalType": "address",
          "name": "owner",
          "type": "address"
        }
      ],
      "name": "OwnableInvalidOwner",
      "type": "error"
    },
    {
      "inputs": [
        {
          "internalType": "address",
          "name": "account",
          "type": "address"
        }
      ],
      "name": "OwnableUnauthorizedAccount",
      "type": "error"
    },
    {
      "inputs": [],
      "name": "ReentrancyGuardReentrantCall",
      "type": "error"
    },
    {
      "anonymous": false,
      "inputs": [
        {
          "indexed": true,
          "internalType": "address",
          "name": "owner",
          "type": "address"
        },
        {
          "indexed": true,
          "internalType": "address",
          "name": "spender",
          "type": "address"
        },
        {
          "indexed": false,
          "internalType": "uint256",
          "name": "value",
          "type": "uint256"
        }
      ],
      "name": "Approval",
      "type": "event"
    },
    {
      "anonymous": false,
      "inputs": [
        {
          "indexed": true,
          "internalType": "address",
          "name": "buyer",
          "type": "address"
        },
        {
          "indexed": false,
          "internalType": "uint256",
          "name": "baseTokenAmount",
          "type": "uint256"
        },
        {
          "indexed": false,
          "internalType": "uint256",
          "name": "tokenAmount",
          "type": "uint256"
        },
        {
          "indexed": false,
          "internalType": "uint256",
          "name": "newPrice",
          "type": "uint256"
        },
        {
          "indexed": false,
          "internalType": "uint256",
          "name": "founderFee",
          "type": "uint256"
        }
      ],
      "name": "Buy",
      "type": "event"
    },
    {
      "anonymous": false,
      "inputs": [
        {
          "indexed": true,
          "internalType": "address",
          "name": "ammAddress",
          "type": "address"
        },
        {
          "indexed": false,
          "internalType": "uint256",
          "name": "baseTokenAmount",
          "type": "uint256"
        },
        {
          "indexed": false,
          "internalType": "uint256",
          "name": "tokenAmount",
          "type": "uint256"
        },
        {
          "indexed": false,
          "internalType": "uint256",
          "name": "timestamp",
          "type": "uint256"
        }
      ],
      "name": "MigratedToAMM",
      "type": "event"
    },
    {
      "anonymous": false,
      "inputs": [
        {
          "indexed": true,
          "internalType": "address",
          "name": "previousOwner",
          "type": "address"
        },
        {
          "indexed": true,
          "internalType": "address",
          "name": "newOwner",
          "type": "address"
        }
      ],
      "name": "OwnershipTransferred",
      "type": "event"
    },
    {
      "anonymous": false,
      "inputs": [
        {
          "indexed": true,
          "internalType": "address",
          "name": "seller",
          "type": "address"
        },
        {
          "indexed": false,
          "internalType": "uint256",
          "name": "tokenAmount",
          "type": "uint256"
        },
        {
          "indexed": false,
          "internalType": "uint256",
          "name": "baseTokenAmount",
          "type": "uint256"
        },
        {
          "indexed": false,
          "internalType": "uint256",
          "name": "newPrice",
          "type": "uint256"
        },
        {
          "indexed": false,
          "internalType": "uint256",
          "name": "founderFee",
          "type": "uint256"
        }
      ],
      "name": "Sell",
      "type": "event"
    },
    {
      "anonymous": false,
      "inputs": [
        {
          "indexed": true,
          "internalType": "address",
          "name": "creator",
          "type": "address"
        },
        {
          "indexed": false,
          "internalType": "string",
          "name": "name",
          "type": "string"
        },
        {
          "indexed": false,
          "internalType": "string",
          "name": "symbol",
          "type": "string"
        },
        {
          "indexed": false,
          "internalType": "uint256",
          "name": "initialVirtualBaseReserve",
          "type": "uint256"
        },
        {
          "indexed": false,
          "internalType": "uint256",
          "name": "initialVirtualTokenReserve",
          "type": "uint256"
        }
      ],
      "name": "TokenCreated",
      "type": "event"
    },
    {
      "anonymous": false,
      "inputs": [
        {
          "indexed": true,
          "internalType": "address",
          "name": "from",
          "type": "address"
        },
        {
          "indexed": true,
          "internalType": "address",
          "name": "to",
          "type": "address"
        },
        {
          "indexed": false,
          "internalType": "uint256",
          "name": "value",
          "type": "uint256"
        }
      ],
      "name": "Transfer",
      "type": "event"
    },
    {
      "inputs": [],
      "name": "BASIS_POINTS",
      "outputs": [
        {
          "internalType": "uint256",
          "name": "",
          "type": "uint256"
        }
      ],
      "stateMutability": "view",
      "type": "function"
    },
    {
      "inputs": [],
      "name": "FEE_PERCENTAGE",
      "outputs": [
        {
          "internalType": "uint256",
          "name": "",
          "type": "uint256"
        }
      ],
      "stateMutability": "view",
      "type": "function"
    },
    {
      "inputs": [],
      "name": "FOUNDER_FEE_PERCENTAGE",
      "outputs": [
        {
          "internalType": "uint256",
          "name": "",
          "type": "uint256"
        }
      ],
      "stateMutability": "view",
      "type": "function"
    },
    {
      "inputs": [
        {
          "internalType": "address",
          "name": "owner",
          "type": "address"
        },
        {
          "internalType": "address",
          "name": "spender",
          "type": "address"
        }
      ],
      "name": "allowance",
      "outputs": [
        {
          "internalType": "uint256",
          "name": "",
          "type": "uint256"
        }
      ],
      "stateMutability": "view",
      "type": "function"
    },
    {
      "inputs": [],
      "name": "ammAddress",
      "outputs": [
        {
          "internalType": "address",
          "name": "",
          "type": "address"
        }
      ],
      "stateMutability": "view",
      "type": "function"
    },
    {
      "inputs": [
        {
          "internalType": "address",
          "name": "spender",
          "type": "address"
        },
        {
          "internalType": "uint256",
          "name": "value",
          "type": "uint256"
        }
      ],
      "name": "approve",
      "outputs": [
        {
          "internalType": "bool",
          "name": "",
          "type": "bool"
        }
      ],
      "stateMutability": "nonpayable",
      "type": "function"
    },
    {
      "inputs": [
        {
          "internalType": "address",
          "name": "account",
          "type": "address"
        }
      ],
      "name": "balanceOf",
      "outputs": [
        {
          "internalType": "uint256",
          "name": "",
          "type": "uint256"
        }
      ],
      "stateMutability": "view",
      "type": "function"
    },
    {
      "inputs": [],
      "name": "baseToken",
      "outputs": [
        {
          "internalType": "contract IERC20",
          "name": "",
          "type": "address"
        }
      ],
      "stateMutability": "view",
      "type": "function"
    },
    {
      "inputs": [
        {
          "internalType": "uint256",
          "name": "baseTokenAmount",
          "type": "uint256"
        },
        {
          "internalType": "uint256",
          "name": "minTokenAmount",
          "type": "uint256"
        }
      ],
      "name": "buy",
      "outputs": [
        {
          "internalType": "uint256",
          "name": "tokenAmount",
          "type": "uint256"
        }
      ],
      "stateMutability": "nonpayable",
      "type": "function"
    },
    {
      "inputs": [
        {
          "internalType": "uint256",
          "name": "tokenAmount",
          "type": "uint256"
        }
      ],
      "name": "calculateBaseAmountForTokenAmount",
      "outputs": [
        {
          "internalType": "uint256",
          "name": "netBaseAmount",
          "type": "uint256"
        }
      ],
      "stateMutability": "view",
      "type": "function"
    },
    {
      "inputs": [
        {
          "internalType": "uint256",
          "name": "baseTokenAmount",
          "type": "uint256"
        }
      ],
      "name": "calculateTokenAmountForBaseAmount",
      "outputs": [
        {
          "internalType": "uint256",
          "name": "tokenAmount",
          "type": "uint256"
        }
      ],
      "stateMutability": "view",
      "type": "function"
    },
    {
      "inputs": [],
      "name": "createdAt",
      "outputs": [
        {
          "internalType": "uint256",
          "name": "",
          "type": "uint256"
        }
      ],
      "stateMutability": "view",
      "type": "function"
    },
    {
      "inputs": [],
      "name": "decimals",
      "outputs": [
        {
          "internalType": "uint8",
          "name": "",
          "type": "uint8"
        }
      ],
      "stateMutability": "view",
      "type": "function"
    },
    {
      "inputs": [],
      "name": "dynamicFactor",
      "outputs": [
        {
          "internalType": "uint256",
          "name": "",
          "type": "uint256"
        }
      ],
      "stateMutability": "view",
      "type": "function"
    },
    {
      "inputs": [],
      "name": "founderAddress",
      "outputs": [
        {
          "internalType": "address",
          "name": "",
          "type": "address"
        }
      ],
      "stateMutability": "view",
      "type": "function"
    },
    {
      "inputs": [],
      "name": "getBondingCurveProgress",
      "outputs": [
        {
          "internalType": "uint256",
          "name": "",
          "type": "uint256"
        }
      ],
      "stateMutability": "view",
      "type": "function"
    },
    {
      "inputs": [],
      "name": "getCurrentPrice",
      "outputs": [
        {
          "internalType": "uint256",
          "name": "",
          "type": "uint256"
        }
      ],
      "stateMutability": "view",
      "type": "function"
    },
    {
      "inputs": [],
      "name": "getMarketCap",
      "outputs": [
        {
          "internalType": "uint256",
          "name": "",
          "type": "uint256"
        }
      ],
      "stateMutability": "view",
      "type": "function"
    },
    {
      "inputs": [],
      "name": "isMigrated",
      "outputs": [
        {
          "internalType": "bool",
          "name": "",
          "type": "bool"
        }
      ],
      "stateMutability": "view",
      "type": "function"
    },
    {
      "inputs": [],
      "name": "migrationThreshold",
      "outputs": [
        {
          "internalType": "uint256",
          "name": "",
          "type": "uint256"
        }
      ],
      "stateMutability": "view",
      "type": "function"
    },
    {
      "inputs": [],
      "name": "name",
      "outputs": [
        {
          "internalType": "string",
          "name": "",
          "type": "string"
        }
      ],
      "stateMutability": "view",
      "type": "function"
    },
    {
      "inputs": [],
      "name": "oracleAddress",
      "outputs": [
        {
          "internalType": "address",
          "name": "",
          "type": "address"
        }
      ],
      "stateMutability": "view",
      "type": "function"
    },
    {
      "inputs": [],
      "name": "owner",
      "outputs": [
        {
          "internalType": "address",
          "name": "",
          "type": "address"
        }
      ],
      "stateMutability": "view",
      "type": "function"
    },
    {
      "inputs": [],
      "name": "realBaseReserve",
      "outputs": [
        {
          "internalType": "uint256",
          "name": "",
          "type": "uint256"
        }
      ],
      "stateMutability": "view",
      "type": "function"
    },
    {
      "inputs": [],
      "name": "realTokenReserve",
      "outputs": [
        {
          "internalType": "uint256",
          "name": "",
          "type": "uint256"
        }
      ],
      "stateMutability": "view",
      "type": "function"
    },
    {
      "inputs": [],
      "name": "renounceOwnership",
      "outputs": [],
      "stateMutability": "nonpayable",
      "type": "function"
    },
    {
      "inputs": [
        {
          "internalType": "uint256",
          "name": "tokenAmount",
          "type": "uint256"
        },
        {
          "internalType": "uint256",
          "name": "minBaseAmount",
          "type": "uint256"
        }
      ],
      "name": "sell",
      "outputs": [
        {
          "internalType": "uint256",
          "name": "netBaseAmount",
          "type": "uint256"
        }
      ],
      "stateMutability": "nonpayable",
      "type": "function"
    },
    {
      "inputs": [
        {
          "internalType": "uint256",
          "name": "_dynamicFactor",
          "type": "uint256"
        }
      ],
      "name": "setDynamicFactor",
      "outputs": [],
      "stateMutability": "nonpayable",
      "type": "function"
    },
    {
      "inputs": [],
      "name": "symbol",
      "outputs": [
        {
          "internalType": "string",
          "name": "",
          "type": "string"
        }
      ],
      "stateMutability": "view",
      "type": "function"
    },
    {
      "inputs": [],
      "name": "tokenCreator",
      "outputs": [
        {
          "internalType": "address",
          "name": "",
          "type": "address"
        }
      ],
      "stateMutability": "view",
      "type": "function"
    },
    {
      "inputs": [],
      "name": "tokenDescription",
      "outputs": [
        {
          "internalType": "string",
          "name": "",
          "type": "string"
        }
      ],
      "stateMutability": "view",
      "type": "function"
    },
    {
      "inputs": [],
      "name": "tokenImageUrl",
      "outputs": [
        {
          "internalType": "string",
          "name": "",
          "type": "string"
        }
      ],
      "stateMutability": "view",
      "type": "function"
    },
    {
      "inputs": [],
      "name": "tokenSymbol",
      "outputs": [
        {
          "internalType": "string",
          "name": "",
          "type": "string"
        }
      ],
      "stateMutability": "view",
      "type": "function"
    },
    {
      "inputs": [],
      "name": "totalSupply",
      "outputs": [
        {
          "internalType": "uint256",
          "name": "",
          "type": "uint256"
        }
      ],
      "stateMutability": "view",
      "type": "function"
    },
    {
      "inputs": [
        {
          "internalType": "address",
          "name": "to",
          "type": "address"
        },
        {
          "internalType": "uint256",
          "name": "value",
          "type": "uint256"
        }
      ],
      "name": "transfer",
      "outputs": [
        {
          "internalType": "bool",
          "name": "",
          "type": "bool"
        }
      ],
      "stateMutability": "nonpayable",
      "type": "function"
    },
    {
      "inputs": [
        {
          "internalType": "address",
          "name": "from",
          "type": "address"
        },
        {
          "internalType": "address",
          "name": "to",
          "type": "address"
        },
        {
          "internalType": "uint256",
          "name": "value",
          "type": "uint256"
        }
      ],
      "name": "transferFrom",
      "outputs": [
        {
          "internalType": "bool",
          "name": "",
          "type": "bool"
        }
      ],
      "stateMutability": "nonpayable",
      "type": "function"
    },
    {
      "inputs": [
        {
          "internalType": "address",
          "name": "newOwner",
          "type": "address"
        }
      ],
      "name": "transferOwnership",
      "outputs": [],
      "stateMutability": "nonpayable",
      "type": "function"
    },
    {
      "inputs": [
        {
          "internalType": "address",
          "name": "_ammAddress",
          "type": "address"
        }
      ],
      "name": "triggerMigrationManual",
      "outputs": [],
      "stateMutability": "nonpayable",
      "type": "function"
    },
    {
      "inputs": [],
      "name": "virtualBaseReserve",
      "outputs": [
        {
          "internalType": "uint256",
          "name": "",
          "type": "uint256"
        }
      ],
      "stateMutability": "view",
      "type": "function"
    },
    {
      "inputs": [],
      "name": "virtualTokenReserve",
      "outputs": [
        {
          "internalType": "uint256",
          "name": "",
          "type": "uint256"
        }
      ],
      "stateMutability": "view",
      "type": "function"
    },
    {
      "inputs": [],
      "name": "withdrawAfterMigration",
      "outputs": [],
      "stateMutability": "nonpayable",
      "type": "function"
    }
  ],
  "bytecode": "0x60806040523462000a03576200294f803803806200001d8162000a08565b92833981016101008282031262000a035781516001600160401b03811162000a0357816200004d91840162000a53565b60208301519091906001600160401b03811162000a0357816200007291850162000a53565b60408401519093906001600160401b03811162000a0357826200009791830162000a53565b606082015190926001600160401b03821162000a0357620000ba91830162000a53565b620000c86080830162000aaa565b92620000d760a0840162000aaa565b620000ea60e060c0860151950162000aaa565b86519095906001600160401b038111620005e557600354600181811c91168015620009f8575b6020821014620005c457601f81116200098e575b50806020601f82116001146200090357600091620008f7575b508160011b916000199060031b1c1916176003555b87516001600160401b038111620005e557600454600181811c91168015620008ec575b6020821014620005c457601f811162000886575b50806020601f8211600114620007fb57600091620007ef575b508160011b916000199060031b1c1916176004555b3315620007d65760058054336001600160a01b0319821681179092556001600160a01b03167f8be0079c531659141344cd1fd0a4f28419497f9722a3daafe3b4186f6b6457e0600080a36001600655600780546001600160a01b039283166001600160a01b0319918216179091556008805493909216921691909117905585516001600160401b038111620005e557601154600181811c91168015620007cb575b6020821014620005c457601f811162000776575b50806020601f8211600114620006fd57600091620006f1575b508160011b916000199060031b1c1916176011555b8051906001600160401b038211620005e55760125490600182811c92168015620006e6575b6020831014620005c45781601f84931162000685575b50602090601f83116001146200060757600092620005fb575b50508160011b916000199060031b1c1916176012555b8051906001600160401b038211620005e55760135490600182811c92168015620005da575b6020831014620005c45781601f84931162000560575b50602090601f8311600114620004e657600092620004da575b50508160011b916000199060031b1c1916176013555b3360018060a01b0319601454161760145542601555600f5560018060a01b031660018060a01b0319600d541617600d55612710600e556801a055690d9db800006009556b037790968dc8efffd1000000600a556000600b556000600c553015620004c157600254906b0295be96e640669720000000808301809311620004ab577f67cc2637dc8147ee999178ad9002b9fcccdde83ae7a8664c59f49ed2cceb2e6292600255306000526000602052604060002081815401905560405181815260007fddf252ad1be2c89b69c2b068fc378daa952ba7f163c4a11628f55a4df523b3ef60203093a3600c55600954926200048a600a54916200047b6040519460808652608086019062000abf565b90848203602086015262000abf565b93604083015260608201528033930390a2604051611e08908162000ae78239f35b634e487b7160e01b600052601160045260246000fd5b60405163ec442f0560e01b815260006004820152602490fd5b01519050388062000358565b601360009081526000805160206200292f8339815191529350601f198516905b8181106200054757509084600195949392106200052d575b505050811b016013556200036e565b015160001960f88460031b161c191690553880806200051e565b9293602060018192878601518155019501930162000506565b60136000529091506000805160206200292f833981519152601f840160051c81019160208510620005b9575b90601f859493920160051c01905b818110620005a957506200033f565b600081558493506001016200059a565b90915081906200058c565b634e487b7160e01b600052602260045260246000fd5b91607f169162000329565b634e487b7160e01b600052604160045260246000fd5b015190503880620002ee565b601260009081529350600080516020620028ef83398151915291905b601f198416851062000669576001945083601f198116106200064f575b505050811b0160125562000304565b015160001960f88460031b161c1916905538808062000640565b8181015183556020948501946001909301929091019062000623565b6012600052909150600080516020620028ef833981519152601f840160051c810160208510620006de575b90849392915b601f830160051c82018110620006ce575050620002d5565b60008155859450600101620006b6565b5080620006b0565b91607f1691620002bf565b90508701513862000285565b6011600090815292506000805160206200290f833981519152905b601f19831684106200075d576001935082601f1981161062000743575b5050811b016011556200029a565b89015160001960f88460031b161c19169055388062000735565b8981015182556020938401936001909201910162000718565b60116000526000805160206200290f833981519152601f830160051c810160208410620007c3575b601f830160051c82018110620007b65750506200026c565b600081556001016200079e565b50806200079e565b90607f169062000258565b604051631e4fbdf760e01b815260006004820152602490fd5b905089015138620001a2565b6004600090815292507f8a35acfbc15ff81a39ae7d344fd709f28e8600b4aa8c65c6b64bfe7fe36bd19b905b8b601f19841685106200086e57506001935082601f1981161062000854575b5050811b01600455620001b7565b8b015160001960f88460031b161c19169055388062000846565b81015182556020938401936001909201910162000827565b60046000527f8a35acfbc15ff81a39ae7d344fd709f28e8600b4aa8c65c6b64bfe7fe36bd19b601f830160051c810160208410620008e4575b601f830160051c82018110620008d757505062000189565b60008155600101620008bf565b5080620008bf565b90607f169062000175565b9050880151386200013d565b6003600090815292507fc2575a0e9e593c00f959f8c92f12db2869c3395a3b0502d05e2516446f71f85b905b8a601f19841685106200097657506001935082601f198116106200095c575b5050811b0160035562000152565b8a015160001960f88460031b161c1916905538806200094e565b8101518255602093840193600190920191016200092f565b60036000527fc2575a0e9e593c00f959f8c92f12db2869c3395a3b0502d05e2516446f71f85b601f830160051c81019160208410620009ed575b601f0160051c01905b818110620009e0575062000124565b60008155600101620009d1565b9091508190620009c8565b90607f169062000110565b600080fd5b6040519190601f01601f191682016001600160401b03811183821017620005e557604052565b60005b83811062000a425750506000910152565b818101518382015260200162000a31565b81601f8201121562000a035780516001600160401b038111620005e55762000a85601f8201601f191660200162000a08565b928184526020828401011162000a035762000aa7916020808501910162000a2e565b90565b51906001600160a01b038216820362000a0357565b9060209162000ada8151809281855285808601910162000a2e565b601f01601f191601019056fe608060408181526004908136101561001657600080fd5b600092833560e01c9081620b46f8146118095750806306fdde031461174c578063095ea7b3146116a25780630b1bba241461168357806318160ddd1461166457806323b872dd1461157157806325e6f516146114b4578063313ce56714611498578063343ee3b71461147957806346bb2833146114505780634837e204146114235780634aeb5c0914611366578063663012661461131857806367558d46146112b75780636c569f211461129857806370a0823114611261578063715018a614611204578063718cb46a146111475780637b61c320146110545780638da5cb5b1461102b57806390825c2814610fd857806390bc1e8514610fb957806395d89b4114610eb5578063a89ae4ba14610e8c578063a9059cbb14610e5b578063b06faf6214610e37578063b7cb1b1314610e18578063c55dae6314610def578063cf09e0d014610dd0578063d1ca142814610db4578063d6fdd92014610d20578063d6febde814610954578063d79875eb1461054b578063db84252c14610522578063dcc7568214610503578063dd62ed3e146104ba578063e1f1c4a71461049d578063eadc381514610439578063eb91d37e14610411578063f2fde38b146103815763ffa685cf146101e657600080fd5b3461037d578260031936011261037d576101fe6118ed565b60ff60105416156103475760075481516370a0823160e01b81523084820152602092916001600160a01b0390811691908482602481865afa91821561033d57908592918892610306575b50600554855163a9059cbb60e01b815291166001600160a01b031687820190815260208101929092529283918290899082906040015b03925af19081156102fc5785916102cf575b501561029a578380f35b5162461bcd60e51b815291820152601160248201527015da5d1a191c985dd85b0819985a5b1959607a1b604482015260649150fd5b6102ef9150833d85116102f5575b6102e7818361189f565b810190611ab2565b38610290565b503d6102dd565b82513d87823e3d90fd5b8381949293503d8311610336575b61031e818361189f565b81010312610332579051849161027e610248565b8680fd5b503d610314565b84513d89823e3d90fd5b906020606492519162461bcd60e51b8352820152601060248201526f139bdd081b5a59dc985d1959081e595d60821b6044820152fd5b8280fd5b50903461037d57602036600319011261037d5761039c61186e565b906103a56118ed565b6001600160a01b039182169283156103fb575050600554826bffffffffffffffffffffffff60a01b821617600555167f8be0079c531659141344cd1fd0a4f28419497f9722a3daafe3b4186f6b6457e08380a380f35b51631e4fbdf760e01b8152908101849052602490fd5b83823461043557816003193601126104355760209061042e611bfd565b9051908152f35b5080fd5b50823461049a57602036600319011261049a5782359081159061045c8215611a66565b61032091828402928484041417156104875760208461042e610482612710860487611afd565b611c36565b634e487b7160e01b815260118552602490fd5b80fd5b838234610435578160031936011261043557602090516127108152f35b838234610435578060031936011261043557806020926104d861186e565b6104e0611889565b6001600160a01b0391821683526001865283832091168252845220549051908152f35b838234610435578160031936011261043557602090600e549051908152f35b83823461043557816003193601126104355760145490516001600160a01b039091168152602090f35b503461037d5761055a366118d7565b92610563611bda565b61057260ff6010541615611a1a565b61057d821515611a66565b33855260209480865282848220541061091a5783516323b872dd60e01b81523383820190815230602082015260408101859052879082908190606001038185305af190811561091057906105d89183916108f3575b50611b4a565b6105e183611cf3565b90610320928383029383850414831517156108e0576127108094049360648502858104606414861517156108cd576106289161061f91049585611afd565b97881015611b0a565b60095483811061088a578361063c91611afd565b60095561064b85600a546119f7565b600a55600b548781106108475790610664888093611afd565b600b5561067386600c546119f7565b600c55600754875163a9059cbb60e01b808252338285019081526020810195909552936001600160a01b0393928c91839186169082908990829060400103925af190811561083d578591610820575b50156107dd579089929186610738575b5050505050907f483f8aec0fd892ac72ad1ba8d0e9c9e73db59c12d263fd71de480b5b3deeae3c9161072a610705611bfd565b9286519384933397859094939260609260808301968352602083015260408201520152565b0390a2600160065551908152f35b6007546008548a5194855283166001600160a01b0316918401918252602082018890529293928492169082908690829060400103925af19182156107d2577f483f8aec0fd892ac72ad1ba8d0e9c9e73db59c12d263fd71de480b5b3deeae3c9493926107aa92906107b5575b50611b8e565b9091863880806106d2565b6107cc9150893d8b116102f5576102e7818361189f565b386107a4565b8651903d90823e3d90fd5b875162461bcd60e51b81529081018a9052601a60248201527f4261736520746f6b656e207472616e73666572206661696c65640000000000006044820152606490fd5b61083791508b3d8d116102f5576102e7818361189f565b386106c2565b89513d87823e3d90fd5b865162461bcd60e51b81528083018a9052601b60248201527f5265616c2062617365207265736572766520756e646572666c6f7700000000006044820152606490fd5b865162461bcd60e51b81528083018a9052601e60248201527f5669727475616c2062617365207265736572766520756e646572666c6f7700006044820152606490fd5b634e487b7160e01b845260118352602484fd5b634e487b7160e01b825260119052602490fd5b61090a9150883d8a116102f5576102e7818361189f565b386105d2565b85513d84823e3d90fd5b835162461bcd60e51b81528083018790526014602482015273496e73756666696369656e742062616c616e636560601b6044820152606490fd5b5082903461043557610965366118d7565b9261096e611bda565b61097d60ff6010541615611a1a565b81159061098a8215611a66565b60075484516323b872dd60e01b815233888201908152306020808301919091526040820187905298926001600160a01b0392918a918391829003606001908290889087165af1908115610d16578491610cf9575b5015610cc4576103209384860294868604141715610cb157612710809404936064850285810460641486151715610c9e570493610a1b9086611afd565b610a30610a2782611c36565b98891015611b0a565b610a3c816009546119f7565b600955600a54888110610c5b5790610a5789610a6293611afd565b600a55600b546119f7565b600b55600c54878110610c185787610a7991611afd565b600c55855163a9059cbb60e01b80825233848301908152602081018a9052909391908a9082908190604001038188305af1908115610c0e578a94939291610ac6918791610bf15750611b4a565b85610b4f575b50505050507f064fb1933e186be0b289a87e98518dc18cc9856ecbc9f1353d1a138ddf733ec590610afb611bfd565b845193845260208401869052604084015260608301523391608090a2600b54600f54111580610b42575b610b35575b600160065551908152f35b610b3d611daf565b610b2a565b5060ff6010541615610b25565b600754600854895194855283166001600160a01b0316918401918252602082018790529293928492169082908690829060400103925af1918215610be6577f064fb1933e186be0b289a87e98518dc18cc9856ecbc9f1353d1a138ddf733ec59392610bbf9290610bc95750611b8e565b9085878080610acc565b610be09150883d8a116102f5576102e7818361189f565b886107a4565b8551903d90823e3d90fd5b610c089150863d88116102f5576102e7818361189f565b8c6105d2565b88513d87823e3d90fd5b865162461bcd60e51b81528084018a9052601f60248201527f496e73756666696369656e74207265616c20746f6b656e2072657365727665006044820152606490fd5b875162461bcd60e51b81528085018b9052601f60248201527f5669727475616c20746f6b656e207265736572766520756e646572666c6f77006044820152606490fd5b634e487b7160e01b855260118452602485fd5b634e487b7160e01b835260118252602483fd5b855162461bcd60e51b8152808301899052600f60248201526e151c985b9cd9995c8819985a5b1959608a1b6044820152606490fd5b610d109150893d8b116102f5576102e7818361189f565b896109de565b87513d86823e3d90fd5b50903461037d57602036600319011261037d57610d3b61186e565b90610d446118ed565b6010549260ff8416610d7e575050610100600160a81b031990911660089190911b610100600160a81b031617601055610d7b611daf565b80f35b906020606492519162461bcd60e51b8352820152601060248201526f105b1c9958591e481b5a59dc985d195960821b6044820152fd5b8382346104355781600319360112610435576020905160648152f35b8382346104355781600319360112610435576020906015549051908152f35b83823461043557816003193601126104355760075490516001600160a01b039091168152602090f35b838234610435578160031936011261043557602090600c549051908152f35b83823461043557816003193601126104355760209060ff6010541690519015158152f35b838234610435578060031936011261043557602090610e85610e7b61186e565b6024359033611919565b5160018152f35b838234610435578160031936011261043557600d5490516001600160a01b039091168152602090f35b50829034610435578160031936011261043557805191809380549160019083821c92828516948515610faf575b6020958686108114610f9c57858952908115610f785750600114610f20575b610f1c8787610f12828c038361189f565b5191829182611825565b0390f35b81529295507f8a35acfbc15ff81a39ae7d344fd709f28e8600b4aa8c65c6b64bfe7fe36bd19b5b828410610f655750505082610f1c94610f1292820101948680610f01565b8054868501880152928601928101610f47565b60ff19168887015250505050151560051b8301019250610f1282610f1c8680610f01565b634e487b7160e01b845260228352602484fd5b93607f1693610ee2565b838234610435578160031936011261043557602090600f549051908152f35b50823461049a578060031936011261049a57600c54926b033b2e3c9fd0803ce80000009384039384116108e057602083670de0b6b3a76400006110238761101d611bfd565b90611aca565b049051908152f35b83823461043557816003193601126104355760055490516001600160a01b039091168152602090f35b503461037d578260031936011261037d57805191836011549060019082821c92828116801561113d575b602095868610821461112a575084885290811561110857506001146110af575b610f1c8686610f12828b038361189f565b929550601183527f31ecc21a745e3968a04e9570e4425bc18fa8019c68028196b546d1669c200c685b8284106110f55750505082610f1c94610f1292820101943861109e565b80548685018801529286019281016110d8565b60ff191687860152505050151560051b8301019250610f1282610f1c3861109e565b634e487b7160e01b845260229052602483fd5b93607f169361107e565b50903461037d57602036600319011261037d57600d54813592906001600160a01b031633036111c157821561117e575050600e5580f35b906020606492519162461bcd60e51b8352820152601760248201527f466163746f72206d75737420626520706f7369746976650000000000000000006044820152fd5b906020606492519162461bcd60e51b8352820152601a60248201527f4f6e6c79206f7261636c652063616e2073657420666163746f720000000000006044820152fd5b833461049a578060031936011261049a5761121d6118ed565b600580546001600160a01b0319811690915581906001600160a01b03167f8be0079c531659141344cd1fd0a4f28419497f9722a3daafe3b4186f6b6457e08280a380f35b8382346104355760203660031901126104355760209181906001600160a01b0361128961186e565b16815280845220549051908152f35b8382346104355781600319360112610435576020906009549051908152f35b50823461049a578060031936011261049a57600c54916b0295be96e6406697200000009183830393838511611305576064850294850460641490841417156104875750602093505191048152f35b634e487b7160e01b825260118652602482fd5b50823461049a57602036600319011261049a57611340833561133b811515611a66565b611cf3565b90610320908183029183830414831517156104875760208461042e612710850486611afd565b503461037d578260031936011261037d57805191836013549060019082821c928281168015611419575b602095868610821461112a575084885290811561110857506001146113c057610f1c8686610f12828b038361189f565b929550601383527f66de8ffda797e3de9c05e8fc57b3bf0ec28a930d40b0d285d93c06501cf6a0905b8284106114065750505082610f1c94610f1292820101943861109e565b80548685018801529286019281016113e9565b93607f1693611390565b838234610435578160031936011261043557601054905160089190911c6001600160a01b03168152602090f35b83823461043557816003193601126104355760085490516001600160a01b039091168152602090f35b838234610435578160031936011261043557602090600a549051908152f35b8382346104355781600319360112610435576020905160128152f35b503461037d578260031936011261037d57805191836012549060019082821c928281168015611567575b602095868610821461112a5750848852908115611108575060011461150e57610f1c8686610f12828b038361189f565b929550601283527fbb8a6a4669ba250d26cd7a459eca9d215f8307e33aebe50379bc5a3617ec34445b8284106115545750505082610f1c94610f1292820101943861109e565b8054868501880152928601928101611537565b93607f16936114de565b50913461049a57606036600319011261049a5761158c61186e565b611594611889565b916044359360018060a01b0383168083526001602052868320338452602052868320549160001983106115d0575b602088610e85898989611919565b86831061163857811561162157331561160a57508252600160209081528683203384528152918690209085900390558290610e85386115c2565b8751634a1406b160e11b8152908101849052602490fd5b875163e602df0560e01b8152908101849052602490fd5b8751637dc7a0d960e11b8152339181019182526020820193909352604081018790528291506060010390fd5b8382346104355781600319360112610435576020906002549051908152f35b838234610435578160031936011261043557602090600b549051908152f35b50903461037d578160031936011261037d576116bc61186e565b602435903315611735576001600160a01b031691821561171e57508083602095338152600187528181208582528752205582519081527f8c5be1e5ebec7d5bd14f71427d1e84f3dd0314c0f7b2291e5b200ac8c7c3b925843392a35160018152f35b8351634a1406b160e11b8152908101859052602490fd5b835163e602df0560e01b8152808401869052602490fd5b503461037d578260031936011261037d57805191836003549060019082821c9282811680156117ff575b602095868610821461112a575084885290811561110857506001146117a657610f1c8686610f12828b038361189f565b929550600383527fc2575a0e9e593c00f959f8c92f12db2869c3395a3b0502d05e2516446f71f85b5b8284106117ec5750505082610f1c94610f1292820101943861109e565b80548685018801529286019281016117cf565b93607f1693611776565b8490346104355781600319360112610435578061032060209252f35b6020808252825181830181905290939260005b82811061185a57505060409293506000838284010152601f8019910116010190565b818101860151848201604001528501611838565b600435906001600160a01b038216820361188457565b600080fd5b602435906001600160a01b038216820361188457565b90601f8019910116810190811067ffffffffffffffff8211176118c157604052565b634e487b7160e01b600052604160045260246000fd5b6040906003190112611884576004359060243590565b6005546001600160a01b0316330361190157565b60405163118cdaa760e01b8152336004820152602490fd5b916001600160a01b038084169283156119de57169283156119c55760009083825281602052604082205490838210611993575091604082827fddf252ad1be2c89b69c2b068fc378daa952ba7f163c4a11628f55a4df523b3ef958760209652828652038282205586815220818154019055604051908152a3565b60405163391434e360e21b81526001600160a01b03919091166004820152602481019190915260448101839052606490fd5b60405163ec442f0560e01b815260006004820152602490fd5b604051634b637e8f60e11b815260006004820152602490fd5b91908201809211611a0457565b634e487b7160e01b600052601160045260246000fd5b15611a2157565b60405162461bcd60e51b815260206004820152601960248201527f546f6b656e20686173206d6967726174656420746f20414d4d000000000000006044820152606490fd5b15611a6d57565b60405162461bcd60e51b815260206004820152601d60248201527f416d6f756e74206d7573742062652067726561746572207468616e20300000006044820152606490fd5b90816020910312611884575180151581036118845790565b81810292918115918404141715611a0457565b8115611ae7570490565b634e487b7160e01b600052601260045260246000fd5b91908203918211611a0457565b15611b1157565b60405162461bcd60e51b815260206004820152601160248201527014db1a5c1c1859d948195e18d959591959607a1b6044820152606490fd5b15611b5157565b60405162461bcd60e51b8152602060048201526015602482015274151bdad95b881d1c985b9cd9995c8819985a5b1959605a1b6044820152606490fd5b15611b9557565b60405162461bcd60e51b815260206004820152601b60248201527f466f756e64657220666565207472616e73666572206661696c656400000000006044820152606490fd5b600260065414611beb576002600655565b604051633ee5aeb560e01b8152600490fd5b600a548015611c305760095490670de0b6b3a764000091828102928184041490151715611a0457611c2d91611add565b90565b50600090565b612710611c48600954600e5490611aca565b0490600a5491611c6d670de0b6b3a76400009283611c668685611aca565b04926119f7565b90828102928184041490151715611a0457611c8791611add565b808210611c9757611c2d91611afd565b60405162461bcd60e51b815260206004820152602e60248201527f5669727475616c20746f6b656e207265736572766520756e646572666c6f772060448201526d34b71031b0b631bab630ba34b7b760911b6064820152608490fd5b612710611d05600954600e5490611aca565b0490600a54611d29670de0b6b3a76400009283611d228487611aca565b0492611afd565b90828102928184041490151715611a0457611d4391611add565b90808210611d5457611c2d91611afd565b60405162461bcd60e51b815260206004820152602d60248201527f5669727475616c2062617365207265736572766520756e646572666c6f77206960448201526c371031b0b631bab630ba34b7b760991b6064820152608490fd5b600160ff19601054161760105560007ff6fdf93b05193f30e8b24877e5c9f6ff7c3548e03f1174d73ae6fe90b67db0036060600b54600c546040519182526020820152426040820152a256fea164736f6c6343000814000abb8a6a4669ba250d26cd7a459eca9d215f8307e33aebe50379bc5a3617ec344431ecc21a745e3968a04e9570e4425bc18fa8019c68028196b546d1669c200c6866de8ffda797e3de9c05e8fc57b3bf0ec28a930d40b0d285d93c06501cf6a090",
  "linkReferences": {},
  "deployedLinkReferences": {}
}