{
  "_format": "hh-sol-artifact-1",
  "contractName": "IRRStablecoin",
  "sourceName": "src/contracts/IRRStablecoin.sol",
  "abi": [
    {
      "inputs": [
        {
          "internalType": "address",
          "name": "_trustedForwarder",
          "type": "address"
        },
        {
          "internalType": "address",
          "name": "_redemptionService",
          "type": "address"
        }
      ],
      "stateMutability": "nonpayable",
      "type": "constructor"
    },
    {
      "inputs": [],
      "name": "AccessControlBadConfirmation",
      "type": "error"
    },
    {
      "inputs": [
        {
          "internalType": "address",
          "name": "account",
          "type": "address"
        },
        {
          "internalType": "bytes32",
          "name": "neededRole",
          "type": "bytes32"
        }
      ],
      "name": "AccessControlUnauthorizedAccount",
      "type": "error"
    },
    {
      "inputs": [
        {
          "internalType": "address",
          "name": "spender",
          "type": "address"
        },
        {
          "internalType": "uint256",
          "name": "allowance",
          "type": "uint256"
        },
        {
          "internalType": "uint256",
          "name": "needed",
          "type": "uint256"
        }
      ],
      "name": "ERC20InsufficientAllowance",
      "type": "error"
    },
    {
      "inputs": [
        {
          "internalType": "address",
          "name": "sender",
          "type": "address"
        },
        {
          "internalType": "uint256",
          "name": "balance",
          "type": "uint256"
        },
        {
          "internalType": "uint256",
          "name": "needed",
          "type": "uint256"
        }
      ],
      "name": "ERC20InsufficientBalance",
      "type": "error"
    },
    {
      "inputs": [
        {
          "internalType": "address",
          "name": "approver",
          "type": "address"
        }
      ],
      "name": "ERC20InvalidApprover",
      "type": "error"
    },
    {
      "inputs": [
        {
          "internalType": "address",
          "name": "receiver",
          "type": "address"
        }
      ],
      "name": "ERC20InvalidReceiver",
      "type": "error"
    },
    {
      "inputs": [
        {
          "internalType": "address",
          "name": "sender",
          "type": "address"
        }
      ],
      "name": "ERC20InvalidSender",
      "type": "error"
    },
    {
      "inputs": [
        {
          "internalType": "address",
          "name": "spender",
          "type": "address"
        }
      ],
      "name": "ERC20InvalidSpender",
      "type": "error"
    },
    {
      "inputs": [],
      "name": "EnforcedPause",
      "type": "error"
    },
    {
      "inputs": [],
      "name": "ExpectedPause",
      "type": "error"
    },
    {
      "anonymous": false,
      "inputs": [
        {
          "indexed": true,
          "internalType": "address",
          "name": "owner",
          "type": "address"
        },
        {
          "indexed": true,
          "internalType": "address",
          "name": "spender",
          "type": "address"
        },
        {
          "indexed": false,
          "internalType": "uint256",
          "name": "value",
          "type": "uint256"
        }
      ],
      "name": "Approval",
      "type": "event"
    },
    {
      "anonymous": false,
      "inputs": [
        {
          "indexed": true,
          "internalType": "address",
          "name": "account",
          "type": "address"
        }
      ],
      "name": "BurnerAdded",
      "type": "event"
    },
    {
      "anonymous": false,
      "inputs": [
        {
          "indexed": true,
          "internalType": "address",
          "name": "account",
          "type": "address"
        }
      ],
      "name": "BurnerRemoved",
      "type": "event"
    },
    {
      "anonymous": false,
      "inputs": [
        {
          "indexed": true,
          "internalType": "address",
          "name": "account",
          "type": "address"
        }
      ],
      "name": "MinterAdded",
      "type": "event"
    },
    {
      "anonymous": false,
      "inputs": [
        {
          "indexed": true,
          "internalType": "address",
          "name": "account",
          "type": "address"
        }
      ],
      "name": "MinterRemoved",
      "type": "event"
    },
    {
      "anonymous": false,
      "inputs": [
        {
          "indexed": false,
          "internalType": "address",
          "name": "account",
          "type": "address"
        }
      ],
      "name": "Paused",
      "type": "event"
    },
    {
      "anonymous": false,
      "inputs": [
        {
          "indexed": true,
          "internalType": "bytes32",
          "name": "role",
          "type": "bytes32"
        },
        {
          "indexed": true,
          "internalType": "bytes32",
          "name": "previousAdminRole",
          "type": "bytes32"
        },
        {
          "indexed": true,
          "internalType": "bytes32",
          "name": "newAdminRole",
          "type": "bytes32"
        }
      ],
      "name": "RoleAdminChanged",
      "type": "event"
    },
    {
      "anonymous": false,
      "inputs": [
        {
          "indexed": true,
          "internalType": "bytes32",
          "name": "role",
          "type": "bytes32"
        },
        {
          "indexed": true,
          "internalType": "address",
          "name": "account",
          "type": "address"
        },
        {
          "indexed": true,
          "internalType": "address",
          "name": "sender",
          "type": "address"
        }
      ],
      "name": "RoleGranted",
      "type": "event"
    },
    {
      "anonymous": false,
      "inputs": [
        {
          "indexed": true,
          "internalType": "bytes32",
          "name": "role",
          "type": "bytes32"
        },
        {
          "indexed": true,
          "internalType": "address",
          "name": "account",
          "type": "address"
        },
        {
          "indexed": true,
          "internalType": "address",
          "name": "sender",
          "type": "address"
        }
      ],
      "name": "RoleRevoked",
      "type": "event"
    },
    {
      "anonymous": false,
      "inputs": [
        {
          "indexed": true,
          "internalType": "address",
          "name": "from",
          "type": "address"
        },
        {
          "indexed": true,
          "internalType": "address",
          "name": "to",
          "type": "address"
        },
        {
          "indexed": false,
          "internalType": "uint256",
          "name": "value",
          "type": "uint256"
        }
      ],
      "name": "Transfer",
      "type": "event"
    },
    {
      "anonymous": false,
      "inputs": [
        {
          "indexed": false,
          "internalType": "address",
          "name": "account",
          "type": "address"
        }
      ],
      "name": "Unpaused",
      "type": "event"
    },
    {
      "inputs": [],
      "name": "BURNER_ROLE",
      "outputs": [
        {
          "internalType": "bytes32",
          "name": "",
          "type": "bytes32"
        }
      ],
      "stateMutability": "view",
      "type": "function"
    },
    {
      "inputs": [],
      "name": "DEFAULT_ADMIN_ROLE",
      "outputs": [
        {
          "internalType": "bytes32",
          "name": "",
          "type": "bytes32"
        }
      ],
      "stateMutability": "view",
      "type": "function"
    },
    {
      "inputs": [],
      "name": "MINTER_ROLE",
      "outputs": [
        {
          "internalType": "bytes32",
          "name": "",
          "type": "bytes32"
        }
      ],
      "stateMutability": "view",
      "type": "function"
    },
    {
      "inputs": [],
      "name": "PAUSER_ROLE",
      "outputs": [
        {
          "internalType": "bytes32",
          "name": "",
          "type": "bytes32"
        }
      ],
      "stateMutability": "view",
      "type": "function"
    },
    {
      "inputs": [],
      "name": "REDEMPTION_MANAGER_ROLE",
      "outputs": [
        {
          "internalType": "bytes32",
          "name": "",
          "type": "bytes32"
        }
      ],
      "stateMutability": "view",
      "type": "function"
    },
    {
      "inputs": [
        {
          "internalType": "address",
          "name": "account",
          "type": "address"
        }
      ],
      "name": "addBurner",
      "outputs": [],
      "stateMutability": "nonpayable",
      "type": "function"
    },
    {
      "inputs": [
        {
          "internalType": "address",
          "name": "account",
          "type": "address"
        }
      ],
      "name": "addMinter",
      "outputs": [],
      "stateMutability": "nonpayable",
      "type": "function"
    },
    {
      "inputs": [
        {
          "internalType": "address",
          "name": "account",
          "type": "address"
        }
      ],
      "name": "addRedemptionManager",
      "outputs": [],
      "stateMutability": "nonpayable",
      "type": "function"
    },
    {
      "inputs": [
        {
          "internalType": "address",
          "name": "owner",
          "type": "address"
        },
        {
          "internalType": "address",
          "name": "spender",
          "type": "address"
        }
      ],
      "name": "allowance",
      "outputs": [
        {
          "internalType": "uint256",
          "name": "",
          "type": "uint256"
        }
      ],
      "stateMutability": "view",
      "type": "function"
    },
    {
      "inputs": [
        {
          "internalType": "address",
          "name": "spender",
          "type": "address"
        },
        {
          "internalType": "uint256",
          "name": "value",
          "type": "uint256"
        }
      ],
      "name": "approve",
      "outputs": [
        {
          "internalType": "bool",
          "name": "",
          "type": "bool"
        }
      ],
      "stateMutability": "nonpayable",
      "type": "function"
    },
    {
      "inputs": [
        {
          "internalType": "address",
          "name": "account",
          "type": "address"
        }
      ],
      "name": "balanceOf",
      "outputs": [
        {
          "internalType": "uint256",
          "name": "",
          "type": "uint256"
        }
      ],
      "stateMutability": "view",
      "type": "function"
    },
    {
      "inputs": [
        {
          "internalType": "address",
          "name": "from",
          "type": "address"
        },
        {
          "internalType": "uint256",
          "name": "amount",
          "type": "uint256"
        }
      ],
      "name": "burn",
      "outputs": [],
      "stateMutability": "nonpayable",
      "type": "function"
    },
    {
      "inputs": [],
      "name": "collateralizationRatio",
      "outputs": [
        {
          "internalType": "uint256",
          "name": "",
          "type": "uint256"
        }
      ],
      "stateMutability": "view",
      "type": "function"
    },
    {
      "inputs": [],
      "name": "decimals",
      "outputs": [
        {
          "internalType": "uint8",
          "name": "",
          "type": "uint8"
        }
      ],
      "stateMutability": "view",
      "type": "function"
    },
    {
      "inputs": [
        {
          "internalType": "bytes32",
          "name": "role",
          "type": "bytes32"
        }
      ],
      "name": "getRoleAdmin",
      "outputs": [
        {
          "internalType": "bytes32",
          "name": "",
          "type": "bytes32"
        }
      ],
      "stateMutability": "view",
      "type": "function"
    },
    {
      "inputs": [
        {
          "internalType": "bytes32",
          "name": "role",
          "type": "bytes32"
        },
        {
          "internalType": "address",
          "name": "account",
          "type": "address"
        }
      ],
      "name": "grantRole",
      "outputs": [],
      "stateMutability": "nonpayable",
      "type": "function"
    },
    {
      "inputs": [
        {
          "internalType": "bytes32",
          "name": "role",
          "type": "bytes32"
        },
        {
          "internalType": "address",
          "name": "account",
          "type": "address"
        }
      ],
      "name": "hasRole",
      "outputs": [
        {
          "internalType": "bool",
          "name": "",
          "type": "bool"
        }
      ],
      "stateMutability": "view",
      "type": "function"
    },
    {
      "inputs": [
        {
          "internalType": "address",
          "name": "forwarder",
          "type": "address"
        }
      ],
      "name": "isTrustedForwarder",
      "outputs": [
        {
          "internalType": "bool",
          "name": "",
          "type": "bool"
        }
      ],
      "stateMutability": "view",
      "type": "function"
    },
    {
      "inputs": [
        {
          "internalType": "address",
          "name": "to",
          "type": "address"
        },
        {
          "internalType": "uint256",
          "name": "amount",
          "type": "uint256"
        }
      ],
      "name": "mint",
      "outputs": [],
      "stateMutability": "nonpayable",
      "type": "function"
    },
    {
      "inputs": [],
      "name": "name",
      "outputs": [
        {
          "internalType": "string",
          "name": "",
          "type": "string"
        }
      ],
      "stateMutability": "view",
      "type": "function"
    },
    {
      "inputs": [],
      "name": "pause",
      "outputs": [],
      "stateMutability": "nonpayable",
      "type": "function"
    },
    {
      "inputs": [],
      "name": "paused",
      "outputs": [
        {
          "internalType": "bool",
          "name": "",
          "type": "bool"
        }
      ],
      "stateMutability": "view",
      "type": "function"
    },
    {
      "inputs": [
        {
          "internalType": "uint256",
          "name": "amount",
          "type": "uint256"
        }
      ],
      "name": "redeem",
      "outputs": [],
      "stateMutability": "nonpayable",
      "type": "function"
    },
    {
      "inputs": [],
      "name": "redemptionService",
      "outputs": [
        {
          "internalType": "address",
          "name": "",
          "type": "address"
        }
      ],
      "stateMutability": "view",
      "type": "function"
    },
    {
      "inputs": [
        {
          "internalType": "address",
          "name": "account",
          "type": "address"
        }
      ],
      "name": "removeBurner",
      "outputs": [],
      "stateMutability": "nonpayable",
      "type": "function"
    },
    {
      "inputs": [
        {
          "internalType": "address",
          "name": "account",
          "type": "address"
        }
      ],
      "name": "removeMinter",
      "outputs": [],
      "stateMutability": "nonpayable",
      "type": "function"
    },
    {
      "inputs": [
        {
          "internalType": "address",
          "name": "account",
          "type": "address"
        }
      ],
      "name": "removeRedemptionManager",
      "outputs": [],
      "stateMutability": "nonpayable",
      "type": "function"
    },
    {
      "inputs": [
        {
          "internalType": "bytes32",
          "name": "role",
          "type": "bytes32"
        },
        {
          "internalType": "address",
          "name": "callerConfirmation",
          "type": "address"
        }
      ],
      "name": "renounceRole",
      "outputs": [],
      "stateMutability": "nonpayable",
      "type": "function"
    },
    {
      "inputs": [
        {
          "internalType": "bytes32",
          "name": "role",
          "type": "bytes32"
        },
        {
          "internalType": "address",
          "name": "account",
          "type": "address"
        }
      ],
      "name": "revokeRole",
      "outputs": [],
      "stateMutability": "nonpayable",
      "type": "function"
    },
    {
      "inputs": [
        {
          "internalType": "bytes4",
          "name": "interfaceId",
          "type": "bytes4"
        }
      ],
      "name": "supportsInterface",
      "outputs": [
        {
          "internalType": "bool",
          "name": "",
          "type": "bool"
        }
      ],
      "stateMutability": "view",
      "type": "function"
    },
    {
      "inputs": [],
      "name": "symbol",
      "outputs": [
        {
          "internalType": "string",
          "name": "",
          "type": "string"
        }
      ],
      "stateMutability": "view",
      "type": "function"
    },
    {
      "inputs": [],
      "name": "totalFiatReserves",
      "outputs": [
        {
          "internalType": "uint256",
          "name": "",
          "type": "uint256"
        }
      ],
      "stateMutability": "view",
      "type": "function"
    },
    {
      "inputs": [],
      "name": "totalSupply",
      "outputs": [
        {
          "internalType": "uint256",
          "name": "",
          "type": "uint256"
        }
      ],
      "stateMutability": "view",
      "type": "function"
    },
    {
      "inputs": [
        {
          "internalType": "address",
          "name": "to",
          "type": "address"
        },
        {
          "internalType": "uint256",
          "name": "value",
          "type": "uint256"
        }
      ],
      "name": "transfer",
      "outputs": [
        {
          "internalType": "bool",
          "name": "",
          "type": "bool"
        }
      ],
      "stateMutability": "nonpayable",
      "type": "function"
    },
    {
      "inputs": [
        {
          "internalType": "address",
          "name": "from",
          "type": "address"
        },
        {
          "internalType": "address",
          "name": "to",
          "type": "address"
        },
        {
          "internalType": "uint256",
          "name": "value",
          "type": "uint256"
        }
      ],
      "name": "transferFrom",
      "outputs": [
        {
          "internalType": "bool",
          "name": "",
          "type": "bool"
        }
      ],
      "stateMutability": "nonpayable",
      "type": "function"
    },
    {
      "inputs": [],
      "name": "trustedForwarder",
      "outputs": [
        {
          "internalType": "address",
          "name": "",
          "type": "address"
        }
      ],
      "stateMutability": "view",
      "type": "function"
    },
    {
      "inputs": [],
      "name": "unpause",
      "outputs": [],
      "stateMutability": "nonpayable",
      "type": "function"
    },
    {
      "inputs": [
        {
          "internalType": "uint256",
          "name": "_newReserves",
          "type": "uint256"
        }
      ],
      "name": "updateFiatReserves",
      "outputs": [],
      "stateMutability": "nonpayable",
      "type": "function"
    }
  ],
  "bytecode": "0x60a034620003eb57601f906001600160401b0390601f196200204a3881900385810183168401919085831185841017620002ef578085926040948552833981010312620003eb57620000518262000410565b9262000061602080940162000410565b946200006c620003f0565b600e81526d24a9291029ba30b13632b1b7b4b760911b8582015262000090620003f0565b916003928381526224a92960e91b878201528251858111620002ef5784546001948582811c92168015620003e0575b8a831014620003ca57818584931162000374575b508990858311600114620003115760009262000305575b505060001982871b1c191690841b1784555b8051948511620002ef5760049687548481811c91168015620002e4575b82821014620002cf5783811162000284575b5080928611600114620002185750849550908492916000956200020c575b50501b92600019911b1c19161790555b608052620001706200016a62000741565b62000425565b50620001856200017f62000741565b620004b3565b506200019a6200019462000741565b62000563565b50620001af620001a962000741565b62000604565b50620001c4620001be62000741565b620006a5565b50600780546001600160a01b0319166001600160a01b03929092169190911790556040516118a990816200078182396080518181816108550152818161091e01526117ce0152f35b01519350388062000149565b939295859081168860005285600020956000905b898383106200026957505050106200024e575b50505050811b01905562000159565b01519060f884600019921b161c19169055388080806200023f565b8587015189559097019694850194889350908101906200022c565b88600052816000208480890160051c820192848a10620002c5575b0160051c019085905b828110620002b85750506200012b565b60008155018590620002a8565b925081926200029f565b602289634e487b7160e01b6000525260246000fd5b90607f169062000119565b634e487b7160e01b600052604160045260246000fd5b015190503880620000ea565b908987941691886000528b6000209260005b8d8282106200035d575050841162000344575b505050811b018455620000fc565b015160001983891b60f8161c1916905538808062000336565b8385015186558a9790950194938401930162000323565b90915086600052896000208580850160051c8201928c8610620003c0575b918891869594930160051c01915b828110620003b0575050620000d3565b60008155859450889101620003a0565b9250819262000392565b634e487b7160e01b600052602260045260246000fd5b91607f1691620000bf565b600080fd5b60408051919082016001600160401b03811183821017620002ef57604052565b51906001600160a01b0382168203620003eb57565b6001600160a01b0390811660008181527f54cdd369e4e8a8515e52ca72ec816c2101831ad1f18bf44102ed171459c9b4f8602052604081205490929060ff16620004ae5782805260066020526040832082845260205260408320600160ff198254161790556200049462000741565b16916000805160206200202a8339815191528180a4600190565b505090565b6001600160a01b0390811660008181527f3195c024b2ddd6d9b8f6c836aa52f67fe69376c8903d009b80229b3ce4425f51602052604081205490927f9f2df0fed2c77648de5860a4cc508cd0818c85b8b8a1ab4ceeef8d981c8956a69160ff166200055d576000805160206200202a8339815191529082855260066020526040852084865260205260408520600160ff198254161790556200055462000741565b169380a4600190565b50505090565b6001600160a01b0390811660008181527f42d20fd6db25ea5a8e33f43724ad72f2ebd9488257fa78c86176b8175fc383fa602052604081205490927f3c11d16cbaffd01df69ce1c404f6340ee057498f5f00246190ea54220576a8489160ff166200055d576000805160206200202a8339815191529082855260066020526040852084865260205260408520600160ff198254161790556200055462000741565b6001600160a01b0390811660008181527fe09f975e15f8f53f24cbbc282b13c40b84df485fcdb8d3997fa103dc5a4ef841602052604081205490927f65d7a28e3265b37a6474929f336521b332c1681b933f6cb9f3376673440d862a9160ff166200055d576000805160206200202a8339815191529082855260066020526040852084865260205260408520600160ff198254161790556200055462000741565b6001600160a01b0390811660008181527f444fb9c097962b1599c3db8a3e427b5aa78220c2e8f7d80cfe11d37ca4279029602052604081205490927fe5bea7d829f723a95a0c83a655765be37702fa584514c1e2a20867d04b58478e9160ff166200055d576000805160206200202a8339815191529082855260066020526040852084865260205260408520600160ff19825416179055620005545b6014361015806200076b575b1562000767576013193601368111620003eb573560601c90565b3390565b506080516001600160a01b031633146200074d56fe608060409080825260048036101561001657600080fd5b600092833560e01c92836301ffc9a714610f87575082630284685814610f2b57826306fdde0314610e36578263095ea7b314610d8457826318160ddd14610d6557826323b872dd14610c51578263248a9ca314610c26578263282c51f314610bfd5782632f2ff15d14610bd35782633092afd514610b77578263313ce56714610b5b5782633580418314610b3157826336568abe14610ae1578263395ffad614610ab85782633f4ba83a14610a4e57826340c10f1914610945578263572b6c05146108f35782635c975abb146108cf578263610a2ca7146108a557826370a08231146108845782637da0a877146108405782638456cb59146107d25782638ade91ec146107a957826391d148541461076257826395d89b411461065f578263983b2d56146106035782639dc29fac14610599578263a217fddf1461057e578263a9059cbb14610546578263d53913931461051d578263d547741f146104dd578263db006a751461036c578263dcaf9c4414610348578263dd62ed3e146102ff578263dfda3991146102e0578263e63ab1e9146102a1578263ee8f01ef1461022657505063f44637ba146101c857600080fd5b34610223576020366003190112610223576101e1610fdb565b6101e9611055565b6101f28161128a565b506001600160a01b03167f86e57fd2b90329052917118de7c3f521f400d439b9650deaa906a25b08b945608280a280f35b80fd5b9091503461029d57602036600319011261029d576102426117a3565b60008051602061183d8339815191529182855260066020528085209160018060a01b03169182865260205260ff818620541615610283575050503560085580f35b5163e2517d3f60e01b815292830152602482015260449150fd5b8280fd5b8390346102dc57816003193601126102dc57602090517f65d7a28e3265b37a6474929f336521b332c1681b933f6cb9f3376673440d862a8152f35b5080fd5b8390346102dc57816003193601126102dc576020906008549051908152f35b8390346102dc57806003193601126102dc578060209261031d610fdb565b610325610ff6565b6001600160a01b0391821683526001865283832091168252845220549051908152f35b8390346102dc57816003193601126102dc57602090610365611763565b9051908152f35b9091503461029d57602090816003193601126104d957823561038c611745565b806103b36103986117a3565b6001600160a01b031660009081526020819052604090205490565b106104a0576103c9816103c46117a3565b61169e565b60075483906001600160a01b03906044908216886103e56117a3565b91875196879586946365d8480b60e01b8652168b85015260248401525af190811561049657859161045c575b501561041b578380f35b5162461bcd60e51b815291820152601960248201527f526564656d7074696f6e2072657175657374206661696c656400000000000000604482015260649150fd5b90508281813d831161048f575b6104738183611580565b8101031261048b5751801515810361048b5738610411565b8480fd5b503d610469565b82513d87823e3d90fd5b505162461bcd60e51b8152918201526014602482015273496e73756666696369656e742062616c616e636560601b604482015260649150fd5b8380fd5b9091503461029d578060031936011261029d5761051991356105146001610502610ff6565b9383875260066020528620015461112b565b611519565b5080f35b8390346102dc57816003193601126102dc576020905160008051602061185d8339815191528152f35b8390346102dc57806003193601126102dc57602090610577610566610fdb565b602435906105726117a3565b6115b8565b5160018152f35b8390346102dc57816003193601126102dc5751908152602090f35b91503461029d578160031936011261029d576105b3610fdb565b916105bc6117a3565b60008051602061181d8339815191529182865260066020528086209160018060a01b03169182875260205260ff81872054161561028357856106006024358761169e565b80f35b83346102235760203660031901126102235761061d610fdb565b610625611055565b61062e816111ff565b506001600160a01b03167f6ae172837ea30b801fbfcdd4108aa1d5bf8ff775444fd70256b44e6bf3dfc3f68280a280f35b8390346102dc57816003193601126102dc57805191809380549160019083821c92828516948515610758575b60209586861081146107455785895290811561072157506001146106c9575b6106c587876106bb828c0383611580565b519182918261100c565b0390f35b81529295507f8a35acfbc15ff81a39ae7d344fd709f28e8600b4aa8c65c6b64bfe7fe36bd19b5b82841061070e57505050826106c5946106bb928201019486806106aa565b80548685018801529286019281016106f0565b60ff19168887015250505050151560051b83010192506106bb826106c586806106aa565b634e487b7160e01b845260228352602484fd5b93607f169361068b565b91503461029d578160031936011261029d578160209360ff92610783610ff6565b90358252600686528282206001600160a01b039091168252855220549151911615158152f35b8390346102dc57816003193601126102dc576020905160008051602061183d8339815191528152f35b8390346102dc57816003193601126102dc5760207f62e78cea01bee320cd4e420270b5ea74000d11b0c9f74754ebdbfc544b05a258916108106110be565b610818611745565b600160ff19600554161760055561082d6117a3565b90516001600160a01b039091168152a180f35b8390346102dc57816003193601126102dc57517f00000000000000000000000000000000000000000000000000000000000000006001600160a01b03168152602090f35b8390346102dc5760203660031901126102dc57602090610365610398610fdb565b8334610223576020366003190112610223576105196108c2610fdb565b6108ca611055565b611490565b8390346102dc57816003193601126102dc5760209060ff6005541690519015158152f35b8390346102dc5760203660031901126102dc57602090610911610fdb565b90519060018060a01b03807f0000000000000000000000000000000000000000000000000000000000000000169116148152f35b9091503461029d578060031936011261029d57610960610fdb565b906024359161096d6117a3565b60008051602061185d833981519152808752600660209081528488206001600160a01b03938416808a5291528488205492939260ff1615610a3257505016928315610a1d576109ba611745565b60025490838201809211610a0a575084927fddf252ad1be2c89b69c2b068fc378daa952ba7f163c4a11628f55a4df523b3ef9260209260025585855284835280852082815401905551908152a380f35b634e487b7160e01b865260119052602485fd5b84602492519163ec442f0560e01b8352820152fd5b604491879186519263e2517d3f60e01b84528301526024820152fd5b91503461029d578260031936011261029d57610a686110be565b6005549060ff821615610aaa575060ff19166005557f5db9ee0a495bf2e6ff9c91a7834c1ba4fdd244a5e8aa4e537bd38aeae4b073aa9060209061082d6117a3565b8251638dfc202b60e01b8152fd5b8390346102dc57816003193601126102dc5760075490516001600160a01b039091168152602090f35b8390346102dc57806003193601126102dc57610afb610ff6565b906001600160a01b0380610b0d6117a3565b1690831603610b225750610519919235611519565b5163334bd91960e11b81528390fd5b833461022357602036600319011261022357610519610b4e610fdb565b610b56611055565b611165565b8390346102dc57816003193601126102dc576020905160128152f35b833461022357602036600319011261022357610b91610fdb565b610b99611055565b610ba281611407565b506001600160a01b03167fe94479a9f7e1952cc78f2d6baab678adc1b772d936c6583def489e524cb666928280a280f35b9091503461029d578060031936011261029d576105199135610bf86001610502610ff6565b611315565b8390346102dc57816003193601126102dc576020905160008051602061181d8339815191528152f35b91503461029d57602036600319011261029d5781602093600192358152600685522001549051908152f35b90833461022357606036600319011261022357610c6c610fdb565b610c74610ff6565b9160443593610c816117a3565b6001600160a01b0384811680855260016020908152898620928416808752929052888520549391929091906000198510610cc4575b60208a6105778b8b8b6115b8565b888510610d3057508115610d19578215610d025750835260016020908152878420918452908152918690209085900390558290610577878080610cb6565b8851634a1406b160e11b8152908101859052602490fd5b885163e602df0560e01b8152908101859052602490fd5b8951637dc7a0d960e11b81526001600160a01b0390911691810191825260208201859052604082018990529081906060010390fd5b8390346102dc57816003193601126102dc576020906002549051908152f35b91503461029d578160031936011261029d57610d9e610fdb565b602435936001600160a01b0380610db36117a3565b16928315610e1f5716928315610e0a575060208581968684867f8c5be1e5ebec7d5bd14f71427d1e84f3dd0314c0f7b2291e5b200ac8c7c3b925965260018552818120888252855220558551908152a35160018152f35b602491855191634a1406b160e11b8352820152fd5b855163e602df0560e01b8152808601849052602490fd5b9091503461029d578260031936011261029d57805191836003549060019082821c928281168015610f21575b6020958686108214610f0e5750848852908115610eec5750600114610e93575b6106c586866106bb828b0383611580565b929550600383527fc2575a0e9e593c00f959f8c92f12db2869c3395a3b0502d05e2516446f71f85b5b828410610ed957505050826106c5946106bb928201019438610e82565b8054868501880152928601928101610ebc565b60ff191687860152505050151560051b83010192506106bb826106c538610e82565b634e487b7160e01b845260229052602483fd5b93607f1693610e62565b833461022357602036600319011261022357610f45610fdb565b610f4d611055565b610f568161137e565b506001600160a01b03167f90eabbc0c667db2a5029ed6bc0f5fe9f356d11684a4ca9fcfaec0e53f12b9c8e8280a280f35b9250503461029d57602036600319011261029d573563ffffffff60e01b811680910361029d5760209250637965db0b60e01b8114908115610fca575b5015158152f35b6301ffc9a760e01b14905038610fc3565b600435906001600160a01b0382168203610ff157565b600080fd5b602435906001600160a01b0382168203610ff157565b6020808252825181830181905290939260005b82811061104157505060409293506000838284010152601f8019910116010190565b81810186015184820160400152850161101f565b61105d6117a3565b6001600160a01b031660008181527f54cdd369e4e8a8515e52ca72ec816c2101831ad1f18bf44102ed171459c9b4f8602052604081205460ff16156110a0575050565b604492506040519163e2517d3f60e01b835260048301526024820152fd5b6110c66117a3565b6001600160a01b031660008181527fe09f975e15f8f53f24cbbc282b13c40b84df485fcdb8d3997fa103dc5a4ef84160205260409020547f65d7a28e3265b37a6474929f336521b332c1681b933f6cb9f3376673440d862a9060ff16156110a0575050565b6111336117a3565b9080600052600660205260406000209160018060a01b0316918260005260205260ff60406000205416156110a0575050565b6001600160a01b0390811660008181527f444fb9c097962b1599c3db8a3e427b5aa78220c2e8f7d80cfe11d37ca42790296020526040812054909260008051602061183d8339815191529160ff166111f9576000805160206117fd8339815191529082855260066020526040852084865260205260408520600160ff198254161790556111f06117a3565b169380a4600190565b50505090565b6001600160a01b0390811660008181527f3195c024b2ddd6d9b8f6c836aa52f67fe69376c8903d009b80229b3ce4425f516020526040812054909260008051602061185d8339815191529160ff166111f9576000805160206117fd8339815191529082855260066020526040852084865260205260408520600160ff198254161790556111f06117a3565b6001600160a01b0390811660008181527f42d20fd6db25ea5a8e33f43724ad72f2ebd9488257fa78c86176b8175fc383fa6020526040812054909260008051602061181d8339815191529160ff166111f9576000805160206117fd8339815191529082855260066020526040852084865260205260408520600160ff198254161790556111f06117a3565b60008181526006602090815260408083206001600160a01b039586168085529252822054919390929160ff166111f9576000805160206117fd8339815191529082855260066020526040852084865260205260408520600160ff198254161790556111f06117a3565b6001600160a01b0390811660008181527f42d20fd6db25ea5a8e33f43724ad72f2ebd9488257fa78c86176b8175fc383fa6020526040812054909260008051602061181d8339815191529160ff16156111f95760008051602061187d833981519152908285526006602052604085208486526020526040852060ff1981541690556111f06117a3565b6001600160a01b0390811660008181527f3195c024b2ddd6d9b8f6c836aa52f67fe69376c8903d009b80229b3ce4425f516020526040812054909260008051602061185d8339815191529160ff16156111f95760008051602061187d833981519152908285526006602052604085208486526020526040852060ff1981541690556111f06117a3565b6001600160a01b0390811660008181527f444fb9c097962b1599c3db8a3e427b5aa78220c2e8f7d80cfe11d37ca42790296020526040812054909260008051602061183d8339815191529160ff16156111f95760008051602061187d833981519152908285526006602052604085208486526020526040852060ff1981541690556111f06117a3565b60008181526006602090815260408083206001600160a01b039586168085529252822054919390929160ff16156111f95760008051602061187d833981519152908285526006602052604085208486526020526040852060ff1981541690556111f06117a3565b90601f8019910116810190811067ffffffffffffffff8211176115a257604052565b634e487b7160e01b600052604160045260246000fd5b916001600160a01b03808416928315611685571692831561166c576115db611745565b6000908382528160205260408220549083821061163a575091604082827fddf252ad1be2c89b69c2b068fc378daa952ba7f163c4a11628f55a4df523b3ef958760209652828652038282205586815220818154019055604051908152a3565b60405163391434e360e21b81526001600160a01b03919091166004820152602481019190915260448101839052606490fd5b60405163ec442f0560e01b815260006004820152602490fd5b604051634b637e8f60e11b815260006004820152602490fd5b906001600160a01b038216908115611685576116b8611745565b600092828452836020526040842054908282106117135750817fddf252ad1be2c89b69c2b068fc378daa952ba7f163c4a11628f55a4df523b3ef926020928587528684520360408620558060025403600255604051908152a3565b60405163391434e360e21b81526001600160a01b03919091166004820152602481019190915260448101829052606490fd5b60ff6005541661175157565b60405163d93c066560e01b8152600490fd5b600254801561179d5760085461271090818102918183041490151715611787570490565b634e487b7160e01b600052601160045260246000fd5b50600090565b6014361015806117ca575b156117c6576013193601368111610ff1573560601c90565b3390565b50337f00000000000000000000000000000000000000000000000000000000000000006001600160a01b0316146117ae56fe2f8788117e7eff1d82e926ec794901d17c78024a50270940304540a733656f0d3c11d16cbaffd01df69ce1c404f6340ee057498f5f00246190ea54220576a848e5bea7d829f723a95a0c83a655765be37702fa584514c1e2a20867d04b58478e9f2df0fed2c77648de5860a4cc508cd0818c85b8b8a1ab4ceeef8d981c8956a6f6391f5c32d9c69d2a47ea670b442974b53935d1edc7fd64eb21e047a839171ba164736f6c6343000814000a2f8788117e7eff1d82e926ec794901d17c78024a50270940304540a733656f0d",
  "linkReferences": {},
  "deployedLinkReferences": {}
}