{
  "_format": "hh-sol-artifact-1",
  "contractName": "IRRStablecoin",
  "sourceName": "src/contracts/IRRStablecoin.sol",
  "abi": [
    {
      "inputs": [
        {
          "internalType": "address",
          "name": "_trustedForwarder",
          "type": "address"
        }
      ],
      "stateMutability": "nonpayable",
      "type": "constructor"
    },
    {
      "inputs": [],
      "name": "AccessControlBadConfirmation",
      "type": "error"
    },
    {
      "inputs": [
        {
          "internalType": "address",
          "name": "account",
          "type": "address"
        },
        {
          "internalType": "bytes32",
          "name": "neededRole",
          "type": "bytes32"
        }
      ],
      "name": "AccessControlUnauthorizedAccount",
      "type": "error"
    },
    {
      "inputs": [
        {
          "internalType": "address",
          "name": "spender",
          "type": "address"
        },
        {
          "internalType": "uint256",
          "name": "allowance",
          "type": "uint256"
        },
        {
          "internalType": "uint256",
          "name": "needed",
          "type": "uint256"
        }
      ],
      "name": "ERC20InsufficientAllowance",
      "type": "error"
    },
    {
      "inputs": [
        {
          "internalType": "address",
          "name": "sender",
          "type": "address"
        },
        {
          "internalType": "uint256",
          "name": "balance",
          "type": "uint256"
        },
        {
          "internalType": "uint256",
          "name": "needed",
          "type": "uint256"
        }
      ],
      "name": "ERC20InsufficientBalance",
      "type": "error"
    },
    {
      "inputs": [
        {
          "internalType": "address",
          "name": "approver",
          "type": "address"
        }
      ],
      "name": "ERC20InvalidApprover",
      "type": "error"
    },
    {
      "inputs": [
        {
          "internalType": "address",
          "name": "receiver",
          "type": "address"
        }
      ],
      "name": "ERC20InvalidReceiver",
      "type": "error"
    },
    {
      "inputs": [
        {
          "internalType": "address",
          "name": "sender",
          "type": "address"
        }
      ],
      "name": "ERC20InvalidSender",
      "type": "error"
    },
    {
      "inputs": [
        {
          "internalType": "address",
          "name": "spender",
          "type": "address"
        }
      ],
      "name": "ERC20InvalidSpender",
      "type": "error"
    },
    {
      "inputs": [],
      "name": "EnforcedPause",
      "type": "error"
    },
    {
      "inputs": [],
      "name": "ExpectedPause",
      "type": "error"
    },
    {
      "anonymous": false,
      "inputs": [
        {
          "indexed": true,
          "internalType": "address",
          "name": "owner",
          "type": "address"
        },
        {
          "indexed": true,
          "internalType": "address",
          "name": "spender",
          "type": "address"
        },
        {
          "indexed": false,
          "internalType": "uint256",
          "name": "value",
          "type": "uint256"
        }
      ],
      "name": "Approval",
      "type": "event"
    },
    {
      "anonymous": false,
      "inputs": [
        {
          "indexed": true,
          "internalType": "address",
          "name": "account",
          "type": "address"
        }
      ],
      "name": "BurnerAdded",
      "type": "event"
    },
    {
      "anonymous": false,
      "inputs": [
        {
          "indexed": true,
          "internalType": "address",
          "name": "account",
          "type": "address"
        }
      ],
      "name": "BurnerRemoved",
      "type": "event"
    },
    {
      "anonymous": false,
      "inputs": [
        {
          "indexed": true,
          "internalType": "address",
          "name": "account",
          "type": "address"
        }
      ],
      "name": "MinterAdded",
      "type": "event"
    },
    {
      "anonymous": false,
      "inputs": [
        {
          "indexed": true,
          "internalType": "address",
          "name": "account",
          "type": "address"
        }
      ],
      "name": "MinterRemoved",
      "type": "event"
    },
    {
      "anonymous": false,
      "inputs": [
        {
          "indexed": false,
          "internalType": "address",
          "name": "account",
          "type": "address"
        }
      ],
      "name": "Paused",
      "type": "event"
    },
    {
      "anonymous": false,
      "inputs": [
        {
          "indexed": true,
          "internalType": "bytes32",
          "name": "role",
          "type": "bytes32"
        },
        {
          "indexed": true,
          "internalType": "bytes32",
          "name": "previousAdminRole",
          "type": "bytes32"
        },
        {
          "indexed": true,
          "internalType": "bytes32",
          "name": "newAdminRole",
          "type": "bytes32"
        }
      ],
      "name": "RoleAdminChanged",
      "type": "event"
    },
    {
      "anonymous": false,
      "inputs": [
        {
          "indexed": true,
          "internalType": "bytes32",
          "name": "role",
          "type": "bytes32"
        },
        {
          "indexed": true,
          "internalType": "address",
          "name": "account",
          "type": "address"
        },
        {
          "indexed": true,
          "internalType": "address",
          "name": "sender",
          "type": "address"
        }
      ],
      "name": "RoleGranted",
      "type": "event"
    },
    {
      "anonymous": false,
      "inputs": [
        {
          "indexed": true,
          "internalType": "bytes32",
          "name": "role",
          "type": "bytes32"
        },
        {
          "indexed": true,
          "internalType": "address",
          "name": "account",
          "type": "address"
        },
        {
          "indexed": true,
          "internalType": "address",
          "name": "sender",
          "type": "address"
        }
      ],
      "name": "RoleRevoked",
      "type": "event"
    },
    {
      "anonymous": false,
      "inputs": [
        {
          "indexed": true,
          "internalType": "address",
          "name": "from",
          "type": "address"
        },
        {
          "indexed": true,
          "internalType": "address",
          "name": "to",
          "type": "address"
        },
        {
          "indexed": false,
          "internalType": "uint256",
          "name": "value",
          "type": "uint256"
        }
      ],
      "name": "Transfer",
      "type": "event"
    },
    {
      "anonymous": false,
      "inputs": [
        {
          "indexed": false,
          "internalType": "address",
          "name": "account",
          "type": "address"
        }
      ],
      "name": "Unpaused",
      "type": "event"
    },
    {
      "inputs": [],
      "name": "BURNER_ROLE",
      "outputs": [
        {
          "internalType": "bytes32",
          "name": "",
          "type": "bytes32"
        }
      ],
      "stateMutability": "view",
      "type": "function"
    },
    {
      "inputs": [],
      "name": "DEFAULT_ADMIN_ROLE",
      "outputs": [
        {
          "internalType": "bytes32",
          "name": "",
          "type": "bytes32"
        }
      ],
      "stateMutability": "view",
      "type": "function"
    },
    {
      "inputs": [],
      "name": "MINTER_ROLE",
      "outputs": [
        {
          "internalType": "bytes32",
          "name": "",
          "type": "bytes32"
        }
      ],
      "stateMutability": "view",
      "type": "function"
    },
    {
      "inputs": [],
      "name": "PAUSER_ROLE",
      "outputs": [
        {
          "internalType": "bytes32",
          "name": "",
          "type": "bytes32"
        }
      ],
      "stateMutability": "view",
      "type": "function"
    },
    {
      "inputs": [
        {
          "internalType": "address",
          "name": "account",
          "type": "address"
        }
      ],
      "name": "addBurner",
      "outputs": [],
      "stateMutability": "nonpayable",
      "type": "function"
    },
    {
      "inputs": [
        {
          "internalType": "address",
          "name": "account",
          "type": "address"
        }
      ],
      "name": "addMinter",
      "outputs": [],
      "stateMutability": "nonpayable",
      "type": "function"
    },
    {
      "inputs": [
        {
          "internalType": "address",
          "name": "owner",
          "type": "address"
        },
        {
          "internalType": "address",
          "name": "spender",
          "type": "address"
        }
      ],
      "name": "allowance",
      "outputs": [
        {
          "internalType": "uint256",
          "name": "",
          "type": "uint256"
        }
      ],
      "stateMutability": "view",
      "type": "function"
    },
    {
      "inputs": [
        {
          "internalType": "address",
          "name": "spender",
          "type": "address"
        },
        {
          "internalType": "uint256",
          "name": "value",
          "type": "uint256"
        }
      ],
      "name": "approve",
      "outputs": [
        {
          "internalType": "bool",
          "name": "",
          "type": "bool"
        }
      ],
      "stateMutability": "nonpayable",
      "type": "function"
    },
    {
      "inputs": [
        {
          "internalType": "address",
          "name": "account",
          "type": "address"
        }
      ],
      "name": "balanceOf",
      "outputs": [
        {
          "internalType": "uint256",
          "name": "",
          "type": "uint256"
        }
      ],
      "stateMutability": "view",
      "type": "function"
    },
    {
      "inputs": [
        {
          "internalType": "address",
          "name": "from",
          "type": "address"
        },
        {
          "internalType": "uint256",
          "name": "amount",
          "type": "uint256"
        }
      ],
      "name": "burn",
      "outputs": [],
      "stateMutability": "nonpayable",
      "type": "function"
    },
    {
      "inputs": [],
      "name": "decimals",
      "outputs": [
        {
          "internalType": "uint8",
          "name": "",
          "type": "uint8"
        }
      ],
      "stateMutability": "view",
      "type": "function"
    },
    {
      "inputs": [
        {
          "internalType": "bytes32",
          "name": "role",
          "type": "bytes32"
        }
      ],
      "name": "getRoleAdmin",
      "outputs": [
        {
          "internalType": "bytes32",
          "name": "",
          "type": "bytes32"
        }
      ],
      "stateMutability": "view",
      "type": "function"
    },
    {
      "inputs": [
        {
          "internalType": "bytes32",
          "name": "role",
          "type": "bytes32"
        },
        {
          "internalType": "address",
          "name": "account",
          "type": "address"
        }
      ],
      "name": "grantRole",
      "outputs": [],
      "stateMutability": "nonpayable",
      "type": "function"
    },
    {
      "inputs": [
        {
          "internalType": "bytes32",
          "name": "role",
          "type": "bytes32"
        },
        {
          "internalType": "address",
          "name": "account",
          "type": "address"
        }
      ],
      "name": "hasRole",
      "outputs": [
        {
          "internalType": "bool",
          "name": "",
          "type": "bool"
        }
      ],
      "stateMutability": "view",
      "type": "function"
    },
    {
      "inputs": [
        {
          "internalType": "address",
          "name": "forwarder",
          "type": "address"
        }
      ],
      "name": "isTrustedForwarder",
      "outputs": [
        {
          "internalType": "bool",
          "name": "",
          "type": "bool"
        }
      ],
      "stateMutability": "view",
      "type": "function"
    },
    {
      "inputs": [
        {
          "internalType": "address",
          "name": "to",
          "type": "address"
        },
        {
          "internalType": "uint256",
          "name": "amount",
          "type": "uint256"
        }
      ],
      "name": "mint",
      "outputs": [],
      "stateMutability": "nonpayable",
      "type": "function"
    },
    {
      "inputs": [],
      "name": "name",
      "outputs": [
        {
          "internalType": "string",
          "name": "",
          "type": "string"
        }
      ],
      "stateMutability": "view",
      "type": "function"
    },
    {
      "inputs": [],
      "name": "pause",
      "outputs": [],
      "stateMutability": "nonpayable",
      "type": "function"
    },
    {
      "inputs": [],
      "name": "paused",
      "outputs": [
        {
          "internalType": "bool",
          "name": "",
          "type": "bool"
        }
      ],
      "stateMutability": "view",
      "type": "function"
    },
    {
      "inputs": [
        {
          "internalType": "address",
          "name": "account",
          "type": "address"
        }
      ],
      "name": "removeBurner",
      "outputs": [],
      "stateMutability": "nonpayable",
      "type": "function"
    },
    {
      "inputs": [
        {
          "internalType": "address",
          "name": "account",
          "type": "address"
        }
      ],
      "name": "removeMinter",
      "outputs": [],
      "stateMutability": "nonpayable",
      "type": "function"
    },
    {
      "inputs": [
        {
          "internalType": "bytes32",
          "name": "role",
          "type": "bytes32"
        },
        {
          "internalType": "address",
          "name": "callerConfirmation",
          "type": "address"
        }
      ],
      "name": "renounceRole",
      "outputs": [],
      "stateMutability": "nonpayable",
      "type": "function"
    },
    {
      "inputs": [
        {
          "internalType": "bytes32",
          "name": "role",
          "type": "bytes32"
        },
        {
          "internalType": "address",
          "name": "account",
          "type": "address"
        }
      ],
      "name": "revokeRole",
      "outputs": [],
      "stateMutability": "nonpayable",
      "type": "function"
    },
    {
      "inputs": [
        {
          "internalType": "bytes4",
          "name": "interfaceId",
          "type": "bytes4"
        }
      ],
      "name": "supportsInterface",
      "outputs": [
        {
          "internalType": "bool",
          "name": "",
          "type": "bool"
        }
      ],
      "stateMutability": "view",
      "type": "function"
    },
    {
      "inputs": [],
      "name": "symbol",
      "outputs": [
        {
          "internalType": "string",
          "name": "",
          "type": "string"
        }
      ],
      "stateMutability": "view",
      "type": "function"
    },
    {
      "inputs": [],
      "name": "totalSupply",
      "outputs": [
        {
          "internalType": "uint256",
          "name": "",
          "type": "uint256"
        }
      ],
      "stateMutability": "view",
      "type": "function"
    },
    {
      "inputs": [
        {
          "internalType": "address",
          "name": "to",
          "type": "address"
        },
        {
          "internalType": "uint256",
          "name": "value",
          "type": "uint256"
        }
      ],
      "name": "transfer",
      "outputs": [
        {
          "internalType": "bool",
          "name": "",
          "type": "bool"
        }
      ],
      "stateMutability": "nonpayable",
      "type": "function"
    },
    {
      "inputs": [
        {
          "internalType": "address",
          "name": "from",
          "type": "address"
        },
        {
          "internalType": "address",
          "name": "to",
          "type": "address"
        },
        {
          "internalType": "uint256",
          "name": "value",
          "type": "uint256"
        }
      ],
      "name": "transferFrom",
      "outputs": [
        {
          "internalType": "bool",
          "name": "",
          "type": "bool"
        }
      ],
      "stateMutability": "nonpayable",
      "type": "function"
    },
    {
      "inputs": [],
      "name": "trustedForwarder",
      "outputs": [
        {
          "internalType": "address",
          "name": "",
          "type": "address"
        }
      ],
      "stateMutability": "view",
      "type": "function"
    },
    {
      "inputs": [],
      "name": "unpause",
      "outputs": [],
      "stateMutability": "nonpayable",
      "type": "function"
    }
  ],
  "bytecode": "0x60a034620003ae57601f90601f196001600160401b0362001ae4388190038581018416850183811186821017620002b257859282916040528339602094859181010312620003ae5751936001600160a01b0385168503620003ae5762000064620003b3565b600e81526d24a9291029ba30b13632b1b7b4b760911b8582015262000088620003b3565b916003928381526224a92960e91b878201528251858111620002b25784546001948582811c92168015620003a3575b8a8310146200038d57818584931162000337575b508990858311600114620002d457600092620002c8575b505060001982871b1c191690841b1784555b8051948511620002b25760049687548481811c91168015620002a7575b82821014620002925783811162000247575b5080928611600114620001db575084955090849291600095620001cf575b50501b92600019911b1c19161790555b60805262000168620001626200064e565b620003d3565b506200017d620001776200064e565b62000461565b50620001926200018c6200064e565b62000511565b50620001a7620001a16200064e565b620005b2565b5060405161143690816200068e823960805181818161068c0152818161074101526113bb0152f35b01519350388062000141565b939295859081168860005285600020956000905b898383106200022c575050501062000211575b50505050811b01905562000151565b01519060f884600019921b161c191690553880808062000202565b858701518955909701969485019488935090810190620001ef565b88600052816000208480890160051c820192848a1062000288575b0160051c019085905b8281106200027b57505062000123565b600081550185906200026b565b9250819262000262565b602289634e487b7160e01b6000525260246000fd5b90607f169062000111565b634e487b7160e01b600052604160045260246000fd5b015190503880620000e2565b908987941691886000528b6000209260005b8d82821062000320575050841162000307575b505050811b018455620000f4565b015160001983891b60f8161c19169055388080620002f9565b8385015186558a97909501949384019301620002e6565b90915086600052896000208580850160051c8201928c861062000383575b918891869594930160051c01915b82811062000373575050620000cb565b6000815585945088910162000363565b9250819262000355565b634e487b7160e01b600052602260045260246000fd5b91607f1691620000b7565b600080fd5b60408051919082016001600160401b03811183821017620002b257604052565b6001600160a01b0390811660008181527f54cdd369e4e8a8515e52ca72ec816c2101831ad1f18bf44102ed171459c9b4f8602052604081205490929060ff166200045c5782805260066020526040832082845260205260408320600160ff19825416179055620004426200064e565b169160008051602062001ac48339815191528180a4600190565b505090565b6001600160a01b0390811660008181527f3195c024b2ddd6d9b8f6c836aa52f67fe69376c8903d009b80229b3ce4425f51602052604081205490927f9f2df0fed2c77648de5860a4cc508cd0818c85b8b8a1ab4ceeef8d981c8956a69160ff166200050b5760008051602062001ac48339815191529082855260066020526040852084865260205260408520600160ff19825416179055620005026200064e565b169380a4600190565b50505090565b6001600160a01b0390811660008181527f42d20fd6db25ea5a8e33f43724ad72f2ebd9488257fa78c86176b8175fc383fa602052604081205490927f3c11d16cbaffd01df69ce1c404f6340ee057498f5f00246190ea54220576a8489160ff166200050b5760008051602062001ac48339815191529082855260066020526040852084865260205260408520600160ff19825416179055620005026200064e565b6001600160a01b0390811660008181527fe09f975e15f8f53f24cbbc282b13c40b84df485fcdb8d3997fa103dc5a4ef841602052604081205490927f65d7a28e3265b37a6474929f336521b332c1681b933f6cb9f3376673440d862a9160ff166200050b5760008051602062001ac48339815191529082855260066020526040852084865260205260408520600160ff19825416179055620005025b60143610158062000678575b1562000674576013193601368111620003ae573560601c90565b3390565b506080516001600160a01b031633146200065a56fe60806040908082526004918236101561001757600080fd5b600092833560e01c92836301ffc9a714610d3c575082630284685814610ce057826306fdde0314610c06578263095ea7b314610b5357826318160ddd14610b3457826323b872dd14610a21578263248a9ca3146109f5578263282c51f3146109cc5782632f2ff15d146109a35782633092afd514610947578263313ce5671461092b57826336568abe146108db5782633f4ba83a1461087057826340c10f1914610768578263572b6c05146107165782635c975abb146106f257826370a08231146106bb5782637da0a877146106775782638456cb591461060957826391d14854146105c157826395d89b41146104a2578263983b2d56146104465782639dc29fac14610316578263a217fddf146102fb578263a9059cbb146102c3578263d53913931461029a578263d547741f1461025757508163dd62ed3e1461020e578163e63ab1e9146101cf575063f44637ba1461017157600080fd5b346101cc5760203660031901126101cc5761018a610d8f565b610192610e09565b61019b81610fc5565b506001600160a01b03167f86e57fd2b90329052917118de7c3f521f400d439b9650deaa906a25b08b945608280a280f35b80fd5b90503461020a578160031936011261020a57602090517f65d7a28e3265b37a6474929f336521b332c1681b933f6cb9f3376673440d862a8152f35b5080fd5b90503461020a578060031936011261020a578060209261022c610d8f565b610234610daa565b6001600160a01b0391821683526001865283832091168252845220549051908152f35b915034610296578060031936011261029657610292913561028d600161027b610daa565b93838752600660205286200154610edf565b611213565b5080f35b8280fd5b83823461020a578160031936011261020a576020905160008051602061140a8339815191528152f35b83823461020a578060031936011261020a576020906102f46102e3610d8f565b602435906102ef611390565b61128c565b5160018152f35b83823461020a578160031936011261020a5751908152602090f35b83903461020a578260031936011261020a57610330610d8f565b906024359061033d611390565b6000805160206113ea833981519152808652600660209081528787206001600160a01b0393841680895291528787205460ff161561042b575050831692831561041457610388611372565b8385528460205285852054918383106103e05750508184957fddf252ad1be2c89b69c2b068fc378daa952ba7f163c4a11628f55a4df523b3ef936020938688528785520381872055816002540360025551908152a380f35b865163391434e360e21b81526001600160a01b03909216908201908152602081018390526040810184905281906060010390fd5b8551634b637e8f60e11b8152808301869052602490fd5b875163e2517d3f60e01b815293840152602483015250604490fd5b83346101cc5760203660031901126101cc57610460610d8f565b610468610e09565b61047181610f19565b506001600160a01b03167f6ae172837ea30b801fbfcdd4108aa1d5bf8ff775444fd70256b44e6bf3dfc3f68280a280f35b83823461020a578160031936011261020a57805190828454600181811c908083169283156105b7575b60209384841081146105a4578388529081156105885750600114610533575b505050829003601f01601f191682019267ffffffffffffffff841183851017610520575082918261051c925282610dc0565b0390f35b634e487b7160e01b815260418552602490fd5b8787529192508591837f8a35acfbc15ff81a39ae7d344fd709f28e8600b4aa8c65c6b64bfe7fe36bd19b5b83851061057457505050508301018580806104ea565b80548886018301529301928490820161055e565b60ff1916878501525050151560051b84010190508580806104ea565b634e487b7160e01b895260228a52602489fd5b91607f16916104cb565b909150346102965781600319360112610296578160209360ff926105e3610daa565b90358252600686528282206001600160a01b039091168252855220549151911615158152f35b83823461020a578160031936011261020a5760207f62e78cea01bee320cd4e420270b5ea74000d11b0c9f74754ebdbfc544b05a25891610647610e72565b61064f611372565b600160ff196005541617600555610664611390565b90516001600160a01b039091168152a180f35b83823461020a578160031936011261020a57517f00000000000000000000000000000000000000000000000000000000000000006001600160a01b03168152602090f35b83823461020a57602036600319011261020a5760209181906001600160a01b036106e3610d8f565b16815280845220549051908152f35b83823461020a578160031936011261020a5760209060ff6005541690519015158152f35b83823461020a57602036600319011261020a57602090610734610d8f565b90519060018060a01b03807f0000000000000000000000000000000000000000000000000000000000000000169116148152f35b915034610296578060031936011261029657610782610d8f565b906024359161078f611390565b60008051602061140a833981519152808752600660209081528488206001600160a01b03938416808a5291528488205492939260ff16156108545750501692831561083f576107dc611372565b6002549083820180921161082c575084927fddf252ad1be2c89b69c2b068fc378daa952ba7f163c4a11628f55a4df523b3ef9260209260025585855284835280852082815401905551908152a380f35b634e487b7160e01b865260119052602485fd5b84602492519163ec442f0560e01b8352820152fd5b604491879186519263e2517d3f60e01b84528301526024820152fd5b9091503461029657826003193601126102965761088b610e72565b6005549060ff8216156108cd575060ff19166005557f5db9ee0a495bf2e6ff9c91a7834c1ba4fdd244a5e8aa4e537bd38aeae4b073aa90602090610664611390565b8251638dfc202b60e01b8152fd5b83823461020a578060031936011261020a576108f5610daa565b906001600160a01b0380610907611390565b169083160361091c5750610292919235611213565b5163334bd91960e11b81528390fd5b83823461020a578160031936011261020a576020905160128152f35b83346101cc5760203660031901126101cc57610961610d8f565b610969610e09565b61097281611178565b506001600160a01b03167fe94479a9f7e1952cc78f2d6baab678adc1b772d936c6583def489e524cb666928280a280f35b91503461029657806003193601126102965761029291356109c7600161027b610daa565b611062565b83823461020a578160031936011261020a57602090516000805160206113ea8339815191528152f35b909150346102965760203660031901126102965781602093600192358152600685522001549051908152f35b83346101cc5760603660031901126101cc57610a3b610d8f565b610a43610daa565b9160443593610a50611390565b6001600160a01b0384811680855260016020908152898620928416808752929052888520549391929091906000198510610a93575b60208a6102f48b8b8b61128c565b888510610aff57508115610ae8578215610ad157508352600160209081528784209184529081529186902090859003905582906102f4878080610a85565b8851634a1406b160e11b8152908101859052602490fd5b885163e602df0560e01b8152908101859052602490fd5b8951637dc7a0d960e11b81526001600160a01b0390911691810191825260208201859052604082018990529081906060010390fd5b83823461020a578160031936011261020a576020906002549051908152f35b90915034610296578160031936011261029657610b6e610d8f565b602435936001600160a01b0380610b83611390565b16928315610bef5716928315610bda575060208581968684867f8c5be1e5ebec7d5bd14f71427d1e84f3dd0314c0f7b2291e5b200ac8c7c3b925965260018552818120888252855220558551908152a35160018152f35b602491855191634a1406b160e11b8352820152fd5b855163e602df0560e01b8152808601849052602490fd5b83823461020a578160031936011261020a5780519082600354600181811c90808316928315610cd6575b60209384841081146105a4578388529081156105885750600114610c8057505050829003601f01601f191682019267ffffffffffffffff841183851017610520575082918261051c925282610dc0565b600387529192508591837fc2575a0e9e593c00f959f8c92f12db2869c3395a3b0502d05e2516446f71f85b5b838510610cc257505050508301018580806104ea565b805488860183015293019284908201610cac565b91607f1691610c30565b83346101cc5760203660031901126101cc57610cfa610d8f565b610d02610e09565b610d0b816110dd565b506001600160a01b03167f90eabbc0c667db2a5029ed6bc0f5fe9f356d11684a4ca9fcfaec0e53f12b9c8e8280a280f35b849134610296576020366003190112610296573563ffffffff60e01b81168091036102965760209250637965db0b60e01b8114908115610d7e575b5015158152f35b6301ffc9a760e01b14905083610d77565b600435906001600160a01b0382168203610da557565b600080fd5b602435906001600160a01b0382168203610da557565b6020808252825181830181905290939260005b828110610df557505060409293506000838284010152601f8019910116010190565b818101860151848201604001528501610dd3565b610e11611390565b6001600160a01b031660008181527f54cdd369e4e8a8515e52ca72ec816c2101831ad1f18bf44102ed171459c9b4f8602052604081205460ff1615610e54575050565b604492506040519163e2517d3f60e01b835260048301526024820152fd5b610e7a611390565b6001600160a01b031660008181527fe09f975e15f8f53f24cbbc282b13c40b84df485fcdb8d3997fa103dc5a4ef84160205260409020547f65d7a28e3265b37a6474929f336521b332c1681b933f6cb9f3376673440d862a9060ff1615610e54575050565b610ee7611390565b9080600052600660205260406000209160018060a01b0316918260005260205260ff6040600020541615610e54575050565b6001600160a01b0390811660008181527f3195c024b2ddd6d9b8f6c836aa52f67fe69376c8903d009b80229b3ce4425f516020526040812054909260008051602061140a8339815191529160ff16610fbf577f2f8788117e7eff1d82e926ec794901d17c78024a50270940304540a733656f0d9082855260066020526040852084865260205260408520600160ff19825416179055610fb6611390565b169380a4600190565b50505090565b6001600160a01b0390811660008181527f42d20fd6db25ea5a8e33f43724ad72f2ebd9488257fa78c86176b8175fc383fa602052604081205490926000805160206113ea8339815191529160ff16610fbf577f2f8788117e7eff1d82e926ec794901d17c78024a50270940304540a733656f0d9082855260066020526040852084865260205260408520600160ff19825416179055610fb6611390565b60008181526006602090815260408083206001600160a01b039586168085529252822054919390929160ff16610fbf577f2f8788117e7eff1d82e926ec794901d17c78024a50270940304540a733656f0d9082855260066020526040852084865260205260408520600160ff19825416179055610fb6611390565b6001600160a01b0390811660008181527f42d20fd6db25ea5a8e33f43724ad72f2ebd9488257fa78c86176b8175fc383fa602052604081205490926000805160206113ea8339815191529160ff1615610fbf577ff6391f5c32d9c69d2a47ea670b442974b53935d1edc7fd64eb21e047a839171b908285526006602052604085208486526020526040852060ff198154169055610fb6611390565b6001600160a01b0390811660008181527f3195c024b2ddd6d9b8f6c836aa52f67fe69376c8903d009b80229b3ce4425f516020526040812054909260008051602061140a8339815191529160ff1615610fbf577ff6391f5c32d9c69d2a47ea670b442974b53935d1edc7fd64eb21e047a839171b908285526006602052604085208486526020526040852060ff198154169055610fb6611390565b60008181526006602090815260408083206001600160a01b039586168085529252822054919390929160ff1615610fbf577ff6391f5c32d9c69d2a47ea670b442974b53935d1edc7fd64eb21e047a839171b908285526006602052604085208486526020526040852060ff198154169055610fb6611390565b916001600160a01b038084169283156113595716928315611340576112af611372565b6000908382528160205260408220549083821061130e575091604082827fddf252ad1be2c89b69c2b068fc378daa952ba7f163c4a11628f55a4df523b3ef958760209652828652038282205586815220818154019055604051908152a3565b60405163391434e360e21b81526001600160a01b03919091166004820152602481019190915260448101839052606490fd5b60405163ec442f0560e01b815260006004820152602490fd5b604051634b637e8f60e11b815260006004820152602490fd5b60ff6005541661137e57565b60405163d93c066560e01b8152600490fd5b6014361015806113b7575b156113b3576013193601368111610da5573560601c90565b3390565b50337f00000000000000000000000000000000000000000000000000000000000000006001600160a01b03161461139b56fe3c11d16cbaffd01df69ce1c404f6340ee057498f5f00246190ea54220576a8489f2df0fed2c77648de5860a4cc508cd0818c85b8b8a1ab4ceeef8d981c8956a6a164736f6c6343000814000a2f8788117e7eff1d82e926ec794901d17c78024a50270940304540a733656f0d",
  "linkReferences": {},
  "deployedLinkReferences": {}
}