{
  "_format": "hh-sol-artifact-1",
  "contractName": "SmartTicket",
  "sourceName": "src/contracts/SmartTicket.sol",
  "abi": [
    {
      "inputs": [
        {
          "internalType": "string",
          "name": "name",
          "type": "string"
        },
        {
          "internalType": "string",
          "name": "symbol",
          "type": "string"
        },
        {
          "internalType": "string",
          "name": "_baseURI",
          "type": "string"
        },
        {
          "internalType": "address",
          "name": "_royaltyReceiver",
          "type": "address"
        },
        {
          "internalType": "uint96",
          "name": "_royaltyPercentage",
          "type": "uint96"
        }
      ],
      "stateMutability": "nonpayable",
      "type": "constructor"
    },
    {
      "inputs": [
        {
          "internalType": "uint256",
          "name": "numerator",
          "type": "uint256"
        },
        {
          "internalType": "uint256",
          "name": "denominator",
          "type": "uint256"
        }
      ],
      "name": "ERC2981InvalidDefaultRoyalty",
      "type": "error"
    },
    {
      "inputs": [
        {
          "internalType": "address",
          "name": "receiver",
          "type": "address"
        }
      ],
      "name": "ERC2981InvalidDefaultRoyaltyReceiver",
      "type": "error"
    },
    {
      "inputs": [
        {
          "internalType": "uint256",
          "name": "tokenId",
          "type": "uint256"
        },
        {
          "internalType": "uint256",
          "name": "numerator",
          "type": "uint256"
        },
        {
          "internalType": "uint256",
          "name": "denominator",
          "type": "uint256"
        }
      ],
      "name": "ERC2981InvalidTokenRoyalty",
      "type": "error"
    },
    {
      "inputs": [
        {
          "internalType": "uint256",
          "name": "tokenId",
          "type": "uint256"
        },
        {
          "internalType": "address",
          "name": "receiver",
          "type": "address"
        }
      ],
      "name": "ERC2981InvalidTokenRoyaltyReceiver",
      "type": "error"
    },
    {
      "inputs": [],
      "name": "ERC721EnumerableForbiddenBatchMint",
      "type": "error"
    },
    {
      "inputs": [
        {
          "internalType": "address",
          "name": "sender",
          "type": "address"
        },
        {
          "internalType": "uint256",
          "name": "tokenId",
          "type": "uint256"
        },
        {
          "internalType": "address",
          "name": "owner",
          "type": "address"
        }
      ],
      "name": "ERC721IncorrectOwner",
      "type": "error"
    },
    {
      "inputs": [
        {
          "internalType": "address",
          "name": "operator",
          "type": "address"
        },
        {
          "internalType": "uint256",
          "name": "tokenId",
          "type": "uint256"
        }
      ],
      "name": "ERC721InsufficientApproval",
      "type": "error"
    },
    {
      "inputs": [
        {
          "internalType": "address",
          "name": "approver",
          "type": "address"
        }
      ],
      "name": "ERC721InvalidApprover",
      "type": "error"
    },
    {
      "inputs": [
        {
          "internalType": "address",
          "name": "operator",
          "type": "address"
        }
      ],
      "name": "ERC721InvalidOperator",
      "type": "error"
    },
    {
      "inputs": [
        {
          "internalType": "address",
          "name": "owner",
          "type": "address"
        }
      ],
      "name": "ERC721InvalidOwner",
      "type": "error"
    },
    {
      "inputs": [
        {
          "internalType": "address",
          "name": "receiver",
          "type": "address"
        }
      ],
      "name": "ERC721InvalidReceiver",
      "type": "error"
    },
    {
      "inputs": [
        {
          "internalType": "address",
          "name": "sender",
          "type": "address"
        }
      ],
      "name": "ERC721InvalidSender",
      "type": "error"
    },
    {
      "inputs": [
        {
          "internalType": "uint256",
          "name": "tokenId",
          "type": "uint256"
        }
      ],
      "name": "ERC721NonexistentToken",
      "type": "error"
    },
    {
      "inputs": [
        {
          "internalType": "address",
          "name": "owner",
          "type": "address"
        },
        {
          "internalType": "uint256",
          "name": "index",
          "type": "uint256"
        }
      ],
      "name": "ERC721OutOfBoundsIndex",
      "type": "error"
    },
    {
      "inputs": [
        {
          "internalType": "address",
          "name": "owner",
          "type": "address"
        }
      ],
      "name": "OwnableInvalidOwner",
      "type": "error"
    },
    {
      "inputs": [
        {
          "internalType": "address",
          "name": "account",
          "type": "address"
        }
      ],
      "name": "OwnableUnauthorizedAccount",
      "type": "error"
    },
    {
      "anonymous": false,
      "inputs": [
        {
          "indexed": true,
          "internalType": "address",
          "name": "owner",
          "type": "address"
        },
        {
          "indexed": true,
          "internalType": "address",
          "name": "approved",
          "type": "address"
        },
        {
          "indexed": true,
          "internalType": "uint256",
          "name": "tokenId",
          "type": "uint256"
        }
      ],
      "name": "Approval",
      "type": "event"
    },
    {
      "anonymous": false,
      "inputs": [
        {
          "indexed": true,
          "internalType": "address",
          "name": "owner",
          "type": "address"
        },
        {
          "indexed": true,
          "internalType": "address",
          "name": "operator",
          "type": "address"
        },
        {
          "indexed": false,
          "internalType": "bool",
          "name": "approved",
          "type": "bool"
        }
      ],
      "name": "ApprovalForAll",
      "type": "event"
    },
    {
      "anonymous": false,
      "inputs": [
        {
          "indexed": true,
          "internalType": "address",
          "name": "previousOwner",
          "type": "address"
        },
        {
          "indexed": true,
          "internalType": "address",
          "name": "newOwner",
          "type": "address"
        }
      ],
      "name": "OwnershipTransferred",
      "type": "event"
    },
    {
      "anonymous": false,
      "inputs": [
        {
          "indexed": true,
          "internalType": "address",
          "name": "receiver",
          "type": "address"
        },
        {
          "indexed": false,
          "internalType": "uint96",
          "name": "percentage",
          "type": "uint96"
        }
      ],
      "name": "RoyaltyUpdated",
      "type": "event"
    },
    {
      "anonymous": false,
      "inputs": [
        {
          "indexed": true,
          "internalType": "uint256",
          "name": "tokenId",
          "type": "uint256"
        },
        {
          "indexed": true,
          "internalType": "address",
          "name": "to",
          "type": "address"
        },
        {
          "indexed": false,
          "internalType": "string",
          "name": "uri",
          "type": "string"
        }
      ],
      "name": "TicketMinted",
      "type": "event"
    },
    {
      "anonymous": false,
      "inputs": [
        {
          "indexed": true,
          "internalType": "address",
          "name": "from",
          "type": "address"
        },
        {
          "indexed": true,
          "internalType": "address",
          "name": "to",
          "type": "address"
        },
        {
          "indexed": true,
          "internalType": "uint256",
          "name": "tokenId",
          "type": "uint256"
        }
      ],
      "name": "Transfer",
      "type": "event"
    },
    {
      "inputs": [
        {
          "internalType": "address",
          "name": "to",
          "type": "address"
        },
        {
          "internalType": "uint256",
          "name": "tokenId",
          "type": "uint256"
        }
      ],
      "name": "approve",
      "outputs": [],
      "stateMutability": "nonpayable",
      "type": "function"
    },
    {
      "inputs": [
        {
          "internalType": "address",
          "name": "owner",
          "type": "address"
        }
      ],
      "name": "balanceOf",
      "outputs": [
        {
          "internalType": "uint256",
          "name": "",
          "type": "uint256"
        }
      ],
      "stateMutability": "view",
      "type": "function"
    },
    {
      "inputs": [],
      "name": "baseURI",
      "outputs": [
        {
          "internalType": "string",
          "name": "",
          "type": "string"
        }
      ],
      "stateMutability": "view",
      "type": "function"
    },
    {
      "inputs": [
        {
          "internalType": "uint256",
          "name": "tokenId",
          "type": "uint256"
        }
      ],
      "name": "getApproved",
      "outputs": [
        {
          "internalType": "address",
          "name": "",
          "type": "address"
        }
      ],
      "stateMutability": "view",
      "type": "function"
    },
    {
      "inputs": [],
      "name": "getNextTokenId",
      "outputs": [
        {
          "internalType": "uint256",
          "name": "",
          "type": "uint256"
        }
      ],
      "stateMutability": "view",
      "type": "function"
    },
    {
      "inputs": [
        {
          "internalType": "address",
          "name": "owner",
          "type": "address"
        },
        {
          "internalType": "address",
          "name": "operator",
          "type": "address"
        }
      ],
      "name": "isApprovedForAll",
      "outputs": [
        {
          "internalType": "bool",
          "name": "",
          "type": "bool"
        }
      ],
      "stateMutability": "view",
      "type": "function"
    },
    {
      "inputs": [
        {
          "internalType": "address",
          "name": "to",
          "type": "address"
        }
      ],
      "name": "mint",
      "outputs": [
        {
          "internalType": "uint256",
          "name": "",
          "type": "uint256"
        }
      ],
      "stateMutability": "nonpayable",
      "type": "function"
    },
    {
      "inputs": [
        {
          "internalType": "address",
          "name": "to",
          "type": "address"
        },
        {
          "internalType": "uint256",
          "name": "quantity",
          "type": "uint256"
        }
      ],
      "name": "mintBatch",
      "outputs": [
        {
          "internalType": "uint256[]",
          "name": "",
          "type": "uint256[]"
        }
      ],
      "stateMutability": "nonpayable",
      "type": "function"
    },
    {
      "inputs": [],
      "name": "name",
      "outputs": [
        {
          "internalType": "string",
          "name": "",
          "type": "string"
        }
      ],
      "stateMutability": "view",
      "type": "function"
    },
    {
      "inputs": [],
      "name": "owner",
      "outputs": [
        {
          "internalType": "address",
          "name": "",
          "type": "address"
        }
      ],
      "stateMutability": "view",
      "type": "function"
    },
    {
      "inputs": [
        {
          "internalType": "uint256",
          "name": "tokenId",
          "type": "uint256"
        }
      ],
      "name": "ownerOf",
      "outputs": [
        {
          "internalType": "address",
          "name": "",
          "type": "address"
        }
      ],
      "stateMutability": "view",
      "type": "function"
    },
    {
      "inputs": [],
      "name": "renounceOwnership",
      "outputs": [],
      "stateMutability": "nonpayable",
      "type": "function"
    },
    {
      "inputs": [
        {
          "internalType": "uint256",
          "name": "tokenId",
          "type": "uint256"
        },
        {
          "internalType": "uint256",
          "name": "salePrice",
          "type": "uint256"
        }
      ],
      "name": "royaltyInfo",
      "outputs": [
        {
          "internalType": "address",
          "name": "receiver",
          "type": "address"
        },
        {
          "internalType": "uint256",
          "name": "amount",
          "type": "uint256"
        }
      ],
      "stateMutability": "view",
      "type": "function"
    },
    {
      "inputs": [],
      "name": "royaltyPercentage",
      "outputs": [
        {
          "internalType": "uint96",
          "name": "",
          "type": "uint96"
        }
      ],
      "stateMutability": "view",
      "type": "function"
    },
    {
      "inputs": [],
      "name": "royaltyReceiver",
      "outputs": [
        {
          "internalType": "address",
          "name": "",
          "type": "address"
        }
      ],
      "stateMutability": "view",
      "type": "function"
    },
    {
      "inputs": [
        {
          "internalType": "address",
          "name": "from",
          "type": "address"
        },
        {
          "internalType": "address",
          "name": "to",
          "type": "address"
        },
        {
          "internalType": "uint256",
          "name": "tokenId",
          "type": "uint256"
        }
      ],
      "name": "safeTransferFrom",
      "outputs": [],
      "stateMutability": "nonpayable",
      "type": "function"
    },
    {
      "inputs": [
        {
          "internalType": "address",
          "name": "from",
          "type": "address"
        },
        {
          "internalType": "address",
          "name": "to",
          "type": "address"
        },
        {
          "internalType": "uint256",
          "name": "tokenId",
          "type": "uint256"
        },
        {
          "internalType": "bytes",
          "name": "data",
          "type": "bytes"
        }
      ],
      "name": "safeTransferFrom",
      "outputs": [],
      "stateMutability": "nonpayable",
      "type": "function"
    },
    {
      "inputs": [
        {
          "internalType": "address",
          "name": "operator",
          "type": "address"
        },
        {
          "internalType": "bool",
          "name": "approved",
          "type": "bool"
        }
      ],
      "name": "setApprovalForAll",
      "outputs": [],
      "stateMutability": "nonpayable",
      "type": "function"
    },
    {
      "inputs": [
        {
          "internalType": "string",
          "name": "_baseURI",
          "type": "string"
        }
      ],
      "name": "setBaseURI",
      "outputs": [],
      "stateMutability": "nonpayable",
      "type": "function"
    },
    {
      "inputs": [
        {
          "internalType": "address",
          "name": "receiver",
          "type": "address"
        },
        {
          "internalType": "uint96",
          "name": "percentage",
          "type": "uint96"
        }
      ],
      "name": "setRoyalty",
      "outputs": [],
      "stateMutability": "nonpayable",
      "type": "function"
    },
    {
      "inputs": [
        {
          "internalType": "bytes4",
          "name": "interfaceId",
          "type": "bytes4"
        }
      ],
      "name": "supportsInterface",
      "outputs": [
        {
          "internalType": "bool",
          "name": "",
          "type": "bool"
        }
      ],
      "stateMutability": "view",
      "type": "function"
    },
    {
      "inputs": [],
      "name": "symbol",
      "outputs": [
        {
          "internalType": "string",
          "name": "",
          "type": "string"
        }
      ],
      "stateMutability": "view",
      "type": "function"
    },
    {
      "inputs": [
        {
          "internalType": "uint256",
          "name": "index",
          "type": "uint256"
        }
      ],
      "name": "tokenByIndex",
      "outputs": [
        {
          "internalType": "uint256",
          "name": "",
          "type": "uint256"
        }
      ],
      "stateMutability": "view",
      "type": "function"
    },
    {
      "inputs": [
        {
          "internalType": "address",
          "name": "owner",
          "type": "address"
        },
        {
          "internalType": "uint256",
          "name": "index",
          "type": "uint256"
        }
      ],
      "name": "tokenOfOwnerByIndex",
      "outputs": [
        {
          "internalType": "uint256",
          "name": "",
          "type": "uint256"
        }
      ],
      "stateMutability": "view",
      "type": "function"
    },
    {
      "inputs": [
        {
          "internalType": "uint256",
          "name": "tokenId",
          "type": "uint256"
        }
      ],
      "name": "tokenURI",
      "outputs": [
        {
          "internalType": "string",
          "name": "",
          "type": "string"
        }
      ],
      "stateMutability": "view",
      "type": "function"
    },
    {
      "inputs": [],
      "name": "totalSupply",
      "outputs": [
        {
          "internalType": "uint256",
          "name": "",
          "type": "uint256"
        }
      ],
      "stateMutability": "view",
      "type": "function"
    },
    {
      "inputs": [
        {
          "internalType": "address",
          "name": "from",
          "type": "address"
        },
        {
          "internalType": "address",
          "name": "to",
          "type": "address"
        },
        {
          "internalType": "uint256",
          "name": "tokenId",
          "type": "uint256"
        }
      ],
      "name": "transferFrom",
      "outputs": [],
      "stateMutability": "nonpayable",
      "type": "function"
    },
    {
      "inputs": [
        {
          "internalType": "address",
          "name": "newOwner",
          "type": "address"
        }
      ],
      "name": "transferOwnership",
      "outputs": [],
      "stateMutability": "nonpayable",
      "type": "function"
    }
  ],
  "bytecode": "0x604060808152346200055f576200212d803803806200001e8162000564565b928339810160a0828203126200055f5781516001600160401b0392908381116200055f5782620000509183016200058a565b92602091828101518281116200055f57846200006e9183016200058a565b9386820151908382116200055f57620000899183016200058a565b60608201516001600160a01b0380821697909390918890036200055f57608001516001600160601b038116969092908784036200055f5782518681116200026857600254906001948583811c9316801562000554575b8a84101462000378578190601f93848111620004fd575b508a90848311600114620004915760009262000485575b5050600019600383901b1c191690851b176002555b815187811162000268576003928354908682811c921680156200047a575b8b8310146200037857818484931162000424575b508a90848311600114620003bd57600092620003b1575b505060001982851b1c191690851b1782555b33156200039957600c80546001600160a01b03198082163390811790935597167f8be0079c531659141344cd1fd0a4f28419497f9722a3daafe3b4186f6b6457e0600080a383600d558251928784116200026857600e548581811c911680156200038e575b8a82101462000378578281116200032c575b5088918411600114620002bf57938394918492600095620002b3575b50501b92600019911b1c191617600e555b60a01b1684179384600f5561271080851162000296575080156200027e5785519182870190811183821017620002685786528152015260005551611b309081620005fd8239f35b634e487b7160e01b600052604160045260246000fd5b8551635b6cc80560e11b815260006004820152602490fd5b84604491885191636f483d0960e01b835260048301526024820152fd5b01519350388062000210565b9190601f19841692600e600052848a6000209460005b8c89838310620003145750505010620002f9575b50505050811b01600e5562000221565b01519060f884600019921b161c1916905538808080620002e9565b868601518955909701969485019488935001620002d5565b600e600052896000208380870160051c8201928c88106200036e575b0160051c019086905b82811062000361575050620001f4565b6000815501869062000351565b9250819262000348565b634e487b7160e01b600052602260045260246000fd5b90607f1690620001e2565b8a51631e4fbdf760e01b815260006004820152602490fd5b0151905038806200016b565b60008681528c8120899550929190601f198516908e5b8282106200040c5750508411620003f3575b505050811b0182556200017d565b015160001983871b60f8161c19169055388080620003e5565b8385015186558b979095019493840193018e620003d3565b909150846000528a6000208480850160051c8201928d861062000470575b918991869594930160051c01915b8281106200046057505062000154565b6000815585945089910162000450565b9250819262000442565b91607f169162000140565b0151905038806200010d565b90879350601f1983169160026000528c600020928d6000905b828210620004e55750508411620004cb575b505050811b0160025562000122565b015160001960f88460031b161c19169055388080620004bc565b8385015186558b979095019493840193018e620004aa565b90915060026000528a6000208480850160051c8201928d86106200054a575b918991869594930160051c01915b8281106200053a575050620000f6565b600081558594508991016200052a565b925081926200051c565b92607f1692620000df565b600080fd5b6040519190601f01601f191682016001600160401b038111838210176200026857604052565b919080601f840112156200055f5782516001600160401b0381116200026857602090620005c0601f8201601f1916830162000564565b928184528282870101116200055f5760005b818110620005e857508260009394955001015290565b8581018301518482018401528201620005d256fe6080604081815260048036101561001557600080fd5b600092833560e01c90816301ffc9a714610e6d5750806306fdde0314610dc3578063081812fc14610d87578063095ea7b314610ca557806318160ddd14610c8657806323b872dd14610c6e578063248b71fc14610b345780632a55205a14610a945780632f745c5914610a1057806342842e0e146109e15780634f6ccce71461098d57806355f804b3146108105780636352211e146107df5780636a6278421461075e5780636c0360eb146106c657806370a0823114610699578063715018a61461063c5780638a71bb2d1461061a5780638da5cb5b146105f15780638f2fc60b146104b257806395d89b41146103cd5780639fbc8713146103a4578063a22cb46514610303578063b88d4fde14610290578063c87b56dd14610255578063caa0f92a14610236578063e985e9c5146101e45763f2fde38b1461015757600080fd5b346101e05760203660031901126101e057610170610f55565b9061017961109c565b6001600160a01b039182169283156101ca575050600c54826001600160601b0360a01b821617600c55167f8be0079c531659141344cd1fd0a4f28419497f9722a3daafe3b4186f6b6457e08380a380f35b51631e4fbdf760e01b8152908101849052602490fd5b8280fd5b50503461023257806003193601126102325760ff81602093610204610f55565b61020c610f70565b6001600160a01b0391821683526007875283832091168252855220549151911615158152f35b5080fd5b505034610232578160031936011261023257602090600d549051908152f35b50913461028d57602036600319011261028d5750610276610289923561191e565b9051918291602083526020830190610f30565b0390f35b80fd5b838234610232576080366003190112610232576102ab610f55565b6102b3610f70565b6044359060643567ffffffffffffffff81116102ff57366023820112156102ff576102fc948160246102ea9336930135910161102b565b926102f6838383611101565b33611450565b80f35b8580fd5b5090346101e057806003193601126101e05761031d610f55565b90602435918215158093036103a0576001600160a01b031692831561038b5750338452600760205280842083855260205280842060ff1981541660ff8416179055519081527f17307eab39ab6107e8899845ad3d59bd9653f200f220920489ca2b5937696c3160203392a380f35b836024925191630b61174360e31b8352820152fd5b8480fd5b505034610232578160031936011261023257600f5490516001600160a01b039091168152602090f35b505034610232578160031936011261023257805190826003546103ef81611062565b8085529160019180831690811561048a575060011461042d575b50505061041b82610289940383610fed565b51918291602083526020830190610f30565b9450600385527fc2575a0e9e593c00f959f8c92f12db2869c3395a3b0502d05e2516446f71f85b5b8286106104725750505061041b8260206102899582010194610409565b80546020878701810191909152909501948101610455565b61028997508693506020925061041b94915060ff191682840152151560051b82010194610409565b5090346101e057806003193601126101e0576104cc610f55565b90602435926001600160601b038416928385036102ff576104eb61109c565b6001600160a01b03169384156105bb5761271084116105825760a01b6001600160a01b0319168417600f819055825190918184019067ffffffffffffffff82118383101761056f57509184602085937f8039bd6e4e7dba001c8840eb2e118d9d131246faa7d0d04335f7305127ec0b1097958297528881520152865551908152a280f35b634e487b7160e01b885260419052602487fd5b506020606492519162461bcd60e51b835282015260136024820152720a0cae4c6cadce8c2ceca40e8dede40d0d2ced606b1b6044820152fd5b506020606492519162461bcd60e51b8352820152601060248201526f24b73b30b634b2103932b1b2b4bb32b960811b6044820152fd5b505034610232578160031936011261023257600c5490516001600160a01b039091168152602090f35b505034610232578160031936011261023257602090600f5460a01c9051908152f35b833461028d578060031936011261028d5761065561109c565b600c80546001600160a01b0319811690915581906001600160a01b03167f8be0079c531659141344cd1fd0a4f28419497f9722a3daafe3b4186f6b6457e08280a380f35b505034610232576020366003190112610232576020906106bf6106ba610f55565b6110c8565b9051908152f35b50503461023257816003193601126102325780519082600e546106e881611062565b8085529160019180831690811561048a57506001146107135750505061041b82610289940383610fed565b9450600e8552600080516020611b048339815191525b8286106107465750505061041b8260206102899582010194610409565b80546020878701810191909152909501948101610729565b505034610232576020366003190112610232578060209261077d610f55565b61078561109c565b7f01fe50c1ea65ec45d727411cce4e6ac546a4cc83120dc5d887b7949347bfe728600d549485926107b58461159e565b600d556107c284826115c3565b8151888152888101959095526001600160a01b031693a351908152f35b50913461028d57602036600319011261028d57506107ff602092356113c8565b90516001600160a01b039091168152f35b50823461028d576020806003193601126102325767ffffffffffffffff908335828111610989573660238201121561098957610855903690602481880135910161102b565b9361085e61109c565b84519283116109765750610873600e54611062565b601f8111610926575b5080601f83116001146108b7575082938293926108ac575b50508160011b916000199060031b1c191617600e5580f35b015190508380610894565b600e8452601f19831694600080516020611b04833981519152929185905b87821061090e5750508360019596106108f5575b505050811b01600e5580f35b015160001960f88460031b161c191690558380806108e9565b806001859682949686015181550195019301906108d5565b600e8452600080516020611b04833981519152601f840160051c81019183851061096c575b601f0160051c01905b818110610961575061087c565b848155600101610954565b909150819061094b565b634e487b7160e01b845260419052602483fd5b8380fd5b50346101e05760203660031901126101e057803592600a548410156109c6576020836109b886611403565b91905490519160031b1c8152f35b6044939192519263295f44f760e21b84528301526024820152fd5b505034610232576102fc906109f536610f86565b91925192610a0284610fbb565b8584526102f6838383611101565b50913461028d578160031936011261028d57610a2a610f55565b9260243590610a38856110c8565b821015610a6857506001600160a01b03909316815260086020908152828220938252928352819020549051908152f35b925163295f44f760e21b81526001600160a01b0390941692840192835260208301525081906040010390fd5b50913461028d578160031936011261028d5782358152600160205281812054602435926001600160a01b0380831693919260a01c908415610b1b575b506001600160601b031693848102948186041490151715610b085781516001600160a01b038416815261271085046020820152604090f35b634e487b7160e01b815260118552602490fd5b8254908116945060a01c90506001600160601b03610ad0565b508290346102325782600319360112610232579190610b51610f55565b906024938435610b5f61109c565b610b6881611906565b91610b7586519384610fed565b818352610b8182611906565b6020978489019691601f19013688376001600160a01b03821692865b858110610be55750505050505083519485948186019282875251809352850193925b828110610bce57505050500390f35b835185528695509381019392810192600101610bbf565b600d9a979698999a805490610bf98261159e565b9055610c0581866115c3565b8951821015610c5c579085827f01fe50c1ea65ec45d727411cce4e6ac546a4cc83120dc5d887b7949347bfe7288e610c51958d8f8760051b0101528c8c825191808352820152a361159e565b999897959699610b9d565b634e487b7160e01b8852603283528388fd5b833461028d576102fc610c8036610f86565b91611101565b505034610232578160031936011261023257602090600a549051908152f35b5090346101e057806003193601126101e057610cbf610f55565b9160243590610ccd826113c8565b9033151580610d74575b80610d4b575b610d3457506001600160a01b039384169382918591167f8c5be1e5ebec7d5bd14f71427d1e84f3dd0314c0f7b2291e5b200ac8c7c3b9258780a483526006602052822080546001600160a01b031916909117905580f35b60249084519063a9fbf51f60e01b82523390820152fd5b506001600160a01b03821686526007602090815284872033885290528386205460ff1615610cdd565b506001600160a01b038216331415610cd7565b50346101e05760203660031901126101e0579160209235610da7816113c8565b508152600683528190205490516001600160a01b039091168152f35b50503461023257816003193601126102325780519082600254610de581611062565b8085529160019180831690811561048a5750600114610e105750505061041b82610289940383610fed565b9450600285527f405787fa12a823e0f2b7631cc41b3ba8828b3321ca811111fa75cd3aa3bb5ace5b828610610e555750505061041b8260206102899582010194610409565b80546020878701810191909152909501948101610e38565b925050346101e05760203660031901126101e0573563ffffffff60e01b81168091036101e0576020925063780e9d6360e01b8114908115610eb0575b5015158152f35b6380ac58cd60e01b811491508115610efc575b8115610ed1575b5038610ea9565b63152a902d60e11b811491508115610eeb575b5038610eca565b6301ffc9a760e01b14905038610ee4565b635b5e139f60e01b81149150610ec3565b60005b838110610f205750506000910152565b8181015183820152602001610f10565b90602091610f4981518092818552858086019101610f0d565b601f01601f1916010190565b600435906001600160a01b0382168203610f6b57565b600080fd5b602435906001600160a01b0382168203610f6b57565b6060906003190112610f6b576001600160a01b03906004358281168103610f6b57916024359081168103610f6b579060443590565b6020810190811067ffffffffffffffff821117610fd757604052565b634e487b7160e01b600052604160045260246000fd5b90601f8019910116810190811067ffffffffffffffff821117610fd757604052565b67ffffffffffffffff8111610fd757601f01601f191660200190565b9291926110378261100f565b916110456040519384610fed565b829481845281830111610f6b578281602093846000960137010152565b90600182811c92168015611092575b602083101461107c57565b634e487b7160e01b600052602260045260246000fd5b91607f1691611071565b600c546001600160a01b031633036110b057565b60405163118cdaa760e01b8152336004820152602490fd5b6001600160a01b031680156110e857600052600560205260406000205490565b6040516322718ad960e21b815260006004820152602490fd5b6001600160a01b0382811693919084156113af57600091838352600495602093878552604094848683205416973315158061131d575b50881580156112ea575b84845260058352878420805460010190558884528a835287842080546001600160a01b0319168617905588858b7fddf252ad1be2c89b69c2b068fc378daa952ba7f163c4a11628f55a4df523b3ef8780a41561127e57600a54888452600b83528088852055600160401b81101561126b57886111c68260016111df9401600a55611403565b90919082549060031b91821b91600019901b1916179055565b83890361121a575b5050505016908184036111fb575050505050565b516364283d7b60e01b8152938401526024830152604482015260649150fd5b611223906110c8565b6000198101939084116112585782916009918894526008815283832085845281528884842055888352522055388080806111e7565b634e487b7160e01b835260118a52602483fd5b634e487b7160e01b845260418b52602484fd5b8884146111df5761128e896110c8565b8884526009835287842054908a855260088452888520918181036112c8575b508985526009845284898120558452825282878120556111df565b81865282855289862054818752808b88205586526009855289862055386112ad565b600089815260066020526040902080546001600160a01b0319169055898452600583528784208054600019019055611141565b8061136e575b1561132e5738611137565b878a888b61134b57916024925191637e27328960e01b8352820152fd5b5163177e802f60e01b815233918101918252602082019290925281906040010390fd5b503389148015611393575b806113235750878352600682523386888520541614611323565b5088835260078252868320338452825260ff8784205416611379565b604051633250574960e11b815260006004820152602490fd5b6000818152600460205260409020546001600160a01b03169081156113eb575090565b60249060405190637e27328960e01b82526004820152fd5b600a5481101561143a57600a6000527fc65a7bb8d6351c1cf70c95a316cc6a92839c986682d98bc35f958f4883f9d2a80190600090565b634e487b7160e01b600052603260045260246000fd5b90939192833b611462575b5050505050565b604051630a85bd0160e11b8082526001600160a01b0393841660048301529583166024820152604481019190915260806064820152949216926020929185906114af906084830190610f30565b039483816000978189895af186918161155a575b50611524575050503d60001461151b573d6114dd8161100f565b906114eb6040519283610fed565b81528093823d92013e5b8251928361151657604051633250574960e11b815260048101849052602490fd5b019050fd5b606092506114f5565b919450915063ffffffff60e01b16036115425750388080808061145b565b60249060405190633250574960e11b82526004820152fd5b9091508481813d8311611597575b6115728183610fed565b8101031261159357516001600160e01b0319811681036115935790386114c3565b8680fd5b503d611568565b60001981146115ad5760010190565b634e487b7160e01b600052601160045260246000fd5b6040908151916115d283610fbb565b6000808452936001600160a01b03938385169384156118ee579082917fddf252ad1be2c89b69c2b068fc378daa952ba7f163c4a11628f55a4df523b3ef93885260049688878786828c60209a8b978289528588205416968792831596600588159b8c6118bc575b878552528220805460010190558582528d528d812080546001600160a01b0319168517905580a41561184c5750600a54858b52600b875280888c2055600160401b8110156118395790611697866111c68460018d9601600a55611403565b036117ed575b6117d6573b6116b0575b50505050505050565b826116ee91859697989994955180938192630a85bd0160e11b96878452338d8501528d60248501526044840152608060648401526084830190610f30565b03818b8a5af1889181611792575b5061175b575050503d600014611752573d6117168161100f565b9061172384519283610fed565b81528095823d92013e5b8451948561174c57505051633250574960e11b81529182015260249150fd5b85925001fd5b6060945061172d565b919650915063ffffffff60e01b160361177d57505050388080808080806116a7565b51633250574960e11b81529182015260249150fd5b9091508481813d83116117cf575b6117aa8183610fed565b810103126117cb57516001600160e01b0319811681036117cb5790386116fc565b8880fd5b503d6117a0565b84516339e3563760e11b8152808801899052602490fd5b6117f6826110c8565b600019810190811161182657878a5260088652868a20818b52865284878b2055848a5260098652868a205561169d565b634e487b7160e01b8a526011895260248afd5b634e487b7160e01b8b5260418a5260248bfd5b90808214611697578a61185e826110c8565b878252600989528982205483835260088a528a8084209383830361189a575b905089915052600989528c8a8120558c5287528a88812055611697565b838152848c52818120548382528083832055815260098c522055388a8e61187d565b600089815260066020526040902080546001600160a01b03191690558685528181528285208054600019019055611639565b8351633250574960e11b815260048101889052602490fd5b67ffffffffffffffff8111610fd75760051b60200190565b611927816113c8565b50600e549061193582611062565b15611a185761194390611a2d565b604051809260009061195481611062565b906001908181169081156119f357506001146119a4575b505090602082611986856005956119a1975194859201610f0d565b0164173539b7b760d91b815203601a19810184520182610fed565b90565b600e6000908152919250600080516020611b048339815191525b8383106119d85750505081016020908101906119a161196b565b805460208489018101919091528795509092019181016119be565b60ff19166020808701919091528315159093028501830193506119a1915061196b9050565b5050604051611a2681610fbb565b6000815290565b8015611ad457600081805b611ac05750611a468161100f565b90611a546040519283610fed565b808252601f19611a638261100f565b013660208401375b80928015611ab95760001982019182116115ad578193600a9260309084840682018092116115ad578551111561143a5760f81b6001600160f81b03191660001a908401601f01530491611a6b565b5050905090565b90611acc600a9161159e565b910480611a38565b506040516040810181811067ffffffffffffffff821117610fd75760405260018152600360fc1b60208201529056febb7b4a454dc3493923482f07822329ed19e8244eff582cc204f8554c3620c3fda164736f6c6343000814000a",
  "linkReferences": {},
  "deployedLinkReferences": {}
}