{
  "_format": "hh-sol-artifact-1",
  "contractName": "SoulboundToken",
  "sourceName": "src/contracts/SoulboundToken.sol",
  "abi": [
    {
      "inputs": [
        {
          "internalType": "string",
          "name": "name",
          "type": "string"
        },
        {
          "internalType": "string",
          "name": "symbol",
          "type": "string"
        },
        {
          "internalType": "string",
          "name": "_baseURI",
          "type": "string"
        }
      ],
      "stateMutability": "nonpayable",
      "type": "constructor"
    },
    {
      "inputs": [
        {
          "internalType": "address",
          "name": "sender",
          "type": "address"
        },
        {
          "internalType": "uint256",
          "name": "tokenId",
          "type": "uint256"
        },
        {
          "internalType": "address",
          "name": "owner",
          "type": "address"
        }
      ],
      "name": "ERC721IncorrectOwner",
      "type": "error"
    },
    {
      "inputs": [
        {
          "internalType": "address",
          "name": "operator",
          "type": "address"
        },
        {
          "internalType": "uint256",
          "name": "tokenId",
          "type": "uint256"
        }
      ],
      "name": "ERC721InsufficientApproval",
      "type": "error"
    },
    {
      "inputs": [
        {
          "internalType": "address",
          "name": "approver",
          "type": "address"
        }
      ],
      "name": "ERC721InvalidApprover",
      "type": "error"
    },
    {
      "inputs": [
        {
          "internalType": "address",
          "name": "operator",
          "type": "address"
        }
      ],
      "name": "ERC721InvalidOperator",
      "type": "error"
    },
    {
      "inputs": [
        {
          "internalType": "address",
          "name": "owner",
          "type": "address"
        }
      ],
      "name": "ERC721InvalidOwner",
      "type": "error"
    },
    {
      "inputs": [
        {
          "internalType": "address",
          "name": "receiver",
          "type": "address"
        }
      ],
      "name": "ERC721InvalidReceiver",
      "type": "error"
    },
    {
      "inputs": [
        {
          "internalType": "address",
          "name": "sender",
          "type": "address"
        }
      ],
      "name": "ERC721InvalidSender",
      "type": "error"
    },
    {
      "inputs": [
        {
          "internalType": "uint256",
          "name": "tokenId",
          "type": "uint256"
        }
      ],
      "name": "ERC721NonexistentToken",
      "type": "error"
    },
    {
      "inputs": [
        {
          "internalType": "address",
          "name": "owner",
          "type": "address"
        }
      ],
      "name": "OwnableInvalidOwner",
      "type": "error"
    },
    {
      "inputs": [
        {
          "internalType": "address",
          "name": "account",
          "type": "address"
        }
      ],
      "name": "OwnableUnauthorizedAccount",
      "type": "error"
    },
    {
      "anonymous": false,
      "inputs": [
        {
          "indexed": true,
          "internalType": "address",
          "name": "owner",
          "type": "address"
        },
        {
          "indexed": true,
          "internalType": "address",
          "name": "approved",
          "type": "address"
        },
        {
          "indexed": true,
          "internalType": "uint256",
          "name": "tokenId",
          "type": "uint256"
        }
      ],
      "name": "Approval",
      "type": "event"
    },
    {
      "anonymous": false,
      "inputs": [
        {
          "indexed": true,
          "internalType": "address",
          "name": "owner",
          "type": "address"
        },
        {
          "indexed": true,
          "internalType": "address",
          "name": "operator",
          "type": "address"
        },
        {
          "indexed": false,
          "internalType": "bool",
          "name": "approved",
          "type": "bool"
        }
      ],
      "name": "ApprovalForAll",
      "type": "event"
    },
    {
      "anonymous": false,
      "inputs": [
        {
          "indexed": true,
          "internalType": "uint256",
          "name": "tokenId",
          "type": "uint256"
        },
        {
          "indexed": true,
          "internalType": "address",
          "name": "to",
          "type": "address"
        },
        {
          "indexed": false,
          "internalType": "string",
          "name": "metadata",
          "type": "string"
        }
      ],
      "name": "Issued",
      "type": "event"
    },
    {
      "anonymous": false,
      "inputs": [
        {
          "indexed": true,
          "internalType": "address",
          "name": "previousOwner",
          "type": "address"
        },
        {
          "indexed": true,
          "internalType": "address",
          "name": "newOwner",
          "type": "address"
        }
      ],
      "name": "OwnershipTransferred",
      "type": "event"
    },
    {
      "anonymous": false,
      "inputs": [
        {
          "indexed": true,
          "internalType": "uint256",
          "name": "tokenId",
          "type": "uint256"
        }
      ],
      "name": "Revoked",
      "type": "event"
    },
    {
      "anonymous": false,
      "inputs": [
        {
          "indexed": true,
          "internalType": "address",
          "name": "from",
          "type": "address"
        },
        {
          "indexed": true,
          "internalType": "address",
          "name": "to",
          "type": "address"
        },
        {
          "indexed": true,
          "internalType": "uint256",
          "name": "tokenId",
          "type": "uint256"
        }
      ],
      "name": "Transfer",
      "type": "event"
    },
    {
      "inputs": [
        {
          "internalType": "address",
          "name": "to",
          "type": "address"
        },
        {
          "internalType": "uint256",
          "name": "tokenId",
          "type": "uint256"
        }
      ],
      "name": "approve",
      "outputs": [],
      "stateMutability": "nonpayable",
      "type": "function"
    },
    {
      "inputs": [
        {
          "internalType": "address",
          "name": "owner",
          "type": "address"
        }
      ],
      "name": "balanceOf",
      "outputs": [
        {
          "internalType": "uint256",
          "name": "",
          "type": "uint256"
        }
      ],
      "stateMutability": "view",
      "type": "function"
    },
    {
      "inputs": [],
      "name": "baseURI",
      "outputs": [
        {
          "internalType": "string",
          "name": "",
          "type": "string"
        }
      ],
      "stateMutability": "view",
      "type": "function"
    },
    {
      "inputs": [
        {
          "internalType": "uint256",
          "name": "tokenId",
          "type": "uint256"
        }
      ],
      "name": "getApproved",
      "outputs": [
        {
          "internalType": "address",
          "name": "",
          "type": "address"
        }
      ],
      "stateMutability": "view",
      "type": "function"
    },
    {
      "inputs": [
        {
          "internalType": "uint256",
          "name": "tokenId",
          "type": "uint256"
        }
      ],
      "name": "getMetadata",
      "outputs": [
        {
          "internalType": "string",
          "name": "",
          "type": "string"
        }
      ],
      "stateMutability": "view",
      "type": "function"
    },
    {
      "inputs": [
        {
          "internalType": "address",
          "name": "owner",
          "type": "address"
        },
        {
          "internalType": "address",
          "name": "operator",
          "type": "address"
        }
      ],
      "name": "isApprovedForAll",
      "outputs": [
        {
          "internalType": "bool",
          "name": "",
          "type": "bool"
        }
      ],
      "stateMutability": "view",
      "type": "function"
    },
    {
      "inputs": [
        {
          "internalType": "address",
          "name": "to",
          "type": "address"
        },
        {
          "internalType": "string",
          "name": "metadata",
          "type": "string"
        }
      ],
      "name": "issue",
      "outputs": [
        {
          "internalType": "uint256",
          "name": "",
          "type": "uint256"
        }
      ],
      "stateMutability": "nonpayable",
      "type": "function"
    },
    {
      "inputs": [],
      "name": "name",
      "outputs": [
        {
          "internalType": "string",
          "name": "",
          "type": "string"
        }
      ],
      "stateMutability": "view",
      "type": "function"
    },
    {
      "inputs": [],
      "name": "owner",
      "outputs": [
        {
          "internalType": "address",
          "name": "",
          "type": "address"
        }
      ],
      "stateMutability": "view",
      "type": "function"
    },
    {
      "inputs": [
        {
          "internalType": "uint256",
          "name": "tokenId",
          "type": "uint256"
        }
      ],
      "name": "ownerOf",
      "outputs": [
        {
          "internalType": "address",
          "name": "",
          "type": "address"
        }
      ],
      "stateMutability": "view",
      "type": "function"
    },
    {
      "inputs": [],
      "name": "renounceOwnership",
      "outputs": [],
      "stateMutability": "nonpayable",
      "type": "function"
    },
    {
      "inputs": [
        {
          "internalType": "uint256",
          "name": "tokenId",
          "type": "uint256"
        }
      ],
      "name": "revoke",
      "outputs": [],
      "stateMutability": "nonpayable",
      "type": "function"
    },
    {
      "inputs": [
        {
          "internalType": "address",
          "name": "from",
          "type": "address"
        },
        {
          "internalType": "address",
          "name": "to",
          "type": "address"
        },
        {
          "internalType": "uint256",
          "name": "tokenId",
          "type": "uint256"
        }
      ],
      "name": "safeTransferFrom",
      "outputs": [],
      "stateMutability": "nonpayable",
      "type": "function"
    },
    {
      "inputs": [
        {
          "internalType": "address",
          "name": "from",
          "type": "address"
        },
        {
          "internalType": "address",
          "name": "to",
          "type": "address"
        },
        {
          "internalType": "uint256",
          "name": "tokenId",
          "type": "uint256"
        },
        {
          "internalType": "bytes",
          "name": "data",
          "type": "bytes"
        }
      ],
      "name": "safeTransferFrom",
      "outputs": [],
      "stateMutability": "nonpayable",
      "type": "function"
    },
    {
      "inputs": [
        {
          "internalType": "address",
          "name": "operator",
          "type": "address"
        },
        {
          "internalType": "bool",
          "name": "approved",
          "type": "bool"
        }
      ],
      "name": "setApprovalForAll",
      "outputs": [],
      "stateMutability": "nonpayable",
      "type": "function"
    },
    {
      "inputs": [
        {
          "internalType": "string",
          "name": "_baseURI",
          "type": "string"
        }
      ],
      "name": "setBaseURI",
      "outputs": [],
      "stateMutability": "nonpayable",
      "type": "function"
    },
    {
      "inputs": [
        {
          "internalType": "bytes4",
          "name": "interfaceId",
          "type": "bytes4"
        }
      ],
      "name": "supportsInterface",
      "outputs": [
        {
          "internalType": "bool",
          "name": "",
          "type": "bool"
        }
      ],
      "stateMutability": "view",
      "type": "function"
    },
    {
      "inputs": [],
      "name": "symbol",
      "outputs": [
        {
          "internalType": "string",
          "name": "",
          "type": "string"
        }
      ],
      "stateMutability": "view",
      "type": "function"
    },
    {
      "inputs": [
        {
          "internalType": "uint256",
          "name": "",
          "type": "uint256"
        }
      ],
      "name": "tokenMetadata",
      "outputs": [
        {
          "internalType": "string",
          "name": "",
          "type": "string"
        }
      ],
      "stateMutability": "view",
      "type": "function"
    },
    {
      "inputs": [
        {
          "internalType": "uint256",
          "name": "tokenId",
          "type": "uint256"
        }
      ],
      "name": "tokenURI",
      "outputs": [
        {
          "internalType": "string",
          "name": "",
          "type": "string"
        }
      ],
      "stateMutability": "view",
      "type": "function"
    },
    {
      "inputs": [
        {
          "internalType": "address",
          "name": "from",
          "type": "address"
        },
        {
          "internalType": "address",
          "name": "to",
          "type": "address"
        },
        {
          "internalType": "uint256",
          "name": "tokenId",
          "type": "uint256"
        }
      ],
      "name": "transferFrom",
      "outputs": [],
      "stateMutability": "nonpayable",
      "type": "function"
    },
    {
      "inputs": [
        {
          "internalType": "address",
          "name": "newOwner",
          "type": "address"
        }
      ],
      "name": "transferOwnership",
      "outputs": [],
      "stateMutability": "nonpayable",
      "type": "function"
    }
  ],
  "bytecode": "0x608060405234620004df5762001eab803803806200001d81620004e4565b9283398101606082820312620004df5781516001600160401b039190828111620004df57816200004f9185016200050a565b9060209384810151848111620004df57826200006d9183016200050a565b916040820151858111620004df576200008792016200050a565b825191848311620004c9576000908154936001958686811c96168015620004be575b89871014620003c8578190601f968781116200046b575b50899087831160011462000407578592620003fb575b5050600019600383901b1c191690861b1782555b805190868211620003e75785548681811c91168015620003dc575b89821014620003c85790818684931162000375575b5088908683116001146200031157849262000305575b5050600019600383901b1c191690851b1784555b3315620002ed5760068054336001600160a01b0319821681179092556001600160a01b03167f8be0079c531659141344cd1fd0a4f28419497f9722a3daafe3b4186f6b6457e08380a3836007558151948511620002d9576008548481811c91168015620002ce575b87821014620002ba5783811162000271575b508592851160011462000208579394508492919083620001fc575b50501b916000199060031b1c1916176008555b60405161192e90816200057d8239f35b015192503880620001d9565b6008815285812093958591601f198316915b888383106200025657505050106200023c575b505050811b01600855620001ec565b015160001960f88460031b161c191690553880806200022d565b8587015188559096019594850194879350908101906200021a565b600882528682208480880160051c820192898910620002b0575b0160051c019085905b828110620002a4575050620001be565b83815501859062000294565b925081926200028b565b634e487b7160e01b82526022600452602482fd5b90607f1690620001ac565b634e487b7160e01b81526041600452602490fd5b60249060405190631e4fbdf760e01b82526004820152fd5b01519050388062000130565b8785528985208894509190601f198416865b8c8282106200035e575050841162000344575b505050811b01845562000144565b015160001960f88460031b161c1916905538808062000336565b8385015186558b9790950194938401930162000323565b9091508684528884208680850160051c8201928b8610620003be575b918991869594930160051c01915b828110620003af5750506200011a565b8681558594508991016200039f565b9250819262000391565b634e487b7160e01b84526022600452602484fd5b90607f169062000105565b634e487b7160e01b83526041600452602483fd5b015190503880620000d6565b8580528a86208994509190601f198416875b8d8282106200045457505084116200043a575b505050811b018255620000ea565b015160001960f88460031b161c191690553880806200042c565b8385015186558c9790950194938401930162000419565b9091508480528985208780850160051c8201928c8610620004b4575b918a91869594930160051c01915b828110620004a5575050620000c0565b8781558594508a910162000495565b9250819262000487565b95607f1695620000a9565b634e487b7160e01b600052604160045260246000fd5b600080fd5b6040519190601f01601f191682016001600160401b03811183821017620004c957604052565b919080601f84011215620004df5782516001600160401b038111620004c95760209062000540601f8201601f19168301620004e4565b92818452828287010111620004df5760005b8181106200056857508260009394955001015290565b85810183015184820184015282016200055256fe6080604081815260048036101561001557600080fd5b600092833560e01c90816301ffc9a7146110065750806304b444d914610b8457806306fdde0314610adc578063081812fc14610aa1578063095ea7b3146109c557806320c5429b146107eb57806323b872dd146107d357806342842e0e146107a457806355f804b3146106425780636352211e146106115780636914db60146105e85780636c0360eb1461055057806370a08231146104fb578063715018a61461049e5780638da5cb5b1461047557806395d89b4114610392578063a22cb465146102f1578063a574cea4146102a7578063b88d4fde14610234578063c87b56dd146101f9578063e985e9c5146101a75763f2fde38b1461011557600080fd5b346101a35760203660031901126101a35761012e611072565b906101376112c5565b6001600160a01b0391821692831561018d575050600654826bffffffffffffffffffffffff60a01b821617600655167f8be0079c531659141344cd1fd0a4f28419497f9722a3daafe3b4186f6b6457e08380a380f35b51631e4fbdf760e01b8152908101849052602490fd5b8280fd5b5050346101f557806003193601126101f55760ff816020936101c7611072565b6101cf61108d565b6001600160a01b0391821683526005875283832091168252855220549151911615158152f35b5080fd5b509134610231576020366003190112610231575061021a61022d9235611709565b905191829160208352602083019061118b565b0390f35b80fd5b8382346101f55760803660031901126101f55761024f611072565b61025761108d565b6044359060643567ffffffffffffffff81116102a357366023820112156102a3576102a09481602461028e93369301359101611113565b9261029a8383836112f1565b33611540565b80f35b8580fd5b50346101a35760203660031901126101a3573580835260026020528183205461022d9361021a9284926102e4906001600160a01b031615156116c6565b815260096020522061121f565b5090346101a357806003193601126101a35761030b611072565b906024359182151580930361038e576001600160a01b03169283156103795750338452600560205280842083855260205280842060ff1981541660ff8416179055519081527f17307eab39ab6107e8899845ad3d59bd9653f200f220920489ca2b5937696c3160203392a380f35b836024925191630b61174360e31b8352820152fd5b8480fd5b5050346101f557816003193601126101f5578051908260018054916103b6836111e5565b8086529282811690811561044d57506001146103f1575b5050506103df8261022d9403836110d5565b5191829160208352602083019061118b565b94508085527fb10e2d527612073b26eecdfd717e6a320cf44b4afac2b0732d9fcbe2b7fa0cf65b828610610435575050506103df82602061022d95820101946103cd565b80546020878701810191909152909501948101610418565b61022d9750869350602092506103df94915060ff191682840152151560051b820101946103cd565b5050346101f557816003193601126101f55760065490516001600160a01b039091168152602090f35b83346102315780600319360112610231576104b76112c5565b600680546001600160a01b0319811690915581906001600160a01b03167f8be0079c531659141344cd1fd0a4f28419497f9722a3daafe3b4186f6b6457e08280a380f35b509134610231576020366003190112610231576001600160a01b0361051e611072565b1692831561053b5750806020938392526003845220549051908152f35b91516322718ad960e21b815291820152602490fd5b5050346101f557816003193601126101f55780519082600854610572816111e5565b8085529160019180831690811561044d575060011461059d575050506103df8261022d9403836110d5565b9450600885526000805160206119028339815191525b8286106105d0575050506103df82602061022d95820101946103cd565b805460208787018101919091529095019481016105b3565b50346101a35760203660031901126101a3578161022d9361021a9235815260096020522061121f565b509134610231576020366003190112610231575061063160209235611505565b90516001600160a01b039091168152f35b508234610231576020806003193601126101f55767ffffffffffffffff9083358281116107a057610676903690860161114a565b9361067f6112c5565b845192831161078d57506106946008546111e5565b601f8111610747575b5080601f83116001146106d8575082938293926106cd575b50508160011b916000199060031b1c19161760085580f35b0151905083806106b5565b60088452601f19831694600080516020611902833981519152929185905b87821061072f575050836001959610610716575b505050811b0160085580f35b015160001960f88460031b161c1916905583808061070a565b806001859682949686015181550195019301906106f6565b61077d9060088552600080516020611902833981519152601f850160051c810191848610610783575b601f0160051c01906116af565b8461069d565b9091508190610770565b634e487b7160e01b845260419052602483fd5b8380fd5b5050346101f5576102a0906107b8366111b0565b919251926107c5846110a3565b85845261029a8383836112f1565b8334610231576102a06107e5366111b0565b916112f1565b5090346101a357602090816003193601126107a05782359261080b6112c5565b83855260028352818520546001600160a01b039061082c90821615156116c6565b848652600284528083872054161515806109be575b61096d578486526002845282862054168486821592831561093a575b8282526002875285822080546001600160a01b03191690557fddf252ad1be2c89b69c2b068fc378daa952ba7f163c4a11628f55a4df523b3ef8280a46109255750908391838352600982528220906108b582546111e5565b90816108e6575b505050807f61e27b0bfd8e18e6b92ec32ce1c28bb698d27bfe93e84c7e94d4db0a3135c76091a280f35b8390601f831160011461090157505050555b813880806108bc565b838252812092909161091e90601f0160051c8401600185016116af565b55556108f8565b836024925191637e27328960e01b8352820152fd5b600083815260046020526040902080546001600160a01b031916905580825260038752858220805460001901905561085d565b5082608492519162461bcd60e51b8352820152602660248201527f536f756c626f756e6420746f6b656e732063616e6e6f74206265207472616e7360448201526519995c9c995960d21b6064820152fd5b5085610841565b5090346101a357806003193601126101a3576109df611072565b916024356109ec81611505565b33151580610a8e575b80610a65575b610a4f576001600160a01b039485169482918691167f8c5be1e5ebec7d5bd14f71427d1e84f3dd0314c0f7b2291e5b200ac8c7c3b9258880a48452602052822080546001600160a01b031916909117905580f35b835163a9fbf51f60e01b81523381850152602490fd5b506001600160a01b03811686526005602090815284872033885290528386205460ff16156109fb565b506001600160a01b0381163314156109f5565b50346101a35760203660031901126101a357918260209335610ac281611505565b50825283528190205490516001600160a01b039091168152f35b5050346101f557816003193601126101f557805190828054610afd816111e5565b8085529160019180831690811561044d5750600114610b28575050506103df8261022d9403836110d5565b80809650527f290decd9548b62a8d60345a988386fc84ba6bc95484008f6362f93160ef3e5635b828610610b6c575050506103df82602061022d95820101946103cd565b80546020878701810191909152909501948101610b4f565b5090346101a357806003193601126101a357610b9e611072565b9160249067ffffffffffffffff90823582811161100257610bc2903690830161114a565b91610bcb6112c5565b6001600160a01b0396868816948515610fcc5760075497610beb8961168a565b600755875190610bfa826110a3565b83825289845260209a60028c52808a86205416151580610fc4575b610f735790898b8a879695948f9883905260028952838820541660028115159485610f40575b838a5260038b52892080546001908101909155848a5299528d882080546001600160a01b031916831790557fddf252ad1be2c89b69c2b068fc378daa952ba7f163c4a11628f55a4df523b3ef8880a4610f2a573b610e02575b5088825260098a52878220948651948511610df157505090839291610cbb899695546111e5565b601f8111610dc3575b508990601f8411600114610d3a579280610d26959381937f381b3c2768bc16c7296e77b51cac213d6e8331455193be573ca09ebc9808d71f989693610d2f575b501b916000199060031b1c19161790555b85519182918983528983019061118b565b0390a351908152f35b860151925038610d04565b90601f9392931983168583528b8320925b8c828210610dac575050918391610d2696947f381b3c2768bc16c7296e77b51cac213d6e8331455193be573ca09ebc9808d71f98969410610d93575b5050811b019055610d15565b85015160001960f88460031b161c191690553880610d87565b8884015185558c9950938601939283019201610d4b565b610deb908583528b8320601f860160051c8101918d871061078357601f0160051c01906116af565b38610cc4565b634e487b7160e01b83526041905281fd5b94610e4a8b839c978a8680869f9a989c99978f9e9f5196879586948593630a85bd0160e11b9b8c865233908601528401528d604484015260806064840152608483019061118b565b03925af1889181610ee6575b50610eb2575050505050503d600014610ea9573d610e73816110f7565b90610e80855192836110d5565b81528092823d92013e5b81519182610ea6575050505191633250574960e11b8352820152fd5b01fd5b60609150610e8a565b63ffffffff60e09c93959894969b979c9a999a1b1603610ed25738610c94565b8751633250574960e11b8152808601889052fd5b9091508781813d8311610f23575b610efe81836110d5565b81010312610f1f57516001600160e01b031981168103610f1f579038610e56565b8880fd5b503d610ef4565b89516339e3563760e11b81528088018590528390fd5b600085815260046020526040902080546001600160a01b0319169055828a5260038b52808a208054600019019055610c3b565b895162461bcd60e51b81528088018d90526026818601527f536f756c626f756e6420746f6b656e732063616e6e6f74206265207472616e7360448201526519995c9c995960d21b6064820152608490fd5b506001610c15565b83601160649260208a519362461bcd60e51b855284015282015270125b9d985b1a59081c9958da5c1a595b9d607a1b6044820152fd5b8680fd5b925050346101a35760203660031901126101a3573563ffffffff60e01b81168091036101a357602092506380ac58cd60e01b8114908115611061575b8115611050575b5015158152f35b6301ffc9a760e01b14905038611049565b635b5e139f60e01b81149150611042565b600435906001600160a01b038216820361108857565b600080fd5b602435906001600160a01b038216820361108857565b6020810190811067ffffffffffffffff8211176110bf57604052565b634e487b7160e01b600052604160045260246000fd5b90601f8019910116810190811067ffffffffffffffff8211176110bf57604052565b67ffffffffffffffff81116110bf57601f01601f191660200190565b92919261111f826110f7565b9161112d60405193846110d5565b829481845281830111611088578281602093846000960137010152565b9080601f830112156110885781602061116593359101611113565b90565b60005b83811061117b5750506000910152565b818101518382015260200161116b565b906020916111a481518092818552858086019101611168565b601f01601f1916010190565b6060906003190112611088576001600160a01b0390600435828116810361108857916024359081168103611088579060443590565b90600182811c92168015611215575b60208310146111ff57565b634e487b7160e01b600052602260045260246000fd5b91607f16916111f4565b9060405191826000825492611233846111e5565b9081845260019485811690816000146112a2575060011461125f575b505061125d925003836110d5565b565b9093915060005260209081600020936000915b81831061128a57505061125d9350820101388061124f565b85548884018501529485019487945091830191611272565b91505061125d94506020925060ff191682840152151560051b820101388061124f565b6006546001600160a01b031633036112d957565b60405163118cdaa760e01b8152336004820152602490fd5b6001600160a01b0391821692909183156114ec57600092828452602094600286526040958387872054161515806114e4575b6114925790849182875260028152848888205416968791331515806113fc575b509060027fddf252ad1be2c89b69c2b068fc378daa952ba7f163c4a11628f55a4df523b3ef92846113c9575b858352600381528b8320805460010190558683525289812080546001600160a01b0319168517905580a416928383036113a85750505050565b6064945051926364283d7b60e01b8452600484015260248301526044820152fd5b600087815260046020526040902080546001600160a01b0319169055848352600381528b8320805460001901905561136f565b91939450915080611451575b1561141857859291879138611343565b878688611435576024915190637e27328960e01b82526004820152fd5b604491519063177e802f60e01b82523360048301526024820152fd5b503387148015611476575b806114085750858252600481523385898420541614611408565b5086825260058152878220338352815260ff888320541661145c565b60849087519062461bcd60e51b82526004820152602660248201527f536f756c626f756e6420746f6b656e732063616e6e6f74206265207472616e7360448201526519995c9c995960d21b6064820152fd5b506001611323565b604051633250574960e11b815260006004820152602490fd5b6000818152600260205260409020546001600160a01b0316908115611528575090565b60249060405190637e27328960e01b82526004820152fd5b90939192833b611552575b5050505050565b604051630a85bd0160e11b8082526001600160a01b03938416600483015295831660248201526044810191909152608060648201529492169260209291859061159f90608483019061118b565b039483816000978189895af186918161164a575b50611614575050503d60001461160b573d6115cd816110f7565b906115db60405192836110d5565b81528093823d92013e5b8251928361160657604051633250574960e11b815260048101849052602490fd5b019050fd5b606092506115e5565b919450915063ffffffff60e01b16036116325750388080808061154b565b60249060405190633250574960e11b82526004820152fd5b9091508481813d8311611683575b61166281836110d5565b8101031261100257516001600160e01b0319811681036110025790386115b3565b503d611658565b60001981146116995760010190565b634e487b7160e01b600052601160045260246000fd5b8181106116ba575050565b600081556001016116af565b156116cd57565b60405162461bcd60e51b8152602060048201526014602482015273151bdad95b88191bd95cc81b9bdd08195e1a5cdd60621b6044820152606490fd5b61171281611505565b5060085490611720826111e5565b156118005761172e90611815565b604051809260009061173f816111e5565b906001908181169081156117db575060011461178c575b50509060208261177185600595611165975194859201611168565b0164173539b7b760d91b815203601a198101845201826110d5565b600860009081529192506000805160206119028339815191525b8383106117c0575050508101602090810190611165611756565b805460208489018101919091528795509092019181016117a6565b60ff191660208087019190915283151590930285018301935061116591506117569050565b505060405161180e816110a3565b6000815290565b80156118d257600081805b6118be575061182e816110f7565b9061183c60405192836110d5565b808252601f1961184b826110f7565b013660208401375b809280156118b7576000198201918211611699578193600a92603090848406820180921161169957855111156118a15760f81b6001600160f81b03191660001a908401601f01530491611853565b634e487b7160e01b600052603260045260246000fd5b5050905090565b906118ca600a9161168a565b910480611820565b506040516040810181811067ffffffffffffffff8211176110bf5760405260018152600360fc1b60208201529056fef3f7a9fe364faab93b216da50a3214154f22a0a2b415b23a84c8169e8b636ee3a164736f6c6343000814000a",
  "linkReferences": {},
  "deployedLinkReferences": {}
}